:1000000085C100000C94C8270C94F3270C941E287B
:100010000C9449280C9474280C949F280C94CA289A
:100020000C94F528A4C10000A2C10000A0C10000EA
:100030009EC100009CC100009AC1000098C1000050
:1000400096C1000094C1000092C1000090C1000060
:100050008EC100008CC100008AC100000C942029D0
:1000600086C100000C941C2D0C94522D80C1000000
:100070007EC100007CC100007AC1000078C1000090
:1000800076C1000074C1000072C1000070C10000A0
:100090000C94A82D0C94DE2D6AC1000068C10000EC
:1000A00066C1000064C1000062C1000060C10000C0
:1000B0005EC100005CC100005AC1000058C10000D0
:1000C00056C1000054C100000C94EB180C94342E5F
:1000D0000C946A2E4CC100000C94C02E0C94F62E89
:1000E00046C10000001D3A2774694E53E8F5D2CF8F
:1000F0009C81A6BBCDD0F7EAB9A4839E25381F0208
:10010000514C6B76879ABDA0F3EEC9D46F725548F7
:100110001B06213C4A57706D3E230419A2BF9885E7
:10012000D6CBECF1130E2934677A5D40FBE6C1DCD7
:100130008F92B5A8DEC3E4F9AAB7908D362B0C11C7
:10014000425F78659489AEB3E0FDDAC77C61465BB7
:100150000815322F5944637E2D30170AB1AC8B96A7
:10016000C5D8FFE2263B1C01524F6875CED3F4E997
:10017000BAA7809DEBF6D1CC9F82A5B8031E392487
:10018000776A4D50A1BC9B86D5C8EFF24954736E77
:100190003D20071A6C71564B1805223F8499BEA367
:1001A000F0EDCAD735280F12415C7B66DDC0E7FA57
:1001B000A9B4938EF8E5C2DF8C91B6AB100D2A3747
:1001C00064795E43B2AF8895C6DBFCE15A47607D37
:1001D0002E3314097F6245580B16312C978AADB027
:1001E000E3FED9C400000A0B02090C0D0E08070338
:1001F00004010000000000000000000000000000FA
:1002000000000000000000000000000000000000EE
:1002100012111000000000000000000000000000AB
:100220000000000000000000000001021020200873
:100230000810204010204080020102010804020141
:1002400001020408102040808040201008040201B0
:100250008004020180402010080402010804020109
:100260000102040810204080010204081020408090
:1002700005050505070508080808020202020A0A22
:100280000808040404040101010101010101030340
:10029000030303030303040707070C0C0C0C0C0CEB
:1002A0000C0C0202020206060606060606060B0BE8
:1002B0000B0B0B0B0B0B000020002300260029006A
:1002C0002C002F003200000100000301060109018B
:1002D00000002200250028002B002E0031003400F1
:1002E00002010000050108010B01000021002400AB
:1002F00027002A002D003000330001010000040116
:1003000007010A017B2D072E932E1F2F11241FBEDC
:10031000CFEFD1E2DEBFCDBF00E00CBF14E0A0E024
:10032000B2E0EAE4F2E600E00BBF02C007900D92F3
:10033000A83AB107D9F728E0A8EAB4E001C01D92B5
:10034000AC3CB207E1F711E0C6E8D1E000E006C03E
:1003500021970109802FFE010E94AF2FC238D107DB
:1003600080E00807A9F70E9411250C94233148CE9C
:10037000611102C00C94612B6130E1F362E0FACFAD
:10038000662319F061E00C949D2B60E0FCCF08958A
:10039000CF92DF92EF92FF92CF93882351F16A01BF
:1003A0007B01CFEFC80F20E030E0A901CB01B601FF
:1003B0000E94FF2587FF11C0C701B60190580E9417
:1003C00008269B01AC016C2F70E090E080E0CF919B
:1003D000FF90EF90DF90CF90B2C0C701B6010E94AE
:1003E00003268C2FCF91FF90EF90DF90CF900C944D
:1003F000272ACF91FF90EF90DF90CF9008950F9331
:100400001F938B019C0183E03695279517950795DF
:100410008A95D1F708551B4F462F477021E030E0F1
:10042000F90102C0EE0FFF1F4A95E2F7AF01F80194
:1004300020812423CB010196211102C090E080E0AD
:100440001F910F9108950F931F938B019C0183E0DF
:1004500036952795179507958A95D1F7677081E0AE
:1004600090E001C0880F6A95EAF7F801E855FB4F64
:100470002081452B31F48095822380831F910F9139
:100480000895822BFACF2F923F924F925F926F92F4
:100490007F928F929F92AF92BF92CF92DF92EF9214
:1004A000FF920F931F93CF93DF93D62EC72E782EF4
:1004B000692E49015A01280161E08D2D0E94612BAE
:1004C000CD2DDC2D8E010F5F1F4FA8016D2D7C2DD2
:1004D000872D962DB8DF20E030E0A901C201B701D9
:1004E0000E94E626181664F4C201B7010E9408268D
:1004F0002B01C501B4010E940826A201CE0123D020
:10050000C801DF91CF911F910F91FF90EF90DF9085
:10051000CF90BF90AF909F908F907F906F905F90A3
:100520004F903F902F900895882341F08150682F7D
:1005300070E090E080E050E040E085CF0895862FA5
:10054000B9010C94272A9C01FC01EC51FE4FE49167
:10055000E150E231E0F4F0E08827EE54FD4F8F4F98
:100560000C94AF2FC402CB02CE02E502FA02C702FE
:100570000F031B031F0336034B03600377038C0336
:10058000C702A103B803CD0384B5806884BD60E0D1
:10059000822F0C949D2B84B58062F8CF80918000CF
:1005A0008C7F82608093800080918100807E80615A
:1005B000682B609381005093870040938600809160
:1005C0008000806880938000E2CF809180008C7FE3
:1005D00082608093800080918100807E8061682BA2
:1005E0006093810050938700409386008091800043
:1005F0008062E8CF809180008C7F82608093800051
:1006000080918100807E8061682B6093810050938F
:10061000870040938600809180008860D3CF8091CE
:10062000B00080688093B0008091B100887F682B13
:100630006093B100ACCF8091B0008062F3CF809125
:1006400090008C7F82608093900080919100807EEA
:100650008061682B609391005093970040939600BF
:100660008091900080688093900091CF809190005D
:100670008C7F82608093900080919100807E806169
:10068000682B60939100509397004093960080915F
:1006900090008062E8CF809190008C7F8260809390
:1006A000900080919100807E8061682B6093910022
:1006B0005093970040939600809190008860D3CF2C
:1006C0008091A0008C7F82608093A0008091A10027
:1006D000807E8061682B6093A1005093A7004093B7
:1006E000A6008091A00080688093A00050CF8091E8
:1006F000A0008C7F82608093A0008091A100807E0A
:100700008061682B6093A1005093A7004093A600DE
:100710008091A0008062E8CF8091A0008C7F8260F1
:100720008093A0008091A100807E8061682B6093FF
:10073000A1005093A7004093A6008091A00088607C
:10074000D3CF809120018C7F8260809320018091A3
:100750002101807E8061682B6093210150932701E5
:1007600040932601809120018068809320010FCF63
:10077000809120018C7F82608093200180912101F3
:10078000807E8061682B6093210150932701409304
:100790002601809120018062E8CF809120018C7F2A
:1007A00082608093200180912101807E8061682B8E
:1007B00060932101509327014093260180912001ED
:1007C0008860D3CF2F923F924F925F926F927F9229
:1007D0008F929F92AF92BF92CF92DF92EF92FF9251
:1007E0000F931F93CF93DF93CDB7DEB76E970FB6FE
:1007F000F894DEBF0FBECDBF40905A0850905B0802
:1008000060905C0870905D08409285085092860860
:10081000609287087092880880905E0890905F08C8
:10082000A0906008B09061088092890890928A0830
:10083000A0928B08B0928C08C0906208D090630898
:10084000E0906408F0906508C0928D08D0928E0800
:10085000E0928F08F0929008809166089091670866
:10086000A0916808B091690889839A83AB83BC839F
:100870008093910890939208A0939308B093940862
:1008800020913A0330913B0340913C0350913D034A
:100890006091F1047091F2048091F3049091F4045A
:1008A0000E94FF2587FF76C180913E0390913F0310
:1008B000A0914003B09141038D839E83AF83B8879D
:1008C0002091DE023091DF024091E0025091E1027E
:1008D000C301B2010E94EA262B013C012091E202F1
:1008E0003091E3024091E4025091E502C501B40168
:1008F0000E94EA269B01AC01C301B2010E949B2524
:100900004B015C012091E6023091E7024091E80240
:100910005091E902C701B6010E94EA269B01AC0191
:10092000C501B4010E949B256B017C012091EA0264
:100930003091EB024091EC025091ED0269817A8195
:100940008B819C810E94EA269B01AC01C701B60104
:100950000E949B259B01AC016D817E818F819885D2
:100960000E949A2560939508709396088093970843
:100970009093980820918008309181088091EE0230
:100980009091EF022817390709F40DC181E04091D9
:10099000F0025091F1024217530709F080E0809372
:1009A000AD082AE638E04BEA58E069EA78E08DEADB
:1009B00098E00E944E186091A9087091AA08072E2D
:1009C000000C880B990B0E9436262091560330911B
:1009D000570340915803509159030E949B256B0186
:1009E0007C0180905E0390905F03A0906003B090C4
:1009F0006103AC019B01C501B4010E94FF2587FF83
:100A0000D4C0A5019401C701B6010E949A25209186
:100A100062033091630340916403509165030E9427
:100A2000EA266B017C01C0929908D0929A08E09264
:100A30009B08F0929C086091AB087091AC08072E5F
:100A4000000C880B990B0E9436262091660330918A
:100A5000670340916803509169030E94EA266093FE
:100A60009D0870939E0880939F089093A008209102
:100A7000AD08222321F020919C032093820820912D
:100A80008208222309F4A6C06093A1087093A208EB
:100A90008093A3089093A408C092A508D092A608BA
:100AA000E092A708F092A808009195081091960886
:100AB000909197089D83A0919808A983C0908A037C
:100AC000D0908B03E0908C03F0908D03A7019601EA
:100AD000B801892F9A2F0E94E6261816A4F0C0901C
:100AE0008E03D0908F03E0909003F0909103A701C4
:100AF0009601B8018D8199810E94FF2587FD03C071
:100B00006801ED80F9802091920330919303409128
:100B1000940350919503C701B6010E94EA264B0148
:100B20005C0120E030E0A9010E94FF2587FD30C074
:100B300020E030E0A901C501B4010E94E6261816A4
:100B40000CF461C020E030E0A901C501B4010E94AD
:100B5000FF25882309F411C38090BA089090BB0840
:100B6000A090BC08B090BD0820E030E040E853E41D
:100B7000C501B4010E94FF256FEF87FF4EC020E042
:100B800030E0A901C501B4010E94E62687FF41C0FB
:100B900060E043C08091420390914303A0914403DD
:100BA000B091450389CE81E0FACE80905A039090AF
:100BB0005B03A0905C03B0905D03A7019601C501A3
:100BC000B4010E94FF2518160CF41BCF60E070E002
:100BD000CB011DCF8091F2029091F302A091F4021B
:100BE000B091F5028093A1089093A208A093A30866
:100BF000B093A4088093A5089093A608A093A70893
:100C0000B093A80851CF812C912C20E8A22E2FE37D
:100C1000B22EC501B4010E9408268AE0B1DBE89437
:100C2000F7F860914E0870914F08809150089091AC
:100C30005108E5DB9A83898390934D0880934C0893
:100C40002091960330919703409198035091990316
:100C5000C701B6010E94EA266B017C0120E030E06A
:100C60004FE753E40E94FF2587FF8BC220E030E06E
:100C7000A901C701B6010E94E62618160CF088C229
:100C8000B701A60189819A8183DB809189089091BF
:100C90008A08A0918B08B0918C0889839A83AB83D2
:100CA000BC838091850890918608A0918708B091B7
:100CB00088088D839E83AF83B88780918D0890913B
:100CC0008E08A0918F08B091900889879A87AB878A
:100CD000BC87409091085090920860909308709063
:100CE000940820916A0330916B0340916C035091FA
:100CF0006D036D817E818F8198850E94EA266B014C
:100D00007C012091720330917303409174035091E0
:100D1000750369817A818B819C810E94EA269B01FF
:100D2000AC01C701B6010E949B256B017C0120919B
:100D30007A0330917B0340917C0350917D03698558
:100D40007A858B859C850E94EA269B01AC01C701B0
:100D5000B6010E949B256B017C012091820330919A
:100D600083034091840350918503C301B2010E9423
:100D7000EA269B01AC01C701B6010E949B259B019D
:100D8000AC016091A1087091A2088091A308909194
:100D9000A4080E949A25698F7A8F8B8F9C8F20914F
:100DA00076033091770340917803509179036981FC
:100DB0007A818B819C810E94EA266B017C012091C3
:100DC0006E0330916F0340917003509171036D81F8
:100DD0007E818F8198850E94EA269B01AC01C70124
:100DE000B6010E949B256B017C0120917E0330910E
:100DF0007F03409180035091810369857A858B85BB
:100E00009C850E94EA269B01AC01C701B6010E94A5
:100E10009B256B017C0120918603309187034091D3
:100E2000880350918903C301B2010E94EA269B0105
:100E3000AC01C701B6010E949B259B01AC016091EA
:100E4000A5087091A6088091A7089091A8080E9413
:100E50009A25698B7A8B8B8B9C8B809195089091CE
:100E60009608A0919708B09198088D8B9E8BAF8BB8
:100E7000B88F8EEB282E82E0382EAAE5B8E0B88B2A
:100E8000AF870AE013E01E8F0D8F0C5F1F4F3E8669
:100E90002D86B4E02B0E311CED8DFE8D208131812D
:100EA0004281538169817A818B819C810E94EA26EB
:100EB0006B017C01AD85BE85DC962D913D914D91F8
:100EC0005C91DF976D817E818F8198850E94EA26F3
:100ED0009B01AC01C701B6010E949B256B017C01FF
:100EE000ED8DFE8D208931894289538969857A8506
:100EF0008B859C850E94EA269B01AC01C701B60147
:100F00000E949B256B017C01AD8DBE8D90962D912D
:100F10003D914D915C919397C301B2010E94EA26E5
:100F20009B01AC01C701B6010E949B256B017C01AE
:100F3000ED85FE85208931894289538969897A89BD
:100F40008B899C890E94EA264B015C01AD85BE8598
:100F50002D913D914D915C91698D7A8D8B8D9C8DFC
:100F60000E94EA269B01AC01C501B4010E949B25A9
:100F70004B015C01F80120AD31AD42AD53AD6D893F
:100F80007E898F89988D0E94EA269B01AC01C5015C
:100F9000B4010E949B259B01AC01C701B6010E94D0
:100FA0009B25AF85B8896D937D938D939D93B88B69
:100FB000AF87BEEC2B16B2E03B0609F064CF809100
:100FC000A9089091AA0890938108809380082AE646
:100FD00038E04BEA58E069EA78E08DEA98E00E9450
:100FE000801881E090E00E943E174091F1045091FA
:100FF000F2046091F3047091F40490E080E00E94A8
:101000003A178090010590900205A0900305B090DA
:10101000040520E030E040E85FEBC501B4010E9428
:10102000FF25882331F1C090F104D090F204E090C4
:10103000F304F090F404A7019601C501B4010E94E5
:101040009A254B015C0120E030E040E054E3C70109
:10105000B6010E94EA269B01AC01C501B4010E94C1
:10106000E626181634F082EB93E09093DC0480932C
:10107000DB0480910505882331F082EB93E09093A7
:10108000DC048093DB04C090F504D090F604E0907B
:10109000F704F090F804EFEFCE1ADE0AEE0AFE0A2B
:1010A000C092F504D092F604E092F704F092F804AE
:1010B000C114D104E104F10499F48091F9049091F0
:1010C000FA04A091FB04B091FC040196A11DB11D8E
:1010D0008093F9049093FA04A093FB04B093FC046A
:1010E0008090FD049090FE04A090FF04B090000555
:1010F0006091F9047091FA048091FB049091FC04D2
:101100000E943426A50194010E94EA2620E030E0E6
:1011100040E85FE40E94EA262B013C01C701B601CA
:101120000E943426A50194010E94EA269B01AC018D
:10113000C301B2010E949B256093F1047093F204F5
:101140008093F3049093F4046E960FB6F894DEBF88
:101150000FBECDBFDF91CF911F910F91FF90EF9008
:10116000DF90CF90BF90AF909F908F907F906F90C7
:101170005F904F903F902F900895812C912C5401B7
:1011800048CDC12CD12C9FE7E92E93E4F92E78CDE0
:10119000C12CD12C760174CD8F929F92AF92BF92C9
:1011A000DF92EF92FF920F931F93CF93DF9384E030
:1011B00090E058D1EBEDF4E08BE2DF011D928A95CF
:1011C000E9F780E090E0A0E8BFEB86A397A3A0A793
:1011D000B1A78FE692E1A3E8BAE382A393A3A4A305
:1011E000B5A387E89EE0A4EBB3EE84839583A68342
:1011F000B7838EE096E5ADE0B7E880879187A28758
:10120000B3878CE892E2A4E6B3ED84879587A6873E
:10121000B78789E990E2A9E6B1E7808B918BA28B31
:10122000B38BCFECD4E0D383C283A5ECB4E0B98315
:10123000A88386EC93E011969C938E9313969C93CF
:101240008E93129715969C938E93149717969C9352
:101250008E93169719969C938E9318978FEE94E021
:101260009D838C838FED94E09B838A8381EF94E050
:101270009F838E83A5E8B8E089E2ED0119928A95F3
:10128000E9F7C6E4D8E08FE3DE011D928A95E9F71D
:101290002BEB34E08AE0D9011D928A95E9F7A1EBA6
:1012A000B4E0B58BA48B80E190E011969C938E9373
:1012B0008EE992E013969C938E9312978EE792E0BC
:1012C00015969C938E93149782E392E017969C93C5
:1012D0008E93169786E092E019969C938E931897BA
:1012E000DD24D394DEAE812C912C540183948D8621
:1012F0009E86AF86B88A61E08AE03AD8D98A188299
:10130000DDAE89E090E0A0E0B0E088879987AA8709
:10131000BB871D8289829A82AB82BC82E12CF12C30
:101320008701A801970169E070E080E090E0ABD808
:101330009F838E83688579858A859B8560D89F8306
:101340008E8325D8DD828091F6029091F702A091DC
:10135000F802B091F9028C8B9D8BAE8BBF8B888F7E
:10136000998FAA8FBB8F8C8F9D8FAE8FBF8F88A3D5
:1013700099A3AAA3BBA380919A0390919B039BAFCF
:101380008AAFECA2FDA20EA31FA380919D038CAF98
:10139000DF91CF911F910F91FF90EF90DF90BF9061
:1013A000AF909F908F90089580915208811103C053
:1013B00081E08093520880914608811134C081E019
:1013C000809346088091470890914808A091490869
:1013D000B0914A080197A105B10529F580914B0804
:1013E000882309F160914E0870914F088091500850
:1013F0009091510804D890934D0880934C0840E098
:1014000050E0BA010E94C80160914E0870914F08E7
:1014100080915008909151080E94FF0190934D08CF
:1014200080934C0881C8089560E070E080E89FE7F1
:10143000089560E070E080E89FE7089560E070E064
:1014400080E89FEF089560E070E080E89FEF0895E6
:1014500060E070E080EC9FEF089560E070E080EC69
:101460009FEF0895F5DF6093BA087093BB088093EF
:10147000BC089093BD08F1DF6093AE087093AF088D
:101480008093B0089093B108CFDF6093B608709353
:10149000B7088093B8089093B908CBDF6093B2087F
:1014A0007093B3088093B4089093B508C7DF609336
:1014B000BE087093BF088093C0089093C108C3DF33
:1014C0006093C2087093C3088093C4089093C508C2
:1014D0000895EF92FF920F931F93CF93DF93EA014A
:1014E000F901DC011496ED90FC90159712964D9140
:1014F0005C9113974E0D5F1D2881398118960D91CF
:101500001C9119970217130730F00D911C91119738
:10151000012B09F441C08A01021B130BDC01189650
:101520008D919C918E199F09800F911F86179707A7
:10153000DCF1C901860F971F8417950778F4718332
:1015400060833383228315821482178216828881F6
:101550009981680F791F7983688316C0118300838E
:1015600033832283601B710B7583648390E080E07A
:101570001616170614F49E2D8F2D96838783D70198
:10158000A60FB71FB983A88380E0DF91CF911F9189
:101590000F91FF90EF90089518968D919C91821B6A
:1015A000930B861797075CF681E0EFCFCF92DF921F
:1015B000EF92FF92CF93DF936B0184E4869FE0016B
:1015C000879FD00D1124CA5FDA4F8AA99BA9009783
:1015D00021F00E9481301BAA1AAA84E48C9DF0019C
:1015E0008D9DF00D1124EA5FFA4F86A997A9009707
:1015F00011F00E94813084E48C9DF0018D9DF00DEE
:101600001124EA5FFA4F138A128A168A178A108EFB
:10161000118E128E138E148E158E168E178E10A2AA
:1016200011A281E090E093A382A315A214A216A2B6
:1016300017A210A611A613A612A615A614A616A6E2
:1016400017A610AA11AA13AA12AA15AA14AA17AAB1
:1016500016AA11AE10AE12AE13AE14AE15AEDF0167
:10166000DE961D921D921D921C921397EE5BFF4F0A
:1016700011821082DF91CF91FF90EF90DF90CF9099
:101680000895CF93DF93FB01DC016D917C91DB0129
:101690001696CD91DC918081918123E0880F991F6E
:1016A0002A95E1F7AA81BB81A80FB91F8D919C9162
:1016B000119724853585220F331FEB016A817B81C9
:1016C000EB01C20FD31F0990D881C02D14962D9124
:1016D0003C9161E070E0232B11F062E070E0C69F66
:1016E0009001C79F300DD69F300D1124A085B18584
:1016F0002A9FB0012B9F700D3A9F700D1124A48179
:10170000B5812A9FF0012B9FF00D3A9FF00D112417
:101710008E0F9F1FFA019183808373836283DF9111
:10172000CF9108952F923F924F925F926F927F9246
:101730008F929F92AF92BF92CF92DF92EF92FF92E1
:101740000F931F93CF93DF9300D000D0CDB7DEB7B8
:10175000DC011496ED91FC910190F081E02D8085E3
:1017600091859A838983A281B381BC83AB83FB017A
:1017700081909190A190B190C12CD12C7601C81488
:10178000D904EA04FB04CCF026960FB6F894DEBF29
:101790000FBECDBFDF91CF911F910F91FF90EF90C2
:1017A000DF90CF90BF90AF909F908F907F906F9081
:1017B0005F904F903F902F900895448055806680B1
:1017C00077804085518562857385CF0140969E83E1
:1017D0008D83A081B1819D0183E0220F331F8A9503
:1017E000E1F7A981BA8112968D919C91D901A80F38
:1017F000B91F2D903C9011970484F585E02DEE0FD4
:10180000FF1F8B819C81E80FF91F0190F081E02D73
:1018100014968D919C91892B41F581E090E0E89F91
:101820009001E99F300DF89F300D1124249F800115
:10183000259F100D349F100D1124249DC001259D5E
:10184000900D349D900D1124A8016D817E81820D33
:10185000931D0E940A31ED81FE81E00FF11F9FEF81
:10186000C91AD90AE90AF90A8ACF82E090E0D7CFEB
:10187000CF93DF93DB01A256BC4F2C91222369F05A
:1018800024E4269FF001279FF00D1124EA5FFA4F10
:10189000EF0119922A95E9F71C9224E4269FF001A2
:1018A000279FF00D1124EA5FFA4F148215821682E9
:1018B00017821186108613861286118A108A17865F
:1018C0001686DF91CF9172CE2F923F924F925F9208
:1018D0006F927F928F929F92AF92BF92CF92DF9240
:1018E000EF92FF920F931F93CF93DF9300D000D01E
:1018F0001F921F92CDB7DEB724E4269FF001279FE9
:10190000F00D1124EA5FFA4F048115812681378199
:10191000012B022B032B09F4B7C02A016B017C01B8
:1019200010E000E0812C912C54013F019F01285FC1
:101930003F4F3C832B83CF0104969E838D83AB81E5
:10194000BC818D919C91ED81FE81408151816281AC
:10195000738184169506A606B706E4F10E948130CD
:10196000D3011A968D919C91892B09F07EC084E455
:101970008C9DD0018D9DB00D1124AA5FBA4FBC8300
:10198000AB8350968D919C910E948130EB81FC81BC
:10199000868597850E948130C701B60107DEC701A1
:1019A000B60128960FB6F894DEBF0FBECDBFDF910B
:1019B000CF911F910F91FF90EF90DF90CF90BF904C
:1019C000AF909F908F907F906F905F904F903F90DF
:1019D0002F904ECFFC01E00FF11F92819983A381DC
:1019E000AA839F83A887312C212C2414350464F00A
:1019F00089819A810E948130EFEF8E1A9E0AAE0A89
:101A0000BE0A0C5F1F4F9BCFAF81B885ED91FD9152
:101A1000B887AF83309759F0848195810E948130D7
:101A2000EF81F8853297808191810E948130BFEFEC
:101A30002B1A3B0ADACF800F911FFC01848195811C
:101A40000E9481302B813C812F5F3F4F3C832B8351
:101A5000025F1F4FF501808191812B813C8124150C
:101A600035054CF30E94813082CF10E000E01C82EB
:101A70001B8224E42C9DC0012D9D900D1124DC01BE
:101A8000A05FBA4F5D01E6CF28960FB6F894DEBF8F
:101A90000FBECDBFDF91CF911F910F91FF90EF90BF
:101AA000DF90CF90BF90AF909F908F907F906F907E
:101AB0005F904F903F902F90089524E4269FF0016F
:101AC000279FF00D1124EA5FFA4F828993890497CA
:101AD000029758F485E090E0938B828B8FEF9FEF15
:101AE000DC01828F938FA48FB58F08952F923F9240
:101AF0004F925F926F927F928F929F92AF92BF921E
:101B0000CF92DF92EF92FF920F931F93CF93DF93C9
:101B1000CDB7DEB7AA970FB6F894DEBF0FBECDBF24
:101B20009AA389A37E8B6D8B1A01098B1A8B2B8B41
:101B30003C8B84E429893A89829F6001839FD00C81
:101B4000112486010A5F1A4F89899A89AB89BC8959
:101B5000F80180839183A283B383AB01BC01CD01E3
:101B6000B3DED601A65FBA4F84E0F10101900D9279
:101B70008A95E1F7F4E02F0E311C64E070E0D801A3
:101B800014968D919C910E94CB2FF80191878087AC
:101B9000892B09F0F5C04D895E8969897A898B891D
:101BA0009C8992DE81E0AA960FB6F894DEBF0FBE44
:101BB000CDBFDF91CF911F910F91FF90EF90DF90FC
:101BC000CF90BF90AF909F908F907F906F905F90DD
:101BD0004F903F902F900895A9A5BAA58D919C9103
:101BE000E98DFA8DE80FF91FF88FEF8BD1018D91F8
:101BF0009C91880F991FA9A1BAA1ED91FC91E80FC2
:101C0000F91F80819181EF89F88D91838083D101C3
:101C100014962D913D914D915C9117972BA33CA368
:101C20004DA35EA362E070E08D899E890E94CB2F58
:101C3000EF89F88D93838283892B09F4ACCFF8E088
:101C40002F0E311C412C512C32012BA13CA14DA156
:101C50005EA142165306640675069CF02B8D3C8DE2
:101C60004D8D5E8D2F5F3F4F4F4F5F4F2B8F3C8FC2
:101C70004D8F5E8F498D5A8D4C5F5F4F5A8F498FC4
:101C800090C0610124E0C20ED11CD101ED90FC9006
:101C9000EE0CFF1CEF89F88D82819381E80EF91E0E
:101CA00068E070E081E090E00E94CB2F8C01D701CA
:101CB0008D939C93892B09F46ECF84E0F601D801B3
:101CC00001900D928A95E1F7B8E02B0E311CF801D6
:101CD00080819181A281B381181619061A061B060C
:101CE000DCF464E070E00E94CB2FD80115969C9341
:101CF0008E931497892B09F44ECFD12CC12C812CB3
:101D0000912C5401F80180819181A281B3818816C0
:101D10009906AA06BB0634F0FFEF4F1A5F0A6F0A56
:101D20007F0A93CFF801E480F580EC0CFD1C80E184
:101D3000F101DE01119601900D928A95E1F7F0E133
:101D40002F0E311CA701BE016F5F7F4FA9A1BAA161
:101D500014968D919C9195DCF80186819781D7012D
:101D600012962D913C91820F931F97838683BFEF2C
:101D70008B1A9B0AAB0ABB0AE4E0CE0ED11CC2CF81
:101D80001A8E198E1B8E1C8E1D8E1E8E18A30F8F01
:101D9000A8014C5F5F4F58A74FA3C80108969AA7A8
:101DA00089A7EFA1F8A580819181A281B3812B8DB4
:101DB0003C8D4D8D5E8D281739074A075B070CF463
:101DC0000BCF6EE070E08D899E890E94CB2FAF8D86
:101DD000B8A11B969C938E931A97B12CA12CD12C51
:101DE000C12CF12CE12C24E4E989FA892E9FC00151
:101DF0002F9F900D11249C01205F3A4F388F2F8B1D
:101E000088248394912C4D895E89C416D50654F19B
:101E100084E4A989BA898A9F80018B9F100D1124BF
:101E20000A5F1A4FF80115861486C70133E0880F40
:101E3000991F3A95E1F70E94E52FD80151969C939E
:101E40008E935097892B09F4A6CEC701880F991F4E
:101E50000E94E52FF80197878687892B09F49BCE8E
:101E600080E0A1CED1014D905D906D907D901D01DF
:101E700077FC91CEEF89F88D008111810A0D1B1D31
:101E8000D80111969C928E92411451046104710400
:101E900029F1C2010E94E52FF80195838483892BE3
:101EA00009F479CEF8015382428284819581978327
:101EB0008683918780871386128681E090E045288B
:101EC0004628472811F490E080E0E80EF91EFFEF65
:101ED000CF1ADF0A2EE0A20EB11C95CF15961C92E8
:101EE0001E921497DFCF2F923F924F925F926F9284
:101EF0007F928F929F92AF92BF92CF92DF92EF929A
:101F0000FF920F931F93CF93DF93CDB7DEB76A97FE
:101F10000FB6F894DEBF0FBECDBF9E8B8D8B4901EF
:101F20005A0184E4829F7001839FF00C1124970171
:101F30002A5F3A4F6901FB0180819181F901958BFC
:101F4000848BD701A45EBA4FFB01349684E00190E4
:101F50000D928A95E1F7D701A05EBA4FFB01389642
:101F600084E001900D928A95E1F7D701AC5DBA4FFC
:101F7000FB013C9684E001900D928A95E1F7D70130
:101F8000AC5CBA4FFB01709684E001900D928A958B
:101F9000E1F78B010C5E1F4FF90186A597A5A0A95B
:101FA000B1A918161906DCF5880F991F880F991F1B
:101FB0000E94E52FF60193AB82AB892B09F4D3C0C5
:101FC000312C212C412C512C32019601225D3F4FA6
:101FD000388F2F8BC601C2969A8F898FF496FC8B0F
:101FE000EB8BB301A2012FEF421A520A620A720A66
:101FF000EF89F88D80819181A281B38148175907BB
:102000006A077B070CF47BC0F60184A995A90E949E
:10201000E52FF60197AB86AB892B09F4A4C0F80134
:1020200080819181A281B38124E4289DF001299DC2
:10203000F00D1124EA5FFA4FAC01BD014D7F21E0A4
:1020400030E0452B462B472B11F030E020E033A346
:1020500022A324E4289DF001299DF00D1124EA5FBC
:10206000FA4F0197A109B10921E030E00297A105DB
:10207000B10510F030E020E035A324A3D701A45D22
:10208000BA4FF801349684E001900D928A95E1F7F9
:1020900084E4889DF001899DF00D1124EA5FFA4FD8
:1020A000868D978DA0A1B1A1B7FF58C0B095A0951E
:1020B000909581959F4FAF4FBF4F82AF93AFA4AF25
:1020C000B5AF168E178E10A211A280E06A960FB6D9
:1020D000F894DEBF0FBECDBFDF91CF911F910F915E
:1020E000FF90EF90DF90CF90BF90AF909F908F9038
:1020F0007F906F905F904F903F902F900895E98D63
:10210000FA8D808191819C01220D331D3A8B298BA0
:1021100080E1F801DE01119601900D928A95E1F7B8
:10212000005F1F4F49895A89BE016F5F7F4FED895C
:10213000FE8984819581A5DAEB89FC898081918172
:10214000E989FA8922813381820F931FEB89FC8907
:1021500091838083F4E02F0E311C43CF12AE13AE77
:1021600014AE15AEB2CFC501B40120DA81E0AECF16
:10217000CF92DF92EF92FF92CF93DF9310928E0572
:1021800024E4269FF001279FF00D1124EA5FFA4F07
:1021900015A614A630E020E0D12CC12CDF011A9640
:1021A000C1E0D0E0C416D506F4F024E4269FF00187
:1021B000279FF00D1124EA5FFA4F13A612A611AE65
:1021C00010AEDF01DE961D921D921D921C92139798
:1021D00082E090E0938B828BDF91CF91FF90EF9024
:1021E000DF90CF900895ED91FC911197E20FF31FCE
:1021F000E280F3801E141F0454F4E480F580F7821B
:10220000E682F186E08613861286D183C083EFEFE3
:10221000CE1ADE0A225F3F4FC5CF24E4269FF0018D
:10222000279FF00D1124EA5FFA4F138A128A4CCBD4
:1022300024E4269FF001279FF00D1124EA5FFA4F56
:102240008289938981309105C8F08530910518F015
:10225000059769F008958FEF9FEFDC01828F938FD0
:10226000A48FB58F85E090E0938B828B08958FEFDC
:102270009FEFDC01828F938FA48FB58F089524E4A4
:10228000249FD001259FB00D1124AA5FBA4F2EE0E4
:10229000AC01249FC001259F900D11241A96ED9149
:1022A000FC91E80FF91F81E080938E05828593856C
:1022B00091878087408551852681378181E090E034
:1022C0004217530711F090E080E0918380830895D6
:1022D0002F923F924F925F926F927F928F929F9236
:1022E000AF92BF92CF92DF92EF92FF920F931F9324
:1022F000CF93DF93CDB7DEB7C055D1090FB6F894B1
:10230000DEBF0FBECDBF9EAF8DAF4BA75CA76DA745
:102310007EA76801790184E4809FF001819FF00D20
:102320001124EA5FFA4F2285338523963FAF2EAF03
:10233000239782899389029761F486A597A5A0A91E
:10234000B1A9892B8A2B8B2BC9F584E090E0938B64
:10235000828B84E48C9DF0018D9DF00D1124EA5F49
:10236000FA4F828993898230910509F037C282AD94
:1023700093ADA4ADB5AD22242394312C18161906C3
:102380001A061B060CF42FC2C05BDF4F0FB6F89481
:10239000DEBF0FBECDBFDF91CF911F910F91FF9098
:1023A000EF90DF90CF90BF90AF909F908F907F90F5
:1023B0006F905F904F903F902F90089584899589FA
:1023C0004DAD5EAD8417950721F606A917A918AE85
:1023D0001FAA1BAA1CAA1DAA1EAA1F01CF018E9606
:1023E00027969FAF8EAF2797DF01D2962996BFAF72
:1023F000AEAF2997F8962B96FFAFEEAF2B979101D2
:102400002A5D3F4F2D963FAF2EAF2D97A1014E5D18
:102410005F4F2F965FAF4EAF2F970A9761969FAF92
:102420008EAF61972796EEADFFAD279780819181A2
:10243000A281B3812BA93CA94DA95EA92817390710
:102440004A075B0744F081E090E0D101D9969C9364
:102450008E93D8977ECF2996AEADBFAD2997ED91DB
:10246000FC912FA938ADE20FF31F428153815AAF7F
:1024700049AF50815FAF818121968FAF21972B9615
:10248000AEADBFAD2B978D919C91892B21F12D96EF
:10249000EEADFFAD2D9780809180A280B3801AAB06
:1024A00009AB5FA72196FFAD2197F8AB29AD3AADF7
:1024B000369527953695279525963FAF2EAF2597CC
:1024C0001CAE1BAE2596AEADBFAD2597EBADFCADFA
:1024D000EA17FB070CF149AD5AAD6FAD21967FAD00
:1024E0002197C8010E940A3189AD9AAD8C7F080FEF
:1024F000191F2BA93CA94DA95EA92F5F3F4F4F4F34
:102500005F4F2BAB3CAB4DAB5EAB4FA958AD4C5FB7
:102510005F4F58AF4FAB86CF2F96AEADBFAD2F9765
:102520008D919C91892B71F1EFA5F8A94080518084
:1025300062807380A3019201C501B4010E94FF254E
:10254000181664F0A9A9BAA92D913D914D915C91FD
:10255000C501B4010E94E6261816BCF1A301920140
:10256000C501B4010E94FF2587FF0CC0E9A9FAA9A3
:102570002081318142815381C501B4010E94FF2530
:10258000882319F16196AEADBFAD61978D919C9195
:10259000892B09F445C0EFA5F8A9408051806280DD
:1025A0007380A3019201C501B4010E94E6261816AA
:1025B0001CF5A9A9BAA92D913D914D915C91C50138
:1025C000B4010E94FF2518165CF184E48C9DF00193
:1025D0008D9DF00D1124EA5FFA4F868D978DA0A195
:1025E000B1A1892B8A2B8B2B69F183E090E0938B2F
:1025F000828B81E090E02CC0A3019201C501B4015F
:102600000E94FF2581110CC0E9A9FAA9208131811E
:1026100042815381C501B4010E94FF2587FDD5CFBA
:102620002BAD3CAD2F5F3F4F3CAF2BAF49A95AA913
:102630004C5F5F4F5AAB49AB8FA598A9049698ABF6
:102640008FA740CF84E090E0938B828B86AD97ADCF
:1026500093A782A77ECEEBADFCAD80819181F40182
:10266000EE0FFF1FEE0FFF1FE80FF91FA081B181D2
:102670008C9181110AC0FFEF8F1A9F0AAF0ABF0A1F
:102680008DA29EA2AFA2B8A68FC18330A1F3028013
:10269000F381E02D2FA938ADE20FF31F80819181E6
:1026A0009AAB89AB892B39F34F5F5F4F6F4F7F4FE9
:1026B00049875A876B877C879E01235E3F4FAE0117
:1026C000475D5F4F64E070E0C8010E94690A8111B4
:1026D000D0C18D819E81AF81B8850496A11DB11DA9
:1026E0008D839E83AF83B8874D8D5E8DBE016B5DFC
:1026F0007F4F8F8D98A10E940A318BA19CA10097DA
:1027000061F06D8D7E8DA5E2B0E0AC0FBD1F6A0F4C
:102710007B1F49A15AA10E940A311CAA1BAA412C65
:10272000512C3201E9A9FAA980819181A281B3815A
:10273000481659066A067B060CF09DCFE9A9FAA94E
:10274000848195812BA93CA9280F391F38AB2FA76D
:10275000D90112966D917C919E01235E3F4FAE018F
:10276000475D5F4FC8010E94690A811182C1EFA5D0
:10277000F8A982819381092E000CAA0BBB0B4D8115
:102780005E816F817885840F951FA61FB71F8D838B
:102790009E83AF83B887608171814D8D5E8D8F8DF3
:1027A00098A10E940A318BA19CA1009761F0AFA56E
:1027B000B8A96D917C912D8D3E8D620F731F49A13B
:1027C0005AA10E940A31BFEF4B1A5B0A6B0A7B0ABF
:1027D000EBA9FCA93496FCABEBABA4CF312C212C9C
:1027E000049709F0D1CD8EE0EDADFEAD8E9F800156
:1027F0008F9F100D112423962EAD3FAD2397020F0E
:10280000131FD80112964D915C91139741155105F4
:1028100009F4BACD16968D919C919AA789A780E16B
:10282000FE013196DF011D928A95E9F7C98ADA8A9D
:10283000EB8AFC8A2114310409F458C084E48C9D8D
:10284000F0018D9DF00D1124EA5FFA4FDF01DE9655
:102850008D909D90AD90BC9082AD93ADA4ADB5AD83
:1028600088169906AA06BB0609F040C0F8018481C3
:1028700095810084F185E02D349624E0DE015596A3
:1028800001900D922A95E1F72D893E89285F3F4FEF
:102890003E8B2D8BD80118966D917C911997260F40
:1028A000371F19963C932E93189718962D913C91AB
:1028B0001997480F591F241B350B37FD06C0820F8F
:1028C000931F19969C938E93189784E48C9DF00126
:1028D0008D9DF00D1124EC5BFA4FB1E08B1A91083D
:1028E000A108B10880829182A282B3829E012B5EF0
:1028F0003F4FAE01475D5F4F64E170E0C8010E9449
:10290000690A8111B6C08CE090E0A0E0B0E08D8350
:102910009E83AF83B8879E01235E3F4FAE01475D24
:102920005F4F64E070E0C8010E94690A8111A1C094
:1029300080E190E0A0E0B0E08D839E83AF83B88714
:102940004D8D5E8DBE01655D7F4F8F8D98A10E947C
:102950000A318BA19CA1009761F06D8D7E8DEBE219
:10296000F0E0EC0FFD1F6E0F7F1F49A15AA10E94DE
:102970000A311DA21EA21FA218A62DAD3EAD220F28
:10298000331F38AF2FAB24E42C9DC0012D9D900D3B
:1029900011248A5F9A4FAC014C5F5F4F5AAF49AF29
:1029A000DC011896BCAFABAF8DA09EA0AFA0B8A4C1
:1029B00049855A856B857C85E9ADFAAD8081918129
:1029C000A281B38188169906AA06BB060CF443CEF1
:1029D000452B462B472B09F4D7CC8AE190E0A0E0A9
:1029E000B0E089839A83AB83BC832DAD3EADC90132
:1029F000330FAA0BBB0B8D879E87AF87B88B4D8992
:102A00005E89BE016F5F7F4F8F89988D0E940A316A
:102A10008B8D9C8D009761F06D897E8941E050E03F
:102A20004C0F5D1F640F751F498D5A8D0E940A312E
:102A300089A59AA5D80117969C938E9316971196FF
:102A40001C921E92232809F49FCC84E48C9DF001F3
:102A50008D9DF00D1124EC5BFA4F80819181A28154
:102A6000B3810196A11DB11D80839183A283B3839D
:102A70008BCC232809F088CC84E48C9DF0018D9DBB
:102A8000F00D1124EA5FFA4F81E090E095A784A74A
:102A900085E090E0938B828B77CCCF92DF92EF92A0
:102AA000FF920F931F9324E4269FF001279FF00DC0
:102AB0001124EA5FFA4F228933892115310509F47F
:102AC00052C06B017C0121303105B1F482A593A580
:102AD0009C012F5F3F4F33A722A7092E000CAA0BA2
:102AE000BB0B028D138D248D358D80179107A207A6
:102AF000B307C9F5C7013CDB84E48C9DF0018D9DD3
:102B0000F00D1124EA5FFA4F82899389039759F5F2
:102B100082A593A59C012F5F3F4F33A722A7092EC3
:102B2000000CAA0BBB0B468D578D60A171A18417B9
:102B30009507A607B707BCF086AD97AD93A782A708
:102B400084E090E0938B828B82AD93ADA4ADB5AD64
:102B5000181619061A061B0634F4EE5BFF4F81E0C7
:102B600090E0918380831F910F91FF90EF90DF9011
:102B7000CF90089524E4269FF001279FF00D1124A3
:102B8000EA5FFA4F828993890497B1F482A593A5ED
:102B9000019693A782A7092E000CAA0BBB0B4689AE
:102BA0005789608D718D84179507A607B70721F4A3
:102BB00085E090E0938B828B08952F923F924F9205
:102BC0005F926F927F928F929F92AF92BF92CF92BD
:102BD000DF92EF92FF920F931F93CF93DF93CDB7C6
:102BE000DEB72E970FB6F894DEBF0FBECDBFDC0167
:102BF00049835A836B837C83290184E4849FF00199
:102C0000859FF00D1124EA5FFA4F22883388C101B5
:102C10000497029708F0D5C011961C921E92139645
:102C20001C921E92129715861486912C812C90E08E
:102C300080E08F019F01205F3F4F38872F833F0146
:102C40003CE0630E711CBF01625F7F4F7A8769872A
:102C50003A96FC87EB87EF81F88520813181F3017B
:102C600040815181E985FA85A080B1808415950560
:102C70000CF445C011965C934E9313963C932E939F
:102C800012971596BC92AE921497452BF9F4F5E085
:102C90002F163104D9F410928E05F801828D938D90
:102CA000A48DB58DAE014F5F5F4F64E070E08F3F44
:102CB0009F4FAF4FBF4F09F079C080E290E032D60E
:102CC00069817A818B819C81A201A7DA2E960FB649
:102CD000F894DEBF0FBECDBFDF91CF911F910F9152
:102CE000FF90EF90DF90CF90BF90AF909F908F902C
:102CF0007F906F905F904F903F902F900895EB855D
:102D0000FC8560817181FB01E80DF91DFE87ED876F
:102D100060817181672B89F5E084F1846281738120
:102D20007E836D83668177816A01E3E0CC0CDD1CD4
:102D3000EA95E1F72C0D3D1D440F551F4A0D5B1D13
:102D4000FA0191838083F301408151814F5F5F4F8E
:102D500051834083F901F382E282ED85FE8573871A
:102D60006287E616F70670F46E197F09F901718320
:102D7000608315821482178216820196FEE08F0E00
:102D8000911C69CFED85FE85C480D5804D815E8123
:102D90004C0D5D1D4E195F09F901518340836C197B
:102DA0007D0975836483D782C682E7CF8FE190E087
:102DB000B9D5F80113A612A681E090E0938B828B1F
:102DC00085CF1586148611961C921E9213961C921E
:102DD0001E9212977BCFEF92FF920F931F93CF9388
:102DE000DF937C018B01EA0179D681111EC08091AD
:102DF000A0039091A103049711F5DF91CF911F914A
:102E00000F91FF90EF90089528ED38EB45E050E0EA
:102E100060E070E0CB010E942520AE01B801C7013F
:102E20000E943320C8010E94FE1F80918F0590915F
:102E30009005892BE1F68881882331F3D8CF83E090
:102E400090E09093A1038093A003D7CFCF93DF931B
:102E50002091A0033091A1032430310541F0EB0112
:102E60000E943320CE01DF91CF910C94FE1FDF91A1
:102E7000CF9108950C9431240C9426240C9414249E
:102E80000C940E200C94B823089570E060E090E05C
:102E900080E0FFC50895AF92BF92CF92DF92EF928C
:102EA000FF920F931F93CF93DF931F921F92CDB783
:102EB000DEB75C018B0169017A0190E080E0C1140A
:102EC000D104E104F10469F40F900F90DF91CF91E8
:102ED0001F910F91FF90EF90DF90CF90BF90AF9038
:102EE00008959C2D8D2DC114D10421E0E206F1043A
:102EF00010F09FEF8FEF9E012F5F3F4F492F582F0C
:102F0000B801C5010E94BB248F3F9807E9F22981CF
:102F10003A81C21AD30AE108F108020F131FCFCF7A
:102F2000209195053091960580919705909198058F
:102F30002817390789F080919B0590919C0501968F
:102F400090939C0580939B0582E10E94CA2B9093ED
:102F5000980580939705089580919B0590919C0515
:102F60000197EECF209191053091920580919305C4
:102F7000909194052817390711F180919905909146
:102F80009A05019690939A058093990582E00E9494
:102F9000CA2B909394058093930580919905909105
:102FA0009A05813A964F8CF48091990590919A05F3
:102FB000805A964F90939A05809399050895809131
:102FC000990590919A050197DDCF8091990590918F
:102FD0009A058036994094F38091990590919A05CD
:102FE00080569940E7CF83E10E94CA2B90939605C3
:102FF0008093950520919705309198058217930746
:1030000051F080919B0590919C05019690939C05B1
:1030100080939B05089580919B0590919C05019755
:10302000F5CF83E00E94CA2B90939205809391057F
:10303000209193053091940582179307D9F08091E0
:10304000990590919A05019690939A058093990518
:103050008091990590919A05813A964F8CF48091D0
:10306000990590919A05805A964F90939A0580936E
:10307000990508958091990590919A050197E4CF5B
:103080008091990590919A058036994094F38091AA
:10309000990590919A0580569940E7CFEF92FF925B
:1030A0000F931F93CF93DF937C018B01EA01F9010A
:1030B00020E030E040E85FE36081718182819381AC
:1030C0000E94FF25811115C0F7018081882321F01E
:1030D00010929A05109299058091990590919A0500
:1030E000F8019183808380919B0590919C05998341
:1030F0008883DF91CF911F910F91FF90EF900895FA
:10310000CF93DF93E90120E030E040E85FE368819E
:1031100079818A819B810E94FF258823A1F162E049
:1031200082E00E94612B62E083E00E94612B60E0FC
:1031300082E10E94612B60E083E10E94612B41E00B
:1031400050E062EB77E180E00E944E2741E050E0E2
:1031500061E178E181E00E944E2741E050E060E9C2
:1031600077E185E00E944E2741E050E063EF77E190
:1031700084E00E944E2780E090E0A0E8BFE38883CF
:103180009983AA83BB83DF91CF91089540E05BE4EC
:1031900060E070E090E080E000C08130910579F05F
:1031A0001CF4892B39F008958230910561F0039762
:1031B00071F0089526E082ED95E00C94BC2C26E099
:1031C0008FE696E0FACF26E08CE097E0F6CF26E097
:1031D00089EA97E0F2CF1F920F920FB60F92112457
:1031E0000BB60F922F933F934F935F936F937F9301
:1031F0008F939F93AF93BF93EF93FF9386E09FEFDF
:1032000090932501809324010E94F524FF91EF9172
:10321000BF91AF919F918F917F916F915F914F91EE
:103220003F912F910F900BBE0F900FBE0F901F90EC
:10323000189586E09FEF9093250180932401A3E7E2
:10324000B0E08C918E7F8C93E0E2F1E080818C7F06
:103250008083E1E2F1E08081877E808380818360EA
:10326000808380818B7F80838C9181608C93089593
:1032700081E008958F929F92AF92BF92CF92DF929A
:10328000EF92FF920F931F93CF93DF935C017B012B
:103290008A01C1E0D0E0CE15DF05CCF081E0F50178
:1032A0008083B801C7010E945B24F501928381836A
:1032B00090E080E0DF91CF911F910F91FF90EF9010
:1032C000DF90CF90BF90AF909F908F9008956E0148
:1032D0008FEFC81AD80AFE01EE0FFF1FE00FF11F93
:1032E000808091808114910469F06BE474E0C401E2
:1032F0000E941A31892B41F4CC0FDD1FC00FD11F62
:1033000019821882E601C7CF6EE474E0C4010E94FE
:103310001A31892BB9F7EC14FD04A1F36E01E2E038
:10332000CE0ED11CCC0FDD1FC00FD11F1982188209
:103330001B821A82E7CF8DE995E0089580E0089519
:103340000F931F93CF93DF938B01BA01E901198289
:1033500018829801012E000C440B550BFC01818151
:10336000928199DD019641F01983088380E0DF9115
:10337000CF911F910F91089581E0F9CF0F931F9383
:10338000CF93DF931F921F92CDB7DEB7FB018A0167
:10339000B9019E012F5F3F4FAF01FC0181819281F6
:1033A0000E947024019669F089819A81F8019183C5
:1033B000808380E00F900F90DF91CF911F910F914C
:1033C000089581E0F7CFFC01808108950895089564
:1033D00081E0FB01808380E0089508951092C50587
:1033E0000895FC01818192810C945324CF93DF9343
:1033F00000D000D000D01F92CDB7DEB7B0E0A0E083
:1034000089839A83AB83BC83CB01770FAA0BBB0B59
:103410008D839E83AF83B8879E01275F3F4FAE01A8
:103420004F5F5F4F68E070E08091B4059091B50503
:1034300087DF811110C081E029853A852830310568
:1034400009F480E02A960FB6F894DEBF0FBECDBF18
:10345000DF91CF91089581E0F5CF0F931F93CF9324
:10346000DF931F921F92CDB7DEB78B019E012F5FB6
:103470003F4FAC018091B4059091B50561DF81119A
:103480000EC081E029813A812017310709F480E0DC
:103490000F900F90DF91CF911F910F91089581E0D0
:1034A000F7CFCF93DF93EC011092B8051092B705D8
:1034B0001092C4051092C305AC0160E070E0CB012E
:1034C0000E940D11AE0161E070E080E090E00E948A
:1034D0000D118091B4059091B505DF91CF917DCF0D
:1034E0004F925F926F927F928F929F92AF92BF9214
:1034F000CF92DF92EF92FF920F931F93CF93DF93C0
:103500001F921F92CDB7DEB78C017C0197FF03C0DD
:1035100087E0E80EF11C23E0F594E7942A95E1F7A3
:10352000C80168E070E00E947A2F6C010E5F1F4FA7
:103530008091B2059091B30580179107D4F48091E2
:10354000B0059091B105009731F00E948130109242
:10355000B3051092B205C8010E94E52F9093B10502
:103560008093B005892B09F482C01093B3050093B2
:10357000B20510E000E047C1412C512C3201B12CC2
:10358000A12C950127543A4FAE014F5F5F4F61E088
:1035900070E08091B4059091B505F0DE811149C0CD
:1035A000EFEF4E1A5E0A6E0A7E0AF0E94F16FFE54B
:1035B0005F06F1E06F06710444F06091C3057091FD
:1035C000C4058DEE90E012DFD7CF89819A81A80ED5
:1035D000B91E8AE0A816B10409F043C049E050E0E2
:1035E00070E060E089EB95E00E94E7246091C305FC
:1035F0007091C405882391F18091C10590E08617F0
:10360000970781F4BC018EEE90E0F0DE8091C30557
:103610009091C405019699279093C4058093C305A2
:103620000F5F1F4F0E151F050CF4A6CFCD2809F014
:103630007CC090E080E00F900F90DF91CF911F91C0
:103640000F91FF90EF90DF90CF90BF90AF909F9041
:103650008F907F906F905F904F9008958FEE90E0E5
:10366000B2CFEAE0AE16B1040CF48BCFDBCF10E0A2
:1036700000E0D8CF0A30110531F549E050E070E0A4
:1036800060E089EB95E00E94E7246091C3057091AA
:10369000C4058823A9F08091C10590E0861797079B
:1036A00041F6BC018EEE90E0A1DE8091C3059091C1
:1036B000C405019699279093C4058093C305B9CF9B
:1036C0008FEE90E02BC00A3011050CF0B2CF9801BC
:1036D00027543A4FAE014F5F5F4F61E070E0809139
:1036E000B4059091B5054ADE8111A3CF89819A81F5
:1036F000080F191FFFEFCF1ADF0AEF0AFF0A80E950
:10370000C8168FE5D80681E0E806F1040CF4B2CFC4
:103710006091C3057091C4058DEE90E067DE10E006
:1037200000E0C12CD12C7601D2CFC12CD12C760156
:1037300010E000E0CCCF412C512C3201B12CA12C57
:10374000480193E0880C991C9A95E1F72091B00507
:103750003091B105C501880D991D280F391FAE01A3
:103760004F5F5F4F61E070E08091B4059091B505C7
:1037700005DE81115ECFEFEF4E1A5E0A6E0A7E0AF9
:103780006091C3057091C4058DEE90E0F0E94F168D
:10379000FFE55F06F1E06F0671040CF043C089811C
:1037A0009A81A80EB91E8AE0A816B10409F041C09A
:1037B00049E050E0B4018091B0059091B1050E94BC
:1037C000E7246091C3057091C405882349F1809175
:1037D000B0059091B105880E991EF401808590E0A6
:1037E0008617970781F4BC018EEE90E0FFDD809193
:1037F000C3059091C405019699279093C4058093C1
:10380000C3050F5F1F4F0E151F050CF494CFC11495
:10381000D10409F081C08091B0059091B1050BCF22
:103820008FEE90E0E3DD412C512C3201B12CA12C24
:103830008DCFFAE0AF16B1040CF488CFE4CF8FEE51
:1038400090E0D4DDF12CE12C812C912C54019701D6
:1038500027543A4FAE014F5F5F4F61E070E08091B7
:10386000B4059091B5058ADD8111E3CE8FEF881AFA
:10387000980AA80AB80A6091C3057091C4058DEE34
:1038800090E0E0E98E16EFE59E06E1E0AE06B104B9
:10389000C4F689819A81E80EF91EFAE0EF16F10468
:1038A000A9F549E050E070E060E089EB95E00E9406
:1038B000E7246091C3057091C405882309F4BFCF44
:1038C0008091C10590E08617970709F0A4CFBC014D
:1038D0008EEE90E08BDD83E0000F111F8A95E1F7FB
:1038E0008091B0059091B105A60169EB75E0800F5C
:1038F000911F0E940A318091C3059091C4050196E1
:1039000099279093C4058093C30585CF8AE0E81674
:10391000F1040CF49CCF7FCF812C912C5401F12C1D
:10392000E12C95CFCF92DF92EF92FF920F931F93EE
:10393000CF93DF931F92CDB7DEB76C017B018A0175
:10394000452B39F0AB0170E060E0C8010E94E32430
:103950008983B701C6014ADD81110DC0011511052A
:1039600051F0B701C80179DD811105C061E070E057
:10397000CE01019672DD0F90DF91CF911F910F91D3
:10398000FF90EF90DF90CF900895CF92DF92EF926B
:10399000FF92CF93DF9300D000D01F921F92CDB73C
:1039A000DEB76B01F12CE12CC982DA82EB82FC825A
:1039B0002D833E834F835887AE014F5F5F4F68E092
:1039C00070E0B0DF28960FB6F894DEBF0FBECDBF13
:1039D000DF91CF91FF90EF90DF90CF9008958F927D
:1039E0009F92AF92BF92CF92DF92EF92FF920F938E
:1039F0001F93CF93DF937C01EB01CA01690170DD56
:103A00000097B1F42FEF3FEFA90161E070E0C7012B
:103A1000BCDFC1E08C2FDF91CF911F910F91FF9000
:103A2000EF90DF90CF90BF90AF909F908F900895D0
:103A3000FC0181909190A190B190BF01FCE1EF1643
:103A4000F10479F4A5019401CE010E94730FC82FEF
:103A5000A5019401882369F061E070E0C70195DF5A
:103A6000D9CF95018401AB01B601CE010E94760D3C
:103A7000EECF70E060E0C701DF91CF911F910F9111
:103A8000FF90EF90DF90CF90BF90AF909F908F907E
:103A90007CCF0F931F93CF93DF93EC018B014BDC13
:103AA0009093B5058093B4050097A9F0A801BE01D5
:103AB000E1DBEC01892B49F08091B4059091B505CB
:103AC00085DC1092B5051092B405CE01DF91CF913F
:103AD0001F910F910895CAE5D4E0EECF8091B4050F
:103AE0009091B50570CC2F923F924F925F926F925A
:103AF0007F928F929F92AF92BF92CF92DF92EF927E
:103B0000FF920F931F93CF93DF93CDB7DEB76997E3
:103B10000FB6F894DEBF0FBECDBF2091B8052223AB
:103B2000F1F05B8B4A8B6E877F87888B998B9A012C
:103B3000AB01BC01CE0101967C013FD810E048E00A
:103B4000242E312CE88EF98E89819A811816190657
:103B50000CF451C2112319F08A899B89A2DC699661
:103B60000FB6F894DEBF0FBECDBFDF91CF911F918E
:103B70000F91FF90EF90DF90CF90BF90AF909F900C
:103B80008F907F906F905F904F903F902F9008950F
:103B9000EB81FC818C859D8533E0880F991F3A95D8
:103BA000E1F7E80FF91F808191819093AF05809331
:103BB000AE0524813581428153815093AD054093F8
:103BC000AC05468157815093AB054093AA05820FFF
:103BD000931F9C01990F440B550B2C8B3D8B4E8BE7
:103BE0005F8B812C912C54018C899D89AE89BF8972
:103BF00088169906AA06BB0640F18C859D85880F1C
:103C0000991FED81FE81E80FF91F4E855F85688958
:103C10007989808191810E943F11AC85BD85119683
:103C2000BD87AC8789819A81EC85FD85E817F90706
:103C30000CF4AECF2A893B894E855F8568897989E6
:103C4000888D998D0E94DD157FCF1F826091AE0512
:103C50007091AF05CB01072E000CAA0BBB0B8401A2
:103C60007501640134E0C30ED11CE11CF11CC816BF
:103C7000D906EA06FB0608F0B3C02091AC053091E6
:103C8000AD05A4014C5F5F4F240F351FF901C080C3
:103C9000D12CF12CE12C24013501F5E04F0E511C03
:103CA000611C711C481659066A067B0608F0A3C001
:103CB0002091AC053091AD05F8013596E20FF31F68
:103CC0002081D22A2401350126E0420E511C611CBC
:103CD000711C481659066A067B0608F097C02091A9
:103CE000AC053091AD05F8013696E20FF31F208147
:103CF000E22A2401350137E0430E511C611C711C7E
:103D0000481659066A067B0608F08BC02091AC0560
:103D10003091AD05F8013796E20FF31F208126019F
:103D20003701722A7501640148E0C40ED11CE11C00
:103D3000F11C8C159D05AE05BF0508F41DC1881644
:103D40009906AA06BB0608F077C08091AC05909151
:103D5000AD05800F911F68E070E07FDBE091AE055C
:103D6000F091AF059F010F2E000C440B550BD301B2
:103D7000C2018C0D9D1DAE1DBF1D281739074A07B6
:103D80005B0708F478C0C216D306E406F50608F00F
:103D90005DC08091AC059091AD059801285F3F4FC3
:103DA000820F931FB20159DB8091AE059091AF0550
:103DB000AC01092E000C660B770BC416D506E6067F
:103DC000F70608F04DC0085F1F4F8091AC05909139
:103DD000AD05800F911FA20170E060E0F4D5A7C08F
:103DE00044E050E0461B570B480D591D2091AA0591
:103DF0003091AB0549CFE5E0F0E0E61BF70BE00FB3
:103E0000F11F2091AA053091AB0558CFE6E0F0E014
:103E1000E61BF70BE00FF11F2091AA053091AB05CF
:103E200064CFE7E0F0E0E61BF70BE00FF11F209115
:103E3000AA053091AB0570CF9801261B370B8091F6
:103E4000AA059091AB05820F931F85CF91012E1B80
:103E50003F0B200F311F8091AA059091AB05A0CF99
:103E6000D101A81BB90BCD01080F191F8091AA051C
:103E70009091AB05AECFBF0168507109601B710B0B
:103E8000C216D306E406F50608F062C08091AC05C0
:103E90009091AD059801285F3F4F820F931FDDDAA7
:103EA0008091AE059091AF05B101681B790B600F51
:103EB000711F640D751D8091AA059091AB05CDDA37
:103EC0008091AE059091AF05AC0148505109FA01BF
:103ED000E01BF10BAC01092E000C660B770BC4162E
:103EE000D506E606F70608F03DC08091AC05909136
:103EF000AD059801285F3F4F820F931FAF0170E01F
:103F000060E061D58F832091AE053091AF05F1015E
:103F1000E21BF30B9F01200F311F240D351D50E0D4
:103F200040E0682F8091AA059091AB0538D58F832A
:103F300061E070E0CE01079690DA182F38E0430E6A
:103F4000511C611C711C840C951CA61CB71C4CCE0A
:103F500091012E1B3F0B200F311F8091AA059091DC
:103F6000AB059BCF9101281B390B200F311F80918E
:103F7000AA059091AB05C0CF88169906AA06BB0684
:103F800068F5601B710B8091AC059091AD05800FB9
:103F9000911F63DA8091AE059091AF05B101681B66
:103FA000790B600F711F640D751D8091AA059091AA
:103FB000AB0553DA8091AE059091AF05AC01092EA7
:103FC000000C660B770BC416D506E606F70608F458
:103FD000FACE9101281B390BC90146CFC801861BB7
:103FE000970B2091AA053091AB05B201685F7F4F16
:103FF000820F931FDECF1D861C8614CECF93DF93D6
:10400000EC01AC0160E070E0CB016DDDAE0161E080
:1040100070E080E090E0DF91CF9165CDCF9380910B
:10402000B4059091B5058AD9C82F81110BC060E005
:1040300070E0CB010E94380C61E070E080E090E01D
:104040000E94380C8C2FCF9108950F931F938901F4
:104050009A01AB01BC018091B4059091B505B7D927
:104060001F910F9108954F925F926F927F928F925E
:104070009F92AF92BF92CF92DF92EF92FF920F93F7
:104080001F93CF93DF93CDB7DEB763970FB6F89446
:10409000DEBF0FBECDBF6C018B015A018091B80508
:1040A000882309F43DC08091B805882309F442C0F3
:1040B0008091B7051A821982882309F4C0C0F0E9FB
:1040C0004F2EFFE55F2E66246394712CF12CE12CBA
:1040D000970120563A4FAE014F5F5F4F61E070E0AD
:1040E0008091B4059091B50549D9982E811169C088
:1040F00089819A81E80EF91EE114F10409F461C086
:1041000081E0481A51086108710859F56091C305AA
:104110007091C4058DEE90E069D91A82198251C060
:1041200068EB75E08091B4059091B50551D988236D
:1041300009F4B9CF63960FB6F894DEBF0FBECDBFBA
:10414000DF91CF911F910F91FF90EF90DF90CF9073
:10415000BF90AF909F908F907F906F905F904F90A7
:104160000895AAE0EA16F10409F063C049E050E0BE
:1041700070E060E080EA95E02AD46091C305709118
:10418000C405882309F452C08091A80590E08617E1
:10419000970719F6BC018EEE90E028D988E0E0EA96
:1041A000F5E0DE01199601900D928A95E1F7809174
:1041B000C3059091C405019699279093C4058093F7
:1041C000C30581E029813A81121613060CF080E0C4
:1041D0009110CAC2882309F4ADCF8091B70581112F
:1041E00004C019861A861B861C8689859A85AB852C
:1041F000BC8580319105A105B10508F09BCFFC017C
:104200008827EA5FFE4D8F4F0C94AF2F8621452300
:10421000B4239A208A22BD2276217E215A21992315
:10422000882395239A209A209A2045218FEE90E0AA
:1042300073CFBAE0EB16F1040CF44ACFC2CFF12CE5
:10424000E12CE8E06E2E712C29E030E02C0F3D1FB0
:104250002E0D3F1DAE014F5F5F4FB3016E197F09F9
:104260008091B4059091B50589D8982E29813A811D
:10427000811109C0E20EF31EE114F10421F0E8E01F
:10428000EE16F1040CF381E09FCFD6011696ED9166
:10429000FC9180819181A281B38189839A83AB83D0
:1042A000BC83AE014F5F5F4F64E070E085E190E05A
:1042B00039DB40CF8D859E8513D92FEF3FEFA901C4
:1042C00061E070E0009771F0FC01C080D180E28075
:1042D000F380A801C701B6010E94B810A70196019A
:1042E00070E060E08DE190E050DB24CF4D855E858D
:1042F0009801B6018BE190E072DB1CCF4D855E85A5
:104300002FEF3FEFB6018CE190E0F6CFD601149687
:10431000ED91FC9100811181F80182809380A08051
:10432000B18070E1472E512C612C712C49825A8248
:104330006B827C8288E090E0A0E0B0E08D839E8379
:10434000AF83B8879E012F5E3F4FAE014F5F5F4F37
:1043500068E070E08091B4059091B5050E94A019C5
:104360008823D9F010E000E0C80163960FB6F894F6
:10437000DEBF0FBECDBFDF91CF911F910F91FF9098
:10438000EF90DF90CF90BF90AF909F908F907F90F5
:104390006F905F904F900C94813089899A8908972B
:1043A00009F7D801ED90FC90B8E0EB0EF11CEE0C93
:1043B000FF1CEE0CFF1CC7010E94E52F8C01892B0E
:1043C00089F249825A826B827C82C7010F2C000CD1
:1043D000AA0BBB0B8D839E83AF83B8879E012F5E94
:1043E0003F4FAE014F5F5F4F68E070E08091B405D2
:1043F0009091B5050E94A0198111B6CF89899A893B
:10440000089709F0B1CFD6011296ED91FC91408149
:10441000518162817381D8014D935D936D937C933B
:104420001397448155816681778114964D935D93EE
:104430006D937C9317974085518562857385189697
:104440004D935D936D937C931B9784859585A6858D
:10445000B785F80184879587A687B787108A118A60
:10446000128A138A84E090E0A0E0B0E0848B958B00
:10447000A68BB78B8091A0039091A103B0E0A0E040
:10448000808F918FA28FB38FC5010B2C000CAA0BCC
:10449000BB0B848F958FA68FB78FF401D8019096B0
:1044A00090E080E08A159B055CF19E012F5E3F4FF6
:1044B000A801B7018091B4059091B5050E94A0199B
:1044C000811152CF89899A89E816F90609F04CCFF3
:1044D000A70170E060E0C80176D28B8B9E012F5E51
:1044E0003F4FAE014D5E5F4F61E070E08091B405DB
:1044F0009091B5050E94A01981E08093B70534CF53
:104500004191519170E060E04D935D936D937D9387
:104510000196C8CF8D859E85AF85B8890097A10586
:10452000B10521F481E08093B60504CE0E94701A93
:10453000009781F481E090E0A0E0B0E089839A8365
:10454000AB83BC83AE014F5F5F4F64E070E082E1FC
:1045500090E0AECEBC01C6010E94920B19821A8275
:104560001B821C82AE014F5F5F4F64E070E082E10E
:1045700090E0D8D98823B1F2DDCDD6011496ED9123
:10458000FC910190F081E02DE084F1848FEF89832C
:10459000E114F10409F472C0D7016D907C90C280DF
:1045A000D38070E060E090E080E08615970594F09D
:1045B00083E190E00E94F61910E000E08111BACD8D
:1045C000061517055CF161E070E0CE0101960E94CE
:1045D0002D1AB0CD9C0143E0220F331F4A95E1F71D
:1045E000F701A281B381A20FB31F1296ED91FC9146
:1045F0001397EE0FFF1FEC0DFD1D0190F081E02DD4
:1046000016964D915C91E49F9001E59F300DF49FCB
:10461000300D1124620F731F0196C7CFD701129678
:10462000ED91FC91C80123E0880F991F2A95E1F7CD
:10463000E80FF91FA080B180A281B381AA0FBB1F30
:10464000AC0DBD1D2D913C9186819781289F400125
:10465000299F900C389F900C1124B401C5010E9431
:104660002D1A582E940150E040E06981C50197D180
:10467000898351105FCD0F5F1F4FA2CF70E060E0C4
:1046800083E190E00E94F61955CD50E040E070E0E3
:1046900060E081E190E046D981114CCD60E070E0AE
:1046A000CB010E945D0D80918E05882329F0A80121
:1046B00060E070E0CB0117DAA80160E070E0CB01A8
:1046C0000E94640C61E070E080E090E00E945D0D6B
:1046D00080918E05882331F0A80161E070E080E0D0
:1046E00090E001DAA80161E070E080E090E00E94D3
:1046F000640C1092B8051092B7051092C405109280
:10470000C3058091B4059091B5050E94EE1912CDB4
:1047100081E090E09093900580938F0550E040E019
:1047200070E060E086E190E0C3CD81E0F501808338
:1047300001CD8D859E850E94701A2FEF3FEFA90154
:1047400061E070E0009769F0DC01CD90DD90ED90C4
:10475000FC90C701B6010E941811A701960170E0F4
:1047600060E08EE190E0C0CDC8010E94511AE2CC19
:10477000CF92DF92EF92FF92CF93DF93EC01C12CA7
:10478000D12C7601C701B6010E945D0DAE01C701B3
:10479000B601A9D9AE01C701B6010E94640C80918F
:1047A000B0059091B105009731F00E9481301092D0
:1047B000B1051092B005CA94CD28CE28CF2879F53E
:1047C0008091B705F12C882351F050E040E070E073
:1047D00060E084E190E0A6D8F82E1092B7058091B1
:1047E000B805882341F01092B80581E090E09093DD
:1047F000A1038093A0038091B4059091B5050E9418
:10480000F1198091B4059091B5050E94E6198F2D9C
:10481000DF91CF91FF90EF90DF90CF900895C12C62
:10482000D12C7601C394AECFCF93DF93EC01AC01D2
:1048300060E070E0CB010E944D15AE0161E070E0D8
:1048400080E090E0DF91CF910C944D1560E070E036
:10485000CB010E94BA1561E070E080E090E00C941A
:10486000BA15CF92DF92EF92FF920F931F93CF93DF
:10487000DF93EC016A017B0100E010E098010E94E7
:10488000681101E010E020E030E0B701A601CE01A0
:104890000E946811DF91CF911F910F91FF90EF90CF
:1048A000DF90CF90089568EE73E080E090E037D518
:1048B00090E080E0089526E040E050E16EE070E096
:1048C00082ED95E00E94BC2C82ED95E08BD7892B80
:1048D00021F082ED95E0A0D7F7CF90E080E0089539
:1048E000CF92DF92EF92FF920F931F93CF93DF93BC
:1048F0006B017A01E9011982188282ED95E072D785
:10490000892B71F18601CC24C39485E6D82E809141
:10491000C505811111C082ED95E07ED785369105E0
:10492000B1F7C092C505F801D1928F0188819981B4
:10493000019699838883EBCF888199818E159F0595
:1049400078F482ED95E068D78F3F9807A9F3F801D6
:1049500081938F0188819981019699838883ECCF17
:1049600090E080E0DF91CF911F910F91FF90EF9049
:10497000DF90CF9008950F931F93CF93DF93EA01B9
:10498000890182ED95E00E944C2FF801D183C0830C
:1049900090E080E0DF91CF911F910F910895DC01AD
:1049A000A40FB51F420F531F9D01281B390B24175D
:1049B000350710F0862F0895ED91E627F0E0EC51D1
:1049C000FF4F6491F1CF9A01AB016FEFE8CFCF9326
:1049D000FC01E60FF71FE40FF51FC081F4DF91E043
:1049E000C81390E0892FCF9108958091C60591E07A
:1049F000980F9093C605882349F021E030E030936A
:104A0000C8052093C7058093C605089578940E9431
:104A1000E203F8948091C60581508093C6050C94FA
:104A20003C17FF920F931F93CF93DF931F92CDB745
:104A3000DEB71092C7081092C608A7D40E94C61805
:104A40000091C7031091C803F8011182108270E031
:104A500060E090E080E00E9445170E94CC08F89446
:104A60007894C80186960E94441781E090E00E94E5
:104A700040171982AE014F5F5F4F61E070E0F801AF
:104A8000828193810E94EB168981882319F081E04D
:104A9000F80182A70E944A17F8940E941919F80198
:104AA00080819181892B19F481E092A5911180E098
:104AB0008093C60878947894FF24F3948091C60874
:104AC000811110C00E94D40981E090E00E94421739
:104AD000F89490E080E00F90DF91CF911F910F91BB
:104AE000FF9008951982AE014F5F5F4F61E070E063
:104AF000F801828193810E9426178981882311F011
:104B0000F801F2A6F80180819181892B89F481E076
:104B100092A5911101C080E08093C7089091C708C9
:104B200081E0911180E08093C6080E943819C6CFB9
:104B300081E0F2CF5058BB27AA270ED00DC1FED07E
:104B400030F003D120F031F49F3F11F41EF4F3C094
:104B50000EF4E095E7FBE9C0E92F0FD180F3BA1717
:104B6000620773078407950718F071F49EF527C153
:104B70000EF4E0950B2EBA2FA02D0B01B901900178
:104B80000C01CA01A0011124FF27591B99F0593FBC
:104B900050F4503E68F11A16F040A22F232F342F04
:104BA0004427585FF3CF469537952795A795F04052
:104BB0005395C9F77EF41F16BA0B620B730B840B67
:104BC000BAF09150A1F0FF0FBB1F661F771F881F1F
:104BD000C2F70EC0BA0F621F731F841F48F4879577
:104BE00077956795B795F7959E3F08F0B3CF939566
:104BF000880F08F09927EE0F97958795089571D043
:104C000008F481E0089504D06894B111D9C00895E2
:104C1000BCD088F09F5790F0B92F9927B751A0F0DA
:104C2000D1F0660F771F881F991F1AF0BA95C9F740
:104C300012C0B13081F0C3D0B1E00895C0C0672F79
:104C4000782F8827B85F39F0B93FCCF386957795F0
:104C50006795B395D9F73EF49095809570956195D9
:104C60007F4F8F4F9F4F0895E89409C097FB3EF404
:104C700090958095709561957F4F8F4F9F4F9923A9
:104C8000A9F0F92F96E9BB279395F6958795779527
:104C90006795B795F111F8CFFAF4BB0F11F460FFE7
:104CA0001BC06F5F7F4F8F4F9F4F16C0882311F03F
:104CB00096E911C0772321F09EE8872F762F05C053
:104CC000662371F096E8862F70E060E02AF09A95EE
:104CD000660F771F881FDAF7880F9695879597F9E3
:104CE0000895990F0008550FAA0BE0E8FEEF16167D
:104CF0001706E807F907C0F012161306E407F507D0
:104D000098F0621B730B840B950B39F40A2661F043
:104D1000232B242B252B21F408950A2609F4A140E6
:104D2000A6958FEF811D811D089597F99F6780E8F3
:104D300070E060E008959FEF80EC089500240A94ED
:104D40001616170618060906089500240A94121666
:104D50001306140605060895092E0394000C11F499
:104D6000882352F0BB0F40F4BF2B11F460FF04C046
:104D70006F5F7F4F8F4F9F4F089557FD9058440F9F
:104D8000551F59F05F3F71F04795880F97FB991FAA
:104D900061F09F3F79F08795089512161306140667
:104DA000551FF2CF4695F1DF08C0161617061806F4
:104DB000991FF1CF86957105610508940895E894CF
:104DC000BB2766277727CB0197F908958ADF08F478
:104DD0008FEF08950BD0C0CFB1DF28F0B6DF18F009
:104DE000952309F0A2CFA7CF1124EACFC6DFA0F305
:104DF000959FD1F3950F50E0551F629FF001729F70
:104E0000BB27F00DB11D639FAA27F00DB11DAA1F8E
:104E1000649F6627B00DA11D661F829F2227B00DDB
:104E2000A11D621F739FB00DA11D621F839FA00D66
:104E3000611D221F749F3327A00D611D231F849FB6
:104E4000600D211D822F762F6A2F11249F5750400D
:104E50008AF0E1F088234AF0EE0FFF1FBB1F661FA8
:104E6000771F881F91505040A9F79E3F510570F061
:104E70005CCFA6CF5F3FECF3983EDCF38695779549
:104E80006795B795F795E7959F5FC1F7FE2B880F5C
:104E9000911D9695879597F908950895883008F0A3
:104EA00076C0E82FF0E0EE0FFF1FEE55FC4F718348
:104EB00060838150873008F03DC0E82FF0E08827FC
:104EC000EB59F84D8F4F0C94AF2FA2276C27742706
:104ED00080278D27AE27BB27809169008C7F482BC8
:104EE00040936900E89A089580916900837F440F98
:104EF000551F440F551F482B40936900E99A0895A8
:104F0000809169008F7C74E0440F551F7A95E1F71A
:104F1000482B40936900EA9A0895809169008F7345
:104F200066E0440F551F6A95E1F7482B40936900EE
:104F3000EB9A089580916A008C7F482B40936A0019
:104F4000EC9A089580916A00837F440F551F440FA7
:104F5000551F482B40936A00ED9A089580916A008E
:104F60008F7C24E0440F551F2A95E1F7482B40938E
:104F70006A00EE9A089580916A008F7396E0440F5C
:104F8000551F9A95E1F7482B40936A00EF9A0895D0
:104F90001F920F920FB60F9211240BB60F922F9300
:104FA0003F934F935F936F937F938F939F93AF93B1
:104FB000BF93EF93FF93E091A603F091A703199598
:104FC000FF91EF91BF91AF919F918F917F916F91E1
:104FD0005F914F913F912F910F900BBE0F900FBE9D
:104FE0000F901F9018951F920F920FB60F921124D9
:104FF0000BB60F922F933F934F935F936F937F93D3
:105000008F939F93AF93BF93EF93FF93E091A80388
:10501000F091A9031995FF91EF91BF91AF919F91E5
:105020008F917F916F915F914F913F912F910F9051
:105030000BBE0F900FBE0F901F9018951F920F92EE
:105040000FB60F9211240BB60F922F933F934F93ED
:105050005F936F937F938F939F93AF93BF93EF93E0
:10506000FF93E091AA03F091AB031995FF91EF91A3
:10507000BF91AF919F918F917F916F915F914F9170
:105080003F912F910F900BBE0F900FBE0F901F906E
:1050900018951F920F920FB60F9211240BB60F9214
:1050A0002F933F934F935F936F937F938F939F9330
:1050B000AF93BF93EF93FF93E091AC03F091AD03F7
:1050C0001995FF91EF91BF91AF919F918F917F9132
:1050D0006F915F914F913F912F910F900BBE0F9069
:1050E0000FBE0F901F9018951F920F920FB60F9240
:1050F00011240BB60F922F933F934F935F936F93AF
:105100007F938F939F93AF93BF93EF93FF93E09120
:10511000A203F091A3031995FF91EF91BF91AF9175
:105120009F918F917F916F915F914F913F912F91BF
:105130000F900BBE0F900FBE0F901F9018951F92EF
:105140000F920FB60F9211240BB60F922F933F932D
:105150004F935F936F937F938F939F93AF93BF937F
:10516000EF93FF93E091A403F091A5031995FF91AC
:10517000EF91BF91AF919F918F917F916F915F91CF
:105180004F913F912F910F900BBE0F900FBE0F903C
:105190001F9018951F920F920FB60F9211240BB605
:1051A0000F922F933F934F935F936F937F938F93C0
:1051B0009F93AF93BF93EF93FF93E091AE03F09172
:1051C000AF031995FF91EF91BF91AF919F918F918F
:1051D0007F916F915F914F913F912F910F900BBEF7
:1051E0000F900FBE0F901F9018951F920F920FB641
:1051F0000F9211240BB60F922F933F934F935F930F
:105200006F937F938F939F93AF93BF93EF93FF938E
:10521000E091B003F091B1031995FF91EF91BF9127
:10522000AF919F918F917F916F915F914F913F913E
:105230002F910F900BBE0F900FBE0F901F901895DF
:105240001F920F920FB60F9211242F933F938F93BB
:105250009F93AF93BF938091CA059091CB05A09186
:10526000CC05B091CD053091C90523E0230F2D3732
:1052700058F50196A11DB11D2093C9058093CA055B
:105280009093CB05A093CC05B093CD058091CE052E
:105290009091CF05A091D005B091D1050196A11DA7
:1052A000B11D8093CE059093CF05A093D005B09308
:1052B000D105BF91AF919F918F913F912F910F9009
:1052C0000FBE0F901F90189526E8230F0296A11D80
:1052D000B11DD2CF3FB7F8948091CE059091CF0504
:1052E000A091D005B091D10526B5A89B05C02F3F50
:1052F00019F00196A11DB11D3FBFBA2FA92F982FFC
:105300008827BC01CD01620F711D811D911D42E0F6
:10531000660F771F881F991F4A95D1F708958F92BE
:105320009F92AF92BF92CF92DF92EF92FF926B016A
:105330007C01D0DF4B015C01C114D104E104F10414
:10534000D9F0D7D5C7DF681979098A099B09683E62
:1053500073408105910580F321E0C21AD108E1086C
:10536000F10888EE880E83E0981EA11CB11CC114C0
:10537000D104E104F10431F7FF90EF90DF90CF907A
:10538000BF90AF909F908F900895789484B582607D
:1053900084BD84B5816084BD85B5826085BD85B5D9
:1053A000816085BDEEE6F0E0808181608083E1E888
:1053B000F0E01082808182608083808181608083C0
:1053C000E0E8F0E0808181608083E1EBF0E08081C3
:1053D00084608083E0EBF0E0808181608083E1E99C
:1053E000F0E0808182608083808181608083E0E959
:1053F000F0E0808181608083E1EAF0E0808182607A
:105400008083808181608083E0EAF0E08081816038
:105410008083E1E2F1E0808182608083808181602D
:105420008083E0E2F1E0808181608083EAE7F0E060
:1054300080818460808380818260808380818160BC
:1054400080838081806880831092C10008951F93BB
:10545000CF93DF93182FEB0161E033D1209731F424
:1054600060E0812FDF91CF911F9167C1CF3FD105C0
:1054700011F461E0F6CFE12FF0E0EC51FE4FE49142
:10548000E150E23108F0B2C0F0E08827E65BF54D6C
:105490008F4F65C55C2A642A692A732A7D2AF62AF9
:1054A000872A8F2A972AA12AAB2AB52AC42ACE2A6C
:1054B000F62AD82AE22AEC2A84B5806884BDC7BDC2
:1054C000DF91CF911F91089584B5806284BDC8BDDE
:1054D000F7CF80918000806880938000D09389000E
:1054E000C0938800EDCF809180008062809380001F
:1054F000D0938B00C0938A00E3CF809180008860B6
:1055000080938000D0938D00C0938C00D9CF809180
:10551000B00080688093B000C093B300D1CF809179
:10552000B00080628093B000C093B400C9CF809176
:105530009000806880939000D0939900C093980069
:10554000BFCF80919000806280939000D0939B00A9
:10555000C0939A00B5CF80919000886080939000AE
:10556000D0939D00C0939C00ABCF8091A000806839
:105570008093A0008091A0008F7B8093A000D093A7
:10558000A900C093A8009CCF8091A0008062809366
:10559000A000D093AB00C093AA0092CF8091A0004E
:1055A00088608093A000D093AD00C093AC0088CFFA
:1055B00080912001806880932001D0932901C093BD
:1055C00028017ECF80912001806280932001D093BA
:1055D0002B01C0932A0174CF8091200188608093B1
:1055E0002001D0932D01C0932C016ACFC038D10582
:1055F0000CF03FCF35CF8150823108F059C0E82FF1
:10560000F0E08827EA5FF44D8F4FA9C4262B2A2BA0
:10561000182B1E2B222B582B2D2B332B372B3D2BAE
:10562000412B452B4B2B4F2B582B532B592B5D2BA1
:10563000809180008F778093800008958091800012
:105640008F7DF9CF80918000877FF5CF84B58F77EC
:1056500084BD089584B58F7DFBCF8091B0008F7796
:105660008093B00008958091B0008F7DF9CF809134
:1056700090008F77809390000895809190008F7DA7
:10568000F9CF80919000877FF5CF8091A0008F7730
:105690008093A00008958091A0008F7DF9CF809124
:1056A000A000877FF5CF809120018F778093200124
:1056B0000895809120018F7DF9CF80912001877F0F
:1056C000F5CFCF93DF9390E0FC01E65DFD4F249191
:1056D00080599D4FFC0184918823C9F090E0880F88
:1056E000991FFC01E651FD4FA591B491FC01E053D7
:1056F000FD4FC591D49161110DC09FB7F8948C9165
:10570000209582238C938881282328839FBFDF9153
:10571000CF910895623051F49FB7F8943C91822F55
:10572000809583238C93E8812E2BEFCF8FB7F8944D
:10573000EC912E2B2C938FBFEACF1F93CF93DF9347
:10574000282F30E0F901EC51FE4F8491F901E65D1C
:10575000FD4FD491F901E059FD4FC491CC23A1F044
:10576000162F811148DFEC2FF0E0EE0FFF1FE05302
:10577000FD4FA591B4918FB7F894EC91111108C029
:10578000D095DE23DC938FBFDF91CF911F910895D9
:10579000DE2BF8CFCF93DF93282F30E0F901EC51C7
:1057A000FE4F8491F901E65DFD4FD491F901E05976
:1057B000FD4FC491CC2399F081111DDFEC2FF0E057
:1057C000EE0FFF1FEA54FD4FA591B491EC91ED232C
:1057D00081E090E009F480E0DF91CF91089580E0CE
:1057E00090E0FACFFC01918D228D892F90E0805CB2
:1057F0009F4F821B91098F7399270895FC01918D0A
:10580000828D981731F0828DE80FF11D858D90E023
:1058100008958FEF9FEF0895FC01918D828D981769
:1058200061F0A28DAE0FBF2FB11D5D968C91928D50
:105830009F5F9F73928F90E008958FEF9FEF089581
:10584000FC01538D448D252F30E0842F90E0821B86
:10585000930B541710F0CF96089501970895FC010B
:10586000A48DA80FB92FB11DA35ABF4F2C91848DC1
:1058700090E001968F739927848FA689B7892C931E
:10588000A089B1898C91837080648C93938D848D71
:10589000981306C00288F389E02D80818F7D808374
:1058A0000895CF93DF93EC01888D8823B1F0AA8906
:1058B000BB89E889F9898C9185FD03C0808186FDCB
:1058C0000CC00FB607FCF7CF8C9185FFF2CF80811B
:1058D00085FFEDCFCE01C3DFEACFDF91CF910895F1
:1058E000EF92FF920F931F93CF93DF93EC0181E030
:1058F000888F9B8D8C8D98131AC0E889F9898081D7
:1059000085FF15C09FB7F894EE89FF896083E88909
:10591000F98980818370806480839FBF81E090E0FB
:10592000DF91CF911F910F91FF90EF900895F62E88
:105930000B8D10E00F5F1F4F0F731127E02E8C8D22
:105940008E110BC00FB607FCFACFE889F989808168
:1059500085FFF5CFCE0183DFF2CFEB8DEC0FFD2F6E
:10596000F11DE35AFF4FF0829FB7F8940B8FEA893D
:10597000FB8980818062D0CFCF92DF92EF92FF923D
:105980001F93CF93DF93EC016A017B01122FE8890B
:10599000F98982E08083C11481EED806E104F10424
:1059A00099F060E079E08DE390E0A7019601B5D22F
:1059B0002150310941095109569547953795279549
:1059C000211580E1380790F0E889F989108260E8B4
:1059D00074E88EE190E0A70196019FD22150310931
:1059E000410951095695479537952795EC85FD85D1
:1059F0003083EE85FF852083188EEC89FD89108326
:105A0000EA89FB89808180618083EA89FB898081C2
:105A100088608083EA89FB89808180688083EA8945
:105A2000FB8980818F7D8083DF91CF911F91FF90D3
:105A3000EF90DF90CF9008951F920F920FB60F92C4
:105A400011240BB60F922F938F939F93EF93FF9395
:105A5000E091E205F091E3058081E091E805F091A5
:105A6000E90582FD1DC090818091EB058F5F8F73EA
:105A70002091EC05821741F0E091EB05F0E0EE5249
:105A8000FA4F958F8093EB05FF91EF919F918F9146
:105A90002F910F900BBE0F900FBE0F901F90189577
:105AA0008081F2CF1F920F920FB60F9211240BB686
:105AB0000F922F933F934F935F936F937F938F93A7
:105AC0009F93AF93BF93EF93FF9382ED95E0C7DE73
:105AD000FF91EF91BF91AF919F918F917F916F91C6
