:1000000085C100000C9487280C94B2280C94DD283C
:100010000C9408290C9433290C945E290C9489299A
:100020000C94B429A4C10000A2C10000A0C100002A
:100030009EC100009CC100009AC1000098C1000050
:1000400096C1000094C1000092C1000090C1000060
:100050008EC100008CC100008AC100000C94DF2911
:1000600086C100000C94DB2D0C94112E80C1000081
:100070007EC100007CC100007AC1000078C1000090
:1000800076C1000074C1000072C1000070C10000A0
:100090000C94672E0C949D2E6AC1000068C100006C
:1000A00066C1000064C1000062C1000060C10000C0
:1000B0005EC100005CC100005AC1000058C10000D0
:1000C00056C1000054C100000C94AA190C94F32EE0
:1000D0000C94292F4CC100000C947F2F0C94B52F49
:1000E00046C10000001D3A2774694E53E8F5D2CF8F
:1000F0009C81A6BBCDD0F7EAB9A4839E25381F0208
:10010000514C6B76879ABDA0F3EEC9D46F725548F7
:100110001B06213C4A57706D3E230419A2BF9885E7
:10012000D6CBECF1130E2934677A5D40FBE6C1DCD7
:100130008F92B5A8DEC3E4F9AAB7908D362B0C11C7
:10014000425F78659489AEB3E0FDDAC77C61465BB7
:100150000815322F5944637E2D30170AB1AC8B96A7
:10016000C5D8FFE2263B1C01524F6875CED3F4E997
:10017000BAA7809DEBF6D1CC9F82A5B8031E392487
:10018000776A4D50A1BC9B86D5C8EFF24954736E77
:100190003D20071A6C71564B1805223F8499BEA367
:1001A000F0EDCAD735280F12415C7B66DDC0E7FA57
:1001B000A9B4938EF8E5C2DF8C91B6AB100D2A3747
:1001C00064795E43B2AF8895C6DBFCE15A47607D37
:1001D0002E3314097F6245580B16312C978AADB027
:1001E000E3FED9C400000A0B02090C0D0E08070338
:1001F00004010000000000000000000000000000FA
:1002000000000000000000000000000000000000EE
:1002100012111000000000000000000000000000AB
:100220000000000000000000000001021020200873
:100230000810204010204080020102010804020141
:1002400001020408102040808040201008040201B0
:100250008004020180402010080402010804020109
:100260000102040810204080010204081020408090
:1002700005050505070508080808020202020A0A22
:100280000808040404040101010101010101030340
:10029000030303030303040707070C0C0C0C0C0CEB
:1002A0000C0C0202020206060606060606060B0BE8
:1002B0000B0B0B0B0B0B000020002300260029006A
:1002C0002C002F003200000100000301060109018B
:1002D00000002200250028002B002E0031003400F1
:1002E00002010000050108010B01000021002400AB
:1002F00027002A002D003000330001010000040116
:1003000007010A013A2EC62E522FDE2F11241FBEDE
:10031000CFEFD1E2DEBFCDBF00E00CBF14E0A0E024
:10032000B2E0E8ECF3E600E00BBF02C007900D92EC
:10033000A83DB107D9F728E0A8EDB4E001C01D92AF
:10034000AF3FB207E1F711E0C6E8D1E000E006C038
:1003500021970109802FFE010E946E30C238D1071B
:1003600080E00807A9F70E94D0250C94E23148CE1E
:10037000611102C00C94202C6130E1F362E0FACFED
:10038000662319F061E00C945C2C60E0FCCF0895CA
:10039000CF92DF92EF92FF92CF93882351F16A01BF
:1003A0007B01CFEFC80F20E030E0A901CB01B601FF
:1003B0000E94BE2687FF11C0C701B60190580E9457
:1003C000C7269B01AC016C2F70E090E080E0CF91DC
:1003D000FF90EF90DF90CF90B2C0C701B6010E94AE
:1003E000C2268C2FCF91FF90EF90DF90CF900C948E
:1003F000E62ACF91FF90EF90DF90CF9008950F9372
:100400001F938B019C0183E03695279517950795DF
:100410008A95D1F708521B4F462F477021E030E0F4
:10042000F90102C0EE0FFF1F4A95E2F7AF01F80194
:1004300020812423CB010196211102C090E080E0AD
:100440001F910F9108950F931F938B019C0183E0DF
:1004500036952795179507958A95D1F7677081E0AE
:1004600090E001C0880F6A95EAF7F801E852FB4F67
:100470002081452B31F48095822380831F910F9139
:100480000895822BFACF2F923F924F925F926F92F4
:100490007F928F929F92AF92BF92CF92DF92EF9214
:1004A000FF920F931F93CF93DF93D62EC72E782EF4
:1004B000692E49015A01280161E08D2D0E94202CEE
:1004C000CD2DDC2D8E010F5F1F4FA8016D2D7C2DD2
:1004D000872D962DB8DF20E030E0A901C201B701D9
:1004E0000E94A527181664F4C201B7010E94C7260E
:1004F0002B01C501B4010E94C726A201CE0123D061
:10050000C801DF91CF911F910F91FF90EF90DF9085
:10051000CF90BF90AF909F908F907F906F905F90A3
:100520004F903F902F900895882341F08150682F7D
:1005300070E090E080E050E040E085CF0895862FA5
:10054000B9010C94E62A9C01FC01EC51FE4FE491A8
:10055000E150E231E0F4F0E08827EE54FD4F8F4F98
:100560000C946E30C402CB02CE02E502FA02C7023E
:100570000F031B031F0336034B03600377038C0336
:10058000C702A103B803CD0384B5806884BD60E0D1
:10059000822F0C945C2C84B58062F8CF809180000F
:1005A0008C7F82608093800080918100807E80615A
:1005B000682B609381005093870040938600809160
:1005C0008000806880938000E2CF809180008C7FE3
:1005D00082608093800080918100807E8061682BA2
:1005E0006093810050938700409386008091800043
:1005F0008062E8CF809180008C7F82608093800051
:1006000080918100807E8061682B6093810050938F
:10061000870040938600809180008860D3CF8091CE
:10062000B00080688093B0008091B100887F682B13
:100630006093B100ACCF8091B0008062F3CF809125
:1006400090008C7F82608093900080919100807EEA
:100650008061682B609391005093970040939600BF
:100660008091900080688093900091CF809190005D
:100670008C7F82608093900080919100807E806169
:10068000682B60939100509397004093960080915F
:1006900090008062E8CF809190008C7F8260809390
:1006A000900080919100807E8061682B6093910022
:1006B0005093970040939600809190008860D3CF2C
:1006C0008091A0008C7F82608093A0008091A10027
:1006D000807E8061682B6093A1005093A7004093B7
:1006E000A6008091A00080688093A00050CF8091E8
:1006F000A0008C7F82608093A0008091A100807E0A
:100700008061682B6093A1005093A7004093A600DE
:100710008091A0008062E8CF8091A0008C7F8260F1
:100720008093A0008091A100807E8061682B6093FF
:10073000A1005093A7004093A6008091A00088607C
:10074000D3CF809120018C7F8260809320018091A3
:100750002101807E8061682B6093210150932701E5
:1007600040932601809120018068809320010FCF63
:10077000809120018C7F82608093200180912101F3
:10078000807E8061682B6093210150932701409304
:100790002601809120018062E8CF809120018C7F2A
:1007A00082608093200180912101807E8061682B8E
:1007B00060932101509327014093260180912001ED
:1007C0008860D3CF2F923F924F925F926F927F9229
:1007D0008F929F92AF92BF92CF92DF92EF92FF9251
:1007E0000F931F93CF93DF93CDB7DEB7E3970FB689
:1007F000F894DEBF0FBECDBF8091AA088150823031
:1008000008F4FCC280E08093AA088091AB0888239A
:1008100009F440C080917E0390917F03A0918003F2
:10082000B091810380938C0890938D08A0938E08DB
:10083000B0938F088091820390918303A0918403E9
:10084000B09185038093900890939108A0939208AB
:10085000B09393088091860390918703A0918803B9
:10086000B09189038093940890939508A09396087B
:10087000B093970880918A0390918B03A0918C0389
:10088000B0918D038093980890939908A0939A084B
:10089000B0939B08209172033091730340917403CD
:1008A0005091750360912305709124058091250571
:1008B000909126050E94BE2687FFA2C2C0907603B3
:1008C000D0907703E0907803F090790320918C0822
:1008D00030918D0840918E0850918F086091D6021A
:1008E0007091D7028091D8029091D9020E94A927D5
:1008F0004B015C0120919008309191084091920841
:10090000509193086091DA027091DB028091DC02D1
:100910009091DD020E94A9279B01AC01C501B401A1
:100920000E945A264B015C01209194083091950851
:1009300040919608509197086091DE027091DF0215
:100940008091E0029091E1020E94A9279B01AC01F5
:10095000C501B4010E945A264B015C012091980800
:100960003091990840919A0850919B086091E20259
:100970007091E3028091E4029091E5020E94A92720
:100980009B01AC01C501B4010E945A269B01AC0138
:10099000C701B6010E9459266093D0087093D10810
:1009A0008093D2089093D3082091A8083091A90889
:1009B0008091E6029091E7022817390709F429C2CD
:1009C00081E04091E8025091E9024217530709F093
:1009D00080E08093E0082CE938E04EED58E06CEDC3
:1009E00078E080EE98E00E940D196091DC0870912B
:1009F000DD08072E000C880B990B0E94F52620912C
:100A000096033091970340919803509199030E9467
:100A10005A266B017C0180909E0390909F03A090CA
:100A2000A003B090A103AC019B01C501B4010E94D9
:100A3000BE2687FFF0C1A5019401C701B6010E943F
:100A400059262091A2033091A3034091A403509111
:100A5000A5030E94A9276B017C01C092D408D09203
:100A6000D508E092D608F092D7086091DE08709120
:100A7000DF08072E000C880B990B0E94F5262091A9
:100A8000A6033091A7034091A8035091A9030E94A7
:100A9000A9276093D8087093D9088093DA089093B7
:100AA000DB082091E008222321F02091CC03209341
:100AB000AC082091D0082B8BA091D108AD8BB091C0
:100AC000D208B98FE091D308ED8F2091CD03222376
:100AD00009F4C4C121E02093AF0869837A838B8332
:100AE0009C83CD82DE82EF82F88680919808909177
:100AF0009908A0919A08B0919B088BA39CA3ADA3E1
:100B0000BEA38091940890919508A0919608B09109
:100B100097088FA398A7A9A7BAA78091900890914A
:100B20009108A0919208B09193088BA79CA7ADA7BC
:100B3000BEA740908C0850908D0860908E087090F1
:100B40008F089091AC089FA7A091EE02A8ABB0913E
:100B5000EF02B9ABE091F002EAABF091F102FBAB2E
:100B600032E3C32E33E0D32E1E0129E0220E311CC6
:100B70008E010F5F1F4FCE0141969A8B898B7601B4
:100B800094E0C90ED11CD70118962D913D914D913D
:100B90005C911B976BA57CA58DA59EA50E94A9279E
:100BA0004B015C01F7012081318142815381C301F6
:100BB000B2010E94A9279B01AC01C501B4010E94AA
:100BC0005A264B015C01D70150962D913D914D91D4
:100BD0005C9153976FA178A589A59AA50E94A92732
:100BE0009B01AC01C501B4010E945A264B015C0176
:100BF000F701208D318D428D538D6BA17CA18DA18C
:100C00009EA10E94A9279B01AC01C501B4010E94CD
:100C10005A264B015C01FFA5FF2309F411C1D8013D
:100C2000BC91BE8FF801F181FAA3D8011296EC9025
:100C300012971396FC90F601E85AFF4F20813181FC
:100C4000428153816B897D89898D9D8D0E94A92761
:100C5000A50194010E945A269B01AC016E8D7AA1D8
:100C6000C7010E945926D1016D937D938D939D9369
:100C70001D010C5F1F4FE989FA89EA17FB0709F08C
:100C80007ECF89859A85AB85BC858E8F9F8FA8A3E3
:100C9000B9A34D845E846F84788822E5222E23E0F8
:100CA000322E00EB18E0D1018D909D90AD90BD905B
:100CB0001D011C962D913D914D915C911F97C30193
:100CC000B2010E94A9276B017C012E8D3F8D48A1A6
:100CD00059A1C501B4010E94A92720E030E0A90173
:100CE0000E945A269B01AC01C701B6010E945A26F8
:100CF000F80161937193819391938F0180EC98E057
:100D00008E179F0781F68091AA08882309F4A3C053
:100D1000833009F09CC081E090E08093AA08C090E5
:100D2000BA03D090BB03E090BC03F090BD032B89C5
:100D30003D89498D5D8DC701B6010E94BE2687FDA4
:100D400016C0C090BE03D090BF03E090C003F090E7
:100D5000C1032B893D89498D5D8DC701B6010E9474
:100D6000A527181624F0CB88DD88E98CFD8C20910E
:100D7000C2033091C3034091C4035091C503C7011E
:100D8000B6010E94A9274B015C0120E030E0A901D7
:100D90000E94BE2687FD30C020E030E0A901C501D9
:100DA000B4010E94A52718160CF488C020E030E09A
:100DB000A901C501B4010E94BE26882309F4C6C258
:100DC0008090ED089090EE08A090EF08B090F008A9
:100DD00020E030E040E853E4C501B4010E94BE26A3
:100DE0006FEF87FF75C020E030E0A901C501B401B5
:100DF0000E94A52787FF68C060E06AC083E003CD3A
:100E0000C0907A03D0907B03E0907C03F0907D0348
:100E10005DCD81E0DECD80909A0390909B03A09001
:100E20009C03B0909D03A7019601C501B4010E94E7
:100E3000BE2618160CF4FFCD60E070E0CB0101CEA9
:100E4000B8A9BE8FE9A9EAA3EAA8FBA8F4CE082EA8
:100E5000000C990B62CF82E090E05FCF8091AF08E9
:100E6000882309F45CCF8091EA029091EB02A09173
:100E7000EC02B091ED028093B0089093B108A0937A
:100E8000B208B093B3088093B4089093B508A093C8
:100E9000B608B093B7088093B8089093B908A093A8
:100EA000BA08B093BB088093BC089093BD08A09388
:100EB000BE08B093BF081092AF0831CF812C912C9F
:100EC00090E8A92E9FE3B92EC501B4010E94C72660
:100ED0008AE056DA609180087091810880918208DA
:100EE000909183088CDA8C0190937F0880937E0820
:100EF000C701B6019F772091C6033091C703409187
:100F0000C8035091C9030E94A9276B017C0120E00E
:100F100030E04FE753E40E94BE2687FF1BC220E06B
:100F200030E0A901C701B6010E94A52718160CF0F0
:100F300018C2B701A601C8012BDA1092AB08809144
:100F4000980890919908A0919A08B0919B088D8B70
:100F50009E8BAF8BB88F8091940890919508A0914B
:100F60009608B0919708898F9A8FAB8FBC8F40906D
:100F7000900850909108609092087090930880902B
:100F80008C0890908D08A0908E08B0908F0802EF8A
:100F900012E0A0ECB8E0BC8BAB8B18010C5F1F4FCC
:100FA000F1012089318942895389C301B2010E942C
:100FB000A9276B017C01D1012D913D914D915C914F
:100FC000C501B4010E94A9279B01AC01C701B6016C
:100FD0000E945A266B017C01F10120A131A142A19E
:100FE00053A1698D7A8D8B8D9C8D0E94A9279B01C1
:100FF000AC01C701B6010E945A266B017C01D101E8
:10100000D0962D913D914D915C91D3976D897E89BC
:101010008F89988D0E94A9279B01AC01C701B60159
:101020000E945A26EB89FC89619371938193919375
:10103000FC8BEB8B82E093E08017910709F0ADCF3A
:10104000C090D008D090D108E090D208F090D3089A
:101050002091AA033091AB034091AC035091AD03B2
:10106000C701B6010E94A9272091C0083091C1088C
:101070004091C2085091C3080E945A262091B0089E
:101080003091B1084091B2085091B3080E945A269D
:1010900060938C0870938D0880938E0890938F08CE
:1010A0002091AE033091AF034091B0035091B10352
:1010B000C701B6010E94A9272091C4083091C50834
:1010C0004091C6085091C7080E945A262091B40842
:1010D0003091B5084091B6085091B7080E945A2641
:1010E000609390087093910880939208909393086E
:1010F0002091B2033091B3034091B4035091B503F2
:10110000C701B6010E94A9272091C8083091C908DB
:101110004091CA085091CB080E945A262091B808E5
:101120003091B9084091BA085091BB080E945A26E4
:10113000609394087093950880939608909397080D
:101140002091B6033091B7034091B8035091B90391
:10115000C701B6010E94A9272091CC083091CD0883
:101160004091CE085091CF080E945A262091BC0889
:101170003091BD084091BE085091BF080E945A2688
:10118000609398087093990880939A0890939B08AD
:101190008091DC089091DD089093A9088093A808BD
:1011A0002CE938E04EED58E06CED78E080EE98E008
:1011B0000E943F1981E090E00E943B184091230576
:1011C00050912405609125057091260590E080E0FE
:1011D0000E9437188090330590903405A090350513
:1011E000B090360520E030E040E85FEBC501B40187
:1011F0000E94BE26882331F1C0902305D09024059B
:10120000E0902505F0902605A7019601C501B401DF
:101210000E9459264B015C0120E030E040E054E39D
:10122000C701B6010E94A9279B01AC01C501B40109
:101230000E94A527181634F083EE93E090930E05D4
:1012400080930D0580913705882331F083EE93E07C
:1012500090930E0580930D05C0902705D09028052A
:10126000E0902905F0902A059FEFC91AD90AE90AEA
:10127000F90AC0922705D0922805E0922905F0923C
:101280002A05C114D104E104F10499F480912B05DD
:1012900090912C05A0912D05B0912E050196A11DD0
:1012A000B11D80932B0590932C05A0932D05B09331
:1012B0002E0580902F0590903005A0903105B090BC
:1012C000320560912B0570912C0580912D05909130
:1012D0002E050E94F326A50194010E94A92720E073
:1012E00030E040E85FE40E94A9272B013C01C701E0
:1012F000B6010E94F326A50194010E94A9279B0133
:10130000AC01C301B2010E945A2660932305709379
:1013100024058093250590932605E3960FB6F8944F
:10132000DEBF0FBECDBFDF91CF911F910F91FF9018
:10133000EF90DF90CF90BF90AF909F908F907F9075
:101340006F905F904F903F902F900895812C912C3B
:101350005401BACDC12CD12C8FE7E82E83E4F82EAE
:10136000E8CDC12CD12C7601E4CD4F925F926F92E3
:101370007F92BF92CF92DF92EF92FF920F931F93D3
:10138000CF93DF9384E090E06AD1EDE0F5E08BE26B
:10139000DF011D928A95E9F780E090E0A0E8BFEBBD
:1013A00086A397A3A0A7B1A78FE692E1A3E8BAE32B
:1013B00082A393A3A4A3B5A389ED98E8A7E0BAE11B
:1013C00084839583A683B78383EB9CE9ACE9B3E67A
:1013D00080879187A287B3878BE89FEDADE9B7E659
:1013E00084879587A687B78787E794E8A5E4B9E05F
:1013F000808B918BA28BB38BC1E0D5E0D383C2836A
:10140000A5EFB4E0B983A88387EF93E011969C938E
:101410008E932AEA38E013963C932E9312971596F2
:101420009C938E93149717969C938E931697199668
:101430009C938E9318971B969C938E931A9781E298
:1014400095E09D838C8381E195E09B838A8383E291
:1014500095E09F838E8380EBC82E88E0D82E81E3B1
:10146000D6011D928A95E9F7C8E7D8E088E3DE0146
:101470001D928A95E9F72BEE34E08AE0D9011D929E
:101480008A95E9F7A1EEB4E0B58BA48B80E190E0FA
:1014900011969C938E9386EB92E013969C938E9379
:1014A000129786E992E015969C938E93149782E3A7
:1014B00092E017969C938E93169786E092E0199689
:1014C0009C938E931897BB24B394BEAA412C512CA5
:1014D000320143944D865E866F86788A61E08AE0A9
:1014E0000E94B801B98A1882BDAA89E090E0A0E004
:1014F000B0E088879987AA87BB871D8249825A8274
:101500006B827C82E12CF12C8701A801970169E0B4
:1015100070E080E090E00E9443029F838E836885A4
:1015200079858A859B850E94FF019F838E830E9417
:10153000C701BD82BBAA8091CA039091CB0399AB2E
:1015400088ABECA2FDA20EA31FA38091CE038CABAF
:101550008091EA029091EB02A091EC02B091ED0231
:10156000F60180839183A283B38384839583A683CA
:10157000B78380879187A287B38784879587A6875B
:10158000B787DF91CF911F910F91FF90EF90DF9080
:10159000CF90BF907F906F905F904F900895809113
:1015A0008408811103C081E08093840880917808C9
:1015B000811136C081E080937808809179089091FC
:1015C0007A08A0917B08B0917C080197A105B1052C
:1015D00039F580917D08882319F160918008709118
:1015E000810880918208909183080E94FF01909366
:1015F0007F0880937E0840E050E0BA010E94C80155
:101600006091800870918108809182089091830890
:101610000E94FF0190937F0880937E080C949402AF
:10162000089560E070E080E89FE7089560E070E072
:1016300080E89FE7089560E070E080E89FEF0895FC
:1016400060E070E080E89FEF089560E070E080EC7B
:101650009FEF089560E070E080EC9FEF0895F5DF64
:101660006093ED087093EE088093EF089093F00874
:10167000F1DF6093E1087093E2088093E3089093B0
:10168000E408CFDF6093E9087093EA088093EB08E1
:101690009093EC08CBDF6093E5087093E6088093A5
:1016A000E7089093E808C7DF6093F1087093F208A9
:1016B0008093F3089093F408C3DF6093F508709368
:1016C000F6088093F7089093F8080895EF92FF9238
:1016D0000F931F93CF93DF93EA01F901DC01149676
:1016E000ED90FC90159712964D915C9113974E0DCD
:1016F0005F1D2881398118960D911C911997021749
:10170000130730F00D911C911197012B09F441C082
:101710008A01021B130BDC0118968D919C918E1986
:101720009F09800F911F86179707DCF1C901860F6B
:10173000971F8417950778F471836083338322831E
:10174000158214821782168288819981680F791F09
:101750007983688316C01183008333832283601BDF
:10176000710B7583648390E080E01616170614F4FD
:101770009E2D8F2D96838783D701A60FB71FB98320
:10178000A88380E0DF91CF911F910F91FF90EF90A0
:10179000089518968D919C91821B930B861797073D
:1017A0005CF681E0EFCFCF92DF92EF92FF92CF9382
:1017B000DF936B0184E4869FE001879FD00D1124A5
:1017C000C85CDA4F8AA99BA9009721F00E9440319A
:1017D0001BAA1AAA84E48C9DF0018D9DF00D1124A2
:1017E000E85CFA4F86A997A9009711F00E94403152
:1017F00084E48C9DF0018D9DF00D1124E85CFA4F7E
:10180000138A128A168A178A108E118E128E138EE0
:10181000148E158E168E178E10A211A281E090E004
:1018200093A382A315A214A216A217A210A611A612
:1018300013A612A615A614A616A617A610AA11AAD4
:1018400013AA12AA15AA14AA17AA16AA11AE10AEA4
:1018500012AE13AE14AE15AEDF01DE961D921D92D0
:101860001D921C921397EE5BFF4F11821082DF9145
:10187000CF91FF90EF90DF90CF900895CF93DF93BB
:10188000FB01DC016D917C91DB011696CD91DC9121
:101890008081918123E0880F991F2A95E1F7AA8121
:1018A000BB81A80FB91F8D919C9111972485358517
:1018B000220F331FEB016A817B81EB01C20FD31F23
:1018C0000990D881C02D14962D913C9161E070E073
:1018D000232B11F062E070E0C69F9001C79F300D8E
:1018E000D69F300D1124A085B1852A9FB0012B9F72
:1018F000700D3A9F700D1124A481B5812A9FF001CB
:101900002B9FF00D3A9FF00D11248E0F9F1FFA01AF
:101910009183808373836283DF91CF9108952F92A7
:101920003F924F925F926F927F928F929F92AF926F
:10193000BF92CF92DF92EF92FF920F931F93CF93BC
:10194000DF9300D000D0CDB7DEB7DC011496ED9167
:10195000FC910190F081E02D808591859A838983A7
:10196000A281B381BC83AB83FB0181909190A19054
:10197000B190C12CD12C7601C814D904EA04FB041F
:10198000CCF026960FB6F894DEBF0FBECDBFDF9128
:10199000CF911F910F91FF90EF90DF90CF90BF906C
:1019A000AF909F908F907F906F905F904F903F90FF
:1019B0002F900895448055806680778040855185BA
:1019C00062857385CF0140969E838D83A081B1810E
:1019D0009D0183E0220F331F8A95E1F7A981BA8127
:1019E00012968D919C91D901A80FB91F2D903C9012
:1019F00011970484F585E02DEE0FFF1F8B819C81EC
:101A0000E80FF91F0190F081E02D14968D919C91C3
:101A1000892B41F581E090E0E89F9001E99F300D2E
:101A2000F89F300D1124249F8001259F100D349FB5
:101A3000100D1124249DC001259D900D349D900D05
:101A40001124A8016D817E81820D931D0E94C931F0
:101A5000ED81FE81E00FF11F9FEFC91AD90AE90A53
:101A6000F90A8ACF82E090E0D7CFCF93DF93DB01F2
:101A7000A153BC4F2C91222369F024E4269FF0014E
:101A8000279FF00D1124E85CFA4FEF0119922A9577
:101A9000E9F71C9224E4269FF001279FF00D112402
:101AA000E85CFA4F1482158216821782118610861E
:101AB00013861286118A108A17861686DF91CF91B7
:101AC00072CE2F923F924F925F926F927F928F923F
:101AD0009F92AF92BF92CF92DF92EF92FF920F93BD
:101AE0001F93CF93DF9300D000D01F921F92CDB7EA
:101AF000DEB724E4269FF001279FF00D1124E85C57
:101B0000FA4F0481158126813781012B022B032B8B
:101B100009F4B7C02A016B017C0110E000E0812CC0
:101B2000912C54013F019F01285F3F4F3C832B8341
:101B3000CF0104969E838D83AB81BC818D919C9156
:101B4000ED81FE8140815181628173818416950609
:101B5000A606B706E4F10E944031D3011A968D9192
:101B60009C91892B09F07EC084E48C9DD0018D9DD1
:101B7000B00D1124A85CBA4FBC83AB8350968D91F5
:101B80009C910E944031EB81FC81868597850E9463
:101B90004031C701B60107DEC701B60128960FB66E
:101BA000F894DEBF0FBECDBFDF91CF911F910F9193
:101BB000FF90EF90DF90CF90BF90AF909F908F906D
:101BC0007F906F905F904F903F902F904ECFFC0191
:101BD000E00FF11F92819983A381AA839F83A88735
:101BE000312C212C2414350464F089819A810E94BF
:101BF0004031EFEF8E1A9E0AAE0ABE0A0C5F1F4FED
:101C00009BCFAF81B885ED91FD91B887AF833097B9
:101C100059F0848195810E944031EF81F885329797
:101C2000808191810E944031BFEF2B1A3B0ADACFAD
:101C3000800F911FFC01848195810E9440312B818E
:101C40003C812F5F3F4F3C832B83025F1F4FF50189
:101C5000808191812B813C81241535054CF30E94B4
:101C6000403182CF10E000E01C821B8224E42C9DD6
:101C7000C0012D9D900D1124DC01AE5BBA4F5D01BA
:101C8000E6CF28960FB6F894DEBF0FBECDBFDF912A
:101C9000CF911F910F91FF90EF90DF90CF90BF9069
:101CA000AF909F908F907F906F905F904F903F90FC
:101CB0002F90089524E4269FF001279FF00D112412
:101CC000E85CFA4F828993890497029758F485E07B
:101CD00090E0938B828B8FEF9FEFDC01828F938F4D
:101CE000A48FB58F08952F923F924F925F926F927B
:101CF0007F928F929F92AF92BF92CF92DF92EF929C
:101D0000FF920F931F93CF93DF93CDB7DEB7AA97C0
:101D10000FB6F894DEBF0FBECDBF9AA389A37E8B0A
:101D20006D8B1A01098B1A8B2B8B3C8B84E42989D0
:101D30003A89829F6001839FD00C11248601085C40
:101D40001A4F89899A89AB89BC89F801808391836C
:101D5000A283B383AB01BC01CD01B3DED601A45C89
:101D6000BA4F84E0F10101900D928A95E1F7F4E019
:101D70002F0E311C64E070E0D80114968D919C9177
:101D80000E948A30F80191878087892B09F0F5C07D
:101D90004D895E8969897A898B899C8992DE81E087
:101DA000AA960FB6F894DEBF0FBECDBFDF91CF91DC
:101DB0001F910F91FF90EF90DF90CF90BF90AF9069
:101DC0009F908F907F906F905F904F903F902F905B
:101DD0000895A9A5BAA58D919C91E98DFA8DE80F7A
:101DE000F91FF88FEF8BD1018D919C91880F991F6E
:101DF000A9A1BAA1ED91FC91E80FF91F8081918111
:101E0000EF89F88D91838083D10114962D913D91B6
:101E10004D915C9117972BA33CA34DA35EA362E069
:101E200070E08D899E890E948A30EF89F88D9383B6
:101E30008283892B09F4ACCFF8E02F0E311C412CA2
:101E4000512C32012BA13CA14DA15EA1421653069B
:101E5000640675069CF02B8D3C8D4D8D5E8D2F5F3D
:101E60003F4F4F4F5F4F2B8F3C8F4D8F5E8F498D74
:101E70005A8D4C5F5F4F5A8F498F90C0610124E0AB
:101E8000C20ED11CD101ED90FC90EE0CFF1CEF892D
:101E9000F88D82819381E80EF91E68E070E081E0A0
:101EA00090E00E948A308C01D7018D939C93892BFE
:101EB00009F46ECF84E0F601D80101900D928A9565
:101EC000E1F7B8E02B0E311CF80180819181A281ED
:101ED000B381181619061A061B06DCF464E070E0DC
:101EE0000E948A30D80115969C938E931497892B63
:101EF00009F44ECFD12CC12C812C912C5401F80126
:101F000080819181A281B38188169906AA06BB06B9
:101F100034F0FFEF4F1A5F0A6F0A7F0A93CFF80180
:101F2000E480F580EC0CFD1C80E1F101DE011196EE
:101F300001900D928A95E1F7F0E12F0E311CA70177
:101F4000BE016F5F7F4FA9A1BAA114968D919C919C
:101F500095DCF80186819781D70112962D913C91ED
:101F6000820F931F97838683BFEF8B1A9B0AAB0A5E
:101F7000BB0AE4E0CE0ED11CC2CF1A8E198E1B8E86
:101F80001C8E1D8E1E8E18A30F8FA8014C5F5F4FF5
:101F900058A74FA3C80108969AA789A7EFA1F8A54B
:101FA00080819181A281B3812B8D3C8D4D8D5E8D81
:101FB000281739074A075B070CF40BCF6EE070E077
:101FC0008D899E890E948A30AF8DB8A11B969C9303
:101FD0008E931A97B12CA12CD12CC12CF12CE12C71
:101FE00024E4E989FA892E9FC0012F9F900D1124C6
:101FF0009C012E5B3A4F388F2F8B88248394912C31
:102000004D895E89C416D50654F184E4A989BA893C
:102010008A9F80018B9F100D1124085C1A4FF801D4
:1020200015861486C70133E0880F991F3A95E1F7AA
:102030000E94A430D80151969C938E935097892B7F
:1020400009F4A6CEC701880F991F0E94A430F80199
:1020500097878687892B09F49BCE80E0A1CED1019A
:102060004D905D906D907D901D0177FC91CEEF8934
:10207000F88D008111810A0D1B1DD80111969C92CB
:102080008E92411451046104710429F1C2010E942D
:10209000A430F80195838483892B09F479CEF80163
:1020A000538242828481958197838683918780873A
:1020B0001386128681E090E045284628472811F4CF
:1020C00090E080E0E80EF91EFFEFCF1ADF0A2EE065
:1020D000A20EB11C95CF15961C921E921497DFCFBD
:1020E0002F923F924F925F926F927F928F929F9228
:1020F000AF92BF92CF92DF92EF92FF920F931F9316
:10210000CF93DF93CDB7DEB76A970FB6F894DEBFF3
:102110000FBECDBF9E8B8D8B49015A0184E4829FF7
:102120007001839FF00C11249701285C3A4F6901DC
:10213000FB0180819181F901958B848BD701A25B92
:10214000BA4FFB01349684E001900D928A95E1F735
:10215000D701AE5ABA4FFB01389684E001900D9238
:102160008A95E1F7D701AA5ABA4FFB013C9684E061
:1021700001900D928A95E1F7D701AA59BA4FFB0158
:10218000709684E001900D928A95E1F78B010C5EC8
:102190001F4FF90186A597A5A0A9B1A91816190680
:1021A000DCF5880F991F880F991F0E94A430F60153
:1021B00093AB82AB892B09F4D3C0312C212C412C59
:1021C000512C32019601225D3F4F388F2F8BC60173
:1021D000C2969A8F898FF496FC8BEB8BB301A20188
:1021E0002FEF421A520A620A720AEF89F88D808133
:1021F0009181A281B381481759076A077B070CF4C4
:102200007BC0F60184A995A90E94A430F60197AB82
:1022100086AB892B09F4A4C0F80180819181A28149
:10222000B38124E4289DF001299DF00D1124E85C80
:10223000FA4FAC01BD014D7F21E030E0452B462B2C
:10224000472B11F030E020E033A322A324E4289DA3
:10225000F001299DF00D1124E85CFA4F0197A109C6
:10226000B10921E030E00297A105B10510F030E09E
:1022700020E035A324A3D701A25ABA4FF80134961F
:1022800084E001900D928A95E1F784E4889DF00145
:10229000899DF00D1124E85CFA4F868D978DA0A1E1
:1022A000B1A1B7FF58C0B095A095909581959F4F6B
:1022B000AF4FBF4F82AF93AFA4AFB5AF168E178E9F
:1022C00010A211A280E06A960FB6F894DEBF0FBE8E
:1022D000CDBFDF91CF911F910F91FF90EF90DF90D5
:1022E000CF90BF90AF909F908F907F906F905F90B6
:1022F0004F903F902F900895E98DFA8D80819181C4
:102300009C01220D331D3A8B298B80E1F801DE01FF
:10231000119601900D928A95E1F7005F1F4F498950
:102320005A89BE016F5F7F4FED89FE898481958157
:10233000A5DAEB89FC8980819181E989FA8922817A
:102340003381820F931FEB89FC8991838083F4E0B2
:102350002F0E311C43CF12AE13AE14AE15AEB2CF5A
:10236000C501B40120DA81E0AECFCF92DF92EF92C7
:10237000FF92CF93DF931092C00524E4269FF001D3
:10238000279FF00D1124E85CFA4F15A614A630E043
:1023900020E0D12CC12CDF011A96C1E0D0E0C41698
:1023A000D506F4F024E4269FF001279FF00D1124B8
:1023B000E85CFA4F13A612A611AE10AEDF01DE964E
:1023C0001D921D921D921C92139782E090E0938BB8
:1023D000828BDF91CF91FF90EF90DF90CF900895A7
:1023E000ED91FC911197E20FF31FE280F3801E1430
:1023F0001F0454F4E480F580F782E682F186E086DB
:1024000013861286D183C083EFEFCE1ADE0A225FD5
:102410003F4FC5CF24E4269FF001279FF00D1124E4
:10242000E85CFA4F138A128A4CCB24E4269FF00111
:10243000279FF00D1124E85CFA4F8289938981303F
:102440009105C8F08530910518F0059769F0089559
:102450008FEF9FEFDC01828F938FA48FB58F85E084
:1024600090E0938B828B08958FEF9FEFDC01828F3A
:10247000938FA48FB58F089524E4249FD001259FC6
:10248000B00D1124A85CBA4F2EE0AC01249FC0010E
:10249000259F900D11241A96ED91FC91E80FF91FDC
:1024A00081E08093C00582859385918780874085F0
:1024B00051852681378181E090E04217530711F062
:1024C00090E080E09183808308952F923F924F9215
:1024D0005F926F927F928F929F92AF92BF92CF92B4
:1024E000DF92EF92FF920F931F93CF93DF93CDB7BD
:1024F000DEB7C055D1090FB6F894DEBF0FBECDBF11
:102500009EAF8DAF4BA75CA76DA77EA76801790131
:1025100084E4809FF001819FF00D1124E85CFA4F64
:102520002285338523963FAF2EAF239782899389E7
:10253000029761F486A597A5A0A9B1A9892B8A2B3A
:102540008B2BC9F584E090E0938B828B84E48C9D87
:10255000F0018D9DF00D1124E85CFA4F828993897A
:102560008230910509F037C282AD93ADA4ADB5AD0F
:1025700022242394312C181619061A061B060CF473
:102580002FC2C05BDF4F0FB6F894DEBF0FBECDBFCA
:10259000DF91CF911F910F91FF90EF90DF90CF903F
:1025A000BF90AF909F908F907F906F905F904F9073
:1025B0003F902F900895848995894DAD5EAD841725
:1025C000950721F606A917A918AE1FAA1BAA1CAACF
:1025D0001DAA1EAA1F01CF018E9627969FAF8EAF10
:1025E0002797DF01D2962996BFAFAEAF2997F8960D
:1025F0002B96FFAFEEAF2B9791012A5D3F4F2D96A3
:102600003FAF2EAF2D97A1014E5D5F4F2F965FAF6D
:102610004EAF2F970A9761969FAF8EAF619727961F
:10262000EEADFFAD279780819181A281B3812BA967
:102630003CA94DA95EA9281739074A075B0744F052
:1026400081E090E0D101D9969C938E93D8977ECF6C
:102650002996AEADBFAD2997ED91FC912FA938AD6C
:10266000E20FF31F428153815AAF49AF50815FAFF0
:10267000818121968FAF21972B96AEADBFAD2B9761
:102680008D919C91892B21F12D96EEADFFAD2D976B
:1026900080809180A280B3801AAB09AB5FA721969E
:1026A000FFAD2197F8AB29AD3AAD36952795369514
:1026B000279525963FAF2EAF25971CAE1BAE2596CE
:1026C000AEADBFAD2597EBADFCADEA17FB070CF146
:1026D00049AD5AAD6FAD21967FAD2197C8010E94DB
:1026E000C93189AD9AAD8C7F080F191F2BA93CA960
:1026F0004DA95EA92F5F3F4F4F4F5F4F2BAB3CABB8
:102700004DAB5EAB4FA958AD4C5F5F4F58AF4FAB71
:1027100086CF2F96AEADBFAD2F978D919C91892B13
:1027200071F1EFA5F8A94080518062807380A30108
:102730009201C501B4010E94BE26181664F0A9A931
:10274000BAA92D913D914D915C91C501B4010E94B2
:10275000A5271816BCF1A3019201C501B4010E947E
:10276000BE2687FF0CC0E9A9FAA9208131814281E8
:102770005381C501B4010E94BE26882319F16196D8
:10278000AEADBFAD61978D919C91892B09F445C089
:10279000EFA5F8A94080518062807380A301920167
:1027A000C501B4010E94A52718161CF5A9A9BAA94C
:1027B0002D913D914D915C91C501B4010E94BE26C1
:1027C00018165CF184E48C9DF0018D9DF00D1124B0
:1027D000E85CFA4F868D978DA0A1B1A1892B8A2B39
:1027E0008B2B69F183E090E0938B828B81E090E00A
:1027F0002CC0A3019201C501B4010E94BE26811123
:102800000CC0E9A9FAA92081318142815381C50117
:10281000B4010E94BE2687FDD5CF2BAD3CAD2F5F06
:102820003F4F3CAF2BAF49A95AA94C5F5F4F5AAB02
:1028300049AB8FA598A9049698AB8FA740CF84E0A9
:1028400090E0938B828B86AD97AD93A782A77ECEC7
:10285000EBADFCAD80819181F401EE0FFF1FEE0F17
:10286000FF1FE80FF91FA081B1818C9181110AC06F
:10287000FFEF8F1A9F0AAF0ABF0A8DA29EA2AFA2D6
:10288000B8A68FC18330A1F30280F381E02D2FA978
:1028900038ADE20FF31F808191819AAB89AB892B10
:1028A00039F34F5F5F4F6F4F7F4F49875A876B8771
:1028B0007C879E01235E3F4FAE01475D5F4F64E022
:1028C00070E0C8010E94660B8111D0C18D819E818C
:1028D000AF81B8850496A11DB11D8D839E83AF8302
:1028E000B8874D8D5E8DBE016B5D7F4F8F8D98A13A
:1028F0000E94C9318BA19CA1009761F06D8D7E8DE6
:10290000A5E2B0E0AC0FBD1F6A0F7B1F49A15AA121
:102910000E94C9311CAA1BAA412C512C3201E9A9E1
:10292000FAA980819181A281B381481659066A066D
:102930007B060CF09DCFE9A9FAA9848195812BA98A
:102940003CA9280F391F38AB2FA7D90112966D91DA
:102950007C919E01235E3F4FAE01475D5F4FC801F2
:102960000E94660B811182C1EFA5F8A98281938133
:10297000092E000CAA0BBB0B4D815E816F817885FF
:10298000840F951FA61FB71F8D839E83AF83B887C3
:10299000608171814D8D5E8D8F8D98A10E94C931AE
:1029A0008BA19CA1009761F0AFA5B8A96D917C9116
:1029B0002D8D3E8D620F731F49A15AA10E94C9310E
:1029C000BFEF4B1A5B0A6B0A7B0AEBA9FCA9349692
:1029D000FCABEBABA4CF312C212C049709F0D1CD6B
:1029E0008EE0EDADFEAD8E9F80018F9F100D112406
:1029F00023962EAD3FAD2397020F131FD8011296D9
:102A00004D915C9113974115510509F4BACD169675
:102A10008D919C919AA789A780E1FE013196DF01F3
:102A20001D928A95E9F7C98ADA8AEB8AFC8A211411
:102A3000310409F458C084E48C9DF0018D9DF00DA3
:102A40001124E85CFA4FDF01DE968D909D90AD90E9
:102A5000BC9082AD93ADA4ADB5AD88169906AA061B
:102A6000BB0609F040C0F801848195810084F1859E
:102A7000E02D349624E0DE01559601900D922A95C2
:102A8000E1F72D893E89285F3F4F3E8B2D8BD80182
:102A900018966D917C911997260F371F19963C93C4
:102AA0002E93189718962D913C911997480F591FFE
:102AB000241B350B37FD06C0820F931F19969C937C
:102AC0008E93189784E48C9DF0018D9DF00D112458
:102AD000EA58FA4FB1E08B1A9108A108B108808238
:102AE0009182A282B3829E012B5E3F4FAE01475D71
:102AF0005F4F64E170E0C8010E94660B8111B6C0AF
:102B00008CE090E0A0E0B0E08D839E83AF83B88737
:102B10009E01235E3F4FAE01475D5F4F64E070E072
:102B2000C8010E94660B8111A1C080E190E0A0E085
:102B3000B0E08D839E83AF83B8874D8D5E8DBE01DF
:102B4000655D7F4F8F8D98A10E94C9318BA19CA19B
:102B5000009761F06D8D7E8DEBE2F0E0EC0FFD1FD4
:102B60006E0F7F1F49A15AA10E94C9311DA21EA24A
:102B70001FA218A62DAD3EAD220F331F38AF2FABCD
:102B800024E42C9DC0012D9D900D1124885C9A4F4A
:102B9000AC014C5F5F4F5AAF49AFDC011896BCAF38
:102BA000ABAF8DA09EA0AFA0B8A449855A856B8518
:102BB0007C85E9ADFAAD80819181A281B3818816CF
:102BC0009906AA06BB060CF443CE452B462B472B91
:102BD00009F4D7CC8AE190E0A0E0B0E089839A8341
:102BE000AB83BC832DAD3EADC901330FAA0BBB0B2C
:102BF0008D879E87AF87B88B4D895E89BE016F5FD9
:102C00007F4F8F89988D0E94C9318B8D9C8D009745
:102C100061F06D897E8941E050E04C0F5D1F640FCB
:102C2000751F498D5A8D0E94C93189A59AA5D80171
:102C300017969C938E93169711961C921E9223289A
:102C400009F49FCC84E48C9DF0018D9DF00D11243E
:102C5000EA58FA4F80819181A281B3810196A11D2A
:102C6000B11D80839183A283B3838BCC232809F089
:102C700088CC84E48C9DF0018D9DF00D1124E85CDE
:102C8000FA4F81E090E095A784A785E090E0938BD0
:102C9000828B77CCCF92DF92EF92FF920F931F93AC
:102CA00024E4269FF001279FF00D1124E85CFA4FE1
:102CB000228933892115310509F452C06B017C0149
:102CC00021303105B1F482A593A59C012F5F3F4FC0
:102CD00033A722A7092E000CAA0BBB0B028D138D64
:102CE000248D358D80179107A207B307C9F5C70159
:102CF0003CDB84E48C9DF0018D9DF00D1124E85C9B
:102D0000FA4F82899389039759F582A593A59C016F
:102D10002F5F3F4F33A722A7092E000CAA0BBB0B36
:102D2000468D578D60A171A184179507A607B70737
:102D3000BCF086AD97AD93A782A784E090E0938B1B
:102D4000828B82AD93ADA4ADB5AD181619061A06E7
:102D50001B0634F4EE5BFF4F81E090E091838083AB
:102D60001F910F91FF90EF90DF90CF90089524E492
:102D7000269FF001279FF00D1124E85CFA4F82890D
:102D800093890497B1F482A593A5019693A782A78E
:102D9000092E000CAA0BBB0B46895789608D718DDB
:102DA00084179507A607B70721F485E090E0938B79
:102DB000828B08952F923F924F925F926F927F92F3
:102DC0008F929F92AF92BF92CF92DF92EF92FF923B
:102DD0000F931F93CF93DF93CDB7DEB72E970FB628
:102DE000F894DEBF0FBECDBFDC0149835A836B83ED
:102DF0007C83290184E4849FF001859FF00D1124D8
:102E0000E85CFA4F22883388C1010497029708F0E2
:102E1000D5C011961C921E9213961C921E92129768
:102E200015861486912C812C90E080E08F019F0103
:102E3000205F3F4F38872F833F013CE0630E711CBA
:102E4000BF01625F7F4F7A8769873A96FC87EB877D
:102E5000EF81F88520813181F30140815181E9853D
:102E6000FA85A080B180841595050CF445C01196B3
:102E70005C934E9313963C932E9312971596BC92A7
:102E8000AE921497452BF9F4F5E02F163104D9F4DE
:102E90001092C005F801828D938DA48DB58DAE0181
:102EA0004F5F5F4F64E070E08F3F9F4FAF4FBF4F6A
:102EB00009F079C080E290E0F4D569817A818B8154
:102EC0009C81A201A7DA2E960FB6F894DEBF0FBE42
:102ED000CDBFDF91CF911F910F91FF90EF90DF90C9
:102EE000CF90BF90AF909F908F907F906F905F90AA
:102EF0004F903F902F900895EB85FC856081718104
:102F0000FB01E80DF91DFE87ED8760817181672B5C
:102F100089F5E084F184628173817E836D836681AB
:102F200077816A01E3E0CC0CDD1CEA95E1F72C0D1A
:102F30003D1D440F551F4A0D5B1DFA01918380838F
:102F4000F301408151814F5F5F4F51834083F9010D
:102F5000F382E282ED85FE8573876287E616F706C7
:102F600070F46E197F09F9017183608315821482F0
:102F7000178216820196FEE08F0E911C69CFED85B7
:102F8000FE85C480D5804D815E814C0D5D1D4E193E
:102F90005F09F901518340836C197D09758364834E
:102FA000D782C682E7CF8FE190E07BD5F80113A6E8
:102FB00012A681E090E0938B828B85CF15861486D4
:102FC00011961C921E9213961C921E9212977BCF02
:102FD000EF92FF920F931F93CF93DF937C018B01AE
:102FE000EA013BD681111EC08091D1039091D2039A
:102FF000049711F5DF91CF911F910F91FF90EF9002
:10300000089528ED38EB45E050E060E070E0CB013A
:103010000E94E420AE01B801C7010E94F220C8015D
:103020000E94BD208091C1059091C205892BE1F6D7
:103030008881882331F3D8CF83E090E09093D20346
:103040008093D103D7CFCF93DF932091D1033091D9
:10305000D2032430310541F0EB010E94F220CE0171
:10306000DF91CF910C94BD20DF91CF9108950C9406
:10307000F0240C94E5240C94D3240C94CD200C94CF
:103080007724089570E060E090E080E0C1C5089585
:10309000AF92BF92CF92DF92EF92FF920F931F9366
:1030A000CF93DF931F921F92CDB7DEB75C018B01E8
:1030B00069017A0190E080E0C114D104E104F104D7
:1030C00069F40F900F90DF91CF911F910F91FF90B6
:1030D000EF90DF90CF90BF90AF9008959C2D8D2DF5
:1030E000C114D10421E0E206F10410F09FEF8FEF4C
:1030F0009E012F5F3F4F492F582FB801C5010E94F5
:103100007A258F3F9807E9F229813A81C21AD30ABA
:10311000E108F108020F131FCFCF2091C3053091B2
:10312000C4058091C5059091C6052817390789F017
:103130008091CB059091CC0501969093CC0580931E
:10314000CB0582E00E94892C9093C6058093C5052B
:1031500008958091CB059091CC050197EECF2091F9
:10316000C7053091C8058091C9059091CA052817F7
:10317000390789F08091CD059091CE050196909305
:10318000CE058093CD0582E10E94892C9093CA05DB
:103190008093C90508958091CD059091CE05019742
:1031A000EECF83E00E94892C9093C4058093C305E1
:1031B0002091C5053091C6058217930751F0809183
:1031C000CB059091CC0501969093CC058093CB05CF
:1031D00008958091CB059091CC050197F5CF83E1BF
:1031E0000E94892C9093C8058093C7052091C9053A
:1031F0003091CA058217930751F08091CD059091C7
:10320000CE0501969093CE058093CD0508958091CB
:10321000CD059091CE050197F5CFEF92FF920F93D8
:103220001F93CF93DF937C018B01EA01F90120E02A
:1032300030E040E85FE360817181828193810E9488
:10324000BE26811115C0F7018081882321F01092DC
:10325000CC051092CB058091CB059091CC05F8015F
:10326000918380838091CD059091CE059983888349
:10327000DF91CF911F910F91FF90EF900895CF9321
:10328000DF93E90120E030E040E85FE36881798185
:103290008A819B810E94BE268823A1F162E082E0A0
:1032A0000E94202C62E083E00E94202C60E082E1FA
:1032B0000E94202C60E083E10E94202C41E050E03D
:1032C0006DE878E180E00E940D2841E050E061ED7A
:1032D00078E181E00E940D2841E050E06FEA78E15A
:1032E00085E00E940D2841E050E06FEE78E184E037
:1032F0000E940D2880E090E0A0E8BFE388839983D6
:10330000AA83BB83DF91CF91089540E05BE460E046
:1033100070E090E080E000C08130910579F01CF40D
:10332000892B39F008958230910561F0039771F08F
:10333000089526E084E096E00C947B2D26E081EA57
:1033400096E0FACF26E08EE397E0F6CF26E08BED0D
:1033500097E0F2CF1F920F920FB60F9211240BB687
:103360000F922F933F934F935F936F937F938F931E
:103370009F93AF93BF93EF93FF9386E09FEF90935C
:103380002501809324010E94B425FF91EF91BF9104
:10339000AF919F918F917F916F915F914F913F91ED
:1033A0002F910F900BBE0F900FBE0F901F9018958E
:1033B00086E09FEF9093250180932401A3E7B0E07E
:1033C0008C918E7F8C93E0E2F1E080818C7F808312
:1033D000E1E2F1E08081877E808380818360808369
:1033E00080818B7F80838C9181608C93089581E0B4
:1033F00008958F929F92AF92BF92CF92DF92EF92F9
:10340000FF920F931F93CF93DF935C017B018A019F
:10341000C1E0D0E0CE15DF05CCF081E0F50180837E
:10342000B801C7010E941A25F5019283818390E0BB
:1034300080E0DF91CF911F910F91FF90EF90DF908F
:10344000CF90BF90AF909F908F9008956E018FEFB7
:10345000C81AD80AFE01EE0FFF1FE00FF11F80808F
:1034600091808114910469F06CE774E0C4010E94BA
:10347000D931892B41F4CC0FDD1FC00FD11F198228
:103480001882E601C7CF6FE774E0C4010E94D9310A
:10349000892BB9F7EC14FD04A1F36E01E2E0CE0E26
:1034A000D11CCC0FDD1FC00FD11F198218821B82C7
:1034B0001A82E7CF8FEC95E0089580E008950F938E
:1034C0001F93CF93DF938B01BA01E9011982188210
:1034D0009801012E000C440B550BFC018181928157
:1034E000D7DD019641F01983088380E0DF91CF9109
:1034F0001F910F91089581E0F9CF0F931F93CF9300
:10350000DF931F921F92CDB7DEB7FB018A01B9018D
:103510009E012F5F3F4FAF01FC01818192810E948C
:103520002F25019669F089819A81F8019183808322
:1035300080E00F900F90DF91CF911F910F91089530
:1035400081E0F7CFFC01808108950895089581E01E
:10355000FB01808380E0089508951092F705089597
:10356000FC01818192810C941225CF93DF9300D0CE
:1035700000D000D01F92CDB7DEB7B0E0A0E08983C5
:103580009A83AB83BC83CB01770FAA0BBB0B8D83D4
:103590009E83AF83B8879E01275F3F4FAE014F5F89
:1035A0005F4F68E070E08091E6059091E70587DF66
:1035B000811110C081E029853A852830310509F450
:1035C00080E02A960FB6F894DEBF0FBECDBFDF9124
:1035D000CF91089581E0F5CF0F931F93CF93DF93A1
:1035E0001F921F92CDB7DEB78B019E012F5F3F4F19
:1035F000AC018091E6059091E70561DF81110EC075
:1036000081E029813A812017310709F480E00F9089
:103610000F90DF91CF911F910F91089581E0F7CF27
:10362000CF93DF93EC011092EA051092E905109216
:10363000F6051092F505AC0160E070E0CB010E9448
:103640000A12AE0161E070E080E090E00E940A1290
:103650008091E6059091E705DF91CF917DCF4F9264
:103660005F926F927F928F929F92AF92BF92CF9212
:10367000DF92EF92FF920F931F93CF93DF931F92EE
:103680001F92CDB7DEB78C017C0197FF03C087E0A6
:10369000E80EF11C23E0F594E7942A95E1F7C801C0
:1036A00068E070E00E9439306C010E5F1F4F80911E
:1036B000E4059091E50580179107D4F48091E20527
:1036C0009091E305009731F00E9440311092E5059A
:1036D0001092E405C8010E94A4309093E305809302
:1036E000E205892B09F482C01093E5050093E405F7
:1036F00010E000E047C1412C512C3201B12CA12C2B
:10370000950125513A4FAE014F5F5F4F61E070E088
:103710008091E6059091E705F0DE811149C0EFEF59
:103720004E1A5E0A6E0A7E0AF0E94F16FFE55F0642
:10373000F1E06F06710444F06091F5057091F605B3
:103740008DEE90E012DFD7CF89819A81A80EB91E45
:103750008AE0A816B10409F043C049E050E070E0E7
:1037600060E08BEE95E00E94A6256091F5057091D2
:10377000F605882391F18091F30590E0861797076D
:1037800081F4BC018EEE90E0F0DE8091F505909121
:10379000F605019699279093F6058093F5050F5F3E
:1037A0001F4F0E151F050CF4A6CFCD2809F07CC0C5
:1037B00090E080E00F900F90DF91CF911F910F91DB
:1037C000FF90EF90DF90CF90BF90AF909F908F9041
:1037D0007F906F905F904F9008958FEE90E0B2CF02
:1037E000EAE0AE16B1040CF48BCFDBCF10E000E0C2
:1037F000D8CF0A30110531F549E050E070E060E0C3
:103800008BEE95E00E94A6256091F5057091F60576
:103810008823A9F08091F30590E08617970741F679
:10382000BC018EEE90E0A1DE8091F5059091F60549
:10383000019699279093F6058093F505B9CF8FEE01
:1038400090E02BC00A3011050CF0B2CF9801255141
:103850003A4FAE014F5F5F4F61E070E08091E60547
:103860009091E7054ADE8111A3CF89819A81080FE3
:10387000191FFFEFCF1ADF0AEF0AFF0A80E9C81607
:103880008FE5D80681E0E806F1040CF4B2CF609130
:10389000F5057091F6058DEE90E067DE10E000E032
:1038A000C12CD12C7601D2CFC12CD12C760110E0C5
:1038B00000E0CCCF412C512C3201B12CA12C48017D
:1038C00093E0880C991C9A95E1F72091E2053091DC
:1038D000E305C501880D991D280F391FAE014F5F03
:1038E0005F4F61E070E08091E6059091E70505DEAD
:1038F00081115ECFEFEF4E1A5E0A6E0A7E0A60916A
:10390000F5057091F6058DEE90E0F0E94F16FFE5B4
:103910005F06F1E06F0671040CF043C089819A8163
:10392000A80EB91E8AE0A816B10409F041C049E00A
:1039300050E0B4018091E2059091E3050E94A62534
:103940006091F5057091F605882349F18091E205B3
:103950009091E305880E991EF401808590E086170A
:10396000970781F4BC018EEE90E0FFDD8091F505B4
:103970009091F605019699279093F6058093F505A9
:103980000F5F1F4F0E151F050CF494CFC114D10407
:1039900009F081C08091E2059091E3050BCF8FEE95
:1039A00090E0E3DD412C512C3201B12CA12C8DCFC4
:1039B000FAE0AF16B1040CF488CFE4CF8FEE90E0BC
:1039C000D4DDF12CE12C812C912C5401970125514F
:1039D0003A4FAE014F5F5F4F61E070E08091E605C6
:1039E0009091E7058ADD8111E3CE8FEF881A980A5E
:1039F000A80AB80A6091F5057091F6058DEE90E081
:103A0000E0E98E16EFE59E06E1E0AE06B104C4F6ED
:103A100089819A81E80EF91EFAE0EF16F104A9F502
:103A200049E050E070E060E08BEE95E00E94A62552
:103A30006091F5057091F605882309F4BFCF809158
:103A4000F30590E08617970709F0A4CFBC018EEE2E
:103A500090E08BDD83E0000F111F8A95E1F78091E4
:103A6000E2059091E305A6016BEE75E0800F911FD2
:103A70000E94C9318091F5059091F605019699272C
:103A80009093F6058093F50585CF8AE0E816F1045A
:103A90000CF49CCF7FCF812C912C5401F12CE12C84
:103AA00095CFCF92DF92EF92FF920F931F93CF9318
:103AB000DF931F92CDB7DEB76C017B018A01452BE6
:103AC00039F0AB0170E060E0C8010E94A225898353
:103AD000B701C6014ADD81110DC00115110551F074
:103AE000B701C80179DD811105C061E070E0CE0148
:103AF000019672DD0F90DF91CF911F910F91FF9092
:103B0000EF90DF90CF900895CF92DF92EF92FF92E7
:103B1000CF93DF9300D000D01F921F92CDB7DEB7B6
:103B20006B01F12CE12CC982DA82EB82FC822D83BD
:103B30003E834F835887AE014F5F5F4F68E070E070
:103B4000B0DF28960FB6F894DEBF0FBECDBFDF9171
:103B5000CF91FF90EF90DF90CF9008958F929F923A
:103B6000AF92BF92CF92DF92EF92FF920F931F938B
:103B7000CF93DF937C01EB01CA01690170DD0097EF
:103B8000B1F42FEF3FEFA90161E070E0C701BCDFA6
:103B9000C1E08C2FDF91CF911F910F91FF90EF909B
:103BA000DF90CF90BF90AF909F908F900895FC01D1
:103BB00081909190A190B190BF01FCE1EF16F104CA
:103BC00079F4A5019401CE010E947010C82FA501BF
:103BD0009401882369F061E070E0C70195DFD9CFD7
:103BE00095018401AB01B601CE010E94730EEECFA8
:103BF00070E060E0C701DF91CF911F910F91FF90BE
:103C0000EF90DF90CF90BF90AF909F908F907CCF40
:103C10000F931F93CF93DF93EC018B014BDC9093B9
:103C2000E7058093E6050097A9F0A801BE01E1DB56
:103C3000EC01892B49F08091E6059091E70585DC40
:103C40001092E7051092E605CE01DF91CF911F910A
:103C50000F910895CBE8D4E0EECF8091E6059091E6
:103C6000E70570CC2F923F924F925F926F927F92B6
:103C70008F929F92AF92BF92CF92DF92EF92FF927C
:103C80000F931F93CF93DF93CDB7DEB769970FB62E
:103C9000F894DEBF0FBECDBF2091EA052223F1F0DC
:103CA0005B8B4A8B6E877F87888B998B9A01AB01E0
:103CB000BC01CE0101967C017DD810E048E0242EA5
:103CC000312CE88EF98E89819A81181619060CF428
:103CD00051C2112319F08A899B89A2DC69960FB61B
:103CE000F894DEBF0FBECDBFDF91CF911F910F9132
:103CF000FF90EF90DF90CF90BF90AF909F908F900C
:103D00007F906F905F904F903F902F900895EB8140
:103D1000FC818C859D8533E0880F991F3A95E1F7EA
:103D2000E80FF91F808191819093E1058093E00570
:103D300024813581428153815093DF054093DE0514
:103D4000468157815093DD054093DC05820F931F18
:103D50009C01990F440B550B2C8B3D8B4E8B5F8B2D
:103D6000812C912C54018C899D89AE89BF8988163C
:103D70009906AA06BB0640F18C859D85880F991F80
:103D8000ED81FE81E80FF91F4E855F85688979898D
:103D9000808191810E943C12AC85BD851196BD87C2
:103DA000AC8789819A81EC85FD85E817F9070CF4C9
:103DB000AECF2A893B894E855F8568897989888D50
:103DC000998D0E94DA167FCF1F826091E005709175
:103DD000E105CB01072E000CAA0BBB0B840175017A
:103DE000640134E0C30ED11CE11CF11CC816D906D5
:103DF000EA06FB0608F0B3C02091DE053091DF052E
:103E0000A4014C5F5F4F240F351FF901C080D12CF6
:103E1000F12CE12C24013501F5E04F0E511C611C01
:103E2000711C481659066A067B0608F0A3C020914B
:103E3000DE053091DF05F8013596E20FF31F208192
:103E4000D22A2401350126E0420E511C611C711C4E
:103E5000481659066A067B0608F097C02091DE05D1
:103E60003091DF05F8013696E20FF31F2081E22A38
:103E70002401350137E0430E511C611C711C4816AA
:103E800059066A067B0608F08BC02091DE0530914A
:103E9000DF05F8013796E20FF31F20812601370175
:103EA000722A7501640148E0C40ED11CE11CF11CAA
:103EB0008C159D05AE05BF0508F41DC18816990631
:103EC000AA06BB0608F077C08091DE059091DF0559
:103ED000800F911F68E070E07FDBE091E005F091DA
:103EE000E1059F010F2E000C440B550BD301C201BD
:103EF0008C0D9D1DAE1DBF1D281739074A075B0796
:103F000008F478C0C216D306E406F50608F05DC0D2
:103F10008091DE059091DF059801285F3F4F820F69
:103F2000931FB20159DB8091E0059091E105AC014E
:103F3000092E000C660B770BC416D506E606F706AD
:103F400008F04DC0085F1F4F8091DE059091DF059E
:103F5000800F911FA20170E060E0F4D5A7C044E09B
:103F600050E0461B570B480D591D2091DC05309140
:103F7000DD0549CFE5E0F0E0E61BF70BE00FF11FB0
:103F80002091DC053091DD0558CFE6E0F0E0E61B3E
:103F9000F70BE00FF11F2091DC053091DD0564CFB8
:103FA000E7E0F0E0E61BF70BE00FF11F2091DC05E6
:103FB0003091DD0570CF9801261B370B8091DC0511
:103FC0009091DD05820F931F85CF91012E1B3F0B32
:103FD000200F311F8091DC059091DD05A0CFD1012C
:103FE000A81BB90BCD01080F191F8091DC0590911A
:103FF000DD05AECFBF0168507109601B710BC216A1
:10400000D306E406F50608F062C08091DE059091C3
:10401000DF059801285F3F4F820F931FDDDA809103
:10402000E0059091E105B101681B790B600F711FEC
:10403000640D751D8091DC059091DD05CDDA8091D0
:10404000E0059091E105AC0148505109FA01E01BEF
:10405000F10BAC01092E000C660B770BC416D506CC
:10406000E606F70608F03DC08091DE059091DF0579
:104070009801285F3F4F820F931FAF0170E060E00F
:1040800061D58F832091E0053091E105F101E21BBC
:10409000F30B9F01200F311F240D351D50E040E030
:1040A000682F8091DC059091DD0538D58F8361E024
:1040B00070E0CE01079690DA182F38E0430E511CBD
:1040C000611C711C840C951CA61CB71C4CCE910164
:1040D0002E1B3F0B200F311F8091DC059091DD05D9
:1040E0009BCF9101281B390B200F311F8091DC05DC
:1040F0009091DD05C0CF88169906AA06BB0668F523
:10410000601B710B8091DE059091DF05800F911F80
:1041100063DA8091E0059091E105B101681B790BAC
:10412000600F711F640D751D8091DC059091DD0598
:1041300053DA8091E0059091E105AC01092E000C65
:10414000660B770BC416D506E606F70608F4FACE1A
:104150009101281B390BC90146CFC801861B970B5B
:104160002091DC053091DD05B201685F7F4F820F41
:10417000931FDECF1D861C8614CECF93DF93EC01F8
:10418000AC0160E070E0CB016DDDAE0161E070E09C
:1041900080E090E0DF91CF9165CDCF938091E605EF
:1041A0009091E7058AD9C82F81110BC060E070E0BB
:1041B000CB010E94350D61E070E080E090E00E944C
:1041C000350D8C2FCF9108950F931F9389019A017C
:1041D000AB01BC018091E6059091E705B7D91F912D
:1041E0000F9108954F925F926F927F928F929F925C
:1041F000AF92BF92CF92DF92EF92FF920F931F93F5
:10420000CF93DF93CDB7DEB763970FB6F894DEBFD9
:104210000FBECDBF6C018B015A018091EA05882346
:1042200009F43DC08091EA05882309F442C08091D9
:10423000E9051A821982882309F4C0C0F0E94F2EDB
:10424000FFE55F2E66246394712CF12CE12C97011D
:104250002E523A4FAE014F5F5F4F61E070E08091A8
:10426000E6059091E70549D9982E811169C08981A9
:104270009A81E80EF91EE114F10409F461C081E0AD
:10428000481A51086108710859F56091F505709157
:10429000F6058DEE90E069D91A82198251C06AEE56
:1042A00075E08091E6059091E70551D9882309F4DE
:1042B000B9CF63960FB6F894DEBF0FBECDBFDF91C6
:1042C000CF911F910F91FF90EF90DF90CF90BF9013
:1042D000AF909F908F907F906F905F904F900895D8
:1042E000AAE0EA16F10409F063C049E050E070E08A
:1042F00060E082ED95E02AD46091F5057091F605B5
:10430000882309F452C08091DA0590E08617970758
:1043100019F6BC018EEE90E028D988E0E2EDF5E0D8
:10432000DE01199601900D928A95E1F78091F505CD
:104330009091F605019699279093F6058093F505DF
:1043400081E029813A81121613060CF080E0911069
:10435000CAC2882309F4ADCF8091E905811104C058
:1043600019861A861B861C8689859A85AB85BC852D
:1043700080319105A105B10508F09BCFFC0188278C
:10438000EB53FE4D8F4F0C946E3045220424732462
:10439000592149237C2335223D22192258244724C0
:1043A000542459215921592104228FEE90E073CFD2
:1043B000BAE0EB16F1040CF44ACFC2CFF12CE12C99
:1043C000E8E06E2E712C29E030E02C0F3D1F2E0D01
:1043D0003F1DAE014F5F5F4FB3016E197F098091A2
:1043E000E6059091E70589D8982E29813A818111B7
:1043F00009C0E20EF31EE114F10421F0E8E0EE162C
:10440000F1040CF381E09FCFD6011696ED91FC915B
:1044100080819181A281B38189839A83AB83BC839C
:10442000AE014F5F5F4F64E070E085E190E039DB03
:1044300040CF8D859E8513D92FEF3FEFA90161E015
:1044400070E0009771F0FC01C080D180E280F380C1
:10445000A801C701B6010E94B511A701960170E03D
:1044600060E08DE190E050DB24CF4D855E859801C2
:10447000B6018BE190E072DB1CCF4D855E852FEF9E
:104480003FEFB6018CE190E0F6CFD6011496ED91A6
:10449000FC9100811181F80182809380A080B1801D
:1044A00070E1472E512C612C712C49825A826B820B
:1044B0007C8288E090E0A0E0B0E08D839E83AF83B3
:1044C000B8879E012F5E3F4FAE014F5F5F4F68E0A0
:1044D00070E08091E6059091E7050E945F1A8823BD
:1044E000D9F010E000E0C80163960FB6F894DEBF83
:1044F0000FBECDBFDF91CF911F910F91FF90EF9035
:10450000DF90CF90BF90AF909F908F907F906F90F3
:104510005F904F900C94403189899A89089709F7E8
:10452000D801ED90FC90B8E0EB0EF11CEE0CFF1CF6
:10453000EE0CFF1CC7010E94A4308C01892B89F26C
:1045400049825A826B827C82C7010F2C000CAA0B15
:10455000BB0B8D839E83AF83B8879E012F5E3F4F39
:10456000AE014F5F5F4F68E070E08091E60590918B
:10457000E7050E945F1A8111B6CF89899A89089749
:1045800009F0B1CFD6011296ED91FC914081518195
:1045900062817381D8014D935D936D937C931397E2
:1045A000448155816681778114964D935D936D9317
:1045B0007C931797408551856285738518964D9336
:1045C0005D936D937C931B9784859585A685B785B0
:1045D000F80184879587A687B787108A118A128A7F
:1045E000138A84E090E0A0E0B0E0848B958BA68BEA
:1045F000B78B8091D1039091D203B0E0A0E0808F7F
:10460000918FA28FB38FC5010B2C000CAA0BBB0B93
:10461000848F958FA68FB78FF401D801909690E084
:1046200080E08A159B055CF19E012F5E3F4FA8013B
:10463000B7018091E6059091E7050E945F1A81110C
:1046400052CF89899A89E816F90609F04CCFA7015B
:1046500070E060E0C80176D28B8B9E012F5E3F4FE9
:10466000AE014D5E5F4F61E070E08091E605909194
:10467000E7050E945F1A81E08093E90534CF4191FC
:10468000519170E060E04D935D936D937D93019641
:10469000C8CF8D859E85AF85B8890097A105B105E6
:1046A00021F481E08093E80504CE0E942F1B00973F
:1046B00081F481E090E0A0E0B0E089839A83AB834D
:1046C000BC83AE014F5F5F4F64E070E082E190E039
:1046D000AECEBC01C6010E948F0C19821A821B82C9
:1046E0001C82AE014F5F5F4F64E070E082E190E0BA
:1046F000D8D98823B1F2DDCDD6011496ED91FC9185
:104700000190F081E02DE084F1848FEF8983E11442
:10471000F10409F472C0D7016D907C90C280D380FF
:1047200070E060E090E080E08615970594F083E10A
:1047300090E00E94B51A10E000E08111BACD061594
:1047400017055CF161E070E0CE0101960E94EC1A61
:10475000B0CD9C0143E0220F331F4A95E1F7F701EA
:10476000A281B381A20FB31F1296ED91FC91139712
:10477000EE0FFF1FEC0DFD1D0190F081E02D169650
:104780004D915C91E49F9001E59F300DF49F300DB9
:104790001124620F731F0196C7CFD7011296ED91B6
:1047A000FC91C80123E0880F991F2A95E1F7E80FD3
:1047B000F91FA080B180A281B381AA0FBB1FAC0DED
:1047C000BD1D2D913C9186819781289F4001299F95
:1047D000900C389F900C1124B401C5010E94EC1A72
:1047E000582E940150E040E06981C50197D189833A
:1047F00051105FCD0F5F1F4FA2CF70E060E083E1EB
:1048000090E00E94B51A55CD50E040E070E060E0C5
:1048100081E190E046D981114CCD60E070E0CB01A0
:104820000E945A0E8091C005882329F0A80160E0FB
:1048300070E0CB0117DAA80160E070E0CB010E94C4
:10484000610D61E070E080E090E00E945A0E80917E
:10485000C005882331F0A80161E070E080E090E0BD
:1048600001DAA80161E070E080E090E00E94610D53
:104870001092EA051092E9051092F6051092F505DE
:104880008091E6059091E7050E94AD1A12CD81E076
:1048900090E09093C2058093C10550E040E070E045
:1048A00060E086E190E0C3CD81E0F501808301CD39
:1048B0008D859E850E942F1B2FEF3FEFA90161E0A0
:1048C00070E0009769F0DC01CD90DD90ED90FC90F8
:1048D000C701B6010E941512A701960170E060E0C1
:1048E0008EE190E0C0CDC8010E94101BE2CCCF92B7
:1048F000DF92EF92FF92CF93DF93EC01C12CD12C8A
:104900007601C701B6010E945A0EAE01C701B60179
:10491000A9D9AE01C701B6010E94610D8091E205DF
:104920009091E305009731F00E9440311092E30529
:104930001092E205CA94CD28CE28CF2879F580912F
:10494000E905F12C882351F050E040E070E060E090
:1049500084E190E0A6D8F82E1092E9058091EA054E
:10496000882341F01092EA0581E090E09093D20311
:104970008093D1038091E6059091E7050E94B01ADB
:104980008091E6059091E7050E94A51A8F2DDF9191
:10499000CF91FF90EF90DF90CF900895C12CD12C54
:1049A0007601C394AECFCF93DF93EC01AC0160E00E
:1049B00070E0CB010E944A16AE0161E070E080E039
:1049C00090E0DF91CF910C944A1660E070E0CB014B
:1049D0000E94B71661E070E080E090E00C94B7169A
:1049E000CF92DF92EF92FF920F931F93CF93DF93BB
:1049F000EC016A017B0100E010E098010E94651261
:104A000001E010E020E030E0B701A601CE010E94F5
:104A10006512DF91CF911F910F91FF90EF90DF9082
:104A2000CF90089568EE73E080E090E037D590E095
:104A300080E0089526E040E050E16EE070E084E020
:104A400096E00E947B2D84E096E08BD7892B21F0A5
:104A500084E096E0A0D7F7CF90E080E00895CF9271
:104A6000DF92EF92FF920F931F93CF93DF936B012F
:104A70007A01E9011982188284E096E072D7892BC5
:104A800071F18601CC24C39485E6D82E8091F70578
:104A9000811111C084E096E07ED785369105B1F78B
:104AA000C092F705F801D1928F0188819981019612
:104AB00099838883EBCF888199818E159F0578F43F
:104AC00084E096E068D78F3F9807A9F3F8018193B7
:104AD0008F0188819981019699838883ECCF90E03A
:104AE00080E0DF91CF911F910F91FF90EF90DF90C9
:104AF000CF9008950F931F93CF93DF93EA0189011D
:104B000084E096E00E940B30F801D183C08390E0EE
:104B100080E0DF91CF911F910F910895DC01A40FE8
:104B2000B51F420F531F9D01281B390B2417350752
:104B300010F0862F0895ED91E627F0E0EC51FF4F3D
:104B40006491F1CF9A01AB016FEFE8CFCF93FC01F5
:104B5000E60FF71FE40FF51FC081F4DF91E0C813E3
:104B600090E0892FCF9108958091F80591E0980FFA
:104B70009093F805882349F021E030E03093FA055E
:104B80002093F9058093F805089578940E94E20334
:104B9000F8948091F80581508093F8050C943918A9
:104BA000FF920F931F93CF93DF931F92CDB7DEB782
:104BB0001092FA081092F908A7D40E948519009162
:104BC000F8031091F903F8011182108270E060E09F
:104BD00090E080E00E9442180E94B509F894789411
:104BE000C80186960E94411881E090E00E943D181D
:104BF0001982AE014F5F5F4F61E070E0F801828182
:104C000093810E94E8178981882319F081E0F801D7
:104C100082A70E944718F8940E94D819F801808151
:104C20009181892B19F481E092A5911180E0809304
:104C3000F90878947894FF24F3948091F90881110D
:104C400010C00E94CF0A81E090E00E943F18F894C3
:104C500090E080E00F90DF91CF911F910F91FF9036
:104C600008951982AE014F5F5F4F61E070E0F80177
:104C7000828193810E9423188981882311F0F80191
:104C8000F2A6F80180819181892B89F481E092A5B7
:104C9000911101C080E08093FA089091FA0881E0B8
:104CA000911180E08093F9080E94F719C6CF81E046
:104CB000F2CF5058BB27AA270ED00DC1FED030F03E
:104CC00003D120F031F49F3F11F41EF4F3C00EF431
:104CD000E095E7FBE9C0E92F0FD180F3BA1762072F
:104CE00073078407950718F071F49EF527C10EF439
:104CF000E0950B2EBA2FA02D0B01B90190010C01EC
:104D0000CA01A0011124FF27591B99F0593F50F403
:104D1000503E68F11A16F040A22F232F342F44275B
:104D2000585FF3CF469537952795A795F040539553
:104D3000C9F77EF41F16BA0B620B730B840BBAF023
:104D40009150A1F0FF0FBB1F661F771F881FC2F78E
:104D50000EC0BA0F621F731F841F48F487957795A2
:104D60006795B795F7959E3F08F0B3CF9395880F59
:104D700008F09927EE0F97958795089571D008F45C
:104D800081E0089504D06894B111D9C00895BCD0D1
:104D900088F09F5790F0B92F9927B751A0F0D1F024
:104DA000660F771F881F991F1AF0BA95C9F712C0AE
:104DB000B13081F0C3D0B1E00895C0C0672F782F23
:104DC0008827B85F39F0B93FCCF38695779567951A
:104DD000B395D9F73EF490958095709561957F4F86
:104DE0008F4F9F4F0895E89409C097FB3EF490952C
:104DF0008095709561957F4F8F4F9F4F9923A9F0B4
:104E0000F92F96E9BB279395F69587957795679542
:104E1000B795F111F8CFFAF4BB0F11F460FF1BC086
:104E20006F5F7F4F8F4F9F4F16C0882311F096E919
:104E300011C0772321F09EE8872F762F05C06623C7
:104E400071F096E8862F70E060E02AF09A95660F80
:104E5000771F881FDAF7880F9695879597F9089539
:104E6000990F0008550FAA0BE0E8FEEF161617067B
:104E7000E807F907C0F012161306E407F50798F0E3
:104E8000621B730B840B950B39F40A2661F0232BFC
:104E9000242B252B21F408950A2609F4A140A69578
:104EA0008FEF811D811D089597F99F6780E870E05D
:104EB00060E008959FEF80EC089500240A94161690
:104EC000170618060906089500240A9412161306F8
:104ED000140605060895092E0394000C11F4882386
:104EE00052F0BB0F40F4BF2B11F460FF04C06F5FA2
:104EF0007F4F8F4F9F4F089557FD9058440F551F78
:104F000059F05F3F71F04795880F97FB991F61F04B
:104F10009F3F79F087950895121613061406551FC2
:104F2000F2CF4695F1DF08C0161617061806991F2E
:104F3000F1CF86957105610508940895E894BB2723
:104F400066277727CB0197F908958ADF08F48FEF5A
:104F500008950BD0C0CFB1DF28F0B6DF18F095234D
:104F600009F0A2CFA7CF1124EACFC6DFA0F3959F07
:104F7000D1F3950F50E0551F629FF001729FBB2740
:104F8000F00DB11D639FAA27F00DB11DAA1F649FEC
:104F90006627B00DA11D661F829F2227B00DA11D9F
:104FA000621F739FB00DA11D621F839FA00D611D25
:104FB000221F749F3327A00D611D231F849F600D46
:104FC000211D822F762F6A2F11249F5750408AF07F
:104FD000E1F088234AF0EE0FFF1FBB1F661F771F0B
:104FE000881F91505040A9F79E3F510570F05CCF4B
:104FF000A6CF5F3FECF3983EDCF3869577956795F7
:10500000B795F795E7959F5FC1F7FE2B880F911D28
:105010009695879597F908950895883008F076C099
:10502000E82FF0E0EE0FFF1FED52FC4F718360831D
:105030008150873008F03DC0E82FF0E08827EC5D14
:10504000F74D8F4F0C946E3061282B2833283F2862
:105050004C286D287A28809169008C7F482B4093DA
:105060006900E89A089580916900837F440F551F75
:10507000440F551F482B40936900E99A0895809189
:1050800069008F7C74E0440F551F7A95E1F7482B37
:1050900040936900EA9A0895809169008F7366E0F1
:1050A000440F551F6A95E1F7482B40936900EB9A2E
:1050B000089580916A008C7F482B40936A00EC9A97
:1050C000089580916A00837F440F551F440F551F38
:1050D000482B40936A00ED9A089580916A008F7C76
:1050E00024E0440F551F2A95E1F7482B40936A00AE
:1050F000EE9A089580916A008F7396E0440F551FD1
:105100009A95E1F7482B40936A00EF9A08951F9211
:105110000F920FB60F9211240BB60F922F933F935D
:105120004F935F936F937F938F939F93AF93BF93AF
:10513000EF93FF93E091D703F091D8031995FF9176
:10514000EF91BF91AF919F918F917F916F915F91FF
:105150004F913F912F910F900BBE0F900FBE0F906C
:105160001F9018951F920F920FB60F9211240BB635
:105170000F922F933F934F935F936F937F938F93F0
:105180009F93AF93BF93EF93FF93E091D903F09177
:10519000DA031995FF91EF91BF91AF919F918F9194
:1051A0007F916F915F914F913F912F910F900BBE27
:1051B0000F900FBE0F901F9018951F920F920FB671
:1051C0000F9211240BB60F922F933F934F935F933F
:1051D0006F937F938F939F93AF93BF93EF93FF93BF
:1051E000E091DB03F091DC031995FF91EF91BF9102
:1051F000AF919F918F917F916F915F914F913F916F
:105200002F910F900BBE0F900FBE0F901F9018950F
:105210001F920F920FB60F9211240BB60F922F937D
:105220003F934F935F936F937F938F939F93AF932E
:10523000BF93EF93FF93E091DD03F091DE031995A7
:10524000FF91EF91BF91AF919F918F917F916F915E
:105250005F914F913F912F910F900BBE0F900FBE1A
:105260000F901F9018951F920F920FB60F92112456
:105270000BB60F922F933F934F935F936F937F9350
:105280008F939F93AF93BF93EF93FF93E091D303DB
:10529000F091D4031995FF91EF91BF91AF919F9138
:1052A0008F917F916F915F914F913F912F910F90CF
:1052B0000BBE0F900FBE0F901F9018951F920F926C
:1052C0000FB60F9211240BB60F922F933F934F936B
:1052D0005F936F937F938F939F93AF93BF93EF935E
:1052E000FF93E091D503F091D6031995FF91EF91CB
:1052F000BF91AF919F918F917F916F915F914F91EE
:105300003F912F910F900BBE0F900FBE0F901F90EB
:1053100018951F920F920FB60F9211240BB60F9291
:105320002F933F934F935F936F937F938F939F93AD
:10533000AF93BF93EF93FF93E091DF03F091E0030E
:105340001995FF91EF91BF91AF919F918F917F91AF
:105350006F915F914F913F912F910F900BBE0F90E6
:105360000FBE0F901F9018951F920F920FB60F92BD
:1053700011240BB60F922F933F934F935F936F932C
:105380007F938F939F93AF93BF93EF93FF93E0919E
:10539000E103F091E2031995FF91EF91BF91AF9175
:1053A0009F918F917F916F915F914F913F912F913D
:1053B0000F900BBE0F900FBE0F901F9018951F926D
:1053C0000F920FB60F9211242F933F938F939F93B9
:1053D000AF93BF938091FC059091FD05A091FE05D0
:1053E000B091FF053091FB0523E0230F2D3758F5D1
:1053F0000196A11DB11D2093FB058093FC059093A0
:10540000FD05A093FE05B093FF05809100069091E5
:105410000106A0910206B09103060196A11DB11DDF
:105420008093000690930106A0930206B0930306B2
:10543000BF91AF919F918F913F912F910F900FBE90
:105440000F901F90189526E8230F0296A11DB11DFD
:10545000D2CF3FB7F8948091000690910106A091B9
:105460000206B091030626B5A89B05C02F3F19F090
:105470000196A11DB11D3FBFBA2FA92F982F8827D4
:10548000BC01CD01620F711D811D911D42E0660FAF
:10549000771F881F991F4A95D1F708958F929F9281
:1054A000AF92BF92CF92DF92EF92FF926B017C019D
:1054B000D0DF4B015C01C114D104E104F104D9F047
:1054C000D7D5C7DF681979098A099B09683E7340F7
:1054D0008105910580F321E0C21AD108E108F108A5
:1054E00088EE880E83E0981EA11CB11CC114D10463
:1054F000E104F10431F7FF90EF90DF90CF90BF907F
:10550000AF909F908F900895789484B5826084BD09
:1055100084B5816084BD85B5826085BD85B58160B7
:1055200085BDEEE6F0E0808181608083E1E8F0E017
:105530001082808182608083808181608083E0E846
:10554000F0E0808181608083E1EBF0E08081846025
:105550008083E0EBF0E0808181608083E1E9F0E02E
:10556000808182608083808181608083E0E9F0E0D7
:10557000808181608083E1EAF0E0808182608083C5
:10558000808181608083E0EAF0E0808181608083B7
:10559000E1E2F1E0808182608083808181608083AC
:1055A000E0E2F1E0808181608083EAE7F0E08081E1
:1055B0008460808380818260808380818160808339
:1055C0008081806880831092C10008951F93CF93DB
:1055D000DF93182FEB0161E033D1209731F460E0C5
:1055E000812FDF91CF911F9167C1CF3FD10511F47A
:1055F00061E0F6CFE12FF0E0EC51FE4FE491E15095
:10560000E23108F0B2C0F0E08827E75FF44D8F4F39
:1056100065C51B2B232B282B322B3C2BB52B462B64
:105620004E2B562B602B6A2B742B832B8D2BB52B7B
:10563000972BA12BAB2B84B5806884BDC7BDDF91B0
:10564000CF911F91089584B5806284BDC8BDF7CF06
:1056500080918000806880938000D0938900C093FF
:105660008800EDCF80918000806280938000D0938D
:105670008B00C0938A00E3CF809180008860809384
:105680008000D0938D00C0938C00D9CF8091B00062
:1056900080688093B000C093B300D1CF8091B000F8
:1056A00080628093B000C093B400C9CF8091900015
:1056B000806880939000D0939900C0939800BFCFEA
:1056C00080919000806280939000D0939B00C09363
:1056D0009A00B5CF80919000886080939000D0931D
:1056E0009D00C0939C00ABCF8091A0008068809308
:1056F000A0008091A0008F7B8093A000D093A90090
:10570000C093A8009CCF8091A00080628093A000ED
:10571000D093AB00C093AA0092CF8091A000886084
:105720008093A000D093AD00C093AC0088CF80914F
:105730002001806880932001D0932901C093280123
:105740007ECF80912001806280932001D0932B0135
:10575000C0932A0174CF809120018860809320013A
:10576000D0932D01C0932C016ACFC038D1050CF025
:105770003FCF35CF8150823108F059C0E82FF0E09B
:105780008827EB53F44D8F4FA9C4E52BE92BD72B7A
:10579000DD2BE12B172CEC2BF22BF62BFC2B002C0A
:1057A000042C0A2C0E2C172C122C182C1C2C80913B
:1057B00080008F77809380000895809180008F7D96
:1057C000F9CF80918000877FF5CF84B58F7784BD36
:1057D000089584B58F7DFBCF8091B0008F77809343
:1057E000B00008958091B0008F7DF9CF8091900036
:1057F0008F77809390000895809190008F7DF9CFEE
:1058000080919000877FF5CF8091A0008F77809363
:10581000A00008958091A0008F7DF9CF8091A00015
:10582000877FF5CF809120018F77809320010895A5
:10583000809120018F7DF9CF80912001877FF5CF66
:10584000CF93DF9390E0FC01E65DFD4F24918059FA
:105850009D4FFC0184918823C9F090E0880F991F27
:10586000FC01E651FD4FA591B491FC01E053FD4FC1
:10587000C591D49161110DC09FB7F8948C9120957A
:1058800082238C938881282328839FBFDF91CF9127
:105890000895623051F49FB7F8943C91822F80951F
:1058A00083238C93E8812E2BEFCF8FB7F894EC9164
:1058B0002E2B2C938FBFEACF1F93CF93DF93282FEC
:1058C00030E0F901EC51FE4F8491F901E65DFD4FA6
:1058D000D491F901E059FD4FC491CC23A1F0162FCA
:1058E000811148DFEC2FF0E0EE0FFF1FE053FD4F7A
:1058F000A591B4918FB7F894EC91111108C0D0958F
:10590000DE23DC938FBFDF91CF911F910895DE2BB3
:10591000F8CFCF93DF93282F30E0F901EC51FE4F01
:105920008491F901E65DFD4FD491F901E059FD4FF5
:10593000C491CC2399F081111DDFEC2FF0E0EE0F24
:10594000FF1FEA54FD4FA591B491EC91ED2381E046
:1059500090E009F480E0DF91CF91089580E090E03D
:10596000FACFFC01918D228D892F90E0805C9F4FB2
:10597000821B91098F7399270895FC01918D828D67
:10598000981731F0828DE80FF11D858D90E0089514
:105990008FEF9FEF0895FC01918D828D981761F034
:1059A000A28DAE0FBF2FB11D5D968C91928D9F5F22
:1059B0009F73928F90E008958FEF9FEF0895FC0101
:1059C000538D448D252F30E0842F90E0821B930B64
:1059D000541710F0CF96089501970895FC01A48DF7
:1059E000A80FB92FB11DA35ABF4F2C91848D90E001
:1059F00001968F739927848FA689B7892C93A089E4
:105A0000B1898C91837080648C93938D848D98136D
:105A100006C00288F389E02D80818F7D8083089500
:105A2000CF93DF93EC01888D8823B1F0AA89BB89DD
:105A3000E889F9898C9185FD03C0808186FD0CC0C1
:105A40000FB607FCF7CF8C9185FFF2CF808185FFE1
:105A5000EDCFCE01C3DFEACFDF91CF910895EF9272
:105A6000FF920F931F93CF93DF93EC0181E0888F18
:105A70009B8D8C8D98131AC0E889F989808185FFE8
:105A800015C09FB7F894EE89FF896083E889F9898A
:105A900080818370806480839FBF81E090E0DF918C
:105AA000CF911F910F91FF90EF900895F62E0B8DDF
:105AB00010E00F5F1F4F0F731127E02E8C8D8E119A
:105AC0000BC00FB607FCFACFE889F989808185FF02
:105AD000F5CFCE0183DFF2CFEB8DEC0FFD2FF11D63
