:1000000085C100000C948E230C94B9230C94E42336
:100010000C940F240C943A240C9465240C94902492
:100020000C94BB24A4C10000A2C10000A0C1000028
:100030009EC100009CC100009AC1000098C1000050
:1000400096C1000094C1000092C1000090C1000060
:100050008EC100008CC100008AC100000C94E6240F
:1000600086C100000C94E2280C94182980C100007D
:100070007EC100007CC100007AC1000078C1000090
:1000800076C1000074C1000072C1000070C10000A0
:100090000C946E290C94A4296AC1000068C1000068
:1000A00066C1000064C1000062C1000060C10000C0
:1000B0005EC100005CC100005AC1000058C10000D0
:1000C00056C1000054C100000C94B1140C94FA29DC
:1000D0000C94302A4CC100000C94862A0C94BC2A43
:1000E00046C10000001D3A2774694E53E8F5D2CF8F
:1000F0009C81A6BBCDD0F7EAB9A4839E25381F0208
:10010000514C6B76879ABDA0F3EEC9D46F725548F7
:100110001B06213C4A57706D3E230419A2BF9885E7
:10012000D6CBECF1130E2934677A5D40FBE6C1DCD7
:100130008F92B5A8DEC3E4F9AAB7908D362B0C11C7
:10014000425F78659489AEB3E0FDDAC77C61465BB7
:100150000815322F5944637E2D30170AB1AC8B96A7
:10016000C5D8FFE2263B1C01524F6875CED3F4E997
:10017000BAA7809DEBF6D1CC9F82A5B8031E392487
:10018000776A4D50A1BC9B86D5C8EFF24954736E77
:100190003D20071A6C71564B1805223F8499BEA367
:1001A000F0EDCAD735280F12415C7B66DDC0E7FA57
:1001B000A9B4938EF8E5C2DF8C91B6AB100D2A3747
:1001C00064795E43B2AF8895C6DBFCE15A47607D37
:1001D0002E3314097F6245580B16312C978AADB027
:1001E000E3FED9C400000A0B02090C0D0E08070338
:1001F00004010000000000000000000000000000FA
:1002000000000000000000000000000000000000EE
:1002100012111000000000000000000000000000AB
:100220000000000000000000000001021020200873
:100230000810204010204080020102010804020141
:1002400001020408102040808040201008040201B0
:100250008004020180402010080402010804020109
:100260000102040810204080010204081020408090
:1002700005050505070508080808020202020A0A22
:100280000808040404040101010101010101030340
:10029000030303030303040707070C0C0C0C0C0CEB
:1002A0000C0C0202020206060606060606060B0BE8
:1002B0000B0B0B0B0B0B000020002300260029006A
:1002C0002C002F003200000100000301060109018B
:1002D00000002200250028002B002E0031003400F1
:1002E00002010000050108010B01000021002400AB
:1002F00027002A002D003000330001010000040116
:1003000007010A014129CD29592AE52A11241FBED6
:10031000CFEFD1E2DEBFCDBF00E00CBF13E0A0E025
:10032000B2E0E6EDF9E500E00BBF02C007900D92E8
:10033000A83AB107D9F727E0A8EAB3E001C01D92B7
:10034000AA36B207E1F711E0C6E8D1E000E006C046
:1003500021970109802FFE010E94752BC238D10719
:1003600080E00807A9F70E94D7200C94E92C48CE1A
:10037000611102C00C9427276130E1F362E0FACFEB
:10038000662319F061E00C94632760E0FCCF0895C8
:10039000CF92DF92EF92FF92CF93882351F16A01BF
:1003A0007B01CFEFC80F20E030E0A901CB01B601FF
:1003B0000E94C52187FF11C0C701B60190580E9455
:1003C000CE219B01AC016C2F70E090E080E0CF91DA
:1003D000FF90EF90DF90CF90B2C0C701B6010E94AE
:1003E000C9218C2FCF91FF90EF90DF90CF900C948C
:1003F000ED25CF91FF90EF90DF90CF9008950F9370
:100400001F938B019C0183E03695279517950795DF
:100410008A95D1F708551C4F462F477021E030E0F0
:10042000F90102C0EE0FFF1F4A95E2F7AF01F80194
:1004300020812423CB010196211102C090E080E0AD
:100440001F910F9108950F931F938B019C0183E0DF
:1004500036952795179507958A95D1F7677081E0AE
:1004600090E001C0880F6A95EAF7F801E855FC4F63
:100470002081452B31F48095822380831F910F9139
:100480000895822BFACF2F923F924F925F926F92F4
:100490007F928F929F92AF92BF92CF92DF92EF9214
:1004A000FF920F931F93CF93DF93D62EC72E782EF4
:1004B000692E49015A01280161E08D2D0E942727EC
:1004C000CD2DDC2D8E010F5F1F4FA8016D2D7C2DD2
:1004D000872D962DB8DF20E030E0A901C201B701D9
:1004E0000E94AC22181664F4C201B7010E94CE210A
:1004F0002B01C501B4010E94CE21A201CE0123D05F
:10050000C801DF91CF911F910F91FF90EF90DF9085
:10051000CF90BF90AF909F908F907F906F905F90A3
:100520004F903F902F900895882341F08150682F7D
:1005300070E090E080E050E040E085CF0895862FA5
:10054000B9010C94ED259C01FC01EC51FE4FE491A6
:10055000E150E231E0F4F0E08827EE54FD4F8F4F98
:100560000C94752BC402CB02CE02E502FA02C7023C
:100570000F031B031F0336034B03600377038C0336
:10058000C702A103B803CD0384B5806884BD60E0D1
:10059000822F0C94632784B58062F8CF809180000D
:1005A0008C7F82608093800080918100807E80615A
:1005B000682B609381005093870040938600809160
:1005C0008000806880938000E2CF809180008C7FE3
:1005D00082608093800080918100807E8061682BA2
:1005E0006093810050938700409386008091800043
:1005F0008062E8CF809180008C7F82608093800051
:1006000080918100807E8061682B6093810050938F
:10061000870040938600809180008860D3CF8091CE
:10062000B00080688093B0008091B100887F682B13
:100630006093B100ACCF8091B0008062F3CF809125
:1006400090008C7F82608093900080919100807EEA
:100650008061682B609391005093970040939600BF
:100660008091900080688093900091CF809190005D
:100670008C7F82608093900080919100807E806169
:10068000682B60939100509397004093960080915F
:1006900090008062E8CF809190008C7F8260809390
:1006A000900080919100807E8061682B6093910022
:1006B0005093970040939600809190008860D3CF2C
:1006C0008091A0008C7F82608093A0008091A10027
:1006D000807E8061682B6093A1005093A7004093B7
:1006E000A6008091A00080688093A00050CF8091E8
:1006F000A0008C7F82608093A0008091A100807E0A
:100700008061682B6093A1005093A7004093A600DE
:100710008091A0008062E8CF8091A0008C7F8260F1
:100720008093A0008091A100807E8061682B6093FF
:10073000A1005093A7004093A6008091A00088607C
:10074000D3CF809120018C7F8260809320018091A3
:100750002101807E8061682B6093210150932701E5
:1007600040932601809120018068809320010FCF63
:10077000809120018C7F82608093200180912101F3
:10078000807E8061682B6093210150932701409304
:100790002601809120018062E8CF809120018C7F2A
:1007A00082608093200180912101807E8061682B8E
:1007B00060932101509327014093260180912001ED
:1007C0008860D3CF4F925F926F927F928F929F9269
:1007D000AF92BF92CF92DF92EF92FF92CF93DF93CF
:1007E0002AE537E044E457E062E477E08AE992E002
:1007F0000E94141480919D0260919B02813011F03F
:1008000060919C028AE0BCDD60914E0770914F07B9
:100810008091500790915107F2DDEC0190934D07C4
:1008200080934C0780919E0260919602709197028E
:10083000813021F06091980270919902072E000C8E
:10084000880B990B0E94FC216B017C0120E030E0B9
:100850004FE753E40E94C52187FFDAC020E030E073
:10086000A901C701B6010E94AC2218160CF0D7C02E
:10087000B701A601CE018CDD2AE537E044E457E05C
:1008800062E477E08AE992E00E94461481E090E019
:100890000E9404134091ED035091EE036091EF0329
:1008A0007091F00390E080E00E9400138090FD03BF
:1008B0009090FE03A090FF03B090000420E030E091
:1008C00040E85FEBC501B4010E94C521882331F1E6
:1008D000C090ED03D090EE03E090EF03F090F003B2
:1008E000A7019601C501B4010E9460214B015C0182
:1008F00020E030E040E054E3C701B6010E94B0229E
:100900009B01AC01C501B4010E94AC22181634F061
:1009100083EB92E09093D8038093D70380910104F6
:10092000882331F083EB92E09093D8038093D70330
:10093000C090F103D090F203E090F303F090F40341
:100940008FEFC81AD80AE80AF80AC092F103D092C9
:10095000F203E092F303F092F403C114D104E10432
:10096000F10499F48091F5039091F603A091F703B7
:10097000B091F8030196A11DB11D8093F5039093EA
:10098000F603A093F703B093F8038090F9039090D7
:10099000FA03A090FB03B090FC036091F503709103
:1009A000F6038091F7039091F8030E94FA21A501C4
:1009B00094010E94B02220E030E040E85FE40E9411
:1009C000B0222B013C01C701B6010E94FA21A5010A
:1009D00094010E94B0229B01AC01C301B2010E94AC
:1009E00061216093ED037093EE038093EF03909386
:1009F000F003DF91CF91FF90EF90DF90CF90BF9009
:100A0000AF909F908F907F906F905F904F900895E0
:100A1000C12CD12C8FE7E82E83E4F82E29CFC12CEE
:100A2000D12C760125CF8F929F92AF92BF92DF9209
:100A3000EF92FF920F931F93CF93DF93E7EDF3E0D5
:100A40008BE2DF011D928A95E9F780E090E0A0E853
:100A5000BFEB86A397A3A0A7B1A78FE692E1A3E877
:100A6000BAE382A393A3A4A3B5A38FE39BEAABE06D
:100A7000BFEA84839583A683B78387EB95E7A3E1D9
:100A8000B6E280879187A287B38780ED99E4AEEBC9
:100A9000B5EC84879587A687B7878CED9EEFA2EE8D
:100AA000BEEB808B918BA28BB38BABECB3E0B383AB
:100AB000A283C5ECD3E01196DC93CE9387EC92E051
:100AC000998388839B838A839D838C838BEE93E0B9
:100AD00015969C938E9314978BED93E013969C93AD
:100AE0008E9312978DEE93E017969C938E931697A4
:100AF000A2E4B7E084E0ED0119928A95E9F7C6E433
:100B0000D7E08EE1DE011D928A95E9F72BEB33E009
:100B10008AE0D9011D928A95E9F7A1EBB3E0B58B84
:100B2000A48B80E190E011969C938E9386E792E0EF
:100B300013969C938E93129786E592E015969C935C
:100B40008E93149782E292E017969C938E93169759
:100B500086E092E019969C938E931897DD24D394A7
:100B6000DD8E812C912C540183948D869E86AF86D8
:100B7000B88A61E08AE0FCDBD98A1882DC8E89E0E1
:100B800090E0A0E0B0E088879987AA87BB871D82A4
:100B900089829A82AB82BC82E12CF12C8701A80168
:100BA000970169E070E080E090E06DDC9F838E83C8
:100BB000688579858A859B8522DC9F838E83E7DB28
:100BC000DD82EC8AFD8A0E8B1F8BDF91CF911F9106
:100BD0000F91FF90EF90DF90BF90AF909F908F901C
:100BE000089580915207811103C081E080935207DC
:100BF00080914607811132C081E080934607809141
:100C0000470790914807A0914907B0914A0701977B
:100C1000A105B10519F580914B078823F9F0609182
:100C20004E0770914F078091500790915107E7DB75
:100C300090934D0780934C0740E050E0BA01A8DB49
:100C400060914E0770914F07809150079091510726
:100C5000D6DB90934D0780934C0766CC0895EF92B6
:100C6000FF920F931F93CF93DF93EA01F901DC0109
:100C70001496ED90FC90159712964D915C911397F8
:100C80004E0D5F1D2881398118960D911C91199781
:100C90000217130730F00D911C911197012B09F4E5
:100CA00041C08A01021B130BDC0118968D919C91A7
:100CB0008E199F09800F911F86179707DCF1C901D4
:100CC000860F971F8417950778F4718360833383A9
:100CD0002283158214821782168288819981680F77
:100CE000791F7983688316C011830083338322833D
:100CF000601B710B7583648390E080E01616170605
:100D000014F49E2D8F2D96838783D701A60FB71FCE
:100D1000B983A88380E0DF91CF911F910F91FF905D
:100D2000EF90089518968D919C91821B930B8617D6
:100D300097075CF681E0EFCFCF92DF92EF92FF92C0
:100D4000CF93DF936B0184E4869FE001879FD00DF2
:100D50001124CE5FDB4F8AA99BA9009721F00E9446
:100D6000472C1BAA1AAA84E48C9DF0018D9DF00DDE
:100D70001124EE5FFB4F86A997A9009711F00E94FE
:100D8000472C84E48C9DF0018D9DF00D1124EE5FC5
:100D9000FB4F138A128A168A178A108E118E128EB2
:100DA000138E148E158E168E178E10A211A281E04E
:100DB00090E093A382A315A214A216A217A210A6D4
:100DC00011A613A612A615A614A616A617A610AA53
:100DD00011AA13AA12AA15AA14AA17AA16AA11AE22
:100DE00010AE12AE13AE14AE15AEDF01DE961D923C
:100DF0001D921D921C921397EE5BFF4F1182108281
:100E0000DF91CF91FF90EF90DF90CF900895CF9337
:100E1000DF93FB01DC016D917C91DB011696CD9196
:100E2000DC918081918123E0880F991F2A95E1F759
:100E3000AA81BB81A80FB91F8D919C911197248520
:100E40003585220F331FEB016A817B81EB01C20FD5
:100E5000D31F0990D881C02D14962D913C9161E04B
:100E600070E0232B11F062E070E0C69F9001C79FF5
:100E7000300DD69F300D1124A085B1852A9FB00179
:100E80002B9F700D3A9F700D1124A481B5812A9F6C
:100E9000F0012B9FF00D3A9FF00D11248E0F9F1F34
:100EA000FA019183808373836283DF91CF910895E8
:100EB0002F923F924F925F926F927F928F929F926A
:100EC000AF92BF92CF92DF92EF92FF920F931F9358
:100ED000CF93DF9300D000D0CDB7DEB7DC011496FE
:100EE000ED91FC910190F081E02D808591859A83B0
:100EF0008983A281B381BC83AB83FB0181909190F4
:100F0000A190B190C12CD12C7601C814D904EA0467
:100F1000FB04CCF026960FB6F894DEBF0FBECDBF13
:100F2000DF91CF911F910F91FF90EF90DF90CF90C5
:100F3000BF90AF909F908F907F906F905F904F90F9
:100F40003F902F900895448055806680778040853B
:100F5000518562857385CF0140969E838D83A081E4
:100F6000B1819D0183E0220F331F8A95E1F7A981AA
:100F7000BA8112968D919C91D901A80FB91F2D901D
:100F80003C9011970484F585E02DEE0FFF1F8B81B7
:100F90009C81E80FF91F0190F081E02D14968D914E
:100FA0009C91892B41F581E090E0E89F9001E99FB9
:100FB000300DF89F300D1124249F8001259F100DC6
:100FC000349F100D1124249DC001259D900D349D4A
:100FD000900D1124A8016D817E81820D931D0E94C8
:100FE000D02CED81FE81E00FF11F9FEFC91AD90AC5
:100FF000E90AF90A8ACF82E090E0D7CFCF93DF9356
:10100000DB01A156BD4F2C91222369F024E4269FD9
:10101000F001279FF00D1124EE5FFB4FEF011992B5
:101020002A95E9F71C9224E4269FF001279FF00DF2
:101030001124EE5FFB4F14821582168217821186EF
:10104000108613861286118A108A17861686DF91FB
:10105000CF9172CE2F923F924F925F926F927F927A
:101060008F929F92AF92BF92CF92DF92EF92FF92B8
:101070000F931F93CF93DF9300D000D01F921F9246
:10108000CDB7DEB724E4269FF001279FF00D112491
:10109000EE5FFB4F0481158126813781012B022BE6
:1010A000032B09F4B7C02A016B017C0110E000E0BA
:1010B000812C912C54013F019F01285F3F4F3C83BD
:1010C0002B83CF0104969E838D83AB81BC818D9150
:1010D0009C91ED81FE8140815181628173818416F2
:1010E0009506A606B706E4F10E94472CD3011A968E
:1010F0008D919C91892B09F07EC084E48C9DD00158
:101100008D9DB00D1124AE5FBB4FBC83AB83509659
:101110008D919C910E94472CEB81FC81868597855F
:101120000E94472CC701B60107DEC701B601289609
:101130000FB6F894DEBF0FBECDBFDF91CF911F91E8
:101140000F91FF90EF90DF90CF90BF90AF909F9066
:101150008F907F906F905F904F903F902F904ECFE9
:10116000FC01E00FF11F92819983A381AA839F83E1
:10117000A887312C212C2414350464F089819A81AC
:101180000E94472CEFEF8E1A9E0AAE0ABE0A0C5F31
:101190001F4F9BCFAF81B885ED91FD91B887AF838D
:1011A000309759F0848195810E94472CEF81F88512
:1011B0003297808191810E94472CBFEF2B1A3B0A06
:1011C000DACF800F911FFC01848195810E94472C0A
:1011D0002B813C812F5F3F4F3C832B83025F1F4F4E
:1011E000F501808191812B813C81241535054CF3DB
:1011F0000E94472C82CF10E000E01C821B8224E476
:101200002C9DC0012D9D900D1124DC01A45FBB4FCE
:101210005D01E6CF28960FB6F894DEBF0FBECDBFB6
:10122000DF91CF911F910F91FF90EF90DF90CF90C2
:10123000BF90AF909F908F907F906F905F904F90F6
:101240003F902F90089524E4269FF001279FF00DF2
:101250001124EE5FFB4F828993890497029758F41B
:1012600085E090E0938B828B8FEF9FEFDC01828F84
:10127000938FA48FB58F08952F923F924F925F92D4
:101280006F927F928F929F92AF92BF92CF92DF9296
:10129000EF92FF920F931F93CF93DF93CDB7DEB7FB
:1012A000AA970FB6F894DEBF0FBECDBF9AA389A34D
:1012B0007E8B6D8B1A01098B1A8B2B8B3C8B84E4F4
:1012C00029893A89829F6001839FD00C112486016D
:1012D0000E5F1B4F89899A89AB89BC89F80180838D
:1012E0009183A283B383AB01BC01CD01B3DED601F0
:1012F000AA5FBB4F84E0F10101900D928A95E1F75E
:10130000F4E02F0E311C64E070E0D80114968D914A
:101310009C910E94912BF80191878087892B09F07D
:10132000F5C04D895E8969897A898B899C8992DEAD
:1013300081E0AA960FB6F894DEBF0FBECDBFDF9155
:10134000CF911F910F91FF90EF90DF90CF90BF90C2
:10135000AF909F908F907F906F905F904F903F9055
:101360002F900895A9A5BAA58D919C91E98DFA8D2C
:10137000E80FF91FF88FEF8BD1018D919C91880FA9
:10138000991FA9A1BAA1ED91FC91E80FF91F8081E5
:101390009181EF89F88D91838083D10114962D91ED
:1013A0003D914D915C9117972BA33CA34DA35EA358
:1013B00062E070E08D899E890E94912BEF89F88D03
:1013C00093838283892B09F4ACCFF8E02F0E311C74
:1013D000412C512C32012BA13CA14DA15EA1421602
:1013E0005306640675069CF02B8D3C8D4D8D5E8DED
:1013F0002F5F3F4F4F4F5F4F2B8F3C8F4D8F5E8F37
:10140000498D5A8D4C5F5F4F5A8F498F90C0610153
:1014100024E0C20ED11CD101ED90FC90EE0CFF1C1B
:10142000EF89F88D82819381E80EF91E68E070E003
:1014300081E090E00E94912B8C01D7018D939C93C9
:10144000892B09F46ECF84E0F601D80101900D924A
:101450008A95E1F7B8E02B0E311CF801808191816B
:10146000A281B381181619061A061B06DCF464E083
:1014700070E00E94912BD80115969C938E9314973F
:10148000892B09F44ECFD12CC12C812C912C5401E5
:10149000F80180819181A281B38188169906AA06FC
:1014A000BB0634F0FFEF4F1A5F0A6F0A7F0A93CF33
:1014B000F801E480F580EC0CFD1C80E1F101DE0117
:1014C000119601900D928A95E1F7F0E12F0E311CF3
:1014D000A701BE016F5F7F4FA9A1BAA114968D919C
:1014E0009C9195DCF80186819781D70112962D9108
:1014F0003C91820F931F97838683BFEF8B1A9B0AC1
:10150000AB0ABB0AE4E0CE0ED11CC2CF1A8E198EF4
:101510001B8E1C8E1D8E1E8E18A30F8FA8014C5F74
:101520005F4F58A74FA3C80108969AA789A7EFA1B4
:10153000F8A580819181A281B3812B8D3C8D4D8D49
:101540005E8D281739074A075B070CF40BCF6EE056
:1015500070E08D899E890E94912BAF8DB8A11B965A
:101560009C938E931A97B12CA12CD12CC12CF12CC9
:10157000E12C24E4E989FA892E9FC0012F9F900D68
:1015800011249C01245F3B4F388F2F8B8824839438
:10159000912C4D895E89C416D50654F184E4A9893D
:1015A000BA898A9F80018B9F100D11240E5F1B4FFB
:1015B000F80115861486C70133E0880F991F3A9504
:1015C000E1F70E94AB2BD80151969C938E935097D4
:1015D000892B09F4A6CEC701880F991F0E94AB2B57
:1015E000F80197878687892B09F49BCE80E0A1CEEE
:1015F000D1014D905D906D907D901D0177FC91CE55
:10160000EF89F88D008111810A0D1B1DD8011196FB
:101610009C928E92411451046104710429F1C2011B
:101620000E94AB2BF80195838483892B09F479CE32
:10163000F8015382428284819581978386839187C2
:1016400080871386128681E090E045284628472847
:1016500011F490E080E0E80EF91EFFEFCF1ADF0AE8
:101660002EE0A20EB11C95CF15961C921E921497D7
:10167000DFCF2F923F924F925F926F927F928F9225
:101680009F92AF92BF92CF92DF92EF92FF920F9311
:101690001F93CF93DF93CDB7DEB76A970FB6F89459
:1016A000DEBF0FBECDBF9E8B8D8B49015A0184E4F6
:1016B000829F7001839FF00C112497012E5F3B4F96
:1016C0006901FB0180819181F901958B848BD701A0
:1016D000A85EBB4FFB01349684E001900D928A9581
:1016E000E1F7D701A45EBB4FFB01389684E001907F
:1016F0000D928A95E1F7D701A05EBB4FFB013C96A6
:1017000084E001900D928A95E1F7D701A05DBB4F6F
:10171000FB01709684E001900D928A95E1F78B01B0
:101720000C5E1F4FF90186A597A5A0A9B1A91816AF
:101730001906DCF5880F991F880F991F0E94AB2BA3
:10174000F60193AB82AB892B09F4D3C0312C212C49
:10175000412C512C32019601225D3F4F388F2F8B47
:10176000C601C2969A8F898FF496FC8BEB8BB301DE
:10177000A2012FEF421A520A620A720AEF89F88D0B
:1017800080819181A281B381481759076A077B073D
:101790000CF47BC0F60184A995A90E94AB2BF6013D
:1017A00097AB86AB892B09F4A4C0F80180819181A5
:1017B000A281B38124E4289DF001299DF00D11241C
:1017C000EE5FFB4FAC01BD014D7F21E030E0452BCA
:1017D000462B472B11F030E020E033A322A324E472
:1017E000289DF001299DF00D1124EE5FFB4F01971C
:1017F000A109B10921E030E00297A105B10510F07F
:1018000030E020E035A324A3D701A85DBB4FF80149
:10181000349684E001900D928A95E1F784E4889DE6
:10182000F001899DF00D1124EE5FFB4F868D978DA1
:10183000A0A1B1A1B7FF58C0B095A0959095819592
:101840009F4FAF4FBF4F82AF93AFA4AFB5AF168ED0
:10185000178E10A211A280E06A960FB6F894DEBF30
:101860000FBECDBFDF91CF911F910F91FF90EF90F1
:10187000DF90CF90BF90AF909F908F907F906F90B0
:101880005F904F903F902F900895E98DFA8D808161
:1018900091819C01220D331D3A8B298B80E1F80147
:1018A000DE01119601900D928A95E1F7005F1F4FBE
:1018B00049895A89BE016F5F7F4FED89FE89848116
:1018C0009581A5DAEB89FC8980819181E989FA8982
:1018D00022813381820F931FEB89FC89918380835E
:1018E000F4E02F0E311C43CF12AE13AE14AE15AE82
:1018F000B2CFC501B40120DA81E0AECFCF92DF9242
:10190000EF92FF92CF93DF9310928A0424E4269FF4
:10191000F001279FF00D1124EE5FFB4F15A614A6D2
:1019200030E020E0D12CC12CDF011A96C1E0D0E0DC
:10193000C416D506F4F024E4269FF001279FF00D8D
:101940001124EE5FFB4F13A612A611AE10AEDF01FD
:10195000DE961D921D921D921C92139782E090E0DC
:10196000938B828BDF91CF91FF90EF90DF90CF90A0
:101970000895ED91FC911197E20FF31FE280F3803F
:101980001E141F0454F4E480F580F782E682F18689
:10199000E08613861286D183C083EFEFCE1ADE0A6B
:1019A000225F3F4FC5CF24E4269FF001279FF00D13
:1019B0001124EE5FFB4F138A128A4CCB24E4269F3E
:1019C000F001279FF00D1124EE5FFB4F8289938970
:1019D00081309105C8F08530910518F0059769F0C0
:1019E00008958FEF9FEFDC01828F938FA48FB58FC7
:1019F00085E090E0938B828B08958FEF9FEFDC0161
:101A0000828F938FA48FB58F089524E4249FD001F3
:101A1000259FB00D1124AE5FBB4F2EE0AC01249F7B
:101A2000C001259F900D11241A96ED91FC91E80FAD
:101A3000F91F81E080938A0482859385918780874E
:101A4000408551852681378181E090E04217530718
:101A500011F090E080E09183808308952F923F926F
:101A60004F925F926F927F928F929F92AF92BF92AE
:101A7000CF92DF92EF92FF920F931F93CF93DF935A
:101A8000CDB7DEB7C055D1090FB6F894DEBF0FBE93
:101A9000CDBF9EAF8DAF4BA75CA76DA77EA768019A
:101AA000790184E4809FF001819FF00D1124EE5FA5
:101AB000FB4F2285338523963FAF2EAF2397828934
:101AC0009389029761F486A597A5A0A9B1A9892B4E
:101AD0008A2B8B2BC9F584E090E0938B828B84E476
:101AE0008C9DF0018D9DF00D1124EE5FFB4F8289DE
:101AF00093898230910509F037C282AD93ADA4ADD0
:101B0000B5AD22242394312C181619061A061B068B
:101B10000CF42FC2C05BDF4F0FB6F894DEBF0FBED0
:101B2000CDBFDF91CF911F910F91FF90EF90DF908C
:101B3000CF90BF90AF909F908F907F906F905F906D
:101B40004F903F902F900895848995894DAD5EAD5B
:101B50008417950721F606A917A918AE1FAA1BAA74
:101B60001CAA1DAA1EAA1F01CF018E9627969FAF01
:101B70008EAF2797DF01D2962996BFAFAEAF2997D8
:101B8000F8962B96FFAFEEAF2B9791012A5D3F4F52
:101B90002D963FAF2EAF2D97A1014E5D5F4F2F9633
:101BA0005FAF4EAF2F970A9761969FAF8EAF619749
:101BB0002796EEADFFAD279780819181A281B381F9
:101BC0002BA93CA94DA95EA9281739074A075B072D
:101BD00044F081E090E0D101D9969C938E93D89700
:101BE0007ECF2996AEADBFAD2997ED91FC912FA97F
:101BF00038ADE20FF31F428153815AAF49AF508194
:101C00005FAF818121968FAF21972B96AEADBFAD8F
:101C10002B978D919C91892B21F12D96EEADFFADE7
:101C20002D9780809180A280B3801AAB09AB5FA70B
:101C30002196FFAD2197F8AB29AD3AAD36952795A2
:101C40003695279525963FAF2EAF25971CAE1BAE38
:101C50002596AEADBFAD2597EBADFCADEA17FB0702
:101C60000CF149AD5AAD6FAD21967FAD2197C801FA
:101C70000E94D02C89AD9AAD8C7F080F191F2BA91B
:101C80003CA94DA95EA92F5F3F4F4F4F5F4F2BAB34
:101C90003CAB4DAB5EAB4FA958AD4C5F5F4F58AFFF
:101CA0004FAB86CF2F96AEADBFAD2F978D919C9148
:101CB000892B71F1EFA5F8A9408051806280738073
:101CC000A3019201C501B4010E94C521181664F058
:101CD000A9A9BAA92D913D914D915C91C501B4017D
:101CE0000E94AC221816BCF1A3019201C501B401F7
:101CF0000E94C52187FF0CC0E9A9FAA92081318182
:101D000042815381C501B4010E94C521882319F184
:101D10006196AEADBFAD61978D919C91892B09F411
:101D200045C0EFA5F8A94080518062807380A3016F
:101D30009201C501B4010E94AC2218161CF5A9A994
:101D4000BAA92D913D914D915C91C501B4010E94BC
:101D5000C52118165CF184E48C9DF0018D9DF00D79
:101D60001124EE5FFB4F868D978DA0A1B1A1892B29
:101D70008A2B8B2B69F183E090E0938B828B81E03F
:101D800090E02CC0A3019201C501B4010E94C521BD
:101D900081110CC0E9A9FAA92081318142815381C6
:101DA000C501B4010E94C52187FDD5CF2BAD3CAD47
:101DB0002F5F3F4F3CAF2BAF49A95AA94C5F5F4FF4
:101DC0005AAB49AB8FA598A9049698AB8FA740CF83
:101DD00084E090E0938B828B86AD97AD93A782A72A
:101DE0007ECEEBADFCAD80819181F401EE0FFF1F43
:101DF000EE0FFF1FE80FF91FA081B1818C918111B7
:101E00000AC0FFEF8F1A9F0AAF0ABF0A8DA29EA2D7
:101E1000AFA2B8A68FC18330A1F30280F381E02D79
:101E20002FA938ADE20FF31F808191819AAB89AB66
:101E3000892B39F34F5F5F4F6F4F7F4F49875A8729
:101E40006B877C879E01235E3F4FAE01475D5F4FEE
:101E500064E070E0C8010E942F068111D0C18D811D
:101E60009E81AF81B8850496A11DB11D8D839E838F
:101E7000AF83B8874D8D5E8DBE016B5D7F4F8F8DBB
:101E800098A10E94D02C8BA19CA1009761F06D8D30
:101E90007E8DA5E2B0E0AC0FBD1F6A0F7B1F49A18C
:101EA0005AA10E94D02C1CAA1BAA412C512C3201F1
:101EB000E9A9FAA980819181A281B38148165906C6
:101EC0006A067B060CF09DCFE9A9FAA98481958169
:101ED0002BA93CA9280F391F38AB2FA7D90112967F
:101EE0006D917C919E01235E3F4FAE01475D5F4F38
:101EF000C8010E942F06811182C1EFA5F8A9828135
:101F00009381092E000CAA0BBB0B4D815E816F8162
:101F10007885840F951FA61FB71F8D839E83AF837F
:101F2000B887608171814D8D5E8D8F8D98A10E94E3
:101F3000D02C8BA19CA1009761F0AFA5B8A96D91A1
:101F40007C912D8D3E8D620F731F49A15AA10E9475
:101F5000D02CBFEF4B1A5B0A6B0A7B0AEBA9FCA9DA
:101F60003496FCABEBABA4CF312C212C049709F0B9
:101F7000D1CD8EE0EDADFEAD8E9F80018F9F100D17
:101F8000112423962EAD3FAD2397020F131FD801C6
:101F900012964D915C9113974115510509F4BACDF4
:101FA00016968D919C919AA789A780E1FE013196A2
:101FB000DF011D928A95E9F7C98ADA8AEB8AFC8AE1
:101FC0002114310409F458C084E48C9DF0018D9DE6
:101FD000F00D1124EE5FFB4FDF01DE968D909D909A
:101FE000AD90BC9082AD93ADA4ADB5AD8816990609
:101FF000AA06BB0609F040C0F801848195810084DF
:10200000F185E02D349624E0DE01559601900D9285
:102010002A95E1F72D893E89285F3F4F3E8B2D8B16
:10202000D80118966D917C911997260F371F199634
:102030003C932E93189718962D913C911997480F21
:10204000591F241B350B37FD06C0820F931F1996AD
:102050009C938E93189784E48C9DF0018D9DF00DD8
:102060001124E05CFB4FB1E08B1A9108A108B10884
:1020700080829182A282B3829E012B5E3F4FAE018D
:10208000475D5F4F64E170E0C8010E942F06811137
:10209000B6C08CE090E0A0E0B0E08D839E83AF837B
:1020A000B8879E01235E3F4FAE01475D5F4F64E0FE
:1020B00070E0C8010E942F068111A1C080E190E06C
:1020C000A0E0B0E08D839E83AF83B8874D8D5E8D99
:1020D000BE01655D7F4F8F8D98A10E94D02C8BA192
:1020E0009CA1009761F06D8D7E8DEBE2F0E0EC0F2E
:1020F000FD1F6E0F7F1F49A15AA10E94D02C1DA267
:102100001EA21FA218A62DAD3EAD220F331F38AF61
:102110002FAB24E42C9DC0012D9D900D11248E5FCA
:102120009B4FAC014C5F5F4F5AAF49AFDC01189633
:10213000BCAFABAF8DA09EA0AFA0B8A449855A8517
:102140006B857C85E9ADFAAD80819181A281B381F7
:1021500088169906AA06BB060CF443CE452B462BDF
:10216000472B09F4D7CC8AE190E0A0E0B0E0898366
:102170009A83AB83BC832DAD3EADC901330FAA0B4F
:10218000BB0B8D879E87AF87B88B4D895E89BE015B
:102190006F5F7F4F8F89988D0E94D02C8B8D9C8D87
:1021A000009761F06D897E8941E050E04C0F5D1F22
:1021B000640F751F498D5A8D0E94D02C89A59AA550
:1021C000D80117969C938E93169711961C921E9287
:1021D000232809F49FCC84E48C9DF0018D9DF00DA3
:1021E0001124E05CFB4F80819181A281B381019633
:1021F000A11DB11D80839183A283B3838BCC23283F
:1022000009F088CC84E48C9DF0018D9DF00D1124A3
:10221000EE5FFB4F81E090E095A784A785E090E01A
:10222000938B828B77CCCF92DF92EF92FF920F93BA
:102230001F9324E4269FF001279FF00D1124EE5FE9
:10224000FB4F228933892115310509F452C06B01F6
:102250007C0121303105B1F482A593A59C012F5F4B
:102260003F4F33A722A7092E000CAA0BBB0B028DF0
:10227000138D248D358D80179107A207B307C9F5FB
:10228000C7013CDB84E48C9DF0018D9DF00D112491
:10229000EE5FFB4F82899389039759F582A593A539
:1022A0009C012F5F3F4F33A722A7092E000CAA0BDA
:1022B000BB0B468D578D60A171A184179507A607AA
:1022C000B707BCF086AD97AD93A782A784E090E0F6
:1022D000938B828B82AD93ADA4ADB5AD1816190664
:1022E0001A061B0634F4EE5BFF4F81E090E0918309
:1022F00080831F910F91FF90EF90DF90CF90089512
:1023000024E4269FF001279FF00D1124EE5FFB4F80
:10231000828993890497B1F482A593A5019693A726
:1023200082A7092E000CAA0BBB0B46895789608D2A
:10233000718D84179507A607B70721F485E090E013
:10234000938B828B08952F923F924F925F926F9260
:102350007F928F929F92AF92BF92CF92DF92EF9235
:10236000FF920F931F93CF93DF93CDB7DEB72E97D6
:102370000FB6F894DEBF0FBECDBFDC0149835A8390
:102380006B837C83290184E4849FF001859FF00D99
:102390001124EE5FFB4F22883388C1010497029716
:1023A00008F0D5C011961C921E9213961C921E9294
:1023B000129715861486912C812C90E080E08F0175
:1023C0009F01205F3F4F38872F833F013CE0630E22
:1023D000711CBF01625F7F4F7A8769873A96FC87DD
:1023E000EB87EF81F88520813181F30140815181B4
:1023F000E985FA85A080B180841595050CF445C067
:1024000011965C934E9313963C932E9312971596C8
:10241000BC92AE921497452BF9F4F5E02F163104D7
:10242000D9F410928A04F801828D938DA48DB58D14
:10243000AE014F5F5F4F64E070E08F3F9F4FAF4F43
:10244000BF4F09F079C080E290E032D669817A818D
:102450008B819C81A201A7DA2E960FB6F894DEBF7D
:102460000FBECDBFDF91CF911F910F91FF90EF90E5
:10247000DF90CF90BF90AF909F908F907F906F90A4
:102480005F904F903F902F900895EB85FC85608181
:102490007181FB01E80DF91DFE87ED876081718177
:1024A000672B89F5E084F184628173817E836D837B
:1024B000668177816A01E3E0CC0CDD1CEA95E1F7E7
:1024C0002C0D3D1D440F551F4A0D5B1DFA019183D4
:1024D0008083F301408151814F5F5F4F518340837F
:1024E000F901F382E282ED85FE8573876287E61645
:1024F000F70670F46E197F09F90171836083158204
:102500001482178216820196FEE08F0E911C69CF0D
:10251000ED85FE85C480D5804D815E814C0D5D1DAD
:102520004E195F09F901518340836C197D09758348
:102530006483D782C682E7CF8FE190E0B9D5F801F6
:1025400013A612A681E090E0938B828B85CF15862F
:10255000148611961C921E9213961C921E9212972C
:102560007BCFEF92FF920F931F93CF93DF937C016A
:102570008B01EA0179D681111EC08091A102909150
:10258000A202049711F5DF91CF911F910F91FF9057
:10259000EF90089528ED38EB45E050E060E070E002
:1025A000CB010E94EB1BAE01B801C7010E94F91BD1
:1025B000C8010E94C41B80918B0490918C04892BCC
:1025C000E1F68881882331F3D8CF83E090E09093BF
:1025D000A2028093A102D7CFCF93DF932091A102D3
:1025E0003091A2022430310541F0EB010E94F91B29
:1025F000CE01DF91CF910C94C41BDF91CF91089550
:102600000C94F71F0C94EC1F0C94DA1F0C94D41B41
:102610000C947E1F089570E060E090E080E0FFC5BC
:102620000895AF92BF92CF92DF92EF92FF920F93F5
:102630001F93CF93DF931F921F92CDB7DEB75C013C
:102640008B0169017A0190E080E0C114D104E104BA
:10265000F10469F40F900F90DF91CF911F910F91CA
:10266000FF90EF90DF90CF90BF90AF9008959C2D9A
:102670008D2DC114D10421E0E206F10410F09FEF8A
:102680008FEF9E012F5F3F4F492F582FB801C50193
:102690000E9481208F3F9807E9F229813A81C21A6E
:1026A000D30AE108F108020F131FCFCF2091910444
:1026B00030919204809193049091940428173907E3
:1026C00089F08091970490919804019690939804D2
:1026D0008093970482E10E949027909394048093C2
:1026E0009304089580919704909198040197EECFF8
:1026F00020918D0430918E0480918F0490919004EC
:102700002817390711F1809195049091960401964C
:10271000909396048093950482E00E949027909372
:10272000900480938F048091950490919604813A4F
:10273000964F8CF48091950490919604805A964F10
:1027400090939604809395040895809195049091B8
:1027500096040197DDCF8091950490919604803680
:10276000994094F3809195049091960480569940F5
:10277000E7CF83E10E949027909392048093910485
:1027800020919304309194048217930751F0809123
:1027900097049091980401969093980480939704DD
:1027A000089580919704909198040197F5CF83E064
:1027B0000E94902790938E0480938D0420918F0423
:1027C0003091900482179307D9F0809195049091ED
:1027D00096040196909396048093950480919504B5
:1027E00090919604813A964F8CF480919504909143
:1027F0009604805A964F909396048093950408957A
:1028000080919504909196040197E4CF809195046E
:10281000909196048036994094F38091950490911C
:10282000960480569940E7CFEF92FF920F931F9343
:10283000CF93DF937C018B01EA01F90120E030E0C6
:1028400040E85FE360817181828193810E94C521AC
:10285000811115C0F7018081882321F01092960420
:10286000109295048091950490919604F8019183BB
:102870008083809197049091980499838883DF9155
:10288000CF911F910F91FF90EF900895CF93DF9319
:10289000E90120E030E040E85FE3688179818A81E6
:1028A0009B810E94C5218823A1F162E082E00E9401
:1028B000272762E083E00E94272760E082E10E94F0
:1028C000272760E083E10E94272741E050E068E786
:1028D00073E180E00E94142341E050E067ED73E172
:1028E00081E00E94142341E050E066E573E185E059
:1028F0000E94142341E050E069EB73E184E00E9400
:10290000142380E090E0A0E8BFE388839983AA8342
:10291000BB83DF91CF91089540E051EE60E070E01D
:1029200090E080E000C08130910579F01CF4892BA3
:1029300039F008958230910561F0039771F00895A0
:1029400026E08EEC94E00C94822826E08BE695E05D
:10295000FACF26E088E096E0F6CF26E085EA96E01A
:10296000F2CF1F920F920FB60F9211240BB60F9257
:102970002F933F934F935F936F937F938F939F9387
:10298000AF93BF93EF93FF9386E09FEF9093250162
:10299000809324010E94BB20FF91EF91BF91AF91E2
:1029A0009F918F917F916F915F914F913F912F9167
:1029B0000F900BBE0F900FBE0F901F90189586E0E2
:1029C0009FEF9093250180932401A3E7B0E08C91C1
:1029D0008E7F8C93E0E2F1E080818C7F8083E1E266
:1029E000F1E08081877E8083808183608083808125
:1029F0008B7F80838C9181608C93089581E0089512
:102A00008F929F92AF92BF92CF92DF92EF92FF92FE
:102A10000F931F93CF93DF935C017B018A01C1E089
:102A2000D0E0CE15DF05CCF081E0F5018083B80160
:102A3000C7010E942120F5019283818390E080E00C
:102A4000DF91CF911F910F91FF90EF90DF90CF908A
:102A5000BF90AF909F908F9008956E018FEFC81A2E
:102A6000D80AFE01EE0FFF1FE00FF11F808091805A
:102A70008114910469F06CE473E0C4010E94E02CBD
:102A8000892B41F4CC0FDD1FC00FD11F1982188292
:102A9000E601C7CF6FE473E0C4010E94E02C892BEC
:102AA000B9F7EC14FD04A1F36E01E2E0CE0ED11CE7
:102AB000CC0FDD1FC00FD11F198218821B821A8212
:102AC000E7CF89E994E0089580E008950F931F937C
:102AD000CF93DF938B01BA01E90119821882980123
:102AE000012E000C440B550BFC018181928199DD74
:102AF000019641F01983088380E0DF91CF911F9107
:102B00000F91089581E0F9CF0F931F93CF93DF9337
:102B10001F921F92CDB7DEB7FB018A01B9019E015A
:102B20002F5F3F4FAF01FC01818192810E943620CF
:102B3000019669F089819A81F8019183808380E010
:102B40000F900F90DF91CF911F910F91089581E029
:102B5000F7CFFC01808108950895089581E0FB017D
:102B6000808380E0089508951092C1040895FC01C7
:102B7000818192810C941920CF93DF9300D000D0F3
:102B800000D01F92CDB7DEB7B0E0A0E089839A8372
:102B9000AB83BC83CB01770FAA0BBB0B8D839E83CA
:102BA000AF83B8879E01275F3F4FAE014F5F5F4FF6
:102BB00068E070E08091B0049091B10487DF8111EA
:102BC00010C081E029853A852830310509F480E07C
:102BD0002A960FB6F894DEBF0FBECDBFDF91CF911E
:102BE000089581E0F5CF0F931F93CF93DF931F924A
:102BF0001F92CDB7DEB78B019E012F5F3F4FAC0117
:102C00008091B0049091B10461DF81110EC081E028
:102C100029813A812017310709F480E00F900F9045
:102C2000DF91CF911F910F91089581E0F7CFCF935E
:102C3000DF93EC011092B4041092B3041092C0041C
:102C40001092BF04AC0160E070E0CB010E94D30C95
:102C5000AE0161E070E080E090E00E94D30C8091D2
:102C6000B0049091B104DF91CF917DCF4F925F92EC
:102C70006F927F928F929F92AF92BF92CF92DF928C
:102C8000EF92FF920F931F93CF93DF931F921F92A8
:102C9000CDB7DEB78C017C0197FF03C087E0E80E5B
:102CA000F11C23E0F594E7942A95E1F7C80168E068
:102CB00070E00E94402B6C010E5F1F4F8091AE04AC
:102CC0009091AF0480179107D4F48091AC04909157
:102CD000AD04009731F00E94472C1092AF0410927F
:102CE000AE04C8010E94AB2B9093AD048093AC045A
:102CF000892B09F482C01093AF040093AE0410E056
:102D000000E047C1412C512C3201B12CA12C95017E
:102D10002B543B4FAE014F5F5F4F61E070E08091FD
:102D2000B0049091B104F0DE811149C0EFEF4E1A6A
:102D30005E0A6E0A7E0AF0E94F16FFE55F06F1E0D3
:102D40006F06710444F06091BF047091C0048DEE71
:102D500090E012DFD7CF89819A81A80EB91E8AE050
:102D6000A816B10409F043C049E050E070E060E00B
:102D700085EB94E00E94AD206091BF047091C00487
:102D8000882391F18091BD0490E08617970781F424
:102D9000BC018EEE90E0F0DE8091BF049091C00403
:102DA000019699279093C0048093BF040F5F1F4F33
:102DB0000E151F050CF4A6CFCD2809F07CC090E0BD
:102DC00080E00F900F90DF91CF911F910F91FF90B6
:102DD000EF90DF90CF90BF90AF909F908F907F90BB
:102DE0006F905F904F9008958FEE90E0B2CFEAE041
:102DF000AE16B1040CF48BCFDBCF10E000E0D8CFDF
:102E00000A30110531F549E050E070E060E085EBF3
:102E100094E00E94AD206091BF047091C0048823AB
:102E2000A9F08091BD0490E08617970741F6BC0198
:102E30008EEE90E0A1DE8091BF049091C0040196D7
:102E400099279093C0048093BF04B9CF8FEE90E090
:102E50002BC00A3011050CF0B2CF98012B543B4F18
:102E6000AE014F5F5F4F61E070E08091B0049091E0
:102E7000B1044ADE8111A3CF89819A81080F191FFD
:102E8000FFEFCF1ADF0AEF0AFF0A80E9C8168FE5C5
:102E9000D80681E0E806F1040CF4B2CF6091BF04DB
:102EA0007091C0048DEE90E067DE10E000E0C12C70
:102EB000D12C7601D2CFC12CD12C760110E000E0CC
:102EC000CCCF412C512C3201B12CA12C480193E0E4
:102ED000880C991C9A95E1F72091AC043091AD04CF
:102EE000C501880D991D280F391FAE014F5F5F4F37
:102EF00061E070E08091B0049091B10405DE811131
:102F00005ECFEFEF4E1A5E0A6E0A7E0A6091BF0432
:102F10007091C0048DEE90E0F0E94F16FFE55F067A
:102F2000F1E06F0671040CF043C089819A81A80E0C
:102F3000B91E8AE0A816B10409F041C049E050E08A
:102F4000B4018091AC049091AD040E94AD206091D9
:102F5000BF047091C004882349F18091AC04909122
:102F6000AD04880E991EF401808590E086179707BE
:102F700081F4BC018EEE90E0FFDD8091BF04909162
:102F8000C004019699279093C0048093BF040F5FFB
:102F90001F4F0E151F050CF494CFC114D10409F076
:102FA00081C08091AC049091AD040BCF8FEE90E086
:102FB000E3DD412C512C3201B12CA12C8DCFFAE054
:102FC000AF16B1040CF488CFE4CF8FEE90E0D4DDDF
:102FD000F12CE12C812C912C540197012B543B4F67
:102FE000AE014F5F5F4F61E070E08091B00490915F
:102FF000B1048ADD8111E3CE8FEF881A980AA80AFE
:10300000B80A6091BF047091C0048DEE90E0E0E9D1
:103010008E16EFE59E06E1E0AE06B104C4F68981A6
:103020009A81E80EF91EFAE0EF16F104A9F549E0DD
:1030300050E070E060E085EB94E00E94AD2060918C
:10304000BF047091C004882309F4BFCF8091BD04F0
:1030500090E08617970709F0A4CFBC018EEE90E0B0
:103060008BDD83E0000F111F8A95E1F78091AC049E
:103070009091AD04A60165EB74E0800F911F0E9452
:10308000D02C8091BF049091C00401969927909311
:10309000C0048093BF0485CF8AE0E816F1040CF4E5
:1030A0009CCF7FCF812C912C5401F12CE12C95CF1A
:1030B000CF92DF92EF92FF920F931F93CF93DF9304
:1030C0001F92CDB7DEB76C017B018A01452B39F029
:1030D000AB0170E060E0C8010E94A9208983B701BC
:1030E000C6014ADD81110DC00115110551F0B7016E
:1030F000C80179DD811105C061E070E0CE01019663
:1031000072DD0F90DF91CF911F910F91FF90EF90A3
:10311000DF90CF900895CF92DF92EF92FF92CF93FE
:10312000DF9300D000D01F921F92CDB7DEB76B01A6
:10313000F12CE12CC982DA82EB82FC822D833E8362
:103140004F835887AE014F5F5F4F68E070E0B0DF9C
:1031500028960FB6F894DEBF0FBECDBFDF91CF919A
:10316000FF90EF90DF90CF9008958F929F92AF9253
:10317000BF92CF92DF92EF92FF920F931F93CF9364
:10318000DF937C01EB01CA01690170DD0097B1F4A6
:103190002FEF3FEFA90161E070E0C701BCDFC1E0A4
:1031A0008C2FDF91CF911F910F91FF90EF90DF90C7
:1031B000CF90BF90AF909F908F900895FC01819029
:1031C0009190A190B190BF01FCE1EF16F10479F468
:1031D000A5019401CE010E94390BC82FA5019401CD
:1031E000882369F061E070E0C70195DFD9CF9501D0
:1031F0008401AB01B601CE010E943C09EECF70E024
:1032000060E0C701DF91CF911F910F91FF90EF9088
:10321000DF90CF90BF90AF909F908F907CCF0F9317
:103220001F93CF93DF93EC018B014BDC9093B104A0
:103230008093B0040097A9F0A801BE01E1DBEC0186
:10324000892B49F08091B0049091B10485DC1092F3
:10325000B1041092B004CE01DF91CF911F910F9174
:103260000895CBE5D3E0EECF8091B0049091B10406
:1032700070CC2F923F924F925F926F927F928F927B
:103280009F92AF92BF92CF92DF92EF92FF920F93F5
:103290001F93CF93DF93CDB7DEB769970FB6F8943E
:1032A000DEBF0FBECDBF2091B4042223F1F05B8BB3
:1032B0004A8B6E877F87888B998B9A01AB01BC0103
:1032C000CE0101967C013FD810E048E0242E312C3D
:1032D000E88EF98E89819A81181619060CF451C26C
:1032E000112319F08A899B89A2DC69960FB6F8949C
:1032F000DEBF0FBECDBFDF91CF911F910F91FF9029
:10330000EF90DF90CF90BF90AF909F908F907F9085
:103310006F905F904F903F902F900895EB81FC81CC
:103320008C859D8533E0880F991F3A95E1F7E80F6A
:10333000F91F808191819093AB048093AA0424812A
:103340003581428153815093A9044093A80446815A
:1033500057815093A7044093A604820F931F9C01AA
:10336000990F440B550B2C8B3D8B4E8B5F8B812C17
:10337000912C54018C899D89AE89BF898816990644
:10338000AA06BB0640F18C859D85880F991FED81AB
:10339000FE81E80FF91F4E855F85688979898081F4
:1033A00091810E94050DAC85BD851196BD87AC87C6
:1033B00089819A81EC85FD85E817F9070CF4AECF79
:1033C0002A893B894E855F8568897989888D998DA1
:1033D0000E94A3117FCF1F826091AA047091AB0459
:1033E000CB01072E000CAA0BBB0B840175016401F5
:1033F00034E0C30ED11CE11CF11CC816D906EA0644
:10340000FB0608F0B3C02091A8043091A904A401E0
:103410004C5F5F4F240F351FF901C080D12CF12C78
:10342000E12C24013501F5E04F0E511C611C711C8B
:10343000481659066A067B0608F0A3C02091A80426
:103440003091A904F8013596E20FF31F2081D22AAA
:103450002401350126E0420E511C611C711C4816E6
:1034600059066A067B0608F097C02091A80430919F
:10347000A904F8013696E20FF31F2081E22A240105
:10348000350137E0430E511C611C711C481659066A
:103490006A067B0608F08BC02091A8043091A9042D
:1034A000F8013796E20FF31F208126013701722AB7
:1034B0007501640148E0C40ED11CE11CF11C8C159F
:1034C0009D05AE05BF0508F41DC188169906AA061C
:1034D000BB0608F077C08091A8049091A904800FE2
:1034E000911F68E070E07FDBE091AA04F091AB04EB
:1034F0009F010F2E000C440B550BD301C2018C0D04
:103500009D1DAE1DBF1D281739074A075B0708F42C
:1035100078C0C216D306E406F50608F05DC08091B7
:10352000A8049091A9049801285F3F4F820F931F30
:10353000B20159DB8091AA049091AB04AC01092E31
:10354000000C660B770BC416D506E606F70608F0E6
:103550004DC0085F1F4F8091A8049091A904800F6F
:10356000911FA20170E060E0F4D5A7C044E050E0F4
:10357000461B570B480D591D2091A6043091A704F6
:1035800049CFE5E0F0E0E61BF70BE00FF11F2091DB
:10359000A6043091A70458CFE6E0F0E0E61BF70B55
:1035A000E00FF11F2091A6043091A70464CFE7E05B
:1035B000F0E0E61BF70BE00FF11F2091A60430911D
:1035C000A70470CF9801261B370B8091A604909119
:1035D000A704820F931F85CF91012E1B3F0B200F55
:1035E000311F8091A6049091A704A0CFD101A81B00
:1035F000B90BCD01080F191F8091A6049091A70463
:10360000AECFBF0168507109601B710BC216D306A3
:10361000E406F50608F062C08091A8049091A90420
:103620009801285F3F4F820F931FDDDA8091AA0433
:103630009091AB04B101681B790B600F711F640D91
:10364000751D8091A6049091A704CDDA8091AA04FB
:103650009091AB04AC0148505109FA01E01BF10B09
:10366000AC01092E000C660B770BC416D506E606D6
:10367000F70608F03DC08091A8049091A904980134
:10368000285F3F4F820F931FAF0170E060E061D56C
:103690008F832091AA043091AB04F101E21BF30B5C
:1036A0009F01200F311F240D351D50E040E0682F91
:1036B0008091A6049091A70438D58F8361E070E0D3
:1036C000CE01079690DA182F38E0430E511C611C8A
:1036D000711C840C951CA61CB71C4CCE91012E1B92
:1036E0003F0B200F311F8091A6049091A7049BCF20
:1036F0009101281B390B200F311F8091A604909156
:10370000A704C0CF88169906AA06BB0668F5601BF9
:10371000710B8091A8049091A904800F911F63DA26
:103720008091AA049091AB04B101681B790B600FE2
:10373000711F640D751D8091A6049091A70453DA42
:103740008091AA049091AB04AC01092E000C660B89
:10375000770BC416D506E606F70608F4FACE9101F3
:10376000281B390BC90146CFC801861B970B209136
:10377000A6043091A704B201685F7F4F820F931FA8
:10378000DECF1D861C8614CECF93DF93EC01AC01F7
:1037900060E070E0CB016DDDAE0161E070E080E0E3
:1037A00090E0DF91CF9165CDCF938091B00490915F
:1037B000B1048AD9C82F81110BC060E070E0CB0141
:1037C0000E94FE0761E070E080E090E00E94FE074A
:1037D0008C2FCF9108950F931F9389019A01AB010C
:1037E000BC018091B0049091B104B7D91F910F91A1
:1037F00008954F925F926F927F928F929F92AF92B5
:10380000BF92CF92DF92EF92FF920F931F93CF93CD
:10381000DF93CDB7DEB763970FB6F894DEBF0FBE68
:10382000CDBF6C018B015A018091B404882309F447
:103830003DC08091B404882309F442C08091B30450
:103840001A821982882309F4C0C0F0E94F2EFFE5DF
:103850005F2E66246394712CF12CE12C9701245681
:103860003B4FAE014F5F5F4F61E070E08091B0046D
:103870009091B10449D9982E811169C089819A81AA
:10388000E80EF91EE114F10409F461C081E0481A60
:1038900051086108710859F56091BF047091C00426
:1038A0008DEE90E069D91A82198251C064EB74E000
:1038B0008091B0049091B10451D9882309F4B9CF13
:1038C00063960FB6F894DEBF0FBECDBFDF91CF91E8
:1038D0001F910F91FF90EF90DF90CF90BF90AF902E
:1038E0009F908F907F906F905F904F900895AAE087
:1038F000EA16F10409F063C049E050E070E060E0CE
:103900008CE994E02AD46091BF047091C0048823AC
:1039100009F452C08091A40490E08617970719F625
:10392000BC018EEE90E028D988E0ECE9F4E0DE01FD
:10393000199601900D928A95E1F78091BF049091BC
:10394000C004019699279093C0048093BF0481E03E
:1039500029813A81121613060CF080E09110CAC238
:10396000882309F4ADCF8091B304811104C0198676
:103970001A861B861C8689859A85AB85BC85803115
:103980009105A105B10508F09BCFFC018827E45300
:10399000F34E8F4F0C94752B4C1D0B1F7A1F601C20
:1039A000501E831E3C1D441D201D5F1F4E1F5B1FAC
:1039B000601C601C601C0B1D8FEE90E073CFBAE0A2
:1039C000EB16F1040CF44ACFC2CFF12CE12CE8E065
:1039D0006E2E712C29E030E02C0F3D1F2E0D3F1D67
:1039E000AE014F5F5F4FB3016E197F098091B00444
:1039F0009091B10489D8982E29813A81811109C00A
:103A0000E20EF31EE114F10421F0E8E0EE16F104F9
:103A10000CF381E09FCFD6011696ED91FC91808149
:103A20009181A281B38189839A83AB83BC83AE01E8
:103A30004F5F5F4F64E070E085E190E039DB40CF9D
:103A40008D859E8513D92FEF3FEFA90161E070E0CE
:103A5000009771F0FC01C080D180E280F380A80162
:103A6000C701B6010E947E0CA701960170E060E0DC
:103A70008DE190E050DB24CF4D855E859801B60145
:103A80008BE190E072DB1CCF4D855E852FEF3FEF21
:103A9000B6018CE190E0F6CFD6011496ED91FC9141
:103AA00000811181F80182809380A080B18070E153
:103AB000472E512C612C712C49825A826B827C8258
:103AC00088E090E0A0E0B0E08D839E83AF83B8876C
:103AD0009E012F5E3F4FAE014F5F5F4F68E070E089
:103AE0008091B0049091B1040E9466158823D9F0AA
:103AF00010E000E0C80163960FB6F894DEBF0FBE79
:103B0000CDBFDF91CF911F910F91FF90EF90DF908C
:103B1000CF90BF90AF909F908F907F906F905F906D
:103B20004F900C94472C89899A89089709F7D801F6
:103B3000ED90FC90B8E0EB0EF11CEE0CFF1CEE0CCF
:103B4000FF1CC7010E94AB2B8C01892B89F2498293
:103B50005A826B827C82C7010F2C000CAA0BBB0B14
:103B60008D839E83AF83B8879E012F5E3F4FAE014A
:103B70004F5F5F4F68E070E08091B0049091B104B6
:103B80000E9466158111B6CF89899A89089709F034
:103B9000B1CFD6011296ED91FC91408151816281A5
:103BA0007381D8014D935D936D937C9313974481FA
:103BB00055816681778114964D935D936D937C93C7
:103BC0001797408551856285738518964D935D934F
:103BD0006D937C931B9784859585A685B785F801A1
:103BE00084879587A687B787108A118A128A138AD5
:103BF00084E090E0A0E0B0E0848B958BA68BB78B3F
:103C00008091A1029091A202B0E0A0E0808F918FFC
:103C1000A28FB38FC5010B2C000CAA0BBB0B848F9A
:103C2000958FA68FB78FF401D801909690E080E031
:103C30008A159B055CF19E012F5E3F4FA801B701DD
:103C40008091B0049091B1040E946615811152CF09
:103C500089899A89E816F90609F04CCFA70170E026
:103C600060E0C80176D28B8B9E012F5E3F4FAE0184
:103C70004D5E5F4F61E070E08091B0049091B104BF
:103C80000E94661581E08093B30434CF4191519135
:103C900070E060E04D935D936D937D930196C8CF86
:103CA0008D859E85AF85B8890097A105B10521F462
:103CB00081E08093B20404CE0E943616009781F40E
:103CC00081E090E0A0E0B0E089839A83AB83BC837D
:103CD000AE014F5F5F4F64E070E082E190E0AECEF6
:103CE000BC01C6010E94580719821A821B821C82DD
:103CF000AE014F5F5F4F64E070E082E190E0D8D9A1
:103D00008823B1F2DDCDD6011496ED91FC9101909E
:103D1000F081E02DE084F1848FEF8983E114F104D8
:103D200009F472C0D7016D907C90C280D38070E09E
:103D300060E090E080E08615970594F083E190E0E4
:103D40000E94BC1510E000E08111BACD06151705E0
:103D50005CF161E070E0CE0101960E94F315B0CDF8
:103D60009C0143E0220F331F4A95E1F7F701A2813E
:103D7000B381A20FB31F1296ED91FC911397EE0F32
:103D8000FF1FEC0DFD1D0190F081E02D16964D9169
:103D90005C91E49F9001E59F300DF49F300D11245C
:103DA000620F731F0196C7CFD7011296ED91FC9158
:103DB000C80123E0880F991F2A95E1F7E80FF91F42
:103DC000A080B180A281B381AA0FBB1FAC0DBD1D25
:103DD0002D913C9186819781289F4001299F900CCD
:103DE000389F900C1124B401C5010E94F315582E80
:103DF000940150E040E06981C50197D18983511059
:103E00005FCD0F5F1F4FA2CF70E060E083E190E0D5
:103E10000E94BC1555CD50E040E070E060E081E1CB
:103E200090E046D981114CCD60E070E0CB010E945A
:103E3000230980918A04882329F0A80160E070E0BA
:103E4000CB0117DAA80160E070E0CB010E942A08DC
:103E500061E070E080E090E00E94230980918A0494
:103E6000882331F0A80161E070E080E090E001DAA1
:103E7000A80161E070E080E090E00E942A081092C2
:103E8000B4041092B3041092C0041092BF04809145
:103E9000B0049091B1040E94B41512CD81E090E07D
:103EA00090938C0480938B0450E040E070E060E0DD
:103EB00086E190E0C3CD81E0F501808301CD8D8561
:103EC0009E850E9436162FEF3FEFA90161E070E05A
:103ED000009769F0DC01CD90DD90ED90FC90C7017A
:103EE000B6010E94DE0CA701960170E060E08EE151
:103EF00090E0C0CDC8010E941716E2CCCF92DF92AD
:103F0000EF92FF92CF93DF93EC01C12CD12C76017D
:103F1000C701B6010E942309AE01C701B601A9D9A4
:103F2000AE01C701B6010E942A088091AC049091AD
:103F3000AD04009731F00E94472C1092AD0410920E
:103F4000AC04CA94CD28CE28CF2879F58091B3044B
:103F5000F12C882351F050E040E070E060E084E113
:103F600090E0A6D8F82E1092B3048091B404882370
:103F700041F01092B40481E090E09093A20280930B
:103F8000A1028091B0049091B1040E94B715809174
:103F9000B0049091B1040E94AC158F2DDF91CF91A8
:103FA000FF90EF90DF90CF900895C12CD12C760137
:103FB000C394AECFCF93DF93EC01AC0160E070E02F
:103FC000CB010E941311AE0161E070E080E090E04F
:103FD000DF91CF910C94131160E070E0CB010E944F
:103FE000801161E070E080E090E00C948011CF924D
:103FF000DF92EF92FF920F931F93CF93DF93EC0129
:104000006A017B0100E010E098010E942E0D01E0A2
:1040100010E020E030E0B701A601CE010E942E0D95
:10402000DF91CF911F910F91FF90EF90DF90CF9094
:10403000089568EE73E080E090E037D590E080E08E
:10404000089526E040E050E16EE070E08EEC94E0F0
:104050000E9482288EEC94E08BD7892B21F08EEC85
:1040600094E0A0D7F7CF90E080E00895CF92DF9260
:10407000EF92FF920F931F93CF93DF936B017A011F
:10408000E901198218828EEC94E072D7892B71F1C4
:104090008601CC24C39485E6D82E8091C104811179
:1040A00011C08EEC94E07ED785369105B1F7C092B1
:1040B000C104F801D1928F01888199810196998379
:1040C0008883EBCF888199818E159F0578F48EECDB
:1040D00094E068D78F3F9807A9F3F80181938F0187
:1040E00088819981019699838883ECCF90E080E064
:1040F000DF91CF911F910F91FF90EF90DF90CF90C4
:1041000008950F931F93CF93DF93EA0189018EECFB
:1041100094E00E94122BF801D183C08390E080E0EC
:10412000DF91CF911F910F910895DC01A40FB51F6E
:10413000420F531F9D01281B390B2417350710F020
:10414000862F0895ED91E627F0E0EC51FF4F649142
:10415000F1CF9A01AB016FEFE8CFCF93FC01E60FEF
:10416000F71FE40FF51FC081F4DF91E0C81390E062
:10417000892FCF9108958091C20491E0980F909378
:10418000C204882349F021E030E03093C404209336
:10419000C3048093C204089578940E94E203F894C3
:1041A0008091C20481508093C2040C940213FF9248
:1041B0000F931F93CF93DF931F92CDB7DEB710926B
:1041C000650710926407A7D40E948C140091C8025E
:1041D0001091C902F8011182108270E060E090E055
:1041E00080E00E940B130E941305F8947894C80194
:1041F00086960E940A1381E090E00E9406131982BD
:10420000AE014F5F5F4F61E070E0F8018281938102
:104210000E94B1128981882319F081E0F80182A7F8
:104220000E941013F8940E94DF14F801808191819C
:10423000892B19F481E092A5911180E080936407A5
:1042400078947894FF24F39480916407811110C0CE
:104250000E94F10581E090E00E940813F89490E03C
:1042600080E00F90DF91CF911F910F91FF90089503
:104270001982AE014F5F5F4F61E070E0F80182810B
:1042800093810E94EC128981882311F0F801F2A633
:10429000F80180819181892B89F481E092A59111A7
:1042A00001C080E0809365079091650781E09111DE
:1042B00080E0809364070E94FE14C6CF81E0F2CFB5
:1042C0005058BB27AA270ED00DC1FED030F003D125
:1042D00020F031F49F3F11F41EF4F3C00EF4E0958A
:1042E000E7FBE9C0E92F0FD180F3BA176207730724
:1042F0008407950718F071F49EF527C10EF4E09538
:104300000B2EBA2FA02D0B01B90190010C01CA018F
:10431000A0011124FF27591B99F0593F50F4503E3A
:1043200068F11A16F040A22F232F342F4427585F2C
:10433000F3CF469537952795A795F0405395C9F744
:104340007EF41F16BA0B620B730B840BBAF09150FC
:10435000A1F0FF0FBB1F661F771F881FC2F70EC09B
:10436000BA0F621F731F841F48F48795779567956E
:10437000B795F7959E3F08F0B3CF9395880F08F057
:104380009927EE0F97958795089571D008F481E0ED
:10439000089504D06894B111D9C00895BCD088F0B4
:1043A0009F5790F0B92F9927B751A0F0D1F0660F21
:1043B000771F881F991F1AF0BA95C9F712C0B1303C
:1043C00081F0C3D0B1E00895C0C0672F782F88274F
:1043D000B85F39F0B93FCCF3869577956795B3957B
:1043E000D9F73EF490958095709561957F4F8F4FEA
:1043F0009F4F0895E89409C097FB3EF490958095EF
:10440000709561957F4F8F4F9F4F9923A9F0F92F9A
:1044100096E9BB279395F695879577956795B79518
:10442000F111F8CFFAF4BB0F11F460FF1BC06F5FFE
:104430007F4F8F4F9F4F16C0882311F096E911C010
:10444000772321F09EE8872F762F05C0662371F031
:1044500096E8862F70E060E02AF09A95660F771F45
:10446000881FDAF7880F9695879597F90895990F21
:104470000008550FAA0BE0E8FEEF16161706E8072E
:10448000F907C0F012161306E407F50798F0621B4F
:10449000730B840B950B39F40A2661F0232B242B24
:1044A000252B21F408950A2609F4A140A6958FEF43
:1044B000811D811D089597F99F6780E870E060E095
:1044C00008959FEF80EC089500240A9416161706AD
:1044D00018060906089500240A94121613061406F5
:1044E00005060895092E0394000C11F4882352F058
:1044F000BB0F40F4BF2B11F460FF04C06F5F7F4F10
:104500008F4F9F4F089557FD9058440F551F59F0F6
:104510005F3F71F04795880F97FB991F61F09F3FB0
:1045200079F087950895121613061406551FF2CFD9
:104530004695F1DF08C0161617061806991FF1CF29
:1045400086957105610508940895E894BB27662750
:104550007727CB0197F908958ADF08F48FEF089544
:104560000BD0C0CFB1DF28F0B6DF18F0952309F0EB
:10457000A2CFA7CF1124EACFC6DFA0F3959FD1F336
:10458000950F50E0551F629FF001729FBB27F00D01
:10459000B11D639FAA27F00DB11DAA1F649F662756
:1045A000B00DA11D661F829F2227B00DA11D621FA5
:1045B000739FB00DA11D621F839FA00D611D221F5F
:1045C000749F3327A00D611D231F849F600D211D43
:1045D000822F762F6A2F11249F5750408AF0E1F0E6
:1045E00088234AF0EE0FFF1FBB1F661F771F881F2F
:1045F00091505040A9F79E3F510570F05CCFA6CF77
:104600005F3FECF3983EDCF3869577956795B79519
:10461000F795E7959F5FC1F7FE2B880F911D969543
:10462000879597F908950895883008F076C0E82FA7
:10463000F0E0EE0FFF1FED55FD4F71836083815059
:10464000873008F03DC0E82FF0E08827E55DFC4D9D
:104650008F4F0C94752B682332233A234623532320
:1046600074238123809169008C7F482B40936900DB
:10467000E89A089580916900837F440F551F440F85
:10468000551F482B40936900E99A0895809169006D
:104690008F7C74E0440F551F7A95E1F7482B4093C7
:1046A0006900EA9A0895809169008F7366E0440F6B
:1046B000551F6A95E1F7482B40936900EB9A0895DE
:1046C00080916A008C7F482B40936A00EC9A089591
:1046D00080916A00837F440F551F440F551F482B5C
:1046E00040936A00ED9A089580916A008F7C24E0DF
:1046F000440F551F2A95E1F7482B40936A00EE9A24
:10470000089580916A008F7396E0440F551F9A9523
:10471000E1F7482B40936A00EF9A08951F920F9299
:104720000FB60F9211240BB60F922F933F934F9316
:104730005F936F937F938F939F93AF93BF93EF9309
:10474000FF93E091A702F091A8021995FF91EF91D4
:10475000BF91AF919F918F917F916F915F914F9199
:104760003F912F910F900BBE0F900FBE0F901F9097
:1047700018951F920F920FB60F9211240BB60F923D
:104780002F933F934F935F936F937F938F939F9359
:10479000AF93BF93EF93FF93E091A902F091AA0228
:1047A0001995FF91EF91BF91AF919F918F917F915B
:1047B0006F915F914F913F912F910F900BBE0F9092
:1047C0000FBE0F901F9018951F920F920FB60F9269
:1047D00011240BB60F922F933F934F935F936F93D8
:1047E0007F938F939F93AF93BF93EF93FF93E0914A
:1047F000AB02F091AC021995FF91EF91BF91AF918F
:104800009F918F917F916F915F914F913F912F91E8
:104810000F900BBE0F900FBE0F901F9018951F9218
:104820000F920FB60F9211240BB60F922F933F9356
:104830004F935F936F937F938F939F93AF93BF93A8
:10484000EF93FF93E091AD02F091AE021995FF91C5
:10485000EF91BF91AF919F918F917F916F915F91F8
:104860004F913F912F910F900BBE0F900FBE0F9065
:104870001F9018951F920F920FB60F9211240BB62E
:104880000F922F933F934F935F936F937F938F93E9
:104890009F93AF93BF93EF93FF93E091A302F091A7
:1048A000A4021995FF91EF91BF91AF919F918F91C4
:1048B0007F916F915F914F913F912F910F900BBE20
:1048C0000F900FBE0F901F9018951F920F920FB66A
:1048D0000F9211240BB60F922F933F934F935F9338
:1048E0006F937F938F939F93AF93BF93EF93FF93B8
:1048F000E091A502F091A6021995FF91EF91BF9169
:10490000AF919F918F917F916F915F914F913F9167
:104910002F910F900BBE0F900FBE0F901F90189508
:104920001F920F920FB60F9211240BB60F922F9376
:104930003F934F935F936F937F938F939F93AF9327
:10494000BF93EF93FF93E091AF02F091B0021995FE
:10495000FF91EF91BF91AF919F918F917F916F9157
:104960005F914F913F912F910F900BBE0F900FBE13
:104970000F901F9018951F920F920FB60F9211244F
:104980000BB60F922F933F934F935F936F937F9349
:104990008F939F93AF93BF93EF93FF93E091B102F7
:1049A000F091B2021995FF91EF91BF91AF919F9154
:1049B0008F917F916F915F914F913F912F910F90C8
:1049C0000BBE0F900FBE0F901F9018951F920F9265
:1049D0000FB60F9211242F933F938F939F93AF9312
:1049E000BF938091C6049091C704A091C804B09170
:1049F000C9043091C50423E0230F2D3758F50196E3
:104A0000A11DB11D2093C5048093C6049093C704D3
:104A1000A093C804B093C9048091CA049091CB04B8
:104A2000A091CC04B091CD040196A11DB11D80933D
:104A3000CA049093CB04A093CC04B093CD04BF914F
:104A4000AF919F918F913F912F910F900FBE0F903B
:104A50001F90189526E8230F0296A11DB11DD2CFF5
:104A60003FB7F8948091CA049091CB04A091CC04F4
:104A7000B091CD0426B5A89B05C02F3F19F0019633
:104A8000A11DB11D3FBFBA2FA92F982F8827BC01A8
:104A9000CD01620F711D811D911D42E0660F771FD0
:104AA000881F991F4A95D1F708958F929F92AF92D0
:104AB000BF92CF92DF92EF92FF926B017C01D0DF29
:104AC0004B015C01C114D104E104F104D9F0D7D544
:104AD000C7DF681979098A099B09683E7340810517
:104AE000910580F321E0C21AD108E108F10888EEAF
:104AF000880E83E0981EA11CB11CC114D104E104EE
:104B0000F10431F7FF90EF90DF90CF90BF90AF901E
:104B10009F908F900895789484B5826084BD84B509
:104B2000816084BD85B5826085BD85B5816085BDA8
:104B3000EEE6F0E0808181608083E1E8F0E01082C1
:104B4000808182608083808181608083E0E8F0E002
:104B5000808181608083E1EBF0E0808184608083EC
:104B6000E0EBF0E0808181608083E1E9F0E080812A
:104B700082608083808181608083E0E9F0E08081D1
:104B800081608083E1EAF0E08081826080838081BF
:104B900081608083E0EAF0E0808181608083E1E2EF
:104BA000F1E0808182608083808181608083E0E2A7
:104BB000F1E0808181608083EAE7F0E080818460B9
:104BC0008083808182608083808181608083808116
:104BD000806880831092C10008951F93CF93DF9364
:104BE000182FEB0161E033D1209731F460E0812F81
:104BF000DF91CF911F9167C1CF3FD10511F461E0E3
:104C0000F6CFE12FF0E0EC51FE4FE491E150E231BC
:104C100008F0B2C0F0E08827E05FF94D8F4F65C51E
:104C200022262A262F2639264326BC264D265526FF
:104C30005D26672671267B268A269426BC269E261C
:104C4000A826B22684B5806884BDC7BDDF91CF9108
:104C50001F91089584B5806284BDC8BDF7CF80914F
:104C60008000806880938000D0938900C093880082
:104C7000EDCF80918000806280938000D0938B0084
:104C8000C0938A00E3CF8091800088608093800089
:104C9000D0938D00C0938C00D9CF8091B0008068F4
:104CA0008093B000C093B300D1CF8091B0008062F8
:104CB0008093B000C093B400C9CF80919000806809
:104CC00080939000D0939900C0939800BFCF8091BB
:104CD0009000806280939000D0939B00C0939A00D4
:104CE000B5CF80919000886080939000D0939D0014
:104CF000C0939C00ABCF8091A00080688093A000FF
:104D00008091A0008F7B8093A000D093A900C093D6
:104D1000A8009CCF8091A00080628093A000D093D7
:104D2000AB00C093AA0092CF8091A00088608093CE
:104D3000A000D093AD00C093AC0088CF809120013B
:104D4000806880932001D0932901C09328017ECFF1
:104D500080912001806280932001D0932B01C09329
:104D60002A0174CF80912001886080932001D09324
:104D70002D01C0932C016ACFC038D1050CF03FCF74
:104D800035CF8150823108F059C0E82FF0E08827F4
:104D9000E453F94D8F4FA9C4EC26F026DE26E42615
:104DA000E8261E27F326F926FD26032707270B27CB
:104DB000112715271E2719271F27232780918000D9
:104DC0008F77809380000895809180008F7DF9CF48
:104DD00080918000877FF5CF84B58F7784BD08955B
:104DE00084B58F7DFBCF8091B0008F778093B0002A
:104DF00008958091B0008F7DF9CF809190008F77DA
:104E0000809390000895809190008F7DF9CF8091DC
:104E10009000877FF5CF8091A0008F778093A000CE
:104E200008958091A0008F7DF9CF8091A000877FA9
:104E3000F5CF809120018F77809320010895809194
:104E400020018F7DF9CF80912001877FF5CFCF930F
:104E5000DF9390E0FC01E65DFD4F249180599D4F6A
:104E6000FC0184918823C9F090E0880F991FFC0110
:104E7000E651FD4FA591B491FC01E053FD4FC59162
:104E8000D49161110DC09FB7F8948C912095822325
:104E90008C938881282328839FBFDF91CF91089529
:104EA000623051F49FB7F8943C91822F8095832310
:104EB0008C93E8812E2BEFCF8FB7F894EC912E2BAB
:104EC0002C938FBFEACF1F93CF93DF93282F30E02F
:104ED000F901EC51FE4F8491F901E65DFD4FD4914B
:104EE000F901E059FD4FC491CC23A1F0162F811197
:104EF00048DFEC2FF0E0EE0FFF1FE053FD4FA591D0
:104F0000B4918FB7F894EC91111108C0D095DE23BD
:104F1000DC938FBFDF91CF911F910895DE2BF8CFE7
:104F2000CF93DF93282F30E0F901EC51FE4F8491AD
:104F3000F901E65DFD4FD491F901E059FD4FC491AF
:104F4000CC2399F081111DDFEC2FF0E0EE0FFF1F55
:104F5000EA54FD4FA591B491EC91ED2381E090E0EE
:104F600009F480E0DF91CF91089580E090E0FACFDE
:104F7000FC01918D228D892F90E0805C9F4F821BD8
:104F800091098F7399270895FC01918D828D98174F
:104F900031F0828DE80FF11D858D90E008958FEF3F
:104FA0009FEF0895FC01918D828D981761F0A28D7D
:104FB000AE0FBF2FB11D5D968C91928D9F5F9F7339
:104FC000928F90E008958FEF9FEF0895FC01538D2D
:104FD000448D252F30E0842F90E0821B930B5417D3
:104FE00010F0CF96089501970895FC01A48DA80FA5
:104FF000B92FB11DA35ABF4F2C91848D90E001961B
:105000008F739927848FA689B7892C93A089B1893A
:105010008C91837080648C93938D848D981306C0DB
:105020000288F389E02D80818F7D80830895CF935E
:10503000DF93EC01888D8823B1F0AA89BB89E889C8
:10504000F9898C9185FD03C0808186FD0CC00FB667
:1050500007FCF7CF8C9185FFF2CF808185FFEDCFE4
:10506000CE01C3DFEACFDF91CF910895EF92FF9297
:105070000F931F93CF93DF93EC0181E0888F9B8D7B
:105080008C8D98131AC0E889F989808185FF15C035
:105090009FB7F894EE89FF896083E889F989808158
:1050A0008370806480839FBF81E090E0DF91CF9127
:1050B0001F910F91FF90EF900895F62E0B8D10E049
:1050C0000F5F1F4F0F731127E02E8C8D8E110BC0B9
:1050D0000FB607FCFACFE889F989808185FFF5CF03
:1050E000CE0183DFF2CFEB8DEC0FFD2FF11DE35AE4
:1050F000FF4FF0829FB7F8940B8FEA89FB8980817C
:105100008062D0CFCF92DF92EF92FF921F93CF9326
:10511000DF93EC016A017B01122FE889F98982E0B3
:105120008083C11481EED806E104F10499F060E0B7
:1051300079E08DE390E0A7019601B5D221503109C5
:10514000410951095695479537952795211580E1D5
:10515000380790F0E889F989108260E874E88EE1F8
:1051600090E0A70196019FD22150310941095109D0
:105170005695479537952795EC85FD853083EE85C7
:10518000FF852083188EEC89FD891083EA89FB89CD
:10519000808180618083EA89FB8980818860808347
:1051A000EA89FB89808180688083EA89FB89808124
:1051B0008F7D8083DF91CF911F91FF90EF90DF90E3
:1051C000CF9008951F920F920FB60F9211240BB635
:1051D0000F922F938F939F93EF93FF93E091DE04B1
:1051E000F091DF048081E091E404F091E50482FD18
:1051F0001DC090818091E7048F5F8F732091E80438
:10520000821741F0E091E704F0E0E253FB4F958F05
:105210008093E704FF91EF919F918F912F910F90D1
:105220000BBE0F900FBE0F901F9018958081F2CF8C
:105230001F920F920FB60F9211240BB60F922F935D
:105240003F934F935F936F937F938F939F93AF930E
:10525000BF93EF93FF938EEC94E0C7DEFF91EF9145
:10526000BF91AF919F918F917F916F915F914F917E
:105270003F912F910F900BBE0F900FBE0F901F907C
:105280001895EEECF4E01382128288EE93E0A0E031
:10529000B0E084839583A683B7838AE993E0918302
:1052A000808385EC90E09587848784EC90E09787F5
:1052B000868780EC90E0918B808B81EC90E0938BE3
:1052C000828B82EC90E0958B848B86EC90E0978BC0
:1052D000868B118E128E138E148E08951F920F924C
:1052E0000FB60F9211240BB60F922F938F939F93AB
:1052F000EF93FF93E0917B05F0917C058081E09135
:105300008105F091820582FD1DC090818091840508
:105310008F5F8F7320918505821741F0E09184059E
:10532000F0E0E559FA4F958F80938405FF91EF9156
:105330009F918F912F910F900BBE0F900FBE0F90EA
:105340001F9018958081F2CF1F920F920FB60F9287
:1053500011240BB60F922F933F934F935F936F934C
:105360007F938F939F93AF93BF93EF93FF938BE6BE
:1053700095E03BDEFF91EF91BF91AF919F918F91AF
:105380007F916F915F914F913F912F910F900BBE45
:105390000F900FBE0F901F901895EBE6F5E013826B
:1053A000128288EE93E0A0E0B0E084839583A68328
:1053B000B7838AE993E0918380838DEC90E09587B1
:1053C00084878CEC90E09787868788EC90E0918BBF
:1053D000808B89EC90E0938B828B8AEC90E0958BAC
:1053E000848B8EEC90E0978B868B118E128E138EB1
:1053F000148E08951F920F920FB60F9211240BB6C0
:105400000F922F938F939F93EF93FF93E091180642
:10541000F09119068081E0911E06F0911F0682FD31
:105420001DC09081809121068F5F8F73209122068D
:10543000821741F0E0912106F0E0E85FF94F958F87
:1054400080932106FF91EF919F918F912F910F9063
:105450000BBE0F900FBE0F901F9018958081F2CF5A
:105460001F920F920FB60F9211240BB60F922F932B
:105470003F934F935F936F937F938F939F93AF93DC
:10548000BF93EF93FF9388E096E0AFDDFF91EF913C
:10549000BF91AF919F918F917F916F915F914F914C
:1054A0003F912F910F900BBE0F900FBE0F901F904A
:1054B0001895E8E0F6E01382128288EE93E0A0E00F
:1054C000B0E084839583A683B7838AE993E09183D0
:1054D000808385ED90E09587848784ED90E09787C1
:1054E000868780ED90E0918B808B81ED90E0938BAF
:1054F000828B82ED90E0958B848B86ED90E0978B8C
:10550000868B118E128E138E148E08951F920F9219
:105510000FB60F9211240BB60F922F938F939F9378
:10552000EF93FF93E091B506F091B6068081E0918C
:10553000BB06F091BC0682FD1DC090818091BE0625
:105540008F5F8F732091BF06821741F0E091BE06F6
:10555000F0E0EB55F94F958F8093BE06FF91EF91E8
:105560009F918F912F910F900BBE0F900FBE0F90B8
:105570001F9018958081F2CF1F920F920FB60F9255
:1055800011240BB60F922F933F934F935F936F931A
:105590007F938F939F93AF93BF93EF93FF9385EA8E
:1055A00096E023DDFF91EF91BF91AF919F918F9195
:1055B0007F916F915F914F913F912F910F900BBE13
:1055C0000F900FBE0F901F901895E5EAF6E013823A
:1055D000128288EE93E0A0E0B0E084839583A683F6
:1055E000B7838AE993E09183808385E391E095878F
:1055F000848784E391E09787868780E391E0918BAD
:10560000808B81E391E0938B828B82E391E0958B99
:10561000848B86E391E0978B868B118E128E138E8E
:10562000148E0895AF92BF92CF92DF92EF92FF92C5
:105630000F931F93CF93DF936C017B018B01040FBA
:10564000151FEB015E01AE18BF08C017D10759F056
:105650006991D601ED91FC910190F081E02DC60198
:105660001995892B79F7C501DF91CF911F910F9182
:10567000FF90EF90DF90CF90BF90AF900895089586
:1056800097FB072E16F4009406D077FD08D035D08E
:1056900007FC05D03EF4909581959F4F0895709535
:1056A00061957F4F0895A1E21A2EAA1BBB1BFD0135
:1056B0000DC0AA1FBB1FEE1FFF1FA217B307E407F1
:1056C000F50720F0A21BB30BE40BF50B661F771F49
:1056D000881F991F1A9469F7609570958095909529
:1056E0009B01AC01BD01CF010895EE0FFF1F881F84
:1056F0008BBF0790F691E02D1994AA1BBB1B51E1BB
:1057000007C0AA1FBB1FA617B70710F0A61BB70B31
:10571000881F991F5A95A9F780959095BC01CD01D6
:1057200008950F931F93CF93DF93869F8001879FE8
:10573000100D969F100D1124C8010DD0EC0100979B
:1057400021F0A80170E060E034D1CE01DF91CF916B
:105750001F910F9108950F931F93CF93DF93823082
:10576000910510F482E090E0E0916807F0916907FC
:1057700030E020E0B0E0A0E0309799F42115310549
:1057800009F44AC0281B390B24303105D8F58A8129
:105790009B816115710589F1FB0193838283FE0171
:1057A00011C0408151810281138148175907E0F0EF
:1057B0004817590799F4109761F012960C931297B5
:1057C00013961C933296CF01DF91CF911F910F91C9
:1057D00008950093680710936907F4CF21153105E8
:1057E00051F04217530738F0A901DB019A01BD01BE
:1057F000DF01F801C1CFEF01F9CF909369078093E2
:105800006807CDCFFE01E20FF31F819391932250E1
:10581000310939832883D7CF2091660730916707F4
:10582000232B41F420910202309103023093670749
:105830002093660720910002309101022115310565
:1058400041F42DB73EB74091040250910502241B4C
:10585000350BE0916607F0916707E217F307A0F4B4
:105860002E1B3F0B2817390778F0AC014E5F5F4FB6
:105870002417350748F04E0F5F1F5093670740937A
:105880006607819391939FCFF0E0E0E09CCFCF93A8
:10589000DF930097E9F0FC01329713821282A09106
:1058A0006807B0916907ED0130E020E01097A1F49E
:1058B00020813181820F931F209166073091670705
:1058C0002817390709F061C0F0936707E09366076E
:1058D000DF91CF910895EA01CE17DF07E8F54A81FD
:1058E0005B819E0141155105B1F7E901FB83EA8314
:1058F00049915991C40FD51FEC17FD0761F48081C0
:1059000091810296840F951FE90199838883828192
:1059100093819B838A83F0E0E0E012968D919C91C5
:1059200013970097B9F52D913C911197CD010296EF
:10593000820F931F20916607309167072817390758
:1059400039F6309751F51092690710926807B093B5
:105950006707A0936607BCCFD383C2834081518180
:10596000840F951FC817D90761F44E5F5F4F888178
:105970009981480F591F518340838A819B8193836A
:1059800082832115310509F0B0CFF0936907E093C8
:1059900068079ECFFD01DC01C0CF13821282D7CFF2
:1059A000FB01DC0102C001900D9241505040D8F73C
:1059B0000895DC0101C06D9341505040E0F7089517
:1059C000FB01DC018D91019080190110D9F3990B35
:0659D0000895F894FFCFDA
:1059D60000006A07800003000A0296020400000025
:1059E60002009A020800000003009D020300000066
:1059F60002000600260242070400000002004607D5
:105A06000F000000010052070E00000001005A07B7
:105A16000000000001005E070B00000002006207A4
:105A2600080000000200CA02D102DB02DA02E30229
:105A3600E202EC02EB02F402FE0209030F03190371
:105A460022033603410304000400010001000200A2
:105A56000200040004000100040002000200040029
:105A6600080008000C00000074000001000001019D
:105A760001010013231323132313231323132313C7
:105A860023132353696D756C6174696F6E206669A3
:105A96006E69736865640001D7037265616C5F5453
:105AA600007265616C33325F540075696E74385FDD
:105AB600540075696E7431365F540075696E7433BF
:105AC600325F5400626F6F6C65616E5F540066638F
:105AD6006E5F63616C6C5F5400696E745F54007036
