:1000000085C100000C946D230C9498230C94C32399
:100010000C94EE230C9419240C9444240C946F2417
:100020000C949A24A4C10000A2C10000A0C1000049
:100030009EC100009CC100009AC1000098C1000050
:1000400096C1000094C1000092C1000090C1000060
:100050008EC100008CC100008AC100000C94C52430
:1000600086C100000C94C1280C94F72880C10000C0
:100070007EC100007CC100007AC1000078C1000090
:1000800076C1000074C1000072C1000070C10000A0
:100090000C944D290C9483296AC1000068C10000AA
:1000A00066C1000064C1000062C1000060C10000C0
:1000B0005EC100005CC100005AC1000058C10000D0
:1000C00056C1000054C100000C9490140C94D9291E
:1000D0000C940F2A4CC100000C94652A0C949B2AA6
:1000E00046C10000001D3A2774694E53E8F5D2CF8F
:1000F0009C81A6BBCDD0F7EAB9A4839E25381F0208
:10010000514C6B76879ABDA0F3EEC9D46F725548F7
:100110001B06213C4A57706D3E230419A2BF9885E7
:10012000D6CBECF1130E2934677A5D40FBE6C1DCD7
:100130008F92B5A8DEC3E4F9AAB7908D362B0C11C7
:10014000425F78659489AEB3E0FDDAC77C61465BB7
:100150000815322F5944637E2D30170AB1AC8B96A7
:10016000C5D8FFE2263B1C01524F6875CED3F4E997
:10017000BAA7809DEBF6D1CC9F82A5B8031E392487
:10018000776A4D50A1BC9B86D5C8EFF24954736E77
:100190003D20071A6C71564B1805223F8499BEA367
:1001A000F0EDCAD735280F12415C7B66DDC0E7FA57
:1001B000A9B4938EF8E5C2DF8C91B6AB100D2A3747
:1001C00064795E43B2AF8895C6DBFCE15A47607D37
:1001D0002E3314097F6245580B16312C978AADB027
:1001E000E3FED9C400000A0B02090C0D0E08070338
:1001F00004010000000000000000000000000000FA
:1002000000000000000000000000000000000000EE
:1002100012111000000000000000000000000000AB
:100220000000000000000000000001021020200873
:100230000810204010204080020102010804020141
:1002400001020408102040808040201008040201B0
:100250008004020180402010080402010804020109
:100260000102040810204080010204081020408090
:1002700005050505070508080808020202020A0A22
:100280000808040404040101010101010101030340
:10029000030303030303040707070C0C0C0C0C0CEB
:1002A0000C0C0202020206060606060606060B0BE8
:1002B0000B0B0B0B0B0B000020002300260029006A
:1002C0002C002F003200000100000301060109018B
:1002D00000002200250028002B002E0031003400F1
:1002E00002010000050108010B01000021002400AB
:1002F00027002A002D003000330001010000040116
:1003000007010A012029AC29382AC42A11241FBE5A
:10031000CFEFD1E2DEBFCDBF00E00CBF13E0A0E025
:10032000B2E0E4E9F9E500E00BBF02C007900D92EE
:10033000AC3BB107D9F727E0ACEBB3E001C01D92AD
:10034000A138B207E1F711E0C6E8D1E000E006C04D
:1003500021970109802FFE010E94542BC238D1073A
:1003600080E00807A9F70E94B6200C94C82C48CE5C
:10037000611102C00C9406276130E1F362E0FACF0C
:10038000662319F061E00C94422760E0FCCF0895E9
:10039000CF92DF92EF92FF92CF93882351F16A01BF
:1003A0007B01CFEFC80F20E030E0A901CB01B601FF
:1003B0000E94A42187FF11C0C701B60190580E9476
:1003C000AD219B01AC016C2F70E090E080E0CF91FB
:1003D000FF90EF90DF90CF90B2C0C701B6010E94AE
:1003E000A8218C2FCF91FF90EF90DF90CF900C94AD
:1003F000CC25CF91FF90EF90DF90CF9008950F9391
:100400001F938B019C0183E03695279517950795DF
:100410008A95D1F704541C4F462F477021E030E0F5
:10042000F90102C0EE0FFF1F4A95E2F7AF01F80194
:1004300020812423CB010196211102C090E080E0AD
:100440001F910F9108950F931F938B019C0183E0DF
:1004500036952795179507958A95D1F7677081E0AE
:1004600090E001C0880F6A95EAF7F801E454FC4F68
:100470002081452B31F48095822380831F910F9139
:100480000895822BFACF2F923F924F925F926F92F4
:100490007F928F929F92AF92BF92CF92DF92EF9214
:1004A000FF920F931F93CF93DF93D62EC72E782EF4
:1004B000692E49015A01280161E08D2D0E9406270D
:1004C000CD2DDC2D8E010F5F1F4FA8016D2D7C2DD2
:1004D000872D962DB8DF20E030E0A901C201B701D9
:1004E0000E948B22181664F4C201B7010E94AD214C
:1004F0002B01C501B4010E94AD21A201CE0123D080
:10050000C801DF91CF911F910F91FF90EF90DF9085
:10051000CF90BF90AF909F908F907F906F905F90A3
:100520004F903F902F900895882341F08150682F7D
:1005300070E090E080E050E040E085CF0895862FA5
:10054000B9010C94CC259C01FC01EC51FE4FE491C7
:10055000E150E231E0F4F0E08827EE54FD4F8F4F98
:100560000C94542BC402CB02CE02E502FA02C7025D
:100570000F031B031F0336034B03600377038C0336
:10058000C702A103B803CD0384B5806884BD60E0D1
:10059000822F0C94422784B58062F8CF809180002E
:1005A0008C7F82608093800080918100807E80615A
:1005B000682B609381005093870040938600809160
:1005C0008000806880938000E2CF809180008C7FE3
:1005D00082608093800080918100807E8061682BA2
:1005E0006093810050938700409386008091800043
:1005F0008062E8CF809180008C7F82608093800051
:1006000080918100807E8061682B6093810050938F
:10061000870040938600809180008860D3CF8091CE
:10062000B00080688093B0008091B100887F682B13
:100630006093B100ACCF8091B0008062F3CF809125
:1006400090008C7F82608093900080919100807EEA
:100650008061682B609391005093970040939600BF
:100660008091900080688093900091CF809190005D
:100670008C7F82608093900080919100807E806169
:10068000682B60939100509397004093960080915F
:1006900090008062E8CF809190008C7F8260809390
:1006A000900080919100807E8061682B6093910022
:1006B0005093970040939600809190008860D3CF2C
:1006C0008091A0008C7F82608093A0008091A10027
:1006D000807E8061682B6093A1005093A7004093B7
:1006E000A6008091A00080688093A00050CF8091E8
:1006F000A0008C7F82608093A0008091A100807E0A
:100700008061682B6093A1005093A7004093A600DE
:100710008091A0008062E8CF8091A0008C7F8260F1
:100720008093A0008091A100807E8061682B6093FF
:10073000A1005093A7004093A6008091A00088607C
:10074000D3CF809120018C7F8260809320018091A3
:100750002101807E8061682B6093210150932701E5
:1007600040932601809120018068809320010FCF63
:10077000809120018C7F82608093200180912101F3
:10078000807E8061682B6093210150932701409304
:100790002601809120018062E8CF809120018C7F2A
:1007A00082608093200180912101807E8061682B8E
:1007B00060932101509327014093260180912001ED
:1007C0008860D3CF4F925F926F927F928F929F9269
:1007D000AF92BF92CF92DF92EF92FF92CF93DF93CF
:1007E00081E040917707509178072091A6023091DF
:1007F000A7024217530709F080E080935A072FE6BB
:1008000037E048E557E066E577E08AE597E00E9443
:10081000F3138091B0026091AE02813011F06091CB
:10082000AF028AE0ADDD609163077091640780914B
:10083000650790916607E3DDEC0190936207809372
:1008400061078091B1026091AA027091AB02813080
:1008500021F06091AC027091AD02072E000C880B64
:10086000990B0E94DB216B017C0120E030E04FE717
:1008700053E40E94A42187FFE2C020E030E0A901F8
:10088000C701B6010E948B2218160CF0DFC0B70119
:10089000A601CE017DDD8091560790915707909378
:1008A0007807809377072FE637E048E557E066E55D
:1008B00077E08AE597E00E94251481E090E00E94AD
:1008C000211340910104509102046091030470913E
:1008D000040490E080E00E941D1380901104909029
:1008E0001204A0901304B090140420E030E040E81B
:1008F0005FEBC501B4010E94A421882331F1C090AF
:100900000104D0900204E0900304F0900404A701D5
:100910009601C501B4010E943F214B015C0120E01A
:1009200030E040E054E3C701B6010E948F229B01F2
:10093000AC01C501B4010E948B22181634F086EC7C
:1009400092E09093EC038093EB038091150488234D
:1009500031F086EC92E09093EC038093EB03C0902F
:100960000504D0900604E0900704F09008048FEF8F
:10097000C81AD80AE80AF80AC0920504D0920604F8
:10098000E0920704F0920804C114D104E104F104D8
:1009900099F48091090490910A04A0910B04B091FC
:1009A0000C040196A11DB11D8093090490930A04C3
:1009B000A0930B04B0930C0480900D0490900E044F
:1009C000A0900F04B09010046091090470910A0483
:1009D00080910B0490910C040E94D921A5019401EF
:1009E0000E948F2220E030E040E85FE40E948F22E6
:1009F0002B013C01C701B6010E94D921A501940138
:100A00000E948F229B01AC01C301B2010E944021D0
:100A10006093010470930204809303049093040490
:100A2000DF91CF91FF90EF90DF90CF90BF90AF908C
:100A30009F908F907F906F905F904F900895C12C02
:100A4000D12C8FE7E82E83E4F82E21CFC12CD12CB6
:100A500076011DCF8F929F92AF92BF92DF92EF925D
:100A6000FF920F931F93CF93DF93EBEEF3E08BE2B4
:100A7000DF011D928A95E9F780E090E0A0E8BFEBE6
:100A800086A397A3A0A7B1A78FE692E1A3E8BAE354
:100A900082A393A3A4A3B5A382E894E6A2E2BBE851
:100AA00084839583A683B78383EC9DE5A5E9B4EBA6
:100AB00080879187A287B38780E192E4A3E4B4E0C2
:100AC00084879587A687B78785E69EE7A8E6B8E17D
:100AD000808B918BA28BB38BAFEDB3E0B383A283FA
:100AE000C9EDD3E01196DC93CE938AED92E0998321
:100AF00088839B838A839D838C838FEF93E01596F5
:100B00009C938E9314978FEE93E013969C938E9301
:100B1000129781E094E017969C938E931697A6E522
:100B2000B7E085E0ED0119928A95E9F7CBE5D7E0CA
:100B300080E2DE011D928A95E9F72FEC33E08AE02E
:100B4000D9011D928A95E9F7A5ECB3E0B58BA48B8A
:100B500080E190E011969C938E9386E892E0139644
:100B60009C938E93129786E692E015969C938E93B3
:100B7000149782E292E017969C938E93169786E0E4
:100B800092E019969C938E931897DD24D394DF8E70
:100B9000812C912C540183948D869E86AF86B88AD1
:100BA00061E08AE0E5DBD98A1882DE8E89E090E098
:100BB000A0E0B0E088879987AA87BB871D828982D9
:100BC0009A82AB82BC82E12CF12C8701A8019701AB
:100BD00069E070E080E090E056DC9F838E8368855A
:100BE00079858A859B850BDC9F838E83D0DBDD82B4
:100BF0008091A8029091A9029D8F8C8FEC8AFD8A2A
:100C00000E8B1F8BDF91CF911F910F91FF90EF9073
:100C1000DF90BF90AF909F908F900895809167076D
:100C2000811103C081E08093670780915B07811188
:100C300032C081E080935B0780915C0790915D07F3
:100C4000A0915E07B0915F070197A105B10519F565
:100C5000809160078823F9F06091630770916407C1
:100C60008091650790916607CADB90936207809335
:100C7000610740E050E0BA018BDB6091630770913F
:100C800064078091650790916607B9DB90936207CE
:100C90008093610749CC0895EF92FF920F931F93C1
:100CA000CF93DF93EA01F901DC011496ED90FC90FB
:100CB000159712964D915C9113974E0D5F1D2881EB
:100CC000398118960D911C9119970217130730F06E
:100CD0000D911C911197012B09F441C08A01021B4F
:100CE000130BDC0118968D919C918E199F09800F32
:100CF000911F86179707DCF1C901860F971F84178C
:100D0000950778F47183608333832283158214827C
:100D10001782168288819981680F791F7983688389
:100D200016C01183008333832283601B710B75838C
:100D3000648390E080E01616170614F49E2D8F2D24
:100D400096838783D701A60FB71FB983A88380E056
:100D5000DF91CF911F910F91FF90EF90089518961A
:100D60008D919C91821B930B861797075CF681E00F
:100D7000EFCFCF92DF92EF92FF92CF93DF936B0191
:100D800084E4869FE001879FD00D1124CA5EDB4F6B
:100D90008AA99BA9009721F00E94262C1BAA1AAAB7
:100DA00084E48C9DF0018D9DF00D1124EA5EFB4FD3
:100DB00086A997A9009711F00E94262C84E48C9DA7
:100DC000F0018D9DF00D1124EA5EFB4F138A128A0B
:100DD000168A178A108E118E128E138E148E158E0F
:100DE000168E178E10A211A281E090E093A382A329
:100DF00015A214A216A217A210A611A613A612A637
:100E000015A614A616A617A610AA11AA13AA12AA06
:100E100015AA14AA17AA16AA11AE10AE12AE13AED6
:100E200014AE15AEDF01DE961D921D921D921C922E
:100E30001397EE5BFF4F11821082DF91CF91FF90ED
:100E4000EF90DF90CF900895CF93DF93FB01DC010B
:100E50006D917C91DB011696CD91DC918081918121
:100E600023E0880F991F2A95E1F7AA81BB81A80F7B
:100E7000B91F8D919C91119724853585220F331FC1
:100E8000EB016A817B81EB01C20FD31F0990D881EE
:100E9000C02D14962D913C9161E070E0232B11F050
:100EA00062E070E0C69F9001C79F300DD69F300D65
:100EB0001124A085B1852A9FB0012B9F700D3A9F08
:100EC000700D1124A481B5812A9FF0012B9FF00D94
:100ED0003A9FF00D11248E0F9F1FFA01918380839A
:100EE00073836283DF91CF9108952F923F924F9247
:100EF0005F926F927F928F929F92AF92BF92CF92AA
:100F0000DF92EF92FF920F931F93CF93DF9300D066
:100F100000D0CDB7DEB7DC011496ED91FC910190C5
:100F2000F081E02D808591859A838983A281B381A8
:100F3000BC83AB83FB0181909190A190B190C12CB7
:100F4000D12C7601C814D904EA04FB04CCF026960F
:100F50000FB6F894DEBF0FBECDBFDF91CF911F91CA
:100F60000F91FF90EF90DF90CF90BF90AF909F9048
:100F70008F907F906F905F904F903F902F9008954B
:100F80004480558066807780408551856285738571
:100F9000CF0140969E838D83A081B1819D0183E026
:100FA000220F331F8A95E1F7A981BA8112968D919C
:100FB0009C91D901A80FB91F2D903C9011970484E2
:100FC000F585E02DEE0FFF1F8B819C81E80FF91F47
:100FD0000190F081E02D14968D919C91892B41F523
:100FE00081E090E0E89F9001E99F300DF89F300D7F
:100FF0001124249F8001259F100D349F100D112472
:10100000249DC001259D900D349D900D1124A801B3
:101010006D817E81820D931D0E94AF2CED81FE813A
:10102000E00FF11F9FEFC91AD90AE90AF90A8ACF1E
:1010300082E090E0D7CFCF93DF93DB01AE54BD4F7A
:101040002C91222369F024E4269FF001279FF00DC4
:101050001124EA5EFB4FEF0119922A95E9F71C92E1
:1010600024E4269FF001279FF00D1124EA5EFB4F38
:1010700014821582168217821186108613861286B4
:10108000118A108A17861686DF91CF9172CE2F9221
:101090003F924F925F926F927F928F929F92AF9208
:1010A000BF92CF92DF92EF92FF920F931F93CF9355
:1010B000DF9300D000D01F921F92CDB7DEB724E49B
:1010C000269FF001279FF00D1124EA5EFB4F04815B
:1010D000158126813781012B022B032B09F4B7C020
:1010E0002A016B017C0110E000E0812C912C54015D
:1010F0003F019F01285F3F4F3C832B83CF01049624
:101100009E838D83AB81BC818D919C91ED81FE810D
:10111000408151816281738184169506A606B706C7
:10112000E4F10E94262CD3011A968D919C91892B73
:1011300009F07EC084E48C9DD0018D9DB00D1124FA
:10114000AA5EBB4FBC83AB8350968D919C910E944D
:10115000262CEB81FC81868597850E94262CC70171
:10116000B60107DEC701B60128960FB6F894DEBFB8
:101170000FBECDBFDF91CF911F910F91FF90EF90E8
:10118000DF90CF90BF90AF909F908F907F906F90A7
:101190005F904F903F902F904ECFFC01E00FF11FDA
:1011A00092819983A381AA839F83A887312C212CC4
:1011B0002414350464F089819A810E94262CEFEF73
:1011C0008E1A9E0AAE0ABE0A0C5F1F4F9BCFAF81DC
:1011D000B885ED91FD91B887AF83309759F0848140
:1011E00095810E94262CEF81F8853297808191812C
:1011F0000E94262CBFEF2B1A3B0ADACF800F911FDB
:10120000FC01848195810E94262C2B813C812F5FDB
:101210003F4F3C832B83025F1F4FF50180819181FB
:101220002B813C81241535054CF30E94262C82CF5E
:1012300010E000E01C821B8224E42C9DC0012D9D47
:10124000900D1124DC01A05EBB4F5D01E6CF289616
:101250000FB6F894DEBF0FBECDBFDF91CF911F91C7
:101260000F91FF90EF90DF90CF90BF90AF909F9045
:101270008F907F906F905F904F903F902F90089548
:1012800024E4269FF001279FF00D1124EA5EFB4F16
:10129000828993890497029758F485E090E0938BB4
:1012A000828B8FEF9FEFDC01828F938FA48FB58F9E
:1012B00008952F923F924F925F926F927F928F92FA
:1012C0009F92AF92BF92CF92DF92EF92FF920F93D5
:1012D0001F93CF93DF93CDB7DEB7AA970FB6F894DD
:1012E000DEBF0FBECDBF9AA389A37E8B6D8B1A0183
:1012F000098B1A8B2B8B3C8B84E429893A89829F3A
:101300006001839FD00C112486010A5E1B4F8989DE
:101310009A89AB89BC89F80180839183A283B383C6
:10132000AB01BC01CD01B3DED601A65EBB4F84E0AC
:10133000F10101900D928A95E1F7F4E02F0E311C36
:1013400064E070E0D80114968D919C910E94702BFE
:10135000F80191878087892B09F0F5C04D895E8956
:1013600069897A898B899C8992DE81E0AA960FB679
:10137000F894DEBF0FBECDBFDF91CF911F910F91CB
:10138000FF90EF90DF90CF90BF90AF909F908F90A5
:101390007F906F905F904F903F902F900895A9A5F8
:1013A000BAA58D919C91E98DFA8DE80FF91FF88F00
:1013B000EF8BD1018D919C91880F991FA9A1BAA1A2
:1013C000ED91FC91E80FF91F80819181EF89F88DF3
:1013D00091838083D10114962D913D914D915C9123
:1013E00017972BA33CA34DA35EA362E070E08D8909
:1013F0009E890E94702BEF89F88D93838283892BBD
:1014000009F4ACCFF8E02F0E311C412C512C3201E5
:101410002BA13CA14DA15EA14216530664067506A0
:101420009CF02B8D3C8D4D8D5E8D2F5F3F4F4F4F30
:101430005F4F2B8F3C8F4D8F5E8F498D5A8D4C5F48
:101440005F4F5A8F498F90C0610124E0C20ED11CBA
:10145000D101ED90FC90EE0CFF1CEF89F88D82819C
:101460009381E80EF91E68E070E081E090E00E9450
:10147000702B8C01D7018D939C93892B09F46ECF2F
:1014800084E0F601D80101900D928A95E1F7B8E069
:101490002B0E311CF80180819181A281B381181635
:1014A00019061A061B06DCF464E070E00E94702B3B
:1014B000D80115969C938E931497892B09F44ECFDF
:1014C000D12CC12C812C912C5401F8018081918167
:1014D000A281B38188169906AA06BB0634F0FFEFF5
:1014E0004F1A5F0A6F0A7F0A93CFF801E480F580F4
:1014F000EC0CFD1C80E1F101DE01119601900D92D2
:101500008A95E1F7F0E12F0E311CA701BE016F5F54
:101510007F4FA9A1BAA114968D919C9195DCF801F9
:1015200086819781D70112962D913C91820F931F4E
:1015300097838683BFEF8B1A9B0AAB0ABB0AE4E052
:10154000CE0ED11CC2CF1A8E198E1B8E1C8E1D8EF4
:101550001E8E18A30F8FA8014C5F5F4F58A74FA393
:10156000C80108969AA789A7EFA1F8A58081918163
:10157000A281B3812B8D3C8D4D8D5E8D281739074F
:101580004A075B070CF40BCF6EE070E08D899E89F3
:101590000E94702BAF8DB8A11B969C938E931A97C7
:1015A000B12CA12CD12CC12CF12CE12C24E4E98903
:1015B000FA892E9FC0012F9F900D11249C01205E5F
:1015C0003B4F388F2F8B88248394912C4D895E89D3
:1015D000C416D50654F184E4A989BA898A9F80018A
:1015E0008B9F100D11240A5E1B4FF801158614867F
:1015F000C70133E0880F991F3A95E1F70E948A2BC3
:10160000D80151969C938E935097892B09F4A6CEBE
:10161000C701880F991F0E948A2BF8019787868738
:10162000892B09F49BCE80E0A1CED1014D905D9035
:101630006D907D901D0177FC91CEEF89F88D008132
:1016400011810A0D1B1DD80111969C928E92411496
:1016500051046104710429F1C2010E948A2BF8012E
:1016600095838483892B09F479CEF80153824282D1
:1016700084819581978386839187808713861286DC
:1016800081E090E045284628472811F490E080E06A
:10169000E80EF91EFFEFCF1ADF0A2EE0A20EB11CF2
:1016A00095CF15961C921E921497DFCF2F923F92E2
:1016B0004F925F926F927F928F929F92AF92BF9262
:1016C000CF92DF92EF92FF920F931F93CF93DF930E
:1016D000CDB7DEB76A970FB6F894DEBF0FBECDBFA9
:1016E0009E8B8D8B49015A0184E4829F7001839FF8
:1016F000F00C112497012A5E3B4F6901FB018081A8
:101700009181F901958B848BD701A45DBB4FFB01BF
:10171000349684E001900D928A95E1F7D701A05D9F
:10172000BB4FFB01389684E001900D928A95E1F75A
:10173000D701AC5CBB4FFB013C9684E001900D925D
:101740008A95E1F7D701AC5BBB4FFB01709684E053
:1017500001900D928A95E1F78B010C5E1F4FF90104
:1017600086A597A5A0A9B1A918161906DCF5880FBA
:10177000991F880F991F0E948A2BF60193AB82ABA9
:10178000892B09F4D3C0312C212C412C512C32014E
:101790009601225D3F4F388F2F8BC601C2969A8FDC
:1017A000898FF496FC8BEB8BB301A2012FEF421AC9
:1017B000520A620A720AEF89F88D80819181A281B2
:1017C000B381481759076A077B070CF47BC0F60101
:1017D00084A995A90E948A2BF60197AB86AB892B29
:1017E00009F4A4C0F80180819181A281B38124E42D
:1017F000289DF001299DF00D1124EA5EFB4FAC01FC
:10180000BD014D7F21E030E0452B462B472B11F0E9
:1018100030E020E033A322A324E4289DF001299D99
:10182000F00D1124EA5EFB4F0197A109B10921E0F7
:1018300030E00297A105B10510F030E020E035A3BB
:1018400024A3D701A45CBB4FF801349684E0019037
:101850000D928A95E1F784E4889DF001899DF00D51
:101860001124EA5EFB4F868D978DA0A1B1A1B7FF31
:1018700058C0B095A095909581959F4FAF4FBF4FA1
:1018800082AF93AFA4AFB5AF168E178E10A211A280
:1018900080E06A960FB6F894DEBF0FBECDBFDF9131
:1018A000CF911F910F91FF90EF90DF90CF90BF905D
:1018B000AF909F908F907F906F905F904F903F90F0
:1018C0002F900895E98DFA8D808191819C01220DE0
:1018D000331D3A8B298B80E1F801DE0111960190CE
:1018E0000D928A95E1F7005F1F4F49895A89BE0121
:1018F0006F5F7F4FED89FE8984819581A5DAEB8941
:10190000FC8980819181E989FA8922813381820F62
:10191000931FEB89FC8991838083F4E02F0E311CA7
:1019200043CF12AE13AE14AE15AEB2CFC501B401A3
:1019300020DA81E0AECFCF92DF92EF92FF92CF9389
:10194000DF9310929E0424E4269FF001279FF00D60
:101950001124EA5EFB4F15A614A630E020E0D12C3E
:10196000C12CDF011A96C1E0D0E0C416D506F4F010
:1019700024E4269FF001279FF00D1124EA5EFB4F1F
:1019800013A612A611AE10AEDF01DE961D921D92B7
:101990001D921C92139782E090E0938B828BDF91D3
:1019A000CF91FF90EF90DF90CF900895ED91FC9153
:1019B0001197E20FF31FE280F3801E141F0454F40A
:1019C000E480F580F782E682F186E086138612864F
:1019D000D183C083EFEFCE1ADE0A225F3F4FC5CF1F
:1019E00024E4269FF001279FF00D1124EA5EFB4FAF
:1019F000138A128A4CCB24E4269FF001279FF00D16
:101A00001124EA5EFB4F8289938981309105C8F0E9
:101A10008530910518F0059769F008958FEF9FEFD5
:101A2000DC01828F938FA48FB58F85E090E0938B3C
:101A3000828B08958FEF9FEFDC01828F938FA48FAD
:101A4000B58F089524E4249FD001259FB00D112463
:101A5000AA5EBB4F2EE0AC01249FC001259F900DD4
:101A600011241A96ED91FC91E80FF91F81E0809303
:101A70009E04828593859187808740855185268144
:101A8000378181E090E04217530711F090E080E049
:101A90009183808308952F923F924F925F926F922D
:101AA0007F928F929F92AF92BF92CF92DF92EF92EE
:101AB000FF920F931F93CF93DF93CDB7DEB7C0553F
:101AC000D1090FB6F894DEBF0FBECDBF9EAF8DAF6C
:101AD0004BA75CA76DA77EA76801790184E4809F6E
:101AE000F001819FF00D1124EA5EFB4F22853385C2
:101AF00023963FAF2EAF239782899389029761F493
:101B000086A597A5A0A9B1A9892B8A2B8B2BC9F5EE
:101B100084E090E0938B828B84E48C9DF0018D9D1A
:101B2000F00D1124EA5EFB4F828993898230910582
:101B300009F037C282AD93ADA4ADB5AD2224239494
:101B4000312C181619061A061B060CF42FC2C05B9E
:101B5000DF4F0FB6F894DEBF0FBECDBFDF91CF9140
:101B60001F910F91FF90EF90DF90CF90BF90AF90BB
:101B70009F908F907F906F905F904F903F902F90AD
:101B80000895848995894DAD5EAD8417950721F63A
:101B900006A917A918AE1FAA1BAA1CAA1DAA1EAA2D
:101BA0001F01CF018E9627969FAF8EAF2797DF013B
:101BB000D2962996BFAFAEAF2997F8962B96FFAF76
:101BC000EEAF2B9791012A5D3F4F2D963FAF2EAF81
:101BD0002D97A1014E5D5F4F2F965FAF4EAF2F97B0
:101BE0000A9761969FAF8EAF61972796EEADFFADD6
:101BF000279780819181A281B3812BA93CA94DA90E
:101C00005EA9281739074A075B0744F081E090E096
:101C1000D101D9969C938E93D8977ECF2996AEAD5D
:101C2000BFAD2997ED91FC912FA938ADE20FF31FBD
:101C3000428153815AAF49AF50815FAF8181219674
:101C40008FAF21972B96AEADBFAD2B978D919C9109
:101C5000892B21F12D96EEADFFAD2D9780809180DF
:101C6000A280B3801AAB09AB5FA72196FFAD219785
:101C7000F8AB29AD3AAD369527953695279525963B
:101C80003FAF2EAF25971CAE1BAE2596AEADBFADB8
:101C90002597EBADFCADEA17FB070CF149AD5AAD4A
:101CA0006FAD21967FAD2197C8010E94AF2C89AD01
:101CB0009AAD8C7F080F191F2BA93CA94DA95EA9CD
:101CC0002F5F3F4F4F4F5F4F2BAB3CAB4DAB5EABEE
:101CD0004FA958AD4C5F5F4F58AF4FAB86CF2F9693
:101CE000AEADBFAD2F978D919C91892B71F1EFA572
:101CF000F8A94080518062807380A3019201C501E0
:101D0000B4010E94A421181664F0A9A9BAA92D91C2
:101D10003D914D915C91C501B4010E948B22181632
:101D2000BCF1A3019201C501B4010E94A42187FF67
:101D30000CC0E9A9FAA92081318142815381C501F2
:101D4000B4010E94A421882319F16196AEADBFAD04
:101D500061978D919C91892B09F445C0EFA5F8A955
:101D60004080518062807380A3019201C501B4015B
:101D70000E948B2218161CF5A9A9BAA92D913D9194
:101D80004D915C91C501B4010E94A42118165CF12B
:101D900084E48C9DF0018D9DF00D1124EA5EFB4FD3
:101DA000868D978DA0A1B1A1892B8A2B8B2B69F1F0
:101DB00083E090E0938B828B81E090E02CC0A301C4
:101DC0009201C501B4010E94A42181110CC0E9A9AE
:101DD000FAA92081318142815381C501B4010E9459
:101DE000A42187FDD5CF2BAD3CAD2F5F3F4F3CAF3E
:101DF0002BAF49A95AA94C5F5F4F5AAB49AB8FA58E
:101E000098A9049698AB8FA740CF84E090E0938B7D
:101E1000828B86AD97AD93A782A77ECEEBADFCAD4E
:101E200080819181F401EE0FFF1FEE0FFF1FE80F7D
:101E3000F91FA081B1818C9181110AC0FFEF8F1A27
:101E40009F0AAF0ABF0A8DA29EA2AFA2B8A68FC1F9
:101E50008330A1F30280F381E02D2FA938ADE20F8A
:101E6000F31F808191819AAB89AB892B39F34F5F46
:101E70005F4F6F4F7F4F49875A876B877C879E01E3
:101E8000235E3F4FAE01475D5F4F64E070E0C801E5
:101E90000E944C068111D0C18D819E81AF81B88591
:101EA0000496A11DB11D8D839E83AF83B8874D8D90
:101EB0005E8DBE016B5D7F4F8F8D98A10E94AF2C10
:101EC0008BA19CA1009761F06D8D7E8DA5E2B0E0A5
:101ED000AC0FBD1F6A0F7B1F49A15AA10E94AF2CF6
:101EE0001CAA1BAA412C512C3201E9A9FAA9808114
:101EF0009181A281B381481659066A067B060CF0CF
:101F00009DCFE9A9FAA9848195812BA93CA9280F25
:101F1000391F38AB2FA7D90112966D917C919E0184
:101F2000235E3F4FAE01475D5F4FC8010E944C06E4
:101F3000811182C1EFA5F8A982819381092E000C3D
:101F4000AA0BBB0B4D815E816F817885840F951F35
:101F5000A61FB71F8D839E83AF83B8876081718171
:101F60004D8D5E8D8F8D98A10E94AF2C8BA19CA171
:101F7000009761F0AFA5B8A96D917C912D8D3E8D34
:101F8000620F731F49A15AA10E94AF2CBFEF4B1AD9
:101F90005B0A6B0A7B0AEBA9FCA93496FCABEBABA2
:101FA000A4CF312C212C049709F0D1CD8EE0EDADDA
:101FB000FEAD8E9F80018F9F100D112423962EADB4
:101FC0003FAD2397020F131FD80112964D915C91DC
:101FD00013974115510509F4BACD16968D919C9130
:101FE0009AA789A780E1FE013196DF011D928A95AB
:101FF000E9F7C98ADA8AEB8AFC8A2114310409F4E8
:1020000058C084E48C9DF0018D9DF00D1124EA5E92
:10201000FB4FDF01DE968D909D90AD90BC9082AD20
:1020200093ADA4ADB5AD88169906AA06BB0609F016
:1020300040C0F801848195810084F185E02D3496BB
:1020400024E0DE01559601900D922A95E1F72D8945
:102050003E89285F3F4F3E8B2D8BD80118966D919E
:102060007C911997260F371F19963C932E9318973A
:1020700018962D913C911997480F591F241B350B29
:1020800037FD06C0820F931F19969C938E93189765
:1020900084E48C9DF0018D9DF00D1124EC5AFB4FD2
:1020A000B1E08B1A9108A108B10880829182A282C6
:1020B000B3829E012B5E3F4FAE01475D5F4F64E1EF
:1020C00070E0C8010E944C068111B6C08CE090E01F
:1020D000A0E0B0E08D839E83AF83B8879E01235E2E
:1020E0003F4FAE01475D5F4F64E070E0C8010E9462
:1020F0004C068111A1C080E190E0A0E0B0E08D83AA
:102100009E83AF83B8874D8D5E8DBE01655D7F4F29
:102110008F8D98A10E94AF2C8BA19CA1009761F09C
:102120006D8D7E8DEBE2F0E0EC0FFD1F6E0F7F1FDB
:1021300049A15AA10E94AF2C1DA21EA21FA218A63F
:102140002DAD3EAD220F331F38AF2FAB24E42C9DB5
:10215000C0012D9D900D11248A5E9B4FAC014C5FF8
:102160005F4F5AAF49AFDC011896BCAFABAF8DA043
:102170009EA0AFA0B8A449855A856B857C85E9AD42
:10218000FAAD80819181A281B38188169906AA0651
:10219000BB060CF443CE452B462B472B09F4D7CC7A
:1021A0008AE190E0A0E0B0E089839A83AB83BC83AE
:1021B0002DAD3EADC901330FAA0BBB0B8D879E879A
:1021C000AF87B88B4D895E89BE016F5F7F4F8F8966
:1021D000988D0E94AF2C8B8D9C8D009761F06D893E
:1021E0007E8941E050E04C0F5D1F640F751F498DE3
:1021F0005A8D0E94AF2C89A59AA5D80117969C9359
:102200008E93169711961C921E92232809F49FCC48
:1022100084E48C9DF0018D9DF00D1124EC5AFB4F50
:1022200080819181A281B3810196A11DB11D80831E
:102230009183A283B3838BCC232809F088CC84E4D8
:102240008C9DF0018D9DF00D1124EA5EFB4F81E025
:1022500090E095A784A785E090E0938B828B77CC64
:10226000CF92DF92EF92FF920F931F9324E4269F69
:10227000F001279FF00D1124EA5EFB4F228933897C
:102280002115310509F452C06B017C012130310563
:10229000B1F482A593A59C012F5F3F4F33A722A7DE
:1022A000092E000CAA0BBB0B028D138D248D358DCE
:1022B00080179107A207B307C9F5C7013CDB84E487
:1022C0008C9DF0018D9DF00D1124EA5EFB4F8289FB
:1022D0009389039759F582A593A59C012F5F3F4FE2
:1022E00033A722A7092E000CAA0BBB0B468D578DD6
:1022F00060A171A184179507A607B707BCF086AD4A
:1023000097AD93A782A784E090E0938B828B82ADF8
:1023100093ADA4ADB5AD181619061A061B0634F414
:10232000EE5BFF4F81E090E0918380831F910F91DE
:10233000FF90EF90DF90CF90089524E4269FF00166
:10234000279FF00D1124EA5EFB4F82899389049741
:10235000B1F482A593A5019693A782A7092E000C3C
:10236000AA0BBB0B46895789608D718D8417950721
:10237000A607B70721F485E090E0938B828B089540
:102380002F923F924F925F926F927F928F929F9285
:10239000AF92BF92CF92DF92EF92FF920F931F9373
:1023A000CF93DF93CDB7DEB72E970FB6F894DEBF8D
:1023B0000FBECDBFDC0149835A836B837C83290127
:1023C00084E4849FF001859FF00D1124EA5EFB4FA9
:1023D00022883388C1010497029708F0D5C011966E
:1023E0001C921E9213961C921E92129715861486AA
:1023F000912C812C90E080E08F019F01205F3F4F66
:1024000038872F833F013CE0630E711CBF01625F80
:102410007F4F7A8769873A96FC87EB87EF81F8854B
:1024200020813181F30140815181E985FA85A080C5
:10243000B180841595050CF445C011965C934E93BC
:1024400013963C932E9312971596BC92AE921497C6
:10245000452BF9F4F5E02F163104D9F410929E04BF
:10246000F801828D938DA48DB58DAE014F5F5F4FC6
:1024700064E070E08F3F9F4FAF4FBF4F09F079C0CE
:1024800080E290E0F4D569817A818B819C81A20100
:10249000A7DA2E960FB6F894DEBF0FBECDBFDF9140
:1024A000CF911F910F91FF90EF90DF90CF90BF9051
:1024B000AF909F908F907F906F905F904F903F90E4
:1024C0002F900895EB85FC8560817181FB01E80DFB
:1024D000F91DFE87ED8760817181672B89F5E084A6
:1024E000F184628173817E836D83668177816A0165
:1024F000E3E0CC0CDD1CEA95E1F72C0D3D1D440F0B
:10250000551F4A0D5B1DFA0191838083F3014081C1
:1025100051814F5F5F4F51834083F901F382E28223
:10252000ED85FE8573876287E616F70670F46E19EF
:102530007F09F901718360831582148217821682E4
:102540000196FEE08F0E911C69CFED85FE85C4805B
:10255000D5804D815E814C0D5D1D4E195F09F901DD
:10256000518340836C197D0975836483D782C68249
:10257000E7CF8FE190E07BD5F80113A612A681E0AA
:1025800090E0938B828B85CF1586148611961C92D2
:102590001E9213961C921E9212977BCFEF92FF927F
:1025A0000F931F93CF93DF937C018B01EA013BD6FE
:1025B00081111EC08091B4029091B502049711F56B
:1025C000DF91CF911F910F91FF90EF90089528ED2B
:1025D00038EB45E050E060E070E0CB010E94CA1BA0
:1025E000AE01B801C7010E94D81BC8010E94A31BFD
:1025F00080919F049091A004892BE1F68881882323
:1026000031F3D8CF83E090E09093B5028093B40289
:10261000D7CFCF93DF932091B4023091B50224300D
:10262000310541F0EB010E94D81BCE01DF91CF9123
:102630000C94A31BDF91CF9108950C94D61F0C949A
:10264000CB1F0C94B91F0C94B31B0C945D1F089501
:1026500070E060E090E080E0C1C50895AF92BF9265
:10266000CF92DF92EF92FF920F931F93CF93DF935E
:102670001F921F92CDB7DEB75C018B0169017A0111
:1026800090E080E0C114D104E104F10469F40F90FA
:102690000F90DF91CF911F910F91FF90EF90DF90FE
:1026A000CF90BF90AF9008959C2D8D2DC114D10473
:1026B00021E0E206F10410F09FEF8FEF9E012F5F03
:1026C0003F4F492F582FB801C5010E9460208F3F0E
:1026D0009807E9F229813A81C21AD30AE108F10880
:1026E000020F131FCFCF2091A1043091A20480913B
:1026F000A3049091A4042817390789F08091A904B4
:102700009091AA0401969093AA048093A90482E070
:102710000E946F279093A4048093A304089580914E
:10272000A9049091AA040197EECF2091A5043091BD
:10273000A6048091A7049091A8042817390789F06E
:102740008091AB049091AC0401969093AC0480937B
:10275000AB0482E10E946F279093A8048093A704A2
:1027600008958091AB049091AC040197EECF83E083
:102770000E946F279093A2048093A1042091A30448
:102780003091A4048217930751F08091A90490918D
:10279000AA0401969093AA048093A90408958091B5
:1027A000A9049091AA040197F5CF83E10E946F27B5
:1027B0009093A6048093A5042091A7043091A804C7
:1027C0008217930751F08091AB049091AC0401966D
:1027D0009093AC048093AB0408958091AB049091E6
:1027E000AC040197F5CFEF92FF920F931F93CF9315
:1027F000DF937C018B01EA01F90120E030E040E841
:102800005FE360817181828193810E94A4218111A3
:1028100015C0F7018081882321F01092AA0410923C
:10282000A9048091A9049091AA04F801918380835E
:102830008091AB049091AC0499838883DF91CF9110
:102840001F910F91FF90EF900895CF93DF93E901CF
:1028500020E030E040E85FE3688179818A819B81F4
:102860000E94A4218823A1F162E082E00E94062751
:1028700062E083E00E94062760E082E10E94062772
:1028800060E083E10E94062741E050E063E773E1E6
:1028900080E00E94F32241E050E067EB73E181E0C9
:1028A0000E94F32241E050E065E973E185E00E9477
:1028B000F32241E050E065ED73E184E00E94F322F1
:1028C00080E090E0A0E8BFE388839983AA83BB837C
:1028D000DF91CF91089540E051EE60E070E090E02C
:1028E00080E000C08130910579F01CF4892B39F02B
:1028F00008958230910561F0039771F0089526E004
:1029000082EE94E00C94612826E08FE795E0FACF00
:1029100026E08CE196E0F6CF26E089EB96E0F2CF58
:102920001F920F920FB60F9211240BB60F922F9396
:102930003F934F935F936F937F938F939F93AF9347
:10294000BF93EF93FF9386E09FEF909325018093D1
:1029500024010E949A20FF91EF91BF91AF919F9126
:102960008F917F916F915F914F913F912F910F9038
:102970000BBE0F900FBE0F901F90189586E09FEF33
:102980009093250180932401A3E7B0E08C918E7F82
:102990008C93E0E2F1E080818C7F8083E1E2F1E0E2
:1029A0008081877E808380818360808380818B7F2C
:1029B00080838C9181608C93089581E008958F923B
:1029C0009F92AF92BF92CF92DF92EF92FF920F93BE
:1029D0001F93CF93DF935C017B018A01C1E0D0E0BC
:1029E000CE15DF05CCF081E0F5018083B801C70189
:1029F0000E940020F5019283818390E080E0DF91C6
:102A0000CF911F910F91FF90EF90DF90CF90BF90EB
:102A1000AF909F908F9008956E018FEFC81AD80ADB
:102A2000FE01EE0FFF1FE00FF11F808091808114E7
:102A3000910469F06FE573E0C4010E94BF2C892BFB
:102A400041F4CC0FDD1FC00FD11F19821882E6019F
:102A5000C7CF62E673E0C4010E94BF2C892BB9F78F
:102A6000EC14FD04A1F36E01E2E0CE0ED11CCC0FFC
:102A7000DD1FC00FD11F198218821B821A82E7CF77
:102A80008DEA94E0089580E008950F931F93CF930B
:102A9000DF938B01BA01E901198218829801012E96
:102AA000000C440B550BFC0181819281D7DD01960E
:102AB00041F01983088380E0DF91CF911F910F913E
:102AC000089581E0F9CF0F931F93CF93DF931F9267
:102AD0001F92CDB7DEB7FB018A01B9019E012F5FBE
:102AE0003F4FAF01FC01818192810E941520019628
:102AF00069F089819A81F8019183808380E00F9049
:102B00000F90DF91CF911F910F91089581E0F7CF42
:102B1000FC01808108950895089581E0FB01808380
:102B200080E0089508951092D5040895FC018181F4
:102B300092810C94F81FCF93DF9300D000D000D087
:102B40001F92CDB7DEB7B0E0A0E089839A83AB8354
:102B5000BC83CB01770FAA0BBB0B8D839E83AF8306
:102B6000B8879E01275F3F4FAE014F5F5F4F68E020
:102B700070E08091C4049091C50487DF811110C07A
:102B800081E029853A852830310509F480E02A96CC
:102B90000FB6F894DEBF0FBECDBFDF91CF91089581
:102BA00081E0F5CF0F931F93CF93DF931F921F9276
:102BB000CDB7DEB78B019E012F5F3F4FAC018091F7
:102BC000C4049091C50461DF81110EC081E02981A8
:102BD0003A812017310709F480E00F900F90DF91C0
:102BE000CF911F910F91089581E0F7CFCF93DF939D
:102BF000EC011092C8041092C7041092D4041092F1
:102C0000D304AC0160E070E0CB010E94F00CAE0197
:102C100061E070E080E090E00E94F00C8091C404DC
:102C20009091C504DF91CF917DCF4F925F926F92CB
:102C30007F928F929F92AF92BF92CF92DF92EF924C
:102C4000FF920F931F93CF93DF931F921F92CDB7E5
:102C5000DEB78C017C0197FF03C087E0E80EF11C12
:102C600023E0F594E7942A95E1F7C80168E070E065
:102C70000E941F2B6C010E5F1F4F8091C204909128
:102C8000C30480179107D4F48091C0049091C104CB
:102C9000009731F00E94262C1092C3041092C204B7
:102CA000C8010E948A2B9093C1048093C004892B91
:102CB00009F482C01093C3040093C20410E000E042
:102CC00047C1412C512C3201B12CA12C9501275325
:102CD0003B4FAE014F5F5F4F61E070E08091C404F5
:102CE0009091C504F0DE811149C0EFEF4E1A5E0AE3
:102CF0006E0A7E0AF0E94F16FFE55F06F1E06F0607
:102D0000710444F06091D3047091D4048DEE90E08E
:102D100012DFD7CF89819A81A80EB91E8AE0A81642
:102D2000B10409F043C049E050E070E060E089EC94
:102D300094E00E948C206091D3047091D404882385
:102D400091F18091D10490E08617970781F4BC013E
:102D50008EEE90E0F0DE8091D3049091D404019641
:102D600099279093D4048093D3040F5F1F4F0E15BF
:102D70001F050CF4A6CFCD2809F07CC090E080E0C0
:102D80000F900F90DF91CF911F910F91FF90EF90D7
:102D9000DF90CF90BF90AF909F908F907F906F907B
:102DA0005F904F9008958FEE90E0B2CFEAE0AE16BC
:102DB000B1040CF48BCFDBCF10E000E0D8CF0A30A9
:102DC000110531F549E050E070E060E089EC94E0F5
:102DD0000E948C206091D3047091D4048823A9F0C0
:102DE0008091D10490E08617970741F6BC018EEEE2
:102DF00090E0A1DE8091D3049091D40401969927AC
:102E00009093D4048093D304B9CF8FEE90E02BC07D
:102E10000A3011050CF0B2CF980127533B4FAE0199
:102E20004F5F5F4F61E070E08091C4049091C504F2
:102E30004ADE8111A3CF89819A81080F191FFFEF04
:102E4000CF1ADF0AEF0AFF0A80E9C8168FE5D80615
:102E500081E0E806F1040CF4B2CF6091D3047091E4
:102E6000D4048DEE90E067DE10E000E0C12CD12CA0
:102E70007601D2CFC12CD12C760110E000E0CCCF6E
:102E8000412C512C3201B12CA12C480193E0880C2B
:102E9000991C9A95E1F72091C0043091C104C501B5
:102EA000880D991D280F391FAE014F5F5F4F61E0FC
:102EB00070E08091C4049091C50405DE81115ECF5D
:102EC000EFEF4E1A5E0A6E0A7E0A6091D30470918B
:102ED000D4048DEE90E0F0E94F16FFE55F06F1E0D7
:102EE0006F0671040CF043C089819A81A80EB91E47
:102EF0008AE0A816B10409F041C049E050E0B401ED
:102F00008091C0049091C1040E948C206091D304F0
:102F10007091D404882349F18091C0049091C10438
:102F2000880E991EF401808590E08617970781F43A
:102F3000BC018EEE90E0FFDD8091D3049091D4042B
:102F4000019699279093D4048093D3040F5F1F4F69
:102F50000E151F050CF494CFC114D10409F081C0E3
:102F60008091C0049091C1040BCF8FEE90E0E3DD1F
:102F7000412C512C3201B12CA12C8DCFFAE0AF168F
:102F8000B1040CF488CFE4CF8FEE90E0D4DDF12CC7
:102F9000E12C812C912C5401970127533B4FAE011A
:102FA0004F5F5F4F61E070E08091C4049091C50471
:102FB0008ADD8111E3CE8FEF881A980AA80AB80A31
:102FC0006091D3047091D4048DEE90E0E0E98E1608
:102FD000EFE59E06E1E0AE06B104C4F689819A8170
:102FE000E80EF91EFAE0EF16F104A9F549E050E009
:102FF00070E060E089EC94E00E948C206091D30442
:103000007091D404882309F4BFCF8091D10490E05B
:103010008617970709F0A4CFBC018EEE90E08BDDF8
:1030200083E0000F111F8A95E1F78091C004909111
:10303000C104A60169EC74E0800F911F0E94AF2CBF
:103040008091D3049091D404019699279093D4044D
:103050008093D30485CF8AE0E816F1040CF49CCF6A
:103060007FCF812C912C5401F12CE12C95CFCF9264
:10307000DF92EF92FF920F931F93CF93DF931F92F4
:10308000CDB7DEB76C017B018A01452B39F0AB016E
:1030900070E060E0C8010E9488208983B701C60102
:1030A0004ADD81110DC00115110551F0B701C801AC
:1030B00079DD811105C061E070E0CE01019672DD1D
:1030C0000F90DF91CF911F910F91FF90EF90DF90C4
:1030D000CF900895CF92DF92EF92FF92CF93DF933C
:1030E00000D000D01F921F92CDB7DEB76B01F12C3C
:1030F000E12CC982DA82EB82FC822D833E834F83EE
:103100005887AE014F5F5F4F68E070E0B0DF2896F0
:103110000FB6F894DEBF0FBECDBFDF91CF91FF9009
:10312000EF90DF90CF9008958F929F92AF92BF92D1
:10313000CF92DF92EF92FF920F931F93CF93DF9383
:103140007C01EB01CA01690170DD0097B1F42FEF3A
:103150003FEFA90161E070E0C701BCDFC1E08C2F47
:10316000DF91CF911F910F91FF90EF90DF90CF9063
:10317000BF90AF909F908F900895FC0181909190A7
:10318000A190B190BF01FCE1EF16F10479F4A50123
:103190009401CE010E94560BC82FA50194018823EB
:1031A00069F061E070E0C70195DFD9CF9501840136
:1031B000AB01B601CE010E945909EECF70E060E08C
:1031C000C701DF91CF911F910F91FF90EF90DF909A
:1031D000CF90BF90AF909F908F907CCF0F931F9315
:1031E000CF93DF93EC018B014BDC9093C50480936C
:1031F000C4040097A9F0A801BE01E1DBEC01892B12
:1032000049F08091C4049091C50485DC1092C504F6
:103210001092C404CE01DF91CF911F910F910895B8
:10322000CEE6D3E0EECF8091C4049091C50470CC7B
:103230002F923F924F925F926F927F928F929F92C6
:10324000AF92BF92CF92DF92EF92FF920F931F93B4
:10325000CF93DF93CDB7DEB769970FB6F894DEBF93
:103260000FBECDBF2091C8042223F1F05B8B4A8BA7
:103270006E877F87888B998B9A01AB01BC01CE0149
:1032800001967C017DD810E048E0242E312CE88E98
:10329000F98E89819A81181619060CF451C21123EE
:1032A00019F08A899B89A2DC69960FB6F894DEBF73
:1032B0000FBECDBFDF91CF911F910F91FF90EF9087
:1032C000DF90CF90BF90AF909F908F907F906F9046
:1032D0005F904F903F902F900895EB81FC818C85FB
:1032E0009D8533E0880F991F3A95E1F7E80FF91FA4
:1032F000808191819093BF048093BE0424813581A5
:10330000428153815093BD044093BC044681578150
:103310005093BB044093BA04820F931F9C01990FF2
:10332000440B550B2C8B3D8B4E8B5F8B812C912C42
:1033300054018C899D89AE89BF8988169906AA0691
:10334000BB0640F18C859D85880F991FED81FE811C
:10335000E80FF91F4E855F856889798980819181A1
:103360000E94220DAC85BD851196BD87AC878981F1
:103370009A81EC85FD85E817F9070CF4AECF2A8910
:103380003B894E855F8568897989888D998D0E94F2
:10339000C0117FCF1F826091BE047091BF04CB012A
:1033A000072E000CAA0BBB0B84017501640134E0ED
:1033B000C30ED11CE11CF11CC816D906EA06FB0697
:1033C00008F0B3C02091BC043091BD04A4014C5F4F
:1033D0005F4F240F351FF901C080D12CF12CE12C57
:1033E00024013501F5E04F0E511C611C711C48167B
:1033F00059066A067B0608F0A3C02091BC043091F0
:10340000BD04F8013596E20FF31F2081D22A240172
:10341000350126E0420E511C611C711C48165906EC
:103420006A067B0608F097C02091BC043091BD0469
:10343000F8013696E20FF31F2081E22A24013501BC
:1034400037E0430E511C611C711C481659066A0670
:103450007B0608F08BC02091BC043091BD04F801BC
:103460003796E20FF31F208126013701722A75017A
:10347000640148E0C40ED11CE11CF11C8C159D05B3
:10348000AE05BF0508F41DC188169906AA06BB063D
:1034900008F077C08091BC049091BD04800F911F0B
:1034A00068E070E07FDBE091BE04F091BF049F0113
:1034B0000F2E000C440B550BD301C2018C0D9D1D2A
:1034C000AE1DBF1D281739074A075B0708F478C0EF
:1034D000C216D306E406F50608F05DC08091BC0470
:1034E0009091BD049801285F3F4F820F931FB20156
:1034F00059DB8091BE049091BF04AC01092E000CF1
:10350000660B770BC416D506E606F70608F04DC025
:10351000085F1F4F8091BC049091BD04800F911FE4
:10352000A20170E060E0F4D5A7C044E050E0461B83
:10353000570B480D591D2091BA043091BB0449CF57
:10354000E5E0F0E0E61BF70BE00FF11F2091BA0475
:103550003091BB0458CFE6E0F0E0E61BF70BE00F3C
:10356000F11F2091BA043091BB0464CFE7E0F0E092
:10357000E61BF70BE00FF11F2091BA043091BB045A
:1035800070CF9801261B370B8091BA049091BB0431
:10359000820F931F85CF91012E1B3F0B200F311FF0
:1035A0008091BA049091BB04A0CFD101A81BB90BA4
:1035B000CD01080F191F8091BA049091BB04AECFC2
:1035C000BF0168507109601B710BC216D306E40677
:1035D000F50608F062C08091BC049091BD0498018A
:1035E000285F3F4F820F931FDDDA8091BE049091D8
:1035F000BF04B101681B790B600F711F640D751D4D
:103600008091BA049091BB04CDDA8091BE04909170
:10361000BF04AC0148505109FA01E01BF10BAC01A9
:10362000092E000C660B770BC416D506E606F706C6
:1036300008F03DC08091BC049091BD049801285FC2
:103640003F4F820F931FAF0170E060E061D58F8321
:103650002091BE043091BF04F101E21BF30B9F01E6
:10366000200F311F240D351D50E040E0682F809160
:10367000BA049091BB0438D58F8361E070E0CE012D
:10368000079690DA182F38E0430E511C611C711C0C
:10369000840C951CA61CB71C4CCE91012E1B3F0B15
:1036A000200F311F8091BA049091BB049BCF9101F0
:1036B000281B390B200F311F8091BA049091BB0455
:1036C000C0CF88169906AA06BB0668F5601B710B69
:1036D0008091BC049091BD04800F911F63DA8091AA
:1036E000BE049091BF04B101681B790B600F711F7C
:1036F000640D751D8091BA049091BB0453DA8091DA
:10370000BE049091BF04AC01092E000C660B770B30
:10371000C416D506E606F70608F4FACE9101281B72
:10372000390BC90146CFC801861B970B2091BA04FB
:103730003091BB04B201685F7F4F820F931FDECFD1
:103740001D861C8614CECF93DF93EC01AC0160E0A4
:1037500070E0CB016DDDAE0161E070E080E090E0F3
:10376000DF91CF9165CDCF938091C4049091C50432
:103770008AD9C82F81110BC060E070E0CB010E9494
:103780001B0861E070E080E090E00E941B088C2F35
:10379000CF9108950F931F9389019A01AB01BC014A
:1037A0008091C4049091C504B7D91F910F910895D9
:1037B0004F925F926F927F928F929F92AF92BF9241
:1037C000CF92DF92EF92FF920F931F93CF93DF93ED
:1037D000CDB7DEB763970FB6F894DEBF0FBECDBF8F
:1037E0006C018B015A018091C804882309F43DC003
:1037F0008091C804882309F442C08091C7041A82CA
:103800001982882309F4C0C0F0E94F2EFFE55F2E2E
:1038100066246394712CF12CE12C970120553B4FC9
:10382000AE014F5F5F4F61E070E08091C404909102
:10383000C50449D9982E811169C089819A81E80E01
:10384000F91EE114F10409F461C081E0481A51083D
:103850006108710859F56091D3047091D4048DEE1C
:1038600090E069D91A82198251C068EC74E08091A5
:10387000C4049091C50451D9882309F4B9CF639643
:103880000FB6F894DEBF0FBECDBFDF91CF911F9171
:103890000F91FF90EF90DF90CF90BF90AF909F90EF
:1038A0008F907F906F905F904F900895AAE0EA16F6
:1038B000F10409F063C049E050E070E060E080EBA3
:1038C00094E02AD46091D3047091D404882309F43D
:1038D00052C08091B80490E08617970719F6BC0192
:1038E0008EEE90E028D988E0E0EBF4E0DE01199656
:1038F00001900D928A95E1F78091D3049091D404C0
:10390000019699279093D4048093D30481E0298170
:103910003A81121613060CF080E09110CAC2882377
:1039200009F4ADCF8091C704811104C019861A86AD
:103930001B861C8689859A85AB85BC85803191055F
:10394000A105B10508F09BCFFC018827E555F34E92
:103950008F4F0C94542B2B1DEA1E591F3F1C2F1EFA
:10396000621E1B1D231DFF1C3E1F2D1F3A1F3F1CE7
:103970003F1C3F1CEA1C8FEE90E073CFBAE0EB16C1
:10398000F1040CF44ACFC2CFF12CE12CE8E06E2E0A
:10399000712C29E030E02C0F3D1F2E0D3F1DAE0194
:1039A0004F5F5F4FB3016E197F098091C4049091FE
:1039B000C50489D8982E29813A81811109C0E20E67
:1039C000F31EE114F10421F0E8E0EE16F1040CF32B
:1039D00081E09FCFD6011696ED91FC918081918177
:1039E000A281B38189839A83AB83BC83AE014F5F8D
:1039F0005F4F64E070E085E190E039DB40CF8D857A
:103A00009E8513D92FEF3FEFA90161E070E0009789
:103A100071F0FC01C080D180E280F380A801C70171
:103A2000B6010E949B0CA701960170E060E08DE159
:103A300090E050DB24CF4D855E859801B6018BE187
:103A400090E072DB1CCF4D855E852FEF3FEFB60116
:103A50008CE190E0F6CFD6011496ED91FC910081B7
:103A60001181F80182809380A080B18070E1472E9F
:103A7000512C612C712C49825A826B827C8288E0A5
:103A800090E0A0E0B0E08D839E83AF83B8879E0175
:103A90002F5E3F4FAE014F5F5F4F68E070E0809157
:103AA000C4049091C5040E9445158823D9F010E004
:103AB00000E0C80163960FB6F894DEBF0FBECDBF1D
:103AC000DF91CF911F910F91FF90EF90DF90CF90FA
:103AD000BF90AF909F908F907F906F905F904F902E
:103AE0000C94262C89899A89089709F7D801ED90BA
:103AF000FC90B8E0EB0EF11CEE0CFF1CEE0CFF1C72
:103B0000C7010E948A2B8C01892B89F249825A8233
:103B10006B827C82C7010F2C000CAA0BBB0B8D8320
:103B20009E83AF83B8879E012F5E3F4FAE014F5FEC
:103B30005F4F68E070E08091C4049091C5040E94DA
:103B400045158111B6CF89899A89089709F0B1CFB7
:103B5000D6011296ED91FC91408151816281738171
:103B6000D8014D935D936D937C9313974481558158
:103B70006681778114964D935D936D937C9317972F
:103B8000408551856285738518964D935D936D933D
:103B90007C931B9784859585A685B785F8018487D6
:103BA0009587A687B787108A118A128A138A84E0BC
:103BB00090E0A0E0B0E0848B958BA68BB78B8091D2
:103BC000B4029091B502B0E0A0E0808F918FA28FF7
:103BD000B38FC5010B2C000CAA0BBB0B848F958FE8
:103BE000A68FB78FF401D801909690E080E08A15F7
:103BF0009B055CF19E012F5E3F4FA801B7018091AC
:103C0000C4049091C5040E944515811152CF898941
:103C10009A89E816F90609F04CCFA70170E060E038
:103C2000C80176D28B8B9E012F5E3F4FAE014D5E59
:103C30005F4F61E070E08091C4049091C5040E94E0
:103C4000451581E08093C70434CF4191519170E0D4
:103C500060E04D935D936D937D930196C8CF8D8504
:103C60009E85AF85B8890097A105B10521F481E053
:103C70008093C60404CE0E941516009781F481E05B
:103C800090E0A0E0B0E089839A83AB83BC83AE016F
:103C90004F5F5F4F64E070E082E190E0AECEBC0128
:103CA000C6010E94750719821A821B821C82AE010E
:103CB0004F5F5F4F64E070E082E190E0D8D98823E5
:103CC000B1F2DDCDD6011496ED91FC910190F08119
:103CD000E02DE084F1848FEF8983E114F10409F48D
:103CE00072C0D7016D907C90C280D38070E060E09C
:103CF00090E080E08615970594F083E190E00E94C3
:103D00009B1510E000E08111BACD061517055CF196
:103D100061E070E0CE0101960E94D215B0CD9C0109
:103D200043E0220F331F4A95E1F7F701A281B381E7
:103D3000A20FB31F1296ED91FC911397EE0FFF1F88
:103D4000EC0DFD1D0190F081E02D16964D915C91DA
:103D5000E49F9001E59F300DF49F300D1124620F18
:103D6000731F0196C7CFD7011296ED91FC91C80140
:103D700023E0880F991F2A95E1F7E80FF91FA0802B
:103D8000B180A281B381AA0FBB1FAC0DBD1D2D91C7
:103D90003C9186819781289F4001299F900C389FF4
:103DA000900C1124B401C5010E94D215582E940123
:103DB00050E040E06981C50197D1898351105FCD02
:103DC0000F5F1F4FA2CF70E060E083E190E00E94A0
:103DD0009B1555CD50E040E070E060E081E190E05F
:103DE00046D981114CCD60E070E0CB010E944009C2
:103DF00080919E04882329F0A80160E070E0CB0147
:103E000017DAA80160E070E0CB010E94470861E08A
:103E100070E080E090E00E94400980919E04882339
:103E200031F0A80161E070E080E090E001DAA801E3
:103E300061E070E080E090E00E9447081092C804C2
:103E40001092C7041092D4041092D3048091C40439
:103E50009091C5040E94931512CD81E090E090935B
:103E6000A00480939F0450E040E070E060E086E1B1
:103E700090E0C3CD81E0F501808301CD8D859E85E5
:103E80000E9415162FEF3FEFA90161E070E0009747
:103E900069F0DC01CD90DD90ED90FC90C701B6019A
:103EA0000E94FB0CA701960170E060E08EE190E0BB
:103EB000C0CDC8010E94F615E2CCCF92DF92EF92FE
:103EC000FF92CF93DF93EC01C12CD12C7601C70177
:103ED000B6010E944009AE01C701B601A9D9AE01E1
:103EE000C701B6010E9447088091C0049091C104A7
:103EF000009731F00E94262C1092C1041092C00449
:103F0000CA94CD28CE28CF2879F58091C704F12C0A
:103F1000882351F050E040E070E060E084E190E000
:103F2000A6D8F82E1092C7048091C804882341F0C7
:103F30001092C80481E090E09093B5028093B4029F
:103F40008091C4049091C5040E9496158091C40488
:103F50009091C5040E948B158F2DDF91CF91FF901A
:103F6000EF90DF90CF900895C12CD12C7601C394AF
:103F7000AECFCF93DF93EC01AC0160E070E0CB01FA
:103F80000E943011AE0161E070E080E090E0DF91CE
:103F9000CF910C94301160E070E0CB010E949D1134
:103FA00061E070E080E090E00C949D11CF92DF9290
:103FB000EF92FF920F931F93CF93DF93EC016A016F
:103FC0007B0100E010E098010E944B0D01E010E041
:103FD00020E030E0B701A601CE010E944B0DDF9139
:103FE000CF911F910F91FF90EF90DF90CF900895A8
:103FF00068EE73E080E090E037D590E080E00895CF
:1040000026E040E050E16EE070E082EE94E00E9435
:10401000612882EE94E08BD7892B21F082EE94E028
:10402000A0D7F7CF90E080E00895CF92DF92EF9293
:10403000FF920F931F93CF93DF936B017A01E901F6
:104040001982188282EE94E072D7892B71F1860171
:10405000CC24C39485E6D82E8091D504811111C05B
:1040600082EE94E07ED785369105B1F7C092D504F3
:10407000F801D1928F018881998101969983888373
:10408000EBCF888199818E159F0578F482EE94E0BC
:1040900068D78F3F9807A9F3F80181938F01888132
:1040A0009981019699838883ECCF90E080E0DF913D
:1040B000CF911F910F91FF90EF90DF90CF900895D7
:1040C0000F931F93CF93DF93EA01890182EE94E06F
:1040D0000E94F12AF801D183C08390E080E0DF9153
:1040E000CF911F910F910895DC01A40FB51F420FCE
:1040F000531F9D01281B390B2417350710F0862FFD
:104100000895ED91E627F0E0EC51FF4F6491F1CF77
:104110009A01AB016FEFE8CFCF93FC01E60FF71FD9
:10412000E40FF51FC081F4DF91E0C81390E0892F00
:10413000CF9108958091D60491E0980F9093D60482
:10414000882349F021E030E03093D8042093D7044D
:104150008093D604089578940E94E203F8948091A5
:10416000D60481508093D6040C941F13FF920F93B2
:104170001F93CF93DF931F92CDB7DEB710927C07CA
:1041800010927B07A7D40E946B140091DB02109160
:10419000DC02F8011182108270E060E090E080E0C3
:1041A0000E9428130E942A05F8947894C8018696E4
:1041B0000E94271381E090E00E9423131982AE0130
:1041C0004F5F5F4F61E070E0F801828193810E9450
:1041D000CE128981882319F081E0F80182A70E941C
:1041E0002D13F8940E94BE14F80180819181892BCF
:1041F00019F481E092A5911180E080937B07789477
:104200007894FF24F39480917B07811110C00E9461
:104210000E0681E090E00E942513F89490E080E083
:104220000F90DF91CF911F910F91FF900895198208
:10423000AE014F5F5F4F61E070E0F80182819381D2
:104240000E9409138981882311F0F801F2A6F80170
:1042500080819181892B89F481E092A5911101C01F
:1042600080E080937C0790917C0781E0911180E051
:1042700080937B070E94DD14C6CF81E0F2CF5058B7
:10428000BB27AA270ED00DC1FED030F003D120F0FD
:1042900031F49F3F11F41EF4F3C00EF4E095E7FBF8
:1042A000E9C0E92F0FD180F3BA17620773078407BB
:1042B000950718F071F49EF527C10EF4E0950B2ECA
:1042C000BA2FA02D0B01B90190010C01CA01A00168
:1042D0001124FF27591B99F0593F50F4503E68F1C3
:1042E0001A16F040A22F232F342F4427585FF3CF04
:1042F000469537952795A795F0405395C9F77EF4D5
:104300001F16BA0B620B730B840BBAF09150A1F01D
:10431000FF0FBB1F661F771F881FC2F70EC0BA0FA3
:10432000621F731F841F48F4879577956795B7952B
:10433000F7959E3F08F0B3CF9395880F08F0992723
:10434000EE0F97958795089571D008F481E0089550
:1043500004D06894B111D9C00895BCD088F09F579B
:1043600090F0B92F9927B751A0F0D1F0660F771FC1
:10437000881F991F1AF0BA95C9F712C0B13081F0A1
:10438000C3D0B1E00895C0C0672F782F8827B85FE9
:1043900039F0B93FCCF3869577956795B395D9F702
:1043A0003EF490958095709561957F4F8F4F9F4F0C
:1043B0000895E89409C097FB3EF490958095709518
:1043C00061957F4F8F4F9F4F9923A9F0F92F96E961
:1043D000BB279395F695879577956795B795F111D6
:1043E000F8CFFAF4BB0F11F460FF1BC06F5F7F4F73
:1043F0008F4F9F4F16C0882311F096E911C0772385
:1044000021F09EE8872F762F05C0662371F096E88D
:10441000862F70E060E02AF09A95660F771F881F5C
:10442000DAF7880F9695879597F90895990F000800
:10443000550FAA0BE0E8FEEF16161706E807F90776
:10444000C0F012161306E407F50798F0621B730B11
:10445000840B950B39F40A2661F0232B242B252B92
:1044600021F408950A2609F4A140A6958FEF811D35
:10447000811D089597F99F6780E870E060E00895D6
:104480009FEF80EC089500240A941616170618066C
:104490000906089500240A94121613061406050648
:1044A0000895092E0394000C11F4882352F0BB0FD9
:1044B00040F4BF2B11F460FF04C06F5F7F4F8F4F3C
:1044C0009F4F089557FD9058440F551F59F05F3F77
:1044D00071F04795880F97FB991F61F09F3F79F026
:1044E00087950895121613061406551FF2CF4695A8
:1044F000F1DF08C0161617061806991FF1CF86952A
:104500007105610508940895E894BB27662777270D
:10451000CB0197F908958ADF08F48FEF08950BD047
:10452000C0CFB1DF28F0B6DF18F0952309F0A2CF95
:10453000A7CF1124EACFC6DFA0F3959FD1F3950F43
:1045400050E0551F629FF001729FBB27F00DB11D17
:10455000639FAA27F00DB11DAA1F649F6627B00DA7
:10456000A11D661F829F2227B00DA11D621F739F90
:10457000B00DA11D621F839FA00D611D221F749F9E
:104580003327A00D611D231F849F600D211D822FE5
:10459000762F6A2F11249F5750408AF0E1F088232C
:1045A0004AF0EE0FFF1FBB1F661F771F881F915039
:1045B0005040A9F79E3F510570F05CCFA6CF5F3FFA
:1045C000ECF3983EDCF3869577956795B795F7956C
:1045D000E7959F5FC1F7FE2B880F911D96958795F4
:1045E00097F908950895883008F076C0E82FF0E034
:1045F000EE0FFF1FEA54FD4F7183608381508730B7
:1046000008F03DC0E82FF0E08827E65FFC4D8F4FB3
:104610000C94542B4723112319232523322353238E
:104620006023809169008C7F482B40936900E89A51
:10463000089580916900837F440F551F440F551FD3
:10464000482B40936900E99A0895809169008F7C16
:1046500074E0440F551F7A95E1F7482B40936900A9
:10466000EA9A0895809169008F7366E0440F551FA0
:104670006A95E1F7482B40936900EB9A0895809181
:104680006A008C7F482B40936A00EC9A08958091D1
:104690006A00837F440F551F440F551F482B4093DA
:1046A0006A00ED9A089580916A008F7C24E0440F9F
:1046B000551F2A95E1F7482B40936A00EE9A08951A
:1046C00080916A008F7396E0440F551F9A95E1F729
:1046D000482B40936A00EF9A08951F920F920FB6ED
:1046E0000F9211240BB60F922F933F934F935F932A
:1046F0006F937F938F939F93AF93BF93EF93FF93AA
:10470000E091BA02F091BB021995FF91EF91BF9130
:10471000AF919F918F917F916F915F914F913F9159
:104720002F910F900BBE0F900FBE0F901F901895FA
:104730001F920F920FB60F9211240BB60F922F9368
:104740003F934F935F936F937F938F939F93AF9319
:10475000BF93EF93FF93E091BC02F091BD021995D6
:10476000FF91EF91BF91AF919F918F917F916F9149
:104770005F914F913F912F910F900BBE0F900FBE05
:104780000F901F9018951F920F920FB60F92112441
:104790000BB60F922F933F934F935F936F937F933B
:1047A0008F939F93AF93BF93EF93FF93E091BE02DC
:1047B000F091BF021995FF91EF91BF91AF919F9139
:1047C0008F917F916F915F914F913F912F910F90BA
:1047D0000BBE0F900FBE0F901F9018951F920F9257
:1047E0000FB60F9211240BB60F922F933F934F9356
:1047F0005F936F937F938F939F93AF93BF93EF9349
:10480000FF93E091C002F091C1021995FF91EF91E1
:10481000BF91AF919F918F917F916F915F914F91D8
:104820003F912F910F900BBE0F900FBE0F901F90D6
:1048300018951F920F920FB60F9211240BB60F927C
:104840002F933F934F935F936F937F938F939F9398
:10485000AF93BF93EF93FF93E091B602F091B7024D
:104860001995FF91EF91BF91AF919F918F917F919A
:104870006F915F914F913F912F910F900BBE0F90D1
:104880000FBE0F901F9018951F920F920FB60F92A8
:1048900011240BB60F922F933F934F935F936F9317
:1048A0007F938F939F93AF93BF93EF93FF93E09189
:1048B000B802F091B9021995FF91EF91BF91AF91B4
:1048C0009F918F917F916F915F914F913F912F9128
:1048D0000F900BBE0F900FBE0F901F9018951F9258
:1048E0000F920FB60F9211240BB60F922F933F9396
:1048F0004F935F936F937F938F939F93AF93BF93E8
:10490000EF93FF93E091C202F091C3021995FF91DA
:10491000EF91BF91AF919F918F917F916F915F9137
:104920004F913F912F910F900BBE0F900FBE0F90A4
:104930001F9018951F920F920FB60F9211240BB66D
:104940000F922F933F934F935F936F937F938F9328
:104950009F93AF93BF93EF93FF93E091C402F091C5
:10496000C5021995FF91EF91BF91AF919F918F91E2
:104970007F916F915F914F913F912F910F900BBE5F
:104980000F900FBE0F901F9018951F920F920FB6A9
:104990000F9211242F933F938F939F93AF93BF93C5
:1049A0008091DA049091DB04A091DC04B091DD04E5
:1049B0003091D90423E0230F2D3758F50196A11D1E
:1049C000B11D2093D9048093DA049093DB04A09363
:1049D000DC04B093DD048091DE049091DF04A091AB
:1049E000E004B091E1040196A11DB11D8093DE04A5
:1049F0009093DF04A093E004B093E104BF91AF91E2
:104A00009F918F913F912F910F900FBE0F901F900C
:104A1000189526E8230F0296A11DB11DD2CF3FB7EE
:104A2000F8948091DE049091DF04A091E004B091AD
:104A3000E10426B5A89B05C02F3F19F00196A11DE2
:104A4000B11D3FBFBA2FA92F982F8827BC01CD01D8
:104A5000620F711D811D911D42E0660F771F881F37
:104A6000991F4A95D1F708958F929F92AF92BF9266
:104A7000CF92DF92EF92FF926B017C01D0DF4B016E
:104A80005C01C114D104E104F104D9F0D7D5C7DF2A
:104A9000681979098A099B09683E73408105910567
:104AA00080F321E0C21AD108E108F10888EE880EEF
:104AB00083E0981EA11CB11CC114D104E104F104CF
:104AC00031F7FF90EF90DF90CF90BF90AF909F9025
:104AD0008F900895789484B5826084BD84B5816098
:104AE00084BD85B5826085BD85B5816085BDEEE6F6
:104AF000F0E0808181608083E1E8F0E010828081D5
:104B000082608083808181608083E0E8F0E0808142
:104B100081608083E1EBF0E0808184608083E0EB62
:104B2000F0E0808181608083E1E9F0E08081826053
:104B30008083808181608083E0E9F0E08081816012
:104B40008083E1EAF0E080818260808380818160FF
:104B50008083E0EAF0E0808181608083E1E2F1E03F
:104B6000808182608083808181608083E0E2F1E0E7
:104B7000808181608083EAE7F0E0808184608083C7
:104B80008081826080838081816080838081806871
:104B900080831092C10008951F93CF93DF93182F45
:104BA000EB0161E033D1209731F460E0812FDF9198
:104BB000CF911F9167C1CF3FD10511F461E0F6CFCE
:104BC000E12FF0E0EC51FE4FE491E150E23108F0CA
:104BD000B2C0F0E08827E151FA4D8F4F65C501263C
:104BE00009260E26182622269B262C2634263C260D
:104BF000462650265A26692673269B267D2687261A
:104C0000912684B5806884BDC7BDDF91CF911F9187
:104C1000089584B5806284BDC8BDF7CF80918000BF
:104C2000806880938000D0938900C0938800EDCF86
:104C300080918000806280938000D0938B00C0932D
:104C40008A00E3CF80918000886080938000D093B9
:104C50008D00C0938C00D9CF8091B0008068809384
:104C6000B000C093B300D1CF8091B0008062809338
:104C7000B000C093B400C9CF809190008068809349
:104C80009000D0939900C0939800BFCF809190007E
:104C9000806280939000D0939B00C0939A00B5CF20
:104CA00080919000886080939000D0939D00C09385
:104CB0009C00ABCF8091A00080688093A000809181
:104CC000A0008F7B8093A000D093A900C093A80080
:104CD0009CCF8091A00080628093A000D093AB0015
:104CE000C093AA0092CF8091A00088608093A0001A
:104CF000D093AD00C093AC0088CF80912001806834
:104D000080932001D0932901C09328017ECF809108
:104D10002001806280932001D0932B01C0932A014F
:104D200074CF80912001886080932001D0932D0161
:104D3000C0932C016ACFC038D1050CF03FCF35CFDE
:104D40008150823108F059C0E82FF0E08827E555FE
:104D5000F94D8F4FA9C4CB26CF26BD26C326C72623
:104D6000FD26D226D826DC26E226E626EA26F026EE
:104D7000F426FD26F826FE260227809180008F77F4
:104D8000809380000895809180008F7DF9CF80917D
:104D90008000877FF5CF84B58F7784BD089584B573
:104DA0008F7DFBCF8091B0008F778093B000089506
:104DB0008091B0008F7DF9CF809190008F778093A4
:104DC00090000895809190008F7DF9CF80919000A0
:104DD000877FF5CF8091A0008F778093A000089502
:104DE0008091A0008F7DF9CF8091A000877FF5CFC3
:104DF000809120018F778093200108958091200178
:104E00008F7DF9CF80912001877FF5CFCF93DF93FE
:104E100090E0FC01E65DFD4F249180599D4FFC011F
:104E200084918823C9F090E0880F991FFC01E65116
:104E3000FD4FA591B491FC01E053FD4FC591D49174
:104E400061110DC09FB7F8948C91209582238C93AB
:104E50008881282328839FBFDF91CF9108956230F6
:104E600051F49FB7F8943C91822F809583238C93C3
:104E7000E8812E2BEFCF8FB7F894EC912E2B2C934B
:104E80008FBFEACF1F93CF93DF93282F30E0F90134
:104E9000EC51FE4F8491F901E65DFD4FD491F9018B
:104EA000E059FD4FC491CC23A1F0162F811148DFAA
:104EB000EC2FF0E0EE0FFF1FE053FD4FA591B491F2
:104EC0008FB7F894EC91111108C0D095DE23DC93D4
:104ED0008FBFDF91CF911F910895DE2BF8CFCF9335
:104EE000DF93282F30E0F901EC51FE4F8491F90156
:104EF000E65DFD4FD491F901E059FD4FC491CC23FB
:104F000099F081111DDFEC2FF0E0EE0FFF1FEA5446
:104F1000FD4FA591B491EC91ED2381E090E009F46F
:104F200080E0DF91CF91089580E090E0FACFFC011E
:104F3000918D228D892F90E0805C9F4F821B91097B
:104F40008F7399270895FC01918D828D981731F008
:104F5000828DE80FF11D858D90E008958FEF9FEF12
:104F60000895FC01918D828D981761F0A28DAE0F8E
:104F7000BF2FB11D5D968C91928D9F5F9F73928F15
:104F800090E008958FEF9FEF0895FC01538D448DBD
:104F9000252F30E0842F90E0821B930B541710F0E4
:104FA000CF96089501970895FC01A48DA80FB92FFD
:104FB000B11DA35ABF4F2C91848D90E001968F7341
:104FC0009927848FA689B7892C93A089B1898C9160
:104FD000837080648C93938D848D981306C00288AF
:104FE000F389E02D80818F7D80830895CF93DF93B7
:104FF000EC01888D8823B1F0AA89BB89E889F989F9
:105000008C9185FD03C0808186FD0CC00FB607FC26
:10501000F7CF8C9185FFF2CF808185FFEDCFCE0158
:10502000C3DFEACFDF91CF910895EF92FF920F9304
:105030001F93CF93DF93EC0181E0888F9B8D8C8D44
:1050400098131AC0E889F989808185FF15C09FB738
:10505000F894EE89FF896083E889F98980818370FB
:10506000806480839FBF81E090E0DF91CF911F91AA
:105070000F91FF90EF900895F62E0B8D10E00F5FCB
:105080001F4F0F731127E02E8C8D8E110BC00FB6A2
:1050900007FCFACFE889F989808185FFF5CFCE0139
:1050A00083DFF2CFEB8DEC0FFD2FF11DE35AFF4FA5
:1050B000F0829FB7F8940B8FEA89FB898081806228
:1050C000D0CFCF92DF92EF92FF921F93CF93DF93D7
:1050D000EC016A017B01122FE889F98982E0808363
:1050E000C11481EED806E104F10499F060E079E0A2
:1050F0008DE390E0A7019601B5D221503109410915
:1051000051095695479537952795211580E1380720
:1051100090F0E889F989108260E874E88EE190E007
:10512000A70196019FD22150310941095109569595
:10513000479537952795EC85FD853083EE85FF856E
:105140002083188EEC89FD891083EA89FB89808190
:1051500080618083EA89FB89808188608083EA8915
:10516000FB89808180688083EA89FB8980818F7DCB
:105170008083DF91CF911F91FF90EF90DF90CF90D0
:1051800008951F920F920FB60F9211240BB60F9233
:105190002F938F939F93EF93FF93E091F204F091FD
:1051A000F3048081E091F804F091F90482FD1DC0C0
:1051B00090818091FB048F5F8F732091FC04821794
:1051C00041F0E091FB04F0E0EE51FB4F958F8093AE
:1051D000FB04FF91EF919F918F912F910F900BBE48
:1051E0000F900FBE0F901F9018958081F2CF1F92E5
:1051F0000F920FB60F9211240BB60F922F933F937D
:105200004F935F936F937F938F939F93AF93BF93CE
:10521000EF93FF9382EE94E0C7DEFF91EF91BF9191
:10522000AF919F918F917F916F915F914F913F913E
:105230002F910F900BBE0F900FBE0F901F901895DF
:10524000E2EEF4E01382128288EE93E0A0E0B0E098
:1052500084839583A683B7838DEA93E091838083CB
:1052600085EC90E09587848784EC90E0978786872B
:1052700080EC90E0918B808B81EC90E0938B828B23
:1052800082EC90E0958B848B86EC90E0978B868BFC
:10529000118E128E138E148E08951F920F920FB6D8
:1052A0000F9211240BB60F922F938F939F93EF932E
:1052B000FF93E0918F05F09190058081E091950535
:1052C000F091960582FD1DC09081809198058F5FB9
:1052D0008F7320919905821741F0E0919805F0E0D5
:1052E000E158FA4F958F80939805FF91EF919F9128
:1052F0008F912F910F900BBE0F900FBE0F901F90AC
:1053000018958081F2CF1F920F920FB60F92112441
:105310000BB60F922F933F934F935F936F937F93AF
:105320008F939F93AF93BF93EF93FF938FE795E096
:105330003BDEFF91EF91BF91AF919F918F917F9154
:105340006F915F914F913F912F910F900BBE0F90F6
:105350000FBE0F901F901895EFE7F5E013821282B1
:1053600088EE93E0A0E0B0E084839583A683B783C2
:105370008DEA93E0918380838DEC90E0958784871C
:105380008CEC90E09787868788EC90E0918B808BFF
:1053900089EC90E0938B828B8AEC90E0958B848BE8
:1053A0008EEC90E0978B868B118E128E138E148E5E
:1053B00008951F920F920FB60F9211240BB60F9201
:1053C0002F938F939F93EF93FF93E0912C06F0918F
:1053D0002D068081E0913206F091330682FD1DC0DA
:1053E0009081809135068F5F8F73209136068217EA
:1053F00041F0E0913506F0E0E45EF94F958F80933F
:105400003506FF91EF919F918F912F910F900BBED9
:105410000F900FBE0F901F9018958081F2CF1F92B2
:105420000F920FB60F9211240BB60F922F933F934A
:105430004F935F936F937F938F939F93AF93BF939C
:10544000EF93FF938CE196E0AFDDFF91EF91BF9179
:10545000AF919F918F917F916F915F914F913F910C
:105460002F910F900BBE0F900FBE0F901F901895AD
:10547000ECE1F6E01382128288EE93E0A0E0B0E067
:1054800084839583A683B7838DEA93E09183808399
:1054900085ED90E09587848784ED90E097878687F7
:1054A00080ED90E0918B808B81ED90E0938B828BEF
:1054B00082ED90E0958B848B86ED90E0978B868BC8
:1054C000118E128E138E148E08951F920F920FB6A6
:1054D0000F9211240BB60F922F938F939F93EF93FC
:1054E000FF93E091C906F091CA068081E091CF0652
:1054F000F091D00682FD1DC090818091D2068F5F11
:105500008F732091D306821741F0E091D206F0E02C
:10551000E754F94F958F8093D206FF91EF919F91B9
:105520008F912F910F900BBE0F900FBE0F901F9079
:1055300018958081F2CF1F920F920FB60F9211240F
:105540000BB60F922F933F934F935F936F937F937D
:105550008F939F93AF93BF93EF93FF9389EB96E065
:1055600023DDFF91EF91BF91AF919F918F917F913B
:105570006F915F914F913F912F910F900BBE0F90C4
:105580000FBE0F901F901895E9EBF6E01382128280
:1055900088EE93E0A0E0B0E084839583A683B78390
:1055A0008DEA93E09183808385E391E095878487FA
:1055B00084E391E09787868780E391E0918B808BED
:1055C00081E391E0938B828B82E391E0958B848BD6
:1055D00086E391E0978B868B118E128E138E148E3C
:1055E0000895AF92BF92CF92DF92EF92FF920F9306
:1055F0001F93CF93DF936C017B018B01040F151F69
:10560000EB015E01AE18BF08C017D10759F06991D0
:10561000D601ED91FC910190F081E02DC601199524
:10562000892B79F7C501DF91CF911F910F91FF90E1
:10563000EF90DF90CF90BF90AF900895089597FBC3
:10564000072E16F4009406D077FD08D035D007FC5D
:1056500005D03EF4909581959F4F08957095619582
:105660007F4F0895A1E21A2EAA1BBB1BFD010DC09E
:10567000AA1FBB1FEE1FFF1FA217B307E407F50702
:1056800020F0A21BB30BE40BF50B661F771F881FDE
:10569000991F1A9469F760957095809590959B0174
:1056A000AC01BD01CF010895EE0FFF1F881F8BBF16
:1056B0000790F691E02D1994AA1BBB1B51E107C07E
:1056C000AA1FBB1FA617B70710F0A61BB70B881F92
:1056D000991F5A95A9F780959095BC01CD01089521
:1056E0000F931F93CF93DF93869F8001879F100DA9
:1056F000969F100D1124C8010DD0EC01009721F0E8
:10570000A80170E060E034D1CE01DF91CF911F910C
:105710000F9108950F931F93CF93DF9382309105DC
:1057200010F482E090E0E0917F07F091800730E094
:1057300020E0B0E0A0E0309799F42115310509F49C
:105740004AC0281B390B24303105D8F58A819B814A
:105750006115710589F1FB0193838283FE0111C0FC
:10576000408151810281138148175907E0F04817A1
:10577000590799F4109761F012960C9312971396AB
:105780001C933296CF01DF91CF911F910F91089515
:1057900000937F0710938007F4CF2115310551F056
:1057A0004217530738F0A901DB019A01BD01DF015F
:1057B000F801C1CFEF01F9CF9093800780937F0765
:1057C000CDCFFE01E20FF31F819391932250310957
:1057D00039832883D7CF20917D0730917E07232BF3
:1057E00041F4209102023091030230937E0720930E
:1057F0007D0720910002309101022115310541F40D
:105800002DB73EB74091040250910502241B350B81
:10581000E0917D07F0917E07E217F307A0F42E1BBD
:105820003F0B2817390778F0AC014E5F5F4F241704
:10583000350748F04E0F5F1F50937E0740937D075A
:10584000819391939FCFF0E0E0E09CCFCF93DF93E3
:105850000097E9F0FC01329713821282A0917F0732
:10586000B0918007ED0130E020E01097A1F4208195
:105870003181820F931F20917D0730917E07281779
:10588000390709F061C0F0937E07E0937D07DF914F
:10589000CF910895EA01CE17DF07E8F54A815B81D1
:1058A0009E0141155105B1F7E901FB83EA83499156
:1058B0005991C40FD51FEC17FD0761F480819181C8
:1058C0000296840F951FE9019983888382819381D1
:1058D0009B838A83F0E0E0E012968D919C91139770
:1058E0000097B9F52D913C911197CD010296820F49
:1058F000931F20917D0730917E072817390739F6CD
:10590000309751F51092800710927F07B0937E0771
:10591000A0937D07BCCFD383C28340815181840F84
:10592000951FC817D90761F44E5F5F4F8881998131
:10593000480F591F518340838A819B8193838283BF
:105940002115310509F0B0CFF0938007E0937F0770
:105950009ECFFD01DC01C0CF13821282D7CFFB01A5
:10596000DC0102C001900D9241505040D8F70895DB
:10597000DC0101C06D9341505040E0F70895FB01F8
:10598000DC018D91019080190110D9F3990B0895D4
:04599000F894FFCFB9
:1059940000008107800003000A02A6020400000040
:1059A4000400AE02080000000200B0020300000080
:1059B40002000800260256070400000002005A07ED
:1059C4000800000001005B070F00000001006707EA
:1059D4000E00000001006F070000000001007307C3
:1059E4000B000000020077070400000001007907A3
:1059F400080000000200DD02E402EE02ED02F602FD
:105A0400F502FF02FE02070311031C0322032C0309
:105A1400350349035403040004000100010002009B
:105A2400020004000400010004000200020004005B
:105A3400080008000C00A00F000000007400010022
:105A4400000101010100F222F222F222F222F222EA
:105A5400F222F222F22253696D756C6174696F6EE1
:105A64002066696E69736865640001EB03726561A1
:105A74006C5F54007265616C33325F540075696EFB
:105A840074385F540075696E7431365F54007569FB
:105A94006E7433325F5400626F6F6C65616E5F5475
:105AA4000066636E5F63616C6C5F5400696E745F63
:105AB4005400706F696E7465725F54006163746939
:105AC4006F6E5F540074696D65725F75696E7433CF
:105AD400325F706169725F54006C6777306179641A
