:1000000085C100000C94C5250C94F0250C941B268A
:100010000C9446260C9471260C949C260C94C726AE
:100020000C94F226A4C10000A2C10000A0C10000EF
:100030009EC100009CC100009AC1000098C1000050
:1000400096C1000094C1000092C1000090C1000060
:100050008EC100008CC100008AC100000C941D27D5
:1000600086C100000C94192B0C944F2B80C100000A
:100070007EC100007CC100007AC1000078C1000090
:1000800076C1000074C1000072C1000070C10000A0
:100090000C94A52B0C94DB2B6AC1000068C10000F6
:1000A00066C1000064C1000062C1000060C10000C0
:1000B0005EC100005CC100005AC1000058C10000D0
:1000C00056C1000054C100000C94E8160C94312C69
:1000D0000C94672C4CC100000C94BD2C0C94F32C98
:1000E00046C10000001D3A2774694E53E8F5D2CF8F
:1000F0009C81A6BBCDD0F7EAB9A4839E25381F0208
:10010000514C6B76879ABDA0F3EEC9D46F725548F7
:100110001B06213C4A57706D3E230419A2BF9885E7
:10012000D6CBECF1130E2934677A5D40FBE6C1DCD7
:100130008F92B5A8DEC3E4F9AAB7908D362B0C11C7
:10014000425F78659489AEB3E0FDDAC77C61465BB7
:100150000815322F5944637E2D30170AB1AC8B96A7
:10016000C5D8FFE2263B1C01524F6875CED3F4E997
:10017000BAA7809DEBF6D1CC9F82A5B8031E392487
:10018000776A4D50A1BC9B86D5C8EFF24954736E77
:100190003D20071A6C71564B1805223F8499BEA367
:1001A000F0EDCAD735280F12415C7B66DDC0E7FA57
:1001B000A9B4938EF8E5C2DF8C91B6AB100D2A3747
:1001C00064795E43B2AF8895C6DBFCE15A47607D37
:1001D0002E3314097F6245580B16312C978AADB027
:1001E000E3FED9C400000A0B02090C0D0E08070338
:1001F00004010000000000000000000000000000FA
:1002000000000000000000000000000000000000EE
:1002100012111000000000000000000000000000AB
:100220000000000000000000000001021020200873
:100230000810204010204080020102010804020141
:1002400001020408102040808040201008040201B0
:100250008004020180402010080402010804020109
:100260000102040810204080010204081020408090
:1002700005050505070508080808020202020A0A22
:100280000808040404040101010101010101030340
:10029000030303030303040707070C0C0C0C0C0CEB
:1002A0000C0C0202020206060606060606060B0BE8
:1002B0000B0B0B0B0B0B000020002300260029006A
:1002C0002C002F003200000100000301060109018B
:1002D00000002200250028002B002E0031003400F1
:1002E00002010000050108010B01000021002400AB
:1002F00027002A002D003000330001010000040116
:1003000007010A01782B042C902C1C2D11241FBEF0
:10031000CFEFD1E2DEBFCDBF00E00CBF14E0A0E024
:10032000B2E0EAE7FEE500E00BBF02C007900D92E5
:10033000A434B107D9F728E0A4E4B4E001C01D92C9
:10034000A035B207E1F711E0C6E8D1E000E006C051
:1003500021970109802FFE010E94AC2DC238D107E0
:1003600080E00807A9F70E940E230C943B2F48CE8B
:10037000611102C00C945E296130E1F362E0FACFB2
:10038000662319F061E00C949A2960E0FCCF0E948A
:10039000C72921E0019709F020E0822F08950895F0
:1003A000CF92DF92EF92FF92CF93882351F16A01AF
:1003B0007B01CFEFC80F20E030E0A901CB01B601EF
:1003C0000E94FC2387FF11C0C701B60190580E940C
:1003D00005249B01AC016C2F70E090E080E0CF9190
:1003E000FF90EF90DF90CF90B2C0C701B6010E949E
:1003F00000248C2FCF91FF90EF90DF90CF900C9442
:100400002428CF91FF90EF90DF90CF9008950F9325
:100410001F938B019C0183E03695279517950795CF
:100420008A95D1F70C5B1B4F462F477021E030E0D7
:10043000F90102C0EE0FFF1F4A95E2F7AF01F80184
:1004400020812423CB010196211102C090E080E09D
:100450001F910F9108950F931F938B019C0183E0CF
:1004600036952795179507958A95D1F7677081E09E
:1004700090E001C0880F6A95EAF7F801EC5BFB4F4A
:100480002081452B31F48095822380831F910F9129
:100490000895822BFACF2F923F924F925F926F92E4
:1004A0007F928F929F92AF92BF92CF92DF92EF9204
:1004B000FF920F931F93CF93DF93D62EC72E782EE4
:1004C000692E49015A01280161E08D2D0E945E29A3
:1004D000CD2DDC2D8E010F5F1F4FA8016D2D7C2DC2
:1004E000872D962DB8DF20E030E0A901C201B701C9
:1004F0000E94E324181664F4C201B7010E94052487
:100500002B01C501B4010E940524A201CE0123D014
:10051000C801DF91CF911F910F91FF90EF90DF9075
:10052000CF90BF90AF909F908F907F906F905F9093
:100530004F903F902F900895882341F08150682F6D
:1005400070E090E080E050E040E085CF0895862F95
:10055000B9010C9424289C01FC01EC51FE4FE4915C
:10056000E150E231E0F4F0E08827E654FD4F8F4F90
:100570000C94AC2DCC02D302D602ED020203CF02C2
:100580001703230327033E03530368037F039403E6
:10059000CF02A903C003D50384B5806884BD60E0A1
:1005A000822F0C949A2984B58062F8CF80918000C4
:1005B0008C7F82608093800080918100807E80614A
:1005C000682B609381005093870040938600809150
:1005D0008000806880938000E2CF809180008C7FD3
:1005E00082608093800080918100807E8061682B92
:1005F0006093810050938700409386008091800033
:100600008062E8CF809180008C7F82608093800040
:1006100080918100807E8061682B6093810050937F
:10062000870040938600809180008860D3CF8091BE
:10063000B00080688093B0008091B100887F682B03
:100640006093B100ACCF8091B0008062F3CF809115
:1006500090008C7F82608093900080919100807EDA
:100660008061682B609391005093970040939600AF
:100670008091900080688093900091CF809190004D
:100680008C7F82608093900080919100807E806159
:10069000682B60939100509397004093960080914F
:1006A00090008062E8CF809190008C7F8260809380
:1006B000900080919100807E8061682B6093910012
:1006C0005093970040939600809190008860D3CF1C
:1006D0008091A0008C7F82608093A0008091A10017
:1006E000807E8061682B6093A1005093A7004093A7
:1006F000A6008091A00080688093A00050CF8091D8
:10070000A0008C7F82608093A0008091A100807EF9
:100710008061682B6093A1005093A7004093A600CE
:100720008091A0008062E8CF8091A0008C7F8260E1
:100730008093A0008091A100807E8061682B6093EF
:10074000A1005093A7004093A6008091A00088606C
:10075000D3CF809120018C7F826080932001809193
:100760002101807E8061682B6093210150932701D5
:1007700040932601809120018068809320010FCF53
:10078000809120018C7F82608093200180912101E3
:10079000807E8061682B60932101509327014093F4
:1007A0002601809120018062E8CF809120018C7F1A
:1007B00082608093200180912101807E8061682B7E
:1007C00060932101509327014093260180912001DD
:1007D0008860D3CF4F925F926F927F928F929F9259
:1007E000AF92BF92CF92DF92EF92FF92CF93DF93BF
:1007F00000D000D0CDB7DEB720912C0830912D0865
:100800008091F2029091F3022817390709F428C168
:1008100081E04091F4025091F5024217530709F02C
:1008200080E08093F40726E138E042EF57E060EF84
:1008300077E084EF97E00E944B166091F00770918B
:10084000F107072E000C880B990B0E94332420918E
:10085000FE023091FF0240910003509101030E947B
:1008600098236B017C018090060390900703A09071
:100870000803B0900903AC019B01C501B4010E94BB
:10088000FC2387FFEFC0A5019401C701B6010E94B8
:10089000972320910A0330910B0340910C03509150
:1008A0000D030E94E7249B01AC012093E4073093E1
:1008B000E5074093E6075093E7078091F407882304
:1008C00021F080912E0380932E0880912E088111B3
:1008D00008C02091FA023091FB024091FC02509135
:1008E000FD0260910E0370910F03809110039091AF
:1008F00011030E9497234B015C012091DA02309191
:10090000DB024091DC025091DD020E94E72420913D
:100910001E0830911F0840912008509121080E9424
:1009200097232091EA023091EB024091EC02509122
:10093000ED020E94E72469837A838B839C83209154
:10094000EE023091EF024091F0025091F102C501A8
:10095000B4010E94E72420911A0830911B084091AD
:100960001C0850911D080E94982329813A814B81CF
:100970005C810E9498236B017C01CB01D70180939D
:10098000E8079093E907A093EA07B093EB0740903C
:100990001A0350901B0360901C0370901D03A30169
:1009A0009201B601C7010E94E324181694F040900A
:1009B0001E0350901F036090200370902103A30139
:1009C0009201B601C7010E94FC2387FD02C02601E7
:1009D0003701209122033091230340912403509149
:1009E0002503C301B2010E94E7246B017C0120E0D2
:1009F00030E0A9010E94FC2387FD30C020E030E0F8
:100A0000A901C701B6010E94E32418160CF43FC0E7
:100A100020E030E0A901C701B6010E94FC23882331
:100A200009F4CFC1C0903E08D0903F08E090400844
:100A3000F090410820E030E040E853E4C701B601FF
:100A40000E94FC236FEF87FF2CC020E030E0A9015B
:100A5000C701B6010E94E32487FF1FC060E021C0E8
:100A600081E0DFCE8090020390900303A090040306
:100A7000B0900503A7019601C501B4010E94FC23B3
:100A800018160CF400CF60E070E0CB0102CFC12C4F
:100A9000D12C90E8E92E9FE3F92EC701B6010E9400
:100AA00005248AE06DDC73016201E894F7F8609137
:100AB0000A0870910B0880910C0890910D08A7DC32
:100AC0009E838D83909309088093080820912603C4
:100AD000309127034091280350912903C701B601A3
:100AE0000E94E7246B017C0120E030E04FE753E4F3
:100AF0000E94FC2387FF69C120E030E0A901C70103
:100B0000B6010E94E32418160CF066C1B701A601D5
:100B10008D819E8145DC20912C0330912D03A09185
:100B2000F207B091F3070E94B42D6093EC07709325
:100B3000ED078093EE079093EF07C090F602D090F8
:100B4000F702E090F802F090F902A7019601609197
:100B5000FE077091FF0780910008909101080E94A4
:100B6000FC23882341F0C092FE07D092FF07E09259
:100B70000008F092010882E00ADC8093F50780917A
:100B8000F0079091F10790932D0880932C0826E1AF
:100B900038E042EF57E060EF77E084EF97E00E94A3
:100BA0007D162091DE023091DF024091E0025091EB
:100BB000E102C501B4010E94E724209112033091A3
:100BC000130340911403509115030E94E7242091D0
:100BD0001A0830911B0840911C0850911D080E9472
:100BE000982360931A0870931B0880931C089093B5
:100BF0001D0820911603309117034091180350915E
:100C0000190369817A818B819C810E94E72420915C
:100C10001E0830911F0840912008509121080E9421
:100C2000982360931E0870931F0880932008909368
:100C3000210881E090E00E94791540918F04509145
:100C40009004609191047091920490E080E00E9481
:100C5000751580909F049090A004A090A104B0907E
:100C6000A20420E030E040E85FEBC501B4010E943F
:100C7000FC23882331F1C0908F04D0909004E09041
:100C80009104F0909204A7019601C501B4010E945D
:100C900097234B015C0120E030E040E054E3C701C2
:100CA000B6010E94E7249B01AC01C501B4010E947A
:100CB000E324181634F084E493E090937A0480934C
:100CC00079048091A304882331F084E493E0909325
:100CD0007A0480937904C0909304D0909404E090B7
:100CE0009504F09096048FEFC81AD80AE80AF80A1B
:100CF000C0929304D0929404E0929504F0929604EA
:100D0000C114D104E104F10499F480919704909105
:100D10009804A0919904B0919A040196A11DB11D67
:100D20008093970490939804A0939904B0939A04A5
:100D300080909B0490909C04A0909D04B0909E0491
:100D400060919704709198048091990490919A040D
:100D50000E943124A50194010E94E72420E030E0A4
:100D600040E85FE40E94E7242B013C01C701B60183
:100D70000E943124A50194010E94E7249B01AC014B
:100D8000C301B2010E94982360938F047093900472
:100D9000809391049093920426960FB6F894DEBF48
:100DA0000FBECDBFDF91CF91FF90EF90DF90CF903E
:100DB000BF90AF909F908F907F906F905F904F907B
:100DC0000895C12CD12C760168CEC12CD12C8FE78F
:100DD000E82E83E4F82E9ACEC12CD12C760196CE43
:100DE0008F929F92AF92BF92DF92EF92FF920F93FA
:100DF0001F93CF93DF9384E090E06FD1E9E7F4E0B5
:100E00008BE2DF011D928A95E9F780E090E0A0E88F
:100E1000BFEB86A397A3A0A7B1A78FE692E1A3E8B3
:100E2000BAE382A393A3A4A3B5A38AE99CECA6EF9B
:100E3000B1E784839583A683B78388EA93EAACE419
:100E4000B2E280879187A287B3878CED94E9ADE108
:100E5000B5E984879587A687B78784E597E6A5E2F5
:100E6000B3EF808B918BA28BB38BCDE6D4E0D38391
:100E7000C283A1E6B4E0B983A88388E593E0119624
:100E80009C938E9313969C938E93129715969C9396
:100E90008E93149717969C938E93169719969C93FE
:100EA0008E9318971B969C938E931A978DE894E0D7
:100EB0009D838C838DE794E09B838A838FE894E005
:100EC0009F838E83A4EEB7E082E1ED0119928A95AB
:100ED000E9F7C6EFD7E08CE3DE011D928A95E9F7CA
:100EE00027E534E08AE0D9011D928A95E9F7ADE45F
:100EF000B4E0B58BA48B83E190E011969C938E9324
:100F000084EB92E013969C938E9312978EE892E076
:100F100015969C938E93149782E392E017969C9378
:100F20008E93169786E092E019969C938E9318976D
:100F3000DD24D394DAAE812C912C54018394898ED4
:100F40009A8EAB8EBC8E61E08AE012DADD8E1C8652
:100F5000D9AE89E090E0A0E0B0E08C8B9D8BAE8BA9
:100F6000BF8B198A8D869E86AF86B88AE12CF12CBC
:100F70008701A801970169E070E080E090E08BDADA
:100F80009B8B8A8B6C897D898E899F8940DA9B8BAC
:100F90008A8B05DAD98A1882DBAE0AED12E0F801F5
:100FA000848D958DA68DB78D88879987AA87BB87F5
:100FB00089829A82AB82BC8260E082E0D9D9DD82EC
:100FC00080912A0390912B039FAB8EAB18A219A29C
:100FD0001AA21BA280912F0388AFF8018485958502
:100FE000A685B7858CA39DA3AEA3BFA3808591855D
:100FF000A285B38588A799A7AAA7BBA7DF91CF91A0
:101000001F910F91FF90EF90DF90BF90AF909F9056
:101010008F90089580910E08811103C081E0809324
:101020000E0880910208811132C081E0809302088D
:101030008091030890910408A0910508B0910608DA
:101040000197A105B10519F5809107088823F9F0EA
:1010500060910A0870910B0880910C0890910D081E
:10106000D6D9909309088093080840E050E0BA016F
:1010700097D960910A0870910B0880910C089091A3
:101080000D08C5D9909309088093080855DA809116
:10109000F607811103C081E08093F607089560E0B0
:1010A00070E080E89FE7089560E070E080E89FE7E7
:1010B000089560E070E080E89FEF089560E070E0E0
:1010C00080E89FEF089560E070E080EC9FEF089566
:1010D00060E070E080EC9FEF0895F5DF60933E08DC
:1010E00070933F088093400890934108F1DF60932C
:1010F0003208709333088093340890933508CFDF1B
:1011000060933A0870933B0880933C0890933D08A5
:10111000CBDF60933608709337088093380890933C
:101120003908C7DF609342087093430880934408EE
:1011300090934508C3DF60934608709347088093F7
:101140004808909349080895EF92FF920F931F93D8
:10115000CF93DF93EA01F901DC011496ED90FC9046
:10116000159712964D915C9113974E0D5F1D288136
:10117000398118960D911C9119970217130730F0B9
:101180000D911C911197012B09F441C08A01021B9A
:10119000130BDC0118968D919C918E199F09800F7D
:1011A000911F86179707DCF1C901860F971F8417D7
:1011B000950778F4718360833383228315821482C8
:1011C0001782168288819981680F791F79836883D5
:1011D00016C01183008333832283601B710B7583D8
:1011E000648390E080E01616170614F49E2D8F2D70
:1011F00096838783D701A60FB71FB983A88380E0A2
:10120000DF91CF911F910F91FF90EF900895189665
:101210008D919C91821B930B861797075CF681E05A
:10122000EFCFCF92DF92EF92FF92CF93DF936B01DC
:1012300084E4869FE001879FD00D1124CC55DB4FBD
:101240008AA99BA9009721F00E94992E1BAA1AAA8D
:1012500084E48C9DF0018D9DF00D1124EC55FB4F25
:1012600086A997A9009711F00E94992E84E48C9D7D
:10127000F0018D9DF00D1124EC55FB4F138A128A5D
:10128000168A178A108E118E128E138E148E158E5A
:10129000168E178E10A211A281E090E093A382A374
:1012A00015A214A216A217A210A611A613A612A682
:1012B00015A614A616A617A610AA11AA13AA12AA52
:1012C00015AA14AA17AA16AA11AE10AE12AE13AE22
:1012D00014AE15AEDF01DE961D921D921D921C927A
:1012E0001397EE5BFF4F11821082DF91CF91FF9039
:1012F000EF90DF90CF900895CF93DF93FB01DC0157
:101300006D917C91DB011696CD91DC91808191816C
:1013100023E0880F991F2A95E1F7AA81BB81A80FC6
:10132000B91F8D919C91119724853585220F331F0C
:10133000EB016A817B81EB01C20FD31F0990D88139
:10134000C02D14962D913C9161E070E0232B11F09B
:1013500062E070E0C69F9001C79F300DD69F300DB0
:101360001124A085B1852A9FB0012B9F700D3A9F53
:10137000700D1124A481B5812A9FF0012B9FF00DDF
:101380003A9FF00D11248E0F9F1FFA0191838083E5
:1013900073836283DF91CF9108952F923F924F9292
:1013A0005F926F927F928F929F92AF92BF92CF92F5
:1013B000DF92EF92FF920F931F93CF93DF9300D0B2
:1013C00000D0CDB7DEB7DC011496ED91FC91019011
:1013D000F081E02D808591859A838983A281B381F4
:1013E000BC83AB83FB0181909190A190B190C12C03
:1013F000D12C7601C814D904EA04FB04CCF026965B
:101400000FB6F894DEBF0FBECDBFDF91CF911F9115
:101410000F91FF90EF90DF90CF90BF90AF909F9093
:101420008F907F906F905F904F903F902F90089596
:1014300044805580668077804085518562857385BC
:10144000CF0140969E838D83A081B1819D0183E071
:10145000220F331F8A95E1F7A981BA8112968D91E7
:101460009C91D901A80FB91F2D903C90119704842D
:10147000F585E02DEE0FFF1F8B819C81E80FF91F92
:101480000190F081E02D14968D919C91892B41F56E
:1014900081E090E0E89F9001E99F300DF89F300DCA
:1014A0001124249F8001259F100D349F100D1124BD
:1014B000249DC001259D900D349D900D1124A801FF
:1014C0006D817E81820D931D0E94222FED81FE8110
:1014D000E00FF11F9FEFC91AD90AE90AF90A8ACF6A
:1014E00082E090E0D7CFCF93DF93DB01A05DBC4FCC
:1014F0002C91222369F024E4269FF001279FF00D10
:101500001124EC55FB4FEF0119922A95E9F71C9233
:1015100024E4269FF001279FF00D1124EC55FB4F8A
:1015200014821582168217821186108613861286FF
:10153000118A108A17861686DF91CF9172CE2F926C
:101540003F924F925F926F927F928F929F92AF9253
:10155000BF92CF92DF92EF92FF920F931F93CF93A0
:10156000DF9300D000D01F921F92CDB7DEB724E4E6
:10157000269FF001279FF00D1124EC55FB4F0481AD
:10158000158126813781012B022B032B09F4B7C06B
:101590002A016B017C0110E000E0812C912C5401A8
:1015A0003F019F01285F3F4F3C832B83CF0104966F
:1015B0009E838D83AB81BC818D919C91ED81FE8159
:1015C000408151816281738184169506A606B70613
:1015D000E4F10E94992ED3011A968D919C91892B4A
:1015E00009F07EC084E48C9DD0018D9DB00D112446
:1015F000AC55BB4FBC83AB8350968D919C910E94A0
:10160000992EEB81FC81868597850E94992EC701D2
:10161000B60107DEC701B60128960FB6F894DEBF03
:101620000FBECDBFDF91CF911F910F91FF90EF9033
:10163000DF90CF90BF90AF909F908F907F906F90F2
:101640005F904F903F902F904ECFFC01E00FF11F25
:1016500092819983A381AA839F83A887312C212C0F
:101660002414350464F089819A810E94992EEFEF49
:101670008E1A9E0AAE0ABE0A0C5F1F4F9BCFAF8127
:10168000B885ED91FD91B887AF83309759F084818B
:1016900095810E94992EEF81F88532978081918102
:1016A0000E94992EBFEF2B1A3B0ADACF800F911FB1
:1016B000FC01848195810E94992E2B813C812F5FB2
:1016C0003F4F3C832B83025F1F4FF5018081918147
:1016D0002B813C81241535054CF30E94992E82CF35
:1016E00010E000E01C821B8224E42C9DC0012D9D93
:1016F000900D1124DC01A255BB4F5D01E6CF289669
:101700000FB6F894DEBF0FBECDBFDF91CF911F9112
:101710000F91FF90EF90DF90CF90BF90AF909F9090
:101720008F907F906F905F904F903F902F90089593
:1017300024E4269FF001279FF00D1124EC55FB4F68
:10174000828993890497029758F485E090E0938BFF
:10175000828B8FEF9FEFDC01828F938FA48FB58FE9
:1017600008952F923F924F925F926F927F928F9245
:101770009F92AF92BF92CF92DF92EF92FF920F9320
:101780001F93CF93DF93CDB7DEB7AA970FB6F89428
:10179000DEBF0FBECDBF9AA389A37E8B6D8B1A01CE
:1017A000098B1A8B2B8B3C8B84E429893A89829F85
:1017B0006001839FD00C112486010C551B4F898931
:1017C0009A89AB89BC89F80180839183A283B38312
:1017D000AB01BC01CD01B3DED601A855BB4F84E0FF
:1017E000F10101900D928A95E1F7F4E02F0E311C82
:1017F00064E070E0D80114968D919C910E94E32DD5
:10180000F80191878087892B09F0F5C04D895E89A1
:1018100069897A898B899C8992DE81E0AA960FB6C4
:10182000F894DEBF0FBECDBFDF91CF911F910F9116
:10183000FF90EF90DF90CF90BF90AF909F908F90F0
:101840007F906F905F904F903F902F900895A9A543
:10185000BAA58D919C91E98DFA8DE80FF91FF88F4B
:10186000EF8BD1018D919C91880F991FA9A1BAA1ED
:10187000ED91FC91E80FF91F80819181EF89F88D3E
:1018800091838083D10114962D913D914D915C916E
:1018900017972BA33CA34DA35EA362E070E08D8954
:1018A0009E890E94E32DEF89F88D93838283892B93
:1018B00009F4ACCFF8E02F0E311C412C512C320131
:1018C0002BA13CA14DA15EA14216530664067506EC
:1018D0009CF02B8D3C8D4D8D5E8D2F5F3F4F4F4F7C
:1018E0005F4F2B8F3C8F4D8F5E8F498D5A8D4C5F94
:1018F0005F4F5A8F498F90C0610124E0C20ED11C06
:10190000D101ED90FC90EE0CFF1CEF89F88D8281E7
:101910009381E80EF91E68E070E081E090E00E949B
:10192000E32D8C01D7018D939C93892B09F46ECF05
:1019300084E0F601D80101900D928A95E1F7B8E0B4
:101940002B0E311CF80180819181A281B381181680
:1019500019061A061B06DCF464E070E00E94E32D11
:10196000D80115969C938E931497892B09F44ECF2A
:10197000D12CC12C812C912C5401F80180819181B2
:10198000A281B38188169906AA06BB0634F0FFEF40
:101990004F1A5F0A6F0A7F0A93CFF801E480F5803F
:1019A000EC0CFD1C80E1F101DE01119601900D921D
:1019B0008A95E1F7F0E12F0E311CA701BE016F5FA0
:1019C0007F4FA9A1BAA114968D919C9195DCF80145
:1019D00086819781D70112962D913C91820F931F9A
:1019E00097838683BFEF8B1A9B0AAB0ABB0AE4E09E
:1019F000CE0ED11CC2CF1A8E198E1B8E1C8E1D8E40
:101A00001E8E18A30F8FA8014C5F5F4F58A74FA3DE
:101A1000C80108969AA789A7EFA1F8A580819181AE
:101A2000A281B3812B8D3C8D4D8D5E8D281739079A
:101A30004A075B070CF40BCF6EE070E08D899E893E
:101A40000E94E32DAF8DB8A11B969C938E931A979D
:101A5000B12CA12CD12CC12CF12CE12C24E4E9894E
:101A6000FA892E9FC0012F9F900D11249C012255B1
:101A70003B4F388F2F8B88248394912C4D895E891E
:101A8000C416D50654F184E4A989BA898A9F8001D5
:101A90008B9F100D11240C551B4FF80115861486D1
:101AA000C70133E0880F991F3A95E1F70E94FD2D99
:101AB000D80151969C938E935097892B09F4A6CE0A
:101AC000C701880F991F0E94FD2DF801978786870F
:101AD000892B09F49BCE80E0A1CED1014D905D9081
:101AE0006D907D901D0177FC91CEEF89F88D00817E
:101AF00011810A0D1B1DD80111969C928E924114E2
:101B000051046104710429F1C2010E94FD2DF80104
:101B100095838483892B09F479CEF801538242821C
:101B20008481958197838683918780871386128627
:101B300081E090E045284628472811F490E080E0B5
:101B4000E80EF91EFFEFCF1ADF0A2EE0A20EB11C3D
:101B500095CF15961C921E921497DFCF2F923F922D
:101B60004F925F926F927F928F929F92AF92BF92AD
:101B7000CF92DF92EF92FF920F931F93CF93DF9359
:101B8000CDB7DEB76A970FB6F894DEBF0FBECDBFF4
:101B90009E8B8D8B49015A0184E4829F7001839F43
:101BA000F00C112497012C553B4F6901FB018081FA
:101BB0009181F901958B848BD701A654BB4FFB0112
:101BC000349684E001900D928A95E1F7D701A254F2
:101BD000BB4FFB01389684E001900D928A95E1F7A6
:101BE000D701AE53BB4FFB013C9684E001900D92B0
:101BF0008A95E1F7D701AE52BB4FFB01709684E0A6
:101C000001900D928A95E1F78B010C5E1F4FF9014F
:101C100086A597A5A0A9B1A918161906DCF5880F05
:101C2000991F880F991F0E94FD2DF60193AB82AB7F
:101C3000892B09F4D3C0312C212C412C512C320199
:101C40009601225D3F4F388F2F8BC601C2969A8F27
:101C5000898FF496FC8BEB8BB301A2012FEF421A14
:101C6000520A620A720AEF89F88D80819181A281FD
:101C7000B381481759076A077B070CF47BC0F6014C
:101C800084A995A90E94FD2DF60197AB86AB892BFF
:101C900009F4A4C0F80180819181A281B38124E478
:101CA000289DF001299DF00D1124EC55FB4FAC014E
:101CB000BD014D7F21E030E0452B462B472B11F035
:101CC00030E020E033A322A324E4289DF001299DE5
:101CD000F00D1124EC55FB4F0197A109B10921E04A
:101CE00030E00297A105B10510F030E020E035A307
:101CF00024A3D701A653BB4FF801349684E001908A
:101D00000D928A95E1F784E4889DF001899DF00D9C
:101D10001124EC55FB4F868D978DA0A1B1A1B7FF83
:101D200058C0B095A095909581959F4FAF4FBF4FEC
:101D300082AF93AFA4AFB5AF168E178E10A211A2CB
:101D400080E06A960FB6F894DEBF0FBECDBFDF917C
:101D5000CF911F910F91FF90EF90DF90CF90BF90A8
:101D6000AF909F908F907F906F905F904F903F903B
:101D70002F900895E98DFA8D808191819C01220D2B
:101D8000331D3A8B298B80E1F801DE011196019019
:101D90000D928A95E1F7005F1F4F49895A89BE016C
:101DA0006F5F7F4FED89FE8984819581A5DAEB898C
:101DB000FC8980819181E989FA8922813381820FAE
:101DC000931FEB89FC8991838083F4E02F0E311CF3
:101DD00043CF12AE13AE14AE15AEB2CFC501B401EF
:101DE00020DA81E0AECFCF92DF92EF92FF92CF93D5
:101DF000DF9310922C0524E4269FF001279FF00D1D
:101E00001124EC55FB4F15A614A630E020E0D12C90
:101E1000C12CDF011A96C1E0D0E0C416D506F4F05B
:101E200024E4269FF001279FF00D1124EC55FB4F71
:101E300013A612A611AE10AEDF01DE961D921D9202
:101E40001D921C92139782E090E0938B828BDF911E
:101E5000CF91FF90EF90DF90CF900895ED91FC919E
:101E60001197E20FF31FE280F3801E141F0454F455
:101E7000E480F580F782E682F186E086138612869A
:101E8000D183C083EFEFCE1ADE0A225F3F4FC5CF6A
:101E900024E4269FF001279FF00D1124EC55FB4F01
:101EA000138A128A4CCB24E4269FF001279FF00D61
:101EB0001124EC55FB4F8289938981309105C8F03C
:101EC0008530910518F0059769F008958FEF9FEF21
:101ED000DC01828F938FA48FB58F85E090E0938B88
:101EE000828B08958FEF9FEFDC01828F938FA48FF9
:101EF000B58F089524E4249FD001259FB00D1124AF
:101F0000AC55BB4F2EE0AC01249FC001259F900D26
:101F100011241A96ED91FC91E80FF91F81E080934E
:101F20002C05828593859187808740855185268100
:101F3000378181E090E04217530711F090E080E094
:101F40009183808308952F923F924F925F926F9278
:101F50007F928F929F92AF92BF92CF92DF92EF9239
:101F6000FF920F931F93CF93DF93CDB7DEB7C0558A
:101F7000D1090FB6F894DEBF0FBECDBF9EAF8DAFB7
:101F80004BA75CA76DA77EA76801790184E4809FB9
:101F9000F001819FF00D1124EC55FB4F2285338514
:101FA00023963FAF2EAF239782899389029761F4DE
:101FB00086A597A5A0A9B1A9892B8A2B8B2BC9F53A
:101FC00084E090E0938B828B84E48C9DF0018D9D66
:101FD000F00D1124EC55FB4F8289938982309105D5
:101FE00009F037C282AD93ADA4ADB5AD22242394E0
:101FF000312C181619061A061B060CF42FC2C05BEA
:10200000DF4F0FB6F894DEBF0FBECDBFDF91CF918B
:102010001F910F91FF90EF90DF90CF90BF90AF9006
:102020009F908F907F906F905F904F903F902F90F8
:102030000895848995894DAD5EAD8417950721F685
:1020400006A917A918AE1FAA1BAA1CAA1DAA1EAA78
:102050001F01CF018E9627969FAF8EAF2797DF0186
:10206000D2962996BFAFAEAF2997F8962B96FFAFC1
:10207000EEAF2B9791012A5D3F4F2D963FAF2EAFCC
:102080002D97A1014E5D5F4F2F965FAF4EAF2F97FB
:102090000A9761969FAF8EAF61972796EEADFFAD21
:1020A000279780819181A281B3812BA93CA94DA959
:1020B0005EA9281739074A075B0744F081E090E0E2
:1020C000D101D9969C938E93D8977ECF2996AEADA9
:1020D000BFAD2997ED91FC912FA938ADE20FF31F09
:1020E000428153815AAF49AF50815FAF81812196C0
:1020F0008FAF21972B96AEADBFAD2B978D919C9155
:10210000892B21F12D96EEADFFAD2D97808091802A
:10211000A280B3801AAB09AB5FA72196FFAD2197D0
:10212000F8AB29AD3AAD3695279536952795259686
:102130003FAF2EAF25971CAE1BAE2596AEADBFAD03
:102140002597EBADFCADEA17FB070CF149AD5AAD95
:102150006FAD21967FAD2197C8010E94222F89ADD6
:102160009AAD8C7F080F191F2BA93CA94DA95EA918
:102170002F5F3F4F4F4F5F4F2BAB3CAB4DAB5EAB39
:102180004FA958AD4C5F5F4F58AF4FAB86CF2F96DE
:10219000AEADBFAD2F978D919C91892B71F1EFA5BD
:1021A000F8A94080518062807380A3019201C5012B
:1021B000B4010E94FC23181664F0A9A9BAA92D91B4
:1021C0003D914D915C91C501B4010E94E324181624
:1021D000BCF1A3019201C501B4010E94FC2387FF59
:1021E0000CC0E9A9FAA92081318142815381C5013E
:1021F000B4010E94FC23882319F16196AEADBFADF6
:1022000061978D919C91892B09F445C0EFA5F8A9A0
:102210004080518062807380A3019201C501B401A6
:102220000E94E32418161CF5A9A9BAA92D913D9185
:102230004D915C91C501B4010E94FC2318165CF11C
:1022400084E48C9DF0018D9DF00D1124EC55FB4F25
:10225000868D978DA0A1B1A1892B8A2B8B2B69F13B
:1022600083E090E0938B828B81E090E02CC0A3010F
:102270009201C501B4010E94FC2381110CC0E9A99F
:10228000FAA92081318142815381C501B4010E94A4
:10229000FC2387FDD5CF2BAD3CAD2F5F3F4F3CAF2F
:1022A0002BAF49A95AA94C5F5F4F5AAB49AB8FA5D9
:1022B00098A9049698AB8FA740CF84E090E0938BC9
:1022C000828B86AD97AD93A782A77ECEEBADFCAD9A
:1022D00080819181F401EE0FFF1FEE0FFF1FE80FC9
:1022E000F91FA081B1818C9181110AC0FFEF8F1A73
:1022F0009F0AAF0ABF0A8DA29EA2AFA2B8A68FC145
:102300008330A1F30280F381E02D2FA938ADE20FD5
:10231000F31F808191819AAB89AB892B39F34F5F91
:102320005F4F6F4F7F4F49875A876B877C879E012E
:10233000235E3F4FAE01475D5F4F64E070E0C80130
:102340000E94A4088111D0C18D819E81AF81B88582
:102350000496A11DB11D8D839E83AF83B8874D8DDB
:102360005E8DBE016B5D7F4F8F8D98A10E94222FE5
:102370008BA19CA1009761F06D8D7E8DA5E2B0E0F0
:10238000AC0FBD1F6A0F7B1F49A15AA10E94222FCB
:102390001CAA1BAA412C512C3201E9A9FAA980815F
:1023A0009181A281B381481659066A067B060CF01A
:1023B0009DCFE9A9FAA9848195812BA93CA9280F71
:1023C000391F38AB2FA7D90112966D917C919E01D0
:1023D000235E3F4FAE01475D5F4FC8010E94A408D6
:1023E000811182C1EFA5F8A982819381092E000C89
:1023F000AA0BBB0B4D815E816F817885840F951F81
:10240000A61FB71F8D839E83AF83B88760817181BC
:102410004D8D5E8D8F8D98A10E94222F8BA19CA146
:10242000009761F0AFA5B8A96D917C912D8D3E8D7F
:10243000620F731F49A15AA10E94222FBFEF4B1AAE
:102440005B0A6B0A7B0AEBA9FCA93496FCABEBABED
:10245000A4CF312C212C049709F0D1CD8EE0EDAD25
:10246000FEAD8E9F80018F9F100D112423962EADFF
:102470003FAD2397020F131FD80112964D915C9127
:1024800013974115510509F4BACD16968D919C917B
:102490009AA789A780E1FE013196DF011D928A95F6
:1024A000E9F7C98ADA8AEB8AFC8A2114310409F433
:1024B00058C084E48C9DF0018D9DF00D1124EC55E5
:1024C000FB4FDF01DE968D909D90AD90BC9082AD6C
:1024D00093ADA4ADB5AD88169906AA06BB0609F062
:1024E00040C0F801848195810084F185E02D349607
:1024F00024E0DE01559601900D922A95E1F72D8991
:102500003E89285F3F4F3E8B2D8BD80118966D91E9
:102510007C911997260F371F19963C932E93189785
:1025200018962D913C911997480F591F241B350B74
:1025300037FD06C0820F931F19969C938E931897B0
:1025400084E48C9DF0018D9DF00D1124EE51FB4F24
:10255000B1E08B1A9108A108B10880829182A28211
:10256000B3829E012B5E3F4FAE01475D5F4F64E13A
:1025700070E0C8010E94A4088111B6C08CE090E010
:10258000A0E0B0E08D839E83AF83B8879E01235E79
:102590003F4FAE01475D5F4F64E070E0C8010E94AD
:1025A000A4088111A1C080E190E0A0E0B0E08D839B
:1025B0009E83AF83B8874D8D5E8DBE01655D7F4F75
:1025C0008F8D98A10E94222F8BA19CA1009761F072
:1025D0006D8D7E8DEBE2F0E0EC0FFD1F6E0F7F1F27
:1025E00049A15AA10E94222F1DA21EA21FA218A615
:1025F0002DAD3EAD220F331F38AF2FAB24E42C9D01
:10260000C0012D9D900D11248C559B4FAC014C5F4A
:102610005F4F5AAF49AFDC011896BCAFABAF8DA08E
:102620009EA0AFA0B8A449855A856B857C85E9AD8D
:10263000FAAD80819181A281B38188169906AA069C
:10264000BB060CF443CE452B462B472B09F4D7CCC5
:102650008AE190E0A0E0B0E089839A83AB83BC83F9
:102660002DAD3EADC901330FAA0BBB0B8D879E87E5
:10267000AF87B88B4D895E89BE016F5F7F4F8F89B1
:10268000988D0E94222F8B8D9C8D009761F06D8913
:102690007E8941E050E04C0F5D1F640F751F498D2E
:1026A0005A8D0E94222F89A59AA5D80117969C932E
:1026B0008E93169711961C921E92232809F49FCC94
:1026C00084E48C9DF0018D9DF00D1124EE51FB4FA3
:1026D00080819181A281B3810196A11DB11D80836A
:1026E0009183A283B3838BCC232809F088CC84E424
:1026F0008C9DF0018D9DF00D1124EC55FB4F81E078
:1027000090E095A784A785E090E0938B828B77CCAF
:10271000CF92DF92EF92FF920F931F9324E4269FB4
:10272000F001279FF00D1124EC55FB4F22893389CE
:102730002115310509F452C06B017C0121303105AE
:10274000B1F482A593A59C012F5F3F4F33A722A729
:10275000092E000CAA0BBB0B028D138D248D358D19
:1027600080179107A207B307C9F5C7013CDB84E4D2
:102770008C9DF0018D9DF00D1124EC55FB4F82894D
:102780009389039759F582A593A59C012F5F3F4F2D
:1027900033A722A7092E000CAA0BBB0B468D578D21
:1027A00060A171A184179507A607B707BCF086AD95
:1027B00097AD93A782A784E090E0938B828B82AD44
:1027C00093ADA4ADB5AD181619061A061B0634F460
:1027D000EE5BFF4F81E090E0918380831F910F912A
:1027E000FF90EF90DF90CF90089524E4269FF001B2
:1027F000279FF00D1124EC55FB4F82899389049794
:10280000B1F482A593A5019693A782A7092E000C87
:10281000AA0BBB0B46895789608D718D841795076C
:10282000A607B70721F485E090E0938B828B08958B
:102830002F923F924F925F926F927F928F929F92D0
:10284000AF92BF92CF92DF92EF92FF920F931F93BE
:10285000CF93DF93CDB7DEB72E970FB6F894DEBFD8
:102860000FBECDBFDC0149835A836B837C83290172
:1028700084E4849FF001859FF00D1124EC55FB4FFB
:1028800022883388C1010497029708F0D5C01196B9
:102890001C921E9213961C921E92129715861486F5
:1028A000912C812C90E080E08F019F01205F3F4FB1
:1028B00038872F833F013CE0630E711CBF01625FCC
:1028C0007F4F7A8769873A96FC87EB87EF81F88597
:1028D00020813181F30140815181E985FA85A08011
:1028E000B180841595050CF445C011965C934E9308
:1028F00013963C932E9312971596BC92AE92149712
:10290000452BF9F4F5E02F163104D9F410922C057B
:10291000F801828D938DA48DB58DAE014F5F5F4F11
:1029200064E070E08F3F9F4FAF4FBF4F09F079C019
:1029300080E290E0F4D569817A818B819C81A2014B
:10294000A7DA2E960FB6F894DEBF0FBECDBFDF918B
:10295000CF911F910F91FF90EF90DF90CF90BF909C
:10296000AF909F908F907F906F905F904F903F902F
:102970002F900895EB85FC8560817181FB01E80D46
:10298000F91DFE87ED8760817181672B89F5E084F1
:10299000F184628173817E836D83668177816A01B0
:1029A000E3E0CC0CDD1CEA95E1F72C0D3D1D440F56
:1029B000551F4A0D5B1DFA0191838083F30140810D
:1029C00051814F5F5F4F51834083F901F382E2826F
:1029D000ED85FE8573876287E616F70670F46E193B
:1029E0007F09F90171836083158214821782168230
:1029F0000196FEE08F0E911C69CFED85FE85C480A7
:102A0000D5804D815E814C0D5D1D4E195F09F90128
:102A1000518340836C197D0975836483D782C68294
:102A2000E7CF8FE190E07BD5F80113A612A681E0F5
:102A300090E0938B828B85CF1586148611961C921D
:102A40001E9213961C921E9212977BCFEF92FF92CA
:102A50000F931F93CF93DF937C018B01EA013BD649
:102A600081111EC08091320390913303049711F5B8
:102A7000DF91CF911F910F91FF90EF90089528ED76
:102A800038EB45E050E060E070E0CB010E94221E90
:102A9000AE01B801C7010E94301EC8010E94FB1D93
:102AA00080912D0590912E05892BE1F68881882350
:102AB00031F3D8CF83E090E09093330380933203D7
:102AC000D7CFCF93DF93209132033091330324305B
:102AD000310541F0EB010E94301ECE01DF91CF9114
:102AE0000C94FB1DDF91CF9108950C942E220C9431
:102AF00023220C9411220C940B1E0C94B5210895E2
:102B000070E060E090E080E0C1C50895AF92BF92B0
:102B1000CF92DF92EF92FF920F931F93CF93DF93A9
:102B20001F921F92CDB7DEB75C018B0169017A015C
:102B300090E080E0C114D104E104F10469F40F9045
:102B40000F90DF91CF911F910F91FF90EF90DF9049
:102B5000CF90BF90AF9008959C2D8D2DC114D104BE
:102B600021E0E206F10410F09FEF8FEF9E012F5F4E
:102B70003F4F492F582FB801C5010E94B8228F3FFF
:102B80009807E9F229813A81C21AD30AE108F108CB
:102B9000020F131FCFCF20912F0530913005809168
:102BA0003105909132052817390789F08091370552
:102BB000909138050196909338058093370582E00F
:102BC0000E94C72990933205809331050895809122
:102BD0003705909138050197EECF2091330530915C
:102BE000340580913505909136052817390789F00D
:102BF0008091390590913A05019690933A0580931A
:102C0000390582E10E94C7299093360580933505E6
:102C100008958091390590913A050197EECF83E0B0
:102C20000E94C7299093300580932F05209131058C
:102C3000309132058217930751F0809137059091BA
:102C40003805019690933805809337050895809153
:102C50003705909138050197F5CF83E10E94C72988
:102C600090933405809333052091350530913605D6
:102C70008217930751F08091390590913A0501969A
:102C800090933A0580933905089580913905909184
:102C90003A050197F5CFEF92FF920F931F93CF93D1
:102CA000DF937C018B01EA01F90120E030E040E88C
:102CB0005FE360817181828193810E94FC23811195
:102CC00015C0F7018081882321F0109238051092F9
:102CD00037058091370590913805F80191838083FD
:102CE0008091390590913A0599838883DF91CF913E
:102CF0001F910F91FF90EF900895CF93DF93E9011B
:102D000020E030E040E85FE3688179818A819B813F
:102D10000E94FC238823A1F162E082E00E945E29E8
:102D200062E083E00E945E2960E082E10E945E2909
:102D300060E083E10E945E2941E050E06BEC75E1C8
:102D400080E00E944B2541E050E06FE076E181E0B9
:102D50000E944B2541E050E06DEE75E185E00E9458
:102D60004B2541E050E06DE276E184E00E944B2586
:102D700080E090E0A0E8BFE388839983AA83BB83C7
:102D8000DF91CF91089540E05BE460E070E090E077
:102D900080E000C08130910579F01CF4892B39F076
:102DA00008958230910561F0039771F0089526E04F
:102DB00080E795E00C94B92A26E08DE096E0FACF02
:102DC00026E08AEA96E0F6CF26E087E497E0F2CFA5
:102DD0001F920F920FB60F9211240BB60F922F93E2
:102DE0003F934F935F936F937F938F939F93AF9393
:102DF000BF93EF93FF9386E09FEF9093250180931D
:102E000024010E94F222FF91EF91BF91AF919F9117
:102E10008F917F916F915F914F913F912F910F9083
:102E20000BBE0F900FBE0F901F90189586E09FEF7E
:102E30009093250180932401A3E7B0E08C918E7FCD
:102E40008C93E0E2F1E080818C7F8083E1E2F1E02D
:102E50008081877E808380818360808380818B7F77
:102E600080838C9181608C93089581E008958F9286
:102E70009F92AF92BF92CF92DF92EF92FF920F9309
:102E80001F93CF93DF935C017B018A01C1E0D0E007
:102E9000CE15DF05CCF081E0F5018083B801C701D4
:102EA0000E945822F5019283818390E080E0DF91B7
:102EB000CF911F910F91FF90EF90DF90CF90BF9037
:102EC000AF909F908F9008956E018FEFC81AD80A27
:102ED000FE01EE0FFF1FE00FF11F80809180811433
:102EE000910469F068EE73E0C4010E94322F892BCF
:102EF00041F4CC0FDD1FC00FD11F19821882E601EB
:102F0000C7CF6BEE73E0C4010E94322F892BB9F753
:102F1000EC14FD04A1F36E01E2E0CE0ED11CCC0F47
:102F2000DD1FC00FD11F198218821B821A82E7CFC2
:102F30008BE395E0089580E008950F931F93CF935E
:102F4000DF938B01BA01E901198218829801012EE1
:102F5000000C440B550BFC0181819281D7DD019659
:102F600041F01983088380E0DF91CF911F910F9189
:102F7000089581E0F9CF0F931F93CF93DF931F92B2
:102F80001F92CDB7DEB7FB018A01B9019E012F5F09
:102F90003F4FAF01FC01818192810E946D22019619
:102FA00069F089819A81F8019183808380E00F9094
:102FB0000F90DF91CF911F910F91089581E0F7CF8E
:102FC000FC01808108950895089581E0FB018083CC
:102FD00080E008950895109263050895FC018181B1
:102FE00092810C945022CF93DF9300D000D000D078
:102FF0001F92CDB7DEB7B0E0A0E089839A83AB83A0
:10300000BC83CB01770FAA0BBB0B8D839E83AF8351
:10301000B8879E01275F3F4FAE014F5F5F4F68E06B
:1030200070E0809152059091530587DF811110C0A7
:1030300081E029853A852830310509F480E02A9617
:103040000FB6F894DEBF0FBECDBFDF91CF910895CC
:1030500081E0F5CF0F931F93CF93DF931F921F92C1
:10306000CDB7DEB78B019E012F5F3F4FAC01809142
:1030700052059091530561DF81110EC081E02981D5
:103080003A812017310709F480E00F900F90DF910B
:10309000CF911F910F91089581E0F7CFCF93DF93E8
:1030A000EC0110925605109255051092620510928F
:1030B0006105AC0160E070E0CB010E94480FAE01F9
:1030C00061E070E080E090E00E94480F809152053E
:1030D00090915305DF91CF917DCF4F925F926F9288
:1030E0007F928F929F92AF92BF92CF92DF92EF9298
:1030F000FF920F931F93CF93DF931F921F92CDB731
:10310000DEB78C017C0197FF03C087E0E80EF11C5D
:1031100023E0F594E7942A95E1F7C80168E070E0B0
:103120000E94772D6C010E5F1F4F8091500590918A
:10313000510580179107D4F480914E0590914F0569
:10314000009731F00E94992E10925105109250056F
:10315000C8010E94FD2D90934F0580934E05892B49
:1031600009F482C0109351050093500510E000E06F
:1031700047C1412C512C3201B12CA12C9501295A67
:103180003A4FAE014F5F5F4F61E070E080915205B2
:1031900090915305F0DE811149C0EFEF4E1A5E0A9F
:1031A0006E0A7E0AF0E94F16FFE55F06F1E06F0652
:1031B000710444F060916105709162058DEE90E0BC
:1031C00012DFD7CF89819A81A80EB91E8AE0A8168E
:1031D000B10409F043C049E050E070E060E087E5E9
:1031E00095E00E94E4226091610570916205882358
:1031F00091F180915F0590E08617970781F4BC01FB
:103200008EEE90E0F0DE809161059091620501966E
:10321000992790936205809361050F5F1F4F0E15EC
:103220001F050CF4A6CFCD2809F07CC090E080E00B
:103230000F900F90DF91CF911F910F91FF90EF9022
:10324000DF90CF90BF90AF909F908F907F906F90C6
:103250005F904F9008958FEE90E0B2CFEAE0AE1607
:10326000B1040CF48BCFDBCF10E000E0D8CF0A30F4
:10327000110531F549E050E070E060E087E595E048
:103280000E94E42260916105709162058823A9F093
:1032900080915F0590E08617970741F6BC018EEE9E
:1032A00090E0A1DE809161059091620501969927D9
:1032B0009093620580936105B9CF8FEE90E02BC0AB
:1032C0000A3011050CF0B2CF9801295A3A4FAE01DD
:1032D0004F5F5F4F61E070E0809152059091530520
:1032E0004ADE8111A3CF89819A81080F191FFFEF50
:1032F000CF1ADF0AEF0AFF0A80E9C8168FE5D80661
:1033000081E0E806F1040CF4B2CF609161057091A0
:1033100062058DEE90E067DE10E000E0C12CD12C5C
:103320007601D2CFC12CD12C760110E000E0CCCFB9
:10333000412C512C3201B12CA12C480193E0880C76
:10334000991C9A95E1F720914E0530914F05C501E2
:10335000880D991D280F391FAE014F5F5F4F61E047
:1033600070E0809152059091530505DE81115ECF8A
:10337000EFEF4E1A5E0A6E0A7E0A60916105709147
:1033800062058DEE90E0F0E94F16FFE55F06F1E093
:103390006F0671040CF043C089819A81A80EB91E92
:1033A0008AE0A816B10409F041C049E050E0B40138
:1033B00080914E0590914F050E94E4226091610535
:1033C00070916205882349F180914E0590914F05D7
:1033D000880E991EF401808590E08617970781F486
:1033E000BC018EEE90E0FFDD809161059091620559
:1033F0000196992790936205809361050F5F1F4F97
:103400000E151F050CF494CFC114D10409F081C02E
:1034100080914E0590914F050BCF8FEE90E0E3DD4C
:10342000412C512C3201B12CA12C8DCFFAE0AF16DA
:10343000B1040CF488CFE4CF8FEE90E0D4DDF12C12
:10344000E12C812C912C54019701295A3A4FAE015D
:103450004F5F5F4F61E070E080915205909153059E
:103460008ADD8111E3CE8FEF881A980AA80AB80A7C
:1034700060916105709162058DEE90E0E0E98E1635
:10348000EFE59E06E1E0AE06B104C4F689819A81BB
:10349000E80EF91EFAE0EF16F104A9F549E050E054
:1034A00070E060E087E595E00E94E42260916105AC
:1034B00070916205882309F4BFCF80915F0590E089
:1034C0008617970709F0A4CFBC018EEE90E08BDD44
:1034D00083E0000F111F8A95E1F780914E059091CE
:1034E0004F05A60167E575E0800F911F0E94222F0E
:1034F00080916105909162050196992790936205EC
:103500008093610585CF8AE0E816F1040CF49CCF26
:103510007FCF812C912C5401F12CE12C95CFCF92AF
:10352000DF92EF92FF920F931F93CF93DF931F923F
:10353000CDB7DEB76C017B018A01452B39F0AB01B9
:1035400070E060E0C8010E94E0228983B701C601F3
:103550004ADD81110DC00115110551F0B701C801F7
:1035600079DD811105C061E070E0CE01019672DD68
:103570000F90DF91CF911F910F91FF90EF90DF900F
:10358000CF900895CF92DF92EF92FF92CF93DF9387
:1035900000D000D01F921F92CDB7DEB76B01F12C87
:1035A000E12CC982DA82EB82FC822D833E834F8339
:1035B0005887AE014F5F5F4F68E070E0B0DF28963C
:1035C0000FB6F894DEBF0FBECDBFDF91CF91FF9055
:1035D000EF90DF90CF9008958F929F92AF92BF921D
:1035E000CF92DF92EF92FF920F931F93CF93DF93CF
:1035F0007C01EB01CA01690170DD0097B1F42FEF86
:103600003FEFA90161E070E0C701BCDFC1E08C2F92
:10361000DF91CF911F910F91FF90EF90DF90CF90AE
:10362000BF90AF909F908F900895FC0181909190F2
:10363000A190B190BF01FCE1EF16F10479F4A5016E
:103640009401CE010E94AE0DC82FA50194018823DC
:1036500069F061E070E0C70195DFD9CF9501840181
:10366000AB01B601CE010E94B10BEECF70E060E07D
:10367000C701DF91CF911F910F91FF90EF90DF90E5
:10368000CF90BF90AF909F908F907CCF0F931F9360
:10369000CF93DF93EC018B014BDC90935305809328
:1036A00052050097A9F0A801BE01E1DBEC01892BCE
:1036B00049F0809152059091530585DC1092530595
:1036C00010925205CE01DF91CF911F910F91089575
:1036D000C7EFD3E0EECF809152059091530570CCA7
:1036E0002F923F924F925F926F927F928F929F9212
:1036F000AF92BF92CF92DF92EF92FF920F931F9300
:10370000CF93DF93CDB7DEB769970FB6F894DEBFDE
:103710000FBECDBF209156052223F1F05B8B4A8B63
:103720006E877F87888B998B9A01AB01BC01CE0194
:1037300001967C017DD810E048E0242E312CE88EE3
:10374000F98E89819A81181619060CF451C2112339
:1037500019F08A899B89A2DC69960FB6F894DEBFBE
:103760000FBECDBFDF91CF911F910F91FF90EF90D2
:10377000DF90CF90BF90AF909F908F907F906F9091
:103780005F904F903F902F900895EB81FC818C8546
:103790009D8533E0880F991F3A95E1F7E80FF91FEF
:1037A0008081918190934D0580934C0524813581D2
:1037B0004281538150934B0540934A05468157817E
:1037C0005093490540934805820F931F9C01990F20
:1037D000440B550B2C8B3D8B4E8B5F8B812C912C8E
:1037E00054018C899D89AE89BF8988169906AA06DD
:1037F000BB0640F18C859D85880F991FED81FE8168
:10380000E80FF91F4E855F856889798980819181EC
:103810000E947A0FAC85BD851196BD87AC878981E2
:103820009A81EC85FD85E817F9070CF4AECF2A895B
:103830003B894E855F8568897989888D998D0E943D
:1038400018147FCF1F8260914C0570914D05CB01FC
:10385000072E000CAA0BBB0B84017501640134E038
:10386000C30ED11CE11CF11CC816D906EA06FB06E2
:1038700008F0B3C020914A0530914B05A4014C5F7C
:103880005F4F240F351FF901C080D12CF12CE12CA2
:1038900024013501F5E04F0E511C611C711C4816C6
:1038A00059066A067B0608F0A3C020914A053091AC
:1038B0004B05F8013596E20FF31F2081D22A24012F
:1038C000350126E0420E511C611C711C4816590638
:1038D0006A067B0608F097C020914A0530914B0597
:1038E000F8013696E20FF31F2081E22A2401350108
:1038F00037E0430E511C611C711C481659066A06BC
:103900007B0608F08BC020914A0530914B05F801E9
:103910003796E20FF31F208126013701722A7501C5
:10392000640148E0C40ED11CE11CF11C8C159D05FE
:10393000AE05BF0508F41DC188169906AA06BB0688
:1039400008F077C080914A0590914B05800F911F38
:1039500068E070E07FDBE0914C05F0914D059F0140
:103960000F2E000C440B550BD301C2018C0D9D1D75
:10397000AE1DBF1D281739074A075B0708F478C03A
:10398000C216D306E406F50608F05DC080914A052C
:1039900090914B059801285F3F4F820F931FB20112
:1039A00059DB80914C0590914D05AC01092E000C1E
:1039B000660B770BC416D506E606F70608F04DC071
:1039C000085F1F4F80914A0590914B05800F911F12
:1039D000A20170E060E0F4D5A7C044E050E0461BCF
:1039E000570B480D591D209148053091490549CF85
:1039F000E5E0F0E0E61BF70BE00FF11F2091480532
:103A00003091490558CFE6E0F0E0E61BF70BE00FF8
:103A1000F11F209148053091490564CFE7E0F0E0BF
:103A2000E61BF70BE00FF11F209148053091490587
:103A300070CF9801261B370B80914805909149055E
:103A4000820F931F85CF91012E1B3F0B200F311F3B
:103A50008091480590914905A0CFD101A81BB90BD1
:103A6000CD01080F191F8091480590914905AECFEF
:103A7000BF0168507109601B710BC216D306E406C2
:103A8000F50608F062C080914A0590914B059801B7
:103A9000285F3F4F820F931FDDDA80914C05909194
:103AA0004D05B101681B790B600F711F640D751D09
:103AB0008091480590914905CDDA80914C0590910F
:103AC0004D05AC0148505109FA01E01BF10BAC0166
:103AD000092E000C660B770BC416D506E606F70612
:103AE00008F03DC080914A0590914B059801285FF0
:103AF0003F4F820F931FAF0170E060E061D58F836D
:103B000020914C0530914D05F101E21BF30B9F0113
:103B1000200F311F240D351D50E040E0682F8091AB
:103B200048059091490538D58F8361E070E0CE015A
:103B3000079690DA182F38E0430E511C611C711C57
:103B4000840C951CA61CB71C4CCE91012E1B3F0B60
:103B5000200F311F80914805909149059BCF91011D
:103B6000281B390B200F311F809148059091490582
:103B7000C0CF88169906AA06BB0668F5601B710BB4
:103B800080914A0590914B05800F911F63DA8091D7
:103B90004C0590914D05B101681B790B600F711FA9
:103BA000640D751D809148059091490553DA809107
:103BB0004C0590914D05AC01092E000C660B770B5E
:103BC000C416D506E606F70608F4FACE9101281BBE
:103BD000390BC90146CFC801861B970B20914805B8
:103BE00030914905B201685F7F4F820F931FDECF8E
:103BF0001D861C8614CECF93DF93EC01AC0160E0F0
:103C000070E0CB016DDDAE0161E070E080E090E03E
:103C1000DF91CF9165CDCF9380915205909153055F
:103C20008AD9C82F81110BC060E070E0CB010E94DF
:103C3000730A61E070E080E090E00E94730A8C2FCC
:103C4000CF9108950F931F9389019A01AB01BC0195
:103C50008091520590915305B7D91F910F91089506
:103C60004F925F926F927F928F929F92AF92BF928C
:103C7000CF92DF92EF92FF920F931F93CF93DF9338
:103C8000CDB7DEB763970FB6F894DEBF0FBECDBFDA
:103C90006C018B015A0180915605882309F43DC0BF
:103CA00080915605882309F442C0809155051A82F7
:103CB0001982882309F4C0C0F0E94F2EFFE55F2E7A
:103CC00066246394712CF12CE12C9701225C3A4F0D
:103CD000AE014F5F5F4F61E070E0809152059091BF
:103CE000530549D9982E811169C089819A81E80EBE
:103CF000F91EE114F10409F461C081E0481A510889
:103D00006108710859F560916105709162058DEE49
:103D100090E069D91A82198251C066E575E08091F8
:103D200052059091530551D9882309F4B9CF639670
:103D30000FB6F894DEBF0FBECDBFDF91CF911F91BC
:103D40000F91FF90EF90DF90CF90BF90AF909F903A
:103D50008F907F906F905F904F900895AAE0EA1641
:103D6000F10409F063C049E050E070E060E08EE3E8
:103D700095E02AD46091610570916205882309F469
:103D800052C08091460590E08617970719F6BC014E
:103D90008EEE90E028D988E0EEE3F5E0DE0119969A
:103DA00001900D928A95E1F78091610590916205ED
:103DB00001969927909362058093610581E029819E
:103DC0003A81121613060CF080E09110CAC28823C3
:103DD00009F4ADCF80915505811104C019861A866A
:103DE0001B861C8689859A85AB85BC8580319105AB
:103DF000A105B10508F09BCFFC018827ED5FF04ECF
:103E00008F4F0C94AC2D831F4221B121971E872028
:103E1000BA20731F7B1F571F962185219221971E61
:103E2000971E971E421F8FEE90E073CFBAE0EB16FD
:103E3000F1040CF44ACFC2CFF12CE12CE8E06E2E55
:103E4000712C29E030E02C0F3D1F2E0D3F1DAE01DF
:103E50004F5F5F4FB3016E197F09809152059091BA
:103E6000530589D8982E29813A81811109C0E20E23
:103E7000F31EE114F10421F0E8E0EE16F1040CF376
:103E800081E09FCFD6011696ED91FC9180819181C2
:103E9000A281B38189839A83AB83BC83AE014F5FD8
:103EA0005F4F64E070E085E190E039DB40CF8D85C5
:103EB0009E8513D92FEF3FEFA90161E070E00097D5
:103EC00071F0FC01C080D180E280F380A801C701BD
:103ED000B6010E94F30EA701960170E060E08DE14B
:103EE00090E050DB24CF4D855E859801B6018BE1D3
:103EF00090E072DB1CCF4D855E852FEF3FEFB60162
:103F00008CE190E0F6CFD6011496ED91FC91008102
:103F10001181F80182809380A080B18070E1472EEA
:103F2000512C612C712C49825A826B827C8288E0F0
:103F300090E0A0E0B0E08D839E83AF83B8879E01C0
:103F40002F5E3F4FAE014F5F5F4F68E070E08091A2
:103F50005205909153050E949D178823D9F010E0D7
:103F600000E0C80163960FB6F894DEBF0FBECDBF68
:103F7000DF91CF911F910F91FF90EF90DF90CF9045
:103F8000BF90AF909F908F907F906F905F904F9079
:103F90000C94992E89899A89089709F7D801ED9090
:103FA000FC90B8E0EB0EF11CEE0CFF1CEE0CFF1CBD
:103FB000C7010E94FD2D8C01892B89F249825A820A
:103FC0006B827C82C7010F2C000CAA0BBB0B8D836C
:103FD0009E83AF83B8879E012F5E3F4FAE014F5F38
:103FE0005F4F68E070E080915205909153050E9408
:103FF0009D178111B6CF89899A89089709F0B1CFA9
:10400000D6011296ED91FC914081518162817381BC
:10401000D8014D935D936D937C93139744815581A3
:104020006681778114964D935D936D937C9317977A
:10403000408551856285738518964D935D936D9388
:104040007C931B9784859585A685B785F801848721
:104050009587A687B787108A118A128A138A84E007
:1040600090E0A0E0B0E0848B958BA68BB78B80911D
:10407000320390913303B0E0A0E0808F918FA28F44
:10408000B38FC5010B2C000CAA0BBB0B848F958F33
:10409000A68FB78FF401D801909690E080E08A1542
:1040A0009B055CF19E012F5E3F4FA801B7018091F7
:1040B0005205909153050E949D17811152CF898915
:1040C0009A89E816F90609F04CCFA70170E060E084
:1040D000C80176D28B8B9E012F5E3F4FAE014D5EA5
:1040E0005F4F61E070E080915205909153050E940E
:1040F0009D1781E08093550534CF4191519170E037
:1041000060E04D935D936D937D930196C8CF8D854F
:104110009E85AF85B8890097A105B10521F481E09E
:104120008093540504CE0E946D18009781F481E0BD
:1041300090E0A0E0B0E089839A83AB83BC83AE01BA
:104140004F5F5F4F64E070E082E190E0AECEBC0173
:10415000C6010E94CD0919821A821B821C82AE01FF
:104160004F5F5F4F64E070E082E190E0D8D9882330
:10417000B1F2DDCDD6011496ED91FC910190F08164
:10418000E02DE084F1848FEF8983E114F10409F4D8
:1041900072C0D7016D907C90C280D38070E060E0E7
:1041A00090E080E08615970594F083E190E00E940E
:1041B000F31710E000E08111BACD061517055CF188
:1041C00061E070E0CE0101960E942A18B0CD9C01FA
:1041D00043E0220F331F4A95E1F7F701A281B38133
:1041E000A20FB31F1296ED91FC911397EE0FFF1FD4
:1041F000EC0DFD1D0190F081E02D16964D915C9126
:10420000E49F9001E59F300DF49F300D1124620F63
:10421000731F0196C7CFD7011296ED91FC91C8018B
:1042200023E0880F991F2A95E1F7E80FF91FA08076
:10423000B180A281B381AA0FBB1FAC0DBD1D2D9112
:104240003C9186819781289F4001299F900C389F3F
:10425000900C1124B401C5010E942A18582E940113
:1042600050E040E06981C50197D1898351105FCD4D
:104270000F5F1F4FA2CF70E060E083E190E00E94EB
:10428000F31755CD50E040E070E060E081E190E050
:1042900046D981114CCD60E070E0CB010E94980BB3
:1042A00080912C05882329F0A80160E070E0CB0103
:1042B00017DAA80160E070E0CB010E949F0A61E07C
:1042C00070E080E090E00E94980B80912C0588239C
:1042D00031F0A80161E070E080E090E001DAA8012F
:1042E00061E070E080E090E00E949F0A1092560525
:1042F0001092550510926205109261058091520549
:10430000909153050E94EB1712CD81E090E09093BD
:104310002E0580932D0550E040E070E060E086E1DE
:1043200090E0C3CD81E0F501808301CD8D859E8530
:104330000E946D182FEF3FEFA90161E070E0009738
:1043400069F0DC01CD90DD90ED90FC90C701B601E5
:104350000E94530FA701960170E060E08EE190E0AB
:10436000C0CDC8010E944E18E2CCCF92DF92EF92EE
:10437000FF92CF93DF93EC01C12CD12C7601C701C2
:10438000B6010E94980BAE01C701B601A9D9AE01D2
:10439000C701B6010E949F0A80914E0590914F057A
:1043A000009731F00E94992E10924F0510924E0501
:1043B000CA94CD28CE28CF2879F580915505F12CC7
:1043C000882351F050E040E070E060E084E190E04C
:1043D000A6D8F82E1092550580915605882341F0F5
:1043E0001092560581E090E090933303809332035E
:1043F00080915205909153050E94EE1780915205CD
:10440000909153050E94E3178F2DDF91CF91FF907C
:10441000EF90DF90CF900895C12CD12C7601C394FA
:10442000AECFCF93DF93EC01AC0160E070E0CB0145
:104430000E948813AE0161E070E080E090E0DF91BF
:10444000CF910C94881360E070E0CB010E94F513CB
:1044500061E070E080E090E00C94F513CF92DF9281
:10446000EF92FF920F931F93CF93DF93EC016A01BA
:104470007B0100E010E098010E94A30F01E010E032
:1044800020E030E0B701A601CE010E94A30FDF912A
:10449000CF911F910F91FF90EF90DF90CF900895F3
:1044A00068EE73E080E090E037D590E080E008951A
:1044B00026E040E050E16EE070E080E795E00E9489
:1044C000B92A80E795E08BD7892B21F080E795E02A
:1044D000A0D7F7CF90E080E00895CF92DF92EF92DF
:1044E000FF920F931F93CF93DF936B017A01E90142
:1044F0001982188280E795E072D7892B71F18601C5
:10450000CC24C39485E6D82E80916305811111C017
:1045100080E795E07ED785369105B1F7C0926305B7
:10452000F801D1928F0188819981019699838883BE
:10453000EBCF888199818E159F0578F480E795E00F
:1045400068D78F3F9807A9F3F80181938F0188817D
:104550009981019699838883ECCF90E080E0DF9188
:10456000CF911F910F91FF90EF90DF90CF90089522
:104570000F931F93CF93DF93EA01890180E795E0C2
:104580000E94492DF801D183C08390E080E0DF9143
:10459000CF911F910F910895DC01A40FB51F420F19
:1045A000531F9D01281B390B2417350710F0862F48
:1045B0000895ED91E627F0E0EC51FF4F6491F1CFC3
:1045C0009A01AB016FEFE8CFCF93FC01E60FF71F25
:1045D000E40FF51FC081F4DF91E0C81390E0892F4C
:1045E000CF9108958091640591E0980F90936405B0
:1045F000882349F021E030E030936605209365057B
:1046000080936405089578940E94EA03F894809159
:1046100064058150809364050C947715FF920F9385
:104620001F93CF93DF931F92CDB7DEB710924B0845
:1046300010924A08A7D40E94C31600915903109102
:104640005A03F8011182108270E060E090E080E08F
:104650000E9480150E94F006F8947894C80186960E
:104660000E947F1581E090E00E947B151982AE01C7
:104670004F5F5F4F61E070E0F801828193810E949B
:1046800026158981882319F081E0F80182A70E940C
:104690008515F8940E941617F80180819181892B65
:1046A00019F481E092A5911180E080934A087894F2
:1046B0007894FF24F39480914A08811110C00E94DD
:1046C0000A0881E090E00E947D15F89490E080E077
:1046D0000F90DF91CF911F910F91FF900895198254
:1046E000AE014F5F5F4F61E070E0F801828193811E
:1046F0000E9461158981882311F0F801F2A6F80162
:1047000080819181892B89F481E092A5911101C06A
:1047100080E080934B0890914B0881E0911180E0FC
:1047200080934A080E943517C6CF81E0F2CF5058D7
:10473000BB27AA270ED00DC1FED030F003D120F048
:1047400031F49F3F11F41EF4F3C00EF4E095E7FB43
:10475000E9C0E92F0FD180F3BA1762077307840706
:10476000950718F071F49EF527C10EF4E0950B2E15
:10477000BA2FA02D0B01B90190010C01CA01A001B3
:104780001124FF27591B99F0593F50F4503E68F10E
:104790001A16F040A22F232F342F4427585FF3CF4F
:1047A000469537952795A795F0405395C9F77EF420
:1047B0001F16BA0B620B730B840BBAF09150A1F069
:1047C000FF0FBB1F661F771F881FC2F70EC0BA0FEF
:1047D000621F731F841F48F4879577956795B79577
:1047E000F7959E3F08F0B3CF9395880F08F099276F
:1047F000EE0F97958795089571D008F481E008959C
:1048000004D06894B111D9C00895BCD088F09F57E6
:1048100090F0B92F9927B751A0F0D1F0660F771F0C
:10482000881F991F1AF0BA95C9F712C0B13081F0EC
:10483000C3D0B1E00895C0C0672F782F8827B85F34
:1048400039F0B93FCCF3869577956795B395D9F74D
:104850003EF490958095709561957F4F8F4F9F4F57
:104860000895E89409C097FB3EF490958095709563
:1048700061957F4F8F4F9F4F9923A9F0F92F96E9AC
:10488000BB279395F695879577956795B795F11121
:10489000F8CFFAF4BB0F11F460FF1BC06F5F7F4FBE
:1048A0008F4F9F4F16C0882311F096E911C07723D0
:1048B00021F09EE8872F762F05C0662371F096E8D9
:1048C000862F70E060E02AF09A95660F771F881FA8
:1048D000DAF7880F9695879597F90895990F00084C
:1048E000550FAA0BE0E8FEEF16161706E807F907C2
:1048F000C0F012161306E407F50798F0621B730B5D
:10490000840B950B39F40A2661F0232B242B252BDD
:1049100021F408950A2609F4A140A6958FEF811D80
:10492000811D089597F99F6780E870E060E0089521
:104930009FEF80EC089500240A94161617061806B7
:104940000906089500240A94121613061406050693
:104950000895092E0394000C11F4882352F0BB0F24
:1049600040F4BF2B11F460FF04C06F5F7F4F8F4F87
:104970009F4F089557FD9058440F551F59F05F3FC2
:1049800071F04795880F97FB991F61F09F3F79F071
:1049900087950895121613061406551FF2CF4695F3
:1049A000F1DF08C0161617061806991FF1CF869575
:1049B0007105610508940895E894BB276627772759
:1049C000CB0197F908958ADF08F48FEF08950BD093
:1049D000C0CFB1DF28F0B6DF18F0952309F0A2CFE1
:1049E000A7CF1124EACFC6DFA0F3959FD1F3950F8F
:1049F00050E0551F629FF001729FBB27F00DB11D63
:104A0000639FAA27F00DB11DAA1F649F6627B00DF2
:104A1000A11D661F829F2227B00DA11D621F739FDB
:104A2000B00DA11D621F839FA00D611D221F749FE9
:104A30003327A00D611D231F849F600D211D822F30
:104A4000762F6A2F11249F5750408AF0E1F0882377
:104A50004AF0EE0FFF1FBB1F661F771F881F915084
:104A60005040A9F79E3F510570F05CCFA6CF5F3F45
:104A7000ECF3983EDCF3869577956795B795F795B7
:104A8000E7959F5FC1F7FE2B880F911D969587953F
:104A900097F908950895883008F076C0E82FF0E07F
:104AA000EE0FFF1FEC5CFC4F7183608381508730F9
:104AB00008F03DC0E82FF0E08827EE59FA4D8F4FFF
:104AC0000C94AC2D9F25692571257D258A25AB2564
:104AD000B825809169008C7F482B40936900E89A43
:104AE000089580916900837F440F551F440F551F1F
:104AF000482B40936900E99A0895809169008F7C62
:104B000074E0440F551F7A95E1F7482B40936900F4
:104B1000EA9A0895809169008F7366E0440F551FEB
:104B20006A95E1F7482B40936900EB9A08958091CC
:104B30006A008C7F482B40936A00EC9A089580911C
:104B40006A00837F440F551F440F551F482B409325
:104B50006A00ED9A089580916A008F7C24E0440FEA
:104B6000551F2A95E1F7482B40936A00EE9A089565
:104B700080916A008F7396E0440F551F9A95E1F774
:104B8000482B40936A00EF9A08951F920F920FB638
:104B90000F9211240BB60F922F933F934F935F9375
:104BA0006F937F938F939F93AF93BF93EF93FF93F5
:104BB000E0913803F09139031995FF91EF91BF917E
:104BC000AF919F918F917F916F915F914F913F91A5
:104BD0002F910F900BBE0F900FBE0F901F90189546
:104BE0001F920F920FB60F9211240BB60F922F93B4
:104BF0003F934F935F936F937F938F939F93AF9365
:104C0000BF93EF93FF93E0913A03F0913B03199523
:104C1000FF91EF91BF91AF919F918F917F916F9194
:104C20005F914F913F912F910F900BBE0F900FBE50
:104C30000F901F9018951F920F920FB60F9211248C
:104C40000BB60F922F933F934F935F936F937F9386
:104C50008F939F93AF93BF93EF93FF93E0913C03A8
:104C6000F0913D031995FF91EF91BF91AF919F9105
:104C70008F917F916F915F914F913F912F910F9005
:104C80000BBE0F900FBE0F901F9018951F920F92A2
:104C90000FB60F9211240BB60F922F933F934F93A1
:104CA0005F936F937F938F939F93AF93BF93EF9394
:104CB000FF93E0913E03F0913F031995FF91EF912F
:104CC000BF91AF919F918F917F916F915F914F9124
:104CD0003F912F910F900BBE0F900FBE0F901F9022
:104CE00018951F920F920FB60F9211240BB60F92C8
:104CF0002F933F934F935F936F937F938F939F93E4
:104D0000AF93BF93EF93FF93E0913403F09135039A
:104D10001995FF91EF91BF91AF919F918F917F91E5
:104D20006F915F914F913F912F910F900BBE0F901C
:104D30000FBE0F901F9018951F920F920FB60F92F3
:104D400011240BB60F922F933F934F935F936F9362
:104D50007F938F939F93AF93BF93EF93FF93E091D4
:104D60003603F09137031995FF91EF91BF91AF9101
:104D70009F918F917F916F915F914F913F912F9173
:104D80000F900BBE0F900FBE0F901F9018951F92A3
:104D90000F920FB60F9211240BB60F922F933F93E1
:104DA0004F935F936F937F938F939F93AF93BF9333
:104DB000EF93FF93E0914003F09141031995FF9128
:104DC000EF91BF91AF919F918F917F916F915F9183
:104DD0004F913F912F910F900BBE0F900FBE0F90F0
:104DE0001F9018951F920F920FB60F9211240BB6B9
:104DF0000F922F933F934F935F936F937F938F9374
:104E00009F93AF93BF93EF93FF93E0914203F09191
:104E100043031995FF91EF91BF91AF919F918F91AE
:104E20007F916F915F914F913F912F910F900BBEAA
:104E30000F900FBE0F901F9018951F920F920FB6F4
:104E40000F9211242F933F938F939F93AF93BF9310
:104E50008091680590916905A0916A05B0916B05F4
:104E60003091670523E0230F2D3758F50196A11DDA
:104E7000B11D209367058093680590936905A09301
:104E80006A05B0936B0580916C0590916D05A091BA
:104E90006E05B0916F050196A11DB11D80936C0543
:104EA00090936D05A0936E05B0936F05BF91AF9180
:104EB0009F918F913F912F910F900FBE0F901F9058
:104EC000189526E8230F0296A11DB11DD2CF3FB73A
:104ED000F89480916C0590916D05A0916E05B0914C
:104EE0006F0526B5A89B05C02F3F19F00196A11D9F
:104EF000B11D3FBFBA2FA92F982F8827BC01CD0124
:104F0000620F711D811D911D42E0660F771F881F82
:104F1000991F4A95D1F708958F929F92AF92BF92B1
:104F2000CF92DF92EF92FF926B017C01D0DF4B01B9
:104F30005C01C114D104E104F104D9F0D7D5C7DF75
:104F4000681979098A099B09683E734081059105B2
:104F500080F321E0C21AD108E108F10888EE880E3A
:104F600083E0981EA11CB11CC114D104E104F1041A
:104F700031F7FF90EF90DF90CF90BF90AF909F9070
:104F80008F900895789484B5826084BD84B58160E3
:104F900084BD85B5826085BD85B5816085BDEEE641
:104FA000F0E0808181608083E1E8F0E01082808120
:104FB00082608083808181608083E0E8F0E080818E
:104FC00081608083E1EBF0E0808184608083E0EBAE
:104FD000F0E0808181608083E1E9F0E0808182609F
:104FE0008083808181608083E0E9F0E0808181605E
:104FF0008083E1EAF0E0808182608083808181604B
:105000008083E0EAF0E0808181608083E1E2F1E08A
:10501000808182608083808181608083E0E2F1E032
:10502000808181608083EAE7F0E080818460808312
:1050300080818260808380818160808380818068BC
:1050400080831092C10008951F93CF93DF93182F90
:10505000EB0161E033D1209731F460E0812FDF91E3
:10506000CF911F9167C1CF3FD10511F461E0F6CF19
:10507000E12FF0E0EC51FE4FE491E150E23108F015
:10508000B2C0F0E08827E95BF74D8F4F65C559281E
:105090006128662870287A28F32884288C28942888
:1050A0009E28A828B228C128CB28F328D528DF2895
:1050B000E92884B5806884BDC7BDDF91CF911F9179
:1050C000089584B5806284BDC8BDF7CF809180000B
:1050D000806880938000D0938900C0938800EDCFD2
:1050E00080918000806280938000D0938B00C09379
:1050F0008A00E3CF80918000886080938000D09305
:105100008D00C0938C00D9CF8091B00080688093CF
:10511000B000C093B300D1CF8091B0008062809383
:10512000B000C093B400C9CF809190008068809394
:105130009000D0939900C0939800BFCF80919000C9
:10514000806280939000D0939B00C0939A00B5CF6B
:1051500080919000886080939000D0939D00C093D0
:105160009C00ABCF8091A00080688093A0008091CC
:10517000A0008F7B8093A000D093A900C093A800CB
:105180009CCF8091A00080628093A000D093AB0060
:10519000C093AA0092CF8091A00088608093A00065
:1051A000D093AD00C093AC0088CF8091200180687F
:1051B00080932001D0932901C09328017ECF809154
:1051C0002001806280932001D0932B01C0932A019B
:1051D00074CF80912001886080932001D0932D01AD
:1051E000C0932C016ACFC038D1050CF03FCF35CF2A
:1051F0008150823108F059C0E82FF0E08827ED5F38
:10520000F64D8F4FA9C42329272915291B291F29AA
:1052100055292A29302934293A293E294229482961
:105220004C295529502956295A29809180008F7779
:10523000809380000895809180008F7DF9CF8091C8
:105240008000877FF5CF84B58F7784BD089584B5BE
:105250008F7DFBCF8091B0008F778093B000089551
:105260008091B0008F7DF9CF809190008F778093EF
:1052700090000895809190008F7DF9CF80919000EB
:10528000877FF5CF8091A0008F778093A00008954D
:105290008091A0008F7DF9CF8091A000877FF5CF0E
:1052A000809120018F7780932001089580912001C3
:1052B0008F7DF9CF80912001877FF5CFCF93DF934A
:1052C00090E0FC01E65DFD4F249180599D4FFC016B
:1052D00084918823C9F090E0880F991FFC01E65162
:1052E000FD4FA591B491FC01E053FD4FC591D491C0
:1052F00061110DC09FB7F8948C91209582238C93F7
:105300008881282328839FBFDF91CF910895623041
:1053100051F49FB7F8943C91822F809583238C930E
:10532000E8812E2BEFCF8FB7F894EC912E2B2C9396
:105330008FBFEACF1F93CF93DF93282F30E0F9017F
:10534000EC51FE4F8491F901E65DFD4FD491F901D6
:10535000E059FD4FC491CC23A1F0162F811148DFF5
:10536000EC2FF0E0EE0FFF1FE053FD4FA591B4913D
:105370008FB7F894EC91111108C0D095DE23DC931F
:105380008FBFDF91CF911F910895DE2BF8CFCF9380
:10539000DF93282F30E0F901EC51FE4F8491F901A1
:1053A000E65DFD4FD491F901E059FD4FC491CC2346
:1053B00099F081111DDFEC2FF0E0EE0FFF1FEA5492
:1053C000FD4FA591B491EC91ED2381E090E009F4BB
:1053D00080E0DF91CF91089580E090E0FACFFC016A
:1053E000918D228D892F90E0805C9F4F821B9109C7
:1053F0008F7399270895FC01918D828D981731F054
:10540000828DE80FF11D858D90E008958FEF9FEF5D
:105410000895FC01918D828D981761F0A28DAE0FD9
:10542000BF2FB11D5D968C91928D9F5F9F73928F60
:1054300090E008958FEF9FEF0895FC01538D448D08
:10544000252F30E0842F90E0821B930B541710F02F
:10545000CF96089501970895FC01A48DA80FB92F48
:10546000B11DA35ABF4F2C91848D90E001968F738C
:105470009927848FA689B7892C93A089B1898C91AB
:10548000837080648C93938D848D981306C00288FA
:10549000F389E02D80818F7D80830895CF93DF9302
:1054A000EC01888D8823B1F0AA89BB89E889F98944
:1054B0008C9185FD03C0808186FD0CC00FB607FC72
:1054C000F7CF8C9185FFF2CF808185FFEDCFCE01A4
:1054D000C3DFEACFDF91CF910895EF92FF920F9350
:1054E0001F93CF93DF93EC0181E0888F9B8D8C8D90
:1054F00098131AC0E889F989808185FF15C09FB784
:10550000F894EE89FF896083E889F9898081837046
:10551000806480839FBF81E090E0DF91CF911F91F5
:105520000F91FF90EF900895F62E0B8D10E00F5F16
:105530001F4F0F731127E02E8C8D8E110BC00FB6ED
:1055400007FCFACFE889F989808185FFF5CFCE0184
:1055500083DFF2CFEB8DEC0FFD2FF11DE35AFF4FF0
:10556000F0829FB7F8940B8FEA89FB898081806273
:10557000D0CFCF92DF92EF92FF921F93CF93DF9322
:10558000EC016A017B01122FE889F98982E08083AE
:10559000C11481EED806E104F10499F060E079E0ED
:1055A0008DE390E0A7019601B5D221503109410960
:1055B00051095695479537952795211580E138076C
:1055C00090F0E889F989108260E874E88EE190E053
:1055D000A70196019FD221503109410951095695E1
:1055E000479537952795EC85FD853083EE85FF85BA
:1055F0002083188EEC89FD891083EA89FB898081DC
:1056000080618083EA89FB89808188608083EA8960
:10561000FB89808180688083EA89FB8980818F7D16
:105620008083DF91CF911F91FF90EF90DF90CF901B
:1056300008951F920F920FB60F9211240BB60F927E
:105640002F938F939F93EF93FF93E0918005F091B9
:1056500081058081E0918605F091870582FD1DC05E
:105660009081809189058F5F8F7320918A058217C1
:1056700041F0E0918905F0E0E059FA4F958F809371
:105680008905FF91EF919F918F912F910F900BBE04
:105690000F900FBE0F901F9018958081F2CF1F9230
:1056A0000F920FB60F9211240BB60F922F933F93C8
:1056B0004F935F936F937F938F939F93AF93BF931A
:1056C000EF93FF9380E795E0C7DEFF91EF91BF91E5
:1056D000AF919F918F917F916F915F914F913F918A
:1056E0002F910F900BBE0F900FBE0F901F9018952B
:1056F000E0E7F5E01382128288EE93E0A0E0B0E0EC
:1057000084839583A683B78386E394E09183808323
:1057100085EC90E09587848784EC90E09787868776
:1057200080EC90E0918B808B81EC90E0938B828B6E
:1057300082EC90E0958B848B86EC90E0978B868B47
:10574000118E128E138E148E08951F920F920FB623
:105750000F9211240BB60F922F938F939F93EF9379
:10576000FF93E0911D06F0911E068081E0912306D3
:10577000F091240682FD1DC09081809126068F5FE6
:105780008F7320912706821741F0E0912606F0E002
:10579000E35FF94F958F80932606FF91EF919F91DC
:1057A0008F912F910F900BBE0F900FBE0F901F90F7
:1057B00018958081F2CF1F920F920FB60F9211248D
:1057C0000BB60F922F933F934F935F936F937F93FB
:1057D0008F939F93AF93BF93EF93FF938DE096E0EA
:1057E0003BDEFF91EF91BF91AF919F918F917F91A0
:1057F0006F915F914F913F912F910F900BBE0F9042
:105800000FBE0F901F901895EDE0F6E01382128204
:1058100088EE93E0A0E0B0E084839583A683B7830D
:1058200086E394E0918380838DEC90E09587848774
:105830008CEC90E09787868788EC90E0918B808B4A
:1058400089EC90E0938B828B8AEC90E0958B848B33
:105850008EEC90E0978B868B118E128E138E148EA9
:1058600008951F920F920FB60F9211240BB60F924C
:105870002F938F939F93EF93FF93E091BA06F0914C
:10588000BB068081E091C006F091C10682FD1DC07B
:1058900090818091C3068F5F8F732091C406821719
:1058A00041F0E091C306F0E0E655F94F958F809303
:1058B000C306FF91EF919F918F912F910F900BBE97
:1058C0000F900FBE0F901F9018958081F2CF1F92FE
:1058D0000F920FB60F9211240BB60F922F933F9396
:1058E0004F935F936F937F938F939F93AF93BF93E8
:1058F000EF93FF938AEA96E0AFDDFF91EF91BF91BE
:10590000AF919F918F917F916F915F914F913F9157
:105910002F910F900BBE0F900FBE0F901F901895F8
:10592000EAEAF6E01382128288EE93E0A0E0B0E0AB
:1059300084839583A683B78386E394E091838083F1
:1059400085ED90E09587848784ED90E09787868742
:1059500080ED90E0918B808B81ED90E0938B828B3A
:1059600082ED90E0958B848B86ED90E0978B868B13
:10597000118E128E138E148E08951F920F920FB6F1
:105980000F9211240BB60F922F938F939F93EF9347
:10599000FF93E0915707F09158078081E0915D07F0
:1059A000F0915E0782FD1DC09081809160078F5F3E
:1059B0008F7320916107821741F0E0916007F0E05A
:1059C000E95BF84F958F80936007FF91EF919F916E
:1059D0008F912F910F900BBE0F900FBE0F901F90C5
:1059E00018958081F2CF1F920F920FB60F9211245B
:1059F0000BB60F922F933F934F935F936F937F93C9
:105A00008F939F93AF93BF93EF93FF9387E497E0B8
:105A100023DDFF91EF91BF91AF919F918F917F9186
:105A20006F915F914F913F912F910F900BBE0F900F
:105A30000FBE0F901F901895E7E4F7E013821282D3
:105A400088EE93E0A0E0B0E084839583A683B783DB
:105A500086E394E09183808385E391E09587848752
:105A600084E391E09787868780E391E0918B808B38
:105A700081E391E0938B828B82E391E0958B848B21
:105A800086E391E0978B868B118E128E138E148E87
:105A90000895AF92BF92CF92DF92EF92FF920F9351
:105AA0001F93CF93DF936C017B018B01040F151FB4
:105AB000EB015E01AE18BF08C017D10759F069911C
:105AC000D601ED91FC910190F081E02DC601199570
:105AD000892B79F7C501DF91CF911F910F91FF902D
