:1000000085C100000C940B290C9436290C946129AD
:100010000C948C290C94B7290C94E2290C940D2A89
:100020000C94382AA4C10000A2C10000A0C10000A5
:100030009EC100009CC100009AC1000098C1000050
:1000400096C1000094C1000092C1000090C1000060
:100050008EC100008CC100008AC100000C94632A8C
:1000600086C100000C945F2E0C94952E80C1000078
:100070007EC100007CC100007AC1000078C1000090
:1000800076C1000074C1000072C1000070C10000A0
:100090000C94EB2E0C94212F6AC1000068C1000063
:1000A00066C1000064C1000062C1000060C10000C0
:1000B0005EC100005CC100005AC1000058C10000D0
:1000C00056C1000054C100000C942E1A0C94772FD6
:1000D0000C94AD2F4CC100000C9403300C943930BB
:1000E00046C10000001D3A2774694E53E8F5D2CF8F
:1000F0009C81A6BBCDD0F7EAB9A4839E25381F0208
:10010000514C6B76879ABDA0F3EEC9D46F725548F7
:100110001B06213C4A57706D3E230419A2BF9885E7
:10012000D6CBECF1130E2934677A5D40FBE6C1DCD7
:100130008F92B5A8DEC3E4F9AAB7908D362B0C11C7
:10014000425F78659489AEB3E0FDDAC77C61465BB7
:100150000815322F5944637E2D30170AB1AC8B96A7
:10016000C5D8FFE2263B1C01524F6875CED3F4E997
:10017000BAA7809DEBF6D1CC9F82A5B8031E392487
:10018000776A4D50A1BC9B86D5C8EFF24954736E77
:100190003D20071A6C71564B1805223F8499BEA367
:1001A000F0EDCAD735280F12415C7B66DDC0E7FA57
:1001B000A9B4938EF8E5C2DF8C91B6AB100D2A3747
:1001C00064795E43B2AF8895C6DBFCE15A47607D37
:1001D0002E3314097F6245580B16312C978AADB027
:1001E000E3FED9C400000A0B02090C0D0E08070338
:1001F00004010000000000000000000000000000FA
:1002000000000000000000000000000000000000EE
:1002100012111000000000000000000000000000AB
:100220000000000000000000000001021020200873
:100230000810204010204080020102010804020141
:1002400001020408102040808040201008040201B0
:100250008004020180402010080402010804020109
:100260000102040810204080010204081020408090
:1002700005050505070508080808020202020A0A22
:100280000808040404040101010101010101030340
:10029000030303030303040707070C0C0C0C0C0CEB
:1002A0000C0C0202020206060606060606060B0BE8
:1002B0000B0B0B0B0B0B000020002300260029006A
:1002C0002C002F003200000100000301060109018B
:1002D00000002200250028002B002E0031003400F1
:1002E00002010000050108010B01000021002400AB
:1002F00027002A002D003000330001010000040116
:1003000007010A01BE2E4A2FD62F623011241FBECC
:10031000CFEFD1E2DEBFCDBF00E00CBF14E0A0E024
:10032000B2E0E0EDF4E600E00BBF02C007900D92F2
:10033000A63FB107D9F729E0A6EFB4E001C01D92AE
:10034000A034B207E1F711E0C6E8D1E000E006C052
:1003500021970109802FFE010E94F230C238D10797
:1003600080E00807A9F70E9454260C94663248CE14
:10037000611102C00C94A42C6130E1F362E0FACF69
:10038000662319F061E00C94E02C60E0FCCF089546
:10039000CF92DF92EF92FF92CF93882351F16A01BF
:1003A0007B01CFEFC80F20E030E0A901CB01B601FF
:1003B0000E94422787FF11C0C701B60190580E94D2
:1003C0004B279B01AC016C2F70E090E080E0CF9157
:1003D000FF90EF90DF90CF90B2C0C701B6010E94AE
:1003E00046278C2FCF91FF90EF90DF90CF900C9409
:1003F0006A2BCF91FF90EF90DF90CF9008950F93ED
:100400001F938B019C0183E03695279517950795DF
:100410008A95D1F70A501B4F462F477021E030E0F4
:10042000F90102C0EE0FFF1F4A95E2F7AF01F80194
:1004300020812423CB010196211102C090E080E0AD
:100440001F910F9108950F931F938B019C0183E0DF
:1004500036952795179507958A95D1F7677081E0AE
:1004600090E001C0880F6A95EAF7F801EA50FB4F67
:100470002081452B31F48095822380831F910F9139
:100480000895822BFACF2F923F924F925F926F92F4
:100490007F928F929F92AF92BF92CF92DF92EF9214
:1004A000FF920F931F93CF93DF93D62EC72E782EF4
:1004B000692E49015A01280161E08D2D0E94A42C6A
:1004C000CD2DDC2D8E010F5F1F4FA8016D2D7C2DD2
:1004D000872D962DB8DF20E030E0A901C201B701D9
:1004E0000E942928181664F4C201B7010E944B2704
:1004F0002B01C501B4010E944B27A201CE0123D0DC
:10050000C801DF91CF911F910F91FF90EF90DF9085
:10051000CF90BF90AF909F908F907F906F905F90A3
:100520004F903F902F900895882341F08150682F7D
:1005300070E090E080E050E040E085CF0895862FA5
:10054000B9010C946A2B9C01FC01EC51FE4FE49123
:10055000E150E231E0F4F0E08827EE54FD4F8F4F98
:100560000C94F230C402CB02CE02E502FA02C702BA
:100570000F031B031F0336034B03600377038C0336
:10058000C702A103B803CD0384B5806884BD60E0D1
:10059000822F0C94E02C84B58062F8CF809180008B
:1005A0008C7F82608093800080918100807E80615A
:1005B000682B609381005093870040938600809160
:1005C0008000806880938000E2CF809180008C7FE3
:1005D00082608093800080918100807E8061682BA2
:1005E0006093810050938700409386008091800043
:1005F0008062E8CF809180008C7F82608093800051
:1006000080918100807E8061682B6093810050938F
:10061000870040938600809180008860D3CF8091CE
:10062000B00080688093B0008091B100887F682B13
:100630006093B100ACCF8091B0008062F3CF809125
:1006400090008C7F82608093900080919100807EEA
:100650008061682B609391005093970040939600BF
:100660008091900080688093900091CF809190005D
:100670008C7F82608093900080919100807E806169
:10068000682B60939100509397004093960080915F
:1006900090008062E8CF809190008C7F8260809390
:1006A000900080919100807E8061682B6093910022
:1006B0005093970040939600809190008860D3CF2C
:1006C0008091A0008C7F82608093A0008091A10027
:1006D000807E8061682B6093A1005093A7004093B7
:1006E000A6008091A00080688093A00050CF8091E8
:1006F000A0008C7F82608093A0008091A100807E0A
:100700008061682B6093A1005093A7004093A600DE
:100710008091A0008062E8CF8091A0008C7F8260F1
:100720008093A0008091A100807E8061682B6093FF
:10073000A1005093A7004093A6008091A00088607C
:10074000D3CF809120018C7F8260809320018091A3
:100750002101807E8061682B6093210150932701E5
:1007600040932601809120018068809320010FCF63
:10077000809120018C7F82608093200180912101F3
:10078000807E8061682B6093210150932701409304
:100790002601809120018062E8CF809120018C7F2A
:1007A00082608093200180912101807E8061682B8E
:1007B00060932101509327014093260180912001ED
:1007C0008860D3CF60E070E080E89FE7089560E044
:1007D00070E080E89FE7089560E070E080E89FEFB8
:1007E000089560E070E080E89FEF089560E070E0B9
:1007F00080EC9FEF089560E070E080EC9FEF08953B
:10080000F5DF6093A8087093A9088093AA089093D5
:10081000AB08F1DF60939C0870939D0880939E085D
:1008200090939F08CFDF6093A4087093A5088093EE
:10083000A6089093A708CBDF6093A0087093A10847
:100840008093A2089093A308C7DF6093AC087093CD
:10085000AD088093AE089093AF08C3DF6093B008F3
:100860007093B1088093B2089093B30808952F92C3
:100870003F924F925F926F927F928F929F92AF9230
:10088000BF92CF92DF92EF92FF920F931F93CF937D
:10089000DF93CDB7DEB7E3970FB6F894DEBF0FBE98
:1008A000CDBF8091F1088150823008F480C580E08E
:1008B0008093F1088091EA088150823008F479C56C
:1008C00080E08093EA0828EC38E048E359E066E3EA
:1008D00079E089EE93E00E94911960913809709156
:1008E0003909072E000C880B990B0E94792720915B
:1008F00076033091770340917803509179030E94F9
:100900002D284B015C018092160990921709A09244
:100910001809B09219096091360970913709072EAC
:10092000000C880B990B0E94792720917A03309153
:100930007B0340917C0350917D030E94DE266B0176
:100940007C014090820350908303609084037090F8
:100950008503AC019B01C301B2010E94422787FFBE
:100960002AC5A3019201C701B6010E94DD2620918C
:1009700086033091870340918803509189030E9438
:100980002D286B017C01C0921A09D0921B09E092BC
:100990001C09F0921D0920E030E0A9010E942928DD
:1009A00018160CF01DC580918A0390918B03A091BD
:1009B0008C03B0918D0380931E0990931F09A0931F
:1009C0002009B09321098091E8089091E9082091CD
:1009D000EA023091EB028217930739F02091EC0282
:1009E0003091ED028217930721F48091E803809300
:1009F000EC088091EC08882309F405C589829A8265
:100A0000AB82BC82A701960160911E0970911F09FB
:100A100080912009909121090E94DE266D837E83BA
:100A20008F8398878091EB08882309F440C08091D8
:100A3000960390919703A0919803B09199038093A6
:100A4000CC089093CD08A093CE08B093CF088091A6
:100A50009A0390919B03A0919C03B0919D03809376
:100A6000D0089093D108A093D208B093D308809176
:100A70009E0390919F03A091A003B091A103809346
:100A8000D4089093D508A093D608B093D708809146
:100A9000A2039091A303A091A403B091A503809316
:100AA000D8089093D908A093DA08B093DB0889811D
:100AB0009A81AB81BC818CA39DA3AEA3BFA380937D
:100AC000F2089093F308A093F408B093F5084090CF
:100AD000D0085090D1086090D2087090D30840920E
:100AE000F6085092F7086092F8087092F9088D8124
:100AF0009E81AF81B8858093FA089093FB08A093FC
:100B0000FC08B093FD088091D8089091D908A09175
:100B1000DA08B091DB0888A799A7AAA7BBA780939A
:100B2000FE089093FF08A0930009B09301098091FB
:100B3000DC089091DD08A091DE08B091DF08809379
:100B4000020990930309A0930409B0930509109238
:100B5000220910922309109224091092250932EFDC
:100B6000E32E38E0F32E4AEEC42E42E0D42E06EDFA
:100B700012E01B8A1D8A198E1D8ED8016D917D9100
:100B80008D919D918D01F70121913191419151916B
:100B90007F0190580E942D289B01AC016B897D89B3
:100BA000898D9D8D0E94DE266B8B7D8B898F9D8F1D
:100BB000C016D10611F7CB01A98DBD8D80932209F6
:100BC00090932309A0932409B09325098091EB0306
:100BD000882309F430C481E08093EF088091D40821
:100BE0009091D508A091D608B091D7088CA79DA761
:100BF000AEA7BFA78091CC089091CD08A091CE0858
:100C0000B091CF0888AB99ABAAABBBAB06E313E0BE
:100C1000DE011196BBA3AAA31E01B9E02B0E311C65
:100C20003A8A298A1F8F0E8F0C5F1F4FEAA1FBA102
:100C3000C190D190E190F190FBA3EAA3AE8DBF8D5E
:100C400018962D913D914D915C911B97C301B20176
:100C50000E942D284B015C01EE8DFF8D208131819A
:100C60004281538168A979A98AA99BA90E942D284C
:100C70009B01AC01C501B4010E94DE264B015C0161
:100C8000AE8DBF8D50962D913D914D915C915397B6
:100C90006CA57DA58EA59FA50E942D289B01AC016A
:100CA000C501B4010E94DE264B015C01EE8DFF8D73
:100CB000208D318D428D538D68A579A58AA59BA580
:100CC0000E942D289B01AC01C501B4010E94DE26C3
:100CD0004B015C01F801EC57FF4F208131814281CB
:100CE00053816B897D89898D9D8D0E942D289B0163
:100CF000AC01C501B4010E94DE269B01AC01C70115
:100D0000B6010E94DD26D1016D937D938D939D9355
:100D10001D01E989FA892AA13BA1E217F30709F02D
:100D200081CF89859A85AB85BC858E8F9F8FA8A33F
:100D3000B9A34D845E846F84788806E513E026E2CB
:100D4000222E29E0322ED8018D909D90AD90BD903D
:100D50008D011C962D913D914D915C911F97C30182
:100D6000B2010E942D286B017C012E8D3F8D48A180
:100D700059A1C501B4010E942D2820E030E0A9014D
:100D80000E94DE269B01AC01C701B6010E94DE264F
:100D9000F10161937193819391931F0126E633E0F2
:100DA0002017310781F68091EA08882309F440C3AF
:100DB000833009F039C381E090E08093EA08C09065
:100DC000C603D090C703E090C803F090C903A70101
:100DD00096016B897D89898D9D8D0E942928181621
:100DE000B4F0C090CA03D090CB03E090CC03F09055
:100DF000CD03A70196016B897D89898D9D8D0E9408
:100E0000422787FD04C0CB88DD88E98CFD8C2091CA
:100E1000CE033091CF034091D0035091D103C7014D
:100E2000B6010E942D284B015C0120E030E0A901B1
:100E30000E94422787FD3AC320E030E0A901C501A6
:100E4000B4010E94292818160CF425C320E030E0D4
:100E5000A901C501B4010E944227882309F422C3D5
:100E60008090A8089090A908A090AA08B090AB081C
:100E700020E030E040E853E4C501B4010E9442277D
:100E80006FEF87FF0DC020E030E0A901C501B4017C
:100E90000E94292887FD0AC3C501B4010E944B277F
:100EA0008AE06EDAE894F7F86091BC087091BD08AA
:100EB0008091BE089091BF08A2DA8C019093BB0884
:100EC0008093BA082091D2033091D3034091D40388
:100ED0005091D503C701B6010E942D286B017C01FA
:100EE00020E030E04FE753E40E94422787FFE0C252
:100EF00020E030E0A901C701B6010E942928181698
:100F00000CF0DDC2B701A601C80142DA28EC38E0D6
:100F100048E359E066E379E089EE93E00E94C31963
:100F200080913609909137099093E9088093E808F9
:100F30001092EB088091D8089091D908A091DA0816
:100F4000B091DB088D8B9E8BAF8BB88F8091D408CE
:100F50009091D508A091D608B091D708898F9A8F23
:100F6000AB8FBC8F8090D0089090D108A090D20811
:100F7000B090D3084090CC085090CD086090CE0837
:100F80007090CF0806EF12E0A6E0B9E0BC8BAB8B07
:100F900018010C5F1F4FF101208931894289538963
:100FA000C501B4010E942D286B017C01D1012D9156
:100FB0003D914D915C91C301B2010E942D289B018E
:100FC000AC01C701B6010E94DE266B017C01F10174
:100FD00020A131A142A153A1698D7A8D8B8D9C8D69
:100FE0000E942D289B01AC01C701B6010E94DE269C
:100FF0006B017C01D101D0962D913D914D915C9179
:10100000D3976D897E898F89988D0E942D289B01A9
:10101000AC01C701B6010E94DE26EB89FC89619311
:10102000719381939193FC8BEB8B26E033E0201737
:10103000310709F0ADCFC0902209D0902309E0908C
:101040002409F09025092091AE033091AF0340911F
:10105000B0035091B103C701B6010E942D28209121
:1010600006093091070940910809509109090E9429
:10107000DE262091260930912709409128095091B8
:1010800029090E94DE266093CC087093CD088093D6
:10109000CE089093CF082091B2033091B3034091D2
:1010A000B4035091B503C701B6010E942D282091C9
:1010B0000A0930910B0940910C0950910D090E94C9
:1010C000DE2620912A0930912B0940912C0950915C
:1010D0002D090E94DE266093D0087093D10880937A
:1010E000D2089093D3082091B6033091B703409172
:1010F000B8035091B903C701B6010E942D28209171
:101100000E0930910F0940911009509111090E9468
:10111000DE2620912E0930912F09409130095091FF
:1011200031090E94DE266093D4087093D50880931D
:10113000D6089093D7082091BA033091BB03409111
:10114000BC035091BD03C701B6010E942D28209118
:1011500012093091130940911409509115090E9408
:10116000DE262091320930913309409134095091A3
:1011700035090E94DE266093D8087093D9088093C1
:10118000DA089093DB082091D6033091D703409181
:10119000D8035091D903609147057091480580911B
:1011A000490590914A050E94422787FF8CC16091B2
:1011B000DA037091DB038091DC039091DD032091D1
:1011C000E2033091E3034091E4035091E5030E9470
:1011D0002D282CA13DA14EA15FA10E94DD262091CA
:1011E000A6033091A7034091A8035091A9030E9440
:1011F0002D282091DC083091DD084091DE085091C7
:10120000DF080E94DE266093DC087093DD0880937F
:10121000DE089093DF0881E090E00E94BF184091C3
:101220004705509148056091490570914A0590E045
:1012300080E00E94BB188090570590905805A090C0
:101240005905B0905A0520E030E040E85FEBC50159
:10125000B4010E944227882331F1C0904705D09005
:101260004805E0904905F0904A05A7019601C5019F
:10127000B4010E94DD264B015C0120E030E040E03B
:1012800054E3C701B6010E942D289B01AC01C501A2
:10129000B4010E942928181634F080E094E090935D
:1012A00032058093310580915B05882331F080E021
:1012B00094E09093320580933105C0904B05D09017
:1012C0004C05E0904D05F0904E053FEFC31AD30A50
:1012D000E30AF30AC0924B05D0924C05E0924D050B
:1012E000F0924E05C114D104E104F10499F4809107
:1012F0004F0590915005A0915105B091520501966E
:10130000A11DB11D80934F0590935005A0935105E9
:10131000B09352058090530590905405A0905505C8
:10132000B090560560914F05709150058091510520
:10133000909152050E947727A50194010E942D28C3
:1013400020E030E040E85FE40E942D282B013C01C2
:10135000C701B6010E947727A50194010E942D289C
:101360009B01AC01C301B2010E94DE2660934705D8
:10137000709348058093490590934A05E3960FB60C
:10138000F894DEBF0FBECDBFDF91CF911F910F91BB
:10139000FF90EF90DF90CF90BF90AF909F908F9095
:1013A0007F906F905F904F903F902F90089583E0D3
:1013B0007FCA83E086CA40907E0350907F0360908E
:1013C000800370908103A7019601C301B2010E94BE
:1013D000422718160CF4C5CA60E070E0CB01C7CAFA
:1013E00020E030E0A901C701B6010E94422718168B
:1013F0000CF4E9CA80918E0390918F03A091900321
:10140000B0919103D8CA8091F2029091F302A09119
:10141000F402B091F50289839A83AB83BC838D83F8
:101420009E83AF83B887FECA082E000C990BC5CCEB
:1014300082E090E0C2CC8091EF08882309F4BFCC11
:101440008091EE029091EF02A091F002B091F10232
:101450008093260990932709A0932809B09329091E
:1014600080932A0990932B09A0932C09B0932D09FE
:1014700080932E0990932F09A0933009B0933109DE
:101480008093320990933309A0933409B0933509BE
:101490001092EF0894CC812C912C90E8A92E9FE318
:1014A000B92EFACC812C912C5401F6CC60E0F8CC0A
:1014B000C12CD12C8FE7E82E83E4F82E23CDC12C4C
:1014C000D12C76011FCD6091DE037091DF038091F6
:1014D000E0039091E10373CE4F925F926F927F92FF
:1014E000BF92CF92DF92EF92FF920F931F93CF9311
:1014F000DF9384E090E084D9A1E3B5E08BE2FD01C5
:1015000011928A95E9F740E050E060E87FEB96960B
:101510004D935D936D937C9399974FE652E163E809
:101520007AE392964D935D936D937C93959745EEF8
:1015300055E86EE876ED14964D935D936D937C932C
:10154000179742EB55E46FE071EC18964D935D935D
:101550006D937C931B9746EC53E460E370EB1C9611
:101560004D935D936D937C931F974AE655EB6DEC1D
:1015700079E250964D935D936D937C935397C5E2BA
:10158000D5E01396DC93CE931297E3E1F5E0F9836F
:10159000E88384E194E09183808320EF38E0338313
:1015A000228321EF38E0358324832AEE38E0378325
:1015B00026839187808793878287958784879787FB
:1015C0008687918B808B85E495E09D838C8385E372
:1015D00095E09B838A8387E495E09F838E8382EFE7
:1015E000C82E88E0D82E88E4F60111928A95E9F792
:1015F000C4EBD8E08EE3FE0111928A95E9F729E069
:1016000035E08AE0F90111928A95E9F7EFEFF4E00D
:101610005596FC93EE93549780E190E091838083FC
:1016200086EB92E09383828386E992E095838483BC
:1016300082E392E09783868386E092E091878087B9
:10164000BB24B394BAAE412C512C320143944D8645
:101650005E866F86788A61E08AE00E94B801B98A66
:101660001882B9AE89E090E0A0E0B0E08887998761
:10167000AA87BB871D8249825A826B827C82E12CB9
:10168000F12C8701A801970169E070E080E090E00B
:101690000E9443029F838E83688579858A859B8516
:1016A0000E94FF019F838E830E94C701BD82EC8A46
:1016B000FD8A0E8B1F8B8091E6039091E7039DAB13
:1016C0008CAB8091EA0388AFBFAA8091AA03909166
:1016D000AB03A091AC03B091AD0388A799A7AAA7CB
:1016E000BBA78091920390919303A0919403B09132
:1016F0009503F60184A795A7A6A7B7A78091EE0248
:101700009091EF02A091F002B091F10284AB95AB01
:10171000A6ABB7AB80AF91AFA2AFB3AF84AF95AF7D
:10172000A6AFB7AF8093320990933309A0933409E1
:10173000B0933509DF91CF911F910F91FF90EF90FA
:10174000DF90CF90BF907F906F905F904F90089503
:101750008091C008811103C081E08093C00880910E
:10176000B408811136C081E08093B4088091B50837
:101770009091B608A091B708B091B8080197A1055B
:10178000B10539F58091B908882319F16091BC0839
:101790007091BD088091BE089091BF080E94FF0122
:1017A0009093BB088093BA0840E050E0BA010E94D1
:1017B000C8016091BC087091BD088091BE089091ED
:1017C000BF080E94FF019093BB088093BA080C9455
:1017D00094020895EF92FF920F931F93CF93DF939C
:1017E000EA01F901DC011496ED90FC901597129630
:1017F0004D915C9113974E0D5F1D2881398118968C
:101800000D911C9119970217130730F00D911C913F
:101810001197012B09F441C08A01021B130BDC0153
:1018200018968D919C918E199F09800F911F861794
:101830009707DCF1C901860F971F8417950778F485
:101840007183608333832283158214821782168208
:1018500088819981680F791F7983688316C0118305
:10186000008333832283601B710B7583648390E054
:1018700080E01616170614F49E2D8F2D968387830D
:10188000D701A60FB71FB983A88380E0DF91CF915E
:101890001F910F91FF90EF90089518968D919C9154
:1018A000821B930B861797075CF681E0EFCFCF92F0
:1018B000DF92EF92FF92CF93DF936B0184E4869FD8
:1018C000E001879FD00D1124C45ADA4F8AA99BA941
:1018D000009721F00E94C4311BAA1AAA84E48C9DAF
:1018E000F0018D9DF00D1124E45AFA4F86A997A9B5
:1018F000009711F00E94C43184E48C9DF0018D9D0D
:10190000F00D1124E45AFA4F138A128A168A178AA4
:10191000108E118E128E138E148E158E168E178EBB
:1019200010A211A281E090E093A382A315A214A2B9
:1019300016A217A210A611A613A612A615A614A6E3
:1019400016A617A610AA11AA13AA12AA15AA14AAB3
:1019500017AA16AA11AE10AE12AE13AE14AE15AE83
:10196000DF01DE961D921D921D921C921397EE5B75
:10197000FF4F11821082DF91CF91FF90EF90DF90A7
:10198000CF900895CF93DF93FB01DC016D917C91A3
:10199000DB011696CD91DC918081918123E0880F47
:1019A000991F2A95E1F7AA81BB81A80FB91F8D91D4
:1019B0009C91119724853585220F331FEB016A8195
:1019C0007B81EB01C20FD31F0990D881C02D1496E3
:1019D0002D913C9161E070E0232B11F062E070E00A
:1019E000C69F9001C79F300DD69F300D1124A08552
:1019F000B1852A9FB0012B9F700D3A9F700D112465
:101A0000A481B5812A9FF0012B9FF00D3A9FF00D24
:101A100011248E0F9F1FFA01918380837383628349
:101A2000DF91CF9108952F923F924F925F926F92E4
:101A30007F928F929F92AF92BF92CF92DF92EF925E
:101A4000FF920F931F93CF93DF9300D000D0CDB7B9
:101A5000DEB7DC011496ED91FC910190F081E02D50
:101A6000808591859A838983A281B381BC83AB836E
:101A7000FB0181909190A190B190C12CD12C760165
:101A8000C814D904EA04FB04CCF026960FB6F894E7
:101A9000DEBF0FBECDBFDF91CF911F910F91FF90A1
:101AA000EF90DF90CF90BF90AF909F908F907F90FE
:101AB0006F905F904F903F902F9008954480558095
:101AC000668077804085518562857385CF01409619
:101AD0009E838D83A081B1819D0183E0220F331FFE
:101AE0008A95E1F7A981BA8112968D919C91D901CD
:101AF000A80FB91F2D903C9011970484F585E02D17
:101B0000EE0FFF1F8B819C81E80FF91F0190F08180
:101B1000E02D14968D919C91892B41F581E090E008
:101B2000E89F9001E99F300DF89F300D1124249F0C
:101B30008001259F100D349F100D1124249DC0019C
:101B4000259D900D349D900D1124A8016D817E81FD
:101B5000820D931D0E944D32ED81FE81E00FF11F39
:101B60009FEFC91AD90AE90AF90A8ACF82E090E000
:101B7000D7CFCF93DF93DB01A451BC4F2C9122230D
:101B800069F024E4269FF001279FF00D1124E45A08
:101B9000FA4FEF0119922A95E9F71C9224E4269F47
:101BA000F001279FF00D1124E45AFA4F1482158298
:101BB000168217821186108613861286118A108A61
:101BC00017861686DF91CF9172CE2F923F924F9259
:101BD0005F926F927F928F929F92AF92BF92CF92BD
:101BE000DF92EF92FF920F931F93CF93DF9300D07A
:101BF00000D01F921F92CDB7DEB724E4269FF001DC
:101C0000279FF00D1124E45AFA4F04811581268193
:101C10003781012B022B032B09F4B7C02A016B017A
:101C20007C0110E000E0812C912C54013F019F01C8
:101C3000285F3F4F3C832B83CF0104969E838D8387
:101C4000AB81BC818D919C91ED81FE814081518160
:101C50006281738184169506A606B706E4F10E9498
:101C6000C431D3011A968D919C91892B09F07EC0C5
:101C700084E48C9DD0018D9DB00D1124A45ABA4FDF
:101C8000BC83AB8350968D919C910E94C431EB81B3
:101C9000FC81868597850E94C431C701B60107DEA5
:101CA000C701B60128960FB6F894DEBF0FBECDBFB0
:101CB000DF91CF911F910F91FF90EF90DF90CF9028
:101CC000BF90AF909F908F907F906F905F904F905C
:101CD0003F902F904ECFFC01E00FF11F928199832E
:101CE000A381AA839F83A887312C212C2414350437
:101CF00064F089819A810E94C431EFEF8E1A9E0AA6
:101D0000AE0ABE0A0C5F1F4F9BCFAF81B885ED9125
:101D1000FD91B887AF83309759F0848195810E94F7
:101D2000C431EF81F8853297808191810E94C4315E
:101D3000BFEF2B1A3B0ADACF800F911FFC01848181
:101D400095810E94C4312B813C812F5F3F4F3C83A2
:101D50002B83025F1F4FF501808191812B813C8194
:101D6000241535054CF30E94C43182CF10E000E009
:101D70001C821B8224E42C9DC0012D9D900D1124FA
:101D8000DC01AA59BA4F5D01E6CF28960FB6F89448
:101D9000DEBF0FBECDBFDF91CF911F910F91FF909E
:101DA000EF90DF90CF90BF90AF909F908F907F90FB
:101DB0006F905F904F903F902F90089524E4269F5E
:101DC000F001279FF00D1124E45AFA4F828993897C
:101DD0000497029758F485E090E0938B828B8FEF05
:101DE0009FEFDC01828F938FA48FB58F08952F9280
:101DF0003F924F925F926F927F928F929F92AF929B
:101E0000BF92CF92DF92EF92FF920F931F93CF93E7
:101E1000DF93CDB7DEB7AA970FB6F894DEBF0FBE3B
:101E2000CDBF9AA389A37E8B6D8B1A01098B1A8B68
:101E30002B8B3C8B84E429893A89829F6001839FA4
:101E4000D00C11248601045A1A4F89899A89AB89CA
:101E5000BC89F80180839183A283B383AB01BC0169
:101E6000CD01B3DED601A05ABA4F84E0F101019052
:101E70000D928A95E1F7F4E02F0E311C64E070E0DA
:101E8000D80114968D919C910E940E31F801918792
:101E90008087892B09F0F5C04D895E8969897A8927
:101EA0008B899C8992DE81E0AA960FB6F894DEBFFA
:101EB0000FBECDBFDF91CF911F910F91FF90EF909B
:101EC000DF90CF90BF90AF909F908F907F906F905A
:101ED0005F904F903F902F900895A9A5BAA58D913E
:101EE0009C91E98DFA8DE80FF91FF88FEF8BD101E6
:101EF0008D919C91880F991FA9A1BAA1ED91FC9198
:101F0000E80FF91F80819181EF89F88D918380839B
:101F1000D10114962D913D914D915C9117972BA372
:101F20003CA34DA35EA362E070E08D899E890E9470
:101F30000E31EF89F88D93838283892B09F4ACCF1E
:101F4000F8E02F0E311C412C512C32012BA13CA169
:101F50004DA15EA142165306640675069CF02B8DBA
:101F60003C8D4D8D5E8D2F5F3F4F4F4F5F4F2B8FC1
:101F70003C8F4D8F5E8F498D5A8D4C5F5F4F5A8FCE
:101F8000498F90C0610124E0C20ED11CD101ED90B7
:101F9000FC90EE0CFF1CEF89F88D82819381E80E96
:101FA000F91E68E070E081E090E00E940E318C0143
:101FB000D7018D939C93892B09F46ECF84E0F601B1
:101FC000D80101900D928A95E1F7B8E02B0E311CF3
:101FD000F80180819181A281B381181619061A0631
:101FE0001B06DCF464E070E00E940E31D801159607
:101FF0009C938E931497892B09F44ECFD12CC12C2E
:10200000812C912C5401F80180819181A281B381AE
:1020100088169906AA06BB0634F0FFEF4F1A5F0A2E
:102020006F0A7F0A93CFF801E480F580EC0CFD1C69
:1020300080E1F101DE01119601900D928A95E1F7A0
:10204000F0E12F0E311CA701BE016F5F7F4FA9A1E8
:10205000BAA114968D919C9195DCF80186819781A7
:10206000D70112962D913C91820F931F97838683FF
:10207000BFEF8B1A9B0AAB0ABB0AE4E0CE0ED11C61
:10208000C2CF1A8E198E1B8E1C8E1D8E1E8E18A30B
:102090000F8FA8014C5F5F4F58A74FA3C801089648
:1020A0009AA789A7EFA1F8A580819181A281B38128
:1020B0002B8D3C8D4D8D5E8D281739074A075B07A8
:1020C0000CF40BCF6EE070E08D899E890E940E317A
:1020D000AF8DB8A11B969C938E931A97B12CA12C0F
:1020E000D12CC12CF12CE12C24E4E989FA892E9F12
:1020F000C0012F9F900D11249C012A593A4F388F0F
:102100002F8B88248394912C4D895E89C416D50623
:1021100054F184E4A989BA898A9F80018B9F100DAC
:102120001124045A1A4FF80115861486C70133E0AA
:10213000880F991F3A95E1F70E942831D8015196EE
:102140009C938E935097892B09F4A6CEC701880FD4
:10215000991F0E942831F80197878687892B09F4F7
:102160009BCE80E0A1CED1014D905D906D907D9091
:102170001D0177FC91CEEF89F88D008111810A0D48
:102180001B1DD80111969C928E924114510461043A
:10219000710429F1C2010E942831F80195838483DA
:1021A000892B09F479CEF80153824282848195818A
:1021B00097838683918780871386128681E090E0DB
:1021C00045284628472811F490E080E0E80EF91EE3
:1021D000FFEFCF1ADF0A2EE0A20EB11C95CF1596A5
:1021E0001C921E921497DFCF2F923F924F925F92D4
:1021F0006F927F928F929F92AF92BF92CF92DF9217
:10220000EF92FF920F931F93CF93DF93CDB7DEB77B
:102210006A970FB6F894DEBF0FBECDBF9E8B8D8B35
:1022200049015A0184E4829F7001839FF00C1124BC
:102230009701245A3A4F6901FB0180819181F9018C
:10224000958B848BD701AE58BA4FFB01349684E04E
:1022500001900D928A95E1F7D701AA58BA4FFB0178
:10226000389684E001900D928A95E1F7D701A6583F
:10227000BA4FFB013C9684E001900D928A95E1F7FC
:10228000D701A657BA4FFB01709684E001900D92DA
:102290008A95E1F78B010C5E1F4FF90186A597A582
:1022A000A0A9B1A918161906DCF5880F991F880F87
:1022B000991F0E942831F60193AB82AB892B09F458
:1022C000D3C0312C212C412C512C32019601225D9E
:1022D0003F4F388F2F8BC601C2969A8F898FF49605
:1022E000FC8BEB8BB301A2012FEF421A520A620A58
:1022F000720AEF89F88D80819181A281B38148179C
:1023000059076A077B070CF47BC0F60184A995A9DD
:102310000E942831F60197AB86AB892B09F4A4C043
:10232000F80180819181A281B38124E4289DF0018C
:10233000299DF00D1124E45AFA4FAC01BD014D7FE7
:1023400021E030E0452B462B472B11F030E020E018
:1023500033A322A324E4289DF001299DF00D11242C
:10236000E45AFA4F0197A109B10921E030E0029740
:10237000A105B10510F030E020E035A324A3D7017A
:10238000AE57BA4FF801349684E001900D928A95C9
:10239000E1F784E4889DF001899DF00D1124E45A51
:1023A000FA4F868D978DA0A1B1A1B7FF58C0B09507
:1023B000A095909581959F4FAF4FBF4F82AF93AF40
:1023C000A4AFB5AF168E178E10A211A280E06A9648
:1023D0000FB6F894DEBF0FBECDBFDF91CF911F9136
:1023E0000F91FF90EF90DF90CF90BF90AF909F90B4
:1023F0008F907F906F905F904F903F902F900895B7
:10240000E98DFA8D808191819C01220D331D3A8BDB
:10241000298B80E1F801DE01119601900D928A95D9
:10242000E1F7005F1F4F49895A89BE016F5F7F4FF7
:10243000ED89FE8984819581A5DAEB89FC8980810B
:102440009181E989FA8922813381820F931FEB8977
:10245000FC8991838083F4E02F0E311C43CF12AEB0
:1024600013AE14AE15AEB2CFC501B40120DA81E0CF
:10247000AECFCF92DF92EF92FF92CF93DF93109285
:10248000E40524E4269FF001279FF00D1124E45A6F
:10249000FA4F15A614A630E020E0D12CC12CDF01A4
:1024A0001A96C1E0D0E0C416D506F4F024E4269FC5
:1024B000F001279FF00D1124E45AFA4F13A612A63B
:1024C00011AE10AEDF01DE961D921D921D921C9280
:1024D000139782E090E0938B828BDF91CF91FF90F6
:1024E000EF90DF90CF900895ED91FC911197E20F5E
:1024F000F31FE280F3801E141F0454F4E480F5807F
:10250000F782E682F186E08613861286D183C08345
:10251000EFEFCE1ADE0A225F3F4FC5CF24E4269F9D
:10252000F001279FF00D1124E45AFA4F138A128A02
:102530004CCB24E4269FF001279FF00D1124E45A90
:10254000FA4F8289938981309105C8F085309105D1
:1025500018F0059769F008958FEF9FEFDC01828FE7
:10256000938FA48FB58F85E090E0938B828B089535
:102570008FEF9FEFDC01828F938FA48FB58F08952B
:1025800024E4249FD001259FB00D1124A45ABA4FF2
:102590002EE0AC01249FC001259F900D11241A96B6
:1025A000ED91FC91E80FF91F81E08093E4058285AD
:1025B000938591878087408551852681378181E089
:1025C00090E04217530711F090E080E09183808300
:1025D00008952F923F924F925F926F927F928F92C7
:1025E0009F92AF92BF92CF92DF92EF92FF920F93A2
:1025F0001F93CF93DF93CDB7DEB7C055D1090FB688
:10260000F894DEBF0FBECDBF9EAF8DAF4BA75CA7CA
:102610006DA77EA76801790184E4809FF001819F06
:10262000F00D1124E45AFA4F2285338523963FAFEB
:102630002EAF239782899389029761F486A597A587
:10264000A0A9B1A9892B8A2B8B2BC9F584E090E036
:10265000938B828B84E48C9DF0018D9DF00D112471
:10266000E45AFA4F828993898230910509F037C282
:1026700082AD93ADA4ADB5AD22242394312C1816B0
:1026800019061A061B060CF42FC2C05BDF4F0FB6EB
:10269000F894DEBF0FBECDBFDF91CF911F910F9198
:1026A000FF90EF90DF90CF90BF90AF909F908F9072
:1026B0007F906F905F904F903F902F900895848906
:1026C00095894DAD5EAD8417950721F606A917A92A
:1026D00018AE1FAA1BAA1CAA1DAA1EAA1F01CF0161
:1026E0008E9627969FAF8EAF2797DF01D2962996B9
:1026F000BFAFAEAF2997F8962B96FFAFEEAF2B97F3
:1027000091012A5D3F4F2D963FAF2EAF2D97A1012E
:102710004E5D5F4F2F965FAF4EAF2F970A97619632
:102720009FAF8EAF61972796EEADFFAD2797808163
:102730009181A281B3812BA93CA94DA95EA928173B
:1027400039074A075B0744F081E090E0D101D99650
:102750009C938E93D8977ECF2996AEADBFAD299727
:10276000ED91FC912FA938ADE20FF31F4281538107
:102770005AAF49AF50815FAF818121968FAF2197CA
:102780002B96AEADBFAD2B978D919C91892B21F1EE
:102790002D96EEADFFAD2D9780809180A280B38005
:1027A0001AAB09AB5FA72196FFAD2197F8AB29AD16
:1027B0003AAD369527953695279525963FAF2EAF9E
:1027C00025971CAE1BAE2596AEADBFAD2597EBADE4
:1027D000FCADEA17FB070CF149AD5AAD6FAD219680
:1027E0007FAD2197C8010E944D3289AD9AAD8C7F93
:1027F000080F191F2BA93CA94DA95EA92F5F3F4FB8
:102800004F4F5F4F2BAB3CAB4DAB5EAB4FA958ADC1
:102810004C5F5F4F58AF4FAB86CF2F96AEADBFAD7D
:102820002F978D919C91892B71F1EFA5F8A940808C
:10283000518062807380A3019201C501B4010E949E
:102840004227181664F0A9A9BAA92D913D914D917E
:102850005C91C501B4010E9429281816BCF1A3019E
:102860009201C501B4010E94422787FF0CC0E9A96B
:10287000FAA92081318142815381C501B4010E94AE
:102880004227882319F16196AEADBFAD61978D9156
:102890009C91892B09F445C0EFA5F8A9408051808F
:1028A00062807380A3019201C501B4010E942928AE
:1028B00018161CF5A9A9BAA92D913D914D915C91CD
:1028C000C501B4010E94422718165CF184E48C9D76
:1028D000F0018D9DF00D1124E45AFA4F868D978DED
:1028E000A0A1B1A1892B8A2B8B2B69F183E090E009
:1028F000938B828B81E090E02CC0A3019201C501F3
:10290000B4010E94422781110CC0E9A9FAA92081D3
:10291000318142815381C501B4010E94422787FD64
:10292000D5CF2BAD3CAD2F5F3F4F3CAF2BAF49A96F
:102930005AA94C5F5F4F5AAB49AB8FA598A9049633
:1029400098AB8FA740CF84E090E0938B828B86ADCD
:1029500097AD93A782A77ECEEBADFCAD8081918130
:10296000F401EE0FFF1FEE0FFF1FE80FF91FA0810C
:10297000B1818C9181110AC0FFEF8F1A9F0AAF0AB3
:10298000BF0A8DA29EA2AFA2B8A68FC18330A1F3C9
:102990000280F381E02D2FA938ADE20FF31F808173
:1029A00091819AAB89AB892B39F34F5F5F4F6F4FA2
:1029B0007F4F49875A876B877C879E01235E3F4FF5
:1029C000AE01475D5F4F64E070E0C8010E94EA0B12
:1029D0008111D0C18D819E81AF81B8850496A11DE2
:1029E000B11D8D839E83AF83B8874D8D5E8DBE01F3
:1029F0006B5D7F4F8F8D98A10E944D328BA19CA162
:102A0000009761F06D8D7E8DA5E2B0E0AC0FBD1F2B
:102A10006A0F7B1F49A15AA10E944D321CAA1BAA12
:102A2000412C512C3201E9A9FAA980819181A2811E
:102A3000B381481659066A067B060CF09DCFE9A9BA
:102A4000FAA9848195812BA93CA9280F391F38AB9D
:102A50002FA7D90112966D917C919E01235E3F4F65
:102A6000AE01475D5F4FC8010E94EA0B811182C130
:102A7000EFA5F8A982819381092E000CAA0BBB0B4C
:102A80004D815E816F817885840F951FA61FB71FCA
:102A90008D839E83AF83B887608171814D8D5E8DFC
:102AA0008F8D98A10E944D328BA19CA1009761F05F
:102AB000AFA5B8A96D917C912D8D3E8D620F731FCE
:102AC00049A15AA10E944D32BFEF4B1A5B0A6B0A13
:102AD0007B0AEBA9FCA93496FCABEBABA4CF312C61
:102AE000212C049709F0D1CD8EE0EDADFEAD8E9F87
:102AF00080018F9F100D112423962EAD3FAD23979B
:102B0000020F131FD80112964D915C911397411536
:102B1000510509F4BACD16968D919C919AA789A773
:102B200080E1FE013196DF011D928A95E9F7C98A9D
:102B3000DA8AEB8AFC8A2114310409F458C084E44F
:102B40008C9DF0018D9DF00D1124E45AFA4FDF01A8
:102B5000DE968D909D90AD90BC9082AD93ADA4AD6E
:102B6000B5AD88169906AA06BB0609F040C0F80163
:102B7000848195810084F185E02D349624E0DE0186
:102B8000559601900D922A95E1F72D893E89285F8F
:102B90003F4F3E8B2D8BD80118966D917C911997E4
:102BA000260F371F19963C932E93189718962D9140
:102BB0003C911997480F591F241B350B37FD06C050
:102BC000820F931F19969C938E93189784E48C9D83
:102BD000F0018D9DF00D1124E656FA4FB1E08B1AED
:102BE0009108A108B10880829182A282B3829E01DD
:102BF0002B5E3F4FAE01475D5F4F64E170E0C8015F
:102C00000E94EA0B8111B6C08CE090E0A0E0B0E039
:102C10008D839E83AF83B8879E01235E3F4FAE01B5
:102C2000475D5F4F64E070E0C8010E94EA0B8111CC
:102C3000A1C080E190E0A0E0B0E08D839E83AF83EF
:102C4000B8874D8D5E8DBE01655D7F4F8F8D98A1DC
:102C50000E944D328BA19CA1009761F06D8D7E8DFD
:102C6000EBE2F0E0EC0FFD1F6E0F7F1F49A15AA1B0
:102C70000E944D321DA21EA21FA218A62DAD3EAD70
:102C8000220F331F38AF2FAB24E42C9DC0012D9DA4
:102C9000900D1124845A9A4FAC014C5F5F4F5AAF8C
:102CA00049AFDC011896BCAFABAF8DA09EA0AFA022
:102CB000B8A449855A856B857C85E9ADFAAD8081DC
:102CC0009181A281B38188169906AA06BB060CF4ED
:102CD00043CE452B462B472B09F4D7CC8AE190E015
:102CE000A0E0B0E089839A83AB83BC832DAD3EAD79
:102CF000C901330FAA0BBB0B8D879E87AF87B88B9B
:102D00004D895E89BE016F5F7F4F8F89988D0E94CC
:102D10004D328B8D9C8D009761F06D897E8941E0ED
:102D200050E04C0F5D1F640F751F498D5A8D0E9436
:102D30004D3289A59AA5D80117969C938E93169724
:102D400011961C921E92232809F49FCC84E48C9D3A
:102D5000F0018D9DF00D1124E656FA4F808191818E
:102D6000A281B3810196A11DB11D80839183A283AD
:102D7000B3838BCC232809F088CC84E48C9DF001AC
:102D80008D9DF00D1124E45AFA4F81E090E095A753
:102D900084A785E090E0938B828B77CCCF92DF92F3
:102DA000EF92FF920F931F9324E4269FF001279F39
:102DB000F00D1124E45AFA4F228933892115310587
:102DC00009F452C06B017C0121303105B1F482A5B8
:102DD00093A59C012F5F3F4F33A722A7092E000C1C
:102DE000AA0BBB0B028D138D248D358D8017910797
:102DF000A207B307C9F5C7013CDB84E48C9DF00151
:102E00008D9DF00D1124E45AFA4F8289938903971E
:102E100059F582A593A59C012F5F3F4F33A722A7A9
:102E2000092E000CAA0BBB0B468D578D60A171A11A
:102E300084179507A607B707BCF086AD97AD93A793
:102E400082A784E090E0938B828B82AD93ADA4AD9A
:102E5000B5AD181619061A061B0634F4EE5BFF4FC3
:102E600081E090E0918380831F910F91FF90EF901C
:102E7000DF90CF90089524E4269FF001279FF00D66
:102E80001124E45AFA4F828993890497B1F482A5F8
:102E900093A5019693A782A7092E000CAA0BBB0B42
:102EA00046895789608D718D84179507A607B707E6
:102EB00021F485E090E0938B828B08952F923F92CE
:102EC0004F925F926F927F928F929F92AF92BF923A
:102ED000CF92DF92EF92FF920F931F93CF93DF93E6
:102EE000CDB7DEB72E970FB6F894DEBF0FBECDBFBD
:102EF000DC0149835A836B837C83290184E4849FAA
:102F0000F001859FF00D1124E45AFA4F228833888E
:102F1000C1010497029708F0D5C011961C921E9229
:102F200013961C921E92129715861486912C812C52
:102F300090E080E08F019F01205F3F4F38872F8313
:102F40003F013CE0630E711CBF01625F7F4F7A87D7
:102F500069873A96FC87EB87EF81F885208131817C
:102F6000F30140815181E985FA85A080B180841503
:102F700095050CF445C011965C934E9313963C93C3
:102F80002E9312971596BC92AE921497452BF9F496
:102F9000F5E02F163104D9F41092E405F801828D82
:102FA000938DA48DB58DAE014F5F5F4F64E070E0EF
:102FB0008F3F9F4FAF4FBF4F09F079C080E290E045
:102FC000F4D569817A818B819C81A201A7DA2E9642
:102FD0000FB6F894DEBF0FBECDBFDF91CF911F912A
:102FE0000F91FF90EF90DF90CF90BF90AF909F90A8
:102FF0008F907F906F905F904F903F902F900895AB
:10300000EB85FC8560817181FB01E80DF91DFE8770
:10301000ED8760817181672B89F5E084F18462819D
:1030200073817E836D83668177816A01E3E0CC0CD6
:10303000DD1CEA95E1F72C0D3D1D440F551F4A0D8F
:103040005B1DFA0191838083F301408151814F5FC1
:103050005F4F51834083F901F382E282ED85FE8563
:1030600073876287E616F70670F46E197F09F90117
:103070007183608315821482178216820196FEE0A6
:103080008F0E911C69CFED85FE85C480D5804D8162
:103090005E814C0D5D1D4E195F09F901518340831E
:1030A0006C197D0975836483D782C682E7CF8FE16F
:1030B00090E07BD5F80113A612A681E090E0938BF7
:1030C000828B85CF1586148611961C921E921396BC
:1030D0001C921E9212977BCFEF92FF920F931F9339
:1030E000CF93DF937C018B01EA013BD681111EC097
:1030F0008091EE039091EF03049711F5DF91CF914A
:103100001F910F91FF90EF90089528ED38EB45E067
:1031100050E060E070E0CB010E946821AE01B80190
:10312000C7010E947621C8010E9441218091E505D6
:103130009091E605892BE1F68881882331F3D8CF79
:1031400083E090E09093EF038093EE03D7CFCF938B
:10315000DF932091EE033091EF032430310541F0ED
:10316000EB010E947621CE01DF91CF910C94412199
:10317000DF91CF9108950C9474250C9469250C94DB
:1031800057250C9451210C94FB24089570E060E0C5
:1031900090E080E0C1C50895AF92BF92CF92DF92D8
:1031A000EF92FF920F931F93CF93DF931F921F9283
:1031B000CDB7DEB75C018B0169017A0190E080E058
:1031C000C114D104E104F10469F40F900F90DF9170
:1031D000CF911F910F91FF90EF90DF90CF90BF9014
:1031E000AF9008959C2D8D2DC114D10421E0E206ED
:1031F000F10410F09FEF8FEF9E012F5F3F4F492F9B
:10320000582FB801C5010E94FE258F3F9807E9F2AB
:1032100029813A81C21AD30AE108F108020F131F6B
:10322000CFCF2091E7053091E8058091E905909195
:10323000EA052817390789F08091EF059091F0058C
:1032400001969093F0058093EF0582E00E940D2D8A
:103250009093EA058093E90508958091EF05909198
:10326000F0050197EECF2091EB053091EC058091B0
:10327000ED059091EE052817390789F08091F10549
:103280009091F20501969093F2058093F10582E109
:103290000E940D2D9093EE058093ED050895809189
:1032A000F1059091F2050197EECF83E00E940D2D7C
:1032B0009093E8058093E7052091E9053091EA05B0
:1032C0008217930751F08091EF059091F0050196D8
:1032D0009093F0058093EF0508958091EF0590910C
:1032E000F0050197F5CF83E10E940D2D9093EC0539
:1032F0008093EB052091ED053091EE058217930741
:1033000051F08091F1059091F20501969093F205AC
:103310008093F10508958091F1059091F205019750
:10332000F5CFEF92FF920F931F93CF93DF937C0122
:103330008B01EA01F90120E030E040E85FE36081C1
:103340007181828193810E944227811115C0F7010A
:103350008081882321F01092F0051092EF05809172
:10336000EF059091F005F801918380838091F1053C
:103370009091F20599838883DF91CF911F910F91EE
:10338000FF90EF900895CF93DF93E90120E030E0C4
:1033900040E85FE3688179818A819B810E944227AE
:1033A0008823A1F162E082E00E94A42C62E083E025
:1033B0000E94A42C60E082E10E94A42C60E083E1E2
:1033C0000E94A42C41E050E061E179E180E00E949C
:1033D000912841E050E065E579E181E00E94912883
:1033E00041E050E063E379E185E00E94912841E00B
:1033F00050E063E779E184E00E94912880E090E06A
:10340000A0E8BFE388839983AA83BB83DF91CF9130
:10341000089540E05BE460E070E090E080E000C090
:103420008130910579F01CF4892B39F008958230B0
:10343000910561F0039771F0089526E088E296E027
:103440000C94FF2D26E085EC96E0FACF26E082E68C
:1034500097E0F6CF26E08FEF97E0F2CF1F920F9222
:103460000FB60F9211240BB60F922F933F934F93E9
:103470005F936F937F938F939F93AF93BF93EF93DC
:10348000FF9386E09FEF90932501809324010E9493
:103490003826FF91EF91BF91AF919F918F917F91CE
:1034A0006F915F914F913F912F910F900BBE0F90B5
:1034B0000FBE0F901F90189586E09FEF9093250107
:1034C00080932401A3E7B0E08C918E7F8C93E0E29F
:1034D000F1E080818C7F8083E1E2F1E08081877E72
:1034E000808380818360808380818B7F80838C91C7
:1034F00081608C93089581E008958F929F92AF929E
:10350000BF92CF92DF92EF92FF920F931F93CF93D0
:10351000DF935C017B018A01C1E0D0E0CE15DF05BD
:10352000CCF081E0F5018083B801C7010E949E259F
:10353000F5019283818390E080E0DF91CF911F912C
:103540000F91FF90EF90DF90CF90BF90AF909F9042
:103550008F9008956E018FEFC81AD80AFE01EE0F02
:10356000FF1FE00FF11F808091808114910469F0AA
:1035700069E974E0C4010E945D32892B41F4CC0FEB
:10358000DD1FC00FD11F19821882E601C7CF6CE979
:1035900074E0C4010E945D32892BB9F7EC14FD047C
:1035A000A1F36E01E2E0CE0ED11CCC0FDD1FC00FE7
:1035B000D11F198218821B821A82E7CF83EF95E010
:1035C000089580E008950F931F93CF93DF938B01AD
:1035D000BA01E901198218829801012E000C440BEE
:1035E000550BFC0181819281D7DD019641F0198351
:1035F000088380E0DF91CF911F910F91089581E0C2
:10360000F9CF0F931F93CF93DF931F921F92CDB7E4
:10361000DEB7FB018A01B9019E012F5F3F4FAF0169
:10362000FC01818192810E94B325019669F0898114
:103630009A81F8019183808380E00F900F90DF9151
:10364000CF911F910F91089581E0F7CFFC01808108
:1036500008950895089581E0FB01808380E0089536
:10366000089510921B060895FC01818192810C94AB
:103670009625CF93DF9300D000D000D01F92CDB716
:10368000DEB7B0E0A0E089839A83AB83BC83CB0133
:10369000770FAA0BBB0B8D839E83AF83B8879E01E8
:1036A000275F3F4FAE014F5F5F4F68E070E0809152
:1036B0000A0690910B0687DF811110C081E02985F1
:1036C0003A852830310509F480E02A960FB6F8943F
:1036D000DEBF0FBECDBFDF91CF91089581E0F5CF62
:1036E0000F931F93CF93DF931F921F92CDB7DEB737
:1036F0008B019E012F5F3F4FAC0180910A06909194
:103700000B0661DF81110EC081E029813A8120170B
:10371000310709F480E00F900F90DF91CF911F9156
:103720000F91089581E0F7CFCF93DF93EC011092D2
:103730000E0610920D0610921A0610921906AC0190
:1037400060E070E0CB010E948E12AE0161E070E09B
:1037500080E090E00E948E1280910A0690910B0604
:10376000DF91CF917DCF4F925F926F927F928F9238
:103770009F92AF92BF92CF92DF92EF92FF920F9300
:103780001F93CF93DF931F921F92CDB7DEB78C01AB
:103790007C0197FF03C087E0E80EF11C23E0F5945D
:1037A000E7942A95E1F7C80168E070E00E94BD3017
:1037B0006C010E5F1F4F80910806909109068017DB
:1037C0009107D4F48091060690910706009731F096
:1037D0000E94C4311092090610920806C8010E9486
:1037E00028319093070680930606892B09F482C03E
:1037F000109309060093080610E000E047C1412C31
:10380000512C3201B12CA12C9501215F394FAE0111
:103810004F5F5F4F61E070E080910A0690910B0668
:10382000F0DE811149C0EFEF4E1A5E0A6E0A7E0A81
:10383000F0E94F16FFE55F06F1E06F06710444F012
:103840006091190670911A068DEE90E012DFD7CFC5
:1038500089819A81A80EB91E8AE0A816B10409F0E0
:1038600043C049E050E070E060E08FE096E00E94E5
:103870002A266091190670911A06882391F1809189
:10388000170690E08617970781F4BC018EEE90E052
:10389000F0DE8091190690911A060196992790936F
:1038A0001A06809319060F5F1F4F0E151F050CF4A3
:1038B000A6CFCD2809F07CC090E080E00F900F905B
:1038C000DF91CF911F910F91FF90EF90DF90CF90FC
:1038D000BF90AF909F908F907F906F905F904F9030
:1038E00008958FEE90E0B2CFEAE0AE16B1040CF48A
:1038F0008BCFDBCF10E000E0D8CF0A30110531F5D7
:1039000049E050E070E060E08FE096E00E942A26F7
:103910006091190670911A068823A9F08091170604
:1039200090E08617970741F6BC018EEE90E0A1DE8D
:103930008091190690911A060196992790931A067C
:1039400080931906B9CF8FEE90E02BC00A30110595
:103950000CF0B2CF9801215F394FAE014F5F5F4F3E
:1039600061E070E080910A0690910B064ADE8111B9
:10397000A3CF89819A81080F191FFFEFCF1ADF0AA1
:10398000EF0AFF0A80E9C8168FE5D80681E0E8064D
:10399000F1040CF4B2CF6091190670911A068DEE05
:1039A00090E067DE10E000E0C12CD12C7601D2CF90
:1039B000C12CD12C760110E000E0CCCF412C512C51
:1039C0003201B12CA12C480193E0880C991C9A95E6
:1039D000E1F72091060630910706C501880D991D73
:1039E000280F391FAE014F5F5F4F61E070E080919B
:1039F0000A0690910B0605DE81115ECFEFEF4E1A9D
:103A00005E0A6E0A7E0A6091190670911A068DEEA2
:103A100090E0F0E94F16FFE55F06F1E06F067104F4
:103A20000CF043C089819A81A80EB91E8AE0A816BD
:103A3000B10409F041C049E050E0B40180910606AC
:103A4000909107060E942A266091190670911A0625
:103A5000882349F18091060690910706880E991EE9
:103A6000F401808590E08617970781F4BC018EEE03
:103A700090E0FFDD8091190690911A060196992732
:103A800090931A06809319060F5F1F4F0E151F059E
:103A90000CF494CFC114D10409F081C080910606C2
:103AA000909107060BCF8FEE90E0E3DD412C512C77
:103AB0003201B12CA12C8DCFFAE0AF16B1040CF479
:103AC00088CFE4CF8FEE90E0D4DDF12CE12C812C77
:103AD000912C54019701215F394FAE014F5F5F4F29
:103AE00061E070E080910A0690910B068ADD8111F9
:103AF000E3CE8FEF881A980AA80AB80A60911906CF
:103B000070911A068DEE90E0E0E98E16EFE59E06C4
:103B1000E1E0AE06B104C4F689819A81E80EF91E8F
:103B2000FAE0EF16F104A9F549E050E070E060E03A
:103B30008FE096E00E942A266091190670911A067D
:103B4000882309F4BFCF8091170690E08617970766
:103B500009F0A4CFBC018EEE90E08BDD83E0000F76
:103B6000111F8A95E1F78091060690910706A6013C
:103B70006FE076E0800F911F0E944D328091190610
:103B800090911A060196992790931A068093190628
:103B900085CF8AE0E816F1040CF49CCF7FCF812C0E
:103BA000912C5401F12CE12C95CFCF92DF92EF9222
:103BB000FF920F931F93CF93DF931F92CDB7DEB782
:103BC0006C017B018A01452B39F0AB0170E060E0AC
:103BD000C8010E9426268983B701C6014ADD8111EA
:103BE0000DC00115110551F0B701C80179DD811132
:103BF00005C061E070E0CE01019672DD0F90DF91AB
:103C0000CF911F910F91FF90EF90DF90CF9008958B
:103C1000CF92DF92EF92FF92CF93DF9300D000D04C
:103C20001F921F92CDB7DEB76B01F12CE12CC98238
:103C3000DA82EB82FC822D833E834F835887AE016C
:103C40004F5F5F4F68E070E0B0DF28960FB6F894E2
:103C5000DEBF0FBECDBFDF91CF91FF90EF90DF9021
:103C6000CF9008958F929F92AF92BF92CF92DF92A2
:103C7000EF92FF920F931F93CF93DF937C01EB01A1
:103C8000CA01690170DD0097B1F42FEF3FEFA90180
:103C900061E070E0C701BCDFC1E08C2FDF91CF9104
:103CA0001F910F91FF90EF90DF90CF90BF90AF905A
:103CB0009F908F900895FC0181909190A190B19078
:103CC000BF01FCE1EF16F10479F4A5019401CE01E6
:103CD0000E94F410C82FA5019401882369F061E0C7
:103CE00070E0C70195DFD9CF95018401AB01B60122
:103CF000CE010E94F70EEECF70E060E0C701DF91C9
:103D0000CF911F910F91FF90EF90DF90CF90BF90D8
:103D1000AF909F908F907CCF0F931F93CF93DF93A3
:103D2000EC018B014BDC90930B0680930A06009705
:103D3000A9F0A801BE01E1DBEC01892B49F08091DB
:103D40000A0690910B0685DC10920B0610920A066B
:103D5000CE01DF91CF911F910F910895C8EAD4E071
:103D6000EECF80910A0690910B0670CC2F923F9275
:103D70004F925F926F927F928F929F92AF92BF927B
:103D8000CF92DF92EF92FF920F931F93CF93DF9327
:103D9000CDB7DEB769970FB6F894DEBF0FBECDBFC3
:103DA00020910E062223F1F05B8B4A8B6E877F8772
:103DB000888B998B9A01AB01BC01CE0101967C01E5
:103DC0007DD810E048E0242E312CE88EF98E8981D0
:103DD0009A81181619060CF451C2112319F08A8918
:103DE0009B89A2DC69960FB6F894DEBF0FBECDBFEB
:103DF000DF91CF911F910F91FF90EF90DF90CF90C7
:103E0000BF90AF909F908F907F906F905F904F90FA
:103E10003F902F900895EB81FC818C859D8533E048
:103E2000880F991F3A95E1F7E80FF91F808191817A
:103E30009093050680930406248135814281538145
:103E40005093030640930206468157815093010622
:103E500040930006820F931F9C01990F440B550B52
:103E60002C8B3D8B4E8B5F8B812C912C54018C893C
:103E70009D89AE89BF8988169906AA06BB0640F1BE
:103E80008C859D85880F991FED81FE81E80FF91FB4
:103E90004E855F8568897989808191810E94C012F1
:103EA000AC85BD851196BD87AC8789819A81EC85EB
:103EB000FD85E817F9070CF4AECF2A893B894E85BA
:103EC0005F8568897989888D998D0E945E177FCF7B
:103ED0001F826091040670910506CB01072E000C2D
:103EE000AA0BBB0B84017501640134E0C30ED11C25
:103EF000E11CF11CC816D906EA06FB0608F0B3C09F
:103F00002091020630910306A4014C5F5F4F240FFD
:103F1000351FF901C080D12CF12CE12C2401350191
:103F2000F5E04F0E511C611C711C481659066A06BB
:103F30007B0608F0A3C02091020630910306F80129
:103F40003596E20FF31F2081D22A2401350126E0A5
:103F5000420E511C611C711C481659066A067B06EC
:103F600008F097C02091020630910306F8013696BA
:103F7000E20FF31F2081E22A2401350137E0430ECE
:103F8000511C611C711C481659066A067B0608F014
:103F90008BC02091020630910306F8013796E20F9C
:103FA000F31F208126013701722A7501640148E060
:103FB000C40ED11CE11CF11C8C159D05AE05BF057E
:103FC00008F41DC188169906AA06BB0608F077C03A
:103FD0008091020690910306800F911F68E070E0C7
:103FE0007FDBE0910406F09105069F010F2E000C87
:103FF000440B550BD301C2018C0D9D1DAE1DBF1D81
:10400000281739074A075B0708F478C0C216D30699
:10401000E406F50608F05DC0809102069091030663
:104020009801285F3F4F820F931FB20159DB8091A7
:10403000040690910506AC01092E000C660B770B67
:10404000C416D506E606F70608F04DC0085F1F4FF8
:104050008091020690910306800F911FA20170E0EB
:1040600060E0F4D5A7C044E050E0461B570B480D74
:10407000591D209100063091010649CFE5E0F0E09E
:10408000E61BF70BE00FF11F2091000630910106AF
:1040900058CFE6E0F0E0E61BF70BE00FF11F2091B0
:1040A00000063091010664CFE7E0F0E0E61BF70B75
:1040B000E00FF11F209100063091010670CF9801AA
:1040C000261B370B8091000690910106820F931FEB
:1040D00085CF91012E1B3F0B200F311F80910006D1
:1040E00090910106A0CFD101A81BB90BCD01080FFB
:1040F000191F8091000690910106AECFBF01685054
:104100007109601B710BC216D306E406F50608F0B0
:1041100062C080910206909103069801285F3F4F8C
:10412000820F931FDDDA8091040690910506B1019C
:10413000681B790B600F711F640D751D809100065F
:1041400090910106CDDA8091040690910506AC01AC
:1041500048505109FA01E01BF10BAC01092E000C8B
:10416000660B770BC416D506E606F70608F03DC0C9
:1041700080910206909103069801285F3F4F820FBD
:10418000931FAF0170E060E061D58F83209104063A
:1041900030910506F101E21BF30B9F01200F311F47
:1041A000240D351D50E040E0682F8091000690916D
:1041B000010638D58F8361E070E0CE01079690DA72
:1041C000182F38E0430E511C611C711C840C951C87
:1041D000A61CB71C4CCE91012E1B3F0B200F311F8C
:1041E00080910006909101069BCF9101281B390B0D
:1041F000200F311F8091000690910106C0CF8816D4
:104200009906AA06BB0668F5601B710B8091020631
:1042100090910306800F911F63DA809104069091BC
:104220000506B101681B790B600F711F640D751DC8
:10423000809100069091010653DA809104069091D6
:104240000506AC01092E000C660B770BC416D506CB
:10425000E606F70608F4FACE9101281B390BC901CE
:1042600046CFC801861B970B2091000630910106AE
:10427000B201685F7F4F820F931FDECF1D861C86C1
:1042800014CECF93DF93EC01AC0160E070E0CB0182
:104290006DDDAE0161E070E080E090E0DF91CF91F4
:1042A00065CDCF9380910A0690910B068AD9C82FCD
:1042B00081110BC060E070E0CB010E94B90D61E09C
:1042C00070E080E090E00E94B90D8C2FCF910895AE
:1042D0000F931F9389019A01AB01BC0180910A06DB
:1042E00090910B06B7D91F910F9108954F925F924D
:1042F0006F927F928F929F92AF92BF92CF92DF92F6
:10430000EF92FF920F931F93CF93DF93CDB7DEB75A
:1043100063970FB6F894DEBF0FBECDBF6C018B0163
:104320005A0180910E06882309F43DC080910E0643
:10433000882309F442C080910D061A8219828823CD
:1043400009F4C0C0F0E94F2EFFE55F2E66246394A8
:10435000712CF12CE12C97012A503A4FAE014F5F9E
:104360005F4F61E070E080910A0690910B0649D999
:10437000982E811169C089819A81E80EF91EE11495
:10438000F10409F461C081E0481A5108610871081C
:1043900059F56091190670911A068DEE90E069D971
:1043A0001A82198251C06EE076E080910A069091DF
:1043B0000B0651D9882309F4B9CF63960FB6F89448
:1043C000DEBF0FBECDBFDF91CF911F910F91FF9048
:1043D000EF90DF90CF90BF90AF909F908F907F90A5
:1043E0006F905F904F900895AAE0EA16F10409F0EB
:1043F00063C049E050E070E060E086EF95E02AD4C9
:104400006091190670911A06882309F452C08091B0
:10441000FE0590E08617970719F6BC018EEE90E036
:1044200028D988E0E6EFF5E0DE01199601900D92BB
:104430008A95E1F78091190690911A0601969927BD
:1044400090931A068093190681E029813A81121609
:1044500013060CF080E09110CAC2882309F4ADCF96
:1044600080910D06811104C019861A861B861C8650
:1044700089859A85AB85BC8580319105A105B105FB
:1044800008F09BCFFC018827E75BFD4D8F4F0C9414
:10449000F230C9228824F724DD21CD230024B9225B
:1044A000C1229D22DC24CB24D824DD21DD21DD2185
:1044B00088228FEE90E073CFBAE0EB16F1040CF493
:1044C0004ACFC2CFF12CE12CE8E06E2E712C29E00E
:1044D00030E02C0F3D1F2E0D3F1DAE014F5F5F4F93
:1044E000B3016E197F0980910A0690910B0689D855
:1044F000982E29813A81811109C0E20EF31EE11440
:10450000F10421F0E8E0EE16F1040CF381E09FCF16
:10451000D6011696ED91FC9180819181A281B381A3
:1045200089839A83AB83BC83AE014F5F5F4F64E0A6
:1045300070E085E190E039DB40CF8D859E8513D911
:104540002FEF3FEFA90161E070E0009771F0FC01EF
:10455000C080D180E280F380A801C701B6010E942B
:104560003912A701960170E060E08DE190E050DB28
:1045700024CF4D855E859801B6018BE190E072DB1A
:104580001CCF4D855E852FEF3FEFB6018CE190E0AB
:10459000F6CFD6011496ED91FC9100811181F801BE
:1045A00082809380A080B18070E1472E512C612CD5
:1045B000712C49825A826B827C8288E090E0A0E074
:1045C000B0E08D839E83AF83B8879E012F5E3F4FFF
:1045D000AE014F5F5F4F68E070E080910A069091F6
:1045E0000B060E94E31A8823D9F010E000E0C8010E
:1045F00063960FB6F894DEBF0FBECDBFDF91CF91AB
:104600001F910F91FF90EF90DF90CF90BF90AF90F0
:104610009F908F907F906F905F904F900C94C431DB
:1046200089899A89089709F7D801ED90FC90B8E03C
:10463000EB0EF11CEE0CFF1CEE0CFF1CC7010E94E0
:1046400028318C01892B89F249825A826B827C82C3
:10465000C7010F2C000CAA0BBB0B8D839E83AF836D
:10466000B8879E012F5E3F4FAE014F5F5F4F68E0FE
:1046700070E080910A0690910B060E94E31A811166
:10468000B6CF89899A89089709F0B1CFD6011296D9
:10469000ED91FC914081518162817381D8014D93EC
:1046A0005D936D937C9313974481558166817781E7
:1046B00014964D935D936D937C9317974085518528
:1046C0006285738518964D935D936D937C931B97CC
:1046D00084859585A685B785F80184879587A68703
:1046E000B787108A118A128A138A84E090E0A0E0CA
:1046F000B0E0848B958BA68BB78B8091EE03909165
:10470000EF03B0E0A0E0808F918FA28FB38FC5013F
:104710000B2C000CAA0BBB0B848F958FA68FB78F29
:10472000F401D801909690E080E08A159B055CF139
:104730009E012F5E3F4FA801B70180910A0690911C
:104740000B060E94E31A811152CF89899A89E816D3
:10475000F90609F04CCFA70170E060E0C80176D2FD
:104760008B8B9E012F5E3F4FAE014D5E5F4F61E030
:1047700070E080910A0690910B060E94E31A81E096
:1047800080930D0634CF4191519170E060E04D93DC
:104790005D936D937D930196C8CF8D859E85AF8582
:1047A000B8890097A105B10521F481E080930C063A
:1047B00004CE0E94B31B009781F481E090E0A0E05A
:1047C000B0E089839A83AB83BC83AE014F5F5F4FB8
:1047D00064E070E082E190E0AECEBC01C6010E94D0
:1047E000130D19821A821B821C82AE014F5F5F4F2C
:1047F00064E070E082E190E0D8D98823B1F2DDCDA9
:10480000D6011496ED91FC910190F081E02DE084A9
:10481000F1848FEF8983E114F10409F472C0D701A8
:104820006D907C90C280D38070E060E090E080E08A
:104830008615970594F083E190E00E94391B10E003
:1048400000E08111BACD061517055CF161E070E05A
:10485000CE0101960E94701BB0CD9C0143E0220F57
:10486000331F4A95E1F7F701A281B381A20FB31F6D
:104870001296ED91FC911397EE0FFF1FEC0DFD1DAD
:104880000190F081E02D16964D915C91E49F90018E
:10489000E59F300DF49F300D1124620F731F0196B8
:1048A000C7CFD7011296ED91FC91C80123E0880F84
:1048B000991F2A95E1F7E80FF91FA080B180A28126
:1048C000B381AA0FBB1FAC0DBD1D2D913C918681FC
:1048D0009781289F4001299F900C389F900C1124AC
:1048E000B401C5010E94701B582E940150E040E0B5
:1048F0006981C50197D1898351105FCD0F5F1F4F2B
:10490000A2CF70E060E083E190E00E94391B55CDBA
:1049100050E040E070E060E081E190E046D9811134
:104920004CCD60E070E0CB010E94DE0E8091E4058A
:10493000882329F0A80160E070E0CB0117DAA80114
:1049400060E070E0CB010E94E50D61E070E080E086
:1049500090E00E94DE0E8091E405882331F0A801EA
:1049600061E070E080E090E001DAA80161E070E0D1
:1049700080E090E00E94E50D10920E0610920D0668
:1049800010921A061092190680910A0690910B0651
:104990000E94311B12CD81E090E09093E605809358
:1049A000E50550E040E070E060E086E190E0C3CDD6
:1049B00081E0F501808301CD8D859E850E94B31B2A
:1049C0002FEF3FEFA90161E070E0009769F0DC0193
:1049D000CD90DD90ED90FC90C701B6010E94991238
:1049E000A701960170E060E08EE190E0C0CDC801C3
:1049F0000E94941BE2CCCF92DF92EF92FF92CF9372
:104A0000DF93EC01C12CD12C7601C701B6010E94C5
:104A1000DE0EAE01C701B601A9D9AE01C701B601CC
:104A20000E94E50D8091060690910706009731F0EF
:104A30000E94C4311092070610920606CA94CD282F
:104A4000CE28CF2879F580910D06F12C882351F0DE
:104A500050E040E070E060E084E190E0A6D8F82EFD
:104A600010920D0680910E06882341F010920E06DA
:104A700081E090E09093EF038093EE0380910A062B
:104A800090910B060E94341B80910A0690910B06B0
:104A90000E94291B8F2DDF91CF91FF90EF90DF9027
:104AA000CF900895C12CD12C7601C394AECFCF9373
:104AB000DF93EC01AC0160E070E0CB010E94CE1608
:104AC000AE0161E070E080E090E0DF91CF910C9466
:104AD000CE1660E070E0CB010E943B1761E070E011
:104AE00080E090E00C943B17CF92DF92EF92FF9220
:104AF0000F931F93CF93DF93EC016A017B0100E0DA
:104B000010E098010E94E91201E010E020E030E09E
:104B1000B701A601CE010E94E912DF91CF911F914A
:104B20000F91FF90EF90DF90CF90089568EE73E0C3
:104B300080E090E037D590E080E0089526E040E006
:104B400050E16EE070E088E296E00E94FF2D88E27E
:104B500096E08BD7892B21F088E296E0A0D7F7CF9B
:104B600090E080E00895CF92DF92EF92FF920F9352
:104B70001F93CF93DF936B017A01E90119821882A9
:104B800088E296E072D7892B71F18601CC24C39418
:104B900085E6D82E80911B06811111C088E296E02F
:104BA0007ED785369105B1F7C0921B06F801D192E8
:104BB0008F0188819981019699838883EBCF8881C1
:104BC00099818E159F0578F488E296E068D78F3F2B
:104BD0009807A9F3F80181938F0188819981019643
:104BE00099838883ECCF90E080E0DF91CF911F9193
:104BF0000F91FF90EF90DF90CF9008950F931F9348
:104C0000CF93DF93EA01890188E296E00E948F301A
:104C1000F801D183C08390E080E0DF91CF911F91B4
:104C20000F910895DC01A40FB51F420F531F9D0182
:104C3000281B390B2417350710F0862F0895ED91A6
:104C4000E627F0E0EC51FF4F6491F1CF9A01AB0100
:104C50006FEFE8CFCF93FC01E60FF71FE40FF51FCE
:104C6000C081F4DF91E0C81390E0892FCF910895BF
:104C700080911C0691E0980F90931C06882349F0C0
:104C800021E030E030931E0620931D0680931C0621
:104C9000089578940E943704F89480911C068150FE
:104CA00080931C060C94BD18FF920F931F93CF9313
:104CB000DF931F92CDB7DEB710923B0910923A09ED
:104CC000A7D40E94091A0091150410911604F80146
:104CD0001182108270E060E090E080E00E94C618CF
:104CE0000E946C0AF8947894C80186960E94C518B0
:104CF00081E090E00E94C1181982AE014F5F5F4FC2
:104D000061E070E0F801828193810E946C188981D2
:104D1000882319F081E0F80182A70E94CB18F8944B
:104D20000E945C1AF80180819181892B19F481E03D
:104D300092A5911180E080933A0978947894FF24A9
:104D4000F39480913A09811110C00E94A80B81E070
:104D500090E00E94C318F89490E080E00F90DF91FB
:104D6000CF911F910F91FF9008951982AE014F5F6F
:104D70005F4F61E070E0F801828193810E94A71883
:104D80008981882311F0F801F2A6F80180819181D0
:104D9000892B89F481E092A5911101C080E0809374
:104DA0003B0990913B0981E0911180E080933A09A1
:104DB0000E947B1AC6CF81E0F2CF5058BB27AA27AA
:104DC0000ED00DC1FED030F003D120F031F49F3F62
:104DD00011F41EF4F3C00EF4E095E7FBE9C0E92FEF
:104DE0000FD180F3BA17620773078407950718F08D
:104DF00071F49EF527C10EF4E0950B2EBA2FA02D6D
:104E00000B01B90190010C01CA01A0011124FF2777
:104E1000591B99F0593F50F4503E68F11A16F04072
:104E2000A22F232F342F4427585FF3CF4695379571
:104E30002795A795F0405395C9F77EF41F16BA0B36
:104E4000620B730B840BBAF09150A1F0FF0FBB1FE4
:104E5000661F771F881FC2F70EC0BA0F621F731F2D
:104E6000841F48F4879577956795B795F7959E3F8A
:104E700008F0B3CF9395880F08F09927EE0F979518
:104E80008795089571D008F481E0089504D068945E
:104E9000B111D9C00895BCD088F09F5790F0B92FB8
:104EA0009927B751A0F0D1F0660F771F881F991F7F
:104EB0001AF0BA95C9F712C0B13081F0C3D0B1E091
:104EC0000895C0C0672F782F8827B85F39F0B93FA1
:104ED000CCF3869577956795B395D9F73EF4909581
:104EE0008095709561957F4F8F4F9F4F0895E894FF
:104EF00009C097FB3EF490958095709561957F4F22
:104F00008F4F9F4F9923A9F0F92F96E9BB279395CF
:104F1000F695879577956795B795F111F8CFFAF4DF
:104F2000BB0F11F460FF1BC06F5F7F4F8F4F9F4F10
:104F300016C0882311F096E911C0772321F09EE86E
:104F4000872F762F05C0662371F096E8862F70E0D4
:104F500060E02AF09A95660F771F881FDAF7880FAE
:104F60009695879597F90895990F0008550FAA0B04
:104F7000E0E8FEEF16161706E807F907C0F012166C
:104F80001306E407F50798F0621B730B840B950B6F
:104F900039F40A2661F0232B242B252B21F40895C4
:104FA0000A2609F4A140A6958FEF811D811D089561
:104FB00097F99F6780E870E060E008959FEF80ECCC
:104FC000089500240A94161617061806090608956F
:104FD00000240A9412161306140605060895092ED5
:104FE0000394000C11F4882352F0BB0F40F4BF2B44
:104FF00011F460FF04C06F5F7F4F8F4F9F4F089584
:1050000057FD9058440F551F59F05F3F71F0479579
:10501000880F97FB991F61F09F3F79F0879508955E
:10502000121613061406551FF2CF4695F1DF08C07D
:10503000161617061806991FF1CF8695710561059A
:1050400008940895E894BB2766277727CB0197F942
:1050500008958ADF08F48FEF08950BD0C0CFB1DF39
:1050600028F0B6DF18F0952309F0A2CFA7CF1124BE
:10507000EACFC6DFA0F3959FD1F3950F50E0551FFF
:10508000629FF001729FBB27F00DB11D639FAA279D
:10509000F00DB11DAA1F649F6627B00DA11D661FEC
:1050A000829F2227B00DA11D621F739FB00DA11D0D
:1050B000621F839FA00D611D221F749F3327A00DC7
:1050C000611D231F849F600D211D822F762F6A2F63
:1050D00011249F5750408AF0E1F088234AF0EE0FE8
:1050E000FF1FBB1F661F771F881F91505040A9F7F5
:1050F0009E3F510570F05CCFA6CF5F3FECF3983E2A
:10510000DCF3869577956795B795F795E7959F5F5B
:10511000C1F7FE2B880F911D9695879597F90895F5
:105120000895883008F076C0E82FF0E0EE0FFF1FFA
:10513000E051FC4F718360838150873008F03DC09F
:10514000E82FF0E08827E855F74D8F4F0C94F230A8
:10515000E528AF28B728C328D028F128FE28809159
:1051600069008C7F482B40936900E89A08958091EC
:105170006900837F440F551F440F551F482B4093F0
:105180006900E99A0895809169008F7C74E0440F6A
:10519000551F7A95E1F7482B40936900EA9A0895E4
:1051A000809169008F7366E0440F551F6A95E1F79F
:1051B000482B40936900EB9A089580916A008C7F98
:1051C000482B40936A00EC9A089580916A00837F8F
:1051D000440F551F440F551F482B40936A00ED9A0A
:1051E000089580916A008F7C24E0440F551F2A9512
:1051F000E1F7482B40936A00EE9A089580916A0087
:105200008F7396E0440F551F9A95E1F7482B409312
:105210006A00EF9A08951F920F920FB60F92112411
:105220000BB60F922F933F934F935F936F937F93A0
:105230008F939F93AF93BF93EF93FF93E091F4030A
:10524000F091F5031995FF91EF91BF91AF919F9167
:105250008F917F916F915F914F913F912F910F901F
:105260000BBE0F900FBE0F901F9018951F920F92BC
:105270000FB60F9211240BB60F922F933F934F93BB
:105280005F936F937F938F939F93AF93BF93EF93AE
:10529000FF93E091F603F091F7031995FF91EF91D9
:1052A000BF91AF919F918F917F916F915F914F913E
:1052B0003F912F910F900BBE0F900FBE0F901F903C
:1052C00018951F920F920FB60F9211240BB60F92E2
:1052D0002F933F934F935F936F937F938F939F93FE
:1052E000AF93BF93EF93FF93E091F803F091F9032D
:1052F0001995FF91EF91BF91AF919F918F917F9100
:105300006F915F914F913F912F910F900BBE0F9036
:105310000FBE0F901F9018951F920F920FB60F920D
:1053200011240BB60F922F933F934F935F936F937C
:105330007F938F939F93AF93BF93EF93FF93E091EE
:10534000FA03F091FB031995FF91EF91BF91AF9193
:105350009F918F917F916F915F914F913F912F918D
:105360000F900BBE0F900FBE0F901F9018951F92BD
:105370000F920FB60F9211240BB60F922F933F93FB
:105380004F935F936F937F938F939F93AF93BF934D
:10539000EF93FF93E091F003F091F1031995FF91E2
:1053A000EF91BF91AF919F918F917F916F915F919D
:1053B0004F913F912F910F900BBE0F900FBE0F900A
:1053C0001F9018951F920F920FB60F9211240BB6D3
:1053D0000F922F933F934F935F936F937F938F938E
:1053E0009F93AF93BF93EF93FF93E091F203F091FC
:1053F000F3031995FF91EF91BF91AF919F918F9119
:105400007F916F915F914F913F912F910F900BBEC4
:105410000F900FBE0F901F9018951F920F920FB60E
:105420000F9211240BB60F922F933F934F935F93DC
:105430006F937F938F939F93AF93BF93EF93FF935C
:10544000E091FC03F091FD031995FF91EF91BF915D
:10545000AF919F918F917F916F915F914F913F910C
:105460002F910F900BBE0F900FBE0F901F901895AD
:105470001F920F920FB60F9211240BB60F922F931B
:105480003F934F935F936F937F938F939F93AF93CC
:10549000BF93EF93FF93E091FE03F091FF03199503
:1054A000FF91EF91BF91AF919F918F917F916F91FC
:1054B0005F914F913F912F910F900BBE0F900FBEB8
:1054C0000F901F9018951F920F920FB60F921124F4
:1054D0002F933F938F939F93AF93BF938091200619
:1054E00090912106A0912206B091230630911F06CB
:1054F00023E0230F2D3758F50196A11DB11D2093F0
:105500001F068093200690932106A0932206B09355
:1055100023068091240690912506A0912606B0913D
:1055200027060196A11DB11D8093240690932506A0
:10553000A0932606B0932706BF91AF919F918F91BC
:105540003F912F910F900FBE0F901F90189526E856
:10555000230F0296A11DB11DD2CF3FB7F8948091C1
:10556000240690912506A0912606B091270626B51F
:10557000A89B05C02F3F19F00196A11DB11D3FBF8B
:10558000BA2FA92F982F8827BC01CD01620F711D5A
:10559000811D911D42E0660F771F881F991F4A9554
:1055A000D1F708958F929F92AF92BF92CF92DF92E0
:1055B000EF92FF926B017C01D0DF4B015C01C114C3
:1055C000D104E104F104D9F0D7D5C7DF681979090E
:1055D0008A099B09683E73408105910580F321E0AB
:1055E000C21AD108E108F10888EE880E83E0981EFF
:1055F000A11CB11CC114D104E104F10431F7FF90E6
:10560000EF90DF90CF90BF90AF909F908F900895D4
:10561000789484B5826084BD84B5816084BD85B58D
:10562000826085BD85B5816085BDEEE6F0E0808154
:1056300081608083E1E8F0E0108280818260808375
:10564000808181608083E0E8F0E0808181608083F8
:10565000E1EBF0E0808184608083E0EBF0E080812A
:1056600081608083E1E9F0E08081826080838081D5
:1056700081608083E0E9F0E0808181608083E1EAFD
:10568000F0E0808182608083808181608083E0EAB5
:10569000F0E0808181608083E1E2F1E080818260DE
:1056A0008083808181608083E0E2F1E0808181609D
:1056B0008083EAE7F0E0808184608083808182607B
:1056C0008083808181608083808180688083109264
:1056D000C10008951F93CF93DF93182FEB0161E072
:1056E00033D1209731F460E0812FDF91CF911F916A
:1056F00067C1CF3FD10511F461E0F6CFE12FF0E0B3
:10570000EC51FE4FE491E150E23108F0B2C0F0E01C
:105710008827E357F44D8F4F65C59F2BA72BAC2BE4
:10572000B62BC02B392CCA2BD22BDA2BE42BEE2B29
:10573000F82B072C112C392C1B2C252C2F2C84B545
:10574000806884BDC7BDDF91CF911F91089584B556
:10575000806284BDC8BDF7CF80918000806880934F
:105760008000D0938900C0938800EDCF80918000A5
:10577000806280938000D0938B00C0938A00E3CF37
:1057800080918000886080938000D0938D00C093CA
:105790008C00D9CF8091B00080688093B000C09316
:1057A000B300D1CF8091B00080628093B000C093ED
:1057B000B400C9CF80919000806880939000D0930E
:1057C0009900C0939800BFCF809190008062809331
:1057D0009000D0939B00C0939A00B5CF8091900029
:1057E000886080939000D0939D00C0939C00ABCFC5
:1057F0008091A00080688093A0008091A0008F7BA2
:105800008093A000D093A900C093A8009CCF809162
:10581000A00080628093A000D093AB00C093AA0048
:1058200092CF8091A00088608093A000D093AD00BB
:10583000C093AC0088CF80912001806880932001C4
:10584000D0932901C09328017ECF809120018062EE
:1058500080932001D0932B01C0932A0174CF8091B3
:105860002001886080932001D0932D01C0932C01EA
:105870006ACFC038D1050CF03FCF35CF815082318F
:1058800008F059C0E82FF0E08827E75BF34D8F4F11
:10589000A9C4692C6D2C5B2C612C652C9B2C702C65
:1058A000762C7A2C802C842C882C8E2C922C9B2C61
:1058B000962C9C2CA02C809180008F778093800068
:1058C0000895809180008F7DF9CF80918000877F3F
:1058D000F5CF84B58F7784BD089584B58F7DFBCFD8
:1058E0008091B0008F778093B00008958091B000D0
:1058F0008F7DF9CF809190008F77809390000895ED
:10590000809190008F7DF9CF80919000877FF5CFB7
:105910008091A0008F778093A00008958091A000CF
:105920008F7DF9CF8091A000877FF5CF80912001F6
:105930008F77809320010895809120018F7DF9CF8A
:1059400080912001877FF5CFCF93DF9390E0FC011A
:10595000E65DFD4F249180599D4FFC018491882381
:10596000C9F090E0880F991FFC01E651FD4FA59109
:10597000B491FC01E053FD4FC591D49161110DC06C
:105980009FB7F8948C91209582238C93888128234B
:1059900028839FBFDF91CF910895623051F49FB764
:1059A000F8943C91822F809583238C93E8812E2B51
:1059B000EFCF8FB7F894EC912E2B2C938FBFEACFBB
:1059C0001F93CF93DF93282F30E0F901EC51FE4F66
:1059D0008491F901E65DFD4FD491F901E059FD4F45
:1059E000C491CC23A1F0162F811148DFEC2FF0E0F9
:1059F000EE0FFF1FE053FD4FA591B4918FB7F894C0
:105A0000EC91111108C0D095DE23DC938FBFDF919C
:105A1000CF911F910895DE2BF8CFCF93DF93282FDE
:105A200030E0F901EC51FE4F8491F901E65DFD4F44
:105A3000D491F901E059FD4FC491CC2399F0811123
:105A40001DDFEC2FF0E0EE0FFF1FEA54FD4FA59194
:105A5000B491EC91ED2381E090E009F480E0DF91D6
:105A6000CF91089580E090E0FACFFC01918D228DD6
:105A7000892F90E0805C9F4F821B91098F7399273B
:105A80000895FC01918D828D981731F0828DE80F79
:105A9000F11D858D90E008958FEF9FEF0895FC0133
:105AA000918D828D981761F0A28DAE0FBF2FB11D21
:105AB0005D968C91928D9F5F9F73928F90E0089579
:105AC0008FEF9FEF0895FC01538D448D252F30E01B
:105AD000842F90E0821B930B541710F0CF960895FB
