:1000000085C100000C9438290C9463290C948E2926
:100010000C94B9290C94E4290C940F2A0C943A2AD4
:100020000C94652AA4C10000A2C10000A0C1000078
:100030009EC100009CC100009AC1000098C1000050
:1000400096C1000094C1000092C1000090C1000060
:100050008EC100008CC100008AC100000C94902A5F
:1000600086C100000C948C2E0C94C22E80C100001E
:100070007EC100007CC100007AC1000078C1000090
:1000800076C1000074C1000072C1000070C10000A0
:100090000C94182F0C944E2F6AC1000068C1000008
:1000A00066C1000064C1000062C1000060C10000C0
:1000B0005EC100005CC100005AC1000058C10000D0
:1000C00056C1000054C100000C945B1A0C94A42F7C
:1000D0000C94DA2F4CC100000C9430300C94663034
:1000E00046C10000001D3A2774694E53E8F5D2CF8F
:1000F0009C81A6BBCDD0F7EAB9A4839E25381F0208
:10010000514C6B76879ABDA0F3EEC9D46F725548F7
:100110001B06213C4A57706D3E230419A2BF9885E7
:10012000D6CBECF1130E2934677A5D40FBE6C1DCD7
:100130008F92B5A8DEC3E4F9AAB7908D362B0C11C7
:10014000425F78659489AEB3E0FDDAC77C61465BB7
:100150000815322F5944637E2D30170AB1AC8B96A7
:10016000C5D8FFE2263B1C01524F6875CED3F4E997
:10017000BAA7809DEBF6D1CC9F82A5B8031E392487
:10018000776A4D50A1BC9B86D5C8EFF24954736E77
:100190003D20071A6C71564B1805223F8499BEA367
:1001A000F0EDCAD735280F12415C7B66DDC0E7FA57
:1001B000A9B4938EF8E5C2DF8C91B6AB100D2A3747
:1001C00064795E43B2AF8895C6DBFCE15A47607D37
:1001D0002E3314097F6245580B16312C978AADB027
:1001E000E3FED9C400000A0B02090C0D0E08070338
:1001F00004010000000000000000000000000000FA
:1002000000000000000000000000000000000000EE
:1002100012111000000000000000000000000000AB
:100220000000000000000000000001021020200873
:100230000810204010204080020102010804020141
:1002400001020408102040808040201008040201B0
:100250008004020180402010080402010804020109
:100260000102040810204080010204081020408090
:1002700005050505070508080808020202020A0A22
:100280000808040404040101010101010101030340
:10029000030303030303040707070C0C0C0C0C0CEB
:1002A0000C0C0202020206060606060606060B0BE8
:1002B0000B0B0B0B0B0B000020002300260029006A
:1002C0002C002F003200000100000301060109018B
:1002D00000002200250028002B002E0031003400F1
:1002E00002010000050108010B01000021002400AB
:1002F00027002A002D003000330001010000040116
:1003000007010A01EB2E772F03308F3011241FBE17
:10031000CFEFD1E2DEBFCDBF00E00CBF14E0A0E024
:10032000B2E0EAE2F5E600E00BBF02C007900D92F2
:10033000A43EB107D9F729E0A4EEB4E001C01D92B4
:10034000A233B207E1F711E0C6E8D1E000E006C051
:1003500021970109802FFE010E941F31C238D10769
:1003600080E00807A9F70E9481260C94933248CEBA
:10037000611102C00C94D12C6130E1F362E0FACF3C
:10038000662319F061E00C940D2D60E0FCCF089518
:10039000CF92DF92EF92FF92CF93882351F16A01BF
:1003A0007B01CFEFC80F20E030E0A901CB01B601FF
:1003B0000E946F2787FF11C0C701B60190580E94A5
:1003C00078279B01AC016C2F70E090E080E0CF912A
:1003D000FF90EF90DF90CF90B2C0C701B6010E94AE
:1003E00073278C2FCF91FF90EF90DF90CF900C94DC
:1003F000972BCF91FF90EF90DF90CF9008950F93C0
:100400001F938B019C0183E03695279517950795DF
:100410008A95D1F70C511B4F462F477021E030E0F1
:10042000F90102C0EE0FFF1F4A95E2F7AF01F80194
:1004300020812423CB010196211102C090E080E0AD
:100440001F910F9108950F931F938B019C0183E0DF
:1004500036952795179507958A95D1F7677081E0AE
:1004600090E001C0880F6A95EAF7F801EC51FB4F64
:100470002081452B31F48095822380831F910F9139
:100480000895822BFACF2F923F924F925F926F92F4
:100490007F928F929F92AF92BF92CF92DF92EF9214
:1004A000FF920F931F93CF93DF93D62EC72E782EF4
:1004B000692E49015A01280161E08D2D0E94D12C3D
:1004C000CD2DDC2D8E010F5F1F4FA8016D2D7C2DD2
:1004D000872D962DB8DF20E030E0A901C201B701D9
:1004E0000E945628181664F4C201B7010E947827AA
:1004F0002B01C501B4010E947827A201CE0123D0AF
:10050000C801DF91CF911F910F91FF90EF90DF9085
:10051000CF90BF90AF909F908F907F906F905F90A3
:100520004F903F902F900895882341F08150682F7D
:1005300070E090E080E050E040E085CF0895862FA5
:10054000B9010C94972B9C01FC01EC51FE4FE491F6
:10055000E150E231E0F4F0E08827EE54FD4F8F4F98
:100560000C941F31C402CB02CE02E502FA02C7028C
:100570000F031B031F0336034B03600377038C0336
:10058000C702A103B803CD0384B5806884BD60E0D1
:10059000822F0C940D2D84B58062F8CF809180005D
:1005A0008C7F82608093800080918100807E80615A
:1005B000682B609381005093870040938600809160
:1005C0008000806880938000E2CF809180008C7FE3
:1005D00082608093800080918100807E8061682BA2
:1005E0006093810050938700409386008091800043
:1005F0008062E8CF809180008C7F82608093800051
:1006000080918100807E8061682B6093810050938F
:10061000870040938600809180008860D3CF8091CE
:10062000B00080688093B0008091B100887F682B13
:100630006093B100ACCF8091B0008062F3CF809125
:1006400090008C7F82608093900080919100807EEA
:100650008061682B609391005093970040939600BF
:100660008091900080688093900091CF809190005D
:100670008C7F82608093900080919100807E806169
:10068000682B60939100509397004093960080915F
:1006900090008062E8CF809190008C7F8260809390
:1006A000900080919100807E8061682B6093910022
:1006B0005093970040939600809190008860D3CF2C
:1006C0008091A0008C7F82608093A0008091A10027
:1006D000807E8061682B6093A1005093A7004093B7
:1006E000A6008091A00080688093A00050CF8091E8
:1006F000A0008C7F82608093A0008091A100807E0A
:100700008061682B6093A1005093A7004093A600DE
:100710008091A0008062E8CF8091A0008C7F8260F1
:100720008093A0008091A100807E8061682B6093FF
:10073000A1005093A7004093A6008091A00088607C
:10074000D3CF809120018C7F8260809320018091A3
:100750002101807E8061682B6093210150932701E5
:1007600040932601809120018068809320010FCF63
:10077000809120018C7F82608093200180912101F3
:10078000807E8061682B6093210150932701409304
:100790002601809120018062E8CF809120018C7F2A
:1007A00082608093200180912101807E8061682B8E
:1007B00060932101509327014093260180912001ED
:1007C0008860D3CF60E070E080E89FE7089560E044
:1007D00070E080E89FE7089560E070E080E89FEFB8
:1007E000089560E070E080E89FEF089560E070E0B9
:1007F00080EC9FEF089560E070E080EC9FEF08953B
:10080000F5DF60939608709397088093980890930B
:100810009908F1DF60938A0870938B0880938C08A5
:1008200090938D08CFDF6093920870939308809324
:10083000940890939508CBDF60938E0870938F088F
:100840008093900890939108C7DF60939A08709303
:100850009B0880939C0890939D08C3DF60939E083B
:1008600070939F088093A0089093A10808952F92F9
:100870003F924F925F926F927F928F929F92AF9230
:10088000BF92CF92DF92EF92FF920F931F93CF937D
:10089000DF93CDB7DEB7E3970FB6F894DEBF0FBE98
:1008A000CDBF8091E3088150823008F475C580E0A7
:1008B0008093E3088091DC088150823008F46EC593
:1008C00080E08093DC0826EB38E04AE259E068E2F9
:1008D00079E087ED93E00E94BE1960912A0970913A
:1008E0002B09072E000C880B990B0E94A62720913C
:1008F00066033091670340916803509169030E9439
:100900005A284B015C018092080990920909A09233
:100910000A09B0920B090091280910912909B80120
:10092000012E000C880B990B0E94A62720916A03C8
:1009300030916B0340916C0350916D030E940B2723
:100940006B017C01409072035090730360907403BC
:1009500070907503AC019B01C301B2010E946F2727
:1009600087FF1EC5A3019201C701B6010E940A2795
:100970002091760330917703409178035091790369
:100980000E945A286B017C01C0920C09D0920D097B
:10099000E0920E09F0920F0920E030E0A9010E94D8
:1009A000562818160CF011C580917A0390917B039C
:1009B000A0917C03B0917D0380931009909311095D
:1009C000A0931209B09313098091DA029091DB028F
:1009D000081719073CF48091DC029091DD02801722
:1009E000910724F08091D6038093DE088091DE0881
:1009F000882309F4FDC489829A82AB82BC82A70154
:100A000096016091100970911109809112099091DD
:100A100013090E940B276D837E838F8398878091B3
:100A2000DD08882309F440C08091860390918703F4
:100A3000A0918803B09189038093BA089093BB0872
:100A4000A093BC08B093BD0880918A0390918B035A
:100A5000A0918C03B0918D038093BE089093BF0842
:100A6000A093C008B093C10880918E0390918F032A
:100A7000A0919003B09191038093C2089093C30812
:100A8000A093C408B093C5088091920390919303FA
:100A9000A0919403B09195038093C6089093C708E2
:100AA000A093C808B093C90889819A81AB81BC81A1
:100AB0008CA39DA3AEA3BFA38093E4089093E50805
:100AC000A093E608B093E7084090BE085090BF0896
:100AD0006090C0087090C1084092E8085092E90800
:100AE0006092EA087092EB088D819E81AF81B88593
:100AF0008093EC089093ED08A093EE08B093EF0874
:100B00008091C6089091C708A091C808B091C90803
:100B100088A799A7AAA7BBA78093F0089093F1088C
:100B2000A093F208B093F3088091CA089091CB0883
:100B3000A091CC08B091CD088093F4089093F5086B
:100B4000A093F608B093F7081092140910921509B3
:100B5000109216091092170934EEE32E38E0F32EA6
:100B60004AEDC42E42E0D42E06EC12E01B8A1D8A08
:100B7000198E1D8ED8016D917D918D919D918D0164
:100B8000F70121913191419151917F0190580E943B
:100B90005A289B01AC016B897D89898D9D8D0E94AE
:100BA0000B276B8B7D8B898F9D8FC016D10611F71C
:100BB000CB01A98DBD8D8093140990931509A09345
:100BC0001609B09317098091D903882309F428C422
:100BD00081E08093E1088091C2089091C308A091C0
:100BE000C408B091C5088CA79DA7AEA7BFA78091E8
:100BF000BA089091BB08A091BC08B091BD0888AB21
:100C000099ABAAABBBAB06E213E0DE011196BBA326
:100C1000AAA31E01B9E02B0E311C3A8A298A1F8F24
:100C20000E8F0C5F1F4FEAA1FBA1C190D190E19004
:100C3000F190FBA3EAA3AE8DBF8D18962D913D9147
:100C40004D915C911B97C301B2010E945A284B0140
:100C50005C01EE8DFF8D208131814281538168A935
:100C600079A98AA99BA90E945A289B01AC01C501B8
:100C7000B4010E940B274B015C01AE8DBF8D5096D5
:100C80002D913D914D915C9153976CA57DA58EA5BD
:100C90009FA50E945A289B01AC01C501B4010E9486
:100CA0000B274B015C01EE8DFF8D208D318D428D28
:100CB000538D68A579A58AA59BA50E945A289B01FA
:100CC000AC01C501B4010E940B274B015C01F80186
:100CD000EC57FF4F20813181428153816B897D899F
:100CE000898D9D8D0E945A289B01AC01C501B401DC
:100CF0000E940B279B01AC01C701B6010E940A2785
:100D0000D1016D937D938D939D931D01E989FA899E
:100D10002AA13BA1E217F30709F081CF89859A85C3
:100D2000AB85BC858E8F9F8FA8A3B9A34D845E84AD
:100D30006F84788806E413E028E1222E29E0322E21
:100D4000D8018D909D90AD90BD908D011C962D91F8
:100D50003D914D915C911F97C301B2010E945A28A9
:100D60006B017C012E8D3F8D48A159A1C501B401B5
:100D70000E945A2820E030E0A9010E940B279B0125
:100D8000AC01C701B6010E940B27F1016193719379
:100D9000819391931F0126E533E02017310781F6F7
:100DA0008091DC08882309F438C3833009F031C30B
:100DB00081E090E08093DC08C090B603D090B70348
:100DC000E090B803F090B903A70196016B897D8983
:100DD000898D9D8D0E9456281816B4F0C090BA03D4
:100DE000D090BB03E090BC03F090BD03A701960137
:100DF0006B897D89898D9D8D0E946F2787FD04C039
:100E0000CB88DD88E98CFD8C2091BE033091BF0337
:100E10004091C0035091C103C701B6010E945A28F6
:100E20004B015C0120E030E0A9010E946F2787FDA3
:100E300032C320E030E0A901C501B4010E94562868
:100E400018160CF41DC320E030E0A901C501B4015F
:100E50000E946F27882309F41AC380909608909007
:100E60009708A0909808B090990820E030E040E8FA
:100E700053E4C501B4010E946F276FEF87FF0DC0D7
:100E800020E030E0A901C501B4010E94562887FD89
:100E900002C3C501B4010E9478278AE071DAE894A0
:100EA000F7F86091AA087091AB088091AC08909116
:100EB000AD08A5DA8C019093A9088093A808209129
:100EC000C2033091C3034091C4035091C503C701CD
:100ED000B6010E945A286B017C0120E030E04FE708
:100EE00053E40E946F2787FFD8C220E030E0A901B9
:100EF000C701B6010E94562818160CF0D5C2B701DA
:100F0000A601C80145DA26EB38E04AE259E068E27A
:100F100079E087ED93E00E94F0191092DD0880914E
:100F2000C6089091C708A091C808B091C9088D8BD8
:100F30009E8BAF8BB88F8091C2089091C308A0910F
:100F4000C408B091C508898F9A8FAB8FBC8F8090F1
:100F5000BE089090BF08A090C008B090C108409013
:100F6000BA085090BB086090BC087090BD0806EEAF
:100F700012E0A8EFB8E0BC8BAB8B18010C5F1F4FE1
:100F8000F1012089318942895389C501B4010E9448
:100F90005A286B017C01D1012D913D914D915C91BD
:100FA000C301B2010E945A289B01AC01C701B601DE
:100FB0000E940B276B017C01F10120A131A142A10C
:100FC00053A1698D7A8D8B8D9C8D0E945A289B012F
:100FD000AC01C701B6010E940B276B017C01D10156
:100FE000D0962D913D914D915C91D3976D897E89DD
:100FF0008F89988D0E945A289B01AC01C701B601C8
:101000000E940B27EB89FC896193719381939193E3
:10101000FC8BEB8B26EF32E02017310709F0ADCFC8
:10102000C0901409D0901509E0901609F0901709A6
:1010300020919E0330919F034091A0035091A10302
:10104000C701B6010E945A282091F8083091F9088A
:101050004091FA085091FB080E940B272091180933
:101060003091190940911A0950911B090E940B27D0
:101070006093BA087093BB088093BC089093BD0836
:101080002091A2033091A3034091A4035091A503A2
:10109000C701B6010E945A282091FC083091FD0832
:1010A0004091FE085091FF080E940B2720911C09D7
:1010B00030911D0940911E0950911F090E940B2774
:1010C0006093BE087093BF088093C0089093C108D6
:1010D0002091A6033091A7034091A8035091A90342
:1010E000C701B6010E945A282091000930910109D8
:1010F00040910209509103090E940B272091200979
:101100003091210940912209509123090E940B2717
:101110006093C2087093C3088093C4089093C50875
:101120002091AA033091AB034091AC035091AD03E1
:10113000C701B6010E945A2820910409309105097F
:1011400040910609509107090E940B27209124091C
:101150003091250940912609509127090E940B27BB
:101160006093C6087093C7088093C8089093C90815
:101170002091C6033091C7034091C8035091C90321
:10118000609135057091360580913705909138054D
:101190000E946F2787FF8CC16091CA037091CB03B7
:1011A0008091CC039091CD032091D2033091D30351
:1011B0004091D4035091D5030E945A282CA13DA1FF
:1011C0004EA15FA10E940A272091960330919703B8
:1011D00040919803509199030E945A282091CA087F
:1011E0003091CB084091CC085091CD080E940B273C
:1011F0006093CA087093CB088093CC089093CD0875
:1012000081E090E00E94AE1840913505509136057E
:10121000609137057091380590E080E00E94AA182F
:101220008090450590904605A0904705B0904805F0
:1012300020E030E040E85FEBC501B4010E946F2779
:10124000882331F1C0903505D0903605E090370500
:10125000F0903805A7019601C501B4010E940A2744
:101260004B015C0120E030E040E054E3C701B601EF
:101270000E945A289B01AC01C501B4010E94562866
:10128000181634F08EEE93E09093200580931F059E
:1012900080914905882331F08EEE93E090932005EC
:1012A00080931F05C0903905D0903A05E0903B052A
:1012B000F0903C053FEFC31AD30AE30AF30AC09249
:1012C0003905D0923A05E0923B05F0923C05C114F5
:1012D000D104E104F10499F480913D0590913E051B
:1012E000A0913F05B09140050196A11DB11D8093CD
:1012F0003D0590933E05A0933F05B0934005809037
:10130000410590904205A0904305B090440560913E
:101310003D0570913E0580913F05909140050E94EA
:10132000A427A50194010E945A2820E030E040E85B
:101330005FE40E945A282B013C01C701B6010E94BC
:10134000A427A50194010E945A289B01AC01C30166
:10135000B2010E940B276093350570933605809388
:10136000370590933805E3960FB6F894DEBF0FBEAD
:10137000CDBFDF91CF911F910F91FF90EF90DF9044
:10138000CF90BF90AF909F908F907F906F905F9025
:101390004F903F902F90089583E08ACA83E091CACE
:1013A00040906E0350906F036090700370907103D3
:1013B000A7019601C301B2010E946F2718160CF411
:1013C000D1CA60E070E0CB01D3CA20E030E0A901CF
:1013D000C701B6010E946F2718160CF4F5CA809158
:1013E0007E0390917F03A0918003B0918103E4CAB2
:1013F0008091E2029091E302A091E402B091E502B3
:1014000089839A83AB83BC838D839E83AF83B887A4
:1014100006CB082E000C990BCDCC82E090E0CACC14
:101420008091E108882309F4C7CC8091DE02909175
:10143000DF02A091E002B091E1028093180990933D
:101440001909A0931A09B0931B0980931C09909362
:101450001D09A0931E09B0931F0980932009909342
:101460002109A0932209B093230980932409909322
:101470002509A0932609B09327091092E1089CCC76
:10148000812C912C90E8A92E9FE3B92E02CD812CBE
:10149000912C5401FECC60E000CDC12CD12C8FE703
:1014A000E82E83E4F82E2BCDC12CD12C760127CD4C
:1014B0006091CE037091CF038091D0039091D103BE
:1014C00073CE4F925F926F927F92BF92CF92DF92D4
:1014D000EF92FF920F931F93CF93DF9384E090E0FE
:1014E0008FD9AFE1B5E08BE2FD0111928A95E9F762
:1014F00040E050E060E87FEB96964D935D936D93EE
:101500007C9399974FE652E163E87AE392964D9384
:101510005D936D937C93959749ED59E761E073EF87
:1015200014964D935D936D937C93179742E25DE023
:101530006EE37BE018964D935D936D937C931B97C0
:1015400046E658ED6DE271E31C964D935D936D9305
:101550007C931F9746E759E062E178E850964D93F7
:101560005D936D937C935397C3E1D5E01396DC9321
:10157000CE931297E1E0F5E0F983E88382E094E00E
:101580009183808322EE38E03383228323EE38E098
:10159000358324832CED38E0378326839187808739
:1015A000938782879587848797878687918B808B9F
:1015B00083E395E09D838C8383E295E09B838A831C
:1015C00085E395E09F838E8384EEC82E88E0D82E35
:1015D00088E4F60111928A95E9F7C2EAD8E082E43C
:1015E000FE0111928A95E9F727EF34E08AE0F901CC
:1015F00011928A95E9F7EDEEF4E05596FC93EE939F
:10160000549780E190E09183808386EA92E093830F
:10161000828386E892E0958384838AE292E09783CE
:10162000868386E092E091878087BB24B394BEAE28
:10163000412C512C320143944D865E866F86788A08
:1016400061E08AE00E94B801B98A1882BDAE89E0E3
:1016500090E0A0E0B0E088879987AA87BB871D82C9
:1016600049825A826B827C82E12CF12C8701A8018D
:10167000970169E070E080E090E00E9443029F8360
:101680008E83688579858A859B850E94FF019F836B
:101690008E830E94C701BD82EC8AFD8A0E8B1F8B50
:1016A0008091D8038CAFBBAE80919A0390919B033D
:1016B000A0919C03B0919D0388A799A7AAA7BBA757
:1016C0008091820390918303A0918403B09185035C
:1016D000F60184A795A7A6A7B7A78091DE029091EF
:1016E000DF02A091E002B091E10284AB95ABA6AB22
:1016F000B7AB80AF91AFA2AFB3AF84AF95AFA6AF9A
:10170000B7AF8093240990932509A0932609B0933D
:101710002709DF91CF911F910F91FF90EF90DF90FC
:10172000CF90BF907F906F905F904F900895809181
:10173000AE08811103C081E08093AE088091A208B9
:10174000811136C081E08093A2088091A308909116
:10175000A408A091A508B091A6080197A105B1051C
:1017600039F58091A708882319F16091AA08709132
:10177000AB088091AC089091AD080E94FF01909356
:10178000A9088093A80840E050E0BA010E94C8016F
:101790006091AA087091AB088091AC089091AD0857
:1017A0000E94FF019093A9088093A8080C949402CA
:1017B0000895EF92FF920F931F93CF93DF93EA0167
:1017C000F901DC011496ED90FC90159712964D915D
:1017D0005C9113974E0D5F1D2881398118960D91EC
:1017E0001C9119970217130730F00D911C91119756
:1017F000012B09F441C08A01021B130BDC0118966E
:101800008D919C918E199F09800F911F86179707C4
:10181000DCF1C901860F971F8417950778F471834F
:101820006083338322831582148217821682888113
:101830009981680F791F7983688316C011830083AB
:1018400033832283601B710B7583648390E080E097
:101850001616170614F49E2D8F2D96838783D701B5
:10186000A60FB71FB983A88380E0DF91CF911F91A6
:101870000F91FF90EF90089518968D919C91821B87
:10188000930B861797075CF681E0EFCFCF92DF923C
:10189000EF92FF92CF93DF936B0184E4869FE00188
:1018A000879FD00D1124C65BDA4F8AA99BA90097A8
:1018B00021F00E94F1311BAA1AAA84E48C9DF00148
:1018C0008D9DF00D1124E65BFA4F86A997A900972C
:1018D00011F00E94F13184E48C9DF0018D9DF00D9A
:1018E0001124E65BFA4F138A128A168A178A108E21
:1018F000118E128E138E148E158E168E178E10A2C8
:1019000011A281E090E093A382A315A214A216A2D3
:1019100017A210A611A613A612A615A614A616A6FF
:1019200017A610AA11AA13AA12AA15AA14AA17AACE
:1019300016AA11AE10AE12AE13AE14AE15AEDF0184
:10194000DE961D921D921D921C921397EE5BFF4F27
:1019500011821082DF91CF91FF90EF90DF90CF90B6
:101960000895CF93DF93FB01DC016D917C91DB0146
:101970001696CD91DC918081918123E0880F991F8B
:101980002A95E1F7AA81BB81A80FB91F8D919C917F
:10199000119724853585220F331FEB016A817B81E6
:1019A000EB01C20FD31F0990D881C02D14962D9141
:1019B0003C9161E070E0232B11F062E070E0C69F83
:1019C0009001C79F300DD69F300D1124A085B185A1
:1019D0002A9FB0012B9F700D3A9F700D1124A48196
:1019E000B5812A9FF0012B9FF00D3A9FF00D112435
:1019F0008E0F9F1FFA019183808373836283DF912F
:101A0000CF9108952F923F924F925F926F927F9263
:101A10008F929F92AF92BF92CF92DF92EF92FF92FE
:101A20000F931F93CF93DF9300D000D0CDB7DEB7D5
:101A3000DC011496ED91FC910190F081E02D808500
:101A400091859A838983A281B381BC83AB83FB0197
:101A500081909190A190B190C12CD12C7601C814A5
:101A6000D904EA04FB04CCF026960FB6F894DEBF46
:101A70000FBECDBFDF91CF911F910F91FF90EF90DF
:101A8000DF90CF90BF90AF909F908F907F906F909E
:101A90005F904F903F902F900895448055806680CE
:101AA00077804085518562857385CF0140969E83FE
:101AB0008D83A081B1819D0183E0220F331F8A9520
:101AC000E1F7A981BA8112968D919C91D901A80F55
:101AD000B91F2D903C9011970484F585E02DEE0FF1
:101AE000FF1F8B819C81E80FF91F0190F081E02D91
:101AF00014968D919C91892B41F581E090E0E89FAF
:101B00009001E99F300DF89F300D1124249F800132
:101B1000259F100D349F100D1124249DC001259D7B
:101B2000900D349D900D1124A8016D817E81820D50
:101B3000931D0E947A32ED81FE81E00FF11F9FEF2D
:101B4000C91AD90AE90AF90A8ACF82E090E0D7CF08
:101B5000CF93DF93DB01A652BC4F2C91222369F077
:101B600024E4269FF001279FF00D1124E65BFA4F35
:101B7000EF0119922A95E9F71C9224E4269FF001BF
:101B8000279FF00D1124E65BFA4F1482158216820E
:101B900017821186108613861286118A108A17867C
:101BA0001686DF91CF9172CE2F923F924F925F9225
:101BB0006F927F928F929F92AF92BF92CF92DF925D
:101BC000EF92FF920F931F93CF93DF9300D000D03B
:101BD0001F921F92CDB7DEB724E4269FF001279F06
:101BE000F00D1124E65BFA4F0481158126813781BF
:101BF000012B022B032B09F4B7C02A016B017C01D6
:101C000010E000E0812C912C54013F019F01285FDE
:101C10003F4F3C832B83CF0104969E838D83AB8102
:101C2000BC818D919C91ED81FE81408151816281C9
:101C3000738184169506A606B706E4F10E94F13179
:101C4000D3011A968D919C91892B09F07EC084E472
:101C50008C9DD0018D9DB00D1124A65BBA4FBC8325
:101C6000AB8350968D919C910E94F131EB81FC8168
:101C7000868597850E94F131C701B60107DEC7014D
:101C8000B60128960FB6F894DEBF0FBECDBFDF9128
:101C9000CF911F910F91FF90EF90DF90CF90BF9069
:101CA000AF909F908F907F906F905F904F903F90FC
:101CB0002F904ECFFC01E00FF11F92819983A381F9
:101CC000AA839F83A887312C212C2414350464F027
:101CD00089819A810E94F131EFEF8E1A9E0AAE0A35
:101CE000BE0A0C5F1F4F9BCFAF81B885ED91FD9170
:101CF000B887AF83309759F0848195810E94F13184
:101D0000EF81F8853297808191810E94F131BFEF98
:101D10002B1A3B0ADACF800F911FFC018481958139
:101D20000E94F1312B813C812F5F3F4F3C832B83FD
:101D3000025F1F4FF501808191812B813C81241529
:101D400035054CF30E94F13182CF10E000E01C8297
:101D50001B8224E42C9DC0012D9D900D1124DC01DB
:101D6000AC5ABA4F5D01E6CF28960FB6F894DEBFA5
:101D70000FBECDBFDF91CF911F910F91FF90EF90DC
:101D8000DF90CF90BF90AF909F908F907F906F909B
:101D90005F904F903F902F90089524E4269FF0018C
:101DA000279FF00D1124E65BFA4F828993890497EF
:101DB000029758F485E090E0938B828B8FEF9FEF32
:101DC000DC01828F938FA48FB58F08952F923F925D
:101DD0004F925F926F927F928F929F92AF92BF923B
:101DE000CF92DF92EF92FF920F931F93CF93DF93E7
:101DF000CDB7DEB7AA970FB6F894DEBF0FBECDBF42
:101E00009AA389A37E8B6D8B1A01098B1A8B2B8B5E
:101E10003C8B84E429893A89829F6001839FD00C9E
:101E200011248601065B1A4F89899A89AB89BC897E
:101E3000F80180839183A283B383AB01BC01CD0100
:101E4000B3DED601A25BBA4F84E0F10101900D929E
:101E50008A95E1F7F4E02F0E311C64E070E0D801C0
:101E600014968D919C910E943B31F8019187808757
:101E7000892B09F0F5C04D895E8969897A898B893A
:101E80009C8992DE81E0AA960FB6F894DEBF0FBE61
:101E9000CDBFDF91CF911F910F91FF90EF90DF9019
:101EA000CF90BF90AF909F908F907F906F905F90FA
:101EB0004F903F902F900895A9A5BAA58D919C9120
:101EC000E98DFA8DE80FF91FF88FEF8BD1018D9115
:101ED0009C91880F991FA9A1BAA1ED91FC91E80FDF
:101EE000F91F80819181EF89F88D91838083D101E1
:101EF00014962D913D914D915C9117972BA33CA386
:101F00004DA35EA362E070E08D899E890E943B3103
:101F1000EF89F88D93838283892B09F4ACCFF8E0A5
:101F20002F0E311C412C512C32012BA13CA14DA173
:101F30005EA142165306640675069CF02B8D3C8DFF
:101F40004D8D5E8D2F5F3F4F4F4F5F4F2B8F3C8FDF
:101F50004D8F5E8F498D5A8D4C5F5F4F5A8F498FE1
:101F600090C0610124E0C20ED11CD101ED90FC9023
:101F7000EE0CFF1CEF89F88D82819381E80EF91E2B
:101F800068E070E081E090E00E943B318C01D70175
:101F90008D939C93892B09F46ECF84E0F601D801D0
:101FA00001900D928A95E1F7B8E02B0E311CF801F3
:101FB00080819181A281B381181619061A061B0629
:101FC000DCF464E070E00E943B31D80115969C93EC
:101FD0008E931497892B09F44ECFD12CC12C812CD0
:101FE000912C5401F80180819181A281B3818816DE
:101FF0009906AA06BB0634F0FFEF4F1A5F0A6F0A74
:102000007F0A93CFF801E480F580EC0CFD1C80E1A1
:10201000F101DE01119601900D928A95E1F7F0E150
:102020002F0E311CA701BE016F5F7F4FA9A1BAA17E
:1020300014968D919C9195DCF80186819781D7014A
:1020400012962D913C91820F931F97838683BFEF49
:102050008B1A9B0AAB0ABB0AE4E0CE0ED11CC2CF9E
:102060001A8E198E1B8E1C8E1D8E1E8E18A30F8F1E
:10207000A8014C5F5F4F58A74FA3C80108969AA7C5
:1020800089A7EFA1F8A580819181A281B3812B8DD1
:102090003C8D4D8D5E8D281739074A075B070CF480
:1020A0000BCF6EE070E08D899E890E943B31AF8D31
:1020B000B8A11B969C938E931A97B12CA12CD12C6E
:1020C000C12CF12CE12C24E4E989FA892E9FC0016E
:1020D0002F9F900D11249C012C5A3A4F388F2F8B33
:1020E00088248394912C4D895E89C416D50654F1B9
:1020F00084E4A989BA898A9F80018B9F100D1124DD
:10210000065B1A4FF80115861486C70133E0880F65
:10211000991F3A95E1F70E945531D80151969C9349
:102120008E935097892B09F4A6CEC701880F991F6B
:102130000E945531F80197878687892B09F49BCE39
:1021400080E0A1CED1014D905D906D907D901D01FC
:1021500077FC91CEEF89F88D008111810A0D1B1D4E
:10216000D80111969C928E9241145104610471041D
:1021700029F1C2010E945531F80195838483892B8E
:1021800009F479CEF8015382428284819581978344
:102190008683918780871386128681E090E04528A8
:1021A0004628472811F490E080E0E80EF91EFFEF82
:1021B000CF1ADF0A2EE0A20EB11C95CF15961C9205
:1021C0001E921497DFCF2F923F924F925F926F92A1
:1021D0007F928F929F92AF92BF92CF92DF92EF92B7
:1021E000FF920F931F93CF93DF93CDB7DEB76A971C
:1021F0000FB6F894DEBF0FBECDBF9E8B8D8B49010D
:102200005A0184E4829F7001839FF00C112497018E
:10221000265B3A4F6901FB0180819181F901958B21
:10222000848BD701A05ABA4FFB01349684E0019009
:102230000D928A95E1F7D701AC59BA4FFB01389658
:1022400084E001900D928A95E1F7D701A859BA4F21
:10225000FB013C9684E001900D928A95E1F7D7014D
:10226000A858BA4FFB01709684E001900D928A95B0
:10227000E1F78B010C5E1F4FF90186A597A5A0A978
:10228000B1A918161906DCF5880F991F880F991F38
:102290000E945531F60193AB82AB892B09F4D3C070
:1022A000312C212C412C512C32019601225D3F4FC3
:1022B000388F2F8BC601C2969A8F898FF496FC8B2C
:1022C000EB8BB301A2012FEF421A520A620A720A83
:1022D000EF89F88D80819181A281B38148175907D8
:1022E0006A077B070CF47BC0F60184A995A90E94BC
:1022F0005531F60197AB86AB892B09F4A4C0F801E0
:1023000080819181A281B38124E4289DF001299DDF
:10231000F00D1124E65BFA4FAC01BD014D7F21E0C9
:1023200030E0452B462B472B11F030E020E033A363
:1023300022A324E4289DF001299DF00D1124E65BE1
:10234000FA4F0197A109B10921E030E00297A105F8
:10235000B10510F030E020E035A324A3D701A05947
:10236000BA4FF801349684E001900D928A95E1F716
:1023700084E4889DF001899DF00D1124E65BFA4FFD
:10238000868D978DA0A1B1A1B7FF58C0B095A0953B
:10239000909581959F4FAF4FBF4F82AF93AFA4AF42
:1023A000B5AF168E178E10A211A280E06A960FB6F6
:1023B000F894DEBF0FBECDBFDF91CF911F910F917B
:1023C000FF90EF90DF90CF90BF90AF909F908F9055
:1023D0007F906F905F904F903F902F900895E98D80
:1023E000FA8D808191819C01220D331D3A8B298BBE
:1023F00080E1F801DE01119601900D928A95E1F7D6
:10240000005F1F4F49895A89BE016F5F7F4FED8979
:10241000FE8984819581A5DAEB89FC89808191818F
:10242000E989FA8922813381820F931FEB89FC8924
:1024300091838083F4E02F0E311C43CF12AE13AE94
:1024400014AE15AEB2CFC501B40120DA81E0AECF33
:10245000CF92DF92EF92FF92CF93DF931092D2054B
:1024600024E4269FF001279FF00D1124E65BFA4F2C
:1024700015A614A630E020E0D12CC12CDF011A965D
:10248000C1E0D0E0C416D506F4F024E4269FF001A4
:10249000279FF00D1124E65BFA4F13A612A611AE8A
:1024A00010AEDF01DE961D921D921D921C921397B5
:1024B00082E090E0938B828BDF91CF91FF90EF9041
:1024C000DF90CF900895ED91FC911197E20FF31FEB
:1024D000E280F3801E141F0454F4E480F580F78238
:1024E000E682F186E08613861286D183C083EFEF01
:1024F000CE1ADE0A225F3F4FC5CF24E4269FF001AB
:10250000279FF00D1124E65BFA4F138A128A4CCBF9
:1025100024E4269FF001279FF00D1124E65BFA4F7B
:102520008289938981309105C8F08530910518F032
:10253000059769F008958FEF9FEFDC01828F938FED
:10254000A48FB58F85E090E0938B828B08958FEFF9
:102550009FEFDC01828F938FA48FB58F089524E4C1
:10256000249FD001259FB00D1124A65BBA4F2EE009
:10257000AC01249FC001259F900D11241A96ED9166
:10258000FC91E80FF91F81E08093D2058285938545
:1025900091878087408551852681378181E090E051
:1025A0004217530711F090E080E0918380830895F3
:1025B0002F923F924F925F926F927F928F929F9253
:1025C000AF92BF92CF92DF92EF92FF920F931F9341
:1025D000CF93DF93CDB7DEB7C055D1090FB6F894CE
:1025E000DEBF0FBECDBF9EAF8DAF4BA75CA76DA763
:1025F0007EA76801790184E4809FF001819FF00D3E
:102600001124E65BFA4F2285338523963FAF2EAF28
:10261000239782899389029761F486A597A5A0A93B
:10262000B1A9892B8A2B8B2BC9F584E090E0938B81
:10263000828B84E48C9DF0018D9DF00D1124E65B6E
:10264000FA4F828993898230910509F037C282ADB1
:1026500093ADA4ADB5AD22242394312C18161906E0
:102660001A061B060CF42FC2C05BDF4F0FB6F8949E
:10267000DEBF0FBECDBFDF91CF911F910F91FF90B5
:10268000EF90DF90CF90BF90AF909F908F907F9012
:102690006F905F904F903F902F9008958489958917
:1026A0004DAD5EAD8417950721F606A917A918AEA2
:1026B0001FAA1BAA1CAA1DAA1EAA1F01CF018E9623
:1026C00027969FAF8EAF2797DF01D2962996BFAF8F
:1026D000AEAF2997F8962B96FFAFEEAF2B979101EF
:1026E0002A5D3F4F2D963FAF2EAF2D97A1014E5D36
:1026F0005F4F2F965FAF4EAF2F970A9761969FAFB0
:102700008EAF61972796EEADFFAD279780819181BF
:10271000A281B3812BA93CA94DA95EA9281739072D
:102720004A075B0744F081E090E0D101D9969C9381
:102730008E93D8977ECF2996AEADBFAD2997ED91F8
:10274000FC912FA938ADE20FF31F428153815AAF9C
:1027500049AF50815FAF818121968FAF21972B9632
:10276000AEADBFAD2B978D919C91892B21F12D960C
:10277000EEADFFAD2D9780809180A280B3801AAB23
:1027800009AB5FA72196FFAD2197F8AB29AD3AAD14
:10279000369527953695279525963FAF2EAF2597E9
:1027A0001CAE1BAE2596AEADBFAD2597EBADFCAD17
:1027B000EA17FB070CF149AD5AAD6FAD21967FAD1D
:1027C0002197C8010E947A3289AD9AAD8C7F080F9B
:1027D000191F2BA93CA94DA95EA92F5F3F4F4F4F51
:1027E0005F4F2BAB3CAB4DAB5EAB4FA958AD4C5FD5
:1027F0005F4F58AF4FAB86CF2F96AEADBFAD2F9783
:102800008D919C91892B71F1EFA5F8A940805180A1
:1028100062807380A3019201C501B4010E946F27F9
:10282000181664F0A9A9BAA92D913D914D915C911A
:10283000C501B4010E9456281816BCF1A3019201EB
:10284000C501B4010E946F2787FF0CC0E9A9FAA94E
:102850002081318142815381C501B4010E946F27DB
:10286000882319F16196AEADBFAD61978D919C91B2
:10287000892B09F445C0EFA5F8A9408051806280FA
:102880007380A3019201C501B4010E945628181655
:102890001CF5A9A9BAA92D913D914D915C91C50155
:1028A000B4010E946F2718165CF184E48C9DF0013E
:1028B0008D9DF00D1124E65BFA4F868D978DA0A1BA
:1028C000B1A1892B8A2B8B2B69F183E090E0938B4C
:1028D000828B81E090E02CC0A3019201C501B4017C
:1028E0000E946F2781110CC0E9A9FAA920813181CA
:1028F00042815381C501B4010E946F2787FDD5CF66
:102900002BAD3CAD2F5F3F4F3CAF2BAF49A95AA930
:102910004C5F5F4F5AAB49AB8FA598A9049698AB13
:102920008FA740CF84E090E0938B828B86AD97ADEC
:1029300093A782A77ECEEBADFCAD80819181F4019F
:10294000EE0FFF1FEE0FFF1FE80FF91FA081B181EF
:102950008C9181110AC0FFEF8F1A9F0AAF0ABF0A3C
:102960008DA29EA2AFA2B8A68FC18330A1F3028030
:10297000F381E02D2FA938ADE20FF31F8081918103
:102980009AAB89AB892B39F34F5F5F4F6F4F7F4F06
:1029900049875A876B877C879E01235E3F4FAE0134
:1029A000475D5F4F64E070E0C8010E94D90B811160
:1029B000D0C18D819E81AF81B8850496A11DB11DC6
:1029C0008D839E83AF83B8874D8D5E8DBE016B5D19
:1029D0007F4F8F8D98A10E947A328BA19CA1009786
:1029E00061F06D8D7E8DA5E2B0E0AC0FBD1F6A0F6A
:1029F0007B1F49A15AA10E947A321CAA1BAA412C12
:102A0000512C3201E9A9FAA980819181A281B38177
:102A1000481659066A067B060CF09DCFE9A9FAA96B
:102A2000848195812BA93CA9280F391F38AB2FA78A
:102A3000D90112966D917C919E01235E3F4FAE01AC
:102A4000475D5F4FC8010E94D90B811182C1EFA57C
:102A5000F8A982819381092E000CAA0BBB0B4D8132
:102A60005E816F817885840F951FA61FB71F8D83A8
:102A70009E83AF83B887608171814D8D5E8D8F8D10
:102A800098A10E947A328BA19CA1009761F0AFA51A
:102A9000B8A96D917C912D8D3E8D620F731F49A158
:102AA0005AA10E947A32BFEF4B1A5B0A6B0A7B0A6B
:102AB000EBA9FCA93496FCABEBABA4CF312C212CB9
:102AC000049709F0D1CD8EE0EDADFEAD8E9F800173
:102AD0008F9F100D112423962EAD3FAD2397020F2B
:102AE000131FD80112964D915C9113974115510512
:102AF00009F4BACD16968D919C919AA789A780E189
:102B0000FE013196DF011D928A95E9F7C98ADA8ABA
:102B1000EB8AFC8A2114310409F458C084E48C9DAA
:102B2000F0018D9DF00D1124E65BFA4FDF01DE967A
:102B30008D909D90AD90BC9082AD93ADA4ADB5ADA0
:102B400088169906AA06BB0609F040C0F8018481E0
:102B500095810084F185E02D349624E0DE015596C0
:102B600001900D922A95E1F72D893E89285F3F4F0C
:102B70003E8B2D8BD80118966D917C911997260F5D
:102B8000371F19963C932E93189718962D913C91C8
:102B90001997480F591F241B350B37FD06C0820FAC
:102BA000931F19969C938E93189784E48C9DF00143
:102BB0008D9DF00D1124E857FA4FB1E08B1A910862
:102BC000A108B10880829182A282B3829E012B5E0D
:102BD0003F4FAE01475D5F4F64E170E0C8010E9466
:102BE000D90B8111B6C08CE090E0A0E0B0E08D83FD
:102BF0009E83AF83B8879E01235E3F4FAE01475D42
:102C00005F4F64E070E0C8010E94D90B8111A1C040
:102C100080E190E0A0E0B0E08D839E83AF83B88731
:102C20004D8D5E8DBE01655D7F4F8F8D98A10E9499
:102C30007A328BA19CA1009761F06D8D7E8DEBE2C5
:102C4000F0E0EC0FFD1F6E0F7F1F49A15AA10E94FB
:102C50007A321DA21EA21FA218A62DAD3EAD220FD4
:102C6000331F38AF2FAB24E42C9DC0012D9D900D58
:102C70001124865B9A4FAC014C5F5F4F5AAF49AF4E
:102C8000DC011896BCAFABAF8DA09EA0AFA0B8A4DE
:102C900049855A856B857C85E9ADFAAD8081918146
:102CA000A281B38188169906AA06BB060CF443CE0E
:102CB000452B462B472B09F4D7CC8AE190E0A0E0C6
:102CC000B0E089839A83AB83BC832DAD3EADC9014F
:102CD000330FAA0BBB0B8D879E87AF87B88B4D89AF
:102CE0005E89BE016F5F7F4F8F89988D0E947A3217
:102CF0008B8D9C8D009761F06D897E8941E050E05D
:102D00004C0F5D1F640F751F498D5A8D0E947A32DA
:102D100089A59AA5D80117969C938E93169711961C
:102D20001C921E92232809F49FCC84E48C9DF00110
:102D30008D9DF00D1124E857FA4F80819181A28179
:102D4000B3810196A11DB11D80839183A283B383BA
:102D50008BCC232809F088CC84E48C9DF0018D9DD8
:102D6000F00D1124E65BFA4F81E090E095A784A76F
:102D700085E090E0938B828B77CCCF92DF92EF92BD
:102D8000FF920F931F9324E4269FF001279FF00DDD
:102D90001124E65BFA4F228933892115310509F4A4
:102DA00052C06B017C0121303105B1F482A593A59D
:102DB0009C012F5F3F4F33A722A7092E000CAA0BBF
:102DC000BB0B028D138D248D358D80179107A207C3
:102DD000B307C9F5C7013CDB84E48C9DF0018D9DF0
:102DE000F00D1124E65BFA4F82899389039759F518
:102DF00082A593A59C012F5F3F4F33A722A7092EE1
:102E0000000CAA0BBB0B468D578D60A171A18417D6
:102E10009507A607B707BCF086AD97AD93A782A725
:102E200084E090E0938B828B82AD93ADA4ADB5AD81
:102E3000181619061A061B0634F4EE5BFF4F81E0E4
:102E400090E0918380831F910F91FF90EF90DF902E
:102E5000CF90089524E4269FF001279FF00D1124C0
:102E6000E65BFA4F828993890497B1F482A593A512
:102E7000019693A782A7092E000CAA0BBB0B4689CB
:102E80005789608D718D84179507A607B70721F4C0
:102E900085E090E0938B828B08952F923F924F9222
:102EA0005F926F927F928F929F92AF92BF92CF92DA
:102EB000DF92EF92FF920F931F93CF93DF93CDB7E3
:102EC000DEB72E970FB6F894DEBF0FBECDBFDC0184
:102ED00049835A836B837C83290184E4849FF001B6
:102EE000859FF00D1124E65BFA4F22883388C101DB
:102EF0000497029708F0D5C011961C921E92139663
:102F00001C921E92129715861486912C812C90E0AB
:102F100080E08F019F01205F3F4F38872F833F0163
:102F20003CE0630E711CBF01625F7F4F7A87698747
:102F30003A96FC87EB87EF81F88520813181F30198
:102F400040815181E985FA85A080B180841595057D
:102F50000CF445C011965C934E9313963C932E93BC
:102F600012971596BC92AE921497452BF9F4F5E0A2
:102F70002F163104D9F41092D205F801828D938D69
:102F8000A48DB58DAE014F5F5F4F64E070E08F3F61
:102F90009F4FAF4FBF4F09F079C080E290E032D62B
:102FA00069817A818B819C81A201A7DA2E960FB666
:102FB000F894DEBF0FBECDBFDF91CF911F910F916F
:102FC000FF90EF90DF90CF90BF90AF909F908F9049
:102FD0007F906F905F904F903F902F900895EB857A
:102FE000FC8560817181FB01E80DF91DFE87ED878D
:102FF00060817181672B89F5E084F184628173813E
:103000007E836D83668177816A01E3E0CC0CDD1CF1
:10301000EA95E1F72C0D3D1D440F551F4A0D5B1D30
:10302000FA0191838083F301408151814F5F5F4FAB
:1030300051834083F901F382E282ED85FE85738737
:103040006287E616F70670F46E197F09F90171833D
:10305000608315821482178216820196FEE08F0E1D
:10306000911C69CFED85FE85C480D5804D815E8140
:103070004C0D5D1D4E195F09F901518340836C1998
:103080007D0975836483D782C682E7CF8FE190E0A4
:10309000B9D5F80113A612A681E090E0938B828B3C
:1030A00085CF1586148611961C921E9213961C923B
:1030B0001E9212977BCFEF92FF920F931F93CF93A5
:1030C000DF937C018B01EA0179D681111EC08091CA
:1030D000DC039091DD03049711F5DF91CF911F91EF
:1030E0000F91FF90EF90089528ED38EB45E050E008
:1030F00060E070E0CB010E949521AE01B801C701EC
:103100000E94A321C8010E946E218091D305909155
:10311000D405892BE1F68881882331F3D8CF83E069
:1031200090E09093DD038093DC03D7CFCF93DF93C0
:103130002091DC033091DD032430310541F0EB01B7
:103140000E94A321CE01DF91CF910C946E21DF91DB
:10315000CF9108950C94A1250C9496250C94842568
:103160000C947E210C942825089570E060E090E096
:1031700080E0FFC50895AF92BF92CF92DF92EF92A9
:10318000FF920F931F93CF93DF931F921F92CDB7A0
:10319000DEB75C018B0169017A0190E080E0C11427
:1031A000D104E104F10469F40F900F90DF91CF9105
:1031B0001F910F91FF90EF90DF90CF90BF90AF9055
:1031C00008959C2D8D2DC114D10421E0E206F10457
:1031D00010F09FEF8FEF9E012F5F3F4F492F582F29
:1031E000B801C5010E942B268F3F9807E9F229817B
:1031F0003A81C21AD30AE108F108020F131FCFCF98
:103200002091D9053091DA058091DB059091DC059C
:103210002817390789F08091DF059091E005019624
:103220009093E0058093DF0582E10E943A2D909310
:10323000DC058093DB0508958091DF059091E00522
:103240000197EECF2091D5053091D6058091D70515
:103250009091D8052817390711F18091DD059091DB
:10326000DE0501969093DE058093DD0582E00E94E5
:103270003A2D9093D8058093D7058091DD059091E4
:10328000DE05813A964F8CF48091DD059091DE0544
:10329000805A964F9093DE058093DD0508958091C6
:1032A000DD059091DE050197DDCF8091DD059091E0
:1032B000DE058036994094F38091DD059091DE051E
:1032C00080569940E7CF83E10E943A2D9093DA052A
:1032D0008093D9052091DB053091DC058217930797
:1032E00051F08091DF059091E00501969093E00503
:1032F0008093DF0508958091DF059091E0050197A7
:10330000F5CF83E00E943A2D9093D6058093D505A2
:103310002091D7053091D80582179307D9F0809175
:10332000DD059091DE0501969093DE058093DD0525
:103330008091DD059091DE05813A964F8CF4809165
:10334000DD059091DE05805A964F9093DE058093BF
:10335000DD0508958091DD059091DE050197E4CFAC
:103360008091DD059091DE058036994094F380913F
:10337000DD059091DE0580569940E7CFEF92FF92F0
:103380000F931F93CF93DF937C018B01EA01F90127
:1033900020E030E040E85FE36081718182819381C9
:1033A0000E946F27811115C0F7018081882321F0C9
:1033B0001092DE051092DD058091DD059091DE050D
:1033C000F801918380838091DF059091E0059983D6
:1033D0008883DF91CF911F910F91FF90EF90089517
:1033E000CF93DF93E90120E030E040E85FE36881BC
:1033F00079818A819B810E946F278823A1F162E0F5
:1034000082E00E94D12C62E083E00E94D12C60E037
:1034100082E10E94D12C60E083E10E94D12C41E046
:1034200050E062E279E180E00E94BE2841E050E095
:1034300061E879E181E00E94BE2841E050E060E06F
:1034400079E185E00E94BE2841E050E063E679E141
:1034500084E00E94BE2880E090E0A0E8BFE388837B
:103460009983AA83BB83DF91CF91089540E05BE409
:1034700060E070E090E080E000C08130910579F07C
:103480001CF4892B39F008958230910561F003977F
:1034900071F0089526E086E196E00C942C2E26E04B
:1034A00083EB96E0FACF26E080E597E0F6CF26E0C2
:1034B0008DEE97E0F2CF1F920F920FB60F9211246C
:1034C0000BB60F922F933F934F935F936F937F931E
:1034D0008F939F93AF93BF93EF93FF9386E09FEFFC
:1034E00090932501809324010E946526FF91EF911E
:1034F000BF91AF919F918F917F916F915F914F910C
:103500003F912F910F900BBE0F900FBE0F901F9009
:10351000189586E09FEF9093250180932401A3E7FF
:10352000B0E08C918E7F8C93E0E2F1E080818C7F23
:103530008083E1E2F1E08081877E80838081836007
:10354000808380818B7F80838C9181608C930895B0
:1035500081E008958F929F92AF92BF92CF92DF92B7
:10356000EF92FF920F931F93CF93DF935C017B0148
:103570008A01C1E0D0E0CE15DF05CCF081E0F50195
:103580008083B801C7010E94CB25F5019283818316
:1035900090E080E0DF91CF911F910F91FF90EF902D
:1035A000DF90CF90BF90AF909F908F9008956E0165
:1035B0008FEFC81AD80AFE01EE0FFF1FE00FF11FB0
:1035C000808091808114910469F067E874E0C401FF
:1035D0000E948A32892B41F4CC0FDD1FC00FD11F0E
:1035E00019821882E601C7CF6AE874E0C4010E941C
:1035F0008A32892BB9F7EC14FD04A1F36E01E2E0E5
:10360000CE0ED11CCC0FDD1FC00FD11F1982188226
:103610001B821A82E7CF81EE95E0089580E008953D
:103620000F931F93CF93DF938B01BA01E9011982A6
:1036300018829801012E000C440B550BFC0181816E
:10364000928199DD019641F01983088380E0DF9132
:10365000CF911F910F91089581E0F9CF0F931F93A0
:10366000CF93DF931F921F92CDB7DEB7FB018A0184
:10367000B9019E012F5F3F4FAF01FC018181928113
:103680000E94E025019669F089819A81F801918371
:10369000808380E00F900F90DF91CF911F910F9169
:1036A000089581E0F7CFFC01808108950895089581
:1036B00081E0FB01808380E008950895109209065F
:1036C0000895FC01818192810C94C325CF93DF93EF
:1036D00000D000D000D01F92CDB7DEB7B0E0A0E0A0
:1036E00089839A83AB83BC83CB01770FAA0BBB0B77
:1036F0008D839E83AF83B8879E01275F3F4FAE01C6
:103700004F5F5F4F68E070E08091F8059091F90598
:1037100087DF811110C081E029853A852830310585
:1037200009F480E02A960FB6F894DEBF0FBECDBF35
:10373000DF91CF91089581E0F5CF0F931F93CF9341
:10374000DF931F921F92CDB7DEB78B019E012F5FD3
:103750003F4FAC018091F8059091F90561DF81112F
:103760000EC081E029813A812017310709F480E0F9
:103770000F900F90DF91CF911F910F91089581E0ED
:10378000F7CFCF93DF93EC011092FC051092FB056D
:103790001092080610920706AC0160E070E0CB01C1
:1037A0000E947D12AE0161E070E080E090E00E9436
:1037B0007D128091F8059091F905DF91CF917DCF31
:1037C0004F925F926F927F928F929F92AF92BF9231
:1037D000CF92DF92EF92FF920F931F93CF93DF93DD
:1037E0001F921F92CDB7DEB78C017C0197FF03C0FB
:1037F00087E0E80EF11C23E0F594E7942A95E1F7C1
:10380000C80168E070E00E94EA306C010E5F1F4F53
:103810008091F6059091F70580179107D4F4809177
:10382000F4059091F505009731F00E94F131109266
:10383000F7051092F605C8010E9455319093F505E1
:103840008093F405892B09F482C01093F705009347
:10385000F60510E000E047C1412C512C3201B12C9B
:10386000A12C950123503A4FAE014F5F5F4F61E0AD
:1038700070E08091F8059091F905F0DE811149C062
:10388000EFEF4E1A5E0A6E0A7E0AF0E94F16FFE568
:103890005F06F1E06F06710444F0609107067091D5
:1038A00008068DEE90E012DFD7CF89819A81A80EAD
:1038B000B91E8AE0A816B10409F043C049E050E0FF
:1038C00070E060E08DEF95E00E945726609107065A
:1038D00070910806882391F18091050690E0861783
:1038E000970781F4BC018EEE90E0F0DE8091070630
:1038F00090910806019699279093080680930706F1
:103900000F5F1F4F0E151F050CF4A6CFCD2809F031
:103910007CC090E080E00F900F90DF91CF911F91DD
:103920000F91FF90EF90DF90CF90BF90AF909F905E
:103930008F907F906F905F904F9008958FEE90E002
:10394000B2CFEAE0AE16B1040CF48BCFDBCF10E0BF
:1039500000E0D8CF0A30110531F549E050E070E0C1
:1039600060E08DEF95E00E94572660910706709108
:1039700008068823A9F08091050690E0861797072E
:1039800041F6BC018EEE90E0A1DE80910706909199
:103990000806019699279093080680930706B9CFE9
:1039A0008FEE90E02BC00A3011050CF0B2CF9801D9
:1039B00023503A4FAE014F5F5F4F61E070E080915E
:1039C000F8059091F9054ADE8111A3CF89819A818A
:1039D000080F191FFFEFCF1ADF0AEF0AFF0A80E96D
:1039E000C8168FE5D80681E0E806F1040CF4B2CFE2
:1039F00060910706709108068DEE90E067DE10E09A
:103A000000E0C12CD12C7601D2CFC12CD12C760173
:103A100010E000E0CCCF412C512C3201B12CA12C74
:103A2000480193E0880C991C9A95E1F72091F405E0
:103A30003091F505C501880D991D280F391FAE017C
:103A40004F5F5F4F61E070E08091F8059091F9055C
:103A500005DE81115ECFEFEF4E1A5E0A6E0A7E0A16
:103A600060910706709108068DEE90E0F0E94F1620
:103A7000FFE55F06F1E06F0671040CF043C0898139
:103A80009A81A80EB91E8AE0A816B10409F041C0B7
:103A900049E050E0B4018091F4059091F5050E9451
:103AA00057266091070670910806882349F1809196
:103AB000F4059091F505880E991EF401808590E03B
:103AC0008617970781F4BC018EEE90E0FFDD8091B0
:103AD000070690910806019699279093080680930F
:103AE00007060F5F1F4F0E151F050CF494CFC1146E
:103AF000D10409F081C08091F4059091F5050BCFB8
:103B00008FEE90E0E3DD412C512C3201B12CA12C41
:103B10008DCFFAE0AF16B1040CF488CFE4CF8FEE6E
:103B200090E0D4DDF12CE12C812C912C54019701F3
:103B300023503A4FAE014F5F5F4F61E070E08091DC
:103B4000F8059091F9058ADD8111E3CE8FEF881A8F
:103B5000980AA80AB80A60910706709108068DEEC7
:103B600090E0E0E98E16EFE59E06E1E0AE06B104D6
:103B7000C4F689819A81E80EF91EFAE0EF16F10485
:103B8000A9F549E050E070E060E08DEF95E00E941B
:103B900057266091070670910806882309F4BFCF65
:103BA0008091050690E08617970709F0A4CFBC0125
:103BB0008EEE90E08BDD83E0000F111F8A95E1F718
:103BC0008091F4059091F505A6016DEF75E0800FE9
:103BD000911F0E947A328091070690910806019603
:103BE0009927909308068093070685CF8AE0E81608
:103BF000F1040CF49CCF7FCF812C912C5401F12C3B
:103C0000E12C95CFCF92DF92EF92FF920F931F930B
:103C1000CF93DF931F92CDB7DEB76C017B018A0192
:103C2000452B39F0AB0170E060E0C8010E945326DB
:103C30008983B701C6014ADD81110DC00115110547
:103C400051F0B701C80179DD811105C061E070E074
:103C5000CE01019672DD0F90DF91CF911F910F91F0
:103C6000FF90EF90DF90CF900895CF92DF92EF9288
:103C7000FF92CF93DF9300D000D01F921F92CDB759
:103C8000DEB76B01F12CE12CC982DA82EB82FC8277
:103C90002D833E834F835887AE014F5F5F4F68E0AF
:103CA00070E0B0DF28960FB6F894DEBF0FBECDBF30
:103CB000DF91CF91FF90EF90DF90CF9008958F929A
:103CC0009F92AF92BF92CF92DF92EF92FF920F93AB
:103CD0001F93CF93DF937C01EB01CA01690170DD73
:103CE0000097B1F42FEF3FEFA90161E070E0C70149
:103CF000BCDFC1E08C2FDF91CF911F910F91FF901E
:103D0000EF90DF90CF90BF90AF909F908F900895ED
:103D1000FC0181909190A190B190BF01FCE1EF1660
:103D2000F10479F4A5019401CE010E94E310C82F9B
:103D3000A5019401882369F061E070E0C70195DF77
:103D4000D9CF95018401AB01B601CE010E94E60EE8
:103D5000EECF70E060E0C701DF91CF911F910F912E
:103D6000FF90EF90DF90CF90BF90AF909F908F909B
:103D70007CCF0F931F93CF93DF93EC018B014BDC30
:103D80009093F9058093F8050097A9F0A801BE016A
:103D9000E1DBEC01892B49F08091F8059091F90560
:103DA00085DC1092F9051092F805CE01DF91CF91D4
:103DB0001F910F910895C6E9D4E0EECF8091F805E8
:103DC0009091F90570CC2F923F924F925F926F9233
:103DD0007F928F929F92AF92BF92CF92DF92EF929B
:103DE000FF920F931F93CF93DF93CDB7DEB7699701
:103DF0000FB6F894DEBF0FBECDBF2091FC05222385
:103E0000F1F05B8B4A8B6E877F87888B998B9A0149
:103E1000AB01BC01CE0101967C013FD810E048E027
:103E2000242E312CE88EF98E89819A811816190674
:103E30000CF451C2112319F08A899B89A2DC69967E
:103E40000FB6F894DEBF0FBECDBFDF91CF911F91AB
:103E50000F91FF90EF90DF90CF90BF90AF909F9029
:103E60008F907F906F905F904F903F902F9008952C
:103E7000EB81FC818C859D8533E0880F991F3A95F5
:103E8000E1F7E80FF91F808191819093F30580930A
:103E9000F20524813581428153815093F10540938D
:103EA000F005468157815093EF054093EE05820F50
:103EB000931F9C01990F440B550B2C8B3D8B4E8B04
:103EC0005F8B812C912C54018C899D89AE89BF898F
:103ED00088169906AA06BB0640F18C859D85880F39
:103EE000991FED81FE81E80FF91F4E855F85688976
:103EF0007989808191810E94AF12AC85BD85119630
:103F0000BD87AC8789819A81EC85FD85E817F90723
:103F10000CF4AECF2A893B894E855F856889798903
:103F2000888D998D0E944D177FCF1F826091F20579
:103F30007091F305CB01072E000CAA0BBB0B84017B
:103F40007501640134E0C30ED11CE11CF11CC816DC
:103F5000D906EA06FB0608F0B3C02091F0053091BF
:103F6000F105A4014C5F5F4F240F351FF901C0809C
:103F7000D12CF12CE12C24013501F5E04F0E511C20
:103F8000611C711C481659066A067B0608F0A3C01E
:103F90002091F0053091F105F8013596E20FF31FFD
:103FA0002081D22A2401350126E0420E511C611CD9
:103FB000711C481659066A067B0608F097C02091C6
:103FC000F0053091F105F8013696E20FF31F2081DC
:103FD000E22A2401350137E0430E511C611C711C9B
:103FE000481659066A067B0608F08BC02091F0053A
:103FF0003091F105F8013796E20FF31F2081260179
:104000003701722A7501640148E0C40ED11CE11C1D
:10401000F11C8C159D05AE05BF0508F41DC1881661
:104020009906AA06BB0608F077C08091F00590912A
:10403000F105800F911F68E070E07FDBE091F205F1
:10404000F091F3059F010F2E000C440B550BD3018B
:10405000C2018C0D9D1DAE1DBF1D281739074A07D3
:104060005B0708F478C0C216D306E406F50608F02C
:104070005DC08091F0059091F1059801285F3F4F58
:10408000820F931FB20159DB8091F2059091F305E5
:10409000AC01092E000C660B770BC416D506E6069C
:1040A000F70608F04DC0085F1F4F8091F005909112
:1040B000F105800F911FA20170E060E0F4D5A7C068
:1040C00044E050E0461B570B480D591D2091EE056A
:1040D0003091EF0549CFE5E0F0E0E61BF70BE00F8C
:1040E000F11F2091EE053091EF0558CFE6E0F0E0AA
:1040F000E61BF70BE00FF11F2091EE053091EF0565
:1041000064CFE7E0F0E0E61BF70BE00FF11F209132
:10411000EE053091EF0570CF9801261B370B80918B
:10412000EE059091EF05820F931F85CF91012E1B15
:104130003F0B200F311F8091EE059091EF05A0CF2E
:10414000D101A81BB90BCD01080F191F8091EE05F5
:104150009091EF05AECFBF0168507109601B710BE4
:10416000C216D306E406F50608F062C08091F00599
:104170009091F1059801285F3F4F820F931FDDDA80
:104180008091F2059091F305B101681B790B600FE6
:10419000711F640D751D8091EE059091EF05CDDACC
:1041A0008091F2059091F305AC0148505109FA0154
:1041B000E01BF10BAC01092E000C660B770BC4164B
:1041C000D506E606F70608F03DC08091F00590910F
:1041D000F1059801285F3F4F820F931FAF0170E0F8
:1041E00060E061D58F832091F2053091F305F101F4
:1041F000E21BF30B9F01200F311F240D351D50E0F2
:1042000040E0682F8091EE059091EF0538D58F83BF
:1042100061E070E0CE01079690DA182F38E0430E87
:10422000511C611C711C840C951CA61CB71C4CCE27
:1042300091012E1B3F0B200F311F8091EE059091B5
:10424000EF059BCF9101281B390B200F311F809167
:10425000EE059091EF05C0CF88169906AA06BB0619
:1042600068F5601B710B8091F0059091F105800F4E
:10427000911F63DA8091F2059091F305B101681BFB
:10428000790B600F711F640D751D8091EE05909183
:10429000EF0553DA8091F2059091F305AC01092EF8
:1042A000000C660B770BC416D506E606F70608F475
:1042B000FACE9101281B390BC90146CFC801861BD4
:1042C000970B2091EE053091EF05B201685F7F4FAB
:1042D000820F931FDECF1D861C8614CECF93DF93F3
:1042E000EC01AC0160E070E0CB016DDDAE0161E09E
:1042F00070E080E090E0DF91CF9165CDCF93809129
:10430000F8059091F9058AD9C82F81110BC060E09A
:1043100070E0CB010E94A80D61E070E080E090E0C9
:104320000E94A80D8C2FCF9108950F931F938901A0
:104330009A01AB01BC018091F8059091F905B7D9BC
:104340001F910F9108954F925F926F927F928F927B
:104350009F92AF92BF92CF92DF92EF92FF920F9314
:104360001F93CF93DF93CDB7DEB763970FB6F89463
:10437000DEBF0FBECDBF6C018B015A018091FC05E1
:10438000882309F43DC08091FC05882309F442C0CC
:104390008091FB051A821982882309F4C0C0F0E9D4
:1043A0004F2EFFE55F2E66246394712CF12CE12CD7
:1043B00097012C513A4FAE014F5F5F4F61E070E0C3
:1043C0008091F8059091F90549D9982E811169C01D
:1043D00089819A81E80EF91EE114F10409F461C0A3
:1043E00081E0481A51086108710859F56091070683
:1043F000709108068DEE90E069D91A82198251C039
:104400006CEF75E08091F8059091F90551D98823FA
:1044100009F4B9CF63960FB6F894DEBF0FBECDBFD7
:10442000DF91CF911F910F91FF90EF90DF90CF9090
:10443000BF90AF909F908F907F906F905F904F90C4
:104440000895AAE0EA16F10409F063C049E050E0DB
:1044500070E060E084EE95E02AD4609107067091E8
:104460000806882309F452C08091EC0590E0861775
:10447000970719F6BC018EEE90E028D988E0E4EEAB
:10448000F5E0DE01199601900D928A95E1F7809191
:104490000706909108060196992790930806809345
:1044A000070681E029813A81121613060CF080E09C
:1044B0009110CAC2882309F4ADCF8091FB05811108
:1044C00004C019861A861B861C8689859A85AB8549
:1044D000BC8580319105A105B10508F09BCFFC0199
:1044E0008827EA58FD4D8F4F0C941F31F622B524D2
:1044F00024250A22FA232D24E622EE22CA220925A7
:10450000F82405250A220A220A22B5228FEE90E01D
:1045100073CFBAE0EB16F1040CF44ACFC2CFF12C02
:10452000E12CE8E06E2E712C29E030E02C0F3D1FCD
:104530002E0D3F1DAE014F5F5F4FB3016E197F0916
:104540008091F8059091F90589D8982E29813A81B2
:10455000811109C0E20EF31EE114F10421F0E8E03C
:10456000EE16F1040CF381E09FCFD6011696ED9183
:10457000FC9180819181A281B38189839A83AB83ED
:10458000BC83AE014F5F5F4F64E070E085E190E077
:1045900039DB40CF8D859E8513D92FEF3FEFA901E1
:1045A00061E070E0009771F0FC01C080D180E28092
:1045B000F380A801C701B6010E942812A701960145
:1045C00070E060E08DE190E050DB24CF4D855E85AA
:1045D0009801B6018BE190E072DB1CCF4D855E85C2
:1045E0002FEF3FEFB6018CE190E0F6CFD6011496A5
:1045F000ED91FC9100811181F80182809380A0806F
:10460000B18070E1472E512C612C712C49825A8265
:104610006B827C8288E090E0A0E0B0E08D839E8396
:10462000AF83B8879E012F5E3F4FAE014F5F5F4F54
:1046300068E070E08091F8059091F9050E94101BE8
:104640008823D9F010E000E0C80163960FB6F89413
:10465000DEBF0FBECDBFDF91CF911F910F91FF90B5
:10466000EF90DF90CF90BF90AF909F908F907F9012
:104670006F905F904F900C94F13189899A890897D7
:1046800009F7D801ED90FC90B8E0EB0EF11CEE0CB0
:10469000FF1CEE0CFF1CC7010E9455318C01892BB9
:1046A00089F249825A826B827C82C7010F2C000CEE
:1046B000AA0BBB0B8D839E83AF83B8879E012F5EB1
:1046C0003F4FAE014F5F5F4F68E070E08091F805AB
:1046D0009091F9050E94101B8111B6CF89899A89A2
:1046E000089709F0B1CFD6011296ED91FC91408167
:1046F000518162817381D8014D935D936D937C9359
:104700001397448155816681778114964D935D930B
:104710006D937C93179740855185628573851896B4
:104720004D935D936D937C931B9784859585A685AA
:10473000B785F80184879587A687B787108A118A7D
:10474000128A138A84E090E0A0E0B0E0848B958B1D
:10475000A68BB78B8091DC039091DD03B0E0A0E0E5
:10476000808F918FA28FB38FC5010B2C000CAA0BE9
:10477000BB0B848F958FA68FB78FF401D8019096CD
:1047800090E080E08A159B055CF19E012F5E3F4F13
:10479000A801B7018091F8059091F9050E94101BBE
:1047A000811152CF89899A89E816F90609F04CCF10
:1047B000A70170E060E0C80176D28B8B9E012F5E6E
:1047C0003F4FAE014D5E5F4F61E070E08091F805B4
:1047D0009091F9050E94101B81E08093FB0534CF76
:1047E0004191519170E060E04D935D936D937D93A5
:1047F0000196C8CF8D859E85AF85B8890097A105A4
:10480000B10521F481E08093FA0504CE0E94E01BFB
:10481000009781F481E090E0A0E0B0E089839A8382
:10482000AB83BC83AE014F5F5F4F64E070E082E119
:1048300090E0AECEBC01C6010E94020D19821A8220
:104840001B821C82AE014F5F5F4F64E070E082E12B
:1048500090E0D8D98823B1F2DDCDD6011496ED9140
:10486000FC910190F081E02DE084F1848FEF898349
:10487000E114F10409F472C0D7016D907C90C280FC
:10488000D38070E060E090E080E08615970594F0BA
:1048900083E190E00E94661B10E000E08111BACD38
:1048A000061517055CF161E070E0CE0101960E94EB
:1048B0009D1BB0CD9C0143E0220F331F4A95E1F7C9
:1048C000F701A281B381A20FB31F1296ED91FC9163
:1048D0001397EE0FFF1FEC0DFD1D0190F081E02DF1
:1048E00016964D915C91E49F9001E59F300DF49FE9
:1048F000300D1124620F731F0196C7CFD701129696
:10490000ED91FC91C80123E0880F991F2A95E1F7EA
:10491000E80FF91FA080B180A281B381AA0FBB1F4D
:10492000AC0DBD1D2D913C9186819781289F400142
:10493000299F900C389F900C1124B401C5010E944E
:104940009D1B582E940150E040E06981C50197D12C
:10495000898351105FCD0F5F1F4FA2CF70E060E0E1
:1049600083E190E00E94661B55CD50E040E070E08E
:1049700060E081E190E046D981114CCD60E070E0CB
:10498000CB010E94CD0E8091D205882329F0A80189
:1049900060E070E0CB0117DAA80160E070E0CB01C5
:1049A0000E94D40D61E070E080E090E00E94CD0EA6
:1049B0008091D205882331F0A80161E070E080E0A9
:1049C00090E001DAA80161E070E080E090E00E94F0
:1049D000D40D1092FC051092FB051092080610925F
:1049E00007068091F8059091F9050E945E1B12CD93
:1049F00081E090E09093D4058093D30550E040E0AF
:104A000070E060E086E190E0C3CD81E0F501808355
:104A100001CD8D859E850E94E01B2FEF3FEFA90100
:104A200061E070E0009769F0DC01CD90DD90ED90E1
:104A3000FC90C701B6010E948812A701960170E0A0
:104A400060E08EE190E0C0CDC8010E94C11BE2CCC5
:104A5000CF92DF92EF92FF92CF93DF93EC01C12CC4
:104A6000D12C7601C701B6010E94CD0EAE01C7015F
:104A7000B601A9D9AE01C701B6010E94D40D80913B
:104A8000F4059091F505009731F00E94F1311092F4
:104A9000F5051092F405CA94CD28CE28CF2879F5D3
:104AA0008091FB05F12C882351F050E040E070E04C
:104AB00060E084E190E0A6D8F82E1092FB0580918A
:104AC000FC05882341F01092FC0581E090E0909372
:104AD000DD038093DC038091F8059091F9050E9435
:104AE000611B8091F8059091F9050E94561B8F2D4E
:104AF000DF91CF91FF90EF90DF90CF900895C12C80
:104B0000D12C7601C394AECFCF93DF93EC01AC01EF
:104B100060E070E0CB010E94BD16AE0161E070E084
:104B200080E090E0DF91CF910C94BD1660E070E0E2
:104B3000CB010E942A1761E070E080E090E00C94C5
:104B40002A17CF92DF92EF92FF920F931F93CF938A
:104B5000DF93EC016A017B0100E010E098010E9404
:104B6000D81201E010E020E030E0B701A601CE014C
:104B70000E94D812DF91CF911F910F91FF90EF907B
:104B8000DF90CF90089568EE73E080E090E037D535
:104B900090E080E0089526E040E050E16EE070E0B3
:104BA00086E196E00E942C2E86E196E08BD7892B39
:104BB00021F086E196E0A0D7F7CF90E080E008955D
:104BC000CF92DF92EF92FF920F931F93CF93DF93D9
:104BD0006B017A01E9011982188286E196E072D7A9
:104BE000892B71F18601CC24C39485E6D82E80915F
:104BF0000906811111C086E196E07ED785369105C0
:104C0000B1F7C0920906F801D1928F01888199818C
:104C1000019699838883EBCF888199818E159F05B2
:104C200078F486E196E068D78F3F9807A9F3F801FA
:104C300081938F0188819981019699838883ECCF34
:104C400090E080E0DF91CF911F910F91FF90EF9066
:104C5000DF90CF9008950F931F93CF93DF93EA01D6
:104C6000890186E196E00E94BC30F801D183C083BF
:104C700090E080E0DF91CF911F910F910895DC01CA
:104C8000A40FB51F420F531F9D01281B390B24177A
:104C9000350710F0862F0895ED91E627F0E0EC51EE
:104CA000FF4F6491F1CF9A01AB016FEFE8CFCF9343
:104CB000FC01E60FF71FE40FF51FC081F4DF91E060
:104CC000C81390E0892FCF91089580910A0691E052
:104CD000980F90930A06882349F021E030E0309342
:104CE0000C0620930B0680930A06089578940E9480
:104CF0003704F89480910A06815080930A060C9438
:104D0000AC18FF920F931F93CF93DF931F92CDB7F1
:104D1000DEB710922D0910922C09A7D40E94361AE2
:104D20000091030410910404F8011182108270E0D4
:104D300060E090E080E00E94B5180E94610AF8945B
:104D40007894C80186960E94B41881E090E00E9491
:104D5000B0181982AE014F5F5F4F61E070E0F8015B
:104D6000828193810E945B188981882319F081E0F8
:104D7000F80182A70E94BA18F8940E94891AF801D3
:104D800080819181892B19F481E092A5911180E0B5
:104D900080932C0978947894FF24F39480912C09C3
:104DA000811110C00E94970B81E090E00E94B21820
:104DB000F89490E080E00F90DF91CF911F910F91D8
:104DC000FF9008951982AE014F5F5F4F61E070E080
:104DD000F801828193810E9496188981882311F0BD
:104DE000F801F2A6F80180819181892B89F481E094
:104DF00092A5911101C080E080932D0990912D0919
:104E000081E0911180E080932C090E94A81AC6CFFE
:104E100081E0F2CF5058BB27AA270ED00DC1FED09B
:104E200030F003D120F031F49F3F11F41EF4F3C0B1
:104E30000EF4E095E7FBE9C0E92F0FD180F3BA1734
:104E4000620773078407950718F071F49EF527C170
:104E50000EF4E0950B2EBA2FA02D0B01B901900195
:104E60000C01CA01A0011124FF27591B99F0593FD9
:104E700050F4503E68F11A16F040A22F232F342F21
:104E80004427585FF3CF469537952795A795F0406F
:104E90005395C9F77EF41F16BA0B620B730B840B84
:104EA000BAF09150A1F0FF0FBB1F661F771F881F3C
:104EB000C2F70EC0BA0F621F731F841F48F4879594
:104EC00077956795B795F7959E3F08F0B3CF939583
:104ED000880F08F09927EE0F97958795089571D060
:104EE00008F481E0089504D06894B111D9C0089500
:104EF000BCD088F09F5790F0B92F9927B751A0F0F8
:104F0000D1F0660F771F881F991F1AF0BA95C9F75D
:104F100012C0B13081F0C3D0B1E00895C0C0672F96
:104F2000782F8827B85F39F0B93FCCF3869577950D
:104F30006795B395D9F73EF49095809570956195F6
:104F40007F4F8F4F9F4F0895E89409C097FB3EF421
:104F500090958095709561957F4F8F4F9F4F9923C6
:104F6000A9F0F92F96E9BB279395F6958795779544
:104F70006795B795F111F8CFFAF4BB0F11F460FF04
:104F80001BC06F5F7F4F8F4F9F4F16C0882311F05C
:104F900096E911C0772321F09EE8872F762F05C070
:104FA000662371F096E8862F70E060E02AF09A950B
:104FB000660F771F881FDAF7880F9695879597F900
:104FC0000895990F0008550FAA0BE0E8FEEF16169A
:104FD0001706E807F907C0F012161306E407F507ED
:104FE00098F0621B730B840B950B39F40A2661F061
:104FF000232B242B252B21F408950A2609F4A14004
:10500000A6958FEF811D811D089597F99F6780E810
:1050100070E060E008959FEF80EC089500240A940A
:105020001616170618060906089500240A94121683
:105030001306140605060895092E0394000C11F4B6
:10504000882352F0BB0F40F4BF2B11F460FF04C063
:105050006F5F7F4F8F4F9F4F089557FD9058440FBC
:10506000551F59F05F3F71F04795880F97FB991FC7
:1050700061F09F3F79F08795089512161306140684
:10508000551FF2CF4695F1DF08C016161706180611
:10509000991FF1CF86957105610508940895E894EC
:1050A000BB2766277727CB0197F908958ADF08F495
:1050B0008FEF08950BD0C0CFB1DF28F0B6DF18F026
:1050C000952309F0A2CFA7CF1124EACFC6DFA0F322
:1050D000959FD1F3950F50E0551F629FF001729F8D
:1050E000BB27F00DB11D639FAA27F00DB11DAA1FAC
:1050F000649F6627B00DA11D661F829F2227B00DF9
:10510000A11D621F739FB00DA11D621F839FA00D83
:10511000611D221F749F3327A00D611D231F849FD3
:10512000600D211D822F762F6A2F11249F5750402A
:105130008AF0E1F088234AF0EE0FFF1FBB1F661FC5
:10514000771F881F91505040A9F79E3F510570F07E
:105150005CCFA6CF5F3FECF3983EDCF38695779566
:105160006795B795F795E7959F5FC1F7FE2B880F79
:10517000911D9695879597F908950895883008F0C0
:1051800076C0E82FF0E0EE0FFF1FE252FC4F718374
:1051900060838150873008F03DC0E82FF0E0882719
:1051A000EB52F74D8F4F0C941F311229DC28E42865
:1051B000F028FD281E292B29809169008C7F482B1F
:1051C00040936900E89A089580916900837F440FB5
:1051D000551F440F551F482B40936900E99A0895C5
:1051E000809169008F7C74E0440F551F7A95E1F738
:1051F000482B40936900EA9A0895809169008F7363
:1052000066E0440F551F6A95E1F7482B409369000B
:10521000EB9A089580916A008C7F482B40936A0036
:10522000EC9A089580916A00837F440F551F440FC4
:10523000551F482B40936A00ED9A089580916A00AB
:105240008F7C24E0440F551F2A95E1F7482B4093AB
:105250006A00EE9A089580916A008F7396E0440F79
:10526000551F9A95E1F7482B40936A00EF9A0895ED
:105270001F920F920FB60F9211240BB60F922F931D
:105280003F934F935F936F937F938F939F93AF93CE
:10529000BF93EF93FF93E091E203F091E30319953D
:1052A000FF91EF91BF91AF919F918F917F916F91FE
:1052B0005F914F913F912F910F900BBE0F900FBEBA
:1052C0000F901F9018951F920F920FB60F921124F6
:1052D0000BB60F922F933F934F935F936F937F93F0
:1052E0008F939F93AF93BF93EF93FF93E091E4036A
:1052F000F091E5031995FF91EF91BF91AF919F91C7
:105300008F917F916F915F914F913F912F910F906E
:105310000BBE0F900FBE0F901F9018951F920F920B
:105320000FB60F9211240BB60F922F933F934F930A
:105330005F936F937F938F939F93AF93BF93EF93FD
:10534000FF93E091E603F091E7031995FF91EF9148
:10535000BF91AF919F918F917F916F915F914F918D
:105360003F912F910F900BBE0F900FBE0F901F908B
:1053700018951F920F920FB60F9211240BB60F9231
:105380002F933F934F935F936F937F938F939F934D
:10539000AF93BF93EF93FF93E091E803F091E9039C
:1053A0001995FF91EF91BF91AF919F918F917F914F
:1053B0006F915F914F913F912F910F900BBE0F9086
:1053C0000FBE0F901F9018951F920F920FB60F925D
:1053D00011240BB60F922F933F934F935F936F93CC
:1053E0007F938F939F93AF93BF93EF93FF93E0913E
:1053F000DE03F091DF031995FF91EF91BF91AF911B
:105400009F918F917F916F915F914F913F912F91DC
:105410000F900BBE0F900FBE0F901F9018951F920C
:105420000F920FB60F9211240BB60F922F933F934A
:105430004F935F936F937F938F939F93AF93BF939C
:10544000EF93FF93E091E003F091E1031995FF9151
:10545000EF91BF91AF919F918F917F916F915F91EC
:105460004F913F912F910F900BBE0F900FBE0F9059
:105470001F9018951F920F920FB60F9211240BB622
:105480000F922F933F934F935F936F937F938F93DD
:105490009F93AF93BF93EF93FF93E091EA03F09153
:1054A000EB031995FF91EF91BF91AF919F918F9170
:1054B0007F916F915F914F913F912F910F900BBE14
:1054C0000F900FBE0F901F9018951F920F920FB65E
:1054D0000F9211240BB60F922F933F934F935F932C
:1054E0006F937F938F939F93AF93BF93EF93FF93AC
:1054F000E091EC03F091ED031995FF91EF91BF91CD
:10550000AF919F918F917F916F915F914F913F915B
:105510002F910F900BBE0F900FBE0F901F901895FC
:105520001F920F920FB60F9211242F933F938F93D8
:105530009F93AF93BF9380910E0690910F06A09119
:105540001006B091110630910D0623E0230F2D3780
:1055500058F50196A11DB11D20930D0680930E06EE
:1055600090930F06A0931006B09311068091120637
:1055700090911306A0911406B09115060196A11DF5
:10558000B11D8093120690931306A0931406B09356
:105590001506BF91AF919F918F913F912F910F90E1
:1055A0000FBE0F901F90189526E8230F0296A11D9D
:1055B000B11DD2CF3FB7F894809112069091130697
:1055C000A0911406B091150626B5A89B05C02F3FE3
:1055D00019F00196A11DB11D3FBFBA2FA92F982F19
:1055E0008827BC01CD01620F711D811D911D42E014
:1055F000660F771F881F991F4A95D1F708958F92DC
:105600009F92AF92BF92CF92DF92EF92FF926B0187
:105610007C01D0DF4B015C01C114D104E104F10431
:10562000D9F0D7D5C7DF681979098A099B09683E7F
:1056300073408105910580F321E0C21AD108E10889
:10564000F10888EE880E83E0981EA11CB11CC114DD
:10565000D104E104F10431F7FF90EF90DF90CF9097
:10566000BF90AF909F908F900895789484B582609A
:1056700084BD84B5816084BD85B5826085BD85B5F6
:10568000816085BDEEE6F0E0808181608083E1E8A5
:10569000F0E01082808182608083808181608083DD
:1056A000E0E8F0E0808181608083E1EBF0E08081E0
:1056B00084608083E0EBF0E0808181608083E1E9B9
:1056C000F0E0808182608083808181608083E0E976
:1056D000F0E0808181608083E1EAF0E08081826097
:1056E0008083808181608083E0EAF0E08081816056
:1056F0008083E1E2F1E0808182608083808181604B
:105700008083E0E2F1E0808181608083EAE7F0E07D
:1057100080818460808380818260808380818160D9
:1057200080838081806880831092C10008951F93D8
:10573000CF93DF93182FEB0161E033D1209731F441
:1057400060E0812FDF91CF911F9167C1CF3FD105DD
:1057500011F461E0F6CFE12FF0E0EC51FE4FE4915F
:10576000E150E23108F0B2C0F0E08827E654F44D91
:105770008F4F65C5CC2BD42BD92BE32BED2B662C6F
:10578000F72BFF2B072C112C1B2C252C342C3E2CFB
:10579000662C482C522C5C2C84B5806884BDC7BD17
:1057A000DF91CF911F91089584B5806284BDC8BDFB
:1057B000F7CF80918000806880938000D09389002B
:1057C000C0938800EDCF809180008062809380003C
:1057D000D0938B00C0938A00E3CF809180008860D3
:1057E00080938000D0938D00C0938C00D9CF80919E
:1057F000B00080688093B000C093B300D1CF809197
:10580000B00080628093B000C093B400C9CF809193
:105810009000806880939000D0939900C093980086
:10582000BFCF80919000806280939000D0939B00C6
:10583000C0939A00B5CF80919000886080939000CB
:10584000D0939D00C0939C00ABCF8091A000806856
:105850008093A0008091A0008F7B8093A000D093C4
:10586000A900C093A8009CCF8091A0008062809383
:10587000A000D093AB00C093AA0092CF8091A0006B
:1058800088608093A000D093AD00C093AC0088CF17
:1058900080912001806880932001D0932901C093DA
:1058A00028017ECF80912001806280932001D093D7
:1058B0002B01C0932A0174CF8091200188608093CE
:1058C0002001D0932D01C0932C016ACFC038D1059F
:1058D0000CF03FCF35CF8150823108F059C0E82F0E
:1058E000F0E08827EA58F34D8F4FA9C4962C9A2CE4
:1058F000882C8E2C922CC82C9D2CA32CA72CAD2C44
:10590000B12CB52CBB2CBF2CC82CC32CC92CCD2C36
:10591000809180008F77809380000895809180002F
:105920008F7DF9CF80918000877FF5CF84B58F7709
:1059300084BD089584B58F7DFBCF8091B0008F77B3
:105940008093B00008958091B0008F7DF9CF809151
:1059500090008F77809390000895809190008F7DC4
:10596000F9CF80919000877FF5CF8091A0008F774D
:105970008093A00008958091A0008F7DF9CF809141
:10598000A000877FF5CF809120018F778093200141
:105990000895809120018F7DF9CF80912001877F2C
:1059A000F5CFCF93DF9390E0FC01E65DFD4F2491AE
:1059B00080599D4FFC0184918823C9F090E0880FA5
:1059C000991FFC01E651FD4FA591B491FC01E053F4
:1059D000FD4FC591D49161110DC09FB7F8948C9182
:1059E000209582238C938881282328839FBFDF9171
:1059F000CF910895623051F49FB7F8943C91822F73
:105A0000809583238C93E8812E2BEFCF8FB7F8946A
:105A1000EC912E2B2C938FBFEACF1F93CF93DF9364
:105A2000282F30E0F901EC51FE4F8491F901E65D39
:105A3000FD4FD491F901E059FD4FC491CC23A1F061
:105A4000162F811148DFEC2FF0E0EE0FFF1FE0531F
:105A5000FD4FA591B4918FB7F894EC91111108C046
:105A6000D095DE23DC938FBFDF91CF911F910895F6
:105A7000DE2BF8CFCF93DF93282F30E0F901EC51E4
:105A8000FE4F8491F901E65DFD4FD491F901E05993
:105A9000FD4FC491CC2399F081111DDFEC2FF0E074
:105AA000EE0FFF1FEA54FD4FA591B491EC91ED2349
:105AB00081E090E009F480E0DF91CF91089580E0EB
:105AC00090E0FACFFC01918D228D892F90E0805CCF
:105AD0009F4F821B91098F7399270895FC01918D27
