:1000000085C100000C9430270C945B270C94862744
:100010000C94B1270C94DC270C9407280C943228FC
:100020000C945D28A4C10000A2C10000A0C1000082
:100030009EC100009CC100009AC1000098C1000050
:1000400096C1000094C1000092C1000090C1000060
:100050008EC100008CC100008AC100000C94882869
:1000600086C100000C94842C0C94BA2C80C1000032
:100070007EC100007CC100007AC1000078C1000090
:1000800076C1000074C1000072C1000070C10000A0
:100090000C94102D0C94462D6AC1000068C100001C
:1000A00066C1000064C1000062C1000060C10000C0
:1000B0005EC100005CC100005AC1000058C10000D0
:1000C00056C1000054C100000C9453180C949C2D90
:1000D0000C94D22D4CC100000C94282E0C945E2E52
:1000E00046C10000001D3A2774694E53E8F5D2CF8F
:1000F0009C81A6BBCDD0F7EAB9A4839E25381F0208
:10010000514C6B76879ABDA0F3EEC9D46F725548F7
:100110001B06213C4A57706D3E230419A2BF9885E7
:10012000D6CBECF1130E2934677A5D40FBE6C1DCD7
:100130008F92B5A8DEC3E4F9AAB7908D362B0C11C7
:10014000425F78659489AEB3E0FDDAC77C61465BB7
:100150000815322F5944637E2D30170AB1AC8B96A7
:10016000C5D8FFE2263B1C01524F6875CED3F4E997
:10017000BAA7809DEBF6D1CC9F82A5B8031E392487
:10018000776A4D50A1BC9B86D5C8EFF24954736E77
:100190003D20071A6C71564B1805223F8499BEA367
:1001A000F0EDCAD735280F12415C7B66DDC0E7FA57
:1001B000A9B4938EF8E5C2DF8C91B6AB100D2A3747
:1001C00064795E43B2AF8895C6DBFCE15A47607D37
:1001D0002E3314097F6245580B16312C978AADB027
:1001E000E3FED9C400000A0B02090C0D0E08070338
:1001F00004010000000000000000000000000000FA
:1002000000000000000000000000000000000000EE
:1002100012111000000000000000000000000000AB
:100220000000000000000000000001021020200873
:100230000810204010204080020102010804020141
:1002400001020408102040808040201008040201B0
:100250008004020180402010080402010804020109
:100260000102040810204080010204081020408090
:1002700005050505070508080808020202020A0A22
:100280000808040404040101010101010101030340
:10029000030303030303040707070C0C0C0C0C0CEB
:1002A0000C0C0202020206060606060606060B0BE8
:1002B0000B0B0B0B0B0B000020002300260029006A
:1002C0002C002F003200000100000301060109018B
:1002D00000002200250028002B002E0031003400F1
:1002E00002010000050108010B01000021002400AB
:1002F00027002A002D003000330001010000040116
:1003000007010A01E32C6F2DFB2D872E11241FBE40
:10031000CFEFD1E2DEBFCDBF00E00CBF14E0A0E024
:10032000B2E0EAE1F1E600E00BBF02C007900D92F7
:10033000A037B107D9F728E0A0E7B4E001C01D92CB
:10034000A83AB207E1F711E0C6E8D1E000E006C044
:1003500021970109802FFE010E94172FC238D10773
:1003600080E00807A9F70E9479240C948B3048CECE
:10037000611102C00C94C92A6130E1F362E0FACF46
:10038000662319F061E00C94052B60E0FCCF089522
:10039000CF92DF92EF92FF92CF93882351F16A01BF
:1003A0007B01CFEFC80F20E030E0A901CB01B601FF
:1003B0000E94672587FF11C0C701B60190580E94AF
:1003C00070259B01AC016C2F70E090E080E0CF9134
:1003D000FF90EF90DF90CF90B2C0C701B6010E94AE
:1003E0006B258C2FCF91FF90EF90DF90CF900C94E6
:1003F0008F29CF91FF90EF90DF90CF9008950F93CA
:100400001F938B019C0183E03695279517950795DF
:100410008A95D1F700591B4F462F477021E030E0F5
:10042000F90102C0EE0FFF1F4A95E2F7AF01F80194
:1004300020812423CB010196211102C090E080E0AD
:100440001F910F9108950F931F938B019C0183E0DF
:1004500036952795179507958A95D1F7677081E0AE
:1004600090E001C0880F6A95EAF7F801E059FB4F68
:100470002081452B31F48095822380831F910F9139
:100480000895822BFACF2F923F924F925F926F92F4
:100490007F928F929F92AF92BF92CF92DF92EF9214
:1004A000FF920F931F93CF93DF93D62EC72E782EF4
:1004B000692E49015A01280161E08D2D0E94C92A47
:1004C000CD2DDC2D8E010F5F1F4FA8016D2D7C2DD2
:1004D000872D962DB8DF20E030E0A901C201B701D9
:1004E0000E944E26181664F4C201B7010E947025BE
:1004F0002B01C501B4010E947025A201CE0123D0B9
:10050000C801DF91CF911F910F91FF90EF90DF9085
:10051000CF90BF90AF909F908F907F906F905F90A3
:100520004F903F902F900895882341F08150682F7D
:1005300070E090E080E050E040E085CF0895862FA5
:10054000B9010C948F299C01FC01EC51FE4FE49100
:10055000E150E231E0F4F0E08827EE54FD4F8F4F98
:100560000C94172FC402CB02CE02E502FA02C70296
:100570000F031B031F0336034B03600377038C0336
:10058000C702A103B803CD0384B5806884BD60E0D1
:10059000822F0C94052B84B58062F8CF8091800067
:1005A0008C7F82608093800080918100807E80615A
:1005B000682B609381005093870040938600809160
:1005C0008000806880938000E2CF809180008C7FE3
:1005D00082608093800080918100807E8061682BA2
:1005E0006093810050938700409386008091800043
:1005F0008062E8CF809180008C7F82608093800051
:1006000080918100807E8061682B6093810050938F
:10061000870040938600809180008860D3CF8091CE
:10062000B00080688093B0008091B100887F682B13
:100630006093B100ACCF8091B0008062F3CF809125
:1006400090008C7F82608093900080919100807EEA
:100650008061682B609391005093970040939600BF
:100660008091900080688093900091CF809190005D
:100670008C7F82608093900080919100807E806169
:10068000682B60939100509397004093960080915F
:1006900090008062E8CF809190008C7F8260809390
:1006A000900080919100807E8061682B6093910022
:1006B0005093970040939600809190008860D3CF2C
:1006C0008091A0008C7F82608093A0008091A10027
:1006D000807E8061682B6093A1005093A7004093B7
:1006E000A6008091A00080688093A00050CF8091E8
:1006F000A0008C7F82608093A0008091A100807E0A
:100700008061682B6093A1005093A7004093A600DE
:100710008091A0008062E8CF8091A0008C7F8260F1
:100720008093A0008091A100807E8061682B6093FF
:10073000A1005093A7004093A6008091A00088607C
:10074000D3CF809120018C7F8260809320018091A3
:100750002101807E8061682B6093210150932701E5
:1007600040932601809120018068809320010FCF63
:10077000809120018C7F82608093200180912101F3
:10078000807E8061682B6093210150932701409304
:100790002601809120018062E8CF809120018C7F2A
:1007A00082608093200180912101807E8061682B8E
:1007B00060932101509327014093260180912001ED
:1007C0008860D3CF60E070E080E89FE7089560E044
:1007D00070E080E89FE7089560E070E080E89FEFB8
:1007E000089560E070E080E89FEF089560E070E0B9
:1007F00080EC9FEF089560E070E080EC9FEF08953B
:10080000F5DF609332087093330880933408909337
:100810003508F1DF60932608709327088093280835
:1008200090932908CFDF60932E0870932F08809350
:10083000300890933108CBDF60932A0870932B081F
:1008400080932C0890932D08C7DF6093360870932F
:1008500037088093380890933908C3DF60933A08CB
:1008600070933B0880933C0890933D0808950F9344
:100870001F938B019C010027112720783F770115DA
:10088000110520483F4749F4AB01BC016F7777273A
:1008900081E0452B462B472B09F480E01F910F91F7
:1008A0000895E5CF4F925F926F927F928F929F92C1
:1008B000AF92BF92CF92DF92EF92FF92CF93DF93EE
:1008C00080917F088150823008F402C280E08093DA
:1008D0007F0822E538E04EE958E06CE978E086E6EA
:1008E00093E00E94B61760919E0870919F08072EB2
:1008F000000C880B990B0E949E259B01AC01609116
:1009000006037091070380910803909109030E94E8
:100910005226609380087093810880938208909398
:10092000830860919C0870919D08072E000C880B2D
:10093000990B0E949E2520910A0330910B03409150
:100940000C0350910D030E9403256B017C018090E4
:10095000120390901303A0901403B0901503AC0100
:100960009B01C501B4010E94672587FFB3C1A501A2
:100970009401C701B6010E9402252091160330910F
:10098000170340911803509119030E9452264B01FE
:100990005C018092840890928508A0928608B092AB
:1009A000870820E030E0A90160911A0370911B03D1
:1009B00080911C0390911D030E946725882309F4F0
:1009C0009EC18091020390910303A0910403B09112
:1009D000050380935A0890935B08A0935C08B0933A
:1009E0005D088091FE029091FF02A0910003B091FA
:1009F00001038093620890936308A0936408B09306
:100A00006508C0905E08D0905F08E0906008F090A4
:100A10006108C0928808D0928908E0928A08F09212
:100A20008B0820912203309123034091240350919D
:100A30002503C701B6010E9452264B015C0120E04C
:100A400030E0A9010E944E2618160CF0A3C1809137
:100A5000620890916308A0916408B0916508809342
:100A60008C0890938D08A0938E08B0938F082091E6
:100A70008C0830918D0840918E0850918F086091BC
:100A8000F6027091F7028091F8029091F9020E94AB
:100A900052262B013C01409290085092910860929E
:100AA0009208709293088090840890908508A09096
:100AB0008608B09087082091260330912703409143
:100AC000280350912903C701B6010E944E2618162B
:100AD00044F4D1E0A5019401C301B2010E9467254D
:100AE00087FFD0E0D093A00820912E0330912F03F0
:100AF0004091300350913103C701B6010E94672530
:100B000087FF5BC1C1E0A5019401C301B2010E944E
:100B10004E2618160CF0C0E08C2F8093A108DD2320
:100B200009F44DC1C090EE02D090EF02E090F002C7
:100B3000F090F10220913603309137034091380351
:100B400050913903C501B4010E9452264B015C014A
:100B500020915608309157084091580850915908F3
:100B60000E9402252B013C0120E030E0A9010E94F7
:100B70004E2618160CF037C180913A0390913B0332
:100B8000A0913C03B0913D03809394089093950805
:100B9000A0939608B093970820E030E0A901C70120
:100BA000B6010E944E2618160CF02FC1A70196011F
:100BB00060918008709181088091820890918308EB
:100BC0000E94672587FF21C18091520390915303B2
:100BD000A0915403B091550380939808909399087D
:100BE000A0939A08B0939B08609098087090990819
:100BF000D0919A08C0919B08C0905603D09057039B
:100C0000E0905803F0905903A7019601B3018D2F8E
:100C10009C2F0E944E261816A4F0C0905A03D09024
:100C20005B03E0905C03F0905D03A7019601B301C4
:100C30008D2F9C2F0E94672587FD03C06301ED2E39
:100C4000FC2E20915E0330915F0340916003509130
:100C50006103C701B6010E9452262B013C0120E02E
:100C600030E0A9010E94672587FD30C020E030E018
:100C7000A901C301B2010E944E2618160CF4EEC061
:100C800020E030E0A901C301B2010E94672588235A
:100C900009F417C24090320850903308609034082D
:100CA0007090350820E030E040E853E4C301B20121
:100CB0000E9467256FEF87FFDBC020E030E0A901CD
:100CC000C301B2010E944E2687FFCEC060E0D0C0B3
:100CD00083E0FDCD80900E0390900F03A090100351
:100CE000B0901103A7019601C501B4010E946725C8
:100CF00018160CF43CCE60E070E0CB013ECEC09004
:100D00005A08D0905B08E0905C08F0905D08A7015D
:100D10009601C501B4010E94672587FF2FC080910D
:100D2000840890918508A0918608B09187088093E7
:100D30005A0890935B08A0935C08B0935D08C0903C
:100D40006208D0906308E0906408F0906508A701FD
:100D50009601609184087091850880918608909131
:100D600087080E944E2618167CF480918408909182
:100D70008508A0918608B09187083BCEC701B601CF
:100D800090DD8111CCCFDBCFC701B6018ADD8111A7
:100D9000ECCF37CE20E030E0A901C501B4010E94BC
:100DA000672518160CF463CE80915A0890915B0861
:100DB000A0915C08B0915D0852CE80E0AECE882351
:100DC00049F0C090F202D090F302E090F402F0906B
:100DD000F502B0CEC0903203D0903303E0903403DC
:100DE000F0903503A7CE20E030E0A901C301B201A5
:100DF0000E94672587FFD0CE80913E0390913F03EC
:100E0000A0914003B0914103BFCE20E030E0A901A2
:100E1000C701B6010E94672587FF17C0A701960189
:100E20006091800870918108809182089091830878
:100E30000E944E2618164CF480914E0390914F0359
:100E4000A0915003B0915103C7CE80914A03909175
:100E50004B03A0914C03B0914D03BECE412C512CBD
:100E600090E8692E9FE3792EC301B2010E9470259C
:100E70008AE086DA609146087091470880914808B8
:100E800090914908BCDAEC0190934508809344089E
:100E9000C701B6019F7720916203309163034091AF
:100EA0006403509165030E9452266B017C0120E08F
:100EB00030E04FE753E40E94672587FF06C120E03A
:100EC00030E0A901C701B6010E944E2618160CF0A9
:100ED00003C1B701A601CE015BDA22E538E04EE995
:100EE00058E06CE978E086E693E00E94E817C0904D
:100EF0009408D0909508E0909608F0909708C70164
:100F0000B6019F77209146033091470340914803F3
:100F1000509149030E944E2618160CF0E1C0C09271
:100F20005E08D0925F08E0926008F09261088092BB
:100F3000560890925708A0925808B092590881E03C
:100F400090E00E94E4164091D1045091D204609147
:100F5000D3047091D40490E080E00E94E016809069
:100F6000E1049090E204A090E304B090E40420E057
:100F700030E040E85FEBC501B4010E94672588239B
:100F800031F1C090D104D090D204E090D304F0901D
:100F9000D404A7019601C501B4010E9402254B01AA
:100FA0005C0120E030E040E054E3C701B6010E945C
:100FB00052269B01AC01C501B4010E944E261816B1
:100FC00034F08BE793E09093BC048093BB04809152
:100FD000E504882331F08BE793E09093BC04809381
:100FE000BB04C090D504D090D604E090D704F09014
:100FF000D8048FEFC81AD80AE80AF80AC092D504B4
:10100000D092D604E092D704F092D804C114D1044F
:10101000E104F10499F48091D9049091DA04A0914B
:10102000DB04B091DC040196A11DB11D8093D904AD
:101030009093DA04A093DB04B093DC048090DD0489
:101040009090DE04A090DF04B090E0046091D90499
:101050007091DA048091DB049091DC040E949C255D
:10106000A50194010E94522620E030E040E85FE4B0
:101070000E9452262B013C01C701B6010E949C250B
:10108000A50194010E9452269B01AC01C301B2014B
:101090000E9403256093D1047093D2048093D304FB
:1010A0009093D404DF91CF91FF90EF90DF90CF9099
:1010B000BF90AF909F908F907F906F905F904F9078
:1010C0000895412C512C3201CFCEC12CD12C8FE769
:1010D000E82E83E4F82EFDCEC12CD12C7601F9CE7A
:1010E0008091880890918908A0918A08B0918B0816
:1010F00080935E0890935F08A0936008B0936108A6
:1011000016CF4F925F926F927F92BF92CF92DF92F3
:10111000EF92FF920F931F93CF93DF9384E090E0C1
:101120006FDBABEBB4E08BE2FD0111928A95E9F73E
:1011300040E050E060E87FEB96964D935D936D93B1
:101140007C9399974FE652E163E87AE392964D9348
:101150005D936D937C9395974AE954E160E071EB60
:1011600014964D935D936D937C93179745E157E6E5
:101170006CE871E318964D935D936D937C931B9788
:101180004DE951EC65E079E21C964D935D936D93CA
:101190007C931F9747E856EB69E575EA50964D93A7
:1011A0005D936D937C935397CFEAD4E01396DC93D1
:1011B000CE931297EDE8F4E0F983E8838FE893E0AB
:1011C0009183808393838283958384832FE738E0A0
:1011D000378326832EE738E03187208793878287FD
:1011E0009587848797878687918B808B8CE798E09B
:1011F000938B828B8DE798E0958B848B8BE798E0BF
:10120000978B868B8AE798E0918F808F89E798E0AB
:10121000938F828F88E798E0958F848F86E798E098
:10122000978F868F87E798E091A380A38FEC94E057
:101230009D838C838FEB94E09B838A8381ED94E084
:101240009F838E8380E8C82E88E0D82E82E2F60144
:1012500011928A95E9F7CEE3D8E082E4FE0111927B
:101260008A95E9F723E834E08AE0F90111928A953A
:10127000E9F7E9E7F4E05596FC93EE93549780E1A3
:1012800090E0918380838EEC92E0938382838EEA58
:1012900092E0958384838AE192E09783868386E057
:1012A00092E091878087BB24B394BFAA412C512C34
:1012B000320143944D865E866F86788A61E08AE0CB
:1012C00057D8B98A1882BEAA89E090E0A0E0B0E0C1
:1012D00088879987AA87BB871D8249825A826B8239
:1012E0007C82E12CF12C8701A801970169E070E074
:1012F00080E090E0C8D89F838E83688579858A8551
:101300009B857DD89F838E8342D8BD82EC8AFD8ADF
:101310000E8B1F8BEEEEF2E084899589A689B78942
:101320008C8F9D8FAE8FBF8F80A991A9A2A9B3A9E1
:1013300088A399A3AAA3BBA380899189A289B38911
:101340008CA39DA3AEA3BFA384859585A685B785F1
:10135000888F998FAA8FBB8F84AD95ADA6ADB7ADA1
:10136000F60184879587A687B7878091420390917D
:101370004303A0914403B0914503848B958BA68BC6
:10138000B78BDF91CF911F910F91FF90EF90DF907E
:10139000CF90BF907F906F905F904F900895809115
:1013A0004A08811103C081E080934A0880913E0879
:1013B000811134C081E080933E0880913F08909174
:1013C0004008A0914108B09142080197A105B105DC
:1013D00029F580914308882309F1609146087091AE
:1013E0004708809148089091490809D8909345088A
:1013F0008093440840E050E0BA010E94C801609127
:1014000046087091470880914808909149080E94C9
:10141000FF01909345088093440886C80895EF9291
:10142000FF920F931F93CF93DF93EA01F901DC0141
:101430001496ED90FC90159712964D915C91139730
:101440004E0D5F1D2881398118960D911C911997B9
:101450000217130730F00D911C911197012B09F41D
:1014600041C08A01021B130BDC0118968D919C91DF
:101470008E199F09800F911F86179707DCF1C9010C
:10148000860F971F8417950778F4718360833383E1
:101490002283158214821782168288819981680FAF
:1014A000791F7983688316C0118300833383228375
:1014B000601B710B7583648390E080E0161617063D
:1014C00014F49E2D8F2D96838783D701A60FB71F07
:1014D000B983A88380E0DF91CF911F910F91FF9096
:1014E000EF90089518968D919C91821B930B86170F
:1014F00097075CF681E0EFCFCF92DF92EF92FF92F9
:10150000CF93DF936B0184E4869FE001879FD00D2A
:101510001124CA51DB4F8AA99BA9009721F00E9490
:10152000E92F1BAA1AAA84E48C9DF0018D9DF00D71
:101530001124EA51FB4F86A997A9009711F00E9448
:10154000E92F84E48C9DF0018D9DF00D1124EA516A
:10155000FB4F138A128A168A178A108E118E128EEA
:10156000138E148E158E168E178E10A211A281E086
:1015700090E093A382A315A214A216A217A210A60C
:1015800011A613A612A615A614A616A617A610AA8B
:1015900011AA13AA12AA15AA14AA17AA16AA11AE5A
:1015A00010AE12AE13AE14AE15AEDF01DE961D9274
:1015B0001D921D921C921397EE5BFF4F11821082B9
:1015C000DF91CF91FF90EF90DF90CF900895CF9370
:1015D000DF93FB01DC016D917C91DB011696CD91CF
:1015E000DC918081918123E0880F991F2A95E1F792
:1015F000AA81BB81A80FB91F8D919C911197248559
:101600003585220F331FEB016A817B81EB01C20F0D
:10161000D31F0990D881C02D14962D913C9161E083
:1016200070E0232B11F062E070E0C69F9001C79F2D
:10163000300DD69F300D1124A085B1852A9FB001B1
:101640002B9F700D3A9F700D1124A481B5812A9FA4
:10165000F0012B9FF00D3A9FF00D11248E0F9F1F6C
:10166000FA019183808373836283DF91CF91089520
:101670002F923F924F925F926F927F928F929F92A2
:10168000AF92BF92CF92DF92EF92FF920F931F9390
:10169000CF93DF9300D000D0CDB7DEB7DC01149636
:1016A000ED91FC910190F081E02D808591859A83E8
:1016B0008983A281B381BC83AB83FB01819091902C
:1016C000A190B190C12CD12C7601C814D904EA04A0
:1016D000FB04CCF026960FB6F894DEBF0FBECDBF4C
:1016E000DF91CF911F910F91FF90EF90DF90CF90FE
:1016F000BF90AF909F908F907F906F905F904F9032
:101700003F902F9008954480558066807780408573
:10171000518562857385CF0140969E838D83A0811C
:10172000B1819D0183E0220F331F8A95E1F7A981E2
:10173000BA8112968D919C91D901A80FB91F2D9055
:101740003C9011970484F585E02DEE0FFF1F8B81EF
:101750009C81E80FF91F0190F081E02D14968D9186
:101760009C91892B41F581E090E0E89F9001E99FF1
:10177000300DF89F300D1124249F8001259F100DFE
:10178000349F100D1124249DC001259D900D349D82
:10179000900D1124A8016D817E81820D931D0E9400
:1017A0007230ED81FE81E00FF11F9FEFC91AD90A57
:1017B000E90AF90A8ACF82E090E0D7CFCF93DF938E
:1017C000DB01A959BC4F2C91222369F024E4269F08
:1017D000F001279FF00D1124EA51FB4FEF01199200
:1017E0002A95E9F71C9224E4269FF001279FF00D2B
:1017F0001124EA51FB4F148215821682178211863A
:10180000108613861286118A108A17861686DF9133
:10181000CF9172CE2F923F924F925F926F927F92B2
:101820008F929F92AF92BF92CF92DF92EF92FF92F0
:101830000F931F93CF93DF9300D000D01F921F927E
:10184000CDB7DEB724E4269FF001279FF00D1124C9
:10185000EA51FB4F0481158126813781012B022B30
:10186000032B09F4B7C02A016B017C0110E000E0F2
:10187000812C912C54013F019F01285F3F4F3C83F5
:101880002B83CF0104969E838D83AB81BC818D9188
:101890009C91ED81FE81408151816281738184162A
:1018A0009506A606B706E4F10E94E92FD3011A9621
:1018B0008D919C91892B09F07EC084E48C9DD00190
:1018C0008D9DB00D1124AA51BB4FBC83AB835096A4
:1018D0008D919C910E94E92FEB81FC8186859785F3
:1018E0000E94E92FC701B60107DEC701B60128969D
:1018F0000FB6F894DEBF0FBECDBFDF91CF911F9121
:101900000F91FF90EF90DF90CF90BF90AF909F909E
:101910008F907F906F905F904F903F902F904ECF21
:10192000FC01E00FF11F92819983A381AA839F8319
:10193000A887312C212C2414350464F089819A81E4
:101940000E94E92FEFEF8E1A9E0AAE0ABE0A0C5FC4
:101950001F4F9BCFAF81B885ED91FD91B887AF83C5
:10196000309759F0848195810E94E92FEF81F885A5
:101970003297808191810E94E92FBFEF2B1A3B0A99
:10198000DACF800F911FFC01848195810E94E92F9D
:101990002B813C812F5F3F4F3C832B83025F1F4F86
:1019A000F501808191812B813C81241535054CF313
:1019B0000E94E92F82CF10E000E01C821B8224E409
:1019C0002C9DC0012D9D900D1124DC01A051BB4F19
:1019D0005D01E6CF28960FB6F894DEBF0FBECDBFEF
:1019E000DF91CF911F910F91FF90EF90DF90CF90FB
:1019F000BF90AF909F908F907F906F905F904F902F
:101A00003F902F90089524E4269FF001279FF00D2A
:101A10001124EA51FB4F828993890497029758F465
:101A200085E090E0938B828B8FEF9FEFDC01828FBC
:101A3000938FA48FB58F08952F923F924F925F920C
:101A40006F927F928F929F92AF92BF92CF92DF92CE
:101A5000EF92FF920F931F93CF93DF93CDB7DEB733
:101A6000AA970FB6F894DEBF0FBECDBF9AA389A385
:101A70007E8B6D8B1A01098B1A8B2B8B3C8B84E42C
:101A800029893A89829F6001839FD00C11248601A5
:101A90000A511B4F89899A89AB89BC89F8018083D7
:101AA0009183A283B383AB01BC01CD01B3DED60128
:101AB000A651BB4F84E0F10101900D928A95E1F7A8
:101AC000F4E02F0E311C64E070E0D80114968D9183
:101AD0009C910E94332FF80191878087892B09F010
:101AE000F5C04D895E8969897A898B899C8992DEE6
:101AF00081E0AA960FB6F894DEBF0FBECDBFDF918E
:101B0000CF911F910F91FF90EF90DF90CF90BF90FA
:101B1000AF909F908F907F906F905F904F903F908D
:101B20002F900895A9A5BAA58D919C91E98DFA8D64
:101B3000E80FF91FF88FEF8BD1018D919C91880FE1
:101B4000991FA9A1BAA1ED91FC91E80FF91F80811D
:101B50009181EF89F88D91838083D10114962D9125
:101B60003D914D915C9117972BA33CA34DA35EA390
:101B700062E070E08D899E890E94332FEF89F88D95
:101B800093838283892B09F4ACCFF8E02F0E311CAC
:101B9000412C512C32012BA13CA14DA15EA142163A
:101BA0005306640675069CF02B8D3C8D4D8D5E8D25
:101BB0002F5F3F4F4F4F5F4F2B8F3C8F4D8F5E8F6F
:101BC000498D5A8D4C5F5F4F5A8F498F90C061018C
:101BD00024E0C20ED11CD101ED90FC90EE0CFF1C54
:101BE000EF89F88D82819381E80EF91E68E070E03C
:101BF00081E090E00E94332F8C01D7018D939C935C
:101C0000892B09F46ECF84E0F601D80101900D9282
:101C10008A95E1F7B8E02B0E311CF80180819181A3
:101C2000A281B381181619061A061B06DCF464E0BB
:101C300070E00E94332FD80115969C938E931497D1
:101C4000892B09F44ECFD12CC12C812C912C54011D
:101C5000F80180819181A281B38188169906AA0634
:101C6000BB0634F0FFEF4F1A5F0A6F0A7F0A93CF6B
:101C7000F801E480F580EC0CFD1C80E1F101DE014F
:101C8000119601900D928A95E1F7F0E12F0E311C2B
:101C9000A701BE016F5F7F4FA9A1BAA114968D91D4
:101CA0009C9195DCF80186819781D70112962D9140
:101CB0003C91820F931F97838683BFEF8B1A9B0AF9
:101CC000AB0ABB0AE4E0CE0ED11CC2CF1A8E198E2D
:101CD0001B8E1C8E1D8E1E8E18A30F8FA8014C5FAD
:101CE0005F4F58A74FA3C80108969AA789A7EFA1ED
:101CF000F8A580819181A281B3812B8D3C8D4D8D82
:101D00005E8D281739074A075B070CF40BCF6EE08E
:101D100070E08D899E890E94332FAF8DB8A11B96EC
:101D20009C938E931A97B12CA12CD12CC12CF12C01
:101D3000E12C24E4E989FA892E9FC0012F9F900DA0
:101D400011249C0120513B4F388F2F8B8824839482
:101D5000912C4D895E89C416D50654F184E4A98975
:101D6000BA898A9F80018B9F100D11240A511B4F45
:101D7000F80115861486C70133E0880F991F3A953C
:101D8000E1F70E944D2FD80151969C938E93509766
:101D9000892B09F4A6CEC701880F991F0E944D2FE9
:101DA000F80197878687892B09F49BCE80E0A1CE26
:101DB000D1014D905D906D907D901D0177FC91CE8D
:101DC000EF89F88D008111810A0D1B1DD801119634
:101DD0009C928E92411451046104710429F1C20154
:101DE0000E944D2FF80195838483892B09F479CEC5
:101DF000F8015382428284819581978386839187FB
:101E000080871386128681E090E04528462847287F
:101E100011F490E080E0E80EF91EFFEFCF1ADF0A20
:101E20002EE0A20EB11C95CF15961C921E9214970F
:101E3000DFCF2F923F924F925F926F927F928F925D
:101E40009F92AF92BF92CF92DF92EF92FF920F9349
:101E50001F93CF93DF93CDB7DEB76A970FB6F89491
:101E6000DEBF0FBECDBF9E8B8D8B49015A0184E42E
:101E7000829F7001839FF00C112497012A513B4FE0
:101E80006901FB0180819181F901958B848BD701D8
:101E9000A450BB4FFB01349684E001900D928A95CB
:101EA000E1F7D701A050BB4FFB01389684E00190C9
:101EB0000D928A95E1F7D701AC5FBA4FFB013C96D2
:101EC00084E001900D928A95E1F7D701AC5EBA4F9C
:101ED000FB01709684E001900D928A95E1F78B01E9
:101EE0000C5E1F4FF90186A597A5A0A9B1A91816E8
:101EF0001906DCF5880F991F880F991F0E944D2F36
:101F0000F60193AB82AB892B09F4D3C0312C212C81
:101F1000412C512C32019601225D3F4F388F2F8B7F
:101F2000C601C2969A8F898FF496FC8BEB8BB30116
:101F3000A2012FEF421A520A620A720AEF89F88D43
:101F400080819181A281B381481759076A077B0775
:101F50000CF47BC0F60184A995A90E944D2FF601CF
:101F600097AB86AB892B09F4A4C0F80180819181DD
:101F7000A281B38124E4289DF001299DF00D112454
:101F8000EA51FB4FAC01BD014D7F21E030E0452B14
:101F9000462B472B11F030E020E033A322A324E4AA
:101FA000289DF001299DF00D1124EA51FB4F019766
:101FB000A109B10921E030E00297A105B10510F0B7
:101FC00030E020E035A324A3D701A45FBA4FF80185
:101FD000349684E001900D928A95E1F784E4889D1F
:101FE000F001899DF00D1124EA51FB4F868D978DEC
:101FF000A0A1B1A1B7FF58C0B095A09590958195CB
:102000009F4FAF4FBF4F82AF93AFA4AFB5AF168E08
:10201000178E10A211A280E06A960FB6F894DEBF68
:102020000FBECDBFDF91CF911F910F91FF90EF9029
:10203000DF90CF90BF90AF909F908F907F906F90E8
:102040005F904F903F902F900895E98DFA8D808199
:1020500091819C01220D331D3A8B298B80E1F8017F
:10206000DE01119601900D928A95E1F7005F1F4FF6
:1020700049895A89BE016F5F7F4FED89FE8984814E
:102080009581A5DAEB89FC8980819181E989FA89BA
:1020900022813381820F931FEB89FC899183808396
:1020A000F4E02F0E311C43CF12AE13AE14AE15AEBA
:1020B000B2CFC501B40120DA81E0AECFCF92DF927A
:1020C000EF92FF92CF93DF9310926E0524E4269F48
:1020D000F001279FF00D1124EA51FB4F15A614A61D
:1020E00030E020E0D12CC12CDF011A96C1E0D0E015
:1020F000C416D506F4F024E4269FF001279FF00DC6
:102100001124EA51FB4F13A612A611AE10AEDF0147
:10211000DE961D921D921D921C92139782E090E014
:10212000938B828BDF91CF91FF90EF90DF90CF90D8
:102130000895ED91FC911197E20FF31FE280F38077
:102140001E141F0454F4E480F580F782E682F186C1
:10215000E08613861286D183C083EFEFCE1ADE0AA3
:10216000225F3F4FC5CF24E4269FF001279FF00D4B
:102170001124EA51FB4F138A128A4CCB24E4269F88
:10218000F001279FF00D1124EA51FB4F82899389BA
:1021900081309105C8F08530910518F0059769F0F8
:1021A00008958FEF9FEFDC01828F938FA48FB58FFF
:1021B00085E090E0938B828B08958FEF9FEFDC0199
:1021C000828F938FA48FB58F089524E4249FD0012C
:1021D000259FB00D1124AA51BB4F2EE0AC01249FC6
:1021E000C001259F900D11241A96ED91FC91E80FE6
:1021F000F91F81E080936E058285938591878087A2
:10220000408551852681378181E090E04217530750
:1022100011F090E080E09183808308952F923F92A7
:102220004F925F926F927F928F929F92AF92BF92E6
:10223000CF92DF92EF92FF920F931F93CF93DF9392
:10224000CDB7DEB7C055D1090FB6F894DEBF0FBECB
:10225000CDBF9EAF8DAF4BA75CA76DA77EA76801D2
:10226000790184E4809FF001819FF00D1124EA51EF
:10227000FB4F2285338523963FAF2EAF239782896C
:102280009389029761F486A597A5A0A9B1A9892B86
:102290008A2B8B2BC9F584E090E0938B828B84E4AE
:1022A0008C9DF0018D9DF00D1124EA51FB4F828928
:1022B00093898230910509F037C282AD93ADA4AD08
:1022C000B5AD22242394312C181619061A061B06C4
:1022D0000CF42FC2C05BDF4F0FB6F894DEBF0FBE09
:1022E000CDBFDF91CF911F910F91FF90EF90DF90C5
:1022F000CF90BF90AF909F908F907F906F905F90A6
:102300004F903F902F900895848995894DAD5EAD93
:102310008417950721F606A917A918AE1FAA1BAAAC
:102320001CAA1DAA1EAA1F01CF018E9627969FAF39
:102330008EAF2797DF01D2962996BFAFAEAF299710
:10234000F8962B96FFAFEEAF2B9791012A5D3F4F8A
:102350002D963FAF2EAF2D97A1014E5D5F4F2F966B
:102360005FAF4EAF2F970A9761969FAF8EAF619781
:102370002796EEADFFAD279780819181A281B38131
:102380002BA93CA94DA95EA9281739074A075B0765
:1023900044F081E090E0D101D9969C938E93D89738
:1023A0007ECF2996AEADBFAD2997ED91FC912FA9B7
:1023B00038ADE20FF31F428153815AAF49AF5081CC
:1023C0005FAF818121968FAF21972B96AEADBFADC8
:1023D0002B978D919C91892B21F12D96EEADFFAD20
:1023E0002D9780809180A280B3801AAB09AB5FA744
:1023F0002196FFAD2197F8AB29AD3AAD36952795DB
:102400003695279525963FAF2EAF25971CAE1BAE70
:102410002596AEADBFAD2597EBADFCADEA17FB073A
:102420000CF149AD5AAD6FAD21967FAD2197C80132
:102430000E94723089AD9AAD8C7F080F191F2BA9AD
:102440003CA94DA95EA92F5F3F4F4F4F5F4F2BAB6C
:102450003CAB4DAB5EAB4FA958AD4C5F5F4F58AF37
:102460004FAB86CF2F96AEADBFAD2F978D919C9180
:10247000892B71F1EFA5F8A94080518062807380AB
:10248000A3019201C501B4010E946725181664F0EA
:10249000A9A9BAA92D913D914D915C91C501B401B5
:1024A0000E944E261816BCF1A3019201C501B40189
:1024B0000E94672587FF0CC0E9A9FAA92081318114
:1024C00042815381C501B4010E946725882319F117
:1024D0006196AEADBFAD61978D919C91892B09F44A
:1024E00045C0EFA5F8A94080518062807380A301A8
:1024F0009201C501B4010E944E2618161CF5A9A927
:10250000BAA92D913D914D915C91C501B4010E94F4
:10251000672518165CF184E48C9DF0018D9DF00D0B
:102520001124EA51FB4F868D978DA0A1B1A1892B73
:102530008A2B8B2B69F183E090E0938B828B81E077
:1025400090E02CC0A3019201C501B4010E9467254F
:1025500081110CC0E9A9FAA92081318142815381FE
:10256000C501B4010E94672587FDD5CF2BAD3CADD9
:102570002F5F3F4F3CAF2BAF49A95AA94C5F5F4F2C
:102580005AAB49AB8FA598A9049698AB8FA740CFBB
:1025900084E090E0938B828B86AD97AD93A782A762
:1025A0007ECEEBADFCAD80819181F401EE0FFF1F7B
:1025B000EE0FFF1FE80FF91FA081B1818C918111EF
:1025C0000AC0FFEF8F1A9F0AAF0ABF0A8DA29EA210
:1025D000AFA2B8A68FC18330A1F30280F381E02DB2
:1025E0002FA938ADE20FF31F808191819AAB89AB9F
:1025F000892B39F34F5F5F4F6F4F7F4F49875A8762
:102600006B877C879E01235E3F4FAE01475D5F4F26
:1026100064E070E0C8010E940F0A8111D0C18D8171
:102620009E81AF81B8850496A11DB11D8D839E83C7
:10263000AF83B8874D8D5E8DBE016B5D7F4F8F8DF3
:1026400098A10E9472308BA19CA1009761F06D8DC2
:102650007E8DA5E2B0E0AC0FBD1F6A0F7B1F49A1C4
:102660005AA10E9472301CAA1BAA412C512C320183
:10267000E9A9FAA980819181A281B38148165906FE
:102680006A067B060CF09DCFE9A9FAA984819581A1
:102690002BA93CA9280F391F38AB2FA7D9011296B7
:1026A0006D917C919E01235E3F4FAE01475D5F4F70
:1026B000C8010E940F0A811182C1EFA5F8A9828189
:1026C0009381092E000CAA0BBB0B4D815E816F819B
:1026D0007885840F951FA61FB71F8D839E83AF83B8
:1026E000B887608171814D8D5E8D8F8D98A10E941C
:1026F00072308BA19CA1009761F0AFA5B8A96D9134
:102700007C912D8D3E8D620F731F49A15AA10E94AD
:102710007230BFEF4B1A5B0A6B0A7B0AEBA9FCA96C
:102720003496FCABEBABA4CF312C212C049709F0F1
:10273000D1CD8EE0EDADFEAD8E9F80018F9F100D4F
:10274000112423962EAD3FAD2397020F131FD801FE
:1027500012964D915C9113974115510509F4BACD2C
:1027600016968D919C919AA789A780E1FE013196DA
:10277000DF011D928A95E9F7C98ADA8AEB8AFC8A19
:102780002114310409F458C084E48C9DF0018D9D1E
:10279000F00D1124EA51FB4FDF01DE968D909D90E4
:1027A000AD90BC9082AD93ADA4ADB5AD8816990641
:1027B000AA06BB0609F040C0F80184819581008417
:1027C000F185E02D349624E0DE01559601900D92BE
:1027D0002A95E1F72D893E89285F3F4F3E8B2D8B4F
:1027E000D80118966D917C911997260F371F19966D
:1027F0003C932E93189718962D913C911997480F5A
:10280000591F241B350B37FD06C0820F931F1996E5
:102810009C938E93189784E48C9DF0018D9DF00D10
:102820001124EC5DFA4FB1E08B1A9108A108B108B0
:1028300080829182A282B3829E012B5E3F4FAE01C5
:10284000475D5F4F64E170E0C8010E940F0A81118B
:10285000B6C08CE090E0A0E0B0E08D839E83AF83B3
:10286000B8879E01235E3F4FAE01475D5F4F64E036
:1028700070E0C8010E940F0A8111A1C080E190E0C0
:10288000A0E0B0E08D839E83AF83B8874D8D5E8DD1
:10289000BE01655D7F4F8F8D98A10E9472308BA124
:1028A0009CA1009761F06D8D7E8DEBE2F0E0EC0F66
:1028B000FD1F6E0F7F1F49A15AA10E9472301DA2F9
:1028C0001EA21FA218A62DAD3EAD220F331F38AF9A
:1028D0002FAB24E42C9DC0012D9D900D11248A5115
:1028E0009B4FAC014C5F5F4F5AAF49AFDC0118966C
:1028F000BCAFABAF8DA09EA0AFA0B8A449855A8550
:102900006B857C85E9ADFAAD80819181A281B3812F
:1029100088169906AA06BB060CF443CE452B462B17
:10292000472B09F4D7CC8AE190E0A0E0B0E089839E
:102930009A83AB83BC832DAD3EADC901330FAA0B87
:10294000BB0B8D879E87AF87B88B4D895E89BE0193
:102950006F5F7F4F8F89988D0E9472308B8D9C8D19
:10296000009761F06D897E8941E050E04C0F5D1F5A
:10297000640F751F498D5A8D0E94723089A59AA5E2
:10298000D80117969C938E93169711961C921E92BF
:10299000232809F49FCC84E48C9DF0018D9DF00DDB
:1029A0001124EC5DFA4F80819181A281B38101965F
:1029B000A11DB11D80839183A283B3838BCC232877
:1029C00009F088CC84E48C9DF0018D9DF00D1124DC
:1029D000EA51FB4F81E090E095A784A785E090E065
:1029E000938B828B77CCCF92DF92EF92FF920F93F3
:1029F0001F9324E4269FF001279FF00D1124EA5134
:102A0000FB4F228933892115310509F452C06B012E
:102A10007C0121303105B1F482A593A59C012F5F83
:102A20003F4F33A722A7092E000CAA0BBB0B028D28
:102A3000138D248D358D80179107A207B307C9F533
:102A4000C7013CDB84E48C9DF0018D9DF00D1124C9
:102A5000EA51FB4F82899389039759F582A593A583
:102A60009C012F5F3F4F33A722A7092E000CAA0B12
:102A7000BB0B468D578D60A171A184179507A607E2
:102A8000B707BCF086AD97AD93A782A784E090E02E
:102A9000938B828B82AD93ADA4ADB5AD181619069C
:102AA0001A061B0634F4EE5BFF4F81E090E0918341
:102AB00080831F910F91FF90EF90DF90CF9008954A
:102AC00024E4269FF001279FF00D1124EA51FB4FCB
:102AD000828993890497B1F482A593A5019693A75F
:102AE00082A7092E000CAA0BBB0B46895789608D63
:102AF000718D84179507A607B70721F485E090E04C
:102B0000938B828B08952F923F924F925F926F9298
:102B10007F928F929F92AF92BF92CF92DF92EF926D
:102B2000FF920F931F93CF93DF93CDB7DEB72E970E
:102B30000FB6F894DEBF0FBECDBFDC0149835A83C8
:102B40006B837C83290184E4849FF001859FF00DD1
:102B50001124EA51FB4F22883388C1010497029760
:102B600008F0D5C011961C921E9213961C921E92CC
:102B7000129715861486912C812C90E080E08F01AD
:102B80009F01205F3F4F38872F833F013CE0630E5A
:102B9000711CBF01625F7F4F7A8769873A96FC8715
:102BA000EB87EF81F88520813181F30140815181EC
:102BB000E985FA85A080B180841595050CF445C09F
:102BC00011965C934E9313963C932E931297159601
:102BD000BC92AE921497452BF9F4F5E02F16310410
:102BE000D9F410926E05F801828D938DA48DB58D68
:102BF000AE014F5F5F4F64E070E08F3F9F4FAF4F7C
:102C0000BF4F09F079C080E290E0F4D569817A8104
:102C10008B819C81A201A7DA2E960FB6F894DEBFB5
:102C20000FBECDBFDF91CF911F910F91FF90EF901D
:102C3000DF90CF90BF90AF909F908F907F906F90DC
:102C40005F904F903F902F900895EB85FC856081B9
:102C50007181FB01E80DF91DFE87ED8760817181AF
:102C6000672B89F5E084F184628173817E836D83B3
:102C7000668177816A01E3E0CC0CDD1CEA95E1F71F
:102C80002C0D3D1D440F551F4A0D5B1DFA0191830C
:102C90008083F301408151814F5F5F4F51834083B7
:102CA000F901F382E282ED85FE8573876287E6167D
:102CB000F70670F46E197F09F9017183608315823C
:102CC0001482178216820196FEE08F0E911C69CF46
:102CD000ED85FE85C480D5804D815E814C0D5D1DE6
:102CE0004E195F09F901518340836C197D09758381
:102CF0006483D782C682E7CF8FE190E07BD5F8016D
:102D000013A612A681E090E0938B828B85CF158667
:102D1000148611961C921E9213961C921E92129764
:102D20007BCFEF92FF920F931F93CF93DF937C01A2
:102D30008B01EA013BD681111EC0809169039091FD
:102D40006A03049711F5DF91CF911F910F91FF90C6
:102D5000EF90089528ED38EB45E050E060E070E03A
:102D6000CB010E948D1FAE01B801C7010E949B1FBD
:102D7000C8010E94661F80916F0590917005892B94
:102D8000E1F68881882331F3D8CF83E090E09093F7
:102D90006A0380936903D7CFCF93DF9320916903B0
:102DA00030916A032430310541F0EB010E949B1FF2
:102DB000CE01DF91CF910C94661FDF91CF910895E2
:102DC0000C9499230C948E230C947C230C94761FE2
:102DD0000C942023089570E060E090E080E0C1C58D
:102DE0000895AF92BF92CF92DF92EF92FF920F932E
:102DF0001F93CF93DF931F921F92CDB7DEB75C0175
:102E00008B0169017A0190E080E0C114D104E104F2
:102E1000F10469F40F900F90DF91CF911F910F9102
:102E2000FF90EF90DF90CF90BF90AF9008959C2DD2
:102E30008D2DC114D10421E0E206F10410F09FEFC2
:102E40008FEF9E012F5F3F4F492F582FB801C501CB
:102E50000E9423248F3F9807E9F229813A81C21A00
:102E6000D30AE108F108020F131FCFCF209171059B
:102E70003091720580917305909174052817390778
:102E800089F08091790590917A05019690937A0561
:102E90008093790582E00E94322B90937405809391
:102EA000730508958091790590917A050197EECF89
:102EB0002091750530917605809177059091780580
:102EC0002817390789F080917B0590917C05019640
:102ED00090937C0580937B0582E10E94322B909336
:102EE000780580937705089580917B0590917C0506
:102EF0000197EECF83E00E94322B9093720580936E
:102F0000710520917305309174058217930751F074
:102F10008091790590917A05019690937A05809336
:102F2000790508958091790590917A050197F5CFFB
:102F300083E10E94322B9093760580937505209152
:102F40007705309178058217930751F080917B05C2
:102F500090917C05019690937C0580937B05089564
:102F600080917B0590917C050197F5CFEF92FF92C0
:102F70000F931F93CF93DF937C018B01EA01F9013B
:102F800020E030E040E85FE36081718182819381DD
:102F90000E946725811115C0F7018081882321F0E7
:102FA00010927A05109279058091790590917A05B1
:102FB000F8019183808380917B0590917C059983B2
:102FC0008883DF91CF911F910F91FF90EF9008952B
:102FD000CF93DF93E90120E030E040E85FE36881D0
:102FE00079818A819B810E9467258823A1F162E013
:102FF00082E00E94C92A62E083E00E94C92A60E060
:1030000082E10E94C92A60E083E10E94C92A41E06E
:1030100050E066E377E180E00E94B62641E050E0B0
:103020006AE777E181E00E94B62641E050E068E57A
:1030300077E185E00E94B62641E050E068E977E15B
:1030400084E00E94B62680E090E0A0E8BFE3888399
:103050009983AA83BB83DF91CF91089540E05BE41D
:1030600060E070E090E080E000C08130910579F090
:103070001CF4892B39F008958230910561F0039793
:1030800071F0089526E082EB95E00C94242C26E064
:103090008FE496E0FACF26E08CEE96E0F6CF26E0BD
:1030A00089E897E0F2CF1F920F920FB60F9211248A
:1030B0000BB60F922F933F934F935F936F937F9332
:1030C0008F939F93AF93BF93EF93FF9386E09FEF10
:1030D00090932501809324010E945D24FF91EF913C
:1030E000BF91AF919F918F917F916F915F914F9120
:1030F0003F912F910F900BBE0F900FBE0F901F901E
:10310000189586E09FEF9093250180932401A3E713
:10311000B0E08C918E7F8C93E0E2F1E080818C7F37
:103120008083E1E2F1E08081877E8083808183601B
:10313000808380818B7F80838C9181608C930895C4
:1031400081E008958F929F92AF92BF92CF92DF92CB
:10315000EF92FF920F931F93CF93DF935C017B015C
:103160008A01C1E0D0E0CE15DF05CCF081E0F501A9
:103170008083B801C7010E94C323F5019283818334
:1031800090E080E0DF91CF911F910F91FF90EF9041
:10319000DF90CF90BF90AF909F908F9008956E0179
:1031A0008FEFC81AD80AFE01EE0FFF1FE00FF11FC4
:1031B000808091808114910469F064E174E0C4011D
:1031C0000E948230892B41F4CC0FDD1FC00FD11F2C
:1031D00019821882E601C7CF67E174E0C4010E943A
:1031E0008230892BB9F7EC14FD04A1F36E01E2E003
:1031F000CE0ED11CCC0FDD1FC00FD11F198218823B
:103200001B821A82E7CF8DE795E0089580E008954C
:103210000F931F93CF93DF938B01BA01E9011982BA
:1032200018829801012E000C440B550BFC01818182
:103230009281D7DD019641F01983088380E0DF9108
:10324000CF911F910F91089581E0F9CF0F931F93B4
:10325000CF93DF931F921F92CDB7DEB7FB018A0198
:10326000B9019E012F5F3F4FAF01FC018181928127
:103270000E94D823019669F089819A81F80191838F
:10328000808380E00F900F90DF91CF911F910F917D
:10329000089581E0F7CFFC01808108950895089595
:1032A00081E0FB01808380E0089508951092A505D8
:1032B0000895FC01818192810C94BB23CF93DF930D
:1032C00000D000D000D01F92CDB7DEB7B0E0A0E0B4
:1032D00089839A83AB83BC83CB01770FAA0BBB0B8B
:1032E0008D839E83AF83B8879E01275F3F4FAE01DA
:1032F0004F5F5F4F68E070E0809194059091950575
:1033000087DF811110C081E029853A852830310599
:1033100009F480E02A960FB6F894DEBF0FBECDBF49
:10332000DF91CF91089581E0F5CF0F931F93CF9355
:10333000DF931F921F92CDB7DEB78B019E012F5FE7
:103340003F4FAC01809194059091950561DF81110B
:103350000EC081E029813A812017310709F480E00D
:103360000F900F90DF91CF911F910F91089581E001
:10337000F7CFCF93DF93EC01109298051092970549
:103380001092A4051092A305AC0160E070E0CB019F
:103390000E94B310AE0161E070E080E090E00E9416
:1033A000B3108091940590919505DF91CF917DCFD9
:1033B0004F925F926F927F928F929F92AF92BF9245
:1033C000CF92DF92EF92FF920F931F93CF93DF93F1
:1033D0001F921F92CDB7DEB78C017C0197FF03C00F
:1033E00087E0E80EF11C23E0F594E7942A95E1F7D5
:1033F000C80168E070E00E94E22E6C010E5F1F4F72
:10340000809192059091930580179107D4F4809153
:10341000900590919105009731F00E94E92F10924C
:10342000930510929205C8010E944D2F909391052B
:1034300080939005892B09F482C010939305009323
:10344000920510E000E047C1412C512C3201B12C13
:10345000A12C950127563A4FAE014F5F5F4F61E0B7
:1034600070E08091940590919505F0DE811149C03E
:10347000EFEF4E1A5E0A6E0A7E0AF0E94F16FFE57C
:103480005F06F1E06F06710444F06091A30570914E
:10349000A4058DEE90E012DFD7CF89819A81A80E26
:1034A000B91E8AE0A816B10409F043C049E050E013
:1034B00070E060E089E995E00E944F246091A305E7
:1034C0007091A405882391F18091A10590E0861761
:1034D000970781F4BC018EEE90E0F0DE8091A305A9
:1034E0009091A405019699279093A4058093A30534
:1034F0000F5F1F4F0E151F050CF4A6CFCD2809F046
:103500007CC090E080E00F900F90DF91CF911F91F1
:103510000F91FF90EF90DF90CF90BF90AF909F9072
:103520008F907F906F905F904F9008958FEE90E016
:10353000B2CFEAE0AE16B1040CF48BCFDBCF10E0D3
:1035400000E0D8CF0A30110531F549E050E070E0D5
:1035500060E089E995E00E944F246091A305709195
:10356000A4058823A9F08091A10590E0861797070C
:1035700041F6BC018EEE90E0A1DE8091A305909112
:10358000A405019699279093A4058093A305B9CF2C
:103590008FEE90E02BC00A3011050CF0B2CF9801ED
:1035A00027563A4FAE014F5F5F4F61E070E0809168
:1035B0009405909195054ADE8111A3CF89819A8166
:1035C000080F191FFFEFCF1ADF0AEF0AFF0A80E981
:1035D000C8168FE5D80681E0E806F1040CF4B2CFF6
:1035E0006091A3057091A4058DEE90E067DE10E078
:1035F00000E0C12CD12C7601D2CFC12CD12C760188
:1036000010E000E0CCCF412C512C3201B12CA12C88
:10361000480193E0880C991C9A95E1F72091900558
:1036200030919105C501880D991D280F391FAE01F4
:103630004F5F5F4F61E070E0809194059091950538
:1036400005DE81115ECFEFEF4E1A5E0A6E0A7E0A2A
:103650006091A3057091A4058DEE90E0F0E94F16FE
:10366000FFE55F06F1E06F0671040CF043C089814D
:103670009A81A80EB91E8AE0A816B10409F041C0CB
:1036800049E050E0B40180919005909191050E942D
:103690004F246091A3057091A405882349F180917E
:1036A000900590919105880E991EF401808590E017
:1036B0008617970781F4BC018EEE90E0FFDD8091C4
:1036C000A3059091A405019699279093A405809352
:1036D000A3050F5F1F4F0E151F050CF494CFC114E7
:1036E000D10409F081C080919005909191050BCF94
:1036F0008FEE90E0E3DD412C512C3201B12CA12C56
:103700008DCFFAE0AF16B1040CF488CFE4CF8FEE82
:1037100090E0D4DDF12CE12C812C912C5401970107
:1037200027563A4FAE014F5F5F4F61E070E08091E6
:103730009405909195058ADD8111E3CE8FEF881A6B
:10374000980AA80AB80A6091A3057091A4058DEEA5
:1037500090E0E0E98E16EFE59E06E1E0AE06B104EA
:10376000C4F689819A81E80EF91EFAE0EF16F10499
:10377000A9F549E050E070E060E089E995E00E9439
:103780004F246091A3057091A405882309F4BFCF4D
:103790008091A10590E08617970709F0A4CFBC019E
:1037A0008EEE90E08BDD83E0000F111F8A95E1F72C
:1037B0008091900590919105A60169E975E0800FCF
:1037C000911F0E9472308091A3059091A4050196EB
:1037D00099279093A4058093A30585CF8AE0E816E6
:1037E000F1040CF49CCF7FCF812C912C5401F12C4F
:1037F000E12C95CFCF92DF92EF92FF920F931F9320
:10380000CF93DF931F92CDB7DEB76C017B018A01A6
:10381000452B39F0AB0170E060E0C8010E944B24F9
:103820008983B701C6014ADD81110DC0011511055B
:1038300051F0B701C80179DD811105C061E070E088
:10384000CE01019672DD0F90DF91CF911F910F9104
:10385000FF90EF90DF90CF900895CF92DF92EF929C
:10386000FF92CF93DF9300D000D01F921F92CDB76D
:10387000DEB76B01F12CE12CC982DA82EB82FC828B
:103880002D833E834F835887AE014F5F5F4F68E0C3
:1038900070E0B0DF28960FB6F894DEBF0FBECDBF44
:1038A000DF91CF91FF90EF90DF90CF9008958F92AE
:1038B0009F92AF92BF92CF92DF92EF92FF920F93BF
:1038C0001F93CF93DF937C01EB01CA01690170DD87
:1038D0000097B1F42FEF3FEFA90161E070E0C7015D
:1038E000BCDFC1E08C2FDF91CF911F910F91FF9032
:1038F000EF90DF90CF90BF90AF909F908F90089502
:10390000FC0181909190A190B190BF01FCE1EF1674
:10391000F10479F4A5019401CE010E94190FC82F7A
:10392000A5019401882369F061E070E0C70195DF8B
:10393000D9CF95018401AB01B601CE010E941C0DC7
:10394000EECF70E060E0C701DF91CF911F910F9142
:10395000FF90EF90DF90CF90BF90AF909F908F90AF
:103960007CCF0F931F93CF93DF93EC018B014BDC44
:1039700090939505809394050097A9F0A801BE0146
:10398000E1DBEC01892B49F080919405909195053C
:1039900085DC1092950510929405CE01DF91CF91B0
:1039A0001F910F910895C3E2D4E0EECF809194056A
:1039B0009091950570CC2F923F924F925F926F92AB
:1039C0007F928F929F92AF92BF92CF92DF92EF92AF
:1039D000FF920F931F93CF93DF93CDB7DEB7699715
:1039E0000FB6F894DEBF0FBECDBF209198052223FD
:1039F000F1F05B8B4A8B6E877F87888B998B9A015E
:103A0000AB01BC01CE0101967C017DD810E048E0FD
:103A1000242E312CE88EF98E89819A811816190688
:103A20000CF451C2112319F08A899B89A2DC699692
:103A30000FB6F894DEBF0FBECDBFDF91CF911F91BF
:103A40000F91FF90EF90DF90CF90BF90AF909F903D
:103A50008F907F906F905F904F903F902F90089540
:103A6000EB81FC818C859D8533E0880F991F3A9509
:103A7000E1F7E80FF91F8081918190938F05809382
:103A80008E05248135814281538150938D05409369
:103A90008C054681578150938B0540938A05820F90
:103AA000931F9C01990F440B550B2C8B3D8B4E8B18
:103AB0005F8B812C912C54018C899D89AE89BF89A3
:103AC00088169906AA06BB0640F18C859D85880F4D
:103AD000991FED81FE81E80FF91F4E855F8568898A
:103AE0007989808191810E94E510AC85BD85119610
:103AF000BD87AC8789819A81EC85FD85E817F90738
:103B00000CF4AECF2A893B894E855F856889798917
:103B1000888D998D0E9483157FCF1F8260918E05BD
:103B200070918F05CB01072E000CAA0BBB0B8401F3
:103B30007501640134E0C30ED11CE11CF11CC816F0
:103B4000D906EA06FB0608F0B3C020918C05309137
:103B50008D05A4014C5F5F4F240F351FF901C08014
:103B6000D12CF12CE12C24013501F5E04F0E511C34
:103B7000611C711C481659066A067B0608F0A3C032
:103B800020918C0530918D05F8013596E20FF31FD9
:103B90002081D22A2401350126E0420E511C611CED
:103BA000711C481659066A067B0608F097C02091DA
:103BB0008C0530918D05F8013696E20FF31F2081B8
:103BC000E22A2401350137E0430E511C611C711CAF
:103BD000481659066A067B0608F08BC020918C05B2
:103BE00030918D05F8013796E20FF31F20812601F1
:103BF0003701722A7501640148E0C40ED11CE11C32
:103C0000F11C8C159D05AE05BF0508F41DC1881675
:103C10009906AA06BB0608F077C080918C059091A2
:103C20008D05800F911F68E070E07FDBE0918E05CD
:103C3000F0918F059F010F2E000C440B550BD30103
:103C4000C2018C0D9D1DAE1DBF1D281739074A07E7
:103C50005B0708F478C0C216D306E406F50608F040
:103C60005DC080918C0590918D059801285F3F4F34
:103C7000820F931FB20159DB80918E0590918F05C1
:103C8000AC01092E000C660B770BC416D506E606B0
:103C9000F70608F04DC0085F1F4F80918C0590918A
:103CA0008D05800F911FA20170E060E0F4D5A7C0E0
:103CB00044E050E0461B570B480D591D20918A05E2
:103CC00030918B0549CFE5E0F0E0E61BF70BE00F04
:103CD000F11F20918A0530918B0558CFE6E0F0E086
:103CE000E61BF70BE00FF11F20918A0530918B0541
:103CF00064CFE7E0F0E0E61BF70BE00FF11F209147
:103D00008A0530918B0570CF9801261B370B809167
:103D10008A0590918B05820F931F85CF91012E1BF1
:103D20003F0B200F311F80918A0590918B05A0CF0A
:103D3000D101A81BB90BCD01080F191F80918A056D
:103D400090918B05AECFBF0168507109601B710B5C
:103D5000C216D306E406F50608F062C080918C0511
:103D600090918D059801285F3F4F820F931FDDDAF8
:103D700080918E0590918F05B101681B790B600FC2
:103D8000711F640D751D80918A0590918B05CDDAA8
:103D900080918E0590918F05AC0148505109FA0130
:103DA000E01BF10BAC01092E000C660B770BC4165F
:103DB000D506E606F70608F03DC080918C05909187
:103DC0008D059801285F3F4F820F931FAF0170E070
:103DD00060E061D58F8320918E0530918F05F101D0
:103DE000E21BF30B9F01200F311F240D351D50E006
:103DF00040E0682F80918A0590918B0538D58F839C
:103E000061E070E0CE01079690DA182F38E0430E9B
:103E1000511C611C711C840C951CA61CB71C4CCE3B
:103E200091012E1B3F0B200F311F80918A0590912D
:103E30008B059BCF9101281B390B200F311F8091DF
:103E40008A0590918B05C0CF88169906AA06BB06F5
:103E500068F5601B710B80918C0590918D05800F2A
:103E6000911F63DA80918E0590918F05B101681BD7
:103E7000790B600F711F640D751D80918A059091FB
:103E80008B0553DA80918E0590918F05AC01092E38
:103E9000000C660B770BC416D506E606F70608F489
:103EA000FACE9101281B390BC90146CFC801861BE8
:103EB000970B20918A0530918B05B201685F7F4F87
:103EC000820F931FDECF1D861C8614CECF93DF9307
:103ED000EC01AC0160E070E0CB016DDDAE0161E0B2
:103EE00070E080E090E0DF91CF9165CDCF9380913D
:103EF0009405909195058AD9C82F81110BC060E077
:103F000070E0CB010E94DE0B61E070E080E090E0A9
:103F10000E94DE0B8C2FCF9108950F931F93890180
:103F20009A01AB01BC018091940590919505B7D998
:103F30001F910F9108954F925F926F927F928F928F
:103F40009F92AF92BF92CF92DF92EF92FF920F9328
:103F50001F93CF93DF93CDB7DEB763970FB6F89477
:103F6000DEBF0FBECDBF6C018B015A018091980559
:103F7000882309F43DC080919805882309F442C044
:103F8000809197051A821982882309F4C0C0F0E94C
:103F90004F2EFFE55F2E66246394712CF12CE12CEB
:103FA000970120583A4FAE014F5F5F4F61E070E0DC
:103FB000809194059091950549D9982E811169C0F9
:103FC00089819A81E80EF91EE114F10409F461C0B7
:103FD00081E0481A51086108710859F56091A305FC
:103FE0007091A4058DEE90E069D91A82198251C0B2
:103FF00068E975E0809194059091950551D98823E1
:1040000009F4B9CF63960FB6F894DEBF0FBECDBFEB
:10401000DF91CF911F910F91FF90EF90DF90CF90A4
:10402000BF90AF909F908F907F906F905F904F90D8
:104030000895AAE0EA16F10409F063C049E050E0EF
:1040400070E060E080E895E02AD46091A30570916B
:10405000A405882309F452C08091880590E0861752
:10406000970719F6BC018EEE90E028D988E0E0E8C9
:10407000F5E0DE01199601900D928A95E1F78091A5
:10408000A3059091A405019699279093A405809388
:10409000A30581E029813A81121613060CF080E015
:1040A0009110CAC2882309F4ADCF80919705811180
:1040B00004C019861A861B861C8689859A85AB855D
:1040C000BC8580319105A105B10508F09BCFFC01AD
:1040D0008827E259FF4D8F4F0C94172FEE20AD2209
:1040E0001C230220F2212522DE20E620C22001230B
:1040F000F022FD22022002200220AD208FEE90E06F
:1041000073CFBAE0EB16F1040CF44ACFC2CFF12C16
:10411000E12CE8E06E2E712C29E030E02C0F3D1FE1
:104120002E0D3F1DAE014F5F5F4FB3016E197F092A
:10413000809194059091950589D8982E29813A818E
:10414000811109C0E20EF31EE114F10421F0E8E050
:10415000EE16F1040CF381E09FCFD6011696ED9197
:10416000FC9180819181A281B38189839A83AB8301
:10417000BC83AE014F5F5F4F64E070E085E190E08B
:1041800039DB40CF8D859E8513D92FEF3FEFA901F5
:1041900061E070E0009771F0FC01C080D180E280A6
:1041A000F380A801C701B6010E945E10A701960125
:1041B00070E060E08DE190E050DB24CF4D855E85BE
:1041C0009801B6018BE190E072DB1CCF4D855E85D6
:1041D0002FEF3FEFB6018CE190E0F6CFD6011496B9
:1041E000ED91FC9100811181F80182809380A08083
:1041F000B18070E1472E512C612C712C49825A827A
:104200006B827C8288E090E0A0E0B0E08D839E83AA
:10421000AF83B8879E012F5E3F4FAE014F5F5F4F68
:1042200068E070E080919405909195050E940819CE
:104230008823D9F010E000E0C80163960FB6F89427
:10424000DEBF0FBECDBFDF91CF911F910F91FF90C9
:10425000EF90DF90CF90BF90AF909F908F907F9026
:104260006F905F904F900C94E92F89899A890897F5
:1042700009F7D801ED90FC90B8E0EB0EF11CEE0CC4
:10428000FF1CEE0CFF1CC7010E944D2F8C01892BD7
:1042900089F249825A826B827C82C7010F2C000C02
:1042A000AA0BBB0B8D839E83AF83B8879E012F5EC5
:1042B0003F4FAE014F5F5F4F68E070E08091940523
:1042C000909195050E9408198111B6CF89899A8924
:1042D000089709F0B1CFD6011296ED91FC9140817B
:1042E000518162817381D8014D935D936D937C936D
:1042F0001397448155816681778114964D935D9320
:104300006D937C93179740855185628573851896C8
:104310004D935D936D937C931B9784859585A685BE
:10432000B785F80184879587A687B787108A118A91
:10433000128A138A84E090E0A0E0B0E0848B958B31
:10434000A68BB78B8091690390916A03B0E0A0E0DF
:10435000808F918FA28FB38FC5010B2C000CAA0BFD
:10436000BB0B848F958FA68FB78FF401D8019096E1
:1043700090E080E08A159B055CF19E012F5E3F4F27
:10438000A801B70180919405909195050E940819A4
:10439000811152CF89899A89E816F90609F04CCF24
:1043A000A70170E060E0C80176D28B8B9E012F5E82
:1043B0003F4FAE014D5E5F4F61E070E0809194052C
:1043C000909195050E94081981E08093970534CF5C
:1043D0004191519170E060E04D935D936D937D93B9
:1043E0000196C8CF8D859E85AF85B8890097A105B8
:1043F000B10521F481E08093960504CE0E94D8197E
:10440000009781F481E090E0A0E0B0E089839A8396
:10441000AB83BC83AE014F5F5F4F64E070E082E12D
:1044200090E0AECEBC01C6010E94380B19821A8200
:104430001B821C82AE014F5F5F4F64E070E082E13F
:1044400090E0D8D98823B1F2DDCDD6011496ED9154
:10445000FC910190F081E02DE084F1848FEF89835D
:10446000E114F10409F472C0D7016D907C90C28010
:10447000D38070E060E090E080E08615970594F0CE
:1044800083E190E00E945E1910E000E08111BACD56
:10449000061517055CF161E070E0CE0101960E94FF
:1044A0009519B0CD9C0143E0220F331F4A95E1F7E7
:1044B000F701A281B381A20FB31F1296ED91FC9177
:1044C0001397EE0FFF1FEC0DFD1D0190F081E02D05
:1044D00016964D915C91E49F9001E59F300DF49FFD
:1044E000300D1124620F731F0196C7CFD7011296AA
:1044F000ED91FC91C80123E0880F991F2A95E1F7FF
:10450000E80FF91FA080B180A281B381AA0FBB1F61
:10451000AC0DBD1D2D913C9186819781289F400156
:10452000299F900C389F900C1124B401C5010E9462
:104530009519582E940150E040E06981C50197D14A
:10454000898351105FCD0F5F1F4FA2CF70E060E0F5
:1045500083E190E00E945E1955CD50E040E070E0AC
:1045600060E081E190E046D981114CCD60E070E0DF
:10457000CB010E94030D80916E05882329F0A801CC
:1045800060E070E0CB0117DAA80160E070E0CB01D9
:104590000E940A0C61E070E080E090E00E94030D50
:1045A00080916E05882331F0A80161E070E080E021
:1045B00090E001DAA80161E070E080E090E00E9404
:1045C0000A0C10929805109297051092A40510926B
:1045D000A30580919405909195050E94561912CDDE
:1045E00081E090E09093700580936F0550E040E08B
:1045F00070E060E086E190E0C3CD81E0F50180836A
:1046000001CD8D859E850E94D8192FEF3FEFA9011E
:1046100061E070E0009769F0DC01CD90DD90ED90F5
:10462000FC90C701B6010E94BE10A701960170E080
:1046300060E08EE190E0C0CDC8010E94B919E2CCE3
:10464000CF92DF92EF92FF92CF93DF93EC01C12CD8
:10465000D12C7601C701B6010E94030DAE01C7013E
:10466000B601A9D9AE01C701B6010E940A0C80911A
:10467000900590919105009731F00E94E92F1092DA
:10468000910510929005CA94CD28CE28CF2879F5AF
:1046900080919705F12C882351F050E040E070E0C4
:1046A00060E084E190E0A6D8F82E10929705809102
:1046B0009805882341F01092980581E090E090934E
:1046C0006A038093690380919405909195050E94F7
:1046D000591980919405909195050E944E198F2D3E
:1046E000DF91CF91FF90EF90DF90CF900895C12C94
:1046F000D12C7601C394AECFCF93DF93EC01AC0104
:1047000060E070E0CB010E94F314AE0161E070E064
:1047100080E090E0DF91CF910C94F31460E070E0C2
:10472000CB010E94601561E070E080E090E00C94A5
:104730006015CF92DF92EF92FF920F931F93CF936A
:10474000DF93EC016A017B0100E010E098010E9418
:104750000E1101E010E020E030E0B701A601CE012B
:104760000E940E11DF91CF911F910F91FF90EF905A
:10477000DF90CF90089568EE73E080E090E037D549
:1047800090E080E0089526E040E050E16EE070E0C7
:1047900082EB95E00E94242C82EB95E08BD7892B4D
:1047A00021F082EB95E0A0D7F7CF90E080E008956C
:1047B000CF92DF92EF92FF920F931F93CF93DF93ED
:1047C0006B017A01E9011982188282EB95E072D7B8
:1047D000892B71F18601CC24C39485E6D82E809173
:1047E000A505811111C082EB95E07ED78536910534
:1047F000B1F7C092A505F801D1928F018881998106
:10480000019699838883EBCF888199818E159F05C6
:1048100078F482EB95E068D78F3F9807A9F3F80109
:1048200081938F0188819981019699838883ECCF48
:1048300090E080E0DF91CF911F910F91FF90EF907A
:10484000DF90CF9008950F931F93CF93DF93EA01EA
:10485000890182EB95E00E94B42EF801D183C083D8
:1048600090E080E0DF91CF911F910F910895DC01DE
:10487000A40FB51F420F531F9D01281B390B24178E
:10488000350710F0862F0895ED91E627F0E0EC5102
:10489000FF4F6491F1CF9A01AB016FEFE8CFCF9357
:1048A000FC01E60FF71FE40FF51FC081F4DF91E074
:1048B000C81390E0892FCF9108958091A60591E0CB
:1048C000980F9093A605882349F021E030E03093BB
:1048D000A8052093A7058093A605089578940E94C3
:1048E0005204F8948091A60581508093A6050C94FB
:1048F000E216FF920F931F93CF93DF931F92CDB7D2
:10490000DEB71092A3081092A208A7D40E942E1816
:104910000091900310919103F8011182108270E0D0
:1049200060E090E080E00E94EB160E948108F8941D
:104930007894C80186960E94EA1681E090E00E9471
:10494000E6161982AE014F5F5F4F61E070E0F8013B
:10495000828193810E9491168981882319F081E0D8
:10496000F80182A70E94F016F8940E948118F801BD
:1049700080819181892B19F481E092A5911180E0C9
:104980008093A20878947894FF24F3948091A208ED
:10499000811110C00E94CF0981E090E00E94E816CA
:1049A000F89490E080E00F90DF91CF911F910F91EC
:1049B000FF9008951982AE014F5F5F4F61E070E094
:1049C000F801828193810E94CC168981882311F09D
:1049D000F801F2A6F80180819181892B89F481E0A8
:1049E00092A5911101C080E08093A3089091A30843
:1049F00081E0911180E08093A2080E94A018C6CFA8
:104A000081E0F2CF5058BB27AA270ED00DC1FED0AF
:104A100030F003D120F031F49F3F11F41EF4F3C0C5
:104A20000EF4E095E7FBE9C0E92F0FD180F3BA1748
:104A3000620773078407950718F071F49EF527C184
:104A40000EF4E0950B2EBA2FA02D0B01B9019001A9
:104A50000C01CA01A0011124FF27591B99F0593FED
:104A600050F4503E68F11A16F040A22F232F342F35
:104A70004427585FF3CF469537952795A795F04083
:104A80005395C9F77EF41F16BA0B620B730B840B98
:104A9000BAF09150A1F0FF0FBB1F661F771F881F50
:104AA000C2F70EC0BA0F621F731F841F48F48795A8
:104AB00077956795B795F7959E3F08F0B3CF939597
:104AC000880F08F09927EE0F97958795089571D074
:104AD00008F481E0089504D06894B111D9C0089514
:104AE000BCD088F09F5790F0B92F9927B751A0F00C
:104AF000D1F0660F771F881F991F1AF0BA95C9F772
:104B000012C0B13081F0C3D0B1E00895C0C0672FAA
:104B1000782F8827B85F39F0B93FCCF38695779521
:104B20006795B395D9F73EF490958095709561950A
:104B30007F4F8F4F9F4F0895E89409C097FB3EF435
:104B400090958095709561957F4F8F4F9F4F9923DA
:104B5000A9F0F92F96E9BB279395F6958795779558
:104B60006795B795F111F8CFFAF4BB0F11F460FF18
:104B70001BC06F5F7F4F8F4F9F4F16C0882311F070
:104B800096E911C0772321F09EE8872F762F05C084
:104B9000662371F096E8862F70E060E02AF09A951F
:104BA000660F771F881FDAF7880F9695879597F914
:104BB0000895990F0008550FAA0BE0E8FEEF1616AE
:104BC0001706E807F907C0F012161306E407F50701
:104BD00098F0621B730B840B950B39F40A2661F075
:104BE000232B242B252B21F408950A2609F4A14018
:104BF000A6958FEF811D811D089597F99F6780E825
:104C000070E060E008959FEF80EC089500240A941E
:104C10001616170618060906089500240A94121697
:104C20001306140605060895092E0394000C11F4CA
:104C3000882352F0BB0F40F4BF2B11F460FF04C077
:104C40006F5F7F4F8F4F9F4F089557FD9058440FD0
:104C5000551F59F05F3F71F04795880F97FB991FDB
:104C600061F09F3F79F08795089512161306140698
:104C7000551FF2CF4695F1DF08C016161706180625
:104C8000991FF1CF86957105610508940895E89400
:104C9000BB2766277727CB0197F908958ADF08F4A9
:104CA0008FEF08950BD0C0CFB1DF28F0B6DF18F03A
:104CB000952309F0A2CFA7CF1124EACFC6DFA0F336
:104CC000959FD1F3950F50E0551F629FF001729FA1
:104CD000BB27F00DB11D639FAA27F00DB11DAA1FC0
:104CE000649F6627B00DA11D661F829F2227B00D0D
:104CF000A11D621F739FB00DA11D621F839FA00D98
:104D0000611D221F749F3327A00D611D231F849FE7
:104D1000600D211D822F762F6A2F11249F5750403E
:104D20008AF0E1F088234AF0EE0FFF1FBB1F661FD9
:104D3000771F881F91505040A9F79E3F510570F092
:104D40005CCFA6CF5F3FECF3983EDCF3869577957A
:104D50006795B795F795E7959F5FC1F7FE2B880F8D
:104D6000911D9695879597F908950895883008F0D4
:104D700076C0E82FF0E0EE0FFF1FE559FC4F71837E
:104D800060838150873008F03DC0E82FF0E088272D
:104D9000E353F94D8F4F0C94172F0A27D426DC26A6
:104DA000E826F52616272327809169008C7F482B5B
:104DB00040936900E89A089580916900837F440FC9
:104DC000551F440F551F482B40936900E99A0895D9
:104DD000809169008F7C74E0440F551F7A95E1F74C
:104DE000482B40936900EA9A0895809169008F7377
:104DF00066E0440F551F6A95E1F7482B4093690020
:104E0000EB9A089580916A008C7F482B40936A004A
:104E1000EC9A089580916A00837F440F551F440FD8
:104E2000551F482B40936A00ED9A089580916A00BF
:104E30008F7C24E0440F551F2A95E1F7482B4093BF
:104E40006A00EE9A089580916A008F7396E0440F8D
:104E5000551F9A95E1F7482B40936A00EF9A089501
:104E60001F920F920FB60F9211240BB60F922F9331
:104E70003F934F935F936F937F938F939F93AF93E2
:104E8000BF93EF93FF93E0916F03F0917003199537
:104E9000FF91EF91BF91AF919F918F917F916F9112
:104EA0005F914F913F912F910F900BBE0F900FBECE
:104EB0000F901F9018951F920F920FB60F9211240A
:104EC0000BB60F922F933F934F935F936F937F9304
:104ED0008F939F93AF93BF93EF93FF93E0917103F1
:104EE000F09172031995FF91EF91BF91AF919F914E
:104EF0008F917F916F915F914F913F912F910F9083
:104F00000BBE0F900FBE0F901F9018951F920F921F
:104F10000FB60F9211240BB60F922F933F934F931E
:104F20005F936F937F938F939F93AF93BF93EF9311
:104F3000FF93E0917303F09174031995FF91EF9142
:104F4000BF91AF919F918F917F916F915F914F91A1
:104F50003F912F910F900BBE0F900FBE0F901F909F
:104F600018951F920F920FB60F9211240BB60F9245
:104F70002F933F934F935F936F937F938F939F9361
:104F8000AF93BF93EF93FF93E0917503F091760396
:104F90001995FF91EF91BF91AF919F918F917F9163
:104FA0006F915F914F913F912F910F900BBE0F909A
:104FB0000FBE0F901F9018951F920F920FB60F9271
:104FC00011240BB60F922F933F934F935F936F93E0
:104FD0007F938F939F93AF93BF93EF93FF93E09152
:104FE0006B03F0916C031995FF91EF91BF91AF9115
:104FF0009F918F917F916F915F914F913F912F91F1
:105000000F900BBE0F900FBE0F901F9018951F9220
:105010000F920FB60F9211240BB60F922F933F935E
:105020004F935F936F937F938F939F93AF93BF93B0
:10503000EF93FF93E0916D03F0916E031995FF914B
:10504000EF91BF91AF919F918F917F916F915F9100
:105050004F913F912F910F900BBE0F900FBE0F906D
:105060001F9018951F920F920FB60F9211240BB636
:105070000F922F933F934F935F936F937F938F93F1
:105080009F93AF93BF93EF93FF93E0917703F091DA
:1050900078031995FF91EF91BF91AF919F918F91F7
:1050A0007F916F915F914F913F912F910F900BBE28
:1050B0000F900FBE0F901F9018951F920F920FB672
:1050C0000F9211240BB60F922F933F934F935F9340
:1050D0006F937F938F939F93AF93BF93EF93FF93C0
:1050E000E0917903F0917A031995FF91EF91BF91C7
:1050F000AF919F918F917F916F915F914F913F9170
:105100002F910F900BBE0F900FBE0F901F90189510
:105110001F920F920FB60F9211242F933F938F93EC
:105120009F93AF93BF938091AA059091AB05A091F7
:10513000AC05B091AD053091A90523E0230F2D37C3
:1051400058F50196A11DB11D2093A9058093AA05CC
:105150009093AB05A093AC05B093AD058091AE05DF
:105160009091AF05A091B005B091B1050196A11D38
:10517000B11D8093AE059093AF05A093B005B09399
:10518000B105BF91AF919F918F913F912F910F905A
:105190000FBE0F901F90189526E8230F0296A11DB1
:1051A000B11DD2CF3FB7F8948091AE059091AF0575
:1051B000A091B005B091B10526B5A89B05C02F3FC1
:1051C00019F00196A11DB11D3FBFBA2FA92F982F2D
:1051D0008827BC01CD01620F711D811D911D42E028
:1051E000660F771F881F991F4A95D1F708958F92F0
:1051F0009F92AF92BF92CF92DF92EF92FF926B019C
:105200007C01D0DF4B015C01C114D104E104F10445
:10521000D9F0D7D5C7DF681979098A099B09683E93
:1052200073408105910580F321E0C21AD108E1089D
:10523000F10888EE880E83E0981EA11CB11CC114F1
:10524000D104E104F10431F7FF90EF90DF90CF90AB
:10525000BF90AF909F908F900895789484B58260AE
:1052600084BD84B5816084BD85B5826085BD85B50A
:10527000816085BDEEE6F0E0808181608083E1E8B9
:10528000F0E01082808182608083808181608083F1
:10529000E0E8F0E0808181608083E1EBF0E08081F4
:1052A00084608083E0EBF0E0808181608083E1E9CD
:1052B000F0E0808182608083808181608083E0E98A
:1052C000F0E0808181608083E1EAF0E080818260AB
:1052D0008083808181608083E0EAF0E0808181606A
:1052E0008083E1E2F1E0808182608083808181605F
:1052F0008083E0E2F1E0808181608083EAE7F0E092
:1053000080818460808380818260808380818160ED
:1053100080838081806880831092C10008951F93EC
:10532000CF93DF93182FEB0161E033D1209731F455
:1053300060E0812FDF91CF911F9167C1CF3FD105F1
:1053400011F461E0F6CFE12FF0E0EC51FE4FE49173
:10535000E150E23108F0B2C0F0E08827EE54F64D9B
:105360008F4F65C5C429CC29D129DB29E5295E2ABF
:10537000EF29F729FF29092A132A1D2A2C2A362A60
:105380005E2A402A4A2A542A84B5806884BDC7BD53
:10539000DF91CF911F91089584B5806284BDC8BD0F
:1053A000F7CF80918000806880938000D09389003F
:1053B000C0938800EDCF8091800080628093800050
:1053C000D0938B00C0938A00E3CF809180008860E7
:1053D00080938000D0938D00C0938C00D9CF8091B2
:1053E000B00080688093B000C093B300D1CF8091AB
:1053F000B00080628093B000C093B400C9CF8091A8
:105400009000806880939000D0939900C09398009A
:10541000BFCF80919000806280939000D0939B00DA
:10542000C0939A00B5CF80919000886080939000DF
:10543000D0939D00C0939C00ABCF8091A00080686A
:105440008093A0008091A0008F7B8093A000D093D8
:10545000A900C093A8009CCF8091A0008062809397
:10546000A000D093AB00C093AA0092CF8091A0007F
:1054700088608093A000D093AD00C093AC0088CF2B
:1054800080912001806880932001D0932901C093EE
:1054900028017ECF80912001806280932001D093EB
:1054A0002B01C0932A0174CF8091200188608093E2
:1054B0002001D0932D01C0932C016ACFC038D105B3
:1054C0000CF03FCF35CF8150823108F059C0E82F22
:1054D000F0E08827E259F54D8F4FA9C48E2A922A11
:1054E000802A862A8A2AC02A952A9B2A9F2AA52AA8
:1054F000A92AAD2AB32AB72AC02ABB2AC12AC52A9B
:10550000809180008F778093800008958091800043
:105510008F7DF9CF80918000877FF5CF84B58F771D
:1055200084BD089584B58F7DFBCF8091B0008F77C7
:105530008093B00008958091B0008F7DF9CF809165
:1055400090008F77809390000895809190008F7DD8
:10555000F9CF80919000877FF5CF8091A0008F7761
:105560008093A00008958091A0008F7DF9CF809155
:10557000A000877FF5CF809120018F778093200155
:105580000895809120018F7DF9CF80912001877F40
:10559000F5CFCF93DF9390E0FC01E65DFD4F2491C2
:1055A00080599D4FFC0184918823C9F090E0880FB9
:1055B000991FFC01E651FD4FA591B491FC01E05308
:1055C000FD4FC591D49161110DC09FB7F8948C9196
:1055D000209582238C938881282328839FBFDF9185
:1055E000CF910895623051F49FB7F8943C91822F87
:1055F000809583238C93E8812E2BEFCF8FB7F8947F
:10560000EC912E2B2C938FBFEACF1F93CF93DF9378
:10561000282F30E0F901EC51FE4F8491F901E65D4D
:10562000FD4FD491F901E059FD4FC491CC23A1F075
:10563000162F811148DFEC2FF0E0EE0FFF1FE05333
:10564000FD4FA591B4918FB7F894EC91111108C05A
:10565000D095DE23DC938FBFDF91CF911F9108950A
:10566000DE2BF8CFCF93DF93282F30E0F901EC51F8
:10567000FE4F8491F901E65DFD4FD491F901E059A7
:10568000FD4FC491CC2399F081111DDFEC2FF0E088
:10569000EE0FFF1FEA54FD4FA591B491EC91ED235D
:1056A00081E090E009F480E0DF91CF91089580E0FF
:1056B00090E0FACFFC01918D228D892F90E0805CE3
:1056C0009F4F821B91098F7399270895FC01918D3B
:1056D000828D981731F0828DE80FF11D858D90E055
:1056E00008958FEF9FEF0895FC01918D828D98179B
:1056F00061F0A28DAE0FBF2FB11D5D968C91928D82
:105700009F5F9F73928F90E008958FEF9FEF0895B2
:10571000FC01538D448D252F30E0842F90E0821BB7
:10572000930B541710F0CF96089501970895FC013C
:10573000A48DA80FB92FB11DA35ABF4F2C91848DF2
:1057400090E001968F739927848FA689B7892C934F
:10575000A089B1898C91837080648C93938D848DA2
:10576000981306C00288F389E02D80818F7D8083A5
:105770000895CF93DF93EC01888D8823B1F0AA8937
:10578000BB89E889F9898C9185FD03C0808186FDFC
:105790000CC00FB607FCF7CF8C9185FFF2CF80814C
:1057A00085FFEDCFCE01C3DFEACFDF91CF91089522
:1057B000EF92FF920F931F93CF93DF93EC0181E061
:1057C000888F9B8D8C8D98131AC0E889F989808108
:1057D00085FF15C09FB7F894EE89FF896083E8893B
:1057E000F98980818370806480839FBF81E090E02D
:1057F000DF91CF911F910F91FF90EF900895F62EBA
:105800000B8D10E00F5F1F4F0F731127E02E8C8D53
:105810008E110BC00FB607FCFACFE889F989808199
:1058200085FFF5CFCE0183DFF2CFEB8DEC0FFD2F9F
:10583000F11DE35AFF4FF0829FB7F8940B8FEA896E
:10584000FB8980818062D0CFCF92DF92EF92FF926E
:105850001F93CF93DF93EC016A017B01122FE8893C
:10586000F98982E08083C11481EED806E104F10455
:1058700099F060E079E08DE390E0A7019601B5D260
:10588000215031094109510956954795379527957A
:10589000211580E1380790F0E889F989108260E8E5
:1058A00074E88EE190E0A70196019FD22150310962
:1058B000410951095695479537952795EC85FD8502
:1058C0003083EE85FF852083188EEC89FD89108357
:1058D000EA89FB89808180618083EA89FB898081F4
:1058E00088608083EA89FB89808180688083EA8977
:1058F000FB8980818F7D8083DF91CF911F91FF9005
:10590000EF90DF90CF9008951F920F920FB60F92F5
:1059100011240BB60F922F938F939F93EF93FF93C6
:10592000E091C205F091C3058081E091C805F09136
:10593000C90582FD1DC090818091CB058F5F8F735B
:105940002091CC05821741F0E091CB05F0E0EE54B8
:10595000FA4F958F8093CB05FF91EF919F918F9197
:105960002F910F900BBE0F900FBE0F901F901895A8
:105970008081F2CF1F920F920FB60F9211240BB6B7
:105980000F922F933F934F935F936F937F938F93D8
:105990009F93AF93BF93EF93FF9382EB95E0C7DEA6
:1059A000FF91EF91BF91AF919F918F917F916F91F7
:1059B0005F914F913F912F910F900BBE0F900FBEB3
:1059C0000F901F901895E2EBF5E01382128288EE9B
:1059D00093E0A0E0B0E084839583A683B78382E65A
:1059E00094E09183808385EC90E09587848784ECB4
:1059F00090E09787868780EC90E0918B808B81EC9C
:105A000090E0938B828B82EC90E0958B848B86EC7C
:105A100090E0978B868B118E128E138E148E0895C4
:105A20001F920F920FB60F9211240BB60F922F9365
:105A30008F939F93EF93FF93E0915F06F091600641
:105A40008081E0916506F091660682FD1DC090811F
:105A5000809168068F5F8F7320916906821741F0ED
:105A6000E0916806F0E0E15BF94F958F809368065E
:105A7000FF91EF919F918F912F910F900BBE0F90FF
:105A80000FBE0F901F9018958081F2CF1F920F923A
:105A90000FB60F9211240BB60F922F933F934F9393
:105AA0005F936F937F938F939F93AF93BF93EF9386
:105AB000FF938FE496E03BDEFF91EF91BF91AF91B2
:105AC0009F918F917F916F915F914F913F912F9116
:105AD0000F900BBE0F900FBE0F901F901895EFE424
