:1000000085C100000C94FE2B0C94292C0C94542CCC
:100010000C947F2C0C94AA2C0C94D52C0C94002DB1
:100020000C942B2DA4C10000A2C10000A0C10000AF
:100030009EC100009CC100009AC1000098C1000050
:1000400096C1000094C1000092C1000090C1000060
:100050008EC100008CC100008AC100000C94562D96
:1000600086C100000C9452310C94883180C100008C
:100070007EC100007CC100007AC1000078C1000090
:1000800076C1000074C1000072C1000070C10000A0
:100090000C94DE310C9414326AC1000068C1000077
:1000A00066C1000064C1000062C1000060C10000C0
:1000B0005EC100005CC100005AC1000058C10000D0
:1000C00056C1000054C100000C94211D0C946A32EA
:1000D0000C94A0324CC100000C94F6320C942C33DA
:1000E00046C10000001D3A2774694E53E8F5D2CF8F
:1000F0009C81A6BBCDD0F7EAB9A4839E25381F0208
:10010000514C6B76879ABDA0F3EEC9D46F725548F7
:100110001B06213C4A57706D3E230419A2BF9885E7
:10012000D6CBECF1130E2934677A5D40FBE6C1DCD7
:100130008F92B5A8DEC3E4F9AAB7908D362B0C11C7
:10014000425F78659489AEB3E0FDDAC77C61465BB7
:100150000815322F5944637E2D30170AB1AC8B96A7
:10016000C5D8FFE2263B1C01524F6875CED3F4E997
:10017000BAA7809DEBF6D1CC9F82A5B8031E392487
:10018000776A4D50A1BC9B86D5C8EFF24954736E77
:100190003D20071A6C71564B1805223F8499BEA367
:1001A000F0EDCAD735280F12415C7B66DDC0E7FA57
:1001B000A9B4938EF8E5C2DF8C91B6AB100D2A3747
:1001C00064795E43B2AF8895C6DBFCE15A47607D37
:1001D0002E3314097F6245580B16312C978AADB027
:1001E000E3FED9C400000A0B02090C0D0E08070338
:1001F00004010000000000000000000000000000FA
:1002000000000000000000000000000000000000EE
:1002100012111000000000000000000000000000AB
:100220000000000000000000000001021020200873
:100230000810204010204080020102010804020141
:1002400001020408102040808040201008040201B0
:100250008004020180402010080402010804020109
:100260000102040810204080010204081020408090
:1002700005050505070508080808020202020A0A22
:100280000808040404040101010101010101030340
:10029000030303030303040707070C0C0C0C0C0CEB
:1002A0000C0C0202020206060606060606060B0BE8
:1002B0000B0B0B0B0B0B000020002300260029006A
:1002C0002C002F003200000100000301060109018B
:1002D00000002200250028002B002E0031003400F1
:1002E00002010000050108010B01000021002400AB
:1002F00027002A002D003000330001010000040116
:1003000007010A01B1313D32C932553311241FBEF4
:10031000CFEFD1E2DEBFCDBF00E00CBF15E0A0E023
:10032000B2E0E6EBFAE600E00BBF02C007900D92E8
:10033000AA39B107D9F72AE0AAE9B5E001C01D92B0
:10034000A033B207E1F711E0C6E8D1E000E006C053
:1003500021970109802FFE010E94E533C238D107A1
:1003600080E00807A9F70E9447290C94593548CE28
:10037000611102C00C94972F6130E1F362E0FACF73
:10038000662319F061E00C94D32F60E0FCCF089550
:10039000CF92DF92EF92FF92CF93882351F16A01BF
:1003A0007B01CFEFC80F20E030E0A901CB01B601FF
:1003B0000E94352A87FF11C0C701B60190580E94DC
:1003C0003E2A9B01AC016C2F70E090E080E0CF9161
:1003D000FF90EF90DF90CF90B2C0C701B6010E94AE
:1003E000392A8C2FCF91FF90EF90DF90CF900C9413
:1003F0005D2ECF91FF90EF90DF90CF9008950F93F7
:100400001F938B019C0183E03695279517950795DF
:100410008A95D1F706561A4F462F477021E030E0F3
:10042000F90102C0EE0FFF1F4A95E2F7AF01F80194
:1004300020812423CB010196211102C090E080E0AD
:100440001F910F9108950F931F938B019C0183E0DF
:1004500036952795179507958A95D1F7677081E0AE
:1004600090E001C0880F6A95EAF7F801E656FA4F66
:100470002081452B31F48095822380831F910F9139
:100480000895822BFACF2F923F924F925F926F92F4
:100490007F928F929F92AF92BF92CF92DF92EF9214
:1004A000FF920F931F93CF93DF93D62EC72E782EF4
:1004B000692E49015A01280161E08D2D0E94972F74
:1004C000CD2DDC2D8E010F5F1F4FA8016D2D7C2DD2
:1004D000872D962DB8DF20E030E0A901C201B701D9
:1004E0000E941C2B181664F4C201B7010E943E2A18
:1004F0002B01C501B4010E943E2AA201CE0123D0E6
:10050000C801DF91CF911F910F91FF90EF90DF9085
:10051000CF90BF90AF909F908F907F906F905F90A3
:100520004F903F902F900895882341F08150682F7D
:1005300070E090E080E050E040E085CF0895862FA5
:10054000B9010C945D2E9C01FC01EC51FE4FE4912D
:10055000E150E231E0F4F0E08827EE54FD4F8F4F98
:100560000C94E533C402CB02CE02E502FA02C702C4
:100570000F031B031F0336034B03600377038C0336
:10058000C702A103B803CD0384B5806884BD60E0D1
:10059000822F0C94D32F84B58062F8CF8091800095
:1005A0008C7F82608093800080918100807E80615A
:1005B000682B609381005093870040938600809160
:1005C0008000806880938000E2CF809180008C7FE3
:1005D00082608093800080918100807E8061682BA2
:1005E0006093810050938700409386008091800043
:1005F0008062E8CF809180008C7F82608093800051
:1006000080918100807E8061682B6093810050938F
:10061000870040938600809180008860D3CF8091CE
:10062000B00080688093B0008091B100887F682B13
:100630006093B100ACCF8091B0008062F3CF809125
:1006400090008C7F82608093900080919100807EEA
:100650008061682B609391005093970040939600BF
:100660008091900080688093900091CF809190005D
:100670008C7F82608093900080919100807E806169
:10068000682B60939100509397004093960080915F
:1006900090008062E8CF809190008C7F8260809390
:1006A000900080919100807E8061682B6093910022
:1006B0005093970040939600809190008860D3CF2C
:1006C0008091A0008C7F82608093A0008091A10027
:1006D000807E8061682B6093A1005093A7004093B7
:1006E000A6008091A00080688093A00050CF8091E8
:1006F000A0008C7F82608093A0008091A100807E0A
:100700008061682B6093A1005093A7004093A600DE
:100710008091A0008062E8CF8091A0008C7F8260F1
:100720008093A0008091A100807E8061682B6093FF
:10073000A1005093A7004093A6008091A00088607C
:10074000D3CF809120018C7F8260809320018091A3
:100750002101807E8061682B6093210150932701E5
:1007600040932601809120018068809320010FCF63
:10077000809120018C7F82608093200180912101F3
:10078000807E8061682B6093210150932701409304
:100790002601809120018062E8CF809120018C7F2A
:1007A00082608093200180912101807E8061682B8E
:1007B00060932101509327014093260180912001ED
:1007C0008860D3CF60E070E080E89FE7089560E044
:1007D00070E080E89FE7089560E070E080E89FEFB8
:1007E000089560E070E080E89FEF089560E070E0B9
:1007F00080EC9FEF089560E070E080EC9FEF08953B
:10080000F5DF60936C0970936D0980936E09909386
:100810006F09F1DF60936009709361098093620949
:1008200090936309CFDF609368097093690980939F
:100830006A0990936B09CBDF609364097093650933
:100840008093660990936709C7DF6093700970937E
:1008500071098093720990937309C3DF60937409DF
:1008600070937509809376099093770908950F9393
:100870001F938B019C010027112720783F770115DA
:10088000110520483F4749F4AB01BC016F7777273A
:1008900081E0452B462B472B09F480E01F910F91F7
:1008A0000895E5CF2F923F924F925F926F927F9281
:1008B0008F929F92AF92BF92CF92DF92EF92FF9270
:1008C0000F931F93CF93DF93CDB7DEB7A6970FB6E5
:1008D000F894DEBF0FBECDBF8091D1098150823028
:1008E00008F42AC480E08093D1098091C009815026
:1008F000823008F423C480E08093C0098091BF094E
:100900008150823008F41CC480E08093BF0980913C
:10091000BE098150823008F415C480E08093BE097E
:100920002CE839E048E25AE066E27AE08DE894E0AB
:100930000E94841C6091280A7091290A072E000CDD
:10094000880B990B0E946C2A2091DE033091DF0303
:100950004091E0035091E1030E94202B4B015C0188
:100960008092FE099092FF09A092000AB092010ABB
:100970006091260A7091270A072E000C880B990BAC
:100980000E946C2A2091E2033091E3034091E4033A
:100990005091E5030E94D1296B017C014090EA034C
:1009A0005090EB036090EC037090ED03AC019B0161
:1009B000C301B2010E94352A87FFC6C3A301920179
:1009C000C701B6010E94D0292091EE033091EF03B8
:1009D0004091F0035091F1030E94202B2B013C0128
:1009E0004092020A5092030A6092040A7092050A29
:1009F00020E030E0A9010E941C2B18160CF0B9C3AE
:100A00008091F2039091F303A091F403B091F50368
:100A10008093060A9093070AA093080AB093090AE4
:100A20008091BC099091BD092091520330915303EC
:100A3000821793073CF420915403309155032817F3
:100A4000390724F080918C048093C2098091C209F7
:100A5000882309F4A1C38092F6099092F709A09225
:100A6000F809B092F909A30192016091060A709108
:100A7000070A8091080A9091090A0E94D12960937F
:100A8000FA097093FB098093FC099093FD0980910A
:100A9000C109882309F440C08091FE039091FF03AF
:100AA000A0910004B0910104809390099093910962
:100AB000A0939209B093930980910204909103044A
:100AC000A0910404B0910504809394099093950932
:100AD000A0939609B093970980910604909107041A
:100AE000A0910804B0910904809398099093990902
:100AF000A0939A09B0939B0980910A0490910B04EA
:100B0000A0910C04B0910D0480939C0990939D09D1
:100B1000A0939E09B0939F098091F6099091F709DF
:100B2000A091F809B091F9098093D2099093D30963
:100B3000A093D409B093D509809194099091950917
:100B4000A0919609B09197098B8B9C8BAD8BBE8B36
:100B50008093D6099093D709A093D809B093D90967
:100B60008091FA099091FB09A091FC09B091FD09CF
:100B70008093DA099093DB09A093DC09B093DD0937
:100B800080909C0990909D09A0909E09B0909F092B
:100B90008092DE099092DF09A092E009B092E1090B
:100BA0008091A0099091A109A091A209B091A309F7
:100BB0008093E2099093E309A093E409B093E509D7
:100BC00052EDE52E59E0F52E6AE3C62E63E0D62EEF
:100BD00006E213E01B861C861D861E86D8016D91D9
:100BE0007D918D919D918D01F701219131914191DF
:100BF00051917F0190580E94202B9B01AC016B8585
:100C00007C858D859E850E94D1296B877C878D8709
:100C10009E87C016D10611F780918F04882309F4AE
:100C2000DBC281E08093C509809198099091990970
:100C3000A0919A09B0919B098B8F9C8FAD8FBE8F2D
:100C40008091900990919109A0919209B091930996
:100C50008F8F98A3A9A3BAA30EE913E0A6EFB9E07A
:100C6000B88FAF8BFE013196F88BEF879E01275F1F
:100C70003F4F3A87298718010C5F1F4FEF89F88D86
:100C800081919191A191B191F88FEF8B8BA39CA34E
:100C9000ADA3BEA3D10118962D913D914D915C91CC
:100CA0001B976B897C898D899E890E94202B6B0103
:100CB0007C01F10120813181428153816F8D78A1C6
:100CC00089A19AA10E94202B9B01AC01C701B6010A
:100CD0000E94D1296B017C01D10150962D913D914B
:100CE0004D915C9153976B8D7C8D8D8D9E8D0E9467
:100CF000202B9B01AC01C701B6010E94D1296B01D9
:100D00007C01F101208D318D428D538DC501B401DF
:100D10000E94202B9B01AC01C701B6010E94D12982
:100D20006B017C01F801EC57FF4F2081318142813A
:100D300053816B857C858D859E850E94202B9B0130
:100D4000AC01C701B6010E94D1299B01AC016BA186
:100D50007CA18DA19EA10E94D029AF85B8896D93F9
:100D60007D938D939D93B88BAF87E985FA85EA17BC
:100D7000FB0709F080CF89819A81AB81BC818F8785
:100D8000988BA98BBA8B8D819E81AF81B8858B8B17
:100D90009C8BAD8BBE8B0EEB13E046E1242E4AE01C
:100DA000342ED8018D909D90AD90BD908D011C96F4
:100DB0002D913D914D915C911F976B897C898D8917
:100DC0009E890E94202B6B017C012F8538894989DF
:100DD0005A89C501B4010E94202B20E030E0A9010E
:100DE0000E94D1299B01AC01C701B6010E94D12903
:100DF000F10161937193819391931F012EEC33E084
:100E00002017310771F68091C009882309F4E1C1E8
:100E1000833009F0DAC181E090E08093C00920912D
:100E2000A8093091A9094091AA095091AB09609194
:100E300042047091430480914404909145040E94BF
:100E4000202B6B017C0120E030E0A9016091460479
:100E50007091470480914804909149040E94352A7A
:100E6000882309F4E9C180914E0390914F03A0912A
:100E70005003B09151038093AC099093AD09A093B6
:100E8000AE09B093AF0980914A0390914B03A091B2
:100E90004C03B0914D038093B0099093B109A09396
:100EA000B209B093B30920E030E0A901C701B6014F
:100EB0000E941C2B18160CF00AC28091B009909168
:100EC000B109A091B209B091B30980930A0A909335
:100ED0000B0AA0930C0AB0930D0A20910A0A3091D4
:100EE0000B0A40910C0A50910D0A609142037091D7
:100EF000430380914403909145030E94202B4B01B2
:100F00005C014090A8095090A9096090AA097090CE
:100F1000AB09C090020AD090030AE090040AF09056
:100F2000050AA301920160913A0470913B048091FB
:100F30003C0490913D040E94352A87FFDBC1A70144
:100F40009601C501B4010E94352A87FFD3C1809064
:100F50003A0390903B03A0903C03B0903D0320E007
:100F600030E0A901C501B4010E941C2B18160CF039
:100F7000E9C1A50194016091FE097091FF0980917A
:100F8000000A9091010A0E94352A87FFDBC18091F7
:100F9000360490913704A0913804B09139048093BD
:100FA000120A9093130AA093140AB093150A809121
:100FB000260A9091270A88519C4F813D974008F45A
:100FC000F1C18B859C85AD85BE858093120A909377
:100FD000130AA093140AB093150A8091BF098823BD
:100FE00009F4DDC1833009F0D6C181E090E080933F
:100FF000BF092091560430915704409158045091F4
:101000005904C701B6010E94202B2B013C012091FD
:10101000A4093091A5094091A6095091A7090E9401
:10102000D0296B017C0120E030E0A9010E941C2B3B
:1010300018160CF0C9C180915A0490915B04A091DC
:101040005C04B0915D0480930E0A90930F0AA09304
:10105000100AB093110AA090120AB090130A0091DE
:10106000140A1091150AC0907A04D0907B04E09085
:101070007C04F0907D04A7019601B501C8010E948F
:101080001C2B181694F0C0907E04D0907F04E09042
:101090008004F0908104A7019601B501C8010E9467
:1010A000352A87FD02C065017801209182043091C4
:1010B00083044091840450918504C701B6010E94C5
:1010C000202B4B015C0120E030E0A9010E94352A71
:1010D00087FD30C020E030E0A901C501B4010E94C5
:1010E0001C2B18160CF482C120E030E0A901C501C8
:1010F000B4010E94352A882309F444C480906C0905
:1011000090906D09A0906E09B0906F0920E030E0DA
:1011100040E853E4C501B4010E94352A6FEF87FF10
:101120006FC120E030E0A901C501B4010E941C2B71
:1011300087FF62C160E064C183E0D5CB83E0DCCB94
:1011400083E0E3CB83E0EACB4090E6035090E703F3
:101150006090E8037090E903A7019601C301B20112
:101160000E94352A18160CF429CC60E070E0CB01FF
:101170002BCC20E030E0A901C301B2010E94352A46
:1011800018160CF44DCC8091F6039091F703A091C2
:10119000F803B091F9033CCC80915A0390915B0322
:1011A000A0915C03B0915D038093F6099093F709D9
:1011B000A093F809B093F9098093FA099093FB0979
:1011C000A093FC09B093FD0962CC082E000C990B8A
:1011D00024CE82E090E021CE8091C509882309F4D5
:1011E0001ECE8091560390915703A0915803B09161
:1011F00059038093160A9093170AA093180AB09384
:10120000190A80931A0A90931B0AA0931C0AB093A0
:101210001D0A80931E0A90931F0AA093200AB09380
:10122000210A8093220A9093230AA093240AB09360
:10123000250A1092C509F3CD8090AC099090AD09B4
:10124000A090AE09B090AF09A5019401C301B2010D
:101250000E94352A87FF2FC08091020A9091030ACD
:10126000A091040AB091050A8093AC099093AD094E
:10127000A093AE09B093AF098090B0099090B109E6
:10128000A090B209B090B309A50194016091020A3F
:101290007091030A8091040A9091050A0E941C2B08
:1012A00018167CF48091020A9091030AA091040A16
:1012B000B091050AF0CDC501B401F3DA8111CCCFAC
:1012C000DBCFC501B401EDDA8111ECCFECCD20E02C
:1012D00030E0A901C701B6010E94352A18160CF4A6
:1012E000FCCD8091AC099091AD09A091AE09B0916F
:1012F000AF09EBCD20914E0430914F044091500442
:1013000050915104C301B2010E94352A87FF11C0D8
:10131000A7019601C501B4010E941C2B18164CF4BC
:1013200080903E0390903F03A0904003B090410313
:1013300016CE8090520490905304A0905404B09024
:1013400055040DCE20E030E0A901C501B4010E9492
:10135000352A87FF17C0A50194016091FE0970919D
:10136000FF098091000A9091010A0E941C2B181617
:101370004CF48091320490913304A0913404B091E4
:1013800035040DCE80912E0490912F04A09130044D
:10139000B091310404CE082E000C990B28CE82E0C7
:1013A00090E025CE8091BE09882359F0833029F43E
:1013B00081E090E08093BE091CCE082E000C990BB2
:1013C000F9CF82E090E0F6CF20E030E0A901C7013C
:1013D000B6010E94352A87FF3ECE80915E0490912F
:1013E0005F04A0916004B09161042DCE812C912CFA
:1013F00030E8A32E3FE3B32EC501B4010E943E2A7C
:101400008AE00E94C00160918009709181098091F9
:101410008209909183090E94FF018C0190937F09BA
:1014200080937E09C701B6019F7720918604309191
:10143000870440918804509189040E94202B6B01FD
:101440007C0120E030E04FE753E40E94352A87FF1B
:101450009DC220E030E0A901C701B6010E941C2B0B
:1014600018160CF09AC2B701A601C8010E94C80163
:101470002CE839E048E25AE066E27AE08DE894E050
:101480000E94B61C8091260A9091270A9093BD096C
:101490008093BC091092C10980919C0990919D098B
:1014A000A0919E09B0919F098F87988BA98BBA8BC9
:1014B0008091980990919909A0919A09B0919B09FE
:1014C0008B8B9C8BAD8BBE8B8091940990919509F1
:1014D000A0919609B09197098F8B988FA98FBA8F99
:1014E0008091900990919109A0919209B0919309EE
:1014F0008B8F9C8FAD8FBE8F0EE513E086EE882E0E
:1015000089E0982E9EE6292E93E0392E58010C5F33
:101510001F4FD50150962D913D914D915C91539760
:101520006F89788D898D9A8D0E94202B6B017C01AB
:10153000F50120813181428153816B8D7C8D8D8DB0
:101540009E8D0E94202B9B01AC01C701B6010E9419
:10155000D1296B017C01D50190962D913D914D9142
:101560005C9193976B897C898D899E890E94202B41
:101570009B01AC01C701B6010E94D1296B017C011E
:10158000F50120A931A942A953A96F8578898989D4
:101590009A890E94202B9B01AC01C701B6010E94D1
:1015A000D129D4016D937D938D939D934D01201688
:1015B000310609F0ABCF2091160430911704409109
:1015C0001804509119046B857C858D859E850E9439
:1015D000202B2091E6093091E7094091E8095091CC
:1015E000E9090E94D1292091160A3091170A4091E9
:1015F000180A5091190A0E94D1296093900970939A
:101600009109809392099093930920911A04309143
:101610001B0440911C0450911D046B857C858D85B5
:101620009E850E94202B2091EA093091EB09409180
:10163000EC095091ED090E94D12920911A0A3091AC
:101640001B0A40911C0A50911D0A0E94D1296093E7
:101650009409709395098093960990939709209126
:101660001E0430911F0440912004509121046B8589
:101670007C858D859E850E94202B2091EE093091DE
:10168000EF094091F0095091F1090E94D129209170
:101690001E0A30911F0A4091200A5091210A0E948F
:1016A000D129609398097093990980939A0990932E
:1016B0009B092091220430912304409124045091ED
:1016C00025046B857C858D859E850E94202B20912D
:1016D000F2093091F3094091F4095091F5090E9403
:1016E000D1292091220A3091230A4091240A509155
:1016F000250A0E94D12960939C0970939D098093CB
:101700009E0990939F0920916A0430916B04409147
:101710006C0450916D0460910B0670910C068091E1
:101720000D0690910E060E94352A87FF3AC16091FE
:101730006E0470916F0480917004909171042091F7
:1017400076043091770440917804509179040E9496
:10175000202B2091F6093091F7094091F80950911A
:10176000F9090E94D02920910E0430910F04409174
:101770001004509111040E94202B2091A009309157
:10178000A1094091A2095091A3090E94D129609317
:10179000A0097093A1098093A2099093A309C09016
:1017A0000E0AD0900F0AE090100AF090110AC701BB
:1017B000B6019F77209166043091670440916804D8
:1017C000509169040E941C2B181644F4C092A80979
:1017D000D092A909E092AA09F092AB094092A4091B
:1017E0005092A5096092A6097092A70981E090E045
:1017F0000E94B21B40910B0650910C0660910D06A1
:1018000070910E0690E080E00E94AE1B80901B0657
:1018100090901C06A0901D06B0901E0620E030E0BF
:1018200040E85FEBC501B4010E94352A882331F1FD
:10183000C0900B06D0900C06E0900D06F0900E06BE
:10184000A7019601C501B4010E94D0294B015C019A
:1018500020E030E040E054E3C701B6010E94202BB5
:101860009B01AC01C501B4010E941C2B181634F079
:1018700084EA94E09093F6058093F50580911F0625
:10188000882331F084EA94E09093F6058093F5057F
:10189000C0900F06D0901006E0901106F09012064E
:1018A000BFEFCB1ADB0AEB0AFB0AC0920F06D092FD
:1018B0001006E0921106F0921206C114D104E10460
:1018C000F10499F48091130690911406A0911506E5
:1018D000B09116060196A11DB11D80931306909339
:1018E0001406A0931506B0931606809017069090E4
:1018F0001806A0901906B0901A0660911306709110
:10190000140680911506909116060E946A2AA50178
:1019100094010E94202B20E030E040E85FE40E9428
:10192000202B2B013C01C701B6010E946A2AA501A8
:1019300094010E94202B9B01AC01C301B2010E94C3
:10194000D12960930B0670930C0680930D0690933B
:101950000E06A6960FB6F894DEBF0FBECDBFDF9180
:10196000CF911F910F91FF90EF90DF90CF90BF909C
:10197000AF909F908F907F906F905F904F903F902F
:101980002F900895812C912C540136CDC12CD12C4F
:101990002FE7E22E23E4F22E66CDC12CD12C760166
:1019A00062CD60917204709173048091740490917F
:1019B0007504C5CE4F925F926F927F92AF92BF92A5
:1019C000DF92EF92FF920F931F93CF93DF9384E008
:1019D00090E00E940004A5EFB5E08BE2ED011992C2
:1019E0008A95E9F740E050E060E87FEB96964D93EA
:1019F0005D936D937C9399974FE652E163E87AE3A8
:101A000092964D935D936D937C93959740E35CE83C
:101A100063E47CED14964D935D936D937C931797DF
:101A200043EB51E268EC75E218964D935D936D932C
:101A30007C931B9747E95EE268E07BE41C964D933C
:101A40005D936D937C931F974DEB54EA6FEC7DEBA8
:101A500050964D935D936D937C935397C9EED5E06B
:101A60001396DC93CE931297E7EBF5E0F983E883C6
:101A700088EB94E09183808320ED39E033832283E7
:101A800021ED39E03583248320EC39E03783268348
:101A90009187808793878287958784872EEB39E0AB
:101AA000378726872FEB39E0318B208B938B828B06
:101AB000958B848B2FEC39E0378B268B2EEC39E01D
:101AC000318F208F938F828F958F848F978F868F02
:101AD00091A380A38CEC99E093A382A38DEC99E071
:101AE00095A384A38BEC99E097A386A38AEC99E055
:101AF00091A780A789EC99E093A782A788EC99E049
:101B000095A784A786EC99E097A786A787EC99E02C
:101B100091AB80AB89E096E09D838C8389EF95E063
:101B20009B838A838BE096E09F838E8382EDA82E31
:101B300089E0B82E88E5F50111928A95E9F7C8E7A2
:101B4000D9E08AE5FE0111928A95E9F72DEA35E0A0
:101B50008AE0F90111928A95E9F7E3EAF5E05596F2
:101B6000FC93EE93549780E190E09183808386E02C
:101B700093E09383828386EE92E09583848382E36D
:101B800092E09783868386E092E091878087DD24C8
:101B9000D394D092C409412C512C320143944D86E8
:101BA0005E866F86788A61E08AE00E94B801D98AF1
:101BB0001882D092C30989E090E0A0E0B0E0888765
:101BC0009987AA87BB871D8249825A826B827C8251
:101BD000E12CF12C8701A801970169E070E080E019
:101BE00090E00E9443029F838E83688579858A8571
:101BF0009B850E94FF019F838E830E94C701DD8227
:101C0000EC8AFD8A0E8B1F8BE6E2F3E080918A045A
:101C100090918B049093BD098093BC0980918E04B0
:101C20008093C209D092C10980911204909113044B
:101C3000A0911404B091150488A799A7AAA7BBA7DF
:101C400080913E0490913F04A0914004B0914104E2
:101C500088AB99ABAAABBBAB80A591A5A2A5B3A558
:101C60008CAB9DABAEABBFAB84A195A1A6A1B7A138
:101C700088AF99AFAAAFBBAF80A191A1A2A1B3A138
:101C80008CA79DA7AEA7BFA78091FA039091FB03F5
:101C9000A091FC03B091FD03E5018CAB9DABAEAB15
:101CA000BFAB80A991A9A2A9B3A98093160A90936A
:101CB000170AA093180AB093190A80931A0A9093EE
:101CC0001B0AA0931C0AB0931D0A80931E0A9093CE
:101CD0001F0AA093200AB093210A8093220A9093AE
:101CE000230AA093240AB093250A80914A04909174
:101CF0004B04A0914C04B0914D0488AF99AFAAAFAA
:101D0000BBAF8091620490916304A0916404B09190
:101D100065048CAF9DAFAEAFBFAFDF91CF911F9188
:101D20000F91FF90EF90DF90BF90AF907F906F90FA
:101D30005F904F90089580918409811103C081E0E4
:101D40008093840980917809811136C081E0809365
:101D500078098091790990917A09A0917B09B091D5
:101D60007C090197A105B10539F580917D0988238A
:101D700019F1609180097091810980918209909197
:101D800083090E94FF0190937F0980937E0940E0C0
:101D900050E0BA010E94C8016091800970918109E8
:101DA00080918209909183090E94FF0190937F099D
:101DB00080937E090C9494020895EF92FF920F9302
:101DC0001F93CF93DF93EA01F901DC011496ED90A4
:101DD000FC90159712964D915C9113974E0D5F1DD7
:101DE0002881398118960D911C91199702171307B4
:101DF00030F00D911C911197012B09F441C08A011B
:101E0000021B130BDC0118968D919C918E199F0972
:101E1000800F911F86179707DCF1C901860F971F66
:101E20008417950778F47183608333832283158246
:101E300014821782168288819981680F791F7983AD
:101E4000688316C01183008333832283601B710B68
:101E50007583648390E080E01616170614F49E2DB7
:101E60008F2D96838783D701A60FB71FB983A883C9
:101E700080E0DF91CF911F910F91FF90EF90089537
:101E800018968D919C91821B930B861797075CF691
:101E900081E0EFCFCF92DF92EF92FF92CF93DF936B
:101EA0006B0184E4869FE001879FD00D1124C05E02
:101EB000D94F8AA99BA9009721F00E94B7341BAA89
:101EC0001AAA84E48C9DF0018D9DF00D1124E05E32
:101ED000F94F86A997A9009711F00E94B73484E4BE
:101EE0008C9DF0018D9DF00D1124E05EF94F138A59
:101EF000128A168A178A108E118E128E138E148EE5
:101F0000158E168E178E10A211A281E090E093A379
:101F100082A315A214A216A217A210A611A613A698
:101F200012A615A614A616A617A610AA11AA13AAD9
:101F300012AA15AA14AA17AA16AA11AE10AE12AEAA
:101F400013AE14AE15AEDF01DE961D921D921D92EA
:101F50001C921397EE5BFF4F11821082DF91CF919D
:101F6000FF90EF90DF90CF900895CF93DF93FB0128
:101F7000DC016D917C91DB011696CD91DC91808125
:101F8000918123E0880F991F2A95E1F7AA81BB81EF
:101F9000A80FB91F8D919C91119724853585220F2B
:101FA000331FEB016A817B81EB01C20FD31F0990C4
:101FB000D881C02D14962D913C9161E070E0232BC7
:101FC00011F062E070E0C69F9001C79F300DD69F70
:101FD000300D1124A085B1852A9FB0012B9F700D73
:101FE0003A9F700D1124A481B5812A9FF0012B9F87
:101FF000F00D3A9FF00D11248E0F9F1FFA0191836F
:10200000808373836283DF91CF9108952F923F92F3
:102010004F925F926F927F928F929F92AF92BF92F8
:10202000CF92DF92EF92FF920F931F93CF93DF93A4
:1020300000D000D0CDB7DEB7DC011496ED91FC9155
:102040000190F081E02D808591859A838983A2811A
:10205000B381BC83AB83FB0181909190A190B1903F
:10206000C12CD12C7601C814D904EA04FB04CCF0AD
:1020700026960FB6F894DEBF0FBECDBFDF91CF918D
:102080001F910F91FF90EF90DF90CF90BF90AF9096
:102090009F908F907F906F905F904F903F902F9088
:1020A000089544805580668077804085518562859B
:1020B0007385CF0140969E838D83A081B1819D0160
:1020C00083E0220F331F8A95E1F7A981BA81129626
:1020D0008D919C91D901A80FB91F2D903C9011971B
:1020E0000484F585E02DEE0FFF1F8B819C81E80FA6
:1020F000F91F0190F081E02D14968D919C91892B10
:1021000041F581E090E0E89F9001E99F300DF89F54
:10211000300D1124249F8001259F100D349F100D38
:102120001124249DC001259D900D349D900D1124F6
:10213000A8016D817E81820D931D0E944035ED8145
:10214000FE81E00FF11F9FEFC91AD90AE90AF90AC7
:102150008ACF82E090E0D7CFCF93DF93DB01A05707
:10216000BB4F2C91222369F024E4269FF001279F86
:10217000F00D1124E05EF94FEF0119922A95E9F76D
:102180001C9224E4269FF001279FF00D1124E05EAD
:10219000F94F1482158216821782118610861386D3
:1021A0001286118A108A17861686DF91CF9172CE19
:1021B0002F923F924F925F926F927F928F929F9257
:1021C000AF92BF92CF92DF92EF92FF920F931F9345
:1021D000CF93DF9300D000D01F921F92CDB7DEB710
:1021E00024E4269FF001279FF00D1124E05EF94FB3
:1021F0000481158126813781012B022B032B09F4E1
:10220000B7C02A016B017C0110E000E0812C912C09
:1022100054013F019F01285F3F4F3C832B83CF0137
:1022200004969E838D83AB81BC818D919C91ED81C1
:10223000FE81408151816281738184169506A606D4
:10224000B706E4F10E94B734D3011A968D919C91A0
:10225000892B09F07EC084E48C9DD0018D9DB00D4A
:102260001124A05EB94FBC83AB8350968D919C9195
:102270000E94B734EB81FC81868597850E94B73434
:10228000C701B60107DEC701B60128960FB6F8945C
:10229000DEBF0FBECDBFDF91CF911F910F91FF9099
:1022A000EF90DF90CF90BF90AF909F908F907F90F6
:1022B0006F905F904F903F902F904ECFFC01E00FBA
:1022C000F11F92819983A381AA839F83A887312CD0
:1022D000212C2414350464F089819A810E94B7343A
:1022E000EFEF8E1A9E0AAE0ABE0A0C5F1F4F9BCFFD
:1022F000AF81B885ED91FD91B887AF83309759F0E4
:10230000848195810E94B734EF81F885329780816E
:1023100091810E94B734BFEF2B1A3B0ADACF800FAE
:10232000911FFC01848195810E94B7342B813C81EF
:102330002F5F3F4F3C832B83025F1F4FF50180814E
:1023400091812B813C81241535054CF30E94B734D3
:1023500082CF10E000E01C821B8224E42C9DC0018F
:102360002D9D900D1124DC01A65DB94F5D01E6CFD6
:1023700028960FB6F894DEBF0FBECDBFDF91CF9188
:102380001F910F91FF90EF90DF90CF90BF90AF9093
:102390009F908F907F906F905F904F903F902F9085
:1023A000089524E4269FF001279FF00D1124E05E9C
:1023B000F94F828993890497029758F485E090E059
:1023C000938B828B8FEF9FEFDC01828F938FA48F93
:1023D000B58F08952F923F924F925F926F927F92A6
:1023E0008F929F92AF92BF92CF92DF92EF92FF9225
:1023F0000F931F93CF93DF93CDB7DEB7AA970FB696
:10240000F894DEBF0FBECDBF9AA389A37E8B6D8BE0
:102410001A01098B1A8B2B8B3C8B84E429893A890E
:10242000829F6001839FD00C11248601005E194FAA
:1024300089899A89AB89BC89F80180839183A283B9
:10244000B383AB01BC01CD01B3DED601AC5DB94FA6
:1024500084E0F10101900D928A95E1F7F4E02F0EEE
:10246000311C64E070E0D80114968D919C910E941B
:102470000134F80191878087892B09F0F5C04D89D7
:102480005E8969897A898B899C8992DE81E0AA9626
:102490000FB6F894DEBF0FBECDBFDF91CF911F9175
:1024A0000F91FF90EF90DF90CF90BF90AF909F90F3
:1024B0008F907F906F905F904F903F902F900895F6
:1024C000A9A5BAA58D919C91E98DFA8DE80FF91F08
:1024D000F88FEF8BD1018D919C91880F991FA9A145
:1024E000BAA1ED91FC91E80FF91F80819181EF89EC
:1024F000F88D91838083D10114962D913D914D915A
:102500005C9117972BA33CA34DA35EA362E070E000
:102510008D899E890E940134EF89F88D938382838F
:10252000892B09F4ACCFF8E02F0E311C412C512C33
:1025300032012BA13CA14DA15EA1421653066406B7
:1025400075069CF02B8D3C8D4D8D5E8D2F5F3F4F22
:102550004F4F5F4F2B8F3C8F4D8F5E8F498D5A8D24
:102560004C5F5F4F5A8F498F90C0610124E0C20ECB
:10257000D11CD101ED90FC90EE0CFF1CEF89F88D81
:1025800082819381E80EF91E68E070E081E090E0BE
:102590000E9401348C01D7018D939C93892B09F4FF
:1025A0006ECF84E0F601D80101900D928A95E1F793
:1025B000B8E02B0E311CF80180819181A281B3819A
:1025C000181619061A061B06DCF464E070E00E9477
:1025D0000134D80115969C938E931497892B09F496
:1025E0004ECFD12CC12C812C912C5401F80180812B
:1025F0009181A281B38188169906AA06BB0634F0A0
:10260000FFEF4F1A5F0A6F0A7F0A93CFF801E48049
:10261000F580EC0CFD1C80E1F101DE0111960190CA
:102620000D928A95E1F7F0E12F0E311CA701BE0152
:102630006F5F7F4FA9A1BAA114968D919C9195DCF3
:10264000F80186819781D70112962D913C91820FD6
:10265000931F97838683BFEF8B1A9B0AAB0ABB0A33
:10266000E4E0CE0ED11CC2CF1A8E198E1B8E1C8EAA
:102670001D8E1E8E18A30F8FA8014C5F5F4F58A7A9
:102680004FA3C80108969AA789A7EFA1F8A5808152
:102690009181A281B3812B8D3C8D4D8D5E8D28174C
:1026A00039074A075B070CF40BCF6EE070E08D89A9
:1026B0009E890E940134AF8DB8A11B969C938E9386
:1026C0001A97B12CA12CD12CC12CF12CE12C24E493
:1026D000E989FA892E9FC0012F9F900D11249C013A
:1026E000265D394F388F2F8B88248394912C4D8908
:1026F0005E89C416D50654F184E4A989BA898A9FF3
:1027000080018B9F100D1124005E194FF801158672
:102710001486C70133E0880F991F3A95E1F70E94AC
:102720001B34D80151969C938E935097892B09F4B2
:10273000A6CEC701880F991F0E941B34F801978706
:102740008687892B09F49BCE80E0A1CED1014D90E4
:102750005D906D907D901D0177FC91CEEF89F88D95
:10276000008111810A0D1B1DD80111969C928E9239
:10277000411451046104710429F1C2010E941B3407
:10278000F80195838483892B09F479CEF80153826B
:10279000428284819581978386839187808713867F
:1027A000128681E090E045284628472811F490E001
:1027B00080E0E80EF91EFFEFCF1ADF0A2EE0A20E2E
:1027C000B11C95CF15961C921E921497DFCF2F92B5
:1027D0003F924F925F926F927F928F929F92AF92B1
:1027E000BF92CF92DF92EF92FF920F931F93CF93FE
:1027F000DF93CDB7DEB76A970FB6F894DEBF0FBE92
:10280000CDBF9E8B8D8B49015A0184E4829F70015C
:10281000839FF00C11249701205E394F6901FB0161
:1028200080819181F901958B848BD701AA5CB94F86
:10283000FB01349684E001900D928A95E1F7D7016F
:10284000A65CB94FFB01389684E001900D928A9501
:10285000E1F7D701A25CB94FFB013C9684E00190FF
:102860000D928A95E1F7D701A25BB94FFB017096F3
:1028700084E001900D928A95E1F78B010C5E1F4F69
:10288000F90186A597A5A0A9B1A918161906DCF526
:10289000880F991F880F991F0E941B34F60193AB74
:1028A00082AB892B09F4D3C0312C212C412C512C23
:1028B00032019601225D3F4F388F2F8BC601C296A1
:1028C0009A8F898FF496FC8BEB8BB301A2012FEFCB
:1028D000421A520A620A720AEF89F88D8081918148
:1028E000A281B381481759076A077B070CF47BC0A4
:1028F000F60184A995A90E941B34F60197AB86AB1B
:10290000892B09F4A4C0F80180819181A281B3814F
:1029100024E4289DF001299DF00D1124E05EF94F7B
:10292000AC01BD014D7F21E030E0452B462B472B0C
:1029300011F030E020E033A322A324E4289DF0012D
:10294000299DF00D1124E05EF94F0197A109B1090D
:1029500021E030E00297A105B10510F030E020E061
:1029600035A324A3D701AA5BB94FF801349684E0BC
:1029700001900D928A95E1F784E4889DF001899D8C
:10298000F00D1124E05EF94F868D978DA0A1B1A1C5
:10299000B7FF58C0B095A095909581959F4FAF4FC8
:1029A000BF4F82AF93AFA4AFB5AF168E178E10A2F4
:1029B00011A280E06A960FB6F894DEBF0FBECDBFBD
:1029C000DF91CF911F910F91FF90EF90DF90CF900B
:1029D000BF90AF909F908F907F906F905F904F903F
:1029E0003F902F900895E98DFA8D808191819C010F
:1029F000220D331D3A8B298B80E1F801DE011196FF
:102A000001900D928A95E1F7005F1F4F49895A891D
:102A1000BE016F5F7F4FED89FE8984819581A5DAC4
:102A2000EB89FC8980819181E989FA89228133814E
:102A3000820F931FEB89FC8991838083F4E02F0E32
:102A4000311C43CF12AE13AE14AE15AEB2CFC501DA
:102A5000B40120DA81E0AECFCF92DF92EF92FF9205
:102A6000CF93DF931092A80624E4269FF001279FBE
:102A7000F00D1124E05EF94F15A614A630E020E019
:102A8000D12CC12CDF011A96C1E0D0E0C416D506C6
:102A9000F4F024E4269FF001279FF00D1124E05E5E
:102AA000F94F13A612A611AE10AEDF01DE961D92ED
:102AB0001D921D921C92139782E090E0938B828B63
:102AC000DF91CF91FF90EF90DF90CF900895ED913F
:102AD000FC911197E20FF31FE280F3801E141F0494
:102AE00054F4E480F580F782E682F186E08613866E
:102AF0001286D183C083EFEFCE1ADE0A225F3F4FEA
:102B0000C5CF24E4269FF001279FF00D1124E05E3D
:102B1000F94F138A128A4CCB24E4269FF001279F99
:102B2000F00D1124E05EF94F82899389813091057F
:102B3000C8F08530910518F0059769F008958FEF7A
:102B40009FEFDC01828F938FA48FB58F85E090E09B
:102B5000938B828B08958FEF9FEFDC01828F938F91
:102B6000A48FB58F089524E4249FD001259FB00D34
:102B70001124A05EB94F2EE0AC01249FC001259F17
:102B8000900D11241A96ED91FC91E80FF91F81E048
:102B90008093A8068285938591878087408551859B
:102BA0002681378181E090E04217530711F090E0D1
:102BB00080E09183808308952F923F924F925F929D
:102BC0006F927F928F929F92AF92BF92CF92DF923D
:102BD000EF92FF920F931F93CF93DF93CDB7DEB7A2
:102BE000C055D1090FB6F894DEBF0FBECDBF9EAF62
:102BF0008DAF4BA75CA76DA77EA76801790184E420
:102C0000809FF001819FF00D1124E05EF94F228535
:102C1000338523963FAF2EAF2397828993890297FE
:102C200061F486A597A5A0A9B1A9892B8A2B8B2B26
:102C3000C9F584E090E0938B828B84E48C9DF00155
:102C40008D9DF00D1124E05EF94F828993898230C9
:102C5000910509F037C282AD93ADA4ADB5AD222484
:102C60002394312C181619061A061B060CF42FC2D1
:102C7000C05BDF4F0FB6F894DEBF0FBECDBFDF9154
:102C8000CF911F910F91FF90EF90DF90CF90BF9069
:102C9000AF909F908F907F906F905F904F903F90FC
:102CA0002F900895848995894DAD5EAD8417950761
:102CB00021F606A917A918AE1FAA1BAA1CAA1DAAAD
:102CC0001EAA1F01CF018E9627969FAF8EAF279722
:102CD000DF01D2962996BFAFAEAF2997F8962B9613
:102CE000FFAFEEAF2B9791012A5D3F4F2D963FAF7F
:102CF0002EAF2D97A1014E5D5F4F2F965FAF4EAF68
:102D00002F970A9761969FAF8EAF61972796EEAD8A
:102D1000FFAD279780819181A281B3812BA93CA926
:102D20004DA95EA9281739074A075B0744F081E0DF
:102D300090E0D101D9969C938E93D8977ECF299617
:102D4000AEADBFAD2997ED91FC912FA938ADE20F43
:102D5000F31F428153815AAF49AF50815FAF8181E8
:102D600021968FAF21972B96AEADBFAD2B978D914E
:102D70009C91892B21F12D96EEADFFAD2D97808092
:102D80009180A280B3801AAB09AB5FA72196FFADFB
:102D90002197F8AB29AD3AAD36952795369527950D
:102DA00025963FAF2EAF25971CAE1BAE2596AEAD38
:102DB000BFAD2597EBADFCADEA17FB070CF149ADB4
:102DC0005AAD6FAD21967FAD2197C8010E94403565
:102DD00089AD9AAD8C7F080F191F2BA93CA94DA96D
:102DE0005EA92F5F3F4F4F4F5F4F2BAB3CAB4DABBF
:102DF0005EAB4FA958AD4C5F5F4F58AF4FAB86CF1E
:102E00002F96AEADBFAD2F978D919C91892B71F10F
:102E1000EFA5F8A94080518062807380A3019201E0
:102E2000C501B4010E94352A181664F0A9A9BAA9EF
:102E30002D913D914D915C91C501B4010E941C2BD7
:102E40001816BCF1A3019201C501B4010E94352AF4
:102E500087FF0CC0E9A9FAA9208131814281538101
:102E6000C501B4010E94352A882319F16196AEADDF
:102E7000BFAD61978D919C91892B09F445C0EFA559
:102E8000F8A94080518062807380A3019201C5013E
:102E9000B4010E941C2B18161CF5A9A9BAA92D91E2
:102EA0003D914D915C91C501B4010E94352A1816DF
:102EB0005CF184E48C9DF0018D9DF00D1124E05EA9
:102EC000F94F868D978DA0A1B1A1892B8A2B8B2BD1
:102ED00069F183E090E0938B828B81E090E02CC0DD
:102EE000A3019201C501B4010E94352A81110CC0D1
:102EF000E9A9FAA92081318142815381C501B40138
:102F00000E94352A87FDD5CF2BAD3CAD2F5F3F4FBB
:102F10003CAF2BAF49A95AA94C5F5F4F5AAB49ABA5
:102F20008FA598A9049698AB8FA740CF84E090E036
:102F3000938B828B86AD97AD93A782A77ECEEBADA8
:102F4000FCAD80819181F401EE0FFF1FEE0FFF1F9A
:102F5000E80FF91FA081B1818C9181110AC0FFEFA8
:102F60008F1A9F0AAF0ABF0A8DA29EA2AFA2B8A66F
:102F70008FC18330A1F30280F381E02D2FA938ADFA
:102F8000E20FF31F808191819AAB89AB892B39F3D2
:102F90004F5F5F4F6F4F7F4F49875A876B877C87A3
:102FA0009E01235E3F4FAE01475D5F4F64E070E0DE
:102FB000C8010E94DD0E8111D0C18D819E81AF813B
:102FC000B8850496A11DB11D8D839E83AF83B887FC
:102FD0004D8D5E8DBE016B5D7F4F8F8D98A10E94E0
:102FE00040358BA19CA1009761F06D8D7E8DA5E28F
:102FF000B0E0AC0FBD1F6A0F7B1F49A15AA10E9410
:1030000040351CAA1BAA412C512C3201E9A9FAA96E
:1030100080819181A281B381481659066A067B0698
:103020000CF09DCFE9A9FAA9848195812BA93CA92F
:10303000280F391F38AB2FA7D90112966D917C91BB
:103040009E01235E3F4FAE01475D5F4FC8010E9466
:10305000DD0E811182C1EFA5F8A982819381092E2D
:10306000000CAA0BBB0B4D815E816F817885840FAC
:10307000951FA61FB71F8D839E83AF83B88760817E
:1030800071814D8D5E8D8F8D98A10E9440358BA1F1
:103090009CA1009761F0AFA5B8A96D917C912D8D91
:1030A0003E8D620F731F49A15AA10E944035BFEFA8
:1030B0004B1A5B0A6B0A7B0AEBA9FCA93496FCABA2
:1030C000EBABA4CF312C212C049709F0D1CD8EE0AD
:1030D000EDADFEAD8E9F80018F9F100D11242396C4
:1030E0002EAD3FAD2397020F131FD80112964D91BD
:1030F0005C9113974115510509F4BACD16968D913F
:103100009C919AA789A780E1FE013196DF011D926B
:103110008A95E9F7C98ADA8AEB8AFC8A2114310494
:1031200009F458C084E48C9DF0018D9DF00D1124AC
:10313000E05EF94FDF01DE968D909D90AD90BC90E2
:1031400082AD93ADA4ADB5AD88169906AA06BB06AF
:1031500009F040C0F801848195810084F185E02D5B
:10316000349624E0DE01559601900D922A95E1F700
:103170002D893E89285F3F4F3E8B2D8BD8011896B5
:103180006D917C911997260F371F19963C932E93BA
:10319000189718962D913C911997480F591F241B89
:1031A000350B37FD06C0820F931F19969C938E93A3
:1031B000189784E48C9DF0018D9DF00D1124E25A46
:1031C000F94FB1E08B1A9108A108B1088082918271
:1031D000A282B3829E012B5E3F4FAE01475D5F4FDF
:1031E00064E170E0C8010E94DD0E8111B6C08CE080
:1031F00090E0A0E0B0E08D839E83AF83B8879E010E
:10320000235E3F4FAE01475D5F4F64E070E0C80151
:103210000E94DD0E8111A1C080E190E0A0E0B0E04D
:103220008D839E83AF83B8874D8D5E8DBE01655DB6
:103230007F4F8F8D98A10E9440358BA19CA1009754
:1032400061F06D8D7E8DEBE2F0E0EC0FFD1F6E0FF7
:103250007F1F49A15AA10E9440351DA21EA21FA294
:1032600018A62DAD3EAD220F331F38AF2FAB24E48F
:103270002C9DC0012D9D900D1124805E994FAC01B5
:103280004C5F5F4F5AAF49AFDC011896BCAFABAF94
:103290008DA09EA0AFA0B8A449855A856B857C857A
:1032A000E9ADFAAD80819181A281B381881699063A
:1032B000AA06BB060CF443CE452B462B472B09F43C
:1032C000D7CC8AE190E0A0E0B0E089839A83AB8319
:1032D000BC832DAD3EADC901330FAA0BBB0B8D874F
:1032E0009E87AF87B88B4D895E89BE016F5F7F4F28
:1032F0008F89988D0E9440358B8D9C8D009761F051
:103300006D897E8941E050E04C0F5D1F640F751F91
:10331000498D5A8D0E94403589A59AA5D8011796E6
:103320009C938E93169711961C921E92232809F453
:103330009FCC84E48C9DF0018D9DF00D1124E25A08
:10334000F94F80819181A281B3810196A11DB11DA8
:1033500080839183A283B3838BCC232809F088CC0C
:1033600084E48C9DF0018D9DF00D1124E05EF94FF9
:1033700081E090E095A784A785E090E0938B828B15
:1033800077CCCF92DF92EF92FF920F931F9324E4BA
:10339000269FF001279FF00D1124E05EF94F22894E
:1033A00033892115310509F452C06B017C012130AC
:1033B0003105B1F482A593A59C012F5F3F4F33A740
:1033C00022A7092E000CAA0BBB0B028D138D248D96
:1033D000358D80179107A207B307C9F5C7013CDBFC
:1033E00084E48C9DF0018D9DF00D1124E05EF94F79
:1033F00082899389039759F582A593A59C012F5F34
:103400003F4F33A722A7092E000CAA0BBB0B468DFA
:10341000578D60A171A184179507A607B707BCF067
:1034200086AD97AD93A782A784E090E0938B828BC3
:1034300082AD93ADA4ADB5AD181619061A061B06DC
:1034400034F4EE5BFF4F81E090E0918380831F9125
:103450000F91FF90EF90DF90CF90089524E4269F86
:10346000F001279FF00D1124E05EF94F82899389C6
:103470000497B1F482A593A5019693A782A7092E7C
:10348000000CAA0BBB0B46895789608D718D841780
:103490009507A607B70721F485E090E0938B828B10
:1034A00008952F923F924F925F926F927F928F92E8
:1034B0009F92AF92BF92CF92DF92EF92FF920F93C3
:1034C0001F93CF93DF93CDB7DEB72E970FB6F89447
:1034D000DEBF0FBECDBFDC0149835A836B837C8383
:1034E000290184E4849FF001859FF00D1124E05EA2
:1034F000F94F22883388C1010497029708F0D5C09C
:1035000011961C921E9213961C921E92129715866B
:103510001486912C812C90E080E08F019F01205F28
:103520003F4F38872F833F013CE0630E711CBF0182
:10353000625F7F4F7A8769873A96FC87EB87EF81D6
:10354000F88520813181F30140815181E985FA8537
:10355000A080B180841595050CF445C011965C934C
:103560004E9313963C932E9312971596BC92AE925F
:103570001497452BF9F4F5E02F163104D9F4109285
:10358000A806F801828D938DA48DB58DAE014F5F95
:103590005F4F64E070E08F3F9F4FAF4FBF4F09F028
:1035A00079C080E290E0F4D569817A818B819C8139
:1035B000A201A7DA2E960FB6F894DEBF0FBECDBFDC
:1035C000DF91CF911F910F91FF90EF90DF90CF90FF
:1035D000BF90AF909F908F907F906F905F904F9033
:1035E0003F902F900895EB85FC8560817181FB01F0
:1035F000E80DF91DFE87ED8760817181672B89F5E4
:10360000E084F184628173817E836D83668177813A
:103610006A01E3E0CC0CDD1CEA95E1F72C0D3D1DC1
:10362000440F551F4A0D5B1DFA0191838083F301FE
:10363000408151814F5F5F4F51834083F901F38295
:10364000E282ED85FE8573876287E616F70670F4E1
:103650006E197F09F90171836083158214821782C4
:1036600016820196FEE08F0E911C69CFED85FE85D6
:10367000C480D5804D815E814C0D5D1D4E195F0962
:10368000F901518340836C197D0975836483D78266
:10369000C682E7CF8FE190E07BD5F80113A612A692
:1036A00081E090E0938B828B85CF158614861196EE
:1036B0001C921E9213961C921E9212977BCFEF9231
:1036C000FF920F931F93CF93DF937C018B01EA014D
:1036D0003BD681111EC0809192049091930404976F
:1036E00011F5DF91CF911F910F91FF90EF90089509
:1036F00028ED38EB45E050E060E070E0CB010E943F
:103700005B24AE01B801C7010E946924C8010E9470
:1037100034248091A9069091AA06892BE1F688812C
:10372000882331F3D8CF83E090E090939304809383
:103730009204D7CFCF93DF932091920430919304DA
:103740002430310541F0EB010E946924CE01DF9164
:10375000CF910C943424DF91CF9108950C94672875
:103760000C945C280C944A280C9444240C94EE2766
:10377000089570E060E090E080E0C1C50895AF92E8
:10378000BF92CF92DF92EF92FF920F931F93CF934E
:10379000DF931F921F92CDB7DEB75C018B016901E9
:1037A0007A0190E080E0C114D104E104F10469F4ED
:1037B0000F900F90DF91CF911F910F91FF90EF909D
:1037C000DF90CF90BF90AF9008959C2D8D2DC114A8
:1037D000D10421E0E206F10410F09FEF8FEF9E018B
:1037E0002F5F3F4F492F582FB801C5010E94F12884
:1037F0008F3F9807E9F229813A81C21AD30AE1087A
:10380000F108020F131FCFCF2091AB063091AC0609
:103810008091AD069091AE062817390789F0809106
:10382000B3069091B40601969093B4068093B306C4
:1038300082E00E9400309093AE068093AD0608951A
:103840008091B3069091B4060197EECF2091AF0618
:103850003091B0068091B1069091B20628173907D1
:1038600089F08091B5069091B60601969093B606C0
:103870008093B50682E10E9400309093B206809357
:10388000B10608958091B5069091B6060197EECFE6
:1038900083E00E9400309093AC068093AB062091A9
:1038A000AD063091AE068217930751F08091B306B2
:1038B0009091B40601969093B4068093B306089550
:1038C0008091B3069091B4060197F5CF83E10E94F1
:1038D00000309093B0068093AF062091B1063091EE
:1038E000B2068217930751F08091B5069091B60603
:1038F00001969093B6068093B50608958091B5061B
:103900009091B6060197F5CFEF92FF920F931F9318
:10391000CF93DF937C018B01EA01F90120E030E0D5
:1039200040E85FE360817181828193810E94352A42
:10393000811115C0F7018081882321F01092B4060F
:103940001092B3068091B3069091B406F80191836A
:1039500080838091B5069091B60699838883DF9124
:10396000CF911F910F91FF90EF900895CF93DF9328
:10397000E90120E030E040E85FE3688179818A81F5
:103980009B810E94352A8823A1F162E082E00E9497
:10399000972F62E083E00E94972F60E082E10E940F
:1039A000972F60E083E10E94972F41E050E064E0B0
:1039B0007CE180E00E94842B41E050E068E47CE1FF
:1039C00081E00E94842B41E050E066E27CE185E0EA
:1039D0000E94842B41E050E066E67CE184E00E9496
:1039E000842B80E090E0A0E8BFE388839983AA83DA
:1039F000BB83DF91CF91089540E05BE460E070E02D
:103A000090E080E000C08130910579F01CF4892BB2
:103A100039F008958230910561F0039771F00895AF
:103A200026E08CEE96E00C94F23026E089E897E0F0
:103A3000FACF26E086E298E0F6CF26E083EC98E025
:103A4000F2CF1F920F920FB60F9211240BB60F9266
:103A50002F933F934F935F936F937F938F939F9396
:103A6000AF93BF93EF93FF9386E09FEF9093250171
:103A7000809324010E942B29FF91EF91BF91AF9178
:103A80009F918F917F916F915F914F913F912F9176
:103A90000F900BBE0F900FBE0F901F90189586E0F1
:103AA0009FEF9093250180932401A3E7B0E08C91D0
:103AB0008E7F8C93E0E2F1E080818C7F8083E1E275
:103AC000F1E08081877E8083808183608083808134
:103AD0008B7F80838C9181608C93089581E0089521
:103AE0008F929F92AF92BF92CF92DF92EF92FF920E
:103AF0000F931F93CF93DF935C017B018A01C1E099
:103B0000D0E0CE15DF05CCF081E0F5018083B8016F
:103B1000C7010E949128F5019283818390E080E0A3
:103B2000DF91CF911F910F91FF90EF90DF90CF9099
:103B3000BF90AF909F908F9008956E018FEFC81A3D
:103B4000D80AFE01EE0FFF1FE00FF11F8080918069
:103B50008114910469F06DE375E0C4010E94503551
:103B6000892B41F4CC0FDD1FC00FD11F19821882A1
:103B7000E601C7CF60E475E0C4010E945035892B8F
:103B8000B9F7EC14FD04A1F36E01E2E0CE0ED11CF6
:103B9000CC0FDD1FC00FD11F198218821B821A8221
:103BA000E7CF87EB96E0089580E008950F931F9389
:103BB000CF93DF938B01BA01E90119821882980132
:103BC000012E000C440B550BFC0181819281D7DD45
:103BD000019641F01983088380E0DF91CF911F9116
:103BE0000F91089581E0F9CF0F931F93CF93DF9347
:103BF0001F921F92CDB7DEB7FB018A01B9019E016A
:103C00002F5F3F4FAF01FC01818192810E94A62866
:103C1000019669F089819A81F8019183808380E01F
:103C20000F900F90DF91CF911F910F91089581E038
:103C3000F7CFFC01808108950895089581E0FB018C
:103C4000808380E0089508951092DF060895FC01B6
:103C5000818192810C948928CF93DF9300D000D08A
:103C600000D01F92CDB7DEB7B0E0A0E089839A8381
:103C7000AB83BC83CB01770FAA0BBB0B8D839E83D9
:103C8000AF83B8879E01275F3F4FAE014F5F5F4F05
:103C900068E070E08091CE069091CF0687DF8111B9
:103CA00010C081E029853A852830310509F480E08B
:103CB0002A960FB6F894DEBF0FBECDBFDF91CF912D
:103CC000089581E0F5CF0F931F93CF93DF931F9259
:103CD0001F92CDB7DEB78B019E012F5F3F4FAC0126
:103CE0008091CE069091CF0661DF81110EC081E0F8
:103CF00029813A812017310709F480E00F900F9055
:103D0000DF91CF911F910F91089581E0F7CFCF936D
:103D1000DF93EC011092D2061092D1061092DE06CB
:103D20001092DD06AC0160E070E0CB010E948115CD
:103D3000AE0161E070E080E090E00E94811580912A
:103D4000CE069091CF06DF91CF917DCF4F925F92BB
:103D50006F927F928F929F92AF92BF92CF92DF929B
:103D6000EF92FF920F931F93CF93DF931F921F92B7
:103D7000CDB7DEB78C017C0197FF03C087E0E80E6A
:103D8000F11C23E0F594E7942A95E1F7C80168E077
:103D900070E00E94B0336C010E5F1F4F8091CC0623
:103DA0009091CD0680179107D4F48091CA06909126
:103DB000CB06009731F00E94B7341092CD061092D6
:103DC000CC06C8010E941B349093CB068093CA0690
:103DD000892B09F482C01093CD060093CC0610E025
:103DE00000E047C1412C512C3201B12CA12C95018E
:103DF0002D52394FAE014F5F5F4F61E070E080910F
:103E0000CE069091CF06F0DE811149C0EFEF4E1A39
:103E10005E0A6E0A7E0AF0E94F16FFE55F06F1E0E2
:103E20006F06710444F06091DD067091DE068DEE40
:103E300090E012DFD7CF89819A81A80EB91E8AE05F
:103E4000A816B10409F043C049E050E070E060E01A
:103E500083ED96E00E941D296091DD067091DE06DB
:103E6000882391F18091DB0690E08617970781F413
:103E7000BC018EEE90E0F0DE8091DD069091DE06D2
:103E8000019699279093DE068093DD060F5F1F4F02
:103E90000E151F050CF4A6CFCD2809F07CC090E0CC
:103EA00080E00F900F90DF91CF911F910F91FF90C5
:103EB000EF90DF90CF90BF90AF909F908F907F90CA
:103EC0006F905F904F9008958FEE90E0B2CFEAE050
:103ED000AE16B1040CF48BCFDBCF10E000E0D8CFEE
:103EE0000A30110531F549E050E070E060E083ED03
:103EF00096E00E941D296091DD067091DE06882300
:103F0000A9F08091DB0690E08617970741F6BC0187
:103F10008EEE90E0A1DE8091DD069091DE060196A6
:103F200099279093DE068093DD06B9CF8FEE90E05F
:103F30002BC00A3011050CF0B2CF98012D52394F29
:103F4000AE014F5F5F4F61E070E08091CE069091CF
:103F5000CF064ADE8111A3CF89819A81080F191FEC
:103F6000FFEFCF1ADF0AEF0AFF0A80E9C8168FE5D4
:103F7000D80681E0E806F1040CF4B2CF6091DD06CA
:103F80007091DE068DEE90E067DE10E000E0C12C5F
:103F9000D12C7601D2CFC12CD12C760110E000E0DB
:103FA000CCCF412C512C3201B12CA12C480193E0F3
:103FB000880C991C9A95E1F72091CA063091CB069E
:103FC000C501880D991D280F391FAE014F5F5F4F46
:103FD00061E070E08091CE069091CF0605DE811100
:103FE0005ECFEFEF4E1A5E0A6E0A7E0A6091DD0622
:103FF0007091DE068DEE90E0F0E94F16FFE55F066A
:10400000F1E06F0671040CF043C089819A81A80E1B
:10401000B91E8AE0A816B10409F041C049E050E099
:10402000B4018091CA069091CB060E941D2960912F
:10403000DD067091DE06882349F18091CA069091D1
:10404000CB06880E991EF401808590E086179707AD
:1040500081F4BC018EEE90E0FFDD8091DD06909151
:10406000DE06019699279093DE068093DD060F5FAA
:104070001F4F0E151F050CF494CFC114D10409F085
:1040800081C08091CA069091CB060BCF8FEE90E055
:10409000E3DD412C512C3201B12CA12C8DCFFAE063
:1040A000AF16B1040CF488CFE4CF8FEE90E0D4DDEE
:1040B000F12CE12C812C912C540197012D52394F78
:1040C000AE014F5F5F4F61E070E08091CE0690914E
:1040D000CF068ADD8111E3CE8FEF881A980AA80AED
:1040E000B80A6091DD067091DE068DEE90E0E0E9A1
:1040F0008E16EFE59E06E1E0AE06B104C4F68981B6
:104100009A81E80EF91EFAE0EF16F104A9F549E0EC
:1041100050E070E060E083ED96E00E941D29609120
:10412000DD067091DE06882309F4BFCF8091DB069F
:1041300090E08617970709F0A4CFBC018EEE90E0BF
:104140008BDD83E0000F111F8A95E1F78091CA068D
:104150009091CB06A60163ED76E0800F911F0E943F
:1041600040358091DD069091DE0601969927909367
:10417000DE068093DD0685CF8AE0E816F1040CF4B4
:104180009CCF7FCF812C912C5401F12CE12C95CF29
:10419000CF92DF92EF92FF920F931F93CF93DF9313
:1041A0001F92CDB7DEB76C017B018A01452B39F038
:1041B000AB0170E060E0C8010E9419298983B70152
:1041C000C6014ADD81110DC00115110551F0B7017D
:1041D000C80179DD811105C061E070E0CE01019672
:1041E00072DD0F90DF91CF911F910F91FF90EF90B3
:1041F000DF90CF900895CF92DF92EF92FF92CF930E
:10420000DF9300D000D01F921F92CDB7DEB76B01B5
:10421000F12CE12CC982DA82EB82FC822D833E8371
:104220004F835887AE014F5F5F4F68E070E0B0DFAB
:1042300028960FB6F894DEBF0FBECDBFDF91CF91A9
:10424000FF90EF90DF90CF9008958F929F92AF9262
:10425000BF92CF92DF92EF92FF920F931F93CF9373
:10426000DF937C01EB01CA01690170DD0097B1F4B5
:104270002FEF3FEFA90161E070E0C701BCDFC1E0B3
:104280008C2FDF91CF911F910F91FF90EF90DF90D6
:10429000CF90BF90AF909F908F900895FC01819038
:1042A0009190A190B190BF01FCE1EF16F10479F477
:1042B000A5019401CE010E94E713C82FA501940126
:1042C000882369F061E070E0C70195DFD9CF9501DF
:1042D0008401AB01B601CE010E94EA11EECF70E07D
:1042E00060E0C701DF91CF911F910F91FF90EF9098
:1042F000DF90CF90BF90AF909F908F907CCF0F9327
:104300001F93CF93DF93EC018B014BDC9093CF068F
:104310008093CE060097A9F0A801BE01E1DBEC0175
:10432000892B49F08091CE069091CF0685DC1092C2
:10433000CF061092CE06CE01DF91CF911F910F9143
:104340000895CCE4D5E0EECF8091CE069091CF06D3
:1043500070CC2F923F924F925F926F927F928F928A
:104360009F92AF92BF92CF92DF92EF92FF920F9304
:104370001F93CF93DF93CDB7DEB769970FB6F8944D
:10438000DEBF0FBECDBF2091D2062223F1F05B8BA2
:104390004A8B6E877F87888B998B9A01AB01BC0112
:1043A000CE0101967C017DD810E048E0242E312C0E
:1043B000E88EF98E89819A81181619060CF451C27B
:1043C000112319F08A899B89A2DC69960FB6F894AB
:1043D000DEBF0FBECDBFDF91CF911F910F91FF9038
:1043E000EF90DF90CF90BF90AF909F908F907F9095
:1043F0006F905F904F903F902F900895EB81FC81DC
:104400008C859D8533E0880F991F3A95E1F7E80F79
:10441000F91F808191819093C9068093C8062481F9
:104420003581428153815093C7064093C606468129
:1044300057815093C5064093C406820F931F9C0179
:10444000990F440B550B2C8B3D8B4E8B5F8B812C26
:10445000912C54018C899D89AE89BF898816990653
:10446000AA06BB0640F18C859D85880F991FED81BA
:10447000FE81E80FF91F4E855F8568897989808103
:1044800091810E94B315AC85BD851196BD87AC871F
:1044900089819A81EC85FD85E817F9070CF4AECF88
:1044A0002A893B894E855F8568897989888D998DB0
:1044B0000E94511A7FCF1F826091C8067091C90671
:1044C000CB01072E000CAA0BBB0B84017501640104
:1044D00034E0C30ED11CE11CF11CC816D906EA0653
:1044E000FB0608F0B3C02091C6063091C706A401B0
:1044F0004C5F5F4F240F351FF901C080D12CF12C88
:10450000E12C24013501F5E04F0E511C611C711C9A
:10451000481659066A067B0608F0A3C02091C60615
:104520003091C706F8013596E20FF31F2081D22A99
:104530002401350126E0420E511C611C711C4816F5
:1045400059066A067B0608F097C02091C60630918E
:10455000C706F8013696E20FF31F2081E22A2401F4
:10456000350137E0430E511C611C711C4816590679
:104570006A067B0608F08BC02091C6063091C706FC
:10458000F8013796E20FF31F208126013701722AC6
:104590007501640148E0C40ED11CE11CF11C8C15AE
:1045A0009D05AE05BF0508F41DC188169906AA062B
:1045B000BB0608F077C08091C6069091C706800FB1
:1045C000911F68E070E07FDBE091C806F091C906BA
:1045D0009F010F2E000C440B550BD301C2018C0D13
:1045E0009D1DAE1DBF1D281739074A075B0708F43C
:1045F00078C0C216D306E406F50608F05DC08091C7
:10460000C6069091C7069801285F3F4F820F931FFF
:10461000B20159DB8091C8069091C906AC01092E00
:10462000000C660B770BC416D506E606F70608F0F5
:104630004DC0085F1F4F8091C6069091C706800F3E
:10464000911FA20170E060E0F4D5A7C044E050E003
:10465000461B570B480D591D2091C4063091C506C5
:1046600049CFE5E0F0E0E61BF70BE00FF11F2091EA
:10467000C4063091C50658CFE6E0F0E0E61BF70B24
:10468000E00FF11F2091C4063091C50664CFE7E02A
:10469000F0E0E61BF70BE00FF11F2091C40630910C
:1046A000C50670CF9801261B370B8091C4069091E8
:1046B000C506820F931F85CF91012E1B3F0B200F44
:1046C000311F8091C4069091C506A0CFD101A81BCF
:1046D000B90BCD01080F191F8091C4069091C50632
:1046E000AECFBF0168507109601B710BC216D306B3
:1046F000E406F50608F062C08091C6069091C706F0
:104700009801285F3F4F820F931FDDDA8091C80622
:104710009091C906B101681B790B600F711F640D80
:10472000751D8091C4069091C506CDDA8091C806AA
:104730009091C906AC0148505109FA01E01BF10BF8
:10474000AC01092E000C660B770BC416D506E606E5
:10475000F70608F03DC08091C6069091C706980103
:10476000285F3F4F820F931FAF0170E060E061D57B
:104770008F832091C8063091C906F101E21BF30B2B
:104780009F01200F311F240D351D50E040E0682FA0
:104790008091C4069091C50638D58F8361E070E0A2
:1047A000CE01079690DA182F38E0430E511C611C99
:1047B000711C840C951CA61CB71C4CCE91012E1BA1
:1047C0003F0B200F311F8091C4069091C5069BCFEF
:1047D0009101281B390B200F311F8091C406909145
:1047E000C506C0CF88169906AA06BB0668F5601BE9
:1047F000710B8091C6069091C706800F911F63DAF6
:104800008091C8069091C906B101681B790B600FB1
:10481000711F640D751D8091C4069091C50653DA11
:104820008091C8069091C906AC01092E000C660B58
:10483000770BC416D506E606F70608F4FACE910102
:10484000281B390BC90146CFC801861B970B209145
:10485000C4063091C506B201685F7F4F820F931F77
:10486000DECF1D861C8614CECF93DF93EC01AC0106
:1048700060E070E0CB016DDDAE0161E070E080E0F2
:1048800090E0DF91CF9165CDCF938091CE0690914E
:10489000CF068AD9C82F81110BC060E070E0CB0130
:1048A0000E94AC1061E070E080E090E00E94AC10EB
:1048B0008C2FCF9108950F931F9389019A01AB011B
:1048C000BC018091CE069091CF06B7D91F910F9170
:1048D00008954F925F926F927F928F929F92AF92C4
:1048E000BF92CF92DF92EF92FF920F931F93CF93DD
:1048F000DF93CDB7DEB763970FB6F894DEBF0FBE78
:10490000CDBF6C018B015A018091D206882309F436
:104910003DC08091D206882309F442C08091D1061F
:104920001A821982882309F4C0C0F0E94F2EFFE5EE
:104930005F2E66246394712CF12CE12C9701265490
:10494000394FAE014F5F5F4F61E070E08091CE065E
:104950009091CF0649D9982E811169C089819A8199
:10496000E80EF91EE114F10409F461C081E0481A6F
:1049700051086108710859F56091DD067091DE06F5
:104980008DEE90E069D91A82198251C062ED76E00D
:104990008091CE069091CF0651D9882309F4B9CFE2
:1049A00063960FB6F894DEBF0FBECDBFDF91CF91F7
:1049B0001F910F91FF90EF90DF90CF90BF90AF903D
:1049C0009F908F907F906F905F904F900895AAE096
:1049D000EA16F10409F063C049E050E070E060E0DD
:1049E0008AEB96E02AD46091DD067091DE0688237A
:1049F00009F452C08091C20690E08617970719F615
:104A0000BC018EEE90E028D988E0EAEBF6E0DE010A
:104A1000199601900D928A95E1F78091DD069091AB
:104A2000DE06019699279093DE068093DD0681E0ED
:104A300029813A81121613060CF080E09110CAC247
:104A4000882309F4ADCF8091D106811104C0198665
:104A50001A861B861C8689859A85AB85BC85803124
:104A60009105A105B10508F09BCFFC018827E45C06
:104A7000FA4D8F4F0C94E533BC257B27EA27D024D1
:104A8000C026F326AC25B4259025CF27BE27CB27FB
:104A9000D024D024D0247B258FEE90E073CFBAE0D1
:104AA000EB16F1040CF44ACFC2CFF12CE12CE8E074
:104AB0006E2E712C29E030E02C0F3D1F2E0D3F1D76
:104AC000AE014F5F5F4FB3016E197F098091CE0633
:104AD0009091CF0689D8982E29813A81811109C0F9
:104AE000E20EF31EE114F10421F0E8E0EE16F10409
:104AF0000CF381E09FCFD6011696ED91FC91808159
:104B00009181A281B38189839A83AB83BC83AE01F7
:104B10004F5F5F4F64E070E085E190E039DB40CFAC
:104B20008D859E8513D92FEF3FEFA90161E070E0DD
:104B3000009771F0FC01C080D180E280F380A80171
:104B4000C701B6010E942C15A701960170E060E034
:104B50008DE190E050DB24CF4D855E859801B60154
:104B60008BE190E072DB1CCF4D855E852FEF3FEF30
:104B7000B6018CE190E0F6CFD6011496ED91FC9150
:104B800000811181F80182809380A080B18070E162
:104B9000472E512C612C712C49825A826B827C8267
:104BA00088E090E0A0E0B0E08D839E83AF83B8877B
:104BB0009E012F5E3F4FAE014F5F5F4F68E070E098
:104BC0008091CE069091CF060E94D61D8823D9F001
:104BD00010E000E0C80163960FB6F894DEBF0FBE88
:104BE000CDBFDF91CF911F910F91FF90EF90DF909C
:104BF000CF90BF90AF909F908F907F906F905F907D
:104C00004F900C94B73489899A89089709F7D8018D
:104C1000ED90FC90B8E0EB0EF11CEE0CFF1CEE0CDE
:104C2000FF1CC7010E941B348C01892B89F2498229
:104C30005A826B827C82C7010F2C000CAA0BBB0B23
:104C40008D839E83AF83B8879E012F5E3F4FAE0159
:104C50004F5F5F4F68E070E08091CE069091CF0685
:104C60000E94D61D8111B6CF89899A89089709F0CB
:104C7000B1CFD6011296ED91FC91408151816281B4
:104C80007381D8014D935D936D937C931397448109
:104C900055816681778114964D935D936D937C93D6
:104CA0001797408551856285738518964D935D935E
:104CB0006D937C931B9784859585A685B785F801B0
:104CC00084879587A687B787108A118A128A138AE4
:104CD00084E090E0A0E0B0E0848B958BA68BB78B4E
:104CE0008091920490919304B0E0A0E0808F918F26
:104CF000A28FB38FC5010B2C000CAA0BBB0B848FAA
:104D0000958FA68FB78FF401D801909690E080E040
:104D10008A159B055CF19E012F5E3F4FA801B701EC
:104D20008091CE069091CF060E94D61D811152CF60
:104D300089899A89E816F90609F04CCFA70170E035
:104D400060E0C80176D28B8B9E012F5E3F4FAE0193
:104D50004D5E5F4F61E070E08091CE069091CF068E
:104D60000E94D61D81E08093D10634CF41915191AC
:104D700070E060E04D935D936D937D930196C8CF95
:104D80008D859E85AF85B8890097A105B10521F471
:104D900081E08093D00604CE0E94A61E009781F485
:104DA00081E090E0A0E0B0E089839A83AB83BC838C
:104DB000AE014F5F5F4F64E070E082E190E0AECE05
:104DC000BC01C6010E94061019821A821B821C8235
:104DD000AE014F5F5F4F64E070E082E190E0D8D9B0
:104DE0008823B1F2DDCDD6011496ED91FC910190AE
:104DF000F081E02DE084F1848FEF8983E114F104E8
:104E000009F472C0D7016D907C90C280D38070E0AD
:104E100060E090E080E08615970594F083E190E0F3
:104E20000E942C1E10E000E08111BACD0615170576
:104E30005CF161E070E0CE0101960E94631EB0CD8E
:104E40009C0143E0220F331F4A95E1F7F701A2814D
:104E5000B381A20FB31F1296ED91FC911397EE0F41
:104E6000FF1FEC0DFD1D0190F081E02D16964D9178
:104E70005C91E49F9001E59F300DF49F300D11246B
:104E8000620F731F0196C7CFD7011296ED91FC9167
:104E9000C80123E0880F991F2A95E1F7E80FF91F51
:104EA000A080B180A281B381AA0FBB1FAC0DBD1D34
:104EB0002D913C9186819781289F4001299F900CDC
:104EC000389F900C1124B401C5010E94631E582E16
:104ED000940150E040E06981C50197D18983511068
:104EE0005FCD0F5F1F4FA2CF70E060E083E190E0E5
:104EF0000E942C1E55CD50E040E070E060E081E162
:104F000090E046D981114CCD60E070E0CB010E9469
:104F1000D1118091A806882329F0A80160E070E0F3
:104F2000CB0117DAA80160E070E0CB010E94D81035
:104F300061E070E080E090E00E94D1118091A806CD
:104F4000882331F0A80161E070E080E090E001DAB0
:104F5000A80161E070E080E090E00E94D81010921B
:104F6000D2061092D1061092DE061092DD068091D4
:104F7000CE069091CF060E94241E12CD81E090E0D3
:104F80009093AA068093A90650E040E070E060E0AC
:104F900086E190E0C3CD81E0F501808301CD8D8570
:104FA0009E850E94A61E2FEF3FEFA90161E070E0F1
:104FB000009769F0DC01CD90DD90ED90FC90C70189
:104FC000B6010E948C15A701960170E060E08EE1A9
:104FD00090E0C0CDC8010E94871EE2CCCF92DF9244
:104FE000EF92FF92CF93DF93EC01C12CD12C76018D
:104FF000C701B6010E94D111AE01C701B601A9D9FE
:10500000AE01C701B6010E94D8108091CA069091E6
:10501000CB06009731F00E94B7341092CB06109265
:10502000CA06CA94CD28CE28CF2879F58091D1061A
:10503000F12C882351F050E040E070E060E084E122
:1050400090E0A6D8F82E1092D1068091D20688233F
:1050500041F01092D20681E090E090939304809307
:1050600092048091CE069091CF060E94271E8091D7
:10507000CE069091CF060E941C1E8F2DDF91CF91FE
:10508000FF90EF90DF90CF900895C12CD12C760146
:10509000C394AECFCF93DF93EC01AC0160E070E03E
:1050A000CB010E94C119AE0161E070E080E090E0A8
:1050B000DF91CF910C94C11960E070E0CB010E94A8
:1050C0002E1A61E070E080E090E00C942E1ACF92EE
:1050D000DF92EF92FF920F931F93CF93DF93EC0138
:1050E0006A017B0100E010E098010E94DC1501E0FC
:1050F00010E020E030E0B701A601CE010E94DC15EF
:10510000DF91CF911F910F91FF90EF90DF90CF90A3
:10511000089568EE73E080E090E037D590E080E09D
:10512000089526E040E050E16EE070E08CEE96E0FD
:105130000E94F2308CEE96E08BD7892B21F08CEE1A
:1051400096E0A0D7F7CF90E080E00895CF92DF926D
:10515000EF92FF920F931F93CF93DF936B017A012E
:10516000E901198218828CEE96E072D7892B71F1D1
:105170008601CC24C39485E6D82E8091DF06811168
:1051800011C08CEE96E07ED785369105B1F7C092BE
:10519000DF06F801D1928F01888199810196998368
:1051A0008883EBCF888199818E159F0578F48CEEEA
:1051B00096E068D78F3F9807A9F3F80181938F0194
:1051C00088819981019699838883ECCF90E080E073
:1051D000DF91CF911F910F91FF90EF90DF90CF90D3
:1051E00008950F931F93CF93DF93EA0189018CEE0B
:1051F00096E00E948233F801D183C08390E080E082
:10520000DF91CF911F910F910895DC01A40FB51F7D
:10521000420F531F9D01281B390B2417350710F02F
:10522000862F0895ED91E627F0E0EC51FF4F649151
:10523000F1CF9A01AB016FEFE8CFCF93FC01E60FFE
:10524000F71FE40FF51FC081F4DF91E0C81390E071
:10525000892FCF9108958091E00691E0980F909367
:10526000E006882349F021E030E03093E206209305
:10527000E1068093E006089578940E945204F89421
:105280008091E00681508093E0060C94B01BFF9261
:105290000F931F93CF93DF931F92CDB7DEB710927A
:1052A0002B0A10922A0AA7D40E94FC1C0091B90470
:1052B0001091BA04F8011182108270E060E090E071
:1052C00080E00E94B91B0E94DA0CF8947894C8011F
:1052D00086960E94B81B81E090E00E94B41B198260
:1052E000AE014F5F5F4F61E070E0F8018281938112
:1052F0000E945F1B8981882319F081E0F80182A751
:105300000E94BE1BF8940E944F1DF801808191817C
:10531000892B19F481E092A5911180E080932A0AEB
:1053200078947894FF24F39480912A0A811110C014
:105330000E949B0E81E090E00E94B61BF89490E0E2
:1053400080E00F90DF91CF911F910F91FF90089512
:105350001982AE014F5F5F4F61E070E0F80182811A
:1053600093810E949A1B8981882311F0F801F2A68B
:10537000F80180819181892B89F481E092A59111B6
:1053800001C080E080932B0A90912B0A81E091115B
:1053900080E080932A0A0E946E1DC6CF81E0F2CF82
:1053A0005058BB27AA270ED00DC1FED030F003D134
:1053B00020F031F49F3F11F41EF4F3C00EF4E09599
:1053C000E7FBE9C0E92F0FD180F3BA176207730733
:1053D0008407950718F071F49EF527C10EF4E09547
:1053E0000B2EBA2FA02D0B01B90190010C01CA019F
:1053F000A0011124FF27591B99F0593F50F4503E4A
:1054000068F11A16F040A22F232F342F4427585F3B
:10541000F3CF469537952795A795F0405395C9F753
:105420007EF41F16BA0B620B730B840BBAF091500B
:10543000A1F0FF0FBB1F661F771F881FC2F70EC0AA
:10544000BA0F621F731F841F48F48795779567957D
:10545000B795F7959E3F08F0B3CF9395880F08F066
:105460009927EE0F97958795089571D008F481E0FC
:10547000089504D06894B111D9C00895BCD088F0C3
:105480009F5790F0B92F9927B751A0F0D1F0660F30
:10549000771F881F991F1AF0BA95C9F712C0B1304B
:1054A00081F0C3D0B1E00895C0C0672F782F88275E
:1054B000B85F39F0B93FCCF3869577956795B3958A
:1054C000D9F73EF490958095709561957F4F8F4FF9
:1054D0009F4F0895E89409C097FB3EF490958095FE
:1054E000709561957F4F8F4F9F4F9923A9F0F92FAA
:1054F00096E9BB279395F695879577956795B79528
:10550000F111F8CFFAF4BB0F11F460FF1BC06F5F0D
:105510007F4F8F4F9F4F16C0882311F096E911C01F
:10552000772321F09EE8872F762F05C0662371F040
:1055300096E8862F70E060E02AF09A95660F771F54
:10554000881FDAF7880F9695879597F90895990F30
:105550000008550FAA0BE0E8FEEF16161706E8073D
:10556000F907C0F012161306E407F50798F0621B5E
:10557000730B840B950B39F40A2661F0232B242B33
:10558000252B21F408950A2609F4A140A6958FEF52
:10559000811D811D089597F99F6780E870E060E0A4
:1055A00008959FEF80EC089500240A9416161706BC
:1055B00018060906089500240A9412161306140604
:1055C00005060895092E0394000C11F4882352F067
:1055D000BB0F40F4BF2B11F460FF04C06F5F7F4F1F
:1055E0008F4F9F4F089557FD9058440F551F59F006
:1055F0005F3F71F04795880F97FB991F61F09F3FC0
:1056000079F087950895121613061406551FF2CFE8
:105610004695F1DF08C0161617061806991FF1CF38
:1056200086957105610508940895E894BB2766275F
:105630007727CB0197F908958ADF08F48FEF089553
:105640000BD0C0CFB1DF28F0B6DF18F0952309F0FA
:10565000A2CFA7CF1124EACFC6DFA0F3959FD1F345
:10566000950F50E0551F629FF001729FBB27F00D10
:10567000B11D639FAA27F00DB11DAA1F649F662765
:10568000B00DA11D661F829F2227B00DA11D621FB4
:10569000739FB00DA11D621F839FA00D611D221F6E
:1056A000749F3327A00D611D231F849F600D211D52
:1056B000822F762F6A2F11249F5750408AF0E1F0F5
:1056C00088234AF0EE0FFF1FBB1F661F771F881F3E
:1056D00091505040A9F79E3F510570F05CCFA6CF86
:1056E0005F3FECF3983EDCF3869577956795B79529
:1056F000F795E7959F5FC1F7FE2B880F911D969553
:10570000879597F908950895883008F076C0E82FB6
:10571000F0E0EE0FFF1FEC56FB4F7183608381506A
:10572000873008F03DC0E82FF0E08827E556F44DBB
:105730008F4F0C94E533D82BA22BAA2BB62BC32B5F
:10574000E42BF12B809169008C7F482B40936900FA
:10575000E89A089580916900837F440F551F440F94
:10576000551F482B40936900E99A0895809169007C
:105770008F7C74E0440F551F7A95E1F7482B4093D6
:105780006900EA9A0895809169008F7366E0440F7A
:10579000551F6A95E1F7482B40936900EB9A0895ED
:1057A00080916A008C7F482B40936A00EC9A0895A0
:1057B00080916A00837F440F551F440F551F482B6B
:1057C00040936A00ED9A089580916A008F7C24E0EE
:1057D000440F551F2A95E1F7482B40936A00EE9A33
:1057E000089580916A008F7396E0440F551F9A9533
:1057F000E1F7482B40936A00EF9A08951F920F92A9
:105800000FB60F9211240BB60F922F933F934F9325
:105810005F936F937F938F939F93AF93BF93EF9318
:10582000FF93E0919804F09199041995FF91EF91FD
:10583000BF91AF919F918F917F916F915F914F91A8
:105840003F912F910F900BBE0F900FBE0F901F90A6
:1058500018951F920F920FB60F9211240BB60F924C
:105860002F933F934F935F936F937F938F939F9368
:10587000AF93BF93EF93FF93E0919A04F0919B0451
:105880001995FF91EF91BF91AF919F918F917F916A
:105890006F915F914F913F912F910F900BBE0F90A1
:1058A0000FBE0F901F9018951F920F920FB60F9278
:1058B00011240BB60F922F933F934F935F936F93E7
:1058C0007F938F939F93AF93BF93EF93FF93E09159
:1058D0009C04F0919D041995FF91EF91BF91AF91B8
:1058E0009F918F917F916F915F914F913F912F91F8
:1058F0000F900BBE0F900FBE0F901F9018951F9228
:105900000F920FB60F9211240BB60F922F933F9365
:105910004F935F936F937F938F939F93AF93BF93B7
:10592000EF93FF93E0919E04F0919F041995FF91EE
:10593000EF91BF91AF919F918F917F916F915F9107
:105940004F913F912F910F900BBE0F900FBE0F9074
:105950001F9018951F920F920FB60F9211240BB63D
:105960000F922F933F934F935F936F937F938F93F8
:105970009F93AF93BF93EF93FF93E0919404F091C3
:1059800095041995FF91EF91BF91AF919F918F91E0
:105990007F916F915F914F913F912F910F900BBE2F
:1059A0000F900FBE0F901F9018951F920F920FB679
:1059B0000F9211240BB60F922F933F934F935F9347
:1059C0006F937F938F939F93AF93BF93EF93FF93C7
:1059D000E0919604F09197041995FF91EF91BF9192
:1059E000AF919F918F917F916F915F914F913F9177
:1059F0002F910F900BBE0F900FBE0F901F90189518
:105A00001F920F920FB60F9211240BB60F922F9385
:105A10003F934F935F936F937F938F939F93AF9336
:105A2000BF93EF93FF93E091A004F091A104199527
:105A3000FF91EF91BF91AF919F918F917F916F9166
:105A40005F914F913F912F910F900BBE0F900FBE22
:105A50000F901F9018951F920F920FB60F9211245E
:105A60000BB60F922F933F934F935F936F937F9358
:105A70008F939F93AF93BF93EF93FF93E091A20413
:105A8000F091A3041995FF91EF91BF91AF919F9170
:105A90008F917F916F915F914F913F912F910F90D7
:105AA0000BBE0F900FBE0F901F9018951F920F9274
:105AB0000FB60F9211242F933F938F939F93AF9321
:105AC000BF938091E4069091E506A091E606B0911F
:105AD000E7063091E30623E0230F2D3758F50196B2
