:1000000085C100000C94682E0C94932E0C94BE2E87
:100010000C94E92E0C94142F0C943F2F0C946A2FFF
:100020000C94952FA4C10000A2C10000A0C1000043
:100030009EC100009CC100009AC1000098C1000050
:1000400096C1000094C1000092C1000090C1000060
:100050008EC100008CC100008AC100000C94C02F2A
:1000600086C100000C94BC330C94F23380C10000B4
:100070007EC100007CC100007AC1000078C1000090
:1000800076C1000074C1000072C1000070C10000A0
:100090000C9448340C947E346AC1000068C100009E
:1000A00066C1000064C1000062C1000060C10000C0
:1000B0005EC100005CC100005AC1000058C10000D0
:1000C00056C1000054C100000C948B1F0C94D43412
:1000D0000C940A354CC100000C9460350C94963594
:1000E00046C10000001D3A2774694E53E8F5D2CF8F
:1000F0009C81A6BBCDD0F7EAB9A4839E25381F0208
:10010000514C6B76879ABDA0F3EEC9D46F725548F7
:100110001B06213C4A57706D3E230419A2BF9885E7
:10012000D6CBECF1130E2934677A5D40FBE6C1DCD7
:100130008F92B5A8DEC3E4F9AAB7908D362B0C11C7
:10014000425F78659489AEB3E0FDDAC77C61465BB7
:100150000815322F5944637E2D30170AB1AC8B96A7
:10016000C5D8FFE2263B1C01524F6875CED3F4E997
:10017000BAA7809DEBF6D1CC9F82A5B8031E392487
:10018000776A4D50A1BC9B86D5C8EFF24954736E77
:100190003D20071A6C71564B1805223F8499BEA367
:1001A000F0EDCAD735280F12415C7B66DDC0E7FA57
:1001B000A9B4938EF8E5C2DF8C91B6AB100D2A3747
:1001C00064795E43B2AF8895C6DBFCE15A47607D37
:1001D0002E3314097F6245580B16312C978AADB027
:1001E000E3FED9C400000A0B02090C0D0E08070338
:1001F00004010000000000000000000000000000FA
:1002000000000000000000000000000000000000EE
:1002100012111000000000000000000000000000AB
:100220000000000000000000000001021020200873
:100230000810204010204080020102010804020141
:1002400001020408102040808040201008040201B0
:100250008004020180402010080402010804020109
:100260000102040810204080010204081020408090
:1002700005050505070508080808020202020A0A22
:100280000808040404040101010101010101030340
:10029000030303030303040707070C0C0C0C0C0CEB
:1002A0000C0C0202020206060606060606060B0BE8
:1002B0000B0B0B0B0B0B000020002300260029006A
:1002C0002C002F003200000100000301060109018B
:1002D00000002200250028002B002E0031003400F1
:1002E00002010000050108010B01000021002400AB
:1002F00027002A002D003000330001010000040116
:1003000007010A011B34A7343335BF3511241FBE42
:10031000CFEFD1E2DEBFCDBF00E00CBF15E0A0E023
:10032000B2E0EAE8FFE600E00BBF02C007900D92E2
:10033000A03DB107D9F72AE0A0EDB5E001C01D92BC
:10034000AC3CB207E1F711E0C6E8D1E000E006C03E
:1003500021970109802FFE010E944F36C238D10734
:1003600080E00807A9F70E94B12B0C94C33748CE50
:10037000611102C00C9401326130E1F362E0FACF06
:10038000662319F061E00C943D3260E0FCCF0895E3
:10039000CF92DF92EF92FF92CF93882351F16A01BF
:1003A0007B01CFEFC80F20E030E0A901CB01B601FF
:1003B0000E949F2C87FF11C0C701B60190580E9470
:1003C000A82C9B01AC016C2F70E090E080E0CF91F5
:1003D000FF90EF90DF90CF90B2C0C701B6010E94AE
:1003E000A32C8C2FCF91FF90EF90DF90CF900C94A7
:1003F000C730CF91FF90EF90DF90CF9008950F938B
:100400001F938B019C0183E03695279517950795DF
:100410008A95D1F700531A4F462F477021E030E0FC
:10042000F90102C0EE0FFF1F4A95E2F7AF01F80194
:1004300020812423CB010196211102C090E080E0AD
:100440001F910F9108950F931F938B019C0183E0DF
:1004500036952795179507958A95D1F7677081E0AE
:1004600090E001C0880F6A95EAF7F801E053FA4F6F
:100470002081452B31F48095822380831F910F9139
:100480000895822BFACF2F923F924F925F926F92F4
:100490007F928F929F92AF92BF92CF92DF92EF9214
:1004A000FF920F931F93CF93DF93D62EC72E782EF4
:1004B000692E49015A01280161E08D2D0E94013207
:1004C000CD2DDC2D8E010F5F1F4FA8016D2D7C2DD2
:1004D000872D962DB8DF20E030E0A901C201B701D9
:1004E0000E94862D181664F4C201B7010E94A82C40
:1004F0002B01C501B4010E94A82CA201CE0123D07A
:10050000C801DF91CF911F910F91FF90EF90DF9085
:10051000CF90BF90AF909F908F907F906F905F90A3
:100520004F903F902F900895882341F08150682F7D
:1005300070E090E080E050E040E085CF0895862FA5
:10054000B9010C94C7309C01FC01EC51FE4FE491C1
:10055000E150E231E0F4F0E08827EE54FD4F8F4F98
:100560000C944F36C402CB02CE02E502FA02C70257
:100570000F031B031F0336034B03600377038C0336
:10058000C702A103B803CD0384B5806884BD60E0D1
:10059000822F0C943D3284B58062F8CF8091800028
:1005A0008C7F82608093800080918100807E80615A
:1005B000682B609381005093870040938600809160
:1005C0008000806880938000E2CF809180008C7FE3
:1005D00082608093800080918100807E8061682BA2
:1005E0006093810050938700409386008091800043
:1005F0008062E8CF809180008C7F82608093800051
:1006000080918100807E8061682B6093810050938F
:10061000870040938600809180008860D3CF8091CE
:10062000B00080688093B0008091B100887F682B13
:100630006093B100ACCF8091B0008062F3CF809125
:1006400090008C7F82608093900080919100807EEA
:100650008061682B609391005093970040939600BF
:100660008091900080688093900091CF809190005D
:100670008C7F82608093900080919100807E806169
:10068000682B60939100509397004093960080915F
:1006900090008062E8CF809190008C7F8260809390
:1006A000900080919100807E8061682B6093910022
:1006B0005093970040939600809190008860D3CF2C
:1006C0008091A0008C7F82608093A0008091A10027
:1006D000807E8061682B6093A1005093A7004093B7
:1006E000A6008091A00080688093A00050CF8091E8
:1006F000A0008C7F82608093A0008091A100807E0A
:100700008061682B6093A1005093A7004093A600DE
:100710008091A0008062E8CF8091A0008C7F8260F1
:100720008093A0008091A100807E8061682B6093FF
:10073000A1005093A7004093A6008091A00088607C
:10074000D3CF809120018C7F8260809320018091A3
:100750002101807E8061682B6093210150932701E5
:1007600040932601809120018068809320010FCF63
:10077000809120018C7F82608093200180912101F3
:10078000807E8061682B6093210150932701409304
:100790002601809120018062E8CF809120018C7F2A
:1007A00082608093200180912101807E8061682B8E
:1007B00060932101509327014093260180912001ED
:1007C0008860D3CF60E070E080E89FE7089560E044
:1007D00070E080E89FE7089560E070E080E89FEFB8
:1007E000089560E070E080E89FEF089560E070E0B9
:1007F00080EC9FEF089560E070E080EC9FEF08953B
:10080000F5DF6093AA097093AB098093AC099093CC
:10081000AD09F1DF60939E0970939F098093A00951
:100820009093A109CFDF6093A6097093A7098093E5
:10083000A8099093A909CBDF6093A2097093A3093B
:100840008093A4099093A509C7DF6093AE097093C4
:10085000AF098093B0099093B109C3DF6093B209E7
:100860007093B3098093B4099093B50908950F93D9
:100870001F938B019C010027112720783F770115DA
:10088000110520483F4749F4AB01BC016F7777273A
:1008900081E0452B462B472B09F480E01F910F91F7
:1008A0000895E5CF2F923F924F925F926F927F9281
:1008B0008F929F92AF92BF92CF92DF92EF92FF9270
:1008C0000F931F93CF93DF93CDB7DEB7A8970FB6E3
:1008D000F894DEBF0FBECDBF80913C0A81508230BC
:1008E00008F4D4C080E080933C0A80912C0A8150A7
:1008F000823008F4CDC080E080932C0A80912B0ACE
:100900008150823008F4C6C080E080932B0A809129
:100910002A0A8150823008F4BFC080E080932A0AFE
:100920002AEC39E04FEB5AE06DEB7AE085EC94E08D
:100930000E94EE1E6091BF0A7091C00A072E000C43
:10094000880B990B0E94D62C2091FE033091FF0357
:1009500040910004509101040E948A2D4B015C01DA
:100960008092710A9092720AA092730AB092740AED
:100970002090BD0A3090BE0AB101032C000C880BF8
:10098000990B0E94D62C20910204309103044091CF
:100990000404509105040E943B2C6B017C014090A3
:1009A0000A0450900B0460900C0470900D04AC018C
:1009B0009B01C301B2010E949F2C87FF6FC0A3015E
:1009C0009201C701B6010E943A2C20910E04309189
:1009D0000F0440911004509111040E948A2D6B0164
:1009E0007C01C092750AD092760AE092770AF09262
:1009F000780A20E030E0A9010E94862D18160CF03C
:100A000062C08091120490911304A0911404B091DB
:100A100015048093790A90937A0AA0937B0AB09385
:100A20007C0A37FE03C0319421943108809172030F
:100A30009091730311E08215930544F4809174033F
:100A400090917503281639060CF410E01093C10A32
:100A5000112361F08091280A181644F08091BE0499
:100A60009091BF049093270A8093260A2091260A2A
:100A70003091270A8091C0049091C104281739074A
:100A8000ACF19093270A8093260A37C083E02BCFDE
:100A900083E032CF83E039CF83E040CF409006043B
:100AA000509007046090080470900904A701960113
:100AB000C301B2010E949F2C18160CF480CF60E095
:100AC00070E0CB0182CF20E030E0A901C701B60180
:100AD0000E949F2C18160CF4A4CF809116049091BC
:100AE0001704A0911804B091190493CF8091C20407
:100AF0009091C3048217930724F680916E0390911E
:100B00006F03821593050CF4D8C480917003909103
:100B10007103281639060CF4D0C48091C404809364
:100B2000C20A8091C20A882309F4D1C480927D0A46
:100B300090927E0AA0927F0AB092800AA701960145
:100B40006091790A70917A0A80917B0A90917C0A6F
:100B50000E943B2C6093810A7093820A8093830ADF
:100B60009093840A112339F08091C50A813019F0DD
:100B700081E080932D0A1093C50A80912D0A882365
:100B800009F440C080911E0490911F04A09120049C
:100B9000B09121048093CE099093CF09A093D009FE
:100BA000B093D1098091220490912304A091240450
:100BB000B09125048093D2099093D309A093D409CE
:100BC000B093D5098091260490912704A091280420
:100BD000B09129048093D6099093D709A093D8099E
:100BE000B093D90980912A0490912B04A0912C04F0
:100BF000B0912D048093DA099093DB09A093DC096E
:100C0000B093DD098091CE099091CF09A091D009D0
:100C1000B091D1098B8F9C8FAD8FBE8F8093510A7D
:100C20009093520AA093530AB093540A8091D20928
:100C30009091D309A091D409B091D5098F87988B51
:100C4000A98BBA8B8093550A9093560AA093570AA2
:100C5000B093580A8091D6099091D709A091D809EC
:100C6000B091D9098F8F98A3A9A3BAA38093590AE9
:100C700090935A0AA0935B0AB0935C0A8091DA09B8
:100C80009091DB09A091DC09B091DD098B8B9C8BE5
:100C9000AD8BBE8B80935D0A90935E0AA0935F0A32
:100CA000B093600A1123A1F08091290A181684F0EC
:100CB0008091320490913304A0913404B0913504B2
:100CC0008093DE099093DF09A093E009B093E109D6
:100CD00080917D0A90917E0AA0917F0AB091800A4E
:100CE00080933D0A90933E0AA0933F0AB093400A36
:100CF0008F859889A989BA898093410A9093420A7D
:100D0000A093430AB093440A8091810A9091820A89
:100D1000A091830AB091840A8093450A9093460A71
:100D2000A093470AB093480A8B899C89AD89BE89F4
:100D30008093490A90934A0AA0934B0AB0934C0AB5
:100D40008091DE099091DF09A091E009B091E1095D
:100D500080934D0A90934E0AA0934F0AB093500A85
:100D60001092850A1092860A1092870A1092880AB9
:100D70003DE3432E3AE0532E4EE4642E43E0742EBE
:100D80000AE313E0812C912C5401D8016D917D91DF
:100D90008D919D918D01F20121913191419151915E
:100DA0002F0190580E948A2D9B01AC01C501B4010E
:100DB0000E943B2C4B015C016016710631F780925A
:100DC000850A9092860AA092870AB092880A80913A
:100DD000C604882309F49BC381E08093300A0EEB9C
:100DE00013E02DE73AE03CA32BA3CE010196988FA8
:100DF0008F8BDE011996BA87A9871C870B870C5F3A
:100E00001F4FEBA1FCA181919191A191B191FCA304
:100E1000EBA38DA39EA3AFA3B8A7AB85BC85189603
:100E20002D913D914D915C911B976F8578898989B2
:100E30009A890E948A2D2B013C01EB85FC8520813B
:100E40003181428153816B8D7C8D8D8D9E8D0E9471
:100E50008A2D9B01AC01C301B2010E943B2C2B01E6
:100E60003C01AB85BC8550962D913D914D915C9197
:100E700053976F8D78A189A19AA10E948A2D9B0119
:100E8000AC01C301B2010E943B2C2B013C01EB855C
:100E9000FC85208D318D428D538D6B897C898D89A8
:100EA0009E890E948A2D9B01AC01C301B2010E9460
:100EB0003B2C2B013C01F801EC57FF4F2081318185
:100EC00042815381C501B4010E948A2D9B01AC016E
:100ED000C301B2010E943B2C9B01AC016DA17EA11C
:100EE0008FA198A50E943A2CAF89B88D6D937D9300
:100EF0008D939D93B88FAF8BE985FA85EA17FB0731
:100F000009F07BCF89819A81AB81BC818F87988BD7
:100F1000A98BBA8B8D819E81AF81B8858B8B9C8B81
:100F2000AD8BBE8B0EED13E0ADEABAE0BC87AB87AC
:100F3000F80141905190619071908F012485358521
:100F4000468557856B897C898D899E890E948A2D6B
:100F50004B015C012F85388949895A89C301B20147
:100F60000E948A2D20E030E0A9010E943B2C9B01C9
:100F7000AC01C501B4010E943B2CAB85BC856D93CF
:100F80007D938D939D93BC87AB87EEEEF3E0E017E6
:100F9000F10771F680912C0A882309F4B5C28330D9
:100FA00009F0AEC281E090E080932C0A6091E609DE
:100FB0007091E7098091E8099091E9096093890AA5
:100FC00070938A0A80938B0A90938C0A20915A041A
:100FD00030915B0440915C0450915D040E94862D29
:100FE00087FDC5C28091660390916703A091680355
:100FF000B09169038093EA099093EB09A093EC09FF
:10100000B093ED092091EA093091EB094091EC0988
:101010005091ED0960915E0470915F0480916004CD
:10102000909161040E948A2D60938D0A70938E0ABC
:1010300080938F0A9093900A20915A0430915B0418
:1010400040915C0450915D046091890A70918A0A14
:1010500080918B0A90918C0A0E949F2C18160CF498
:10106000A5C280916A0390916B03A0916C03B0912B
:101070006D038093EE099093EF09A093F009B0936C
:10108000F1092091EE093091EF094091F00950915A
:10109000F1096091660470916704809168049091F1
:1010A00069040E948A2D6093910A7093920A80933A
:1010B000930A9093940A2091890A30918A0A409168
:1010C0008B0A50918C0A60916E0470916F0480912C
:1010D0007004909171040E948A2D6B017C014090F4
:1010E000750A5090760A6090770A7090780A20917D
:1010F0007204309173044091740450917504C301DB
:10110000B2010E94862D87FD76C280916203909184
:101110006303A0916403B09165038093F2099093F7
:10112000F309A093F409B093F5094090750A509023
:10113000760A6090770A7090780A20917204309154
:1011400073044091740450917504C301B2010E946C
:101150009F2C18160CF46EC280915E0390915F0371
:10116000A0916003B09161038093F6099093F70911
:10117000A093F809B093F90920E030E0A901C70174
:10118000B6010E94862D18160CF073C28091F609E4
:101190009091F709A091F809B091F9098093950A07
:1011A0009093960AA093970AB093980A2091950A73
:1011B0003091960A4091970A5091980A609156038F
:1011C0007091570380915803909159030E948A2D82
:1011D0004B015C018092990A90929A0AA0929B0A14
:1011E000B0929C0A4090890A50908A0A60908B0ABB
:1011F00070908C0AC090750AD090760AE090770AB9
:10120000F090780AA301920160916A0470916B04D6
:1012100080916C0490916D040E949F2C87FF08C000
:1012200001E0A7019601C501B4010E949F2C87FF30
:1012300000E00093C30A20917A0430917B0440912E
:101240007C0450917D04C301B2010E949F2C87FF52
:1012500023C211E0A7019601C501B4010E94862DA9
:1012600018160CF010E0812F8093C40A002309F4B3
:1012700015C280904E0390904F03A0905003B09001
:10128000510320E030E0A901C501B4010E94862D80
:1012900018160CF017C2A50194016091710A7091A3
:1012A000720A8091730A9091740A0E949F2C87FFA2
:1012B00009C22091910A3091920A4091930A50916B
:1012C000940A609162047091630480916404909127
:1012D00065040E943B2C60939D0A70939E0A809344
:1012E0009F0A9093A00A20919D0A30919E0A4091F6
:1012F0009F0A5091A00A60918204709183048091AA
:101300008404909185040E948A2D6093A10A7093B1
:10131000A20A8093A30A9093A40A91012C5434400A
:10132000293C310508F00EC28091850A9091860A09
:10133000A091870AB091880A8093A90A9093AA0A7B
:10134000A093AB0AB093AC0A80912B0A882309F4CE
:10135000F6C1833009F0EFC181E090E080932B0A61
:10136000209186043091870440918804509189042B
:10137000C701B6010E948A2D4B015C012091E20950
:101380003091E3094091E4095091E5090E943A2C1B
:101390006B017C0120E030E0A9010E94862D181627
:1013A0000CF0EAC180918A0490918B04A0918C0486
:1013B000B0918D048093A50A9093A60AA093A70AE2
:1013C000B093A80A2091A90A3091AA0A4091AB0AC9
:1013D0005091AC0A6091AA047091AB048091AC0466
:1013E0009091AD040E948A2D3B018C01C090AE0407
:1013F000D090AF04E090B004F090B104A701960142
:101400000E94862D181694F0C090B204D090B304B8
:10141000E090B404F090B504A7019601B301C801AF
:101420000E949F2C87FD02C0630178012091B604C1
:101430003091B7044091B8045091B904C701B60186
:101440000E948A2D2B013C0120E030E0A9010E947E
:101450009F2C87FD30C020E030E0A901C301B2011C
:101460000E94862D18160CF499C120E030E0A901E5
:10147000C301B2010E949F2C882309F4F3C140905C
:10148000AA095090AB096090AC097090AD0920E0BA
:1014900030E040E853E4C301B2010E949F2C6FEF9B
:1014A00087FF86C120E030E0A901C301B2010E949C
:1014B000862D87FF79C160E07BC181E02091260AFB
:1014C0003091270A232B09F02ACB80E028CB80918A
:1014D0007A0390917B03A0917C03B0917D0380936C
:1014E0007D0A90937E0AA0937F0AB093800A80932E
:1014F000810A9093820AA093830AB093840A32CB24
:10150000082E000C990B50CD82E090E04DCD8091DB
:10151000300A882309F44ACD8091760390917703AD
:10152000A0917803B09179038093AD0A9093AE0AAD
:10153000A093AF0AB093B00A8093B10A9093B20A15
:10154000A093B30AB093B40A8093B50A9093B60AF5
:10155000A093B70AB093B80A8093B90A9093BA0AD5
:10156000A093BB0AB093BC0A1092300A1FCD8090A2
:10157000EA099090EB09A090EC09B090ED09A50163
:101580009401C701B6010E94862D18164CF4809173
:10159000750A9091760AA091770AB091780A2ACDBF
:1015A000C501B4017ED98111F2CF2CCDC090EE09D6
:1015B000D090EF09E090F009F090F1092091750AC0
:1015C0003091760A4091770A5091780AC701B601A6
:1015D0000E94862D18164CF48091750A9091760A17
:1015E000A091770AB091780A44CDC701B60159D9C4
:1015F0008111F2CF46CD8090F2099090F309A0902E
:10160000F409B090F509A5019401C301B2010E944B
:101610009F2C87FF09C08091750A9091760AA0914E
:10162000770AB091780A79CDC501B4013AD9811110
:10163000F2CF7BCD8090F6099090F709A090F80941
:10164000B090F909A5019401C301B2010E94862D51
:1016500018164CF48091750A9091760AA091770A39
:10166000B091780A81CDC501B4011BD98111F2CFA7
:1016700083CD20E030E0A901C701B6010E949F2C74
:1016800018160CF493CD8091F2099091F309A09172
:10169000F409B091F50982CD80E0E6CD882349F0C8
:1016A0008090520390905303A0905403B090550340
:1016B000E8CD80907E0490907F04A0908004B0904C
:1016C0008104DFCD20E030E0A901C501B4010E9412
:1016D0009F2C87FF1FC0A50194016091710A709132
:1016E000720A8091730A9091740A0E94862D1816CE
:1016F0008CF420918D0A30918E0A40918F0A50917E
:10170000900A609152047091530480915404909116
:101710005504DFCD80914E0490914F04A091500468
:10172000B091510480939D0A90939E0AA0939F0AC2
:10173000B093A00AD8CD082E000C990B0FCE82E0F2
:1017400090E00CCE6093A90A7093AA0A8093AB0A2A
:101750009093AC0A80912A0A882359F0833029F4A7
:1017600081E090E080932A0AFBCD082E000C990BB3
:10177000F9CF82E090E0F6CF20E030E0A901C70188
:10178000B6010E949F2C87FF1DCE80918E04909100
:101790008F04A0919004B09191040CCE412C512C57
:1017A00020E8622E2FE3722EC301B2010E94A82C02
:1017B0008AE00E94C0016091BE097091BF098091CA
:1017C000C0099091C1090E94FF018C019093BD094D
:1017D0008093BC09C701B6019F772091BA0430916C
:1017E000BB044091BC045091BD040E948A2D6B0142
:1017F0007C0120E030E04FE753E40E949F2C87FFFC
:1018000035C020E030E0A901C701B6010E94862D55
:1018100018169CF5B701A601C8010E94C8012AEC60
:1018200039E04FEB5AE06DEB7AE085EC94E00E94F2
:10183000201F8091C20A2091260A3091270A820F28
:10184000932F911D9093270A8093260A2091C0041C
:101850003091C10482179307A4F03093270A209394
:10186000260A16C0412C512C32019ECFC12CD12CFE
:101870009FE7E92E93E4F92ECDCFC12CD12C760130
:10188000C9CF2091C2043091C304281739072CF71F
:10189000D090C10AD092280A10922D0A8091DA09BC
:1018A0009091DB09A091DC09B091DD098B879C87C1
:1018B000AD87BE878091D6099091D709A091D809AC
:1018C000B091D9098F87988BA98BBA8B8091D20957
:1018D0009091D309A091D409B091D5098B8B9C8BA1
:1018E000AD8BBE8B8091CE099091CF09A091D0098C
:1018F000B091D1098F8B988FA98FBA8F0EE713E023
:1019000081E6282E8AE0382E78010C5F1F4FD70120
:1019100050962D913D914D915C9153976B897C89A7
:101920008D899E890E948A2D2B013C01F70120811F
:101930003181428153816F89788D898D9A8D0E9482
:101940008A2D9B01AC01C301B2010E943B2C2B01EB
:101950003C01D70190962D913D914D915C919397CB
:101960006F85788989899A890E948A2D9B01AC01AB
:10197000C301B2010E943B2C2B013C01F70120A9BD
:1019800031A942A953A96B857C858D859E850E94CE
:101990008A2D9B01AC01C301B2010E943B2CD101F5
:1019A0006D937D938D939D931D01EEE8F3E0E01719
:1019B000F10709F0A9CF4090850A5090860A6090FF
:1019C000870A7090880A209136043091370440913C
:1019D000380450913904C301B2010E948A2D20912C
:1019E000610A3091620A4091630A5091640A0E9430
:1019F0003B2C2091AD0A3091AE0A4091AF0A509134
:101A0000B00A0E943B2C6093CE097093CF0980935B
:101A1000D0099093D10920913A0430913B04409130
:101A20003C0450913D04C301B2010E948A2D2091D3
:101A3000650A3091660A4091670A5091680A0E94CF
:101A40003B2C2091B10A3091B20A4091B30A5091D7
:101A5000B40A0E943B2C6093D2097093D3098093FF
:101A6000D4099093D50920913E0430913F044091D0
:101A7000400450914104C301B2010E948A2D20917B
:101A8000690A30916A0A40916B0A50916C0A0E946F
:101A90003B2C2091B50A3091B60A4091B70A50917B
:101AA000B80A0E943B2C6093D6097093D7098093A3
:101AB000D8099093D9092091420430914304409170
:101AC000440450914504C301B2010E948A2D209123
:101AD0006D0A30916E0A40916F0A5091700A0E940F
:101AE0003B2C2091B90A3091BA0A4091BB0A50911F
:101AF000BC0A0E943B2C6093DA097093DB09809347
:101B0000DC099093DD0920919A0430919B04409167
:101B10009C0450919D046091490670914A06809101
:101B20004B0690914C060E949F2C87FF2EC160911E
:101B30009E0470919F048091A0049091A104209133
:101B4000A6043091A7044091A8045091A9040E94D2
:101B50008A2D20917D0A30917E0A40917F0A509112
:101B6000800A0E943A2C20912E0430912F0440913B
:101B70003004509131040E948A2D2091DE09309169
:101B8000DF094091E0095091E1090E943B2C6093EC
:101B9000DE097093DF098093E0099093E109D09208
:101BA000290AC090A50AD090A60AE090A70AF09052
:101BB000A80AC701B6019F77209196043091970437
:101BC00040919804509199040E94862D18160CF0AB
:101BD000E5C0C092E609D092E709E092E809F092E8
:101BE000E9098092E2099092E309A092E409B09297
:101BF000E50981E090E00E94DE1D40914906509188
:101C00004A0660914B0670914C0690E080E00E947D
:101C1000DA1D8090590690905A06A0905B06B0900D
:101C20005C0620E030E040E85FEBC501B4010E94B3
:101C30009F2C882331F1C0904906D0904A06E0904D
:101C40004B06F0904C06A7019601C501B4010E9415
:101C50003A2C4B015C0120E030E040E054E3C70146
:101C6000B6010E948A2D9B01AC01C501B4010E94FE
:101C7000862D181634F08BED94E090933406809303
:101C8000330680915D06882331F08BED94E09093CC
:101C9000340680933306C0904D06D0904E06E090F7
:101CA0004F06F0905006FFEFCF1ADF0AEF0AFF0A47
:101CB000C0924D06D0924E06E0924F06F09250062A
:101CC000C114D104E104F10499F48091510690917A
:101CD0005206A0915306B09154060196A11DB11D64
:101CE0008093510690935206A0935306B0935406E6
:101CF0008090550690905606A0905706B0905806D2
:101D0000609151067091520680915306909154064D
:101D10000E94D42CA50194010E948A2D20E030E07D
:101D200040E85FE40E948A2D2B013C01C701B60107
:101D30000E94D42CA50194010E948A2D9B01AC0124
:101D4000C301B2010E943B2C6093490670934A067E
:101D500080934B0690934C06A8960FB6F894DEBF7E
:101D60000FBECDBFDF91CF911F910F91FF90EF90EC
:101D7000DF90CF90BF90AF909F908F907F906F90AB
:101D80005F904F903F902F9008956091A2047091C2
:101D9000A3048091A4049091A504D1CE8091890AD6
:101DA00090918A0AA0918B0AB0918C0A8093E609DF
:101DB0009093E709A093E809B093E90912CF4F92F5
:101DC0005F926F927F92AF92BF92DF92EF92FF92FB
:101DD0000F931F93CF93DF9384E090E00E94000461
:101DE000A3E3B6E08BE2ED0119928A95E9F740E0B2
:101DF00050E060E87FEB96964D935D936D937C93F6
:101E000099974FE652E163E87AE392964D935D939A
:101E10006D937C93959743E25BE063E57BE61496D4
:101E20004D935D936D937C93179747EA5DE361E76C
:101E30007EEF18964D935D936D937C931B974FE3C4
:101E400058E862EE77E61C964D935D936D937C9314
:101E50001F9742E75CE46FE973E250964D935D9300
:101E60006D937C935397C7E2D6E01396DC93CE93A1
:101E70001297EDEEF5E0F983E8838FEE94E091831D
:101E800080832BE33AE0338322832CE33AE03583EB
:101E900024832CE23AE037832683918780879387D7
:101EA0008287958784872AE23AE0378726872BE264
:101EB0003AE0318B208B938B828B958B848B2AE33A
:101EC0003AE0378B268B29E33AE0318F208F938FCE
:101ED000828F958F848F978F868F91A380A327E31E
:101EE0003AE033A322A328E33AE035A324A326E370
:101EF0003AE037A326A325E33AE031A720A724E35D
:101F00003AE033A722A723E33AE035A724A797A70F
:101F100086A791AB80AB93AB82AB95AB84AB81E3EF
:101F20009AE097AB86AB82E39AE091AF80AF87E40B
:101F300096E09D838C8387E396E09B838A8389E484
:101F400096E09F838E838DE3A82E8AE0B82E88E8E2
:101F5000F50111928A95E9F7C6EBD9E087E8FE0111
:101F600011928A95E9F723EE35E08AE0F9011192A2
:101F70008A95E9F7E9EDF5E05596FC93EE935497D1
:101F800081E190E09183808388E193E09383828371
:101F900086EF92E09583848382E392E09783868341
:101FA00086E092E091878087DD24D394D0922F0A37
:101FB000412C512C320143944D865E866F86788A7F
:101FC00061E08AE00E94B801D98A1882D0922E0A74
:101FD00089E090E0A0E0B0E088879987AA87BB8776
:101FE0001D8249825A826B827C82E12CF12C87010E
:101FF000A801970169E070E080E090E00E94430250
:102000009F838E83688579858A859B850E94FF01E1
:102010009F838E830E94C701DD82D092C50AEC8A1D
:10202000FD8A0E8B1F8BEAE3F3E08091BE04909152
:10203000BF049093270A8093260A82E08093280A9F
:10204000D0922D0A409132045091330460913404AF
:102050007091350448A759A76AA77BA78093290ADE
:102060008091560490915704A0915804B09159045E
:1020700088AB99ABAAABBBAB84A595A5A6A5B7A524
:102080008CAB9DABAEABBFAB80A991A9A2A9B3A904
:1020900088AF99AFAAAFBBAF80A591A5A2A5B3A504
:1020A0008CAF9DAFAEAFBFAF84A195A1A6A1B7A1E4
:1020B0008093F6099093F709A093F809B093F90972
:1020C00080A191A1A2A1B3A18CA79DA7AEA7BFA7F4
:1020D00080911A0490911B04A0911C04B0911D04DE
:1020E000E5018CAF9DAFAEAFBFAF84AD95ADA6ADF2
:1020F000B7AD8093AD0A9093AE0AA093AF0AB093A8
:10210000B00A8093B10A9093B20AA093B30AB09335
:10211000B40A8093B50A9093B60AA093B70AB09315
:10212000B80A8093B90A9093BA0AA093BB0AB093F5
:10213000BC0A8091760490917704A0917804B091C4
:1021400079048093950A9093960AA093970AB09386
:10215000980A8091920490919304A0919404B09174
:1021600095048093A50A9093A60AA093A70AB0931A
:10217000A80ADF91CF911F910F91FF90EF90DF9010
:10218000BF90AF907F906F905F904F900895809137
:10219000C209811103C081E08093C2098091B60910
:1021A000811136C081E08093B6098091B709909182
:1021B000B809A091B909B091BA090197A105B10573
:1021C00039F58091BB09882319F16091BE0970919E
:1021D000BF098091C0099091C1090E94FF019093AD
:1021E000BD098093BC0940E050E0BA010E94C801DB
:1021F0006091BE097091BF098091C0099091C10999
:102200000E94FF019093BD098093BC090C94940235
:102210000895EF92FF920F931F93CF93DF93EA01FC
:10222000F901DC011496ED90FC90159712964D91F2
:102230005C9113974E0D5F1D2881398118960D9181
:102240001C9119970217130730F00D911C911197EB
:10225000012B09F441C08A01021B130BDC01189603
:102260008D919C918E199F09800F911F861797075A
:10227000DCF1C901860F971F8417950778F47183E5
:1022800060833383228315821482178216828881A9
:102290009981680F791F7983688316C01183008341
:1022A00033832283601B710B7583648390E080E02D
:1022B0001616170614F49E2D8F2D96838783D7014B
:1022C000A60FB71FB983A88380E0DF91CF911F913C
:1022D0000F91FF90EF90089518968D919C91821B1D
:1022E000930B861797075CF681E0EFCFCF92DF92D2
:1022F000EF92FF92CF93DF936B0184E4869FE0011E
:10230000879FD00D1124C25AD94F8AA99BA9009743
:1023100021F00E9421371BAA1AAA84E48C9DF001A7
:102320008D9DF00D1124E25AF94F86A997A90097C7
:1023300011F00E94213784E48C9DF0018D9DF00DF9
:102340001124E25AF94F138A128A168A178A108EBC
:10235000118E128E138E148E158E168E178E10A25D
:1023600011A281E090E093A382A315A214A216A269
:1023700017A210A611A613A612A615A614A616A695
:1023800017A610AA11AA13AA12AA15AA14AA17AA64
:1023900016AA11AE10AE12AE13AE14AE15AEDF011A
:1023A000DE961D921D921D921C921397EE5BFF4FBD
:1023B00011821082DF91CF91FF90EF90DF90CF904C
:1023C0000895CF93DF93FB01DC016D917C91DB01DC
:1023D0001696CD91DC918081918123E0880F991F21
:1023E0002A95E1F7AA81BB81A80FB91F8D919C9115
:1023F000119724853585220F331FEB016A817B817C
:10240000EB01C20FD31F0990D881C02D14962D91D6
:102410003C9161E070E0232B11F062E070E0C69F18
:102420009001C79F300DD69F300D1124A085B18536
:102430002A9FB0012B9F700D3A9F700D1124A4812B
:10244000B5812A9FF0012B9FF00D3A9FF00D1124CA
:102450008E0F9F1FFA019183808373836283DF91C4
:10246000CF9108952F923F924F925F926F927F92F9
:102470008F929F92AF92BF92CF92DF92EF92FF9294
:102480000F931F93CF93DF9300D000D0CDB7DEB76B
:10249000DC011496ED91FC910190F081E02D808596
:1024A00091859A838983A281B381BC83AB83FB012D
:1024B00081909190A190B190C12CD12C7601C8143B
:1024C000D904EA04FB04CCF026960FB6F894DEBFDC
:1024D0000FBECDBFDF91CF911F910F91FF90EF9075
:1024E000DF90CF90BF90AF909F908F907F906F9034
:1024F0005F904F903F902F90089544805580668064
:1025000077804085518562857385CF0140969E8393
:102510008D83A081B1819D0183E0220F331F8A95B5
:10252000E1F7A981BA8112968D919C91D901A80FEA
:10253000B91F2D903C9011970484F585E02DEE0F86
:10254000FF1F8B819C81E80FF91F0190F081E02D26
:1025500014968D919C91892B41F581E090E0E89F44
:102560009001E99F300DF89F300D1124249F8001C8
:10257000259F100D349F100D1124249DC001259D11
:10258000900D349D900D1124A8016D817E81820DE6
:10259000931D0E94AA37ED81FE81E00FF11F9FEF8E
:1025A000C91AD90AE90AF90A8ACF82E090E0D7CF9E
:1025B000CF93DF93DB01A953BB4F2C91222369F00A
:1025C00024E4269FF001279FF00D1124E25AF94FD1
:1025D000EF0119922A95E9F71C9224E4269FF00155
:1025E000279FF00D1124E25AF94F148215821682AA
:1025F00017821186108613861286118A108A178612
:102600001686DF91CF9172CE2F923F924F925F92BA
:102610006F927F928F929F92AF92BF92CF92DF92F2
:10262000EF92FF920F931F93CF93DF9300D000D0D0
:102630001F921F92CDB7DEB724E4269FF001279F9B
:10264000F00D1124E25AF94F04811581268137815A
:10265000012B022B032B09F4B7C02A016B017C016B
:1026600010E000E0812C912C54013F019F01285F74
:102670003F4F3C832B83CF0104969E838D83AB8198
:10268000BC818D919C91ED81FE814081518162815F
:10269000738184169506A606B706E4F10E942137D9
:1026A000D3011A968D919C91892B09F07EC084E408
:1026B0008C9DD0018D9DB00D1124A25AB94FBC83C1
:1026C000AB8350968D919C910E942137EB81FC81C8
:1026D000868597850E942137C701B60107DEC701AD
:1026E000B60128960FB6F894DEBF0FBECDBFDF91BE
:1026F000CF911F910F91FF90EF90DF90CF90BF90FF
:10270000AF909F908F907F906F905F904F903F9091
:102710002F904ECFFC01E00FF11F92819983A3818E
:10272000AA839F83A887312C212C2414350464F0BC
:1027300089819A810E942137EFEF8E1A9E0AAE0A94
:10274000BE0A0C5F1F4F9BCFAF81B885ED91FD9105
:10275000B887AF83309759F0848195810E942137E3
:10276000EF81F8853297808191810E942137BFEFF8
:102770002B1A3B0ADACF800F911FFC0184819581CF
:102780000E9421372B813C812F5F3F4F3C832B835D
:10279000025F1F4FF501808191812B813C812415BF
:1027A00035054CF30E94213782CF10E000E01C82F7
:1027B0001B8224E42C9DC0012D9D900D1124DC0171
:1027C000A859B94F5D01E6CF28960FB6F894DEBF41
:1027D0000FBECDBFDF91CF911F910F91FF90EF9072
:1027E000DF90CF90BF90AF909F908F907F906F9031
:1027F0005F904F903F902F90089524E4269FF00122
:10280000279FF00D1124E25AF94F8289938904978A
:10281000029758F485E090E0938B828B8FEF9FEFC7
:10282000DC01828F938FA48FB58F08952F923F92F2
:102830004F925F926F927F928F929F92AF92BF92D0
:10284000CF92DF92EF92FF920F931F93CF93DF937C
:10285000CDB7DEB7AA970FB6F894DEBF0FBECDBFD7
:102860009AA389A37E8B6D8B1A01098B1A8B2B8BF4
:102870003C8B84E429893A89829F6001839FD00C34
:1028800011248601025A194F89899A89AB89BC891A
:10289000F80180839183A283B383AB01BC01CD0196
:1028A000B3DED601AE59B94F84E0F10101900D922B
:1028B0008A95E1F7F4E02F0E311C64E070E0D80156
:1028C00014968D919C910E946B36F80191878087B8
:1028D000892B09F0F5C04D895E8969897A898B89D0
:1028E0009C8992DE81E0AA960FB6F894DEBF0FBEF7
:1028F000CDBFDF91CF911F910F91FF90EF90DF90AF
:10290000CF90BF90AF909F908F907F906F905F908F
:102910004F903F902F900895A9A5BAA58D919C91B5
:10292000E98DFA8DE80FF91FF88FEF8BD1018D91AA
:102930009C91880F991FA9A1BAA1ED91FC91E80F74
:10294000F91F80819181EF89F88D91838083D10176
:1029500014962D913D914D915C9117972BA33CA31B
:102960004DA35EA362E070E08D899E890E946B3664
:10297000EF89F88D93838283892B09F4ACCFF8E03B
:102980002F0E311C412C512C32012BA13CA14DA109
:102990005EA142165306640675069CF02B8D3C8D95
:1029A0004D8D5E8D2F5F3F4F4F4F5F4F2B8F3C8F75
:1029B0004D8F5E8F498D5A8D4C5F5F4F5A8F498F77
:1029C00090C0610124E0C20ED11CD101ED90FC90B9
:1029D000EE0CFF1CEF89F88D82819381E80EF91EC1
:1029E00068E070E081E090E00E946B368C01D701D6
:1029F0008D939C93892B09F46ECF84E0F601D80166
:102A000001900D928A95E1F7B8E02B0E311CF80188
:102A100080819181A281B381181619061A061B06BE
:102A2000DCF464E070E00E946B36D80115969C934C
:102A30008E931497892B09F44ECFD12CC12C812C65
:102A4000912C5401F80180819181A281B381881673
:102A50009906AA06BB0634F0FFEF4F1A5F0A6F0A09
:102A60007F0A93CFF801E480F580EC0CFD1C80E137
:102A7000F101DE01119601900D928A95E1F7F0E1E6
:102A80002F0E311CA701BE016F5F7F4FA9A1BAA114
:102A900014968D919C9195DCF80186819781D701E0
:102AA00012962D913C91820F931F97838683BFEFDF
:102AB0008B1A9B0AAB0ABB0AE4E0CE0ED11CC2CF34
:102AC0001A8E198E1B8E1C8E1D8E1E8E18A30F8FB4
:102AD000A8014C5F5F4F58A74FA3C80108969AA75B
:102AE00089A7EFA1F8A580819181A281B3812B8D67
:102AF0003C8D4D8D5E8D281739074A075B070CF416
:102B00000BCF6EE070E08D899E890E946B36AF8D91
:102B1000B8A11B969C938E931A97B12CA12CD12C03
:102B2000C12CF12CE12C24E4E989FA892E9FC00103
:102B30002F9F900D11249C012859394F388F2F8BCE
:102B400088248394912C4D895E89C416D50654F14E
:102B500084E4A989BA898A9F80018B9F100D112472
:102B6000025A194FF80115861486C70133E0880F01
:102B7000991F3A95E1F70E948536D80151969C93AA
:102B80008E935097892B09F4A6CEC701880F991F01
:102B90000E948536F80197878687892B09F49BCE9A
:102BA00080E0A1CED1014D905D906D907D901D0192
:102BB00077FC91CEEF89F88D008111810A0D1B1DE4
:102BC000D80111969C928E924114510461047104B3
:102BD00029F1C2010E948536F80195838483892BEF
:102BE00009F479CEF80153824282848195819783DA
:102BF0008683918780871386128681E090E045283E
:102C00004628472811F490E080E0E80EF91EFFEF17
:102C1000CF1ADF0A2EE0A20EB11C95CF15961C929A
:102C20001E921497DFCF2F923F924F925F926F9236
:102C30007F928F929F92AF92BF92CF92DF92EF924C
:102C4000FF920F931F93CF93DF93CDB7DEB76A97B1
:102C50000FB6F894DEBF0FBECDBF9E8B8D8B4901A2
:102C60005A0184E4829F7001839FF00C1124970124
:102C7000225A394F6901FB0180819181F901958BBD
:102C8000848BD701AC58B94FFB01349684E0019096
:102C90000D928A95E1F7D701A858B94FFB013896F4
:102CA00084E001900D928A95E1F7D701A458B94FBD
:102CB000FB013C9684E001900D928A95E1F7D701E3
:102CC000A457B94FFB01709684E001900D928A954C
:102CD000E1F78B010C5E1F4FF90186A597A5A0A90E
:102CE000B1A918161906DCF5880F991F880F991FCE
:102CF0000E948536F60193AB82AB892B09F4D3C0D1
:102D0000312C212C412C512C32019601225D3F4F58
:102D1000388F2F8BC601C2969A8F898FF496FC8BC1
:102D2000EB8BB301A2012FEF421A520A620A720A18
:102D3000EF89F88D80819181A281B381481759076D
:102D40006A077B070CF47BC0F60184A995A90E9451
:102D50008536F60197AB86AB892B09F4A4C0F80140
:102D600080819181A281B38124E4289DF001299D75
:102D7000F00D1124E25AF94FAC01BD014D7F21E065
:102D800030E0452B462B472B11F030E020E033A3F9
:102D900022A324E4289DF001299DF00D1124E25A7C
:102DA000F94F0197A109B10921E030E00297A1058F
:102DB000B10510F030E020E035A324A3D701AC57D3
:102DC000B94FF801349684E001900D928A95E1F7AD
:102DD00084E4889DF001899DF00D1124E25AF94F99
:102DE000868D978DA0A1B1A1B7FF58C0B095A095D1
:102DF000909581959F4FAF4FBF4F82AF93AFA4AFD8
:102E0000B5AF168E178E10A211A280E06A960FB68B
:102E1000F894DEBF0FBECDBFDF91CF911F910F9110
:102E2000FF90EF90DF90CF90BF90AF909F908F90EA
:102E30007F906F905F904F903F902F900895E98D15
:102E4000FA8D808191819C01220D331D3A8B298B53
:102E500080E1F801DE01119601900D928A95E1F76B
:102E6000005F1F4F49895A89BE016F5F7F4FED890F
:102E7000FE8984819581A5DAEB89FC898081918125
:102E8000E989FA8922813381820F931FEB89FC89BA
:102E900091838083F4E02F0E311C43CF12AE13AE2A
:102EA00014AE15AEB2CFC501B40120DA81E0AECFC9
:102EB000CF92DF92EF92FF92CF93DF931092E606CC
:102EC00024E4269FF001279FF00D1124E25AF94FC8
:102ED00015A614A630E020E0D12CC12CDF011A96F3
:102EE000C1E0D0E0C416D506F4F024E4269FF0013A
:102EF000279FF00D1124E25AF94F13A612A611AE26
:102F000010AEDF01DE961D921D921D921C9213974A
:102F100082E090E0938B828BDF91CF91FF90EF90D6
:102F2000DF90CF900895ED91FC911197E20FF31F80
:102F3000E280F3801E141F0454F4E480F580F782CD
:102F4000E682F186E08613861286D183C083EFEF96
:102F5000CE1ADE0A225F3F4FC5CF24E4269FF00140
:102F6000279FF00D1124E25AF94F138A128A4CCB95
:102F700024E4269FF001279FF00D1124E25AF94F17
:102F80008289938981309105C8F08530910518F0C8
:102F9000059769F008958FEF9FEFDC01828F938F83
:102FA000A48FB58F85E090E0938B828B08958FEF8F
:102FB0009FEFDC01828F938FA48FB58F089524E457
:102FC000249FD001259FB00D1124A25AB94F2EE0A5
:102FD000AC01249FC001259F900D11241A96ED91FC
:102FE000FC91E80FF91F81E08093E60682859385C6
:102FF00091878087408551852681378181E090E0E7
:103000004217530711F090E080E091838083089588
:103010002F923F924F925F926F927F928F929F92E8
:10302000AF92BF92CF92DF92EF92FF920F931F93D6
:10303000CF93DF93CDB7DEB7C055D1090FB6F89463
:10304000DEBF0FBECDBF9EAF8DAF4BA75CA76DA7F8
:103050007EA76801790184E4809FF001819FF00DD3
:103060001124E25AF94F2285338523963FAF2EAFC4
:10307000239782899389029761F486A597A5A0A9D1
:10308000B1A9892B8A2B8B2BC9F584E090E0938B17
:10309000828B84E48C9DF0018D9DF00D1124E25A09
:1030A000F94F828993898230910509F037C282AD48
:1030B00093ADA4ADB5AD22242394312C1816190676
:1030C0001A061B060CF42FC2C05BDF4F0FB6F89434
:1030D000DEBF0FBECDBFDF91CF911F910F91FF904B
:1030E000EF90DF90CF90BF90AF909F908F907F90A8
:1030F0006F905F904F903F902F90089584899589AD
:103100004DAD5EAD8417950721F606A917A918AE37
:103110001FAA1BAA1CAA1DAA1EAA1F01CF018E96B8
:1031200027969FAF8EAF2797DF01D2962996BFAF24
:10313000AEAF2997F8962B96FFAFEEAF2B97910184
:103140002A5D3F4F2D963FAF2EAF2D97A1014E5DCB
:103150005F4F2F965FAF4EAF2F970A9761969FAF45
:103160008EAF61972796EEADFFAD27978081918155
:10317000A281B3812BA93CA94DA95EA928173907C3
:103180004A075B0744F081E090E0D101D9969C9317
:103190008E93D8977ECF2996AEADBFAD2997ED918E
:1031A000FC912FA938ADE20FF31F428153815AAF32
:1031B00049AF50815FAF818121968FAF21972B96C8
:1031C000AEADBFAD2B978D919C91892B21F12D96A2
:1031D000EEADFFAD2D9780809180A280B3801AABB9
:1031E00009AB5FA72196FFAD2197F8AB29AD3AADAA
:1031F000369527953695279525963FAF2EAF25977F
:103200001CAE1BAE2596AEADBFAD2597EBADFCADAC
:10321000EA17FB070CF149AD5AAD6FAD21967FADB2
:103220002197C8010E94AA3789AD9AAD8C7F080FFB
:10323000191F2BA93CA94DA95EA92F5F3F4F4F4FE6
:103240005F4F2BAB3CAB4DAB5EAB4FA958AD4C5F6A
:103250005F4F58AF4FAB86CF2F96AEADBFAD2F9718
:103260008D919C91892B71F1EFA5F8A94080518037
:1032700062807380A3019201C501B4010E949F2C5A
:10328000181664F0A9A9BAA92D913D914D915C91B0
:10329000C501B4010E94862D1816BCF1A30192014C
:1032A000C501B4010E949F2C87FF0CC0E9A9FAA9AF
:1032B0002081318142815381C501B4010E949F2C3C
:1032C000882319F16196AEADBFAD61978D919C9148
:1032D000892B09F445C0EFA5F8A940805180628090
:1032E0007380A3019201C501B4010E94862D1816B6
:1032F0001CF5A9A9BAA92D913D914D915C91C501EB
:10330000B4010E949F2C18165CF184E48C9DF0019E
:103310008D9DF00D1124E25AF94F868D978DA0A155
:10332000B1A1892B8A2B8B2B69F183E090E0938BE1
:10333000828B81E090E02CC0A3019201C501B40111
:103340000E949F2C81110CC0E9A9FAA9208131812A
:1033500042815381C501B4010E949F2C87FDD5CFC6
:103360002BAD3CAD2F5F3F4F3CAF2BAF49A95AA9C6
:103370004C5F5F4F5AAB49AB8FA598A9049698ABA9
:103380008FA740CF84E090E0938B828B86AD97AD82
:1033900093A782A77ECEEBADFCAD80819181F40135
:1033A000EE0FFF1FEE0FFF1FE80FF91FA081B18185
:1033B0008C9181110AC0FFEF8F1A9F0AAF0ABF0AD2
:1033C0008DA29EA2AFA2B8A68FC18330A1F30280C6
:1033D000F381E02D2FA938ADE20FF31F8081918199
:1033E0009AAB89AB892B39F34F5F5F4F6F4F7F4F9C
:1033F00049875A876B877C879E01235E3F4FAE01CA
:10340000475D5F4F64E070E0C8010E9409118111BF
:10341000D0C18D819E81AF81B8850496A11DB11D5B
:103420008D839E83AF83B8874D8D5E8DBE016B5DAE
:103430007F4F8F8D98A10E94AA378BA19CA10097E6
:1034400061F06D8D7E8DA5E2B0E0AC0FBD1F6A0FFF
:103450007B1F49A15AA10E94AA371CAA1BAA412C72
:10346000512C3201E9A9FAA980819181A281B3810D
:10347000481659066A067B060CF09DCFE9A9FAA901
:10348000848195812BA93CA9280F391F38AB2FA720
:10349000D90112966D917C919E01235E3F4FAE0142
:1034A000475D5F4FC8010E940911811182C1EFA5DC
:1034B000F8A982819381092E000CAA0BBB0B4D81C8
:1034C0005E816F817885840F951FA61FB71F8D833E
:1034D0009E83AF83B887608171814D8D5E8D8F8DA6
:1034E00098A10E94AA378BA19CA1009761F0AFA57B
:1034F000B8A96D917C912D8D3E8D620F731F49A1EE
:103500005AA10E94AA37BFEF4B1A5B0A6B0A7B0ACB
:10351000EBA9FCA93496FCABEBABA4CF312C212C4E
:10352000049709F0D1CD8EE0EDADFEAD8E9F800108
:103530008F9F100D112423962EAD3FAD2397020FC0
:10354000131FD80112964D915C91139741155105A7
:1035500009F4BACD16968D919C919AA789A780E11E
:10356000FE013196DF011D928A95E9F7C98ADA8A50
:10357000EB8AFC8A2114310409F458C084E48C9D40
:10358000F0018D9DF00D1124E25AF94FDF01DE9616
:103590008D909D90AD90BC9082AD93ADA4ADB5AD36
:1035A00088169906AA06BB0609F040C0F801848176
:1035B00095810084F185E02D349624E0DE01559656
:1035C00001900D922A95E1F72D893E89285F3F4FA2
:1035D0003E8B2D8BD80118966D917C911997260FF3
:1035E000371F19963C932E93189718962D913C915E
:1035F0001997480F591F241B350B37FD06C0820F42
:10360000931F19969C938E93189784E48C9DF001D8
:103610008D9DF00D1124E456F94FB1E08B1A9108FD
:10362000A108B10880829182A282B3829E012B5EA2
:103630003F4FAE01475D5F4F64E170E0C8010E94FB
:1036400009118111B6C08CE090E0A0E0B0E08D835C
:103650009E83AF83B8879E01235E3F4FAE01475DD7
:103660005F4F64E070E0C8010E9409118111A1C0A0
:1036700080E190E0A0E0B0E08D839E83AF83B887C7
:103680004D8D5E8DBE01655D7F4F8F8D98A10E942F
:10369000AA378BA19CA1009761F06D8D7E8DEBE226
:1036A000F0E0EC0FFD1F6E0F7F1F49A15AA10E9491
:1036B000AA371DA21EA21FA218A62DAD3EAD220F35
:1036C000331F38AF2FAB24E42C9DC0012D9D900DEE
:1036D0001124825A994FAC014C5F5F4F5AAF49AFEA
:1036E000DC011896BCAFABAF8DA09EA0AFA0B8A474
:1036F00049855A856B857C85E9ADFAAD80819181DC
:10370000A281B38188169906AA06BB060CF443CEA3
:10371000452B462B472B09F4D7CC8AE190E0A0E05B
:10372000B0E089839A83AB83BC832DAD3EADC901E4
:10373000330FAA0BBB0B8D879E87AF87B88B4D8944
:103740005E89BE016F5F7F4F8F89988D0E94AA3777
:103750008B8D9C8D009761F06D897E8941E050E0F2
:103760004C0F5D1F640F751F498D5A8D0E94AA373B
:1037700089A59AA5D80117969C938E9316971196B2
:103780001C921E92232809F49FCC84E48C9DF001A6
:103790008D9DF00D1124E456F94F80819181A28115
:1037A000B3810196A11DB11D80839183A283B38350
:1037B0008BCC232809F088CC84E48C9DF0018D9D6E
:1037C000F00D1124E25AF94F81E090E095A784A70B
:1037D00085E090E0938B828B77CCCF92DF92EF9253
:1037E000FF920F931F9324E4269FF001279FF00D73
:1037F0001124E25AF94F228933892115310509F440
:1038000052C06B017C0121303105B1F482A593A532
:103810009C012F5F3F4F33A722A7092E000CAA0B54
:10382000BB0B028D138D248D358D80179107A20758
:10383000B307C9F5C7013CDB84E48C9DF0018D9D85
:10384000F00D1124E25AF94F82899389039759F5B3
:1038500082A593A59C012F5F3F4F33A722A7092E76
:10386000000CAA0BBB0B468D578D60A171A184176C
:103870009507A607B707BCF086AD97AD93A782A7BB
:1038800084E090E0938B828B82AD93ADA4ADB5AD17
:10389000181619061A061B0634F4EE5BFF4F81E07A
:1038A00090E0918380831F910F91FF90EF90DF90C4
:1038B000CF90089524E4269FF001279FF00D112456
:1038C000E25AF94F828993890497B1F482A593A5AE
:1038D000019693A782A7092E000CAA0BBB0B468961
:1038E0005789608D718D84179507A607B70721F456
:1038F00085E090E0938B828B08952F923F924F92B8
:103900005F926F927F928F929F92AF92BF92CF926F
:10391000DF92EF92FF920F931F93CF93DF93CDB778
:10392000DEB72E970FB6F894DEBF0FBECDBFDC0119
:1039300049835A836B837C83290184E4849FF0014B
:10394000859FF00D1124E25AF94F22883388C10176
:103950000497029708F0D5C011961C921E921396F8
:103960001C921E92129715861486912C812C90E041
:1039700080E08F019F01205F3F4F38872F833F01F9
:103980003CE0630E711CBF01625F7F4F7A876987DD
:103990003A96FC87EB87EF81F88520813181F3012E
:1039A00040815181E985FA85A080B1808415950513
:1039B0000CF445C011965C934E9313963C932E9352
:1039C00012971596BC92AE921497452BF9F4F5E038
:1039D0002F163104D9F41092E606F801828D938DEA
:1039E000A48DB58DAE014F5F5F4F64E070E08F3FF7
:1039F0009F4FAF4FBF4F09F079C080E290E032D6C1
:103A000069817A818B819C81A201A7DA2E960FB6FB
:103A1000F894DEBF0FBECDBFDF91CF911F910F9104
:103A2000FF90EF90DF90CF90BF90AF909F908F90DE
:103A30007F906F905F904F903F902F900895EB850F
:103A4000FC8560817181FB01E80DF91DFE87ED8722
:103A500060817181672B89F5E084F18462817381D3
:103A60007E836D83668177816A01E3E0CC0CDD1C87
:103A7000EA95E1F72C0D3D1D440F551F4A0D5B1DC6
:103A8000FA0191838083F301408151814F5F5F4F41
:103A900051834083F901F382E282ED85FE857387CD
:103AA0006287E616F70670F46E197F09F9017183D3
:103AB000608315821482178216820196FEE08F0EB3
:103AC000911C69CFED85FE85C480D5804D815E81D6
:103AD0004C0D5D1D4E195F09F901518340836C192E
:103AE0007D0975836483D782C682E7CF8FE190E03A
:103AF000B9D5F80113A612A681E090E0938B828BD2
:103B000085CF1586148611961C921E9213961C92D0
:103B10001E9212977BCFEF92FF920F931F93CF933A
:103B2000DF937C018B01EA0179D681111EC080915F
:103B3000C9049091CA04049711F5DF91CF911F91A8
:103B40000F91FF90EF90089528ED38EB45E050E09D
:103B500060E070E0CB010E94C526AE01B801C7014C
:103B60000E94D326C8010E949E268091E70690916C
:103B7000E806892BE1F68881882331F3D8CF83E0EA
:103B800090E09093CA048093C904D7CFCF93DF937A
:103B90002091C9043091CA042430310541F0EB0171
:103BA0000E94D326CE01DF91CF910C949E26DF9107
:103BB000CF9108950C94D12A0C94C62A0C94B42A5F
:103BC0000C94AE260C94582A089570E060E090E0C2
:103BD00080E0FFC50895AF92BF92CF92DF92EF923F
:103BE000FF920F931F93CF93DF931F921F92CDB736
:103BF000DEB75C018B0169017A0190E080E0C114BD
:103C0000D104E104F10469F40F900F90DF91CF919A
:103C10001F910F91FF90EF90DF90CF90BF90AF90EA
:103C200008959C2D8D2DC114D10421E0E206F104EC
:103C300010F09FEF8FEF9E012F5F3F4F492F582FBE
:103C4000B801C5010E945B2B8F3F9807E9F22981DB
:103C50003A81C21AD30AE108F108020F131FCFCF2D
:103C60002091ED063091EE068091EF069091F006DE
:103C70002817390789F08091F3069091F406019690
:103C80009093F4068093F30682E10E946A32909347
:103C9000F0068093EF0608958091F3069091F40664
:103CA0000197EECF2091E9063091EA068091EB066C
:103CB0009091EC062817390711F18091F106909147
:103CC000F20601969093F2068093F10682E00E943C
:103CD0006A329093EC068093EB068091F106909106
:103CE000F206813A964F8CF48091F1069091F2069B
:103CF000805A964F9093F2068093F1060895809132
:103D0000F1069091F2060197DDCF8091F106909136
:103D1000F2068036994094F38091F1069091F20674
:103D200080569940E7CF83E10E946A329093EE0675
:103D30008093ED062091EF063091F00682179307ED
:103D400051F08091F3069091F40601969093F40659
:103D50008093F30608958091F3069091F4060197FD
:103D6000F5CF83E00E946A329093EA068093E906D9
:103D70002091EB063091EC0682179307D9F08091E1
:103D8000F1069091F20601969093F2068093F10667
:103D90008091F1069091F206813A964F8CF48091D1
:103DA000F1069091F206805A964F9093F206809316
:103DB000F10608958091F1069091F2060197E4CF03
:103DC0008091F1069091F2068036994094F38091AB
:103DD000F1069091F20680569940E7CFEF92FF925C
:103DE0000F931F93CF93DF937C018B01EA01F901BD
:103DF00020E030E040E85FE360817181828193815F
:103E00000E949F2C811115C0F7018081882321F029
:103E10001092F2061092F1068091F1069091F2064E
:103E2000F801918380838091F3069091F406998341
:103E30008883DF91CF911F910F91FF90EF900895AC
:103E4000CF93DF93E90120E030E040E85FE3688151
:103E500079818A819B810E949F2C8823A1F162E055
:103E600082E00E94013262E083E00E94013260E061
:103E700082E10E94013260E083E10E94013241E070
:103E800050E062E57EE180E00E94EE2D41E050E0EE
:103E900061EB7EE181E00E94EE2D41E050E060E3C5
:103EA0007EE185E00E94EE2D41E050E063E97EE195
:103EB00084E00E94EE2D80E090E0A0E8BFE38883DC
:103EC0009983AA83BB83DF91CF91089540E05BE49F
:103ED00060E070E090E080E000C08130910579F012
:103EE0001CF4892B39F008958230910561F0039715
:103EF00071F0089526E08AE297E00C945C3326E0A6
:103F000087EC97E0FACF26E084E698E0F6CF26E04B
:103F100081E099E0F2CF1F920F920FB60F92112419
:103F20000BB60F922F933F934F935F936F937F93B3
:103F30008F939F93AF93BF93EF93FF9386E09FEF91
:103F400090932501809324010E94952BFF91EF917E
:103F5000BF91AF919F918F917F916F915F914F91A1
:103F60003F912F910F900BBE0F900FBE0F901F909F
:103F7000189586E09FEF9093250180932401A3E795
:103F8000B0E08C918E7F8C93E0E2F1E080818C7FB9
:103F90008083E1E2F1E08081877E8083808183609D
:103FA000808380818B7F80838C9181608C93089546
:103FB00081E008958F929F92AF92BF92CF92DF924D
:103FC000EF92FF920F931F93CF93DF935C017B01DE
:103FD0008A01C1E0D0E0CE15DF05CCF081E0F5012B
:103FE0008083B801C7010E94FB2AF5019283818377
:103FF00090E080E0DF91CF911F910F91FF90EF90C3
:10400000DF90CF90BF90AF909F908F9008956E01FA
:104010008FEFC81AD80AFE01EE0FFF1FE00FF11F45
:10402000808091808114910469F064E775E0C40197
:104030000E94BA37892B41F4CC0FDD1FC00FD11F6E
:1040400019821882E601C7CF67E775E0C4010E94B4
:10405000BA37892BB9F7EC14FD04A1F36E01E2E045
:10406000CE0ED11CCC0FDD1FC00FD11F19821882BC
:104070001B821A82E7CF85EF96E0089580E00895CD
:104080000F931F93CF93DF938B01BA01E90119823C
:1040900018829801012E000C440B550BFC01818104
:1040A000928199DD019641F01983088380E0DF91C8
:1040B000CF911F910F91089581E0F9CF0F931F9336
:1040C000CF93DF931F921F92CDB7DEB7FB018A011A
:1040D000B9019E012F5F3F4FAF01FC0181819281A9
:1040E0000E94102B019669F089819A81F8019183D1
:1040F000808380E00F900F90DF91CF911F910F91FF
:10410000089581E0F7CFFC01808108950895089516
:1041100081E0FB01808380E00895089510921D07DF
:104120000895FC01818192810C94F32ACF93DF934F
:1041300000D000D000D01F92CDB7DEB7B0E0A0E035
:1041400089839A83AB83BC83CB01770FAA0BBB0B0C
:104150008D839E83AF83B8879E01275F3F4FAE015B
:104160004F5F5F4F68E070E080910C0790910D0702
:1041700087DF811110C081E029853A85283031051B
:1041800009F480E02A960FB6F894DEBF0FBECDBFCB
:10419000DF91CF91089581E0F5CF0F931F93CF93D7
:1041A000DF931F921F92CDB7DEB78B019E012F5F69
:1041B0003F4FAC0180910C0790910D0761DF811199
:1041C0000EC081E029813A812017310709F480E08F
:1041D0000F900F90DF91CF911F910F91089581E083
:1041E000F7CFCF93DF93EC011092100710920F07D7
:1041F00010921C0710921B07AC0160E070E0CB012D
:104200000E94AD17AE0161E070E080E090E00E9496
:10421000AD1780910C0790910D07DF91CF917DCF65
:104220004F925F926F927F928F929F92AF92BF92C6
:10423000CF92DF92EF92FF920F931F93CF93DF9372
:104240001F921F92CDB7DEB78C017C0197FF03C090
:1042500087E0E80EF11C23E0F594E7942A95E1F756
:10426000C80168E070E00E941A366C010E5F1F4FB3
:1042700080910A0790910B0780179107D4F48091E1
:10428000080790910907009731F00E94213710929A
:104290000B0710920A07C8010E9485369093090700
:1042A00080930807892B09F482C010930B070093B1
:1042B0000A0710E000E047C1412C512C3201B12C1B
:1042C000A12C95012F5E384FAE014F5F5F4F61E02B
:1042D00070E080910C0790910D07F0DE811149C0CC
:1042E000EFEF4E1A5E0A6E0A7E0AF0E94F16FFE5FE
:1042F0005F06F1E06F06710444F060911B07709156
:104300001C078DEE90E012DFD7CF89819A81A80E2D
:10431000B91E8AE0A816B10409F043C049E050E094
:1043200070E060E081E197E00E94872B60911B07BD
:1043300070911C07882391F18091190790E08617EE
:10434000970781F4BC018EEE90E0F0DE80911B07B0
:1043500090911C070196992790931C0780931B0747
:104360000F5F1F4F0E151F050CF4A6CFCD2809F0C7
:104370007CC090E080E00F900F90DF91CF911F9173
:104380000F91FF90EF90DF90CF90BF90AF909F90F4
:104390008F907F906F905F904F9008958FEE90E098
:1043A000B2CFEAE0AE16B1040CF48BCFDBCF10E055
:1043B00000E0D8CF0A30110531F549E050E070E057
:1043C00060E081E197E00E94872B60911B0770916C
:1043D0001C078823A9F08091190790E0861797079A
:1043E00041F6BC018EEE90E0A1DE80911B0790911A
:1043F0001C070196992790931C0780931B07B9CF40
:104400008FEE90E02BC00A3011050CF0B2CF98016E
:104410002F5E384FAE014F5F5F4F61E070E08091DB
:104420000C0790910D074ADE8111A3CF89819A81F3
:10443000080F191FFFEFCF1ADF0AEF0AFF0A80E902
:10444000C8168FE5D80681E0E806F1040CF4B2CF77
:1044500060911B0770911C078DEE90E067DE10E005
:1044600000E0C12CD12C7601D2CFC12CD12C760109
:1044700010E000E0CCCF412C512C3201B12CA12C0A
:10448000480193E0880C991C9A95E1F72091080760
:1044900030910907C501880D991D280F391FAE01FC
:1044A0004F5F5F4F61E070E080910C0790910D07C6
:1044B00005DE81115ECFEFEF4E1A5E0A6E0A7E0AAC
:1044C00060911B0770911C078DEE90E0F0E94F168C
:1044D000FFE55F06F1E06F0671040CF043C08981CF
:1044E0009A81A80EB91E8AE0A816B10409F041C04D
:1044F00049E050E0B40180910807909109070E94BB
:10450000872B60911B0770911C07882349F18091CC
:10451000080790910907880E991EF401808590E0A4
:104520008617970781F4BC018EEE90E0FFDD809145
:104530001B0790911C070196992790931C07809365
:104540001B070F5F1F4F0E151F050CF494CFC114EE
:10455000D10409F081C080910807909109070BCF21
:104560008FEE90E0E3DD412C512C3201B12CA12CD7
:104570008DCFFAE0AF16B1040CF488CFE4CF8FEE04
:1045800090E0D4DDF12CE12C812C912C5401970189
:104590002F5E384FAE014F5F5F4F61E070E080915A
:1045A0000C0790910D078ADD8111E3CE8FEF881AF9
:1045B000980AA80AB80A60911B0770911C078DEE33
:1045C00090E0E0E98E16EFE59E06E1E0AE06B1046C
:1045D000C4F689819A81E80EF91EFAE0EF16F1041B
:1045E000A9F549E050E070E060E081E197E00E94C9
:1045F000872B60911B0770911C07882309F4BFCF9C
:104600008091190790E08617970709F0A4CFBC01A5
:104610008EEE90E08BDD83E0000F111F8A95E1F7AD
:104620008091080790910907A60161E177E0800F6A
:10463000911F0E94AA3780911B0790911C07019639
:10464000992790931C0780931B0785CF8AE0E81673
:10465000F1040CF49CCF7FCF812C912C5401F12CD0
:10466000E12C95CFCF92DF92EF92FF920F931F93A1
:10467000CF93DF931F92CDB7DEB76C017B018A0128
:10468000452B39F0AB0170E060E0C8010E94832B3C
:104690008983B701C6014ADD81110DC001151105DD
:1046A00051F0B701C80179DD811105C061E070E00A
:1046B000CE01019672DD0F90DF91CF911F910F9186
:1046C000FF90EF90DF90CF900895CF92DF92EF921E
:1046D000FF92CF93DF9300D000D01F921F92CDB7EF
:1046E000DEB76B01F12CE12CC982DA82EB82FC820D
:1046F0002D833E834F835887AE014F5F5F4F68E045
:1047000070E0B0DF28960FB6F894DEBF0FBECDBFC5
:10471000DF91CF91FF90EF90DF90CF9008958F922F
:104720009F92AF92BF92CF92DF92EF92FF920F9340
:104730001F93CF93DF937C01EB01CA01690170DD08
:104740000097B1F42FEF3FEFA90161E070E0C701DE
:10475000BCDFC1E08C2FDF91CF911F910F91FF90B3
:10476000EF90DF90CF90BF90AF909F908F90089583
:10477000FC0181909190A190B190BF01FCE1EF16F6
:10478000F10479F4A5019401CE010E941316C82FFB
:10479000A5019401882369F061E070E0C70195DF0D
:1047A000D9CF95018401AB01B601CE010E94161448
:1047B000EECF70E060E0C701DF91CF911F910F91C4
:1047C000FF90EF90DF90CF90BF90AF909F908F9031
:1047D0007CCF0F931F93CF93DF93EC018B014BDCC6
:1047E00090930D0780930C070097A9F0A801BE01D4
:1047F000E1DBEC01892B49F080910C0790910D07CA
:1048000085DC10920D0710920C07CE01DF91CF913D
:104810001F910F910895C3E8D5E0EECF80910C076A
:1048200090910D0770CC2F923F924F925F926F92B2
:104830007F928F929F92AF92BF92CF92DF92EF9230
:10484000FF920F931F93CF93DF93CDB7DEB7699796
:104850000FB6F894DEBF0FBECDBF20911007222304
:10486000F1F05B8B4A8B6E877F87888B998B9A01DF
:10487000AB01BC01CE0101967C013FD810E048E0BD
:10488000242E312CE88EF98E89819A81181619060A
:104890000CF451C2112319F08A899B89A2DC699614
:1048A0000FB6F894DEBF0FBECDBFDF91CF911F9141
:1048B0000F91FF90EF90DF90CF90BF90AF909F90BF
:1048C0008F907F906F905F904F903F902F900895C2
:1048D000EB81FC818C859D8533E0880F991F3A958B
:1048E000E1F7E80FF91F808191819093070780938A
:1048F00006072481358142815381509305074093F7
:104900000407468157815093030740930207820FA3
:10491000931F9C01990F440B550B2C8B3D8B4E8B99
:104920005F8B812C912C54018C899D89AE89BF8924
:1049300088169906AA06BB0640F18C859D85880FCE
:10494000991FED81FE81E80FF91F4E855F8568890B
:104950007989808191810E94DF17AC85BD85119690
:10496000BD87AC8789819A81EC85FD85E817F907B9
:104970000CF4AECF2A893B894E855F856889798999
:10498000888D998D0E947D1C7FCF1F8260910607C4
:1049900070910707CB01072E000CAA0BBB0B8401FB
:1049A0007501640134E0C30ED11CE11CF11CC81672
:1049B000D906EA06FB0608F0B3C02091040730913F
:1049C0000507A4014C5F5F4F240F351FF901C0801C
:1049D000D12CF12CE12C24013501F5E04F0E511CB6
:1049E000611C711C481659066A067B0608F0A3C0B4
:1049F0002091040730910507F8013596E20FF31F67
:104A00002081D22A2401350126E0420E511C611C6E
:104A1000711C481659066A067B0608F097C020915B
:104A2000040730910507F8013696E20FF31F208145
:104A3000E22A2401350137E0430E511C611C711C30
:104A4000481659066A067B0608F08BC020910407B9
:104A500030910507F8013796E20FF31F20812601F8
:104A60003701722A7501640148E0C40ED11CE11CB3
:104A7000F11C8C159D05AE05BF0508F41DC18816F7
:104A80009906AA06BB0608F077C0809104079091AA
:104A90000507800F911F68E070E07FDBE09106075B
:104AA000F09107079F010F2E000C440B550BD3010B
:104AB000C2018C0D9D1DAE1DBF1D281739074A0769
:104AC0005B0708F478C0C216D306E406F50608F0C2
:104AD0005DC080910407909105079801285F3F4FC2
:104AE000820F931FB20159DB80910607909107074F
:104AF000AC01092E000C660B770BC416D506E60632
:104B0000F70608F04DC0085F1F4F80910407909191
:104B10000507800F911FA20170E060E0F4D5A7C0E7
:104B200044E050E0461B570B480D591D20910207E9
:104B30003091030749CFE5E0F0E0E61BF70BE00F0B
:104B4000F11F209102073091030758CFE6E0F0E013
:104B5000E61BF70BE00FF11F2091020730910307CE
:104B600064CFE7E0F0E0E61BF70BE00FF11F2091C8
:104B700002073091030770CF9801261B370B8091F5
:104B8000020790910307820F931F85CF91012E1B7F
:104B90003F0B200F311F8091020790910307A0CF98
:104BA000D101A81BB90BCD01080F191F8091020775
:104BB00090910307AECFBF0168507109601B710B64
:104BC000C216D306E406F50608F062C08091040719
:104BD000909105079801285F3F4F820F931FDDDA00
:104BE0008091060790910707B101681B790B600F50
:104BF000711F640D751D8091020790910307CDDA36
:104C00008091060790910707AC0148505109FA01BD
:104C1000E01BF10BAC01092E000C660B770BC416E0
:104C2000D506E606F70608F03DC08091040790918E
:104C300005079801285F3F4F820F931FAF0170E077
:104C400060E061D58F832091060730910707F1015D
:104C5000E21BF30B9F01200F311F240D351D50E087
:104C600040E0682F809102079091030738D58F8329
:104C700061E070E0CE01079690DA182F38E0430E1D
:104C8000511C611C711C840C951CA61CB71C4CCEBD
:104C900091012E1B3F0B200F311F80910207909135
:104CA00003079BCF9101281B390B200F311F8091E7
:104CB000020790910307C0CF88169906AA06BB0683
:104CC00068F5601B710B8091040790910507800FB8
:104CD000911F63DA8091060790910707B101681B65
:104CE000790B600F711F640D751D80910207909103
:104CF000030753DA8091060790910707AC01092E4C
:104D0000000C660B770BC416D506E606F70608F40A
:104D1000FACE9101281B390BC90146CFC801861B69
:104D2000970B2091020730910307B201685F7F4F14
:104D3000820F931FDECF1D861C8614CECF93DF9388
:104D4000EC01AC0160E070E0CB016DDDAE0161E033
:104D500070E080E090E0DF91CF9165CDCF938091BE
:104D60000C0790910D078AD9C82F81110BC060E004
:104D700070E0CB010E94D81261E070E080E090E02A
:104D80000E94D8128C2FCF9108950F931F93890101
:104D90009A01AB01BC0180910C0790910D07B7D926
:104DA0001F910F9108954F925F926F927F928F9211
:104DB0009F92AF92BF92CF92DF92EF92FF920F93AA
:104DC0001F93CF93DF93CDB7DEB763970FB6F894F9
:104DD000DEBF0FBECDBF6C018B015A018091100761
:104DE000882309F43DC080911007882309F442C04C
:104DF00080910F071A821982882309F4C0C0F0E954
:104E00004F2EFFE55F2E66246394712CF12CE12C6C
:104E100097012850394FAE014F5F5F4F61E070E05E
:104E200080910C0790910D0749D9982E811169C086
:104E300089819A81E80EF91EE114F10409F461C038
:104E400081E0481A51086108710859F560911B0703
:104E500070911C078DEE90E069D91A82198251C0B9
:104E600060E177E080910C0790910D0751D988237C
:104E700009F4B9CF63960FB6F894DEBF0FBECDBF6D
:104E8000DF91CF911F910F91FF90EF90DF90CF9026
:104E9000BF90AF909F908F907F906F905F904F905A
:104EA0000895AAE0EA16F10409F063C049E050E071
:104EB00070E060E088EF96E02AD460911B07709163
:104EC0001C07882309F452C08091000790E08617E0
:104ED000970719F6BC018EEE90E028D988E0E8EF3C
:104EE000F6E0DE01199601900D928A95E1F7809126
:104EF0001B0790911C070196992790931C0780939C
:104F00001B0781E029813A81121613060CF080E01C
:104F10009110CAC2882309F4ADCF80910F07811187
:104F200004C019861A861B861C8689859A85AB85DE
:104F3000BC8580319105A105B10508F09BCFFC012E
:104F40008827EA55F84D8F4F0C944F362628E529CF
:104F5000542A3A272A295D2916281E28FA27392A91
:104F6000282A352A3A273A273A27E5278FEE90E074
:104F700073CFBAE0EB16F1040CF44ACFC2CFF12C98
:104F8000E12CE8E06E2E712C29E030E02C0F3D1F63
:104F90002E0D3F1DAE014F5F5F4FB3016E197F09AC
:104FA00080910C0790910D0789D8982E29813A811C
:104FB000811109C0E20EF31EE114F10421F0E8E0D2
:104FC000EE16F1040CF381E09FCFD6011696ED9119
:104FD000FC9180819181A281B38189839A83AB8383
:104FE000BC83AE014F5F5F4F64E070E085E190E00D
:104FF00039DB40CF8D859E8513D92FEF3FEFA90177
:1050000061E070E0009771F0FC01C080D180E28027
:10501000F380A801C701B6010E945817A7019601A5
:1050200070E060E08DE190E050DB24CF4D855E853F
:105030009801B6018BE190E072DB1CCF4D855E8557
:105040002FEF3FEFB6018CE190E0F6CFD60114963A
:10505000ED91FC9100811181F80182809380A08004
:10506000B18070E1472E512C612C712C49825A82FB
:105070006B827C8288E090E0A0E0B0E08D839E832C
:10508000AF83B8879E012F5E3F4FAE014F5F5F4FEA
:1050900068E070E080910C0790910D070E9440201D
:1050A0008823D9F010E000E0C80163960FB6F894A9
:1050B000DEBF0FBECDBFDF91CF911F910F91FF904B
:1050C000EF90DF90CF90BF90AF909F908F907F90A8
:1050D0006F905F904F900C94213789899A89089737
:1050E00009F7D801ED90FC90B8E0EB0EF11CEE0C46
:1050F000FF1CEE0CFF1CC7010E9485368C01892B1A
:1051000089F249825A826B827C82C7010F2C000C83
:10511000AA0BBB0B8D839E83AF83B8879E012F5E46
:105120003F4FAE014F5F5F4F68E070E080910C072A
:1051300090910D070E9440208111B6CF89899A89EC
:10514000089709F0B1CFD6011296ED91FC914081FC
:10515000518162817381D8014D935D936D937C93EE
:105160001397448155816681778114964D935D93A1
:105170006D937C931797408551856285738518964A
:105180004D935D936D937C931B9784859585A68540
:10519000B785F80184879587A687B787108A118A13
:1051A000128A138A84E090E0A0E0B0E0848B958BB3
:1051B000A68BB78B8091C9049091CA04B0E0A0E09F
:1051C000808F918FA28FB38FC5010B2C000CAA0B7F
:1051D000BB0B848F958FA68FB78FF401D801909663
:1051E00090E080E08A159B055CF19E012F5E3F4FA9
:1051F000A801B70180910C0790910D070E944020F3
:10520000811152CF89899A89E816F90609F04CCFA5
:10521000A70170E060E0C80176D28B8B9E012F5E03
:105220003F4FAE014D5E5F4F61E070E080910C0733
:1052300090910D070E94402081E080930F0734CFAA
:105240004191519170E060E04D935D936D937D933A
:105250000196C8CF8D859E85AF85B8890097A10539
:10526000B10521F481E080930E0704CE0E94102145
:10527000009781F481E090E0A0E0B0E089839A8318
:10528000AB83BC83AE014F5F5F4F64E070E082E1AF
:1052900090E0AECEBC01C6010E94321219821A8281
:1052A0001B821C82AE014F5F5F4F64E070E082E1C1
:1052B00090E0D8D98823B1F2DDCDD6011496ED91D6
:1052C000FC910190F081E02DE084F1848FEF8983DF
:1052D000E114F10409F472C0D7016D907C90C28092
:1052E000D38070E060E090E080E08615970594F050
:1052F00083E190E00E94962010E000E08111BACD99
:10530000061517055CF161E070E0CE0101960E9480
:10531000CD20B0CD9C0143E0220F331F4A95E1F729
:10532000F701A281B381A20FB31F1296ED91FC91F8
:105330001397EE0FFF1FEC0DFD1D0190F081E02D86
:1053400016964D915C91E49F9001E59F300DF49F7E
:10535000300D1124620F731F0196C7CFD70112962B
:10536000ED91FC91C80123E0880F991F2A95E1F780
:10537000E80FF91FA080B180A281B381AA0FBB1FE3
:10538000AC0DBD1D2D913C9186819781289F4001D8
:10539000299F900C389F900C1124B401C5010E94E4
:1053A000CD20582E940150E040E06981C50197D18D
:1053B000898351105FCD0F5F1F4FA2CF70E060E077
:1053C00083E190E00E94962055CD50E040E070E0EF
:1053D00060E081E190E046D981114CCD60E070E061
:1053E000CB010E94FD138091E606882329F0A801D5
:1053F00060E070E0CB0117DAA80160E070E0CB015B
:105400000E94041361E070E080E090E00E94FD13D0
:105410008091E606882331F0A80161E070E080E029
:1054200090E001DAA80161E070E080E090E00E9485
:1054300004131092100710920F0710921C0710927D
:105440001B0780910C0790910D070E948E2012CDB2
:1054500081E090E09093E8068093E70650E040E01A
:1054600070E060E086E190E0C3CD81E0F5018083EB
:1054700001CD8D859E850E9410212FEF3FEFA90160
:1054800061E070E0009769F0DC01CD90DD90ED9077
:10549000FC90C701B6010E94B817A701960170E001
:1054A00060E08EE190E0C0CDC8010E94F120E2CC26
:1054B000CF92DF92EF92FF92CF93DF93EC01C12C5A
:1054C000D12C7601C701B6010E94FD13AE01C701C0
:1054D000B601A9D9AE01C701B6010E94041380919B
:1054E000080790910907009731F00E942137109228
:1054F000090710920807CA94CD28CE28CF2879F53D
:1055000080910F07F12C882351F050E040E070E0CB
:1055100060E084E190E0A6D8F82E10920F07809109
:105520001007882341F01092100781E090E09093DB
:10553000CA048093C90480910C0790910D070E94C2
:10554000912080910C0790910D070E9486208F2D4D
:10555000DF91CF91FF90EF90DF90CF900895C12C15
:10556000D12C7601C394AECFCF93DF93EC01AC0185
:1055700060E070E0CB010E94ED1BAE0161E070E0E5
:1055800080E090E0DF91CF910C94ED1B60E070E043
:10559000CB010E945A1C61E070E080E090E00C9426
:1055A0005A1CCF92DF92EF92FF920F931F93CF93EB
:1055B000DF93EC016A017B0100E010E098010E949A
:1055C000081801E010E020E030E0B701A601CE01AC
:1055D0000E940818DF91CF911F910F91FF90EF90DB
:1055E000DF90CF90089568EE73E080E090E037D5CB
:1055F00090E080E0089526E040E050E16EE070E049
:105600008AE297E00E945C338AE297E08BD7892B8D
:1056100021F08AE297E0A0D7F7CF90E080E00895EC
:10562000CF92DF92EF92FF920F931F93CF93DF936E
:105630006B017A01E901198218828AE297E072D738
:10564000892B71F18601CC24C39485E6D82E8091F4
:105650001D07811111C08AE297E07ED7853691053A
:10566000B1F7C0921D07F801D1928F01888199810D
:10567000019699838883EBCF888199818E159F0548
:1056800078F48AE297E068D78F3F9807A9F3F8018A
:1056900081938F0188819981019699838883ECCFCA
:1056A00090E080E0DF91CF911F910F91FF90EF90FC
:1056B000DF90CF9008950F931F93CF93DF93EA016C
:1056C00089018AE297E00E94EC35F801D183C0831A
:1056D00090E080E0DF91CF911F910F910895DC0160
:1056E000A40FB51F420F531F9D01281B390B241710
:1056F000350710F0862F0895ED91E627F0E0EC5184
:10570000FF4F6491F1CF9A01AB016FEFE8CFCF93D8
:10571000FC01E60FF71FE40FF51FC081F4DF91E0F5
:10572000C81390E0892FCF91089580911E0791E0D2
:10573000980F90931E07882349F021E030E03093C2
:10574000200720931F0780931E07089578940E94D6
:105750005204F89480911E07815080931E070C9488
:10576000DC1DFF920F931F93CF93DF931F92CDB752
:10577000DEB71092C70A1092C60AA7D40E94661F0D
:105780000091F0041091F104F8011182108270E090
:1057900060E090E080E00E94E51D0E94DF0EF8943A
:1057A0007894C80186960E94E41D81E090E00E94F2
:1057B000E01D1982AE014F5F5F4F61E070E0F801BC
:1057C000828193810E948B1D8981882319F081E059
:1057D000F80182A70E94EA1DF8940E94B91FF801FF
:1057E00080819181892B19F481E092A5911180E04B
:1057F0008093C60A78947894FF24F3948091C60A23
:10580000811110C00E94C71081E090E00E94E21D4B
:10581000F89490E080E00F90DF91CF911F910F916D
:10582000FF9008951982AE014F5F5F4F61E070E015
:10583000F801828193810E94C61D8981882311F01D
:10584000F801F2A6F80180819181892B89F481E029
:1058500092A5911101C080E08093C70A9091C70A78
:1058600081E0911180E08093C60A0E94D81FC6CFC4
:1058700081E0F2CF5058BB27AA270ED00DC1FED031
:1058800030F003D120F031F49F3F11F41EF4F3C047
:105890000EF4E095E7FBE9C0E92F0FD180F3BA17CA
:1058A000620773078407950718F071F49EF527C106
:1058B0000EF4E0950B2EBA2FA02D0B01B90190012B
:1058C0000C01CA01A0011124FF27591B99F0593F6F
:1058D00050F4503E68F11A16F040A22F232F342FB7
:1058E0004427585FF3CF469537952795A795F04005
:1058F0005395C9F77EF41F16BA0B620B730B840B1A
:10590000BAF09150A1F0FF0FBB1F661F771F881FD1
:10591000C2F70EC0BA0F621F731F841F48F4879529
:1059200077956795B795F7959E3F08F0B3CF939518
:10593000880F08F09927EE0F97958795089571D0F5
:1059400008F481E0089504D06894B111D9C0089595
:10595000BCD088F09F5790F0B92F9927B751A0F08D
:10596000D1F0660F771F881F991F1AF0BA95C9F7F3
:1059700012C0B13081F0C3D0B1E00895C0C0672F2C
:10598000782F8827B85F39F0B93FCCF386957795A3
:105990006795B395D9F73EF490958095709561958C
:1059A0007F4F8F4F9F4F0895E89409C097FB3EF4B7
:1059B00090958095709561957F4F8F4F9F4F99235C
:1059C000A9F0F92F96E9BB279395F69587957795DA
:1059D0006795B795F111F8CFFAF4BB0F11F460FF9A
:1059E0001BC06F5F7F4F8F4F9F4F16C0882311F0F2
:1059F00096E911C0772321F09EE8872F762F05C006
:105A0000662371F096E8862F70E060E02AF09A95A0
:105A1000660F771F881FDAF7880F9695879597F995
:105A20000895990F0008550FAA0BE0E8FEEF16162F
:105A30001706E807F907C0F012161306E407F50782
:105A400098F0621B730B840B950B39F40A2661F0F6
:105A5000232B242B252B21F408950A2609F4A14099
:105A6000A6958FEF811D811D089597F99F6780E8A6
:105A700070E060E008959FEF80EC089500240A94A0
:105A80001616170618060906089500240A94121619
:105A90001306140605060895092E0394000C11F44C
:105AA000882352F0BB0F40F4BF2B11F460FF04C0F9
:105AB0006F5F7F4F8F4F9F4F089557FD9058440F52
:105AC000551F59F05F3F71F04795880F97FB991F5D
:105AD00061F09F3F79F0879508951216130614061A
